{
	"base2/ErrorHandler.sol": {
		"ErrorHandler": {
			"abi": [
				{
					"inputs": [],
					"stateMutability": "nonpayable",
					"type": "constructor"
				},
				{
					"inputs": [
						{
							"internalType": "uint256",
							"name": "available",
							"type": "uint256"
						},
						{
							"internalType": "uint256",
							"name": "required",
							"type": "uint256"
						}
					],
					"name": "InsufficientBalance",
					"type": "error"
				},
				{
					"inputs": [],
					"name": "NotOwner",
					"type": "error"
				},
				{
					"inputs": [
						{
							"internalType": "address",
							"name": "from",
							"type": "address"
						},
						{
							"internalType": "address",
							"name": "to",
							"type": "address"
						},
						{
							"internalType": "uint256",
							"name": "amount",
							"type": "uint256"
						},
						{
							"internalType": "string",
							"name": "reason",
							"type": "string"
						}
					],
					"name": "TransferFailed",
					"type": "error"
				},
				{
					"inputs": [],
					"name": "Unauthorized",
					"type": "error"
				},
				{
					"inputs": [
						{
							"internalType": "address",
							"name": "",
							"type": "address"
						}
					],
					"name": "balances",
					"outputs": [
						{
							"internalType": "uint256",
							"name": "",
							"type": "uint256"
						}
					],
					"stateMutability": "view",
					"type": "function"
				},
				{
					"inputs": [
						{
							"internalType": "address",
							"name": "newOwner",
							"type": "address"
						}
					],
					"name": "changeOwner",
					"outputs": [],
					"stateMutability": "nonpayable",
					"type": "function"
				},
				{
					"inputs": [
						{
							"internalType": "uint256",
							"name": "price",
							"type": "uint256"
						}
					],
					"name": "checkPrice",
					"outputs": [],
					"stateMutability": "payable",
					"type": "function"
				},
				{
					"inputs": [],
					"name": "deposit",
					"outputs": [],
					"stateMutability": "payable",
					"type": "function"
				},
				{
					"inputs": [
						{
							"internalType": "uint256",
							"name": "a",
							"type": "uint256"
						},
						{
							"internalType": "uint256",
							"name": "b",
							"type": "uint256"
						}
					],
					"name": "divide",
					"outputs": [
						{
							"internalType": "uint256",
							"name": "",
							"type": "uint256"
						}
					],
					"stateMutability": "pure",
					"type": "function"
				},
				{
					"inputs": [
						{
							"internalType": "address",
							"name": "owner",
							"type": "address"
						}
					],
					"name": "onlyOwner",
					"outputs": [],
					"stateMutability": "view",
					"type": "function"
				},
				{
					"inputs": [],
					"name": "owner1",
					"outputs": [
						{
							"internalType": "address",
							"name": "",
							"type": "address"
						}
					],
					"stateMutability": "view",
					"type": "function"
				},
				{
					"inputs": [
						{
							"internalType": "address",
							"name": "to",
							"type": "address"
						},
						{
							"internalType": "uint256",
							"name": "amount",
							"type": "uint256"
						}
					],
					"name": "transfer",
					"outputs": [],
					"stateMutability": "pure",
					"type": "function"
				},
				{
					"inputs": [
						{
							"internalType": "uint256",
							"name": "amount",
							"type": "uint256"
						}
					],
					"name": "withdraw",
					"outputs": [],
					"stateMutability": "pure",
					"type": "function"
				},
				{
					"inputs": [
						{
							"internalType": "uint256",
							"name": "amount",
							"type": "uint256"
						}
					],
					"name": "withdraw2",
					"outputs": [],
					"stateMutability": "nonpayable",
					"type": "function"
				}
			],
			"devdoc": {
				"kind": "dev",
				"methods": {},
				"version": 1
			},
			"evm": {
				"assembly": "    /* \"base2/ErrorHandler.sol\":58:2341  contract ErrorHandler {... */\n  mstore(0x40, 0x80)\n    /* \"base2/ErrorHandler.sol\":1330:1380  constructor() {... */\n  callvalue\n  dup1\n  iszero\n  tag_1\n  jumpi\n  revert(0x00, 0x00)\ntag_1:\n  pop\n    /* \"base2/ErrorHandler.sol\":1363:1373  msg.sender */\n  caller\n    /* \"base2/ErrorHandler.sol\":1354:1360  owner1 */\n  0x00\n  0x00\n    /* \"base2/ErrorHandler.sol\":1354:1373  owner1 = msg.sender */\n  0x0100\n  exp\n  dup2\n  sload\n  dup2\n  0xffffffffffffffffffffffffffffffffffffffff\n  mul\n  not\n  and\n  swap1\n  dup4\n  0xffffffffffffffffffffffffffffffffffffffff\n  and\n  mul\n  or\n  swap1\n  sstore\n  pop\n    /* \"base2/ErrorHandler.sol\":58:2341  contract ErrorHandler {... */\n  dataSize(sub_0)\n  dup1\n  dataOffset(sub_0)\n  0x00\n  codecopy\n  0x00\n  return\nstop\n\nsub_0: assembly {\n        /* \"base2/ErrorHandler.sol\":58:2341  contract ErrorHandler {... */\n      mstore(0x40, 0x80)\n      jumpi(tag_1, lt(calldatasize, 0x04))\n      shr(0xe0, calldataload(0x00))\n      dup1\n      0x73688914\n      gt\n      tag_12\n      jumpi\n      dup1\n      0x73688914\n      eq\n      tag_7\n      jumpi\n      dup1\n      0xa6f9dae1\n      eq\n      tag_8\n      jumpi\n      dup1\n      0xa9059cbb\n      eq\n      tag_9\n      jumpi\n      dup1\n      0xd0e30db0\n      eq\n      tag_10\n      jumpi\n      dup1\n      0xf88e9fbf\n      eq\n      tag_11\n      jumpi\n      jump(tag_1)\n    tag_12:\n      dup1\n      0x1de7463a\n      eq\n      tag_2\n      jumpi\n      dup1\n      0x27e235e3\n      eq\n      tag_3\n      jumpi\n      dup1\n      0x2e1a7d4d\n      eq\n      tag_4\n      jumpi\n      dup1\n      0x34273351\n      eq\n      tag_5\n      jumpi\n      dup1\n      0x71c74e17\n      eq\n      tag_6\n      jumpi\n    tag_1:\n      revert(0x00, 0x00)\n        /* \"base2/ErrorHandler.sol\":518:662  function checkPrice(uint256 price) public payable   {... */\n    tag_2:\n      tag_13\n      0x04\n      dup1\n      calldatasize\n      sub\n      dup2\n      add\n      swap1\n      tag_14\n      swap2\n      swap1\n      tag_15\n      jump\t// in\n    tag_14:\n      tag_16\n      jump\t// in\n    tag_13:\n      stop\n        /* \"base2/ErrorHandler.sol\":1664:1707  mapping(address => uint256) public balances */\n    tag_3:\n      callvalue\n      dup1\n      iszero\n      tag_17\n      jumpi\n      revert(0x00, 0x00)\n    tag_17:\n      pop\n      tag_18\n      0x04\n      dup1\n      calldatasize\n      sub\n      dup2\n      add\n      swap1\n      tag_19\n      swap2\n      swap1\n      tag_20\n      jump\t// in\n    tag_19:\n      tag_21\n      jump\t// in\n    tag_18:\n      mload(0x40)\n      tag_22\n      swap2\n      swap1\n      tag_23\n      jump\t// in\n    tag_22:\n      mload(0x40)\n      dup1\n      swap2\n      sub\n      swap1\n      return\n        /* \"base2/ErrorHandler.sol\":1149:1296  function withdraw(uint256 amount) public pure {... */\n    tag_4:\n      callvalue\n      dup1\n      iszero\n      tag_24\n      jumpi\n      revert(0x00, 0x00)\n    tag_24:\n      pop\n      tag_25\n      0x04\n      dup1\n      calldatasize\n      sub\n      dup2\n      add\n      swap1\n      tag_26\n      swap2\n      swap1\n      tag_15\n      jump\t// in\n    tag_26:\n      tag_27\n      jump\t// in\n    tag_25:\n      stop\n        /* \"base2/ErrorHandler.sol\":2107:2339  function withdraw2(uint256 amount) public hasSufficientBalance(amount) {... */\n    tag_5:\n      callvalue\n      dup1\n      iszero\n      tag_28\n      jumpi\n      revert(0x00, 0x00)\n    tag_28:\n      pop\n      tag_29\n      0x04\n      dup1\n      calldatasize\n      sub\n      dup2\n      add\n      swap1\n      tag_30\n      swap2\n      swap1\n      tag_15\n      jump\t// in\n    tag_30:\n      tag_31\n      jump\t// in\n    tag_29:\n      stop\n        /* \"base2/ErrorHandler.sol\":713:842  function onlyOwner(address owner) public view {... */\n    tag_6:\n      callvalue\n      dup1\n      iszero\n      tag_32\n      jumpi\n      revert(0x00, 0x00)\n    tag_32:\n      pop\n      tag_33\n      0x04\n      dup1\n      calldatasize\n      sub\n      dup2\n      add\n      swap1\n      tag_34\n      swap2\n      swap1\n      tag_20\n      jump\t// in\n    tag_34:\n      tag_35\n      jump\t// in\n    tag_33:\n      stop\n        /* \"base2/ErrorHandler.sol\":1302:1323  address public owner1 */\n    tag_7:\n      callvalue\n      dup1\n      iszero\n      tag_36\n      jumpi\n      revert(0x00, 0x00)\n    tag_36:\n      pop\n      tag_37\n      tag_38\n      jump\t// in\n    tag_37:\n      mload(0x40)\n      tag_39\n      swap2\n      swap1\n      tag_40\n      jump\t// in\n    tag_39:\n      mload(0x40)\n      dup1\n      swap2\n      sub\n      swap1\n      return\n        /* \"base2/ErrorHandler.sol\":1566:1657  function changeOwner(address newOwner) public onlyOwner2 {... */\n    tag_8:\n      callvalue\n      dup1\n      iszero\n      tag_41\n      jumpi\n      revert(0x00, 0x00)\n    tag_41:\n      pop\n      tag_42\n      0x04\n      dup1\n      calldatasize\n      sub\n      dup2\n      add\n      swap1\n      tag_43\n      swap2\n      swap1\n      tag_20\n      jump\t// in\n    tag_43:\n      tag_44\n      jump\t// in\n    tag_42:\n      stop\n        /* \"base2/ErrorHandler.sol\":128:317  function transfer(address to, uint256 amount) public pure {... */\n    tag_9:\n      callvalue\n      dup1\n      iszero\n      tag_45\n      jumpi\n      revert(0x00, 0x00)\n    tag_45:\n      pop\n      tag_46\n      0x04\n      dup1\n      calldatasize\n      sub\n      dup2\n      add\n      swap1\n      tag_47\n      swap2\n      swap1\n      tag_48\n      jump\t// in\n    tag_47:\n      tag_49\n      jump\t// in\n    tag_46:\n      stop\n        /* \"base2/ErrorHandler.sol\":1929:2081  function deposit() public payable {... */\n    tag_10:\n      tag_50\n      tag_51\n      jump\t// in\n    tag_50:\n      stop\n        /* \"base2/ErrorHandler.sol\":336:513  function divide(uint256 a, uint256 b) public pure returns (uint256) {... */\n    tag_11:\n      callvalue\n      dup1\n      iszero\n      tag_52\n      jumpi\n      revert(0x00, 0x00)\n    tag_52:\n      pop\n      tag_53\n      0x04\n      dup1\n      calldatasize\n      sub\n      dup2\n      add\n      swap1\n      tag_54\n      swap2\n      swap1\n      tag_55\n      jump\t// in\n    tag_54:\n      tag_56\n      jump\t// in\n    tag_53:\n      mload(0x40)\n      tag_57\n      swap2\n      swap1\n      tag_23\n      jump\t// in\n    tag_57:\n      mload(0x40)\n      dup1\n      swap2\n      sub\n      swap1\n      return\n        /* \"base2/ErrorHandler.sol\":518:662  function checkPrice(uint256 price) public payable   {... */\n    tag_16:\n        /* \"base2/ErrorHandler.sol\":596:601  price */\n      dup1\n        /* \"base2/ErrorHandler.sol\":584:593  msg.value */\n      callvalue\n        /* \"base2/ErrorHandler.sol\":584:601  msg.value < price */\n      lt\n        /* \"base2/ErrorHandler.sol\":580:656  if (msg.value < price) {... */\n      iszero\n      tag_59\n      jumpi\n        /* \"base2/ErrorHandler.sol\":617:645  revert(\"Insufficient funds\") */\n      mload(0x40)\n      0x08c379a000000000000000000000000000000000000000000000000000000000\n      dup2\n      mstore\n      0x04\n      add\n      tag_60\n      swap1\n      tag_61\n      jump\t// in\n    tag_60:\n      mload(0x40)\n      dup1\n      swap2\n      sub\n      swap1\n      revert\n        /* \"base2/ErrorHandler.sol\":580:656  if (msg.value < price) {... */\n    tag_59:\n        /* \"base2/ErrorHandler.sol\":518:662  function checkPrice(uint256 price) public payable   {... */\n      pop\n      jump\t// out\n        /* \"base2/ErrorHandler.sol\":1664:1707  mapping(address => uint256) public balances */\n    tag_21:\n      mstore(0x20, 0x01)\n      dup1\n      0x00\n      mstore\n      keccak256(0x00, 0x40)\n      0x00\n      swap2\n      pop\n      swap1\n      pop\n      sload\n      dup2\n      jump\t// out\n        /* \"base2/ErrorHandler.sol\":1149:1296  function withdraw(uint256 amount) public pure {... */\n    tag_27:\n        /* \"base2/ErrorHandler.sol\":1218:1223  10000 */\n      0x2710\n        /* \"base2/ErrorHandler.sol\":1209:1215  amount */\n      dup2\n        /* \"base2/ErrorHandler.sol\":1209:1223  amount > 10000 */\n      gt\n        /* \"base2/ErrorHandler.sol\":1205:1290  if (amount > 10000) {... */\n      iszero\n      tag_63\n      jumpi\n        /* \"base2/ErrorHandler.sol\":1266:1270  1000 */\n      0x03e8\n        /* \"base2/ErrorHandler.sol\":1272:1278  amount */\n      dup2\n        /* \"base2/ErrorHandler.sol\":1246:1279  InsufficientBalance(1000, amount) */\n      mload(0x40)\n      0xcf47918100000000000000000000000000000000000000000000000000000000\n      dup2\n      mstore\n      0x04\n      add\n      tag_64\n      swap3\n      swap2\n      swap1\n      tag_65\n      jump\t// in\n    tag_64:\n      mload(0x40)\n      dup1\n      swap2\n      sub\n      swap1\n      revert\n        /* \"base2/ErrorHandler.sol\":1205:1290  if (amount > 10000) {... */\n    tag_63:\n        /* \"base2/ErrorHandler.sol\":1149:1296  function withdraw(uint256 amount) public pure {... */\n      pop\n      jump\t// out\n        /* \"base2/ErrorHandler.sol\":2107:2339  function withdraw2(uint256 amount) public hasSufficientBalance(amount) {... */\n    tag_31:\n        /* \"base2/ErrorHandler.sol\":2170:2176  amount */\n      dup1\n        /* \"base2/ErrorHandler.sol\":1855:1861  amount */\n      dup1\n        /* \"base2/ErrorHandler.sol\":1831:1839  balances */\n      0x01\n        /* \"base2/ErrorHandler.sol\":1831:1851  balances[msg.sender] */\n      0x00\n        /* \"base2/ErrorHandler.sol\":1840:1850  msg.sender */\n      caller\n        /* \"base2/ErrorHandler.sol\":1831:1851  balances[msg.sender] */\n      0xffffffffffffffffffffffffffffffffffffffff\n      and\n      0xffffffffffffffffffffffffffffffffffffffff\n      and\n      dup2\n      mstore\n      0x20\n      add\n      swap1\n      dup2\n      mstore\n      0x20\n      add\n      0x00\n      keccak256\n      sload\n        /* \"base2/ErrorHandler.sol\":1831:1861  balances[msg.sender] >= amount */\n      lt\n      iszero\n        /* \"base2/ErrorHandler.sol\":1823:1885  require(balances[msg.sender] >= amount, unicode\"余额不足\") */\n      tag_67\n      jumpi\n      mload(0x40)\n      0x08c379a000000000000000000000000000000000000000000000000000000000\n      dup2\n      mstore\n      0x04\n      add\n      tag_68\n      swap1\n      tag_69\n      jump\t// in\n    tag_68:\n      mload(0x40)\n      dup1\n      swap2\n      sub\n      swap1\n      revert\n    tag_67:\n        /* \"base2/ErrorHandler.sol\":2212:2218  amount */\n      dup2\n        /* \"base2/ErrorHandler.sol\":2188:2196  balances */\n      0x01\n        /* \"base2/ErrorHandler.sol\":2188:2208  balances[msg.sender] */\n      0x00\n        /* \"base2/ErrorHandler.sol\":2197:2207  msg.sender */\n      caller\n        /* \"base2/ErrorHandler.sol\":2188:2208  balances[msg.sender] */\n      0xffffffffffffffffffffffffffffffffffffffff\n      and\n      0xffffffffffffffffffffffffffffffffffffffff\n      and\n      dup2\n      mstore\n      0x20\n      add\n      swap1\n      dup2\n      mstore\n      0x20\n      add\n      0x00\n      keccak256\n      0x00\n        /* \"base2/ErrorHandler.sol\":2188:2218  balances[msg.sender] -= amount */\n      dup3\n      dup3\n      sload\n      tag_71\n      swap2\n      swap1\n      tag_72\n      jump\t// in\n    tag_71:\n      swap3\n      pop\n      pop\n      dup2\n      swap1\n      sstore\n      pop\n        /* \"base2/ErrorHandler.sol\":2236:2246  msg.sender */\n      caller\n        /* \"base2/ErrorHandler.sol\":2228:2256  payable(msg.sender).transfer */\n      0xffffffffffffffffffffffffffffffffffffffff\n      and\n        /* \"base2/ErrorHandler.sol\":2228:2264  payable(msg.sender).transfer(amount) */\n      0x08fc\n        /* \"base2/ErrorHandler.sol\":2257:2263  amount */\n      dup4\n        /* \"base2/ErrorHandler.sol\":2228:2264  payable(msg.sender).transfer(amount) */\n      swap1\n      dup2\n      iszero\n      mul\n      swap1\n      mload(0x40)\n      0x00\n      mload(0x40)\n      dup1\n      dup4\n      sub\n      dup2\n      dup6\n      dup9\n      dup9\n      call\n      swap4\n      pop\n      pop\n      pop\n      pop\n      iszero\n      dup1\n      iszero\n      tag_74\n      jumpi\n      returndatacopy(0x00, 0x00, returndatasize)\n      revert(0x00, returndatasize)\n    tag_74:\n      pop\n        /* \"base2/ErrorHandler.sol\":2305:2306  0 */\n      0x00\n        /* \"base2/ErrorHandler.sol\":2281:2289  balances */\n      0x01\n        /* \"base2/ErrorHandler.sol\":2281:2301  balances[msg.sender] */\n      0x00\n        /* \"base2/ErrorHandler.sol\":2290:2300  msg.sender */\n      caller\n        /* \"base2/ErrorHandler.sol\":2281:2301  balances[msg.sender] */\n      0xffffffffffffffffffffffffffffffffffffffff\n      and\n      0xffffffffffffffffffffffffffffffffffffffff\n      and\n      dup2\n      mstore\n      0x20\n      add\n      swap1\n      dup2\n      mstore\n      0x20\n      add\n      0x00\n      keccak256\n      sload\n        /* \"base2/ErrorHandler.sol\":2281:2306  balances[msg.sender] >= 0 */\n      lt\n      iszero\n        /* \"base2/ErrorHandler.sol\":2274:2307  assert(balances[msg.sender] >= 0) */\n      tag_75\n      jumpi\n      tag_76\n      tag_77\n      jump\t// in\n    tag_76:\n    tag_75:\n        /* \"base2/ErrorHandler.sol\":2107:2339  function withdraw2(uint256 amount) public hasSufficientBalance(amount) {... */\n      pop\n      pop\n      jump\t// out\n        /* \"base2/ErrorHandler.sol\":713:842  function onlyOwner(address owner) public view {... */\n    tag_35:\n        /* \"base2/ErrorHandler.sol\":787:792  owner */\n      dup1\n        /* \"base2/ErrorHandler.sol\":773:792  msg.sender != owner */\n      0xffffffffffffffffffffffffffffffffffffffff\n      and\n        /* \"base2/ErrorHandler.sol\":773:783  msg.sender */\n      caller\n        /* \"base2/ErrorHandler.sol\":773:792  msg.sender != owner */\n      0xffffffffffffffffffffffffffffffffffffffff\n      and\n      eq\n        /* \"base2/ErrorHandler.sol\":769:836  if (msg.sender != owner) {... */\n      tag_79\n      jumpi\n        /* \"base2/ErrorHandler.sol\":815:825  NotOwner() */\n      mload(0x40)\n      0x30cd747100000000000000000000000000000000000000000000000000000000\n      dup2\n      mstore\n      0x04\n      add\n      mload(0x40)\n      dup1\n      swap2\n      sub\n      swap1\n      revert\n        /* \"base2/ErrorHandler.sol\":769:836  if (msg.sender != owner) {... */\n    tag_79:\n        /* \"base2/ErrorHandler.sol\":713:842  function onlyOwner(address owner) public view {... */\n      pop\n      jump\t// out\n        /* \"base2/ErrorHandler.sol\":1302:1323  address public owner1 */\n    tag_38:\n      0x00\n      0x00\n      swap1\n      sload\n      swap1\n      0x0100\n      exp\n      swap1\n      div\n      0xffffffffffffffffffffffffffffffffffffffff\n      and\n      dup2\n      jump\t// out\n        /* \"base2/ErrorHandler.sol\":1566:1657  function changeOwner(address newOwner) public onlyOwner2 {... */\n    tag_44:\n        /* \"base2/ErrorHandler.sol\":1497:1503  owner1 */\n      0x00\n      0x00\n      swap1\n      sload\n      swap1\n      0x0100\n      exp\n      swap1\n      div\n      0xffffffffffffffffffffffffffffffffffffffff\n      and\n        /* \"base2/ErrorHandler.sol\":1483:1503  msg.sender == owner1 */\n      0xffffffffffffffffffffffffffffffffffffffff\n      and\n        /* \"base2/ErrorHandler.sol\":1483:1493  msg.sender */\n      caller\n        /* \"base2/ErrorHandler.sol\":1483:1503  msg.sender == owner1 */\n      0xffffffffffffffffffffffffffffffffffffffff\n      and\n      eq\n        /* \"base2/ErrorHandler.sol\":1475:1542  require(msg.sender == owner1, unicode\"仅合约所有者可调用\") */\n      tag_81\n      jumpi\n      mload(0x40)\n      0x08c379a000000000000000000000000000000000000000000000000000000000\n      dup2\n      mstore\n      0x04\n      add\n      tag_82\n      swap1\n      tag_83\n      jump\t// in\n    tag_82:\n      mload(0x40)\n      dup1\n      swap2\n      sub\n      swap1\n      revert\n    tag_81:\n        /* \"base2/ErrorHandler.sol\":1642:1650  newOwner */\n      dup1\n        /* \"base2/ErrorHandler.sol\":1633:1639  owner1 */\n      0x00\n      0x00\n        /* \"base2/ErrorHandler.sol\":1633:1650  owner1 = newOwner */\n      0x0100\n      exp\n      dup2\n      sload\n      dup2\n      0xffffffffffffffffffffffffffffffffffffffff\n      mul\n      not\n      and\n      swap1\n      dup4\n      0xffffffffffffffffffffffffffffffffffffffff\n      and\n      mul\n      or\n      swap1\n      sstore\n      pop\n        /* \"base2/ErrorHandler.sol\":1566:1657  function changeOwner(address newOwner) public onlyOwner2 {... */\n      pop\n      jump\t// out\n        /* \"base2/ErrorHandler.sol\":128:317  function transfer(address to, uint256 amount) public pure {... */\n    tag_49:\n        /* \"base2/ErrorHandler.sol\":214:215  0 */\n      0x00\n        /* \"base2/ErrorHandler.sol\":200:216  to != address(0) */\n      0xffffffffffffffffffffffffffffffffffffffff\n      and\n        /* \"base2/ErrorHandler.sol\":200:202  to */\n      dup3\n        /* \"base2/ErrorHandler.sol\":200:216  to != address(0) */\n      0xffffffffffffffffffffffffffffffffffffffff\n      and\n      sub\n        /* \"base2/ErrorHandler.sol\":192:249  require(to != address(0), unicode\"无效的接收地址\") */\n      tag_86\n      jumpi\n      mload(0x40)\n      0x08c379a000000000000000000000000000000000000000000000000000000000\n      dup2\n      mstore\n      0x04\n      add\n      tag_87\n      swap1\n      tag_88\n      jump\t// in\n    tag_87:\n      mload(0x40)\n      dup1\n      swap2\n      sub\n      swap1\n      revert\n    tag_86:\n        /* \"base2/ErrorHandler.sol\":272:273  0 */\n      0x00\n        /* \"base2/ErrorHandler.sol\":263:269  amount */\n      dup2\n        /* \"base2/ErrorHandler.sol\":263:273  amount > 0 */\n      gt\n        /* \"base2/ErrorHandler.sol\":255:310  require(amount > 0, unicode\"转账金额必须大于0\") */\n      tag_89\n      jumpi\n      mload(0x40)\n      0x08c379a000000000000000000000000000000000000000000000000000000000\n      dup2\n      mstore\n      0x04\n      add\n      tag_90\n      swap1\n      tag_91\n      jump\t// in\n    tag_90:\n      mload(0x40)\n      dup1\n      swap2\n      sub\n      swap1\n      revert\n    tag_89:\n        /* \"base2/ErrorHandler.sol\":128:317  function transfer(address to, uint256 amount) public pure {... */\n      pop\n      pop\n      jump\t// out\n        /* \"base2/ErrorHandler.sol\":1929:2081  function deposit() public payable {... */\n    tag_51:\n        /* \"base2/ErrorHandler.sol\":1993:1994  0 */\n      0x00\n        /* \"base2/ErrorHandler.sol\":1981:1990  msg.value */\n      callvalue\n        /* \"base2/ErrorHandler.sol\":1981:1994  msg.value > 0 */\n      gt\n        /* \"base2/ErrorHandler.sol\":1973:2031  require(msg.value > 0, unicode\"存款金额必须大于0\") */\n      tag_93\n      jumpi\n      mload(0x40)\n      0x08c379a000000000000000000000000000000000000000000000000000000000\n      dup2\n      mstore\n      0x04\n      add\n      tag_94\n      swap1\n      tag_95\n      jump\t// in\n    tag_94:\n      mload(0x40)\n      dup1\n      swap2\n      sub\n      swap1\n      revert\n    tag_93:\n        /* \"base2/ErrorHandler.sol\":2065:2074  msg.value */\n      callvalue\n        /* \"base2/ErrorHandler.sol\":2041:2049  balances */\n      0x01\n        /* \"base2/ErrorHandler.sol\":2041:2061  balances[msg.sender] */\n      0x00\n        /* \"base2/ErrorHandler.sol\":2050:2060  msg.sender */\n      caller\n        /* \"base2/ErrorHandler.sol\":2041:2061  balances[msg.sender] */\n      0xffffffffffffffffffffffffffffffffffffffff\n      and\n      0xffffffffffffffffffffffffffffffffffffffff\n      and\n      dup2\n      mstore\n      0x20\n      add\n      swap1\n      dup2\n      mstore\n      0x20\n      add\n      0x00\n      keccak256\n      0x00\n        /* \"base2/ErrorHandler.sol\":2041:2074  balances[msg.sender] += msg.value */\n      dup3\n      dup3\n      sload\n      tag_96\n      swap2\n      swap1\n      tag_97\n      jump\t// in\n    tag_96:\n      swap3\n      pop\n      pop\n      dup2\n      swap1\n      sstore\n      pop\n        /* \"base2/ErrorHandler.sol\":1929:2081  function deposit() public payable {... */\n      jump\t// out\n        /* \"base2/ErrorHandler.sol\":336:513  function divide(uint256 a, uint256 b) public pure returns (uint256) {... */\n    tag_56:\n        /* \"base2/ErrorHandler.sol\":395:402  uint256 */\n      0x00\n        /* \"base2/ErrorHandler.sol\":414:428  uint256 result */\n      0x00\n        /* \"base2/ErrorHandler.sol\":435:436  b */\n      dup3\n        /* \"base2/ErrorHandler.sol\":431:432  a */\n      dup5\n        /* \"base2/ErrorHandler.sol\":431:436  a / b */\n      tag_99\n      swap2\n      swap1\n      tag_100\n      jump\t// in\n    tag_99:\n        /* \"base2/ErrorHandler.sol\":414:436  uint256 result = a / b */\n      swap1\n      pop\n        /* \"base2/ErrorHandler.sol\":458:459  0 */\n      0x00\n        /* \"base2/ErrorHandler.sol\":453:454  b */\n      dup4\n        /* \"base2/ErrorHandler.sol\":453:459  b != 0 */\n      sub\n        /* \"base2/ErrorHandler.sol\":446:460  assert(b != 0) */\n      tag_101\n      jumpi\n      tag_102\n      tag_77\n      jump\t// in\n    tag_102:\n    tag_101:\n        /* \"base2/ErrorHandler.sol\":500:506  result */\n      dup1\n        /* \"base2/ErrorHandler.sol\":493:506  return result */\n      swap2\n      pop\n      pop\n        /* \"base2/ErrorHandler.sol\":336:513  function divide(uint256 a, uint256 b) public pure returns (uint256) {... */\n      swap3\n      swap2\n      pop\n      pop\n      jump\t// out\n        /* \"#utility.yul\":88:205   */\n    tag_104:\n        /* \"#utility.yul\":197:198   */\n      0x00\n        /* \"#utility.yul\":194:195   */\n      0x00\n        /* \"#utility.yul\":187:199   */\n      revert\n        /* \"#utility.yul\":334:411   */\n    tag_106:\n        /* \"#utility.yul\":371:378   */\n      0x00\n        /* \"#utility.yul\":400:405   */\n      dup2\n        /* \"#utility.yul\":389:405   */\n      swap1\n      pop\n        /* \"#utility.yul\":334:411   */\n      swap2\n      swap1\n      pop\n      jump\t// out\n        /* \"#utility.yul\":417:539   */\n    tag_107:\n        /* \"#utility.yul\":490:514   */\n      tag_140\n        /* \"#utility.yul\":508:513   */\n      dup2\n        /* \"#utility.yul\":490:514   */\n      tag_106\n      jump\t// in\n    tag_140:\n        /* \"#utility.yul\":483:488   */\n      dup2\n        /* \"#utility.yul\":480:515   */\n      eq\n        /* \"#utility.yul\":470:533   */\n      tag_141\n      jumpi\n        /* \"#utility.yul\":529:530   */\n      0x00\n        /* \"#utility.yul\":526:527   */\n      0x00\n        /* \"#utility.yul\":519:531   */\n      revert\n        /* \"#utility.yul\":470:533   */\n    tag_141:\n        /* \"#utility.yul\":417:539   */\n      pop\n      jump\t// out\n        /* \"#utility.yul\":545:684   */\n    tag_108:\n        /* \"#utility.yul\":591:596   */\n      0x00\n        /* \"#utility.yul\":629:635   */\n      dup2\n        /* \"#utility.yul\":616:636   */\n      calldataload\n        /* \"#utility.yul\":607:636   */\n      swap1\n      pop\n        /* \"#utility.yul\":645:678   */\n      tag_143\n        /* \"#utility.yul\":672:677   */\n      dup2\n        /* \"#utility.yul\":645:678   */\n      tag_107\n      jump\t// in\n    tag_143:\n        /* \"#utility.yul\":545:684   */\n      swap3\n      swap2\n      pop\n      pop\n      jump\t// out\n        /* \"#utility.yul\":690:1019   */\n    tag_15:\n        /* \"#utility.yul\":749:755   */\n      0x00\n        /* \"#utility.yul\":798:800   */\n      0x20\n        /* \"#utility.yul\":786:795   */\n      dup3\n        /* \"#utility.yul\":777:784   */\n      dup5\n        /* \"#utility.yul\":773:796   */\n      sub\n        /* \"#utility.yul\":769:801   */\n      slt\n        /* \"#utility.yul\":766:885   */\n      iszero\n      tag_145\n      jumpi\n        /* \"#utility.yul\":804:883   */\n      tag_146\n      tag_104\n      jump\t// in\n    tag_146:\n        /* \"#utility.yul\":766:885   */\n    tag_145:\n        /* \"#utility.yul\":924:925   */\n      0x00\n        /* \"#utility.yul\":949:1002   */\n      tag_147\n        /* \"#utility.yul\":994:1001   */\n      dup5\n        /* \"#utility.yul\":985:991   */\n      dup3\n        /* \"#utility.yul\":974:983   */\n      dup6\n        /* \"#utility.yul\":970:992   */\n      add\n        /* \"#utility.yul\":949:1002   */\n      tag_108\n      jump\t// in\n    tag_147:\n        /* \"#utility.yul\":939:1002   */\n      swap2\n      pop\n        /* \"#utility.yul\":895:1012   */\n      pop\n        /* \"#utility.yul\":690:1019   */\n      swap3\n      swap2\n      pop\n      pop\n      jump\t// out\n        /* \"#utility.yul\":1025:1151   */\n    tag_109:\n        /* \"#utility.yul\":1062:1069   */\n      0x00\n        /* \"#utility.yul\":1102:1144   */\n      0xffffffffffffffffffffffffffffffffffffffff\n        /* \"#utility.yul\":1095:1100   */\n      dup3\n        /* \"#utility.yul\":1091:1145   */\n      and\n        /* \"#utility.yul\":1080:1145   */\n      swap1\n      pop\n        /* \"#utility.yul\":1025:1151   */\n      swap2\n      swap1\n      pop\n      jump\t// out\n        /* \"#utility.yul\":1157:1253   */\n    tag_110:\n        /* \"#utility.yul\":1194:1201   */\n      0x00\n        /* \"#utility.yul\":1223:1247   */\n      tag_150\n        /* \"#utility.yul\":1241:1246   */\n      dup3\n        /* \"#utility.yul\":1223:1247   */\n      tag_109\n      jump\t// in\n    tag_150:\n        /* \"#utility.yul\":1212:1247   */\n      swap1\n      pop\n        /* \"#utility.yul\":1157:1253   */\n      swap2\n      swap1\n      pop\n      jump\t// out\n        /* \"#utility.yul\":1259:1381   */\n    tag_111:\n        /* \"#utility.yul\":1332:1356   */\n      tag_152\n        /* \"#utility.yul\":1350:1355   */\n      dup2\n        /* \"#utility.yul\":1332:1356   */\n      tag_110\n      jump\t// in\n    tag_152:\n        /* \"#utility.yul\":1325:1330   */\n      dup2\n        /* \"#utility.yul\":1322:1357   */\n      eq\n        /* \"#utility.yul\":1312:1375   */\n      tag_153\n      jumpi\n        /* \"#utility.yul\":1371:1372   */\n      0x00\n        /* \"#utility.yul\":1368:1369   */\n      0x00\n        /* \"#utility.yul\":1361:1373   */\n      revert\n        /* \"#utility.yul\":1312:1375   */\n    tag_153:\n        /* \"#utility.yul\":1259:1381   */\n      pop\n      jump\t// out\n        /* \"#utility.yul\":1387:1526   */\n    tag_112:\n        /* \"#utility.yul\":1433:1438   */\n      0x00\n        /* \"#utility.yul\":1471:1477   */\n      dup2\n        /* \"#utility.yul\":1458:1478   */\n      calldataload\n        /* \"#utility.yul\":1449:1478   */\n      swap1\n      pop\n        /* \"#utility.yul\":1487:1520   */\n      tag_155\n        /* \"#utility.yul\":1514:1519   */\n      dup2\n        /* \"#utility.yul\":1487:1520   */\n      tag_111\n      jump\t// in\n    tag_155:\n        /* \"#utility.yul\":1387:1526   */\n      swap3\n      swap2\n      pop\n      pop\n      jump\t// out\n        /* \"#utility.yul\":1532:1861   */\n    tag_20:\n        /* \"#utility.yul\":1591:1597   */\n      0x00\n        /* \"#utility.yul\":1640:1642   */\n      0x20\n        /* \"#utility.yul\":1628:1637   */\n      dup3\n        /* \"#utility.yul\":1619:1626   */\n      dup5\n        /* \"#utility.yul\":1615:1638   */\n      sub\n        /* \"#utility.yul\":1611:1643   */\n      slt\n        /* \"#utility.yul\":1608:1727   */\n      iszero\n      tag_157\n      jumpi\n        /* \"#utility.yul\":1646:1725   */\n      tag_158\n      tag_104\n      jump\t// in\n    tag_158:\n        /* \"#utility.yul\":1608:1727   */\n    tag_157:\n        /* \"#utility.yul\":1766:1767   */\n      0x00\n        /* \"#utility.yul\":1791:1844   */\n      tag_159\n        /* \"#utility.yul\":1836:1843   */\n      dup5\n        /* \"#utility.yul\":1827:1833   */\n      dup3\n        /* \"#utility.yul\":1816:1825   */\n      dup6\n        /* \"#utility.yul\":1812:1834   */\n      add\n        /* \"#utility.yul\":1791:1844   */\n      tag_112\n      jump\t// in\n    tag_159:\n        /* \"#utility.yul\":1781:1844   */\n      swap2\n      pop\n        /* \"#utility.yul\":1737:1854   */\n      pop\n        /* \"#utility.yul\":1532:1861   */\n      swap3\n      swap2\n      pop\n      pop\n      jump\t// out\n        /* \"#utility.yul\":1867:1985   */\n    tag_113:\n        /* \"#utility.yul\":1954:1978   */\n      tag_161\n        /* \"#utility.yul\":1972:1977   */\n      dup2\n        /* \"#utility.yul\":1954:1978   */\n      tag_106\n      jump\t// in\n    tag_161:\n        /* \"#utility.yul\":1949:1952   */\n      dup3\n        /* \"#utility.yul\":1942:1979   */\n      mstore\n        /* \"#utility.yul\":1867:1985   */\n      pop\n      pop\n      jump\t// out\n        /* \"#utility.yul\":1991:2213   */\n    tag_23:\n        /* \"#utility.yul\":2084:2088   */\n      0x00\n        /* \"#utility.yul\":2122:2124   */\n      0x20\n        /* \"#utility.yul\":2111:2120   */\n      dup3\n        /* \"#utility.yul\":2107:2125   */\n      add\n        /* \"#utility.yul\":2099:2125   */\n      swap1\n      pop\n        /* \"#utility.yul\":2135:2206   */\n      tag_163\n        /* \"#utility.yul\":2203:2204   */\n      0x00\n        /* \"#utility.yul\":2192:2201   */\n      dup4\n        /* \"#utility.yul\":2188:2205   */\n      add\n        /* \"#utility.yul\":2179:2185   */\n      dup5\n        /* \"#utility.yul\":2135:2206   */\n      tag_113\n      jump\t// in\n    tag_163:\n        /* \"#utility.yul\":1991:2213   */\n      swap3\n      swap2\n      pop\n      pop\n      jump\t// out\n        /* \"#utility.yul\":2219:2337   */\n    tag_114:\n        /* \"#utility.yul\":2306:2330   */\n      tag_165\n        /* \"#utility.yul\":2324:2329   */\n      dup2\n        /* \"#utility.yul\":2306:2330   */\n      tag_110\n      jump\t// in\n    tag_165:\n        /* \"#utility.yul\":2301:2304   */\n      dup3\n        /* \"#utility.yul\":2294:2331   */\n      mstore\n        /* \"#utility.yul\":2219:2337   */\n      pop\n      pop\n      jump\t// out\n        /* \"#utility.yul\":2343:2565   */\n    tag_40:\n        /* \"#utility.yul\":2436:2440   */\n      0x00\n        /* \"#utility.yul\":2474:2476   */\n      0x20\n        /* \"#utility.yul\":2463:2472   */\n      dup3\n        /* \"#utility.yul\":2459:2477   */\n      add\n        /* \"#utility.yul\":2451:2477   */\n      swap1\n      pop\n        /* \"#utility.yul\":2487:2558   */\n      tag_167\n        /* \"#utility.yul\":2555:2556   */\n      0x00\n        /* \"#utility.yul\":2544:2553   */\n      dup4\n        /* \"#utility.yul\":2540:2557   */\n      add\n        /* \"#utility.yul\":2531:2537   */\n      dup5\n        /* \"#utility.yul\":2487:2558   */\n      tag_114\n      jump\t// in\n    tag_167:\n        /* \"#utility.yul\":2343:2565   */\n      swap3\n      swap2\n      pop\n      pop\n      jump\t// out\n        /* \"#utility.yul\":2571:3045   */\n    tag_48:\n        /* \"#utility.yul\":2639:2645   */\n      0x00\n        /* \"#utility.yul\":2647:2653   */\n      0x00\n        /* \"#utility.yul\":2696:2698   */\n      0x40\n        /* \"#utility.yul\":2684:2693   */\n      dup4\n        /* \"#utility.yul\":2675:2682   */\n      dup6\n        /* \"#utility.yul\":2671:2694   */\n      sub\n        /* \"#utility.yul\":2667:2699   */\n      slt\n        /* \"#utility.yul\":2664:2783   */\n      iszero\n      tag_169\n      jumpi\n        /* \"#utility.yul\":2702:2781   */\n      tag_170\n      tag_104\n      jump\t// in\n    tag_170:\n        /* \"#utility.yul\":2664:2783   */\n    tag_169:\n        /* \"#utility.yul\":2822:2823   */\n      0x00\n        /* \"#utility.yul\":2847:2900   */\n      tag_171\n        /* \"#utility.yul\":2892:2899   */\n      dup6\n        /* \"#utility.yul\":2883:2889   */\n      dup3\n        /* \"#utility.yul\":2872:2881   */\n      dup7\n        /* \"#utility.yul\":2868:2890   */\n      add\n        /* \"#utility.yul\":2847:2900   */\n      tag_112\n      jump\t// in\n    tag_171:\n        /* \"#utility.yul\":2837:2900   */\n      swap3\n      pop\n        /* \"#utility.yul\":2793:2910   */\n      pop\n        /* \"#utility.yul\":2949:2951   */\n      0x20\n        /* \"#utility.yul\":2975:3028   */\n      tag_172\n        /* \"#utility.yul\":3020:3027   */\n      dup6\n        /* \"#utility.yul\":3011:3017   */\n      dup3\n        /* \"#utility.yul\":3000:3009   */\n      dup7\n        /* \"#utility.yul\":2996:3018   */\n      add\n        /* \"#utility.yul\":2975:3028   */\n      tag_108\n      jump\t// in\n    tag_172:\n        /* \"#utility.yul\":2965:3028   */\n      swap2\n      pop\n        /* \"#utility.yul\":2920:3038   */\n      pop\n        /* \"#utility.yul\":2571:3045   */\n      swap3\n      pop\n      swap3\n      swap1\n      pop\n      jump\t// out\n        /* \"#utility.yul\":3051:3525   */\n    tag_55:\n        /* \"#utility.yul\":3119:3125   */\n      0x00\n        /* \"#utility.yul\":3127:3133   */\n      0x00\n        /* \"#utility.yul\":3176:3178   */\n      0x40\n        /* \"#utility.yul\":3164:3173   */\n      dup4\n        /* \"#utility.yul\":3155:3162   */\n      dup6\n        /* \"#utility.yul\":3151:3174   */\n      sub\n        /* \"#utility.yul\":3147:3179   */\n      slt\n        /* \"#utility.yul\":3144:3263   */\n      iszero\n      tag_174\n      jumpi\n        /* \"#utility.yul\":3182:3261   */\n      tag_175\n      tag_104\n      jump\t// in\n    tag_175:\n        /* \"#utility.yul\":3144:3263   */\n    tag_174:\n        /* \"#utility.yul\":3302:3303   */\n      0x00\n        /* \"#utility.yul\":3327:3380   */\n      tag_176\n        /* \"#utility.yul\":3372:3379   */\n      dup6\n        /* \"#utility.yul\":3363:3369   */\n      dup3\n        /* \"#utility.yul\":3352:3361   */\n      dup7\n        /* \"#utility.yul\":3348:3370   */\n      add\n        /* \"#utility.yul\":3327:3380   */\n      tag_108\n      jump\t// in\n    tag_176:\n        /* \"#utility.yul\":3317:3380   */\n      swap3\n      pop\n        /* \"#utility.yul\":3273:3390   */\n      pop\n        /* \"#utility.yul\":3429:3431   */\n      0x20\n        /* \"#utility.yul\":3455:3508   */\n      tag_177\n        /* \"#utility.yul\":3500:3507   */\n      dup6\n        /* \"#utility.yul\":3491:3497   */\n      dup3\n        /* \"#utility.yul\":3480:3489   */\n      dup7\n        /* \"#utility.yul\":3476:3498   */\n      add\n        /* \"#utility.yul\":3455:3508   */\n      tag_108\n      jump\t// in\n    tag_177:\n        /* \"#utility.yul\":3445:3508   */\n      swap2\n      pop\n        /* \"#utility.yul\":3400:3518   */\n      pop\n        /* \"#utility.yul\":3051:3525   */\n      swap3\n      pop\n      swap3\n      swap1\n      pop\n      jump\t// out\n        /* \"#utility.yul\":3531:3700   */\n    tag_115:\n        /* \"#utility.yul\":3615:3626   */\n      0x00\n        /* \"#utility.yul\":3649:3655   */\n      dup3\n        /* \"#utility.yul\":3644:3647   */\n      dup3\n        /* \"#utility.yul\":3637:3656   */\n      mstore\n        /* \"#utility.yul\":3689:3693   */\n      0x20\n        /* \"#utility.yul\":3684:3687   */\n      dup3\n        /* \"#utility.yul\":3680:3694   */\n      add\n        /* \"#utility.yul\":3665:3694   */\n      swap1\n      pop\n        /* \"#utility.yul\":3531:3700   */\n      swap3\n      swap2\n      pop\n      pop\n      jump\t// out\n        /* \"#utility.yul\":3706:3874   */\n    tag_116:\n        /* \"#utility.yul\":3846:3866   */\n      0x496e73756666696369656e742066756e64730000000000000000000000000000\n        /* \"#utility.yul\":3842:3843   */\n      0x00\n        /* \"#utility.yul\":3834:3840   */\n      dup3\n        /* \"#utility.yul\":3830:3844   */\n      add\n        /* \"#utility.yul\":3823:3867   */\n      mstore\n        /* \"#utility.yul\":3706:3874   */\n      pop\n      jump\t// out\n        /* \"#utility.yul\":3880:4246   */\n    tag_117:\n        /* \"#utility.yul\":4022:4025   */\n      0x00\n        /* \"#utility.yul\":4043:4110   */\n      tag_181\n        /* \"#utility.yul\":4107:4109   */\n      0x12\n        /* \"#utility.yul\":4102:4105   */\n      dup4\n        /* \"#utility.yul\":4043:4110   */\n      tag_115\n      jump\t// in\n    tag_181:\n        /* \"#utility.yul\":4036:4110   */\n      swap2\n      pop\n        /* \"#utility.yul\":4119:4212   */\n      tag_182\n        /* \"#utility.yul\":4208:4211   */\n      dup3\n        /* \"#utility.yul\":4119:4212   */\n      tag_116\n      jump\t// in\n    tag_182:\n        /* \"#utility.yul\":4237:4239   */\n      0x20\n        /* \"#utility.yul\":4232:4235   */\n      dup3\n        /* \"#utility.yul\":4228:4240   */\n      add\n        /* \"#utility.yul\":4221:4240   */\n      swap1\n      pop\n        /* \"#utility.yul\":3880:4246   */\n      swap2\n      swap1\n      pop\n      jump\t// out\n        /* \"#utility.yul\":4252:4671   */\n    tag_61:\n        /* \"#utility.yul\":4418:4422   */\n      0x00\n        /* \"#utility.yul\":4456:4458   */\n      0x20\n        /* \"#utility.yul\":4445:4454   */\n      dup3\n        /* \"#utility.yul\":4441:4459   */\n      add\n        /* \"#utility.yul\":4433:4459   */\n      swap1\n      pop\n        /* \"#utility.yul\":4505:4514   */\n      dup2\n        /* \"#utility.yul\":4499:4503   */\n      dup2\n        /* \"#utility.yul\":4495:4515   */\n      sub\n        /* \"#utility.yul\":4491:4492   */\n      0x00\n        /* \"#utility.yul\":4480:4489   */\n      dup4\n        /* \"#utility.yul\":4476:4493   */\n      add\n        /* \"#utility.yul\":4469:4516   */\n      mstore\n        /* \"#utility.yul\":4533:4664   */\n      tag_184\n        /* \"#utility.yul\":4659:4663   */\n      dup2\n        /* \"#utility.yul\":4533:4664   */\n      tag_117\n      jump\t// in\n    tag_184:\n        /* \"#utility.yul\":4525:4664   */\n      swap1\n      pop\n        /* \"#utility.yul\":4252:4671   */\n      swap2\n      swap1\n      pop\n      jump\t// out\n        /* \"#utility.yul\":4677:4765   */\n    tag_118:\n        /* \"#utility.yul\":4725:4732   */\n      0x00\n        /* \"#utility.yul\":4754:4759   */\n      dup2\n        /* \"#utility.yul\":4743:4759   */\n      swap1\n      pop\n        /* \"#utility.yul\":4677:4765   */\n      swap2\n      swap1\n      pop\n      jump\t// out\n        /* \"#utility.yul\":4771:4831   */\n    tag_119:\n        /* \"#utility.yul\":4799:4802   */\n      0x00\n        /* \"#utility.yul\":4820:4825   */\n      dup2\n        /* \"#utility.yul\":4813:4825   */\n      swap1\n      pop\n        /* \"#utility.yul\":4771:4831   */\n      swap2\n      swap1\n      pop\n      jump\t// out\n        /* \"#utility.yul\":4837:5001   */\n    tag_120:\n        /* \"#utility.yul\":4898:4907   */\n      0x00\n        /* \"#utility.yul\":4931:4995   */\n      tag_188\n        /* \"#utility.yul\":4949:4994   */\n      tag_189\n        /* \"#utility.yul\":4958:4993   */\n      tag_190\n        /* \"#utility.yul\":4987:4992   */\n      dup5\n        /* \"#utility.yul\":4958:4993   */\n      tag_118\n      jump\t// in\n    tag_190:\n        /* \"#utility.yul\":4949:4994   */\n      tag_119\n      jump\t// in\n    tag_189:\n        /* \"#utility.yul\":4931:4995   */\n      tag_106\n      jump\t// in\n    tag_188:\n        /* \"#utility.yul\":4918:4995   */\n      swap1\n      pop\n        /* \"#utility.yul\":4837:5001   */\n      swap2\n      swap1\n      pop\n      jump\t// out\n        /* \"#utility.yul\":5007:5160   */\n    tag_121:\n        /* \"#utility.yul\":5105:5153   */\n      tag_192\n        /* \"#utility.yul\":5147:5152   */\n      dup2\n        /* \"#utility.yul\":5105:5153   */\n      tag_120\n      jump\t// in\n    tag_192:\n        /* \"#utility.yul\":5100:5103   */\n      dup3\n        /* \"#utility.yul\":5093:5154   */\n      mstore\n        /* \"#utility.yul\":5007:5160   */\n      pop\n      pop\n      jump\t// out\n        /* \"#utility.yul\":5166:5520   */\n    tag_65:\n        /* \"#utility.yul\":5298:5302   */\n      0x00\n        /* \"#utility.yul\":5336:5338   */\n      0x40\n        /* \"#utility.yul\":5325:5334   */\n      dup3\n        /* \"#utility.yul\":5321:5339   */\n      add\n        /* \"#utility.yul\":5313:5339   */\n      swap1\n      pop\n        /* \"#utility.yul\":5349:5431   */\n      tag_194\n        /* \"#utility.yul\":5428:5429   */\n      0x00\n        /* \"#utility.yul\":5417:5426   */\n      dup4\n        /* \"#utility.yul\":5413:5430   */\n      add\n        /* \"#utility.yul\":5404:5410   */\n      dup6\n        /* \"#utility.yul\":5349:5431   */\n      tag_121\n      jump\t// in\n    tag_194:\n        /* \"#utility.yul\":5441:5513   */\n      tag_195\n        /* \"#utility.yul\":5509:5511   */\n      0x20\n        /* \"#utility.yul\":5498:5507   */\n      dup4\n        /* \"#utility.yul\":5494:5512   */\n      add\n        /* \"#utility.yul\":5485:5491   */\n      dup5\n        /* \"#utility.yul\":5441:5513   */\n      tag_113\n      jump\t// in\n    tag_195:\n        /* \"#utility.yul\":5166:5520   */\n      swap4\n      swap3\n      pop\n      pop\n      pop\n      jump\t// out\n        /* \"#utility.yul\":5526:5740   */\n    tag_122:\n        /* \"#utility.yul\":5666:5732   */\n      0xe4bd99e9a29de4b88de8b6b30000000000000000000000000000000000000000\n        /* \"#utility.yul\":5662:5663   */\n      0x00\n        /* \"#utility.yul\":5654:5660   */\n      dup3\n        /* \"#utility.yul\":5650:5664   */\n      add\n        /* \"#utility.yul\":5643:5733   */\n      mstore\n        /* \"#utility.yul\":5526:5740   */\n      pop\n      jump\t// out\n        /* \"#utility.yul\":5746:6112   */\n    tag_123:\n        /* \"#utility.yul\":5888:5891   */\n      0x00\n        /* \"#utility.yul\":5909:5976   */\n      tag_198\n        /* \"#utility.yul\":5973:5975   */\n      0x0c\n        /* \"#utility.yul\":5968:5971   */\n      dup4\n        /* \"#utility.yul\":5909:5976   */\n      tag_115\n      jump\t// in\n    tag_198:\n        /* \"#utility.yul\":5902:5976   */\n      swap2\n      pop\n        /* \"#utility.yul\":5985:6078   */\n      tag_199\n        /* \"#utility.yul\":6074:6077   */\n      dup3\n        /* \"#utility.yul\":5985:6078   */\n      tag_122\n      jump\t// in\n    tag_199:\n        /* \"#utility.yul\":6103:6105   */\n      0x20\n        /* \"#utility.yul\":6098:6101   */\n      dup3\n        /* \"#utility.yul\":6094:6106   */\n      add\n        /* \"#utility.yul\":6087:6106   */\n      swap1\n      pop\n        /* \"#utility.yul\":5746:6112   */\n      swap2\n      swap1\n      pop\n      jump\t// out\n        /* \"#utility.yul\":6118:6537   */\n    tag_69:\n        /* \"#utility.yul\":6284:6288   */\n      0x00\n        /* \"#utility.yul\":6322:6324   */\n      0x20\n        /* \"#utility.yul\":6311:6320   */\n      dup3\n        /* \"#utility.yul\":6307:6325   */\n      add\n        /* \"#utility.yul\":6299:6325   */\n      swap1\n      pop\n        /* \"#utility.yul\":6371:6380   */\n      dup2\n        /* \"#utility.yul\":6365:6369   */\n      dup2\n        /* \"#utility.yul\":6361:6381   */\n      sub\n        /* \"#utility.yul\":6357:6358   */\n      0x00\n        /* \"#utility.yul\":6346:6355   */\n      dup4\n        /* \"#utility.yul\":6342:6359   */\n      add\n        /* \"#utility.yul\":6335:6382   */\n      mstore\n        /* \"#utility.yul\":6399:6530   */\n      tag_201\n        /* \"#utility.yul\":6525:6529   */\n      dup2\n        /* \"#utility.yul\":6399:6530   */\n      tag_123\n      jump\t// in\n    tag_201:\n        /* \"#utility.yul\":6391:6530   */\n      swap1\n      pop\n        /* \"#utility.yul\":6118:6537   */\n      swap2\n      swap1\n      pop\n      jump\t// out\n        /* \"#utility.yul\":6543:6723   */\n    tag_124:\n        /* \"#utility.yul\":6591:6668   */\n      0x4e487b7100000000000000000000000000000000000000000000000000000000\n        /* \"#utility.yul\":6588:6589   */\n      0x00\n        /* \"#utility.yul\":6581:6669   */\n      mstore\n        /* \"#utility.yul\":6688:6692   */\n      0x11\n        /* \"#utility.yul\":6685:6686   */\n      0x04\n        /* \"#utility.yul\":6678:6693   */\n      mstore\n        /* \"#utility.yul\":6712:6716   */\n      0x24\n        /* \"#utility.yul\":6709:6710   */\n      0x00\n        /* \"#utility.yul\":6702:6717   */\n      revert\n        /* \"#utility.yul\":6729:6923   */\n    tag_72:\n        /* \"#utility.yul\":6769:6773   */\n      0x00\n        /* \"#utility.yul\":6789:6809   */\n      tag_204\n        /* \"#utility.yul\":6807:6808   */\n      dup3\n        /* \"#utility.yul\":6789:6809   */\n      tag_106\n      jump\t// in\n    tag_204:\n        /* \"#utility.yul\":6784:6809   */\n      swap2\n      pop\n        /* \"#utility.yul\":6823:6843   */\n      tag_205\n        /* \"#utility.yul\":6841:6842   */\n      dup4\n        /* \"#utility.yul\":6823:6843   */\n      tag_106\n      jump\t// in\n    tag_205:\n        /* \"#utility.yul\":6818:6843   */\n      swap3\n      pop\n        /* \"#utility.yul\":6867:6868   */\n      dup3\n        /* \"#utility.yul\":6864:6865   */\n      dup3\n        /* \"#utility.yul\":6860:6869   */\n      sub\n        /* \"#utility.yul\":6852:6869   */\n      swap1\n      pop\n        /* \"#utility.yul\":6891:6892   */\n      dup2\n        /* \"#utility.yul\":6885:6889   */\n      dup2\n        /* \"#utility.yul\":6882:6893   */\n      gt\n        /* \"#utility.yul\":6879:6916   */\n      iszero\n      tag_206\n      jumpi\n        /* \"#utility.yul\":6896:6914   */\n      tag_207\n      tag_124\n      jump\t// in\n    tag_207:\n        /* \"#utility.yul\":6879:6916   */\n    tag_206:\n        /* \"#utility.yul\":6729:6923   */\n      swap3\n      swap2\n      pop\n      pop\n      jump\t// out\n        /* \"#utility.yul\":6929:7109   */\n    tag_77:\n        /* \"#utility.yul\":6977:7054   */\n      0x4e487b7100000000000000000000000000000000000000000000000000000000\n        /* \"#utility.yul\":6974:6975   */\n      0x00\n        /* \"#utility.yul\":6967:7055   */\n      mstore\n        /* \"#utility.yul\":7074:7078   */\n      0x01\n        /* \"#utility.yul\":7071:7072   */\n      0x04\n        /* \"#utility.yul\":7064:7079   */\n      mstore\n        /* \"#utility.yul\":7098:7102   */\n      0x24\n        /* \"#utility.yul\":7095:7096   */\n      0x00\n        /* \"#utility.yul\":7088:7103   */\n      revert\n        /* \"#utility.yul\":7115:7329   */\n    tag_125:\n        /* \"#utility.yul\":7255:7321   */\n      0xe4bb85e59088e7baa6e68980e69c89e88085e58fafe8b083e794a80000000000\n        /* \"#utility.yul\":7251:7252   */\n      0x00\n        /* \"#utility.yul\":7243:7249   */\n      dup3\n        /* \"#utility.yul\":7239:7253   */\n      add\n        /* \"#utility.yul\":7232:7322   */\n      mstore\n        /* \"#utility.yul\":7115:7329   */\n      pop\n      jump\t// out\n        /* \"#utility.yul\":7335:7701   */\n    tag_126:\n        /* \"#utility.yul\":7477:7480   */\n      0x00\n        /* \"#utility.yul\":7498:7565   */\n      tag_211\n        /* \"#utility.yul\":7562:7564   */\n      0x1b\n        /* \"#utility.yul\":7557:7560   */\n      dup4\n        /* \"#utility.yul\":7498:7565   */\n      tag_115\n      jump\t// in\n    tag_211:\n        /* \"#utility.yul\":7491:7565   */\n      swap2\n      pop\n        /* \"#utility.yul\":7574:7667   */\n      tag_212\n        /* \"#utility.yul\":7663:7666   */\n      dup3\n        /* \"#utility.yul\":7574:7667   */\n      tag_125\n      jump\t// in\n    tag_212:\n        /* \"#utility.yul\":7692:7694   */\n      0x20\n        /* \"#utility.yul\":7687:7690   */\n      dup3\n        /* \"#utility.yul\":7683:7695   */\n      add\n        /* \"#utility.yul\":7676:7695   */\n      swap1\n      pop\n        /* \"#utility.yul\":7335:7701   */\n      swap2\n      swap1\n      pop\n      jump\t// out\n        /* \"#utility.yul\":7707:8126   */\n    tag_83:\n        /* \"#utility.yul\":7873:7877   */\n      0x00\n        /* \"#utility.yul\":7911:7913   */\n      0x20\n        /* \"#utility.yul\":7900:7909   */\n      dup3\n        /* \"#utility.yul\":7896:7914   */\n      add\n        /* \"#utility.yul\":7888:7914   */\n      swap1\n      pop\n        /* \"#utility.yul\":7960:7969   */\n      dup2\n        /* \"#utility.yul\":7954:7958   */\n      dup2\n        /* \"#utility.yul\":7950:7970   */\n      sub\n        /* \"#utility.yul\":7946:7947   */\n      0x00\n        /* \"#utility.yul\":7935:7944   */\n      dup4\n        /* \"#utility.yul\":7931:7948   */\n      add\n        /* \"#utility.yul\":7924:7971   */\n      mstore\n        /* \"#utility.yul\":7988:8119   */\n      tag_214\n        /* \"#utility.yul\":8114:8118   */\n      dup2\n        /* \"#utility.yul\":7988:8119   */\n      tag_126\n      jump\t// in\n    tag_214:\n        /* \"#utility.yul\":7980:8119   */\n      swap1\n      pop\n        /* \"#utility.yul\":7707:8126   */\n      swap2\n      swap1\n      pop\n      jump\t// out\n        /* \"#utility.yul\":8132:8346   */\n    tag_127:\n        /* \"#utility.yul\":8272:8338   */\n      0xe697a0e69588e79a84e68ea5e694b6e59cb0e59d800000000000000000000000\n        /* \"#utility.yul\":8268:8269   */\n      0x00\n        /* \"#utility.yul\":8260:8266   */\n      dup3\n        /* \"#utility.yul\":8256:8270   */\n      add\n        /* \"#utility.yul\":8249:8339   */\n      mstore\n        /* \"#utility.yul\":8132:8346   */\n      pop\n      jump\t// out\n        /* \"#utility.yul\":8352:8718   */\n    tag_128:\n        /* \"#utility.yul\":8494:8497   */\n      0x00\n        /* \"#utility.yul\":8515:8582   */\n      tag_217\n        /* \"#utility.yul\":8579:8581   */\n      0x15\n        /* \"#utility.yul\":8574:8577   */\n      dup4\n        /* \"#utility.yul\":8515:8582   */\n      tag_115\n      jump\t// in\n    tag_217:\n        /* \"#utility.yul\":8508:8582   */\n      swap2\n      pop\n        /* \"#utility.yul\":8591:8684   */\n      tag_218\n        /* \"#utility.yul\":8680:8683   */\n      dup3\n        /* \"#utility.yul\":8591:8684   */\n      tag_127\n      jump\t// in\n    tag_218:\n        /* \"#utility.yul\":8709:8711   */\n      0x20\n        /* \"#utility.yul\":8704:8707   */\n      dup3\n        /* \"#utility.yul\":8700:8712   */\n      add\n        /* \"#utility.yul\":8693:8712   */\n      swap1\n      pop\n        /* \"#utility.yul\":8352:8718   */\n      swap2\n      swap1\n      pop\n      jump\t// out\n        /* \"#utility.yul\":8724:9143   */\n    tag_88:\n        /* \"#utility.yul\":8890:8894   */\n      0x00\n        /* \"#utility.yul\":8928:8930   */\n      0x20\n        /* \"#utility.yul\":8917:8926   */\n      dup3\n        /* \"#utility.yul\":8913:8931   */\n      add\n        /* \"#utility.yul\":8905:8931   */\n      swap1\n      pop\n        /* \"#utility.yul\":8977:8986   */\n      dup2\n        /* \"#utility.yul\":8971:8975   */\n      dup2\n        /* \"#utility.yul\":8967:8987   */\n      sub\n        /* \"#utility.yul\":8963:8964   */\n      0x00\n        /* \"#utility.yul\":8952:8961   */\n      dup4\n        /* \"#utility.yul\":8948:8965   */\n      add\n        /* \"#utility.yul\":8941:8988   */\n      mstore\n        /* \"#utility.yul\":9005:9136   */\n      tag_220\n        /* \"#utility.yul\":9131:9135   */\n      dup2\n        /* \"#utility.yul\":9005:9136   */\n      tag_128\n      jump\t// in\n    tag_220:\n        /* \"#utility.yul\":8997:9136   */\n      swap1\n      pop\n        /* \"#utility.yul\":8724:9143   */\n      swap2\n      swap1\n      pop\n      jump\t// out\n        /* \"#utility.yul\":9149:9363   */\n    tag_129:\n        /* \"#utility.yul\":9289:9355   */\n      0xe8bdace8b4a6e98791e9a29de5bf85e9a1bbe5a4a7e4ba8e3000000000000000\n        /* \"#utility.yul\":9285:9286   */\n      0x00\n        /* \"#utility.yul\":9277:9283   */\n      dup3\n        /* \"#utility.yul\":9273:9287   */\n      add\n        /* \"#utility.yul\":9266:9356   */\n      mstore\n        /* \"#utility.yul\":9149:9363   */\n      pop\n      jump\t// out\n        /* \"#utility.yul\":9369:9735   */\n    tag_130:\n        /* \"#utility.yul\":9511:9514   */\n      0x00\n        /* \"#utility.yul\":9532:9599   */\n      tag_223\n        /* \"#utility.yul\":9596:9598   */\n      0x19\n        /* \"#utility.yul\":9591:9594   */\n      dup4\n        /* \"#utility.yul\":9532:9599   */\n      tag_115\n      jump\t// in\n    tag_223:\n        /* \"#utility.yul\":9525:9599   */\n      swap2\n      pop\n        /* \"#utility.yul\":9608:9701   */\n      tag_224\n        /* \"#utility.yul\":9697:9700   */\n      dup3\n        /* \"#utility.yul\":9608:9701   */\n      tag_129\n      jump\t// in\n    tag_224:\n        /* \"#utility.yul\":9726:9728   */\n      0x20\n        /* \"#utility.yul\":9721:9724   */\n      dup3\n        /* \"#utility.yul\":9717:9729   */\n      add\n        /* \"#utility.yul\":9710:9729   */\n      swap1\n      pop\n        /* \"#utility.yul\":9369:9735   */\n      swap2\n      swap1\n      pop\n      jump\t// out\n        /* \"#utility.yul\":9741:10160   */\n    tag_91:\n        /* \"#utility.yul\":9907:9911   */\n      0x00\n        /* \"#utility.yul\":9945:9947   */\n      0x20\n        /* \"#utility.yul\":9934:9943   */\n      dup3\n        /* \"#utility.yul\":9930:9948   */\n      add\n        /* \"#utility.yul\":9922:9948   */\n      swap1\n      pop\n        /* \"#utility.yul\":9994:10003   */\n      dup2\n        /* \"#utility.yul\":9988:9992   */\n      dup2\n        /* \"#utility.yul\":9984:10004   */\n      sub\n        /* \"#utility.yul\":9980:9981   */\n      0x00\n        /* \"#utility.yul\":9969:9978   */\n      dup4\n        /* \"#utility.yul\":9965:9982   */\n      add\n        /* \"#utility.yul\":9958:10005   */\n      mstore\n        /* \"#utility.yul\":10022:10153   */\n      tag_226\n        /* \"#utility.yul\":10148:10152   */\n      dup2\n        /* \"#utility.yul\":10022:10153   */\n      tag_130\n      jump\t// in\n    tag_226:\n        /* \"#utility.yul\":10014:10153   */\n      swap1\n      pop\n        /* \"#utility.yul\":9741:10160   */\n      swap2\n      swap1\n      pop\n      jump\t// out\n        /* \"#utility.yul\":10166:10380   */\n    tag_131:\n        /* \"#utility.yul\":10306:10372   */\n      0xe5ad98e6acbee98791e9a29de5bf85e9a1bbe5a4a7e4ba8e3000000000000000\n        /* \"#utility.yul\":10302:10303   */\n      0x00\n        /* \"#utility.yul\":10294:10300   */\n      dup3\n        /* \"#utility.yul\":10290:10304   */\n      add\n        /* \"#utility.yul\":10283:10373   */\n      mstore\n        /* \"#utility.yul\":10166:10380   */\n      pop\n      jump\t// out\n        /* \"#utility.yul\":10386:10752   */\n    tag_132:\n        /* \"#utility.yul\":10528:10531   */\n      0x00\n        /* \"#utility.yul\":10549:10616   */\n      tag_229\n        /* \"#utility.yul\":10613:10615   */\n      0x19\n        /* \"#utility.yul\":10608:10611   */\n      dup4\n        /* \"#utility.yul\":10549:10616   */\n      tag_115\n      jump\t// in\n    tag_229:\n        /* \"#utility.yul\":10542:10616   */\n      swap2\n      pop\n        /* \"#utility.yul\":10625:10718   */\n      tag_230\n        /* \"#utility.yul\":10714:10717   */\n      dup3\n        /* \"#utility.yul\":10625:10718   */\n      tag_131\n      jump\t// in\n    tag_230:\n        /* \"#utility.yul\":10743:10745   */\n      0x20\n        /* \"#utility.yul\":10738:10741   */\n      dup3\n        /* \"#utility.yul\":10734:10746   */\n      add\n        /* \"#utility.yul\":10727:10746   */\n      swap1\n      pop\n        /* \"#utility.yul\":10386:10752   */\n      swap2\n      swap1\n      pop\n      jump\t// out\n        /* \"#utility.yul\":10758:11177   */\n    tag_95:\n        /* \"#utility.yul\":10924:10928   */\n      0x00\n        /* \"#utility.yul\":10962:10964   */\n      0x20\n        /* \"#utility.yul\":10951:10960   */\n      dup3\n        /* \"#utility.yul\":10947:10965   */\n      add\n        /* \"#utility.yul\":10939:10965   */\n      swap1\n      pop\n        /* \"#utility.yul\":11011:11020   */\n      dup2\n        /* \"#utility.yul\":11005:11009   */\n      dup2\n        /* \"#utility.yul\":11001:11021   */\n      sub\n        /* \"#utility.yul\":10997:10998   */\n      0x00\n        /* \"#utility.yul\":10986:10995   */\n      dup4\n        /* \"#utility.yul\":10982:10999   */\n      add\n        /* \"#utility.yul\":10975:11022   */\n      mstore\n        /* \"#utility.yul\":11039:11170   */\n      tag_232\n        /* \"#utility.yul\":11165:11169   */\n      dup2\n        /* \"#utility.yul\":11039:11170   */\n      tag_132\n      jump\t// in\n    tag_232:\n        /* \"#utility.yul\":11031:11170   */\n      swap1\n      pop\n        /* \"#utility.yul\":10758:11177   */\n      swap2\n      swap1\n      pop\n      jump\t// out\n        /* \"#utility.yul\":11183:11374   */\n    tag_97:\n        /* \"#utility.yul\":11223:11226   */\n      0x00\n        /* \"#utility.yul\":11242:11262   */\n      tag_234\n        /* \"#utility.yul\":11260:11261   */\n      dup3\n        /* \"#utility.yul\":11242:11262   */\n      tag_106\n      jump\t// in\n    tag_234:\n        /* \"#utility.yul\":11237:11262   */\n      swap2\n      pop\n        /* \"#utility.yul\":11276:11296   */\n      tag_235\n        /* \"#utility.yul\":11294:11295   */\n      dup4\n        /* \"#utility.yul\":11276:11296   */\n      tag_106\n      jump\t// in\n    tag_235:\n        /* \"#utility.yul\":11271:11296   */\n      swap3\n      pop\n        /* \"#utility.yul\":11319:11320   */\n      dup3\n        /* \"#utility.yul\":11316:11317   */\n      dup3\n        /* \"#utility.yul\":11312:11321   */\n      add\n        /* \"#utility.yul\":11305:11321   */\n      swap1\n      pop\n        /* \"#utility.yul\":11340:11343   */\n      dup1\n        /* \"#utility.yul\":11337:11338   */\n      dup3\n        /* \"#utility.yul\":11334:11344   */\n      gt\n        /* \"#utility.yul\":11331:11367   */\n      iszero\n      tag_236\n      jumpi\n        /* \"#utility.yul\":11347:11365   */\n      tag_237\n      tag_124\n      jump\t// in\n    tag_237:\n        /* \"#utility.yul\":11331:11367   */\n    tag_236:\n        /* \"#utility.yul\":11183:11374   */\n      swap3\n      swap2\n      pop\n      pop\n      jump\t// out\n        /* \"#utility.yul\":11380:11560   */\n    tag_133:\n        /* \"#utility.yul\":11428:11505   */\n      0x4e487b7100000000000000000000000000000000000000000000000000000000\n        /* \"#utility.yul\":11425:11426   */\n      0x00\n        /* \"#utility.yul\":11418:11506   */\n      mstore\n        /* \"#utility.yul\":11525:11529   */\n      0x12\n        /* \"#utility.yul\":11522:11523   */\n      0x04\n        /* \"#utility.yul\":11515:11530   */\n      mstore\n        /* \"#utility.yul\":11549:11553   */\n      0x24\n        /* \"#utility.yul\":11546:11547   */\n      0x00\n        /* \"#utility.yul\":11539:11554   */\n      revert\n        /* \"#utility.yul\":11566:11751   */\n    tag_100:\n        /* \"#utility.yul\":11606:11607   */\n      0x00\n        /* \"#utility.yul\":11623:11643   */\n      tag_240\n        /* \"#utility.yul\":11641:11642   */\n      dup3\n        /* \"#utility.yul\":11623:11643   */\n      tag_106\n      jump\t// in\n    tag_240:\n        /* \"#utility.yul\":11618:11643   */\n      swap2\n      pop\n        /* \"#utility.yul\":11657:11677   */\n      tag_241\n        /* \"#utility.yul\":11675:11676   */\n      dup4\n        /* \"#utility.yul\":11657:11677   */\n      tag_106\n      jump\t// in\n    tag_241:\n        /* \"#utility.yul\":11652:11677   */\n      swap3\n      pop\n        /* \"#utility.yul\":11696:11697   */\n      dup3\n        /* \"#utility.yul\":11686:11721   */\n      tag_242\n      jumpi\n        /* \"#utility.yul\":11701:11719   */\n      tag_243\n      tag_133\n      jump\t// in\n    tag_243:\n        /* \"#utility.yul\":11686:11721   */\n    tag_242:\n        /* \"#utility.yul\":11743:11744   */\n      dup3\n        /* \"#utility.yul\":11740:11741   */\n      dup3\n        /* \"#utility.yul\":11736:11745   */\n      div\n        /* \"#utility.yul\":11731:11745   */\n      swap1\n      pop\n        /* \"#utility.yul\":11566:11751   */\n      swap3\n      swap2\n      pop\n      pop\n      jump\t// out\n\n    auxdata: 0xa26469706673582212201aa27c525afbe3f8988af7f4ce0aa42b26a38d76b0c1ee10d06fd907d780ec1664736f6c634300081e0033\n}\n",
				"bytecode": {
					"linkReferences": {},
					"object": "6080604052348015600e575f5ffd5b50335f5f6101000a81548173ffffffffffffffffffffffffffffffffffffffff021916908373ffffffffffffffffffffffffffffffffffffffff160217905550610cf78061005b5f395ff3fe608060405260043610610090575f3560e01c806373688914116100585780637368891414610164578063a6f9dae11461018e578063a9059cbb146101b6578063d0e30db0146101de578063f88e9fbf146101e857610090565b80631de7463a1461009457806327e235e3146100b05780632e1a7d4d146100ec578063342733511461011457806371c74e171461013c575b5f5ffd5b6100ae60048036038101906100a9919061073f565b610224565b005b3480156100bb575f5ffd5b506100d660048036038101906100d191906107c4565b61026a565b6040516100e391906107fe565b60405180910390f35b3480156100f7575f5ffd5b50610112600480360381019061010d919061073f565b61027f565b005b34801561011f575f5ffd5b5061013a6004803603810190610135919061073f565b6102cd565b005b348015610147575f5ffd5b50610162600480360381019061015d91906107c4565b610437565b005b34801561016f575f5ffd5b5061017861049f565b6040516101859190610826565b60405180910390f35b348015610199575f5ffd5b506101b460048036038101906101af91906107c4565b6104c3565b005b3480156101c1575f5ffd5b506101dc60048036038101906101d7919061083f565b610593565b005b6101e6610647565b005b3480156101f3575f5ffd5b5061020e6004803603810190610209919061087d565b6106de565b60405161021b91906107fe565b60405180910390f35b80341015610267576040517f08c379a000000000000000000000000000000000000000000000000000000000815260040161025e90610915565b60405180910390fd5b50565b6001602052805f5260405f205f915090505481565b6127108111156102ca576103e8816040517fcf4791810000000000000000000000000000000000000000000000000000000081526004016102c1929190610975565b60405180910390fd5b50565b808060015f3373ffffffffffffffffffffffffffffffffffffffff1673ffffffffffffffffffffffffffffffffffffffff1681526020019081526020015f2054101561034e576040517f08c379a0000000000000000000000000000000000000000000000000000000008152600401610345906109e6565b60405180910390fd5b8160015f3373ffffffffffffffffffffffffffffffffffffffff1673ffffffffffffffffffffffffffffffffffffffff1681526020019081526020015f205f82825461039a9190610a31565b925050819055503373ffffffffffffffffffffffffffffffffffffffff166108fc8390811502906040515f60405180830381858888f193505050501580156103e4573d5f5f3e3d5ffd5b505f60015f3373ffffffffffffffffffffffffffffffffffffffff1673ffffffffffffffffffffffffffffffffffffffff1681526020019081526020015f2054101561043357610432610a64565b5b5050565b8073ffffffffffffffffffffffffffffffffffffffff163373ffffffffffffffffffffffffffffffffffffffff161461049c576040517f30cd747100000000000000000000000000000000000000000000000000000000815260040160405180910390fd5b50565b5f5f9054906101000a900473ffffffffffffffffffffffffffffffffffffffff1681565b5f5f9054906101000a900473ffffffffffffffffffffffffffffffffffffffff1673ffffffffffffffffffffffffffffffffffffffff163373ffffffffffffffffffffffffffffffffffffffff1614610551576040517f08c379a000000000000000000000000000000000000000000000000000000000815260040161054890610adb565b60405180910390fd5b805f5f6101000a81548173ffffffffffffffffffffffffffffffffffffffff021916908373ffffffffffffffffffffffffffffffffffffffff16021790555050565b5f73ffffffffffffffffffffffffffffffffffffffff168273ffffffffffffffffffffffffffffffffffffffff1603610601576040517f08c379a00000000000000000000000000000000000000000000000000000000081526004016105f890610b43565b60405180910390fd5b5f8111610643576040517f08c379a000000000000000000000000000000000000000000000000000000000815260040161063a90610bab565b60405180910390fd5b5050565b5f3411610689576040517f08c379a000000000000000000000000000000000000000000000000000000000815260040161068090610c13565b60405180910390fd5b3460015f3373ffffffffffffffffffffffffffffffffffffffff1673ffffffffffffffffffffffffffffffffffffffff1681526020019081526020015f205f8282546106d59190610c31565b92505081905550565b5f5f82846106ec9190610c91565b90505f83036106fe576106fd610a64565b5b8091505092915050565b5f5ffd5b5f819050919050565b61071e8161070c565b8114610728575f5ffd5b50565b5f8135905061073981610715565b92915050565b5f6020828403121561075457610753610708565b5b5f6107618482850161072b565b91505092915050565b5f73ffffffffffffffffffffffffffffffffffffffff82169050919050565b5f6107938261076a565b9050919050565b6107a381610789565b81146107ad575f5ffd5b50565b5f813590506107be8161079a565b92915050565b5f602082840312156107d9576107d8610708565b5b5f6107e6848285016107b0565b91505092915050565b6107f88161070c565b82525050565b5f6020820190506108115f8301846107ef565b92915050565b61082081610789565b82525050565b5f6020820190506108395f830184610817565b92915050565b5f5f6040838503121561085557610854610708565b5b5f610862858286016107b0565b92505060206108738582860161072b565b9150509250929050565b5f5f6040838503121561089357610892610708565b5b5f6108a08582860161072b565b92505060206108b18582860161072b565b9150509250929050565b5f82825260208201905092915050565b7f496e73756666696369656e742066756e647300000000000000000000000000005f82015250565b5f6108ff6012836108bb565b915061090a826108cb565b602082019050919050565b5f6020820190508181035f83015261092c816108f3565b9050919050565b5f819050919050565b5f819050919050565b5f61095f61095a61095584610933565b61093c565b61070c565b9050919050565b61096f81610945565b82525050565b5f6040820190506109885f830185610966565b61099560208301846107ef565b9392505050565b7fe4bd99e9a29de4b88de8b6b300000000000000000000000000000000000000005f82015250565b5f6109d0600c836108bb565b91506109db8261099c565b602082019050919050565b5f6020820190508181035f8301526109fd816109c4565b9050919050565b7f4e487b71000000000000000000000000000000000000000000000000000000005f52601160045260245ffd5b5f610a3b8261070c565b9150610a468361070c565b9250828203905081811115610a5e57610a5d610a04565b5b92915050565b7f4e487b71000000000000000000000000000000000000000000000000000000005f52600160045260245ffd5b7fe4bb85e59088e7baa6e68980e69c89e88085e58fafe8b083e794a800000000005f82015250565b5f610ac5601b836108bb565b9150610ad082610a91565b602082019050919050565b5f6020820190508181035f830152610af281610ab9565b9050919050565b7fe697a0e69588e79a84e68ea5e694b6e59cb0e59d8000000000000000000000005f82015250565b5f610b2d6015836108bb565b9150610b3882610af9565b602082019050919050565b5f6020820190508181035f830152610b5a81610b21565b9050919050565b7fe8bdace8b4a6e98791e9a29de5bf85e9a1bbe5a4a7e4ba8e30000000000000005f82015250565b5f610b956019836108bb565b9150610ba082610b61565b602082019050919050565b5f6020820190508181035f830152610bc281610b89565b9050919050565b7fe5ad98e6acbee98791e9a29de5bf85e9a1bbe5a4a7e4ba8e30000000000000005f82015250565b5f610bfd6019836108bb565b9150610c0882610bc9565b602082019050919050565b5f6020820190508181035f830152610c2a81610bf1565b9050919050565b5f610c3b8261070c565b9150610c468361070c565b9250828201905080821115610c5e57610c5d610a04565b5b92915050565b7f4e487b71000000000000000000000000000000000000000000000000000000005f52601260045260245ffd5b5f610c9b8261070c565b9150610ca68361070c565b925082610cb657610cb5610c64565b5b82820490509291505056fea26469706673582212201aa27c525afbe3f8988af7f4ce0aa42b26a38d76b0c1ee10d06fd907d780ec1664736f6c634300081e0033",
					"opcodes": "PUSH1 0x80 PUSH1 0x40 MSTORE CALLVALUE DUP1 ISZERO PUSH1 0xE JUMPI PUSH0 PUSH0 REVERT JUMPDEST POP CALLER PUSH0 PUSH0 PUSH2 0x100 EXP DUP2 SLOAD DUP2 PUSH20 0xFFFFFFFFFFFFFFFFFFFFFFFFFFFFFFFFFFFFFFFF MUL NOT AND SWAP1 DUP4 PUSH20 0xFFFFFFFFFFFFFFFFFFFFFFFFFFFFFFFFFFFFFFFF AND MUL OR SWAP1 SSTORE POP PUSH2 0xCF7 DUP1 PUSH2 0x5B PUSH0 CODECOPY PUSH0 RETURN INVALID PUSH1 0x80 PUSH1 0x40 MSTORE PUSH1 0x4 CALLDATASIZE LT PUSH2 0x90 JUMPI PUSH0 CALLDATALOAD PUSH1 0xE0 SHR DUP1 PUSH4 0x73688914 GT PUSH2 0x58 JUMPI DUP1 PUSH4 0x73688914 EQ PUSH2 0x164 JUMPI DUP1 PUSH4 0xA6F9DAE1 EQ PUSH2 0x18E JUMPI DUP1 PUSH4 0xA9059CBB EQ PUSH2 0x1B6 JUMPI DUP1 PUSH4 0xD0E30DB0 EQ PUSH2 0x1DE JUMPI DUP1 PUSH4 0xF88E9FBF EQ PUSH2 0x1E8 JUMPI PUSH2 0x90 JUMP JUMPDEST DUP1 PUSH4 0x1DE7463A EQ PUSH2 0x94 JUMPI DUP1 PUSH4 0x27E235E3 EQ PUSH2 0xB0 JUMPI DUP1 PUSH4 0x2E1A7D4D EQ PUSH2 0xEC JUMPI DUP1 PUSH4 0x34273351 EQ PUSH2 0x114 JUMPI DUP1 PUSH4 0x71C74E17 EQ PUSH2 0x13C JUMPI JUMPDEST PUSH0 PUSH0 REVERT JUMPDEST PUSH2 0xAE PUSH1 0x4 DUP1 CALLDATASIZE SUB DUP2 ADD SWAP1 PUSH2 0xA9 SWAP2 SWAP1 PUSH2 0x73F JUMP JUMPDEST PUSH2 0x224 JUMP JUMPDEST STOP JUMPDEST CALLVALUE DUP1 ISZERO PUSH2 0xBB JUMPI PUSH0 PUSH0 REVERT JUMPDEST POP PUSH2 0xD6 PUSH1 0x4 DUP1 CALLDATASIZE SUB DUP2 ADD SWAP1 PUSH2 0xD1 SWAP2 SWAP1 PUSH2 0x7C4 JUMP JUMPDEST PUSH2 0x26A JUMP JUMPDEST PUSH1 0x40 MLOAD PUSH2 0xE3 SWAP2 SWAP1 PUSH2 0x7FE JUMP JUMPDEST PUSH1 0x40 MLOAD DUP1 SWAP2 SUB SWAP1 RETURN JUMPDEST CALLVALUE DUP1 ISZERO PUSH2 0xF7 JUMPI PUSH0 PUSH0 REVERT JUMPDEST POP PUSH2 0x112 PUSH1 0x4 DUP1 CALLDATASIZE SUB DUP2 ADD SWAP1 PUSH2 0x10D SWAP2 SWAP1 PUSH2 0x73F JUMP JUMPDEST PUSH2 0x27F JUMP JUMPDEST STOP JUMPDEST CALLVALUE DUP1 ISZERO PUSH2 0x11F JUMPI PUSH0 PUSH0 REVERT JUMPDEST POP PUSH2 0x13A PUSH1 0x4 DUP1 CALLDATASIZE SUB DUP2 ADD SWAP1 PUSH2 0x135 SWAP2 SWAP1 PUSH2 0x73F JUMP JUMPDEST PUSH2 0x2CD JUMP JUMPDEST STOP JUMPDEST CALLVALUE DUP1 ISZERO PUSH2 0x147 JUMPI PUSH0 PUSH0 REVERT JUMPDEST POP PUSH2 0x162 PUSH1 0x4 DUP1 CALLDATASIZE SUB DUP2 ADD SWAP1 PUSH2 0x15D SWAP2 SWAP1 PUSH2 0x7C4 JUMP JUMPDEST PUSH2 0x437 JUMP JUMPDEST STOP JUMPDEST CALLVALUE DUP1 ISZERO PUSH2 0x16F JUMPI PUSH0 PUSH0 REVERT JUMPDEST POP PUSH2 0x178 PUSH2 0x49F JUMP JUMPDEST PUSH1 0x40 MLOAD PUSH2 0x185 SWAP2 SWAP1 PUSH2 0x826 JUMP JUMPDEST PUSH1 0x40 MLOAD DUP1 SWAP2 SUB SWAP1 RETURN JUMPDEST CALLVALUE DUP1 ISZERO PUSH2 0x199 JUMPI PUSH0 PUSH0 REVERT JUMPDEST POP PUSH2 0x1B4 PUSH1 0x4 DUP1 CALLDATASIZE SUB DUP2 ADD SWAP1 PUSH2 0x1AF SWAP2 SWAP1 PUSH2 0x7C4 JUMP JUMPDEST PUSH2 0x4C3 JUMP JUMPDEST STOP JUMPDEST CALLVALUE DUP1 ISZERO PUSH2 0x1C1 JUMPI PUSH0 PUSH0 REVERT JUMPDEST POP PUSH2 0x1DC PUSH1 0x4 DUP1 CALLDATASIZE SUB DUP2 ADD SWAP1 PUSH2 0x1D7 SWAP2 SWAP1 PUSH2 0x83F JUMP JUMPDEST PUSH2 0x593 JUMP JUMPDEST STOP JUMPDEST PUSH2 0x1E6 PUSH2 0x647 JUMP JUMPDEST STOP JUMPDEST CALLVALUE DUP1 ISZERO PUSH2 0x1F3 JUMPI PUSH0 PUSH0 REVERT JUMPDEST POP PUSH2 0x20E PUSH1 0x4 DUP1 CALLDATASIZE SUB DUP2 ADD SWAP1 PUSH2 0x209 SWAP2 SWAP1 PUSH2 0x87D JUMP JUMPDEST PUSH2 0x6DE JUMP JUMPDEST PUSH1 0x40 MLOAD PUSH2 0x21B SWAP2 SWAP1 PUSH2 0x7FE JUMP JUMPDEST PUSH1 0x40 MLOAD DUP1 SWAP2 SUB SWAP1 RETURN JUMPDEST DUP1 CALLVALUE LT ISZERO PUSH2 0x267 JUMPI PUSH1 0x40 MLOAD PUSH32 0x8C379A000000000000000000000000000000000000000000000000000000000 DUP2 MSTORE PUSH1 0x4 ADD PUSH2 0x25E SWAP1 PUSH2 0x915 JUMP JUMPDEST PUSH1 0x40 MLOAD DUP1 SWAP2 SUB SWAP1 REVERT JUMPDEST POP JUMP JUMPDEST PUSH1 0x1 PUSH1 0x20 MSTORE DUP1 PUSH0 MSTORE PUSH1 0x40 PUSH0 KECCAK256 PUSH0 SWAP2 POP SWAP1 POP SLOAD DUP2 JUMP JUMPDEST PUSH2 0x2710 DUP2 GT ISZERO PUSH2 0x2CA JUMPI PUSH2 0x3E8 DUP2 PUSH1 0x40 MLOAD PUSH32 0xCF47918100000000000000000000000000000000000000000000000000000000 DUP2 MSTORE PUSH1 0x4 ADD PUSH2 0x2C1 SWAP3 SWAP2 SWAP1 PUSH2 0x975 JUMP JUMPDEST PUSH1 0x40 MLOAD DUP1 SWAP2 SUB SWAP1 REVERT JUMPDEST POP JUMP JUMPDEST DUP1 DUP1 PUSH1 0x1 PUSH0 CALLER PUSH20 0xFFFFFFFFFFFFFFFFFFFFFFFFFFFFFFFFFFFFFFFF AND PUSH20 0xFFFFFFFFFFFFFFFFFFFFFFFFFFFFFFFFFFFFFFFF AND DUP2 MSTORE PUSH1 0x20 ADD SWAP1 DUP2 MSTORE PUSH1 0x20 ADD PUSH0 KECCAK256 SLOAD LT ISZERO PUSH2 0x34E JUMPI PUSH1 0x40 MLOAD PUSH32 0x8C379A000000000000000000000000000000000000000000000000000000000 DUP2 MSTORE PUSH1 0x4 ADD PUSH2 0x345 SWAP1 PUSH2 0x9E6 JUMP JUMPDEST PUSH1 0x40 MLOAD DUP1 SWAP2 SUB SWAP1 REVERT JUMPDEST DUP2 PUSH1 0x1 PUSH0 CALLER PUSH20 0xFFFFFFFFFFFFFFFFFFFFFFFFFFFFFFFFFFFFFFFF AND PUSH20 0xFFFFFFFFFFFFFFFFFFFFFFFFFFFFFFFFFFFFFFFF AND DUP2 MSTORE PUSH1 0x20 ADD SWAP1 DUP2 MSTORE PUSH1 0x20 ADD PUSH0 KECCAK256 PUSH0 DUP3 DUP3 SLOAD PUSH2 0x39A SWAP2 SWAP1 PUSH2 0xA31 JUMP JUMPDEST SWAP3 POP POP DUP2 SWAP1 SSTORE POP CALLER PUSH20 0xFFFFFFFFFFFFFFFFFFFFFFFFFFFFFFFFFFFFFFFF AND PUSH2 0x8FC DUP4 SWAP1 DUP2 ISZERO MUL SWAP1 PUSH1 0x40 MLOAD PUSH0 PUSH1 0x40 MLOAD DUP1 DUP4 SUB DUP2 DUP6 DUP9 DUP9 CALL SWAP4 POP POP POP POP ISZERO DUP1 ISZERO PUSH2 0x3E4 JUMPI RETURNDATASIZE PUSH0 PUSH0 RETURNDATACOPY RETURNDATASIZE PUSH0 REVERT JUMPDEST POP PUSH0 PUSH1 0x1 PUSH0 CALLER PUSH20 0xFFFFFFFFFFFFFFFFFFFFFFFFFFFFFFFFFFFFFFFF AND PUSH20 0xFFFFFFFFFFFFFFFFFFFFFFFFFFFFFFFFFFFFFFFF AND DUP2 MSTORE PUSH1 0x20 ADD SWAP1 DUP2 MSTORE PUSH1 0x20 ADD PUSH0 KECCAK256 SLOAD LT ISZERO PUSH2 0x433 JUMPI PUSH2 0x432 PUSH2 0xA64 JUMP JUMPDEST JUMPDEST POP POP JUMP JUMPDEST DUP1 PUSH20 0xFFFFFFFFFFFFFFFFFFFFFFFFFFFFFFFFFFFFFFFF AND CALLER PUSH20 0xFFFFFFFFFFFFFFFFFFFFFFFFFFFFFFFFFFFFFFFF AND EQ PUSH2 0x49C JUMPI PUSH1 0x40 MLOAD PUSH32 0x30CD747100000000000000000000000000000000000000000000000000000000 DUP2 MSTORE PUSH1 0x4 ADD PUSH1 0x40 MLOAD DUP1 SWAP2 SUB SWAP1 REVERT JUMPDEST POP JUMP JUMPDEST PUSH0 PUSH0 SWAP1 SLOAD SWAP1 PUSH2 0x100 EXP SWAP1 DIV PUSH20 0xFFFFFFFFFFFFFFFFFFFFFFFFFFFFFFFFFFFFFFFF AND DUP2 JUMP JUMPDEST PUSH0 PUSH0 SWAP1 SLOAD SWAP1 PUSH2 0x100 EXP SWAP1 DIV PUSH20 0xFFFFFFFFFFFFFFFFFFFFFFFFFFFFFFFFFFFFFFFF AND PUSH20 0xFFFFFFFFFFFFFFFFFFFFFFFFFFFFFFFFFFFFFFFF AND CALLER PUSH20 0xFFFFFFFFFFFFFFFFFFFFFFFFFFFFFFFFFFFFFFFF AND EQ PUSH2 0x551 JUMPI PUSH1 0x40 MLOAD PUSH32 0x8C379A000000000000000000000000000000000000000000000000000000000 DUP2 MSTORE PUSH1 0x4 ADD PUSH2 0x548 SWAP1 PUSH2 0xADB JUMP JUMPDEST PUSH1 0x40 MLOAD DUP1 SWAP2 SUB SWAP1 REVERT JUMPDEST DUP1 PUSH0 PUSH0 PUSH2 0x100 EXP DUP2 SLOAD DUP2 PUSH20 0xFFFFFFFFFFFFFFFFFFFFFFFFFFFFFFFFFFFFFFFF MUL NOT AND SWAP1 DUP4 PUSH20 0xFFFFFFFFFFFFFFFFFFFFFFFFFFFFFFFFFFFFFFFF AND MUL OR SWAP1 SSTORE POP POP JUMP JUMPDEST PUSH0 PUSH20 0xFFFFFFFFFFFFFFFFFFFFFFFFFFFFFFFFFFFFFFFF AND DUP3 PUSH20 0xFFFFFFFFFFFFFFFFFFFFFFFFFFFFFFFFFFFFFFFF AND SUB PUSH2 0x601 JUMPI PUSH1 0x40 MLOAD PUSH32 0x8C379A000000000000000000000000000000000000000000000000000000000 DUP2 MSTORE PUSH1 0x4 ADD PUSH2 0x5F8 SWAP1 PUSH2 0xB43 JUMP JUMPDEST PUSH1 0x40 MLOAD DUP1 SWAP2 SUB SWAP1 REVERT JUMPDEST PUSH0 DUP2 GT PUSH2 0x643 JUMPI PUSH1 0x40 MLOAD PUSH32 0x8C379A000000000000000000000000000000000000000000000000000000000 DUP2 MSTORE PUSH1 0x4 ADD PUSH2 0x63A SWAP1 PUSH2 0xBAB JUMP JUMPDEST PUSH1 0x40 MLOAD DUP1 SWAP2 SUB SWAP1 REVERT JUMPDEST POP POP JUMP JUMPDEST PUSH0 CALLVALUE GT PUSH2 0x689 JUMPI PUSH1 0x40 MLOAD PUSH32 0x8C379A000000000000000000000000000000000000000000000000000000000 DUP2 MSTORE PUSH1 0x4 ADD PUSH2 0x680 SWAP1 PUSH2 0xC13 JUMP JUMPDEST PUSH1 0x40 MLOAD DUP1 SWAP2 SUB SWAP1 REVERT JUMPDEST CALLVALUE PUSH1 0x1 PUSH0 CALLER PUSH20 0xFFFFFFFFFFFFFFFFFFFFFFFFFFFFFFFFFFFFFFFF AND PUSH20 0xFFFFFFFFFFFFFFFFFFFFFFFFFFFFFFFFFFFFFFFF AND DUP2 MSTORE PUSH1 0x20 ADD SWAP1 DUP2 MSTORE PUSH1 0x20 ADD PUSH0 KECCAK256 PUSH0 DUP3 DUP3 SLOAD PUSH2 0x6D5 SWAP2 SWAP1 PUSH2 0xC31 JUMP JUMPDEST SWAP3 POP POP DUP2 SWAP1 SSTORE POP JUMP JUMPDEST PUSH0 PUSH0 DUP3 DUP5 PUSH2 0x6EC SWAP2 SWAP1 PUSH2 0xC91 JUMP JUMPDEST SWAP1 POP PUSH0 DUP4 SUB PUSH2 0x6FE JUMPI PUSH2 0x6FD PUSH2 0xA64 JUMP JUMPDEST JUMPDEST DUP1 SWAP2 POP POP SWAP3 SWAP2 POP POP JUMP JUMPDEST PUSH0 PUSH0 REVERT JUMPDEST PUSH0 DUP2 SWAP1 POP SWAP2 SWAP1 POP JUMP JUMPDEST PUSH2 0x71E DUP2 PUSH2 0x70C JUMP JUMPDEST DUP2 EQ PUSH2 0x728 JUMPI PUSH0 PUSH0 REVERT JUMPDEST POP JUMP JUMPDEST PUSH0 DUP2 CALLDATALOAD SWAP1 POP PUSH2 0x739 DUP2 PUSH2 0x715 JUMP JUMPDEST SWAP3 SWAP2 POP POP JUMP JUMPDEST PUSH0 PUSH1 0x20 DUP3 DUP5 SUB SLT ISZERO PUSH2 0x754 JUMPI PUSH2 0x753 PUSH2 0x708 JUMP JUMPDEST JUMPDEST PUSH0 PUSH2 0x761 DUP5 DUP3 DUP6 ADD PUSH2 0x72B JUMP JUMPDEST SWAP2 POP POP SWAP3 SWAP2 POP POP JUMP JUMPDEST PUSH0 PUSH20 0xFFFFFFFFFFFFFFFFFFFFFFFFFFFFFFFFFFFFFFFF DUP3 AND SWAP1 POP SWAP2 SWAP1 POP JUMP JUMPDEST PUSH0 PUSH2 0x793 DUP3 PUSH2 0x76A JUMP JUMPDEST SWAP1 POP SWAP2 SWAP1 POP JUMP JUMPDEST PUSH2 0x7A3 DUP2 PUSH2 0x789 JUMP JUMPDEST DUP2 EQ PUSH2 0x7AD JUMPI PUSH0 PUSH0 REVERT JUMPDEST POP JUMP JUMPDEST PUSH0 DUP2 CALLDATALOAD SWAP1 POP PUSH2 0x7BE DUP2 PUSH2 0x79A JUMP JUMPDEST SWAP3 SWAP2 POP POP JUMP JUMPDEST PUSH0 PUSH1 0x20 DUP3 DUP5 SUB SLT ISZERO PUSH2 0x7D9 JUMPI PUSH2 0x7D8 PUSH2 0x708 JUMP JUMPDEST JUMPDEST PUSH0 PUSH2 0x7E6 DUP5 DUP3 DUP6 ADD PUSH2 0x7B0 JUMP JUMPDEST SWAP2 POP POP SWAP3 SWAP2 POP POP JUMP JUMPDEST PUSH2 0x7F8 DUP2 PUSH2 0x70C JUMP JUMPDEST DUP3 MSTORE POP POP JUMP JUMPDEST PUSH0 PUSH1 0x20 DUP3 ADD SWAP1 POP PUSH2 0x811 PUSH0 DUP4 ADD DUP5 PUSH2 0x7EF JUMP JUMPDEST SWAP3 SWAP2 POP POP JUMP JUMPDEST PUSH2 0x820 DUP2 PUSH2 0x789 JUMP JUMPDEST DUP3 MSTORE POP POP JUMP JUMPDEST PUSH0 PUSH1 0x20 DUP3 ADD SWAP1 POP PUSH2 0x839 PUSH0 DUP4 ADD DUP5 PUSH2 0x817 JUMP JUMPDEST SWAP3 SWAP2 POP POP JUMP JUMPDEST PUSH0 PUSH0 PUSH1 0x40 DUP4 DUP6 SUB SLT ISZERO PUSH2 0x855 JUMPI PUSH2 0x854 PUSH2 0x708 JUMP JUMPDEST JUMPDEST PUSH0 PUSH2 0x862 DUP6 DUP3 DUP7 ADD PUSH2 0x7B0 JUMP JUMPDEST SWAP3 POP POP PUSH1 0x20 PUSH2 0x873 DUP6 DUP3 DUP7 ADD PUSH2 0x72B JUMP JUMPDEST SWAP2 POP POP SWAP3 POP SWAP3 SWAP1 POP JUMP JUMPDEST PUSH0 PUSH0 PUSH1 0x40 DUP4 DUP6 SUB SLT ISZERO PUSH2 0x893 JUMPI PUSH2 0x892 PUSH2 0x708 JUMP JUMPDEST JUMPDEST PUSH0 PUSH2 0x8A0 DUP6 DUP3 DUP7 ADD PUSH2 0x72B JUMP JUMPDEST SWAP3 POP POP PUSH1 0x20 PUSH2 0x8B1 DUP6 DUP3 DUP7 ADD PUSH2 0x72B JUMP JUMPDEST SWAP2 POP POP SWAP3 POP SWAP3 SWAP1 POP JUMP JUMPDEST PUSH0 DUP3 DUP3 MSTORE PUSH1 0x20 DUP3 ADD SWAP1 POP SWAP3 SWAP2 POP POP JUMP JUMPDEST PUSH32 0x496E73756666696369656E742066756E64730000000000000000000000000000 PUSH0 DUP3 ADD MSTORE POP JUMP JUMPDEST PUSH0 PUSH2 0x8FF PUSH1 0x12 DUP4 PUSH2 0x8BB JUMP JUMPDEST SWAP2 POP PUSH2 0x90A DUP3 PUSH2 0x8CB JUMP JUMPDEST PUSH1 0x20 DUP3 ADD SWAP1 POP SWAP2 SWAP1 POP JUMP JUMPDEST PUSH0 PUSH1 0x20 DUP3 ADD SWAP1 POP DUP2 DUP2 SUB PUSH0 DUP4 ADD MSTORE PUSH2 0x92C DUP2 PUSH2 0x8F3 JUMP JUMPDEST SWAP1 POP SWAP2 SWAP1 POP JUMP JUMPDEST PUSH0 DUP2 SWAP1 POP SWAP2 SWAP1 POP JUMP JUMPDEST PUSH0 DUP2 SWAP1 POP SWAP2 SWAP1 POP JUMP JUMPDEST PUSH0 PUSH2 0x95F PUSH2 0x95A PUSH2 0x955 DUP5 PUSH2 0x933 JUMP JUMPDEST PUSH2 0x93C JUMP JUMPDEST PUSH2 0x70C JUMP JUMPDEST SWAP1 POP SWAP2 SWAP1 POP JUMP JUMPDEST PUSH2 0x96F DUP2 PUSH2 0x945 JUMP JUMPDEST DUP3 MSTORE POP POP JUMP JUMPDEST PUSH0 PUSH1 0x40 DUP3 ADD SWAP1 POP PUSH2 0x988 PUSH0 DUP4 ADD DUP6 PUSH2 0x966 JUMP JUMPDEST PUSH2 0x995 PUSH1 0x20 DUP4 ADD DUP5 PUSH2 0x7EF JUMP JUMPDEST SWAP4 SWAP3 POP POP POP JUMP JUMPDEST PUSH32 0xE4BD99E9A29DE4B88DE8B6B30000000000000000000000000000000000000000 PUSH0 DUP3 ADD MSTORE POP JUMP JUMPDEST PUSH0 PUSH2 0x9D0 PUSH1 0xC DUP4 PUSH2 0x8BB JUMP JUMPDEST SWAP2 POP PUSH2 0x9DB DUP3 PUSH2 0x99C JUMP JUMPDEST PUSH1 0x20 DUP3 ADD SWAP1 POP SWAP2 SWAP1 POP JUMP JUMPDEST PUSH0 PUSH1 0x20 DUP3 ADD SWAP1 POP DUP2 DUP2 SUB PUSH0 DUP4 ADD MSTORE PUSH2 0x9FD DUP2 PUSH2 0x9C4 JUMP JUMPDEST SWAP1 POP SWAP2 SWAP1 POP JUMP JUMPDEST PUSH32 0x4E487B7100000000000000000000000000000000000000000000000000000000 PUSH0 MSTORE PUSH1 0x11 PUSH1 0x4 MSTORE PUSH1 0x24 PUSH0 REVERT JUMPDEST PUSH0 PUSH2 0xA3B DUP3 PUSH2 0x70C JUMP JUMPDEST SWAP2 POP PUSH2 0xA46 DUP4 PUSH2 0x70C JUMP JUMPDEST SWAP3 POP DUP3 DUP3 SUB SWAP1 POP DUP2 DUP2 GT ISZERO PUSH2 0xA5E JUMPI PUSH2 0xA5D PUSH2 0xA04 JUMP JUMPDEST JUMPDEST SWAP3 SWAP2 POP POP JUMP JUMPDEST PUSH32 0x4E487B7100000000000000000000000000000000000000000000000000000000 PUSH0 MSTORE PUSH1 0x1 PUSH1 0x4 MSTORE PUSH1 0x24 PUSH0 REVERT JUMPDEST PUSH32 0xE4BB85E59088E7BAA6E68980E69C89E88085E58FAFE8B083E794A80000000000 PUSH0 DUP3 ADD MSTORE POP JUMP JUMPDEST PUSH0 PUSH2 0xAC5 PUSH1 0x1B DUP4 PUSH2 0x8BB JUMP JUMPDEST SWAP2 POP PUSH2 0xAD0 DUP3 PUSH2 0xA91 JUMP JUMPDEST PUSH1 0x20 DUP3 ADD SWAP1 POP SWAP2 SWAP1 POP JUMP JUMPDEST PUSH0 PUSH1 0x20 DUP3 ADD SWAP1 POP DUP2 DUP2 SUB PUSH0 DUP4 ADD MSTORE PUSH2 0xAF2 DUP2 PUSH2 0xAB9 JUMP JUMPDEST SWAP1 POP SWAP2 SWAP1 POP JUMP JUMPDEST PUSH32 0xE697A0E69588E79A84E68EA5E694B6E59CB0E59D800000000000000000000000 PUSH0 DUP3 ADD MSTORE POP JUMP JUMPDEST PUSH0 PUSH2 0xB2D PUSH1 0x15 DUP4 PUSH2 0x8BB JUMP JUMPDEST SWAP2 POP PUSH2 0xB38 DUP3 PUSH2 0xAF9 JUMP JUMPDEST PUSH1 0x20 DUP3 ADD SWAP1 POP SWAP2 SWAP1 POP JUMP JUMPDEST PUSH0 PUSH1 0x20 DUP3 ADD SWAP1 POP DUP2 DUP2 SUB PUSH0 DUP4 ADD MSTORE PUSH2 0xB5A DUP2 PUSH2 0xB21 JUMP JUMPDEST SWAP1 POP SWAP2 SWAP1 POP JUMP JUMPDEST PUSH32 0xE8BDACE8B4A6E98791E9A29DE5BF85E9A1BBE5A4A7E4BA8E3000000000000000 PUSH0 DUP3 ADD MSTORE POP JUMP JUMPDEST PUSH0 PUSH2 0xB95 PUSH1 0x19 DUP4 PUSH2 0x8BB JUMP JUMPDEST SWAP2 POP PUSH2 0xBA0 DUP3 PUSH2 0xB61 JUMP JUMPDEST PUSH1 0x20 DUP3 ADD SWAP1 POP SWAP2 SWAP1 POP JUMP JUMPDEST PUSH0 PUSH1 0x20 DUP3 ADD SWAP1 POP DUP2 DUP2 SUB PUSH0 DUP4 ADD MSTORE PUSH2 0xBC2 DUP2 PUSH2 0xB89 JUMP JUMPDEST SWAP1 POP SWAP2 SWAP1 POP JUMP JUMPDEST PUSH32 0xE5AD98E6ACBEE98791E9A29DE5BF85E9A1BBE5A4A7E4BA8E3000000000000000 PUSH0 DUP3 ADD MSTORE POP JUMP JUMPDEST PUSH0 PUSH2 0xBFD PUSH1 0x19 DUP4 PUSH2 0x8BB JUMP JUMPDEST SWAP2 POP PUSH2 0xC08 DUP3 PUSH2 0xBC9 JUMP JUMPDEST PUSH1 0x20 DUP3 ADD SWAP1 POP SWAP2 SWAP1 POP JUMP JUMPDEST PUSH0 PUSH1 0x20 DUP3 ADD SWAP1 POP DUP2 DUP2 SUB PUSH0 DUP4 ADD MSTORE PUSH2 0xC2A DUP2 PUSH2 0xBF1 JUMP JUMPDEST SWAP1 POP SWAP2 SWAP1 POP JUMP JUMPDEST PUSH0 PUSH2 0xC3B DUP3 PUSH2 0x70C JUMP JUMPDEST SWAP2 POP PUSH2 0xC46 DUP4 PUSH2 0x70C JUMP JUMPDEST SWAP3 POP DUP3 DUP3 ADD SWAP1 POP DUP1 DUP3 GT ISZERO PUSH2 0xC5E JUMPI PUSH2 0xC5D PUSH2 0xA04 JUMP JUMPDEST JUMPDEST SWAP3 SWAP2 POP POP JUMP JUMPDEST PUSH32 0x4E487B7100000000000000000000000000000000000000000000000000000000 PUSH0 MSTORE PUSH1 0x12 PUSH1 0x4 MSTORE PUSH1 0x24 PUSH0 REVERT JUMPDEST PUSH0 PUSH2 0xC9B DUP3 PUSH2 0x70C JUMP JUMPDEST SWAP2 POP PUSH2 0xCA6 DUP4 PUSH2 0x70C JUMP JUMPDEST SWAP3 POP DUP3 PUSH2 0xCB6 JUMPI PUSH2 0xCB5 PUSH2 0xC64 JUMP JUMPDEST JUMPDEST DUP3 DUP3 DIV SWAP1 POP SWAP3 SWAP2 POP POP JUMP INVALID LOG2 PUSH5 0x6970667358 0x22 SLT KECCAK256 BYTE LOG2 PUSH29 0x525AFBE3F8988AF7F4CE0AA42B26A38D76B0C1EE10D06FD907D780EC16 PUSH5 0x736F6C6343 STOP ADDMOD 0x1E STOP CALLER "
				},
				"gasEstimates": {
					"creation": {
						"codeDepositCost": "663800",
						"executionCost": "24958",
						"totalCost": "688758"
					},
					"external": {
						"balances(address)": "2825",
						"changeOwner(address)": "26904",
						"checkPrice(uint256)": "685",
						"deposit()": "infinite",
						"divide(uint256,uint256)": "infinite",
						"onlyOwner(address)": "605",
						"owner1()": "2507",
						"transfer(address,uint256)": "999",
						"withdraw(uint256)": "infinite",
						"withdraw2(uint256)": "infinite"
					}
				},
				"methodIdentifiers": {
					"balances(address)": "27e235e3",
					"changeOwner(address)": "a6f9dae1",
					"checkPrice(uint256)": "1de7463a",
					"deposit()": "d0e30db0",
					"divide(uint256,uint256)": "f88e9fbf",
					"onlyOwner(address)": "71c74e17",
					"owner1()": "73688914",
					"transfer(address,uint256)": "a9059cbb",
					"withdraw(uint256)": "2e1a7d4d",
					"withdraw2(uint256)": "34273351"
				}
			},
			"storageLayout": {
				"storage": [
					{
						"astId": 119,
						"contract": "base2/ErrorHandler.sol:ErrorHandler",
						"label": "owner1",
						"offset": 0,
						"slot": "0",
						"type": "t_address"
					},
					{
						"astId": 156,
						"contract": "base2/ErrorHandler.sol:ErrorHandler",
						"label": "balances",
						"offset": 0,
						"slot": "1",
						"type": "t_mapping(t_address,t_uint256)"
					}
				],
				"types": {
					"t_address": {
						"encoding": "inplace",
						"label": "address",
						"numberOfBytes": "20"
					},
					"t_mapping(t_address,t_uint256)": {
						"encoding": "mapping",
						"key": "t_address",
						"label": "mapping(address => uint256)",
						"numberOfBytes": "32",
						"value": "t_uint256"
					},
					"t_uint256": {
						"encoding": "inplace",
						"label": "uint256",
						"numberOfBytes": "32"
					}
				}
			},
			"userdoc": {
				"kind": "user",
				"methods": {},
				"version": 1
			}
		}
	}
}