{
	"testInt.sol": {
		"testInt": {
			"abi": [
				{
					"inputs": [
						{
							"internalType": "uint256",
							"name": "x",
							"type": "uint256"
						},
						{
							"internalType": "uint256",
							"name": "y",
							"type": "uint256"
						}
					],
					"name": "add",
					"outputs": [
						{
							"internalType": "uint256",
							"name": "z",
							"type": "uint256"
						}
					],
					"stateMutability": "pure",
					"type": "function"
				},
				{
					"inputs": [
						{
							"internalType": "uint256",
							"name": "x",
							"type": "uint256"
						},
						{
							"internalType": "uint256",
							"name": "y",
							"type": "uint256"
						}
					],
					"name": "divide",
					"outputs": [
						{
							"internalType": "uint256",
							"name": "z",
							"type": "uint256"
						}
					],
					"stateMutability": "pure",
					"type": "function"
				},
				{
					"inputs": [
						{
							"internalType": "int256",
							"name": "x",
							"type": "int256"
						},
						{
							"internalType": "uint256",
							"name": "y",
							"type": "uint256"
						}
					],
					"name": "leftshift",
					"outputs": [
						{
							"internalType": "int256",
							"name": "z",
							"type": "int256"
						}
					],
					"stateMutability": "pure",
					"type": "function"
				},
				{
					"inputs": [
						{
							"internalType": "int256",
							"name": "x",
							"type": "int256"
						},
						{
							"internalType": "uint256",
							"name": "y",
							"type": "uint256"
						}
					],
					"name": "rightshift",
					"outputs": [
						{
							"internalType": "int256",
							"name": "z",
							"type": "int256"
						}
					],
					"stateMutability": "pure",
					"type": "function"
				},
				{
					"inputs": [],
					"name": "testPlusPlus",
					"outputs": [
						{
							"internalType": "uint256",
							"name": "",
							"type": "uint256"
						}
					],
					"stateMutability": "pure",
					"type": "function"
				}
			],
			"devdoc": {
				"kind": "dev",
				"methods": {},
				"version": 1
			},
			"evm": {
				"assembly": "    /* \"testInt.sol\":58:658  contract testInt{... */\n  mstore(0x40, 0x80)\n    /* \"testInt.sol\":90:92  -1 */\n  0xffffffffffffffffffffffffffffffffffffffffffffffffffffffffffffffff\n    /* \"testInt.sol\":81:92  int8 a = -1 */\n  0x00\n  exp(0x0100, 0x00)\n  dup2\n  sload\n  dup2\n  0xff\n  mul\n  not\n  and\n  swap1\n  dup4\n  0x00\n  signextend\n  0xff\n  and\n  mul\n  or\n  swap1\n  sstore\n  pop\n    /* \"testInt.sol\":108:110  16 */\n  0x10\n    /* \"testInt.sol\":98:110  int16 b = 16 */\n  0x00\n  exp(0x0100, 0x01)\n  dup2\n  sload\n  dup2\n  0xffff\n  mul\n  not\n  and\n  swap1\n  dup4\n  0x01\n  signextend\n  0xffff\n  and\n  mul\n  or\n  swap1\n  sstore\n  pop\n    /* \"testInt.sol\":127:129  32 */\n  0x20\n    /* \"testInt.sol\":116:129  uint32 c = 32 */\n  0x00\n  exp(0x0100, 0x03)\n  dup2\n  sload\n  dup2\n  0xffffffff\n  mul\n  not\n  and\n  swap1\n  dup4\n  0xffffffff\n  and\n  mul\n  or\n  swap1\n  sstore\n  pop\n    /* \"testInt.sol\":145:146  8 */\n  0x08\n    /* \"testInt.sol\":135:146  uint8 d = 8 */\n  0x00\n  exp(0x0100, 0x07)\n  dup2\n  sload\n  dup2\n  0xff\n  mul\n  not\n  and\n  swap1\n  dup4\n  0xff\n  and\n  mul\n  or\n  swap1\n  sstore\n  pop\n    /* \"testInt.sol\":58:658  contract testInt{... */\n  callvalue\n  dup1\n  iszero\n  tag_1\n  jumpi\n  revert(0x00, 0x00)\ntag_1:\n  pop\n  dataSize(sub_0)\n  dup1\n  dataOffset(sub_0)\n  0x00\n  codecopy\n  0x00\n  return\nstop\n\nsub_0: assembly {\n        /* \"testInt.sol\":58:658  contract testInt{... */\n      mstore(0x40, 0x80)\n      callvalue\n      dup1\n      iszero\n      tag_1\n      jumpi\n      revert(0x00, 0x00)\n    tag_1:\n      pop\n      jumpi(tag_2, lt(calldatasize, 0x04))\n      shr(0xe0, calldataload(0x00))\n      dup1\n      0x6f52cd7a\n      eq\n      tag_3\n      jumpi\n      dup1\n      0x771602f7\n      eq\n      tag_4\n      jumpi\n      dup1\n      0xb41cd3c8\n      eq\n      tag_5\n      jumpi\n      dup1\n      0xb68af89b\n      eq\n      tag_6\n      jumpi\n      dup1\n      0xf88e9fbf\n      eq\n      tag_7\n      jumpi\n    tag_2:\n      revert(0x00, 0x00)\n        /* \"testInt.sol\":338:427  function leftshift(int x, uint y) public pure returns (int z){... */\n    tag_3:\n      tag_8\n      0x04\n      dup1\n      calldatasize\n      sub\n      dup2\n      add\n      swap1\n      tag_9\n      swap2\n      swap1\n      tag_10\n      jump\t// in\n    tag_9:\n      tag_11\n      jump\t// in\n    tag_8:\n      mload(0x40)\n      tag_12\n      swap2\n      swap1\n      tag_13\n      jump\t// in\n    tag_12:\n      mload(0x40)\n      dup1\n      swap2\n      sub\n      swap1\n      return\n        /* \"testInt.sol\":153:236  function add(uint x,uint y) public pure returns (uint z){... */\n    tag_4:\n      tag_14\n      0x04\n      dup1\n      calldatasize\n      sub\n      dup2\n      add\n      swap1\n      tag_15\n      swap2\n      swap1\n      tag_16\n      jump\t// in\n    tag_15:\n      tag_17\n      jump\t// in\n    tag_14:\n      mload(0x40)\n      tag_18\n      swap2\n      swap1\n      tag_19\n      jump\t// in\n    tag_18:\n      mload(0x40)\n      dup1\n      swap2\n      sub\n      swap1\n      return\n        /* \"testInt.sol\":529:655  function testPlusPlus() public pure returns (uint ) { ... */\n    tag_5:\n      tag_20\n      tag_21\n      jump\t// in\n    tag_20:\n      mload(0x40)\n      tag_22\n      swap2\n      swap1\n      tag_19\n      jump\t// in\n    tag_22:\n      mload(0x40)\n      dup1\n      swap2\n      sub\n      swap1\n      return\n        /* \"testInt.sol\":433:523  function rightshift(int x, uint y) public pure returns (int z){... */\n    tag_6:\n      tag_23\n      0x04\n      dup1\n      calldatasize\n      sub\n      dup2\n      add\n      swap1\n      tag_24\n      swap2\n      swap1\n      tag_10\n      jump\t// in\n    tag_24:\n      tag_25\n      jump\t// in\n    tag_23:\n      mload(0x40)\n      tag_26\n      swap2\n      swap1\n      tag_13\n      jump\t// in\n    tag_26:\n      mload(0x40)\n      dup1\n      swap2\n      sub\n      swap1\n      return\n        /* \"testInt.sol\":246:333  function divide(uint x,uint y) public pure returns (uint z) {... */\n    tag_7:\n      tag_27\n      0x04\n      dup1\n      calldatasize\n      sub\n      dup2\n      add\n      swap1\n      tag_28\n      swap2\n      swap1\n      tag_16\n      jump\t// in\n    tag_28:\n      tag_29\n      jump\t// in\n    tag_27:\n      mload(0x40)\n      tag_30\n      swap2\n      swap1\n      tag_19\n      jump\t// in\n    tag_30:\n      mload(0x40)\n      dup1\n      swap2\n      sub\n      swap1\n      return\n        /* \"testInt.sol\":338:427  function leftshift(int x, uint y) public pure returns (int z){... */\n    tag_11:\n        /* \"testInt.sol\":393:398  int z */\n      0x00\n        /* \"testInt.sol\":418:419  y */\n      dup2\n        /* \"testInt.sol\":413:414  x */\n      dup4\n        /* \"testInt.sol\":413:419  x << y */\n      swap1\n      shl\n        /* \"testInt.sol\":409:419  z = x << y */\n      swap1\n      pop\n        /* \"testInt.sol\":338:427  function leftshift(int x, uint y) public pure returns (int z){... */\n      swap3\n      swap2\n      pop\n      pop\n      jump\t// out\n        /* \"testInt.sol\":153:236  function add(uint x,uint y) public pure returns (uint z){... */\n    tag_17:\n        /* \"testInt.sol\":202:208  uint z */\n      0x00\n        /* \"testInt.sol\":228:229  y */\n      dup2\n        /* \"testInt.sol\":226:227  x */\n      dup4\n        /* \"testInt.sol\":226:229  x+y */\n      tag_33\n      swap2\n      swap1\n      tag_34\n      jump\t// in\n    tag_33:\n        /* \"testInt.sol\":219:229  return x+y */\n      swap1\n      pop\n        /* \"testInt.sol\":153:236  function add(uint x,uint y) public pure returns (uint z){... */\n      swap3\n      swap2\n      pop\n      pop\n      jump\t// out\n        /* \"testInt.sol\":529:655  function testPlusPlus() public pure returns (uint ) { ... */\n    tag_21:\n        /* \"testInt.sol\":574:578  uint */\n      0x00\n        /* \"testInt.sol\":592:598  uint x */\n      0x00\n        /* \"testInt.sol\":601:602  1 */\n      0x01\n        /* \"testInt.sol\":592:602  uint x = 1 */\n      swap1\n      pop\n        /* \"testInt.sol\":604:610  uint y */\n      0x00\n        /* \"testInt.sol\":613:616  ++x */\n      dup2\n      tag_36\n      swap1\n      tag_37\n      jump\t// in\n    tag_36:\n      swap2\n      pop\n      dup2\n        /* \"testInt.sol\":604:616  uint y = ++x */\n      swap1\n      pop\n        /* \"testInt.sol\":646:647  y */\n      dup1\n        /* \"testInt.sol\":639:647  return y */\n      swap3\n      pop\n      pop\n      pop\n        /* \"testInt.sol\":529:655  function testPlusPlus() public pure returns (uint ) { ... */\n      swap1\n      jump\t// out\n        /* \"testInt.sol\":433:523  function rightshift(int x, uint y) public pure returns (int z){... */\n    tag_25:\n        /* \"testInt.sol\":489:494  int z */\n      0x00\n        /* \"testInt.sol\":514:515  y */\n      dup2\n        /* \"testInt.sol\":509:510  x */\n      dup4\n        /* \"testInt.sol\":509:515  x >> y */\n      swap1\n      sar\n        /* \"testInt.sol\":505:515  z = x >> y */\n      swap1\n      pop\n        /* \"testInt.sol\":433:523  function rightshift(int x, uint y) public pure returns (int z){... */\n      swap3\n      swap2\n      pop\n      pop\n      jump\t// out\n        /* \"testInt.sol\":246:333  function divide(uint x,uint y) public pure returns (uint z) {... */\n    tag_29:\n        /* \"testInt.sol\":298:304  uint z */\n      0x00\n        /* \"testInt.sol\":325:326  y */\n      dup2\n        /* \"testInt.sol\":323:324  x */\n      dup4\n        /* \"testInt.sol\":323:326  x/y */\n      tag_40\n      swap2\n      swap1\n      tag_41\n      jump\t// in\n    tag_40:\n        /* \"testInt.sol\":316:326  return x/y */\n      swap1\n      pop\n        /* \"testInt.sol\":246:333  function divide(uint x,uint y) public pure returns (uint z) {... */\n      swap3\n      swap2\n      pop\n      pop\n      jump\t// out\n        /* \"#utility.yul\":88:205   */\n    tag_43:\n        /* \"#utility.yul\":197:198   */\n      0x00\n        /* \"#utility.yul\":194:195   */\n      0x00\n        /* \"#utility.yul\":187:199   */\n      revert\n        /* \"#utility.yul\":334:410   */\n    tag_45:\n        /* \"#utility.yul\":370:377   */\n      0x00\n        /* \"#utility.yul\":399:404   */\n      dup2\n        /* \"#utility.yul\":388:404   */\n      swap1\n      pop\n        /* \"#utility.yul\":334:410   */\n      swap2\n      swap1\n      pop\n      jump\t// out\n        /* \"#utility.yul\":416:536   */\n    tag_46:\n        /* \"#utility.yul\":488:511   */\n      tag_61\n        /* \"#utility.yul\":505:510   */\n      dup2\n        /* \"#utility.yul\":488:511   */\n      tag_45\n      jump\t// in\n    tag_61:\n        /* \"#utility.yul\":481:486   */\n      dup2\n        /* \"#utility.yul\":478:512   */\n      eq\n        /* \"#utility.yul\":468:530   */\n      tag_62\n      jumpi\n        /* \"#utility.yul\":526:527   */\n      0x00\n        /* \"#utility.yul\":523:524   */\n      0x00\n        /* \"#utility.yul\":516:528   */\n      revert\n        /* \"#utility.yul\":468:530   */\n    tag_62:\n        /* \"#utility.yul\":416:536   */\n      pop\n      jump\t// out\n        /* \"#utility.yul\":542:679   */\n    tag_47:\n        /* \"#utility.yul\":587:592   */\n      0x00\n        /* \"#utility.yul\":625:631   */\n      dup2\n        /* \"#utility.yul\":612:632   */\n      calldataload\n        /* \"#utility.yul\":603:632   */\n      swap1\n      pop\n        /* \"#utility.yul\":641:673   */\n      tag_64\n        /* \"#utility.yul\":667:672   */\n      dup2\n        /* \"#utility.yul\":641:673   */\n      tag_46\n      jump\t// in\n    tag_64:\n        /* \"#utility.yul\":542:679   */\n      swap3\n      swap2\n      pop\n      pop\n      jump\t// out\n        /* \"#utility.yul\":685:762   */\n    tag_48:\n        /* \"#utility.yul\":722:729   */\n      0x00\n        /* \"#utility.yul\":751:756   */\n      dup2\n        /* \"#utility.yul\":740:756   */\n      swap1\n      pop\n        /* \"#utility.yul\":685:762   */\n      swap2\n      swap1\n      pop\n      jump\t// out\n        /* \"#utility.yul\":768:890   */\n    tag_49:\n        /* \"#utility.yul\":841:865   */\n      tag_67\n        /* \"#utility.yul\":859:864   */\n      dup2\n        /* \"#utility.yul\":841:865   */\n      tag_48\n      jump\t// in\n    tag_67:\n        /* \"#utility.yul\":834:839   */\n      dup2\n        /* \"#utility.yul\":831:866   */\n      eq\n        /* \"#utility.yul\":821:884   */\n      tag_68\n      jumpi\n        /* \"#utility.yul\":880:881   */\n      0x00\n        /* \"#utility.yul\":877:878   */\n      0x00\n        /* \"#utility.yul\":870:882   */\n      revert\n        /* \"#utility.yul\":821:884   */\n    tag_68:\n        /* \"#utility.yul\":768:890   */\n      pop\n      jump\t// out\n        /* \"#utility.yul\":896:1035   */\n    tag_50:\n        /* \"#utility.yul\":942:947   */\n      0x00\n        /* \"#utility.yul\":980:986   */\n      dup2\n        /* \"#utility.yul\":967:987   */\n      calldataload\n        /* \"#utility.yul\":958:987   */\n      swap1\n      pop\n        /* \"#utility.yul\":996:1029   */\n      tag_70\n        /* \"#utility.yul\":1023:1028   */\n      dup2\n        /* \"#utility.yul\":996:1029   */\n      tag_49\n      jump\t// in\n    tag_70:\n        /* \"#utility.yul\":896:1035   */\n      swap3\n      swap2\n      pop\n      pop\n      jump\t// out\n        /* \"#utility.yul\":1041:1513   */\n    tag_10:\n        /* \"#utility.yul\":1108:1114   */\n      0x00\n        /* \"#utility.yul\":1116:1122   */\n      0x00\n        /* \"#utility.yul\":1165:1167   */\n      0x40\n        /* \"#utility.yul\":1153:1162   */\n      dup4\n        /* \"#utility.yul\":1144:1151   */\n      dup6\n        /* \"#utility.yul\":1140:1163   */\n      sub\n        /* \"#utility.yul\":1136:1168   */\n      slt\n        /* \"#utility.yul\":1133:1252   */\n      iszero\n      tag_72\n      jumpi\n        /* \"#utility.yul\":1171:1250   */\n      tag_73\n      tag_43\n      jump\t// in\n    tag_73:\n        /* \"#utility.yul\":1133:1252   */\n    tag_72:\n        /* \"#utility.yul\":1291:1292   */\n      0x00\n        /* \"#utility.yul\":1316:1368   */\n      tag_74\n        /* \"#utility.yul\":1360:1367   */\n      dup6\n        /* \"#utility.yul\":1351:1357   */\n      dup3\n        /* \"#utility.yul\":1340:1349   */\n      dup7\n        /* \"#utility.yul\":1336:1358   */\n      add\n        /* \"#utility.yul\":1316:1368   */\n      tag_47\n      jump\t// in\n    tag_74:\n        /* \"#utility.yul\":1306:1368   */\n      swap3\n      pop\n        /* \"#utility.yul\":1262:1378   */\n      pop\n        /* \"#utility.yul\":1417:1419   */\n      0x20\n        /* \"#utility.yul\":1443:1496   */\n      tag_75\n        /* \"#utility.yul\":1488:1495   */\n      dup6\n        /* \"#utility.yul\":1479:1485   */\n      dup3\n        /* \"#utility.yul\":1468:1477   */\n      dup7\n        /* \"#utility.yul\":1464:1486   */\n      add\n        /* \"#utility.yul\":1443:1496   */\n      tag_50\n      jump\t// in\n    tag_75:\n        /* \"#utility.yul\":1433:1496   */\n      swap2\n      pop\n        /* \"#utility.yul\":1388:1506   */\n      pop\n        /* \"#utility.yul\":1041:1513   */\n      swap3\n      pop\n      swap3\n      swap1\n      pop\n      jump\t// out\n        /* \"#utility.yul\":1519:1634   */\n    tag_51:\n        /* \"#utility.yul\":1604:1627   */\n      tag_77\n        /* \"#utility.yul\":1621:1626   */\n      dup2\n        /* \"#utility.yul\":1604:1627   */\n      tag_45\n      jump\t// in\n    tag_77:\n        /* \"#utility.yul\":1599:1602   */\n      dup3\n        /* \"#utility.yul\":1592:1628   */\n      mstore\n        /* \"#utility.yul\":1519:1634   */\n      pop\n      pop\n      jump\t// out\n        /* \"#utility.yul\":1640:1858   */\n    tag_13:\n        /* \"#utility.yul\":1731:1735   */\n      0x00\n        /* \"#utility.yul\":1769:1771   */\n      0x20\n        /* \"#utility.yul\":1758:1767   */\n      dup3\n        /* \"#utility.yul\":1754:1772   */\n      add\n        /* \"#utility.yul\":1746:1772   */\n      swap1\n      pop\n        /* \"#utility.yul\":1782:1851   */\n      tag_79\n        /* \"#utility.yul\":1848:1849   */\n      0x00\n        /* \"#utility.yul\":1837:1846   */\n      dup4\n        /* \"#utility.yul\":1833:1850   */\n      add\n        /* \"#utility.yul\":1824:1830   */\n      dup5\n        /* \"#utility.yul\":1782:1851   */\n      tag_51\n      jump\t// in\n    tag_79:\n        /* \"#utility.yul\":1640:1858   */\n      swap3\n      swap2\n      pop\n      pop\n      jump\t// out\n        /* \"#utility.yul\":1864:2338   */\n    tag_16:\n        /* \"#utility.yul\":1932:1938   */\n      0x00\n        /* \"#utility.yul\":1940:1946   */\n      0x00\n        /* \"#utility.yul\":1989:1991   */\n      0x40\n        /* \"#utility.yul\":1977:1986   */\n      dup4\n        /* \"#utility.yul\":1968:1975   */\n      dup6\n        /* \"#utility.yul\":1964:1987   */\n      sub\n        /* \"#utility.yul\":1960:1992   */\n      slt\n        /* \"#utility.yul\":1957:2076   */\n      iszero\n      tag_81\n      jumpi\n        /* \"#utility.yul\":1995:2074   */\n      tag_82\n      tag_43\n      jump\t// in\n    tag_82:\n        /* \"#utility.yul\":1957:2076   */\n    tag_81:\n        /* \"#utility.yul\":2115:2116   */\n      0x00\n        /* \"#utility.yul\":2140:2193   */\n      tag_83\n        /* \"#utility.yul\":2185:2192   */\n      dup6\n        /* \"#utility.yul\":2176:2182   */\n      dup3\n        /* \"#utility.yul\":2165:2174   */\n      dup7\n        /* \"#utility.yul\":2161:2183   */\n      add\n        /* \"#utility.yul\":2140:2193   */\n      tag_50\n      jump\t// in\n    tag_83:\n        /* \"#utility.yul\":2130:2193   */\n      swap3\n      pop\n        /* \"#utility.yul\":2086:2203   */\n      pop\n        /* \"#utility.yul\":2242:2244   */\n      0x20\n        /* \"#utility.yul\":2268:2321   */\n      tag_84\n        /* \"#utility.yul\":2313:2320   */\n      dup6\n        /* \"#utility.yul\":2304:2310   */\n      dup3\n        /* \"#utility.yul\":2293:2302   */\n      dup7\n        /* \"#utility.yul\":2289:2311   */\n      add\n        /* \"#utility.yul\":2268:2321   */\n      tag_50\n      jump\t// in\n    tag_84:\n        /* \"#utility.yul\":2258:2321   */\n      swap2\n      pop\n        /* \"#utility.yul\":2213:2331   */\n      pop\n        /* \"#utility.yul\":1864:2338   */\n      swap3\n      pop\n      swap3\n      swap1\n      pop\n      jump\t// out\n        /* \"#utility.yul\":2344:2462   */\n    tag_52:\n        /* \"#utility.yul\":2431:2455   */\n      tag_86\n        /* \"#utility.yul\":2449:2454   */\n      dup2\n        /* \"#utility.yul\":2431:2455   */\n      tag_48\n      jump\t// in\n    tag_86:\n        /* \"#utility.yul\":2426:2429   */\n      dup3\n        /* \"#utility.yul\":2419:2456   */\n      mstore\n        /* \"#utility.yul\":2344:2462   */\n      pop\n      pop\n      jump\t// out\n        /* \"#utility.yul\":2468:2690   */\n    tag_19:\n        /* \"#utility.yul\":2561:2565   */\n      0x00\n        /* \"#utility.yul\":2599:2601   */\n      0x20\n        /* \"#utility.yul\":2588:2597   */\n      dup3\n        /* \"#utility.yul\":2584:2602   */\n      add\n        /* \"#utility.yul\":2576:2602   */\n      swap1\n      pop\n        /* \"#utility.yul\":2612:2683   */\n      tag_88\n        /* \"#utility.yul\":2680:2681   */\n      0x00\n        /* \"#utility.yul\":2669:2678   */\n      dup4\n        /* \"#utility.yul\":2665:2682   */\n      add\n        /* \"#utility.yul\":2656:2662   */\n      dup5\n        /* \"#utility.yul\":2612:2683   */\n      tag_52\n      jump\t// in\n    tag_88:\n        /* \"#utility.yul\":2468:2690   */\n      swap3\n      swap2\n      pop\n      pop\n      jump\t// out\n        /* \"#utility.yul\":2696:2876   */\n    tag_53:\n        /* \"#utility.yul\":2744:2821   */\n      0x4e487b7100000000000000000000000000000000000000000000000000000000\n        /* \"#utility.yul\":2741:2742   */\n      0x00\n        /* \"#utility.yul\":2734:2822   */\n      mstore\n        /* \"#utility.yul\":2841:2845   */\n      0x11\n        /* \"#utility.yul\":2838:2839   */\n      0x04\n        /* \"#utility.yul\":2831:2846   */\n      mstore\n        /* \"#utility.yul\":2865:2869   */\n      0x24\n        /* \"#utility.yul\":2862:2863   */\n      0x00\n        /* \"#utility.yul\":2855:2870   */\n      revert\n        /* \"#utility.yul\":2882:3073   */\n    tag_34:\n        /* \"#utility.yul\":2922:2925   */\n      0x00\n        /* \"#utility.yul\":2941:2961   */\n      tag_91\n        /* \"#utility.yul\":2959:2960   */\n      dup3\n        /* \"#utility.yul\":2941:2961   */\n      tag_48\n      jump\t// in\n    tag_91:\n        /* \"#utility.yul\":2936:2961   */\n      swap2\n      pop\n        /* \"#utility.yul\":2975:2995   */\n      tag_92\n        /* \"#utility.yul\":2993:2994   */\n      dup4\n        /* \"#utility.yul\":2975:2995   */\n      tag_48\n      jump\t// in\n    tag_92:\n        /* \"#utility.yul\":2970:2995   */\n      swap3\n      pop\n        /* \"#utility.yul\":3018:3019   */\n      dup3\n        /* \"#utility.yul\":3015:3016   */\n      dup3\n        /* \"#utility.yul\":3011:3020   */\n      add\n        /* \"#utility.yul\":3004:3020   */\n      swap1\n      pop\n        /* \"#utility.yul\":3039:3042   */\n      dup1\n        /* \"#utility.yul\":3036:3037   */\n      dup3\n        /* \"#utility.yul\":3033:3043   */\n      gt\n        /* \"#utility.yul\":3030:3066   */\n      iszero\n      tag_93\n      jumpi\n        /* \"#utility.yul\":3046:3064   */\n      tag_94\n      tag_53\n      jump\t// in\n    tag_94:\n        /* \"#utility.yul\":3030:3066   */\n    tag_93:\n        /* \"#utility.yul\":2882:3073   */\n      swap3\n      swap2\n      pop\n      pop\n      jump\t// out\n        /* \"#utility.yul\":3079:3312   */\n    tag_37:\n        /* \"#utility.yul\":3118:3121   */\n      0x00\n        /* \"#utility.yul\":3141:3165   */\n      tag_96\n        /* \"#utility.yul\":3159:3164   */\n      dup3\n        /* \"#utility.yul\":3141:3165   */\n      tag_48\n      jump\t// in\n    tag_96:\n        /* \"#utility.yul\":3132:3165   */\n      swap2\n      pop\n        /* \"#utility.yul\":3187:3253   */\n      0xffffffffffffffffffffffffffffffffffffffffffffffffffffffffffffffff\n        /* \"#utility.yul\":3180:3185   */\n      dup3\n        /* \"#utility.yul\":3177:3254   */\n      sub\n        /* \"#utility.yul\":3174:3277   */\n      tag_97\n      jumpi\n        /* \"#utility.yul\":3257:3275   */\n      tag_98\n      tag_53\n      jump\t// in\n    tag_98:\n        /* \"#utility.yul\":3174:3277   */\n    tag_97:\n        /* \"#utility.yul\":3304:3305   */\n      0x01\n        /* \"#utility.yul\":3297:3302   */\n      dup3\n        /* \"#utility.yul\":3293:3306   */\n      add\n        /* \"#utility.yul\":3286:3306   */\n      swap1\n      pop\n        /* \"#utility.yul\":3079:3312   */\n      swap2\n      swap1\n      pop\n      jump\t// out\n        /* \"#utility.yul\":3318:3498   */\n    tag_54:\n        /* \"#utility.yul\":3366:3443   */\n      0x4e487b7100000000000000000000000000000000000000000000000000000000\n        /* \"#utility.yul\":3363:3364   */\n      0x00\n        /* \"#utility.yul\":3356:3444   */\n      mstore\n        /* \"#utility.yul\":3463:3467   */\n      0x12\n        /* \"#utility.yul\":3460:3461   */\n      0x04\n        /* \"#utility.yul\":3453:3468   */\n      mstore\n        /* \"#utility.yul\":3487:3491   */\n      0x24\n        /* \"#utility.yul\":3484:3485   */\n      0x00\n        /* \"#utility.yul\":3477:3492   */\n      revert\n        /* \"#utility.yul\":3504:3689   */\n    tag_41:\n        /* \"#utility.yul\":3544:3545   */\n      0x00\n        /* \"#utility.yul\":3561:3581   */\n      tag_101\n        /* \"#utility.yul\":3579:3580   */\n      dup3\n        /* \"#utility.yul\":3561:3581   */\n      tag_48\n      jump\t// in\n    tag_101:\n        /* \"#utility.yul\":3556:3581   */\n      swap2\n      pop\n        /* \"#utility.yul\":3595:3615   */\n      tag_102\n        /* \"#utility.yul\":3613:3614   */\n      dup4\n        /* \"#utility.yul\":3595:3615   */\n      tag_48\n      jump\t// in\n    tag_102:\n        /* \"#utility.yul\":3590:3615   */\n      swap3\n      pop\n        /* \"#utility.yul\":3634:3635   */\n      dup3\n        /* \"#utility.yul\":3624:3659   */\n      tag_103\n      jumpi\n        /* \"#utility.yul\":3639:3657   */\n      tag_104\n      tag_54\n      jump\t// in\n    tag_104:\n        /* \"#utility.yul\":3624:3659   */\n    tag_103:\n        /* \"#utility.yul\":3681:3682   */\n      dup3\n        /* \"#utility.yul\":3678:3679   */\n      dup3\n        /* \"#utility.yul\":3674:3683   */\n      div\n        /* \"#utility.yul\":3669:3683   */\n      swap1\n      pop\n        /* \"#utility.yul\":3504:3689   */\n      swap3\n      swap2\n      pop\n      pop\n      jump\t// out\n\n    auxdata: 0xa264697066735822122046dfede8834c77b8719b9a7f24ba384e0a05228c9eeef5d62452f77e25e3e59464736f6c634300081e0033\n}\n",
				"bytecode": {
					"linkReferences": {},
					"object": "60806040527fffffffffffffffffffffffffffffffffffffffffffffffffffffffffffffffff5f5f6101000a81548160ff02191690835f0b60ff16021790555060105f60016101000a81548161ffff021916908360010b61ffff16021790555060205f60036101000a81548163ffffffff021916908363ffffffff16021790555060085f60076101000a81548160ff021916908360ff16021790555034801560a5575f5ffd5b50610409806100b35f395ff3fe608060405234801561000f575f5ffd5b5060043610610055575f3560e01c80636f52cd7a14610059578063771602f714610089578063b41cd3c8146100b9578063b68af89b146100d7578063f88e9fbf14610107575b5f5ffd5b610073600480360381019061006e9190610203565b610137565b6040516100809190610250565b60405180910390f35b6100a3600480360381019061009e9190610269565b610144565b6040516100b091906102b6565b60405180910390f35b6100c1610159565b6040516100ce91906102b6565b60405180910390f35b6100f160048036038101906100ec9190610203565b610177565b6040516100fe9190610250565b60405180910390f35b610121600480360381019061011c9190610269565b610184565b60405161012e91906102b6565b60405180910390f35b5f8183901b905092915050565b5f818361015191906102fc565b905092915050565b5f5f600190505f8161016a9061032f565b9150819050809250505090565b5f8183901d905092915050565b5f818361019191906103a3565b905092915050565b5f5ffd5b5f819050919050565b6101af8161019d565b81146101b9575f5ffd5b50565b5f813590506101ca816101a6565b92915050565b5f819050919050565b6101e2816101d0565b81146101ec575f5ffd5b50565b5f813590506101fd816101d9565b92915050565b5f5f6040838503121561021957610218610199565b5b5f610226858286016101bc565b9250506020610237858286016101ef565b9150509250929050565b61024a8161019d565b82525050565b5f6020820190506102635f830184610241565b92915050565b5f5f6040838503121561027f5761027e610199565b5b5f61028c858286016101ef565b925050602061029d858286016101ef565b9150509250929050565b6102b0816101d0565b82525050565b5f6020820190506102c95f8301846102a7565b92915050565b7f4e487b71000000000000000000000000000000000000000000000000000000005f52601160045260245ffd5b5f610306826101d0565b9150610311836101d0565b9250828201905080821115610329576103286102cf565b5b92915050565b5f610339826101d0565b91507fffffffffffffffffffffffffffffffffffffffffffffffffffffffffffffffff820361036b5761036a6102cf565b5b600182019050919050565b7f4e487b71000000000000000000000000000000000000000000000000000000005f52601260045260245ffd5b5f6103ad826101d0565b91506103b8836101d0565b9250826103c8576103c7610376565b5b82820490509291505056fea264697066735822122046dfede8834c77b8719b9a7f24ba384e0a05228c9eeef5d62452f77e25e3e59464736f6c634300081e0033",
					"opcodes": "PUSH1 0x80 PUSH1 0x40 MSTORE PUSH32 0xFFFFFFFFFFFFFFFFFFFFFFFFFFFFFFFFFFFFFFFFFFFFFFFFFFFFFFFFFFFFFFFF PUSH0 PUSH0 PUSH2 0x100 EXP DUP2 SLOAD DUP2 PUSH1 0xFF MUL NOT AND SWAP1 DUP4 PUSH0 SIGNEXTEND PUSH1 0xFF AND MUL OR SWAP1 SSTORE POP PUSH1 0x10 PUSH0 PUSH1 0x1 PUSH2 0x100 EXP DUP2 SLOAD DUP2 PUSH2 0xFFFF MUL NOT AND SWAP1 DUP4 PUSH1 0x1 SIGNEXTEND PUSH2 0xFFFF AND MUL OR SWAP1 SSTORE POP PUSH1 0x20 PUSH0 PUSH1 0x3 PUSH2 0x100 EXP DUP2 SLOAD DUP2 PUSH4 0xFFFFFFFF MUL NOT AND SWAP1 DUP4 PUSH4 0xFFFFFFFF AND MUL OR SWAP1 SSTORE POP PUSH1 0x8 PUSH0 PUSH1 0x7 PUSH2 0x100 EXP DUP2 SLOAD DUP2 PUSH1 0xFF MUL NOT AND SWAP1 DUP4 PUSH1 0xFF AND MUL OR SWAP1 SSTORE POP CALLVALUE DUP1 ISZERO PUSH1 0xA5 JUMPI PUSH0 PUSH0 REVERT JUMPDEST POP PUSH2 0x409 DUP1 PUSH2 0xB3 PUSH0 CODECOPY PUSH0 RETURN INVALID PUSH1 0x80 PUSH1 0x40 MSTORE CALLVALUE DUP1 ISZERO PUSH2 0xF JUMPI PUSH0 PUSH0 REVERT JUMPDEST POP PUSH1 0x4 CALLDATASIZE LT PUSH2 0x55 JUMPI PUSH0 CALLDATALOAD PUSH1 0xE0 SHR DUP1 PUSH4 0x6F52CD7A EQ PUSH2 0x59 JUMPI DUP1 PUSH4 0x771602F7 EQ PUSH2 0x89 JUMPI DUP1 PUSH4 0xB41CD3C8 EQ PUSH2 0xB9 JUMPI DUP1 PUSH4 0xB68AF89B EQ PUSH2 0xD7 JUMPI DUP1 PUSH4 0xF88E9FBF EQ PUSH2 0x107 JUMPI JUMPDEST PUSH0 PUSH0 REVERT JUMPDEST PUSH2 0x73 PUSH1 0x4 DUP1 CALLDATASIZE SUB DUP2 ADD SWAP1 PUSH2 0x6E SWAP2 SWAP1 PUSH2 0x203 JUMP JUMPDEST PUSH2 0x137 JUMP JUMPDEST PUSH1 0x40 MLOAD PUSH2 0x80 SWAP2 SWAP1 PUSH2 0x250 JUMP JUMPDEST PUSH1 0x40 MLOAD DUP1 SWAP2 SUB SWAP1 RETURN JUMPDEST PUSH2 0xA3 PUSH1 0x4 DUP1 CALLDATASIZE SUB DUP2 ADD SWAP1 PUSH2 0x9E SWAP2 SWAP1 PUSH2 0x269 JUMP JUMPDEST PUSH2 0x144 JUMP JUMPDEST PUSH1 0x40 MLOAD PUSH2 0xB0 SWAP2 SWAP1 PUSH2 0x2B6 JUMP JUMPDEST PUSH1 0x40 MLOAD DUP1 SWAP2 SUB SWAP1 RETURN JUMPDEST PUSH2 0xC1 PUSH2 0x159 JUMP JUMPDEST PUSH1 0x40 MLOAD PUSH2 0xCE SWAP2 SWAP1 PUSH2 0x2B6 JUMP JUMPDEST PUSH1 0x40 MLOAD DUP1 SWAP2 SUB SWAP1 RETURN JUMPDEST PUSH2 0xF1 PUSH1 0x4 DUP1 CALLDATASIZE SUB DUP2 ADD SWAP1 PUSH2 0xEC SWAP2 SWAP1 PUSH2 0x203 JUMP JUMPDEST PUSH2 0x177 JUMP JUMPDEST PUSH1 0x40 MLOAD PUSH2 0xFE SWAP2 SWAP1 PUSH2 0x250 JUMP JUMPDEST PUSH1 0x40 MLOAD DUP1 SWAP2 SUB SWAP1 RETURN JUMPDEST PUSH2 0x121 PUSH1 0x4 DUP1 CALLDATASIZE SUB DUP2 ADD SWAP1 PUSH2 0x11C SWAP2 SWAP1 PUSH2 0x269 JUMP JUMPDEST PUSH2 0x184 JUMP JUMPDEST PUSH1 0x40 MLOAD PUSH2 0x12E SWAP2 SWAP1 PUSH2 0x2B6 JUMP JUMPDEST PUSH1 0x40 MLOAD DUP1 SWAP2 SUB SWAP1 RETURN JUMPDEST PUSH0 DUP2 DUP4 SWAP1 SHL SWAP1 POP SWAP3 SWAP2 POP POP JUMP JUMPDEST PUSH0 DUP2 DUP4 PUSH2 0x151 SWAP2 SWAP1 PUSH2 0x2FC JUMP JUMPDEST SWAP1 POP SWAP3 SWAP2 POP POP JUMP JUMPDEST PUSH0 PUSH0 PUSH1 0x1 SWAP1 POP PUSH0 DUP2 PUSH2 0x16A SWAP1 PUSH2 0x32F JUMP JUMPDEST SWAP2 POP DUP2 SWAP1 POP DUP1 SWAP3 POP POP POP SWAP1 JUMP JUMPDEST PUSH0 DUP2 DUP4 SWAP1 SAR SWAP1 POP SWAP3 SWAP2 POP POP JUMP JUMPDEST PUSH0 DUP2 DUP4 PUSH2 0x191 SWAP2 SWAP1 PUSH2 0x3A3 JUMP JUMPDEST SWAP1 POP SWAP3 SWAP2 POP POP JUMP JUMPDEST PUSH0 PUSH0 REVERT JUMPDEST PUSH0 DUP2 SWAP1 POP SWAP2 SWAP1 POP JUMP JUMPDEST PUSH2 0x1AF DUP2 PUSH2 0x19D JUMP JUMPDEST DUP2 EQ PUSH2 0x1B9 JUMPI PUSH0 PUSH0 REVERT JUMPDEST POP JUMP JUMPDEST PUSH0 DUP2 CALLDATALOAD SWAP1 POP PUSH2 0x1CA DUP2 PUSH2 0x1A6 JUMP JUMPDEST SWAP3 SWAP2 POP POP JUMP JUMPDEST PUSH0 DUP2 SWAP1 POP SWAP2 SWAP1 POP JUMP JUMPDEST PUSH2 0x1E2 DUP2 PUSH2 0x1D0 JUMP JUMPDEST DUP2 EQ PUSH2 0x1EC JUMPI PUSH0 PUSH0 REVERT JUMPDEST POP JUMP JUMPDEST PUSH0 DUP2 CALLDATALOAD SWAP1 POP PUSH2 0x1FD DUP2 PUSH2 0x1D9 JUMP JUMPDEST SWAP3 SWAP2 POP POP JUMP JUMPDEST PUSH0 PUSH0 PUSH1 0x40 DUP4 DUP6 SUB SLT ISZERO PUSH2 0x219 JUMPI PUSH2 0x218 PUSH2 0x199 JUMP JUMPDEST JUMPDEST PUSH0 PUSH2 0x226 DUP6 DUP3 DUP7 ADD PUSH2 0x1BC JUMP JUMPDEST SWAP3 POP POP PUSH1 0x20 PUSH2 0x237 DUP6 DUP3 DUP7 ADD PUSH2 0x1EF JUMP JUMPDEST SWAP2 POP POP SWAP3 POP SWAP3 SWAP1 POP JUMP JUMPDEST PUSH2 0x24A DUP2 PUSH2 0x19D JUMP JUMPDEST DUP3 MSTORE POP POP JUMP JUMPDEST PUSH0 PUSH1 0x20 DUP3 ADD SWAP1 POP PUSH2 0x263 PUSH0 DUP4 ADD DUP5 PUSH2 0x241 JUMP JUMPDEST SWAP3 SWAP2 POP POP JUMP JUMPDEST PUSH0 PUSH0 PUSH1 0x40 DUP4 DUP6 SUB SLT ISZERO PUSH2 0x27F JUMPI PUSH2 0x27E PUSH2 0x199 JUMP JUMPDEST JUMPDEST PUSH0 PUSH2 0x28C DUP6 DUP3 DUP7 ADD PUSH2 0x1EF JUMP JUMPDEST SWAP3 POP POP PUSH1 0x20 PUSH2 0x29D DUP6 DUP3 DUP7 ADD PUSH2 0x1EF JUMP JUMPDEST SWAP2 POP POP SWAP3 POP SWAP3 SWAP1 POP JUMP JUMPDEST PUSH2 0x2B0 DUP2 PUSH2 0x1D0 JUMP JUMPDEST DUP3 MSTORE POP POP JUMP JUMPDEST PUSH0 PUSH1 0x20 DUP3 ADD SWAP1 POP PUSH2 0x2C9 PUSH0 DUP4 ADD DUP5 PUSH2 0x2A7 JUMP JUMPDEST SWAP3 SWAP2 POP POP JUMP JUMPDEST PUSH32 0x4E487B7100000000000000000000000000000000000000000000000000000000 PUSH0 MSTORE PUSH1 0x11 PUSH1 0x4 MSTORE PUSH1 0x24 PUSH0 REVERT JUMPDEST PUSH0 PUSH2 0x306 DUP3 PUSH2 0x1D0 JUMP JUMPDEST SWAP2 POP PUSH2 0x311 DUP4 PUSH2 0x1D0 JUMP JUMPDEST SWAP3 POP DUP3 DUP3 ADD SWAP1 POP DUP1 DUP3 GT ISZERO PUSH2 0x329 JUMPI PUSH2 0x328 PUSH2 0x2CF JUMP JUMPDEST JUMPDEST SWAP3 SWAP2 POP POP JUMP JUMPDEST PUSH0 PUSH2 0x339 DUP3 PUSH2 0x1D0 JUMP JUMPDEST SWAP2 POP PUSH32 0xFFFFFFFFFFFFFFFFFFFFFFFFFFFFFFFFFFFFFFFFFFFFFFFFFFFFFFFFFFFFFFFF DUP3 SUB PUSH2 0x36B JUMPI PUSH2 0x36A PUSH2 0x2CF JUMP JUMPDEST JUMPDEST PUSH1 0x1 DUP3 ADD SWAP1 POP SWAP2 SWAP1 POP JUMP JUMPDEST PUSH32 0x4E487B7100000000000000000000000000000000000000000000000000000000 PUSH0 MSTORE PUSH1 0x12 PUSH1 0x4 MSTORE PUSH1 0x24 PUSH0 REVERT JUMPDEST PUSH0 PUSH2 0x3AD DUP3 PUSH2 0x1D0 JUMP JUMPDEST SWAP2 POP PUSH2 0x3B8 DUP4 PUSH2 0x1D0 JUMP JUMPDEST SWAP3 POP DUP3 PUSH2 0x3C8 JUMPI PUSH2 0x3C7 PUSH2 0x376 JUMP JUMPDEST JUMPDEST DUP3 DUP3 DIV SWAP1 POP SWAP3 SWAP2 POP POP JUMP INVALID LOG2 PUSH5 0x6970667358 0x22 SLT KECCAK256 CHAINID 0xDF 0xED 0xE8 DUP4 0x4C PUSH24 0xB8719B9A7F24BA384E0A05228C9EEEF5D62452F77E25E3E5 SWAP5 PUSH5 0x736F6C6343 STOP ADDMOD 0x1E STOP CALLER "
				},
				"gasEstimates": {
					"creation": {
						"codeDepositCost": "206600",
						"executionCost": "97477",
						"totalCost": "304077"
					},
					"external": {
						"add(uint256,uint256)": "infinite",
						"divide(uint256,uint256)": "infinite",
						"leftshift(int256,uint256)": "infinite",
						"rightshift(int256,uint256)": "infinite",
						"testPlusPlus()": "infinite"
					}
				},
				"methodIdentifiers": {
					"add(uint256,uint256)": "771602f7",
					"divide(uint256,uint256)": "f88e9fbf",
					"leftshift(int256,uint256)": "6f52cd7a",
					"rightshift(int256,uint256)": "b68af89b",
					"testPlusPlus()": "b41cd3c8"
				}
			},
			"storageLayout": {
				"storage": [
					{
						"astId": 5,
						"contract": "testInt.sol:testInt",
						"label": "a",
						"offset": 0,
						"slot": "0",
						"type": "t_int8"
					},
					{
						"astId": 8,
						"contract": "testInt.sol:testInt",
						"label": "b",
						"offset": 1,
						"slot": "0",
						"type": "t_int16"
					},
					{
						"astId": 11,
						"contract": "testInt.sol:testInt",
						"label": "c",
						"offset": 3,
						"slot": "0",
						"type": "t_uint32"
					},
					{
						"astId": 14,
						"contract": "testInt.sol:testInt",
						"label": "d",
						"offset": 7,
						"slot": "0",
						"type": "t_uint8"
					}
				],
				"types": {
					"t_int16": {
						"encoding": "inplace",
						"label": "int16",
						"numberOfBytes": "2"
					},
					"t_int8": {
						"encoding": "inplace",
						"label": "int8",
						"numberOfBytes": "1"
					},
					"t_uint32": {
						"encoding": "inplace",
						"label": "uint32",
						"numberOfBytes": "4"
					},
					"t_uint8": {
						"encoding": "inplace",
						"label": "uint8",
						"numberOfBytes": "1"
					}
				}
			},
			"userdoc": {
				"kind": "user",
				"methods": {},
				"version": 1
			}
		}
	}
}