{
	"task1/romanToInt.sol": {
		"RomanToInt": {
			"abi": [
				{
					"inputs": [
						{
							"internalType": "string",
							"name": "s",
							"type": "string"
						}
					],
					"name": "romanToInt",
					"outputs": [
						{
							"internalType": "uint256",
							"name": "num",
							"type": "uint256"
						}
					],
					"stateMutability": "pure",
					"type": "function"
				}
			],
			"devdoc": {
				"kind": "dev",
				"methods": {},
				"version": 1
			},
			"evm": {
				"assembly": "    /* \"task1/romanToInt.sol\":58:892  contract RomanToInt {... */\n  mstore(0x40, 0x80)\n  callvalue\n  dup1\n  iszero\n  tag_1\n  jumpi\n  revert(0x00, 0x00)\ntag_1:\n  pop\n  dataSize(sub_0)\n  dup1\n  dataOffset(sub_0)\n  0x00\n  codecopy\n  0x00\n  return\nstop\n\nsub_0: assembly {\n        /* \"task1/romanToInt.sol\":58:892  contract RomanToInt {... */\n      mstore(0x40, 0x80)\n      callvalue\n      dup1\n      iszero\n      tag_1\n      jumpi\n      revert(0x00, 0x00)\n    tag_1:\n      pop\n      jumpi(tag_2, lt(calldatasize, 0x04))\n      shr(0xe0, calldataload(0x00))\n      dup1\n      0xcb159dfe\n      eq\n      tag_3\n      jumpi\n    tag_2:\n      revert(0x00, 0x00)\n        /* \"task1/romanToInt.sol\":84:521  function romanToInt(string memory s) external pure returns (uint256 num) {... */\n    tag_3:\n      tag_4\n      0x04\n      dup1\n      calldatasize\n      sub\n      dup2\n      add\n      swap1\n      tag_5\n      swap2\n      swap1\n      tag_6\n      jump\t// in\n    tag_5:\n      tag_7\n      jump\t// in\n    tag_4:\n      mload(0x40)\n      tag_8\n      swap2\n      swap1\n      tag_9\n      jump\t// in\n    tag_8:\n      mload(0x40)\n      dup1\n      swap2\n      sub\n      swap1\n      return\n    tag_7:\n        /* \"task1/romanToInt.sol\":144:155  uint256 num */\n      0x00\n        /* \"task1/romanToInt.sol\":167:178  uint256 len */\n      0x00\n        /* \"task1/romanToInt.sol\":187:188  s */\n      dup3\n        /* \"task1/romanToInt.sol\":181:196  bytes(s).length */\n      mload\n        /* \"task1/romanToInt.sol\":167:196  uint256 len = bytes(s).length */\n      swap1\n      pop\n        /* \"task1/romanToInt.sol\":217:218  0 */\n      0x00\n        /* \"task1/romanToInt.sol\":210:213  len */\n      dup2\n        /* \"task1/romanToInt.sol\":210:218  len == 0 */\n      sub\n        /* \"task1/romanToInt.sol\":206:228  if (len == 0) return 0 */\n      tag_11\n      jumpi\n        /* \"task1/romanToInt.sol\":227:228  0 */\n      0x00\n        /* \"task1/romanToInt.sol\":220:228  return 0 */\n      swap2\n      pop\n      pop\n      jump(tag_10)\n        /* \"task1/romanToInt.sol\":206:228  if (len == 0) return 0 */\n    tag_11:\n        /* \"task1/romanToInt.sol\":239:253  bytes memory b */\n      0x00\n        /* \"task1/romanToInt.sol\":262:263  s */\n      dup4\n        /* \"task1/romanToInt.sol\":239:264  bytes memory b = bytes(s) */\n      swap1\n      pop\n        /* \"task1/romanToInt.sol\":280:289  uint256 i */\n      0x00\n        /* \"task1/romanToInt.sol\":292:293  0 */\n      0x00\n        /* \"task1/romanToInt.sol\":280:293  uint256 i = 0 */\n      swap1\n      pop\n        /* \"task1/romanToInt.sol\":275:455  for (uint256 i = 0; i < len - 1; ++i) {... */\n    tag_12:\n        /* \"task1/romanToInt.sol\":305:306  1 */\n      0x01\n        /* \"task1/romanToInt.sol\":299:302  len */\n      dup4\n        /* \"task1/romanToInt.sol\":299:306  len - 1 */\n      tag_15\n      swap2\n      swap1\n      tag_16\n      jump\t// in\n    tag_15:\n        /* \"task1/romanToInt.sol\":295:296  i */\n      dup2\n        /* \"task1/romanToInt.sol\":295:306  i < len - 1 */\n      lt\n        /* \"task1/romanToInt.sol\":275:455  for (uint256 i = 0; i < len - 1; ++i) {... */\n      iszero\n      tag_13\n      jumpi\n        /* \"task1/romanToInt.sol\":327:338  uint256 cur */\n      0x00\n        /* \"task1/romanToInt.sol\":341:351  _val(b[i]) */\n      tag_17\n        /* \"task1/romanToInt.sol\":346:347  b */\n      dup4\n        /* \"task1/romanToInt.sol\":348:349  i */\n      dup4\n        /* \"task1/romanToInt.sol\":346:350  b[i] */\n      dup2\n      mload\n      dup2\n      lt\n      tag_18\n      jumpi\n      tag_19\n      tag_20\n      jump\t// in\n    tag_19:\n    tag_18:\n      0x20\n      add\n      add\n      mload\n      0xf8\n      shr\n      0xf8\n      shl\n        /* \"task1/romanToInt.sol\":341:345  _val */\n      tag_21\n        /* \"task1/romanToInt.sol\":341:351  _val(b[i]) */\n      jump\t// in\n    tag_17:\n        /* \"task1/romanToInt.sol\":327:351  uint256 cur = _val(b[i]) */\n      swap1\n      pop\n        /* \"task1/romanToInt.sol\":365:377  uint256 next */\n      0x00\n        /* \"task1/romanToInt.sol\":380:394  _val(b[i + 1]) */\n      tag_22\n        /* \"task1/romanToInt.sol\":385:386  b */\n      dup5\n        /* \"task1/romanToInt.sol\":391:392  1 */\n      0x01\n        /* \"task1/romanToInt.sol\":387:388  i */\n      dup6\n        /* \"task1/romanToInt.sol\":387:392  i + 1 */\n      tag_23\n      swap2\n      swap1\n      tag_24\n      jump\t// in\n    tag_23:\n        /* \"task1/romanToInt.sol\":385:393  b[i + 1] */\n      dup2\n      mload\n      dup2\n      lt\n      tag_25\n      jumpi\n      tag_26\n      tag_20\n      jump\t// in\n    tag_26:\n    tag_25:\n      0x20\n      add\n      add\n      mload\n      0xf8\n      shr\n      0xf8\n      shl\n        /* \"task1/romanToInt.sol\":380:384  _val */\n      tag_21\n        /* \"task1/romanToInt.sol\":380:394  _val(b[i + 1]) */\n      jump\t// in\n    tag_22:\n        /* \"task1/romanToInt.sol\":365:394  uint256 next = _val(b[i + 1]) */\n      swap1\n      pop\n        /* \"task1/romanToInt.sol\":414:418  next */\n      dup1\n        /* \"task1/romanToInt.sol\":408:411  cur */\n      dup3\n        /* \"task1/romanToInt.sol\":408:418  cur < next */\n      lt\n        /* \"task1/romanToInt.sol\":408:444  cur < next ? num -= cur : num += cur */\n      tag_27\n      jumpi\n        /* \"task1/romanToInt.sol\":441:444  cur */\n      dup2\n        /* \"task1/romanToInt.sol\":434:444  num += cur */\n      dup7\n      tag_28\n      swap2\n      swap1\n      tag_24\n      jump\t// in\n    tag_28:\n      swap6\n      pop\n      dup6\n        /* \"task1/romanToInt.sol\":408:444  cur < next ? num -= cur : num += cur */\n      jump(tag_29)\n    tag_27:\n        /* \"task1/romanToInt.sol\":428:431  cur */\n      dup2\n        /* \"task1/romanToInt.sol\":421:431  num -= cur */\n      dup7\n      tag_30\n      swap2\n      swap1\n      tag_16\n      jump\t// in\n    tag_30:\n      swap6\n      pop\n      dup6\n        /* \"task1/romanToInt.sol\":408:444  cur < next ? num -= cur : num += cur */\n    tag_29:\n      pop\n        /* \"task1/romanToInt.sol\":313:455  {... */\n      pop\n      pop\n        /* \"task1/romanToInt.sol\":308:311  ++i */\n      dup1\n      0x01\n      add\n      swap1\n      pop\n        /* \"task1/romanToInt.sol\":275:455  for (uint256 i = 0; i < len - 1; ++i) {... */\n      jump(tag_12)\n    tag_13:\n      pop\n        /* \"task1/romanToInt.sol\":471:487  _val(b[len - 1]) */\n      tag_31\n        /* \"task1/romanToInt.sol\":476:477  b */\n      dup2\n        /* \"task1/romanToInt.sol\":484:485  1 */\n      0x01\n        /* \"task1/romanToInt.sol\":478:481  len */\n      dup5\n        /* \"task1/romanToInt.sol\":478:485  len - 1 */\n      tag_32\n      swap2\n      swap1\n      tag_16\n      jump\t// in\n    tag_32:\n        /* \"task1/romanToInt.sol\":476:486  b[len - 1] */\n      dup2\n      mload\n      dup2\n      lt\n      tag_33\n      jumpi\n      tag_34\n      tag_20\n      jump\t// in\n    tag_34:\n    tag_33:\n      0x20\n      add\n      add\n      mload\n      0xf8\n      shr\n      0xf8\n      shl\n        /* \"task1/romanToInt.sol\":471:475  _val */\n      tag_21\n        /* \"task1/romanToInt.sol\":471:487  _val(b[len - 1]) */\n      jump\t// in\n    tag_31:\n        /* \"task1/romanToInt.sol\":464:487  num += _val(b[len - 1]) */\n      dup4\n      tag_35\n      swap2\n      swap1\n      tag_24\n      jump\t// in\n    tag_35:\n      swap3\n      pop\n        /* \"task1/romanToInt.sol\":157:521  {... */\n      pop\n      pop\n        /* \"task1/romanToInt.sol\":84:521  function romanToInt(string memory s) external pure returns (uint256 num) {... */\n    tag_10:\n      swap2\n      swap1\n      pop\n      jump\t// out\n        /* \"task1/romanToInt.sol\":557:890  function _val(bytes1 c) private pure returns (uint256) {... */\n    tag_21:\n        /* \"task1/romanToInt.sol\":603:610  uint256 */\n      0x00\n        /* \"task1/romanToInt.sol\":626:634  c == \"I\" */\n      0x4900000000000000000000000000000000000000000000000000000000000000\n        /* \"task1/romanToInt.sol\":626:627  c */\n      dup3\n        /* \"task1/romanToInt.sol\":626:634  c == \"I\" */\n      not(0xffffffffffffffffffffffffffffffffffffffffffffffffffffffffffffff)\n      and\n      sub\n        /* \"task1/romanToInt.sol\":622:644  if (c == \"I\") return 1 */\n      tag_37\n      jumpi\n        /* \"task1/romanToInt.sol\":643:644  1 */\n      0x01\n        /* \"task1/romanToInt.sol\":636:644  return 1 */\n      swap1\n      pop\n      jump(tag_36)\n        /* \"task1/romanToInt.sol\":622:644  if (c == \"I\") return 1 */\n    tag_37:\n        /* \"task1/romanToInt.sol\":658:666  c == \"V\" */\n      0x5600000000000000000000000000000000000000000000000000000000000000\n        /* \"task1/romanToInt.sol\":658:659  c */\n      dup3\n        /* \"task1/romanToInt.sol\":658:666  c == \"V\" */\n      not(0xffffffffffffffffffffffffffffffffffffffffffffffffffffffffffffff)\n      and\n      sub\n        /* \"task1/romanToInt.sol\":654:676  if (c == \"V\") return 5 */\n      tag_38\n      jumpi\n        /* \"task1/romanToInt.sol\":675:676  5 */\n      0x05\n        /* \"task1/romanToInt.sol\":668:676  return 5 */\n      swap1\n      pop\n      jump(tag_36)\n        /* \"task1/romanToInt.sol\":654:676  if (c == \"V\") return 5 */\n    tag_38:\n        /* \"task1/romanToInt.sol\":690:698  c == \"X\" */\n      0x5800000000000000000000000000000000000000000000000000000000000000\n        /* \"task1/romanToInt.sol\":690:691  c */\n      dup3\n        /* \"task1/romanToInt.sol\":690:698  c == \"X\" */\n      not(0xffffffffffffffffffffffffffffffffffffffffffffffffffffffffffffff)\n      and\n      sub\n        /* \"task1/romanToInt.sol\":686:709  if (c == \"X\") return 10 */\n      tag_39\n      jumpi\n        /* \"task1/romanToInt.sol\":707:709  10 */\n      0x0a\n        /* \"task1/romanToInt.sol\":700:709  return 10 */\n      swap1\n      pop\n      jump(tag_36)\n        /* \"task1/romanToInt.sol\":686:709  if (c == \"X\") return 10 */\n    tag_39:\n        /* \"task1/romanToInt.sol\":723:731  c == \"L\" */\n      0x4c00000000000000000000000000000000000000000000000000000000000000\n        /* \"task1/romanToInt.sol\":723:724  c */\n      dup3\n        /* \"task1/romanToInt.sol\":723:731  c == \"L\" */\n      not(0xffffffffffffffffffffffffffffffffffffffffffffffffffffffffffffff)\n      and\n      sub\n        /* \"task1/romanToInt.sol\":719:742  if (c == \"L\") return 50 */\n      tag_40\n      jumpi\n        /* \"task1/romanToInt.sol\":740:742  50 */\n      0x32\n        /* \"task1/romanToInt.sol\":733:742  return 50 */\n      swap1\n      pop\n      jump(tag_36)\n        /* \"task1/romanToInt.sol\":719:742  if (c == \"L\") return 50 */\n    tag_40:\n        /* \"task1/romanToInt.sol\":756:764  c == \"C\" */\n      0x4300000000000000000000000000000000000000000000000000000000000000\n        /* \"task1/romanToInt.sol\":756:757  c */\n      dup3\n        /* \"task1/romanToInt.sol\":756:764  c == \"C\" */\n      not(0xffffffffffffffffffffffffffffffffffffffffffffffffffffffffffffff)\n      and\n      sub\n        /* \"task1/romanToInt.sol\":752:776  if (c == \"C\") return 100 */\n      tag_41\n      jumpi\n        /* \"task1/romanToInt.sol\":773:776  100 */\n      0x64\n        /* \"task1/romanToInt.sol\":766:776  return 100 */\n      swap1\n      pop\n      jump(tag_36)\n        /* \"task1/romanToInt.sol\":752:776  if (c == \"C\") return 100 */\n    tag_41:\n        /* \"task1/romanToInt.sol\":790:798  c == \"D\" */\n      0x4400000000000000000000000000000000000000000000000000000000000000\n        /* \"task1/romanToInt.sol\":790:791  c */\n      dup3\n        /* \"task1/romanToInt.sol\":790:798  c == \"D\" */\n      not(0xffffffffffffffffffffffffffffffffffffffffffffffffffffffffffffff)\n      and\n      sub\n        /* \"task1/romanToInt.sol\":786:810  if (c == \"D\") return 500 */\n      tag_42\n      jumpi\n        /* \"task1/romanToInt.sol\":807:810  500 */\n      0x01f4\n        /* \"task1/romanToInt.sol\":800:810  return 500 */\n      swap1\n      pop\n      jump(tag_36)\n        /* \"task1/romanToInt.sol\":786:810  if (c == \"D\") return 500 */\n    tag_42:\n        /* \"task1/romanToInt.sol\":824:832  c == \"M\" */\n      0x4d00000000000000000000000000000000000000000000000000000000000000\n        /* \"task1/romanToInt.sol\":824:825  c */\n      dup3\n        /* \"task1/romanToInt.sol\":824:832  c == \"M\" */\n      not(0xffffffffffffffffffffffffffffffffffffffffffffffffffffffffffffff)\n      and\n      sub\n        /* \"task1/romanToInt.sol\":820:845  if (c == \"M\") return 1000 */\n      tag_43\n      jumpi\n        /* \"task1/romanToInt.sol\":841:845  1000 */\n      0x03e8\n        /* \"task1/romanToInt.sol\":834:845  return 1000 */\n      swap1\n      pop\n      jump(tag_36)\n        /* \"task1/romanToInt.sol\":820:845  if (c == \"M\") return 1000 */\n    tag_43:\n        /* \"task1/romanToInt.sol\":855:883  revert(\"Invalid roman char\") */\n      mload(0x40)\n      0x08c379a000000000000000000000000000000000000000000000000000000000\n      dup2\n      mstore\n      0x04\n      add\n      tag_44\n      swap1\n      tag_45\n      jump\t// in\n    tag_44:\n      mload(0x40)\n      dup1\n      swap2\n      sub\n      swap1\n      revert\n        /* \"task1/romanToInt.sol\":557:890  function _val(bytes1 c) private pure returns (uint256) {... */\n    tag_36:\n      swap2\n      swap1\n      pop\n      jump\t// out\n        /* \"#utility.yul\":7:82   */\n    tag_46:\n        /* \"#utility.yul\":40:46   */\n      0x00\n        /* \"#utility.yul\":73:75   */\n      0x40\n        /* \"#utility.yul\":67:76   */\n      mload\n        /* \"#utility.yul\":57:76   */\n      swap1\n      pop\n        /* \"#utility.yul\":7:82   */\n      swap1\n      jump\t// out\n        /* \"#utility.yul\":88:205   */\n    tag_47:\n        /* \"#utility.yul\":197:198   */\n      0x00\n        /* \"#utility.yul\":194:195   */\n      0x00\n        /* \"#utility.yul\":187:199   */\n      revert\n        /* \"#utility.yul\":211:328   */\n    tag_48:\n        /* \"#utility.yul\":320:321   */\n      0x00\n        /* \"#utility.yul\":317:318   */\n      0x00\n        /* \"#utility.yul\":310:322   */\n      revert\n        /* \"#utility.yul\":334:451   */\n    tag_49:\n        /* \"#utility.yul\":443:444   */\n      0x00\n        /* \"#utility.yul\":440:441   */\n      0x00\n        /* \"#utility.yul\":433:445   */\n      revert\n        /* \"#utility.yul\":457:574   */\n    tag_50:\n        /* \"#utility.yul\":566:567   */\n      0x00\n        /* \"#utility.yul\":563:564   */\n      0x00\n        /* \"#utility.yul\":556:568   */\n      revert\n        /* \"#utility.yul\":580:682   */\n    tag_51:\n        /* \"#utility.yul\":621:627   */\n      0x00\n        /* \"#utility.yul\":672:674   */\n      0x1f\n        /* \"#utility.yul\":668:675   */\n      not\n        /* \"#utility.yul\":663:665   */\n      0x1f\n        /* \"#utility.yul\":656:661   */\n      dup4\n        /* \"#utility.yul\":652:666   */\n      add\n        /* \"#utility.yul\":648:676   */\n      and\n        /* \"#utility.yul\":638:676   */\n      swap1\n      pop\n        /* \"#utility.yul\":580:682   */\n      swap2\n      swap1\n      pop\n      jump\t// out\n        /* \"#utility.yul\":688:868   */\n    tag_52:\n        /* \"#utility.yul\":736:813   */\n      0x4e487b7100000000000000000000000000000000000000000000000000000000\n        /* \"#utility.yul\":733:734   */\n      0x00\n        /* \"#utility.yul\":726:814   */\n      mstore\n        /* \"#utility.yul\":833:837   */\n      0x41\n        /* \"#utility.yul\":830:831   */\n      0x04\n        /* \"#utility.yul\":823:838   */\n      mstore\n        /* \"#utility.yul\":857:861   */\n      0x24\n        /* \"#utility.yul\":854:855   */\n      0x00\n        /* \"#utility.yul\":847:862   */\n      revert\n        /* \"#utility.yul\":874:1155   */\n    tag_53:\n        /* \"#utility.yul\":957:984   */\n      tag_74\n        /* \"#utility.yul\":979:983   */\n      dup3\n        /* \"#utility.yul\":957:984   */\n      tag_51\n      jump\t// in\n    tag_74:\n        /* \"#utility.yul\":949:955   */\n      dup2\n        /* \"#utility.yul\":945:985   */\n      add\n        /* \"#utility.yul\":1087:1093   */\n      dup2\n        /* \"#utility.yul\":1075:1085   */\n      dup2\n        /* \"#utility.yul\":1072:1094   */\n      lt\n        /* \"#utility.yul\":1051:1069   */\n      0xffffffffffffffff\n        /* \"#utility.yul\":1039:1049   */\n      dup3\n        /* \"#utility.yul\":1036:1070   */\n      gt\n        /* \"#utility.yul\":1033:1095   */\n      or\n        /* \"#utility.yul\":1030:1118   */\n      iszero\n      tag_75\n      jumpi\n        /* \"#utility.yul\":1098:1116   */\n      tag_76\n      tag_52\n      jump\t// in\n    tag_76:\n        /* \"#utility.yul\":1030:1118   */\n    tag_75:\n        /* \"#utility.yul\":1138:1148   */\n      dup1\n        /* \"#utility.yul\":1134:1136   */\n      0x40\n        /* \"#utility.yul\":1127:1149   */\n      mstore\n        /* \"#utility.yul\":917:1155   */\n      pop\n        /* \"#utility.yul\":874:1155   */\n      pop\n      pop\n      jump\t// out\n        /* \"#utility.yul\":1161:1290   */\n    tag_54:\n        /* \"#utility.yul\":1195:1201   */\n      0x00\n        /* \"#utility.yul\":1222:1242   */\n      tag_78\n      tag_46\n      jump\t// in\n    tag_78:\n        /* \"#utility.yul\":1212:1242   */\n      swap1\n      pop\n        /* \"#utility.yul\":1251:1284   */\n      tag_79\n        /* \"#utility.yul\":1279:1283   */\n      dup3\n        /* \"#utility.yul\":1271:1277   */\n      dup3\n        /* \"#utility.yul\":1251:1284   */\n      tag_53\n      jump\t// in\n    tag_79:\n        /* \"#utility.yul\":1161:1290   */\n      swap2\n      swap1\n      pop\n      jump\t// out\n        /* \"#utility.yul\":1296:1604   */\n    tag_55:\n        /* \"#utility.yul\":1358:1362   */\n      0x00\n        /* \"#utility.yul\":1448:1466   */\n      0xffffffffffffffff\n        /* \"#utility.yul\":1440:1446   */\n      dup3\n        /* \"#utility.yul\":1437:1467   */\n      gt\n        /* \"#utility.yul\":1434:1490   */\n      iszero\n      tag_81\n      jumpi\n        /* \"#utility.yul\":1470:1488   */\n      tag_82\n      tag_52\n      jump\t// in\n    tag_82:\n        /* \"#utility.yul\":1434:1490   */\n    tag_81:\n        /* \"#utility.yul\":1508:1537   */\n      tag_83\n        /* \"#utility.yul\":1530:1536   */\n      dup3\n        /* \"#utility.yul\":1508:1537   */\n      tag_51\n      jump\t// in\n    tag_83:\n        /* \"#utility.yul\":1500:1537   */\n      swap1\n      pop\n        /* \"#utility.yul\":1592:1596   */\n      0x20\n        /* \"#utility.yul\":1586:1590   */\n      dup2\n        /* \"#utility.yul\":1582:1597   */\n      add\n        /* \"#utility.yul\":1574:1597   */\n      swap1\n      pop\n        /* \"#utility.yul\":1296:1604   */\n      swap2\n      swap1\n      pop\n      jump\t// out\n        /* \"#utility.yul\":1610:1758   */\n    tag_56:\n        /* \"#utility.yul\":1708:1714   */\n      dup3\n        /* \"#utility.yul\":1703:1706   */\n      dup2\n        /* \"#utility.yul\":1698:1701   */\n      dup4\n        /* \"#utility.yul\":1685:1715   */\n      calldatacopy\n        /* \"#utility.yul\":1749:1750   */\n      0x00\n        /* \"#utility.yul\":1740:1746   */\n      dup4\n        /* \"#utility.yul\":1735:1738   */\n      dup4\n        /* \"#utility.yul\":1731:1747   */\n      add\n        /* \"#utility.yul\":1724:1751   */\n      mstore\n        /* \"#utility.yul\":1610:1758   */\n      pop\n      pop\n      pop\n      jump\t// out\n        /* \"#utility.yul\":1764:2189   */\n    tag_57:\n        /* \"#utility.yul\":1842:1847   */\n      0x00\n        /* \"#utility.yul\":1867:1933   */\n      tag_86\n        /* \"#utility.yul\":1883:1932   */\n      tag_87\n        /* \"#utility.yul\":1925:1931   */\n      dup5\n        /* \"#utility.yul\":1883:1932   */\n      tag_55\n      jump\t// in\n    tag_87:\n        /* \"#utility.yul\":1867:1933   */\n      tag_54\n      jump\t// in\n    tag_86:\n        /* \"#utility.yul\":1858:1933   */\n      swap1\n      pop\n        /* \"#utility.yul\":1956:1962   */\n      dup3\n        /* \"#utility.yul\":1949:1954   */\n      dup2\n        /* \"#utility.yul\":1942:1963   */\n      mstore\n        /* \"#utility.yul\":1994:1998   */\n      0x20\n        /* \"#utility.yul\":1987:1992   */\n      dup2\n        /* \"#utility.yul\":1983:1999   */\n      add\n        /* \"#utility.yul\":2032:2035   */\n      dup5\n        /* \"#utility.yul\":2023:2029   */\n      dup5\n        /* \"#utility.yul\":2018:2021   */\n      dup5\n        /* \"#utility.yul\":2014:2030   */\n      add\n        /* \"#utility.yul\":2011:2036   */\n      gt\n        /* \"#utility.yul\":2008:2120   */\n      iszero\n      tag_88\n      jumpi\n        /* \"#utility.yul\":2039:2118   */\n      tag_89\n      tag_50\n      jump\t// in\n    tag_89:\n        /* \"#utility.yul\":2008:2120   */\n    tag_88:\n        /* \"#utility.yul\":2129:2183   */\n      tag_90\n        /* \"#utility.yul\":2176:2182   */\n      dup5\n        /* \"#utility.yul\":2171:2174   */\n      dup3\n        /* \"#utility.yul\":2166:2169   */\n      dup6\n        /* \"#utility.yul\":2129:2183   */\n      tag_56\n      jump\t// in\n    tag_90:\n        /* \"#utility.yul\":1848:2189   */\n      pop\n        /* \"#utility.yul\":1764:2189   */\n      swap4\n      swap3\n      pop\n      pop\n      pop\n      jump\t// out\n        /* \"#utility.yul\":2209:2549   */\n    tag_58:\n        /* \"#utility.yul\":2265:2270   */\n      0x00\n        /* \"#utility.yul\":2314:2317   */\n      dup3\n        /* \"#utility.yul\":2307:2311   */\n      0x1f\n        /* \"#utility.yul\":2299:2305   */\n      dup4\n        /* \"#utility.yul\":2295:2312   */\n      add\n        /* \"#utility.yul\":2291:2318   */\n      slt\n        /* \"#utility.yul\":2281:2403   */\n      tag_92\n      jumpi\n        /* \"#utility.yul\":2322:2401   */\n      tag_93\n      tag_49\n      jump\t// in\n    tag_93:\n        /* \"#utility.yul\":2281:2403   */\n    tag_92:\n        /* \"#utility.yul\":2439:2445   */\n      dup2\n        /* \"#utility.yul\":2426:2446   */\n      calldataload\n        /* \"#utility.yul\":2464:2543   */\n      tag_94\n        /* \"#utility.yul\":2539:2542   */\n      dup5\n        /* \"#utility.yul\":2531:2537   */\n      dup3\n        /* \"#utility.yul\":2524:2528   */\n      0x20\n        /* \"#utility.yul\":2516:2522   */\n      dup7\n        /* \"#utility.yul\":2512:2529   */\n      add\n        /* \"#utility.yul\":2464:2543   */\n      tag_57\n      jump\t// in\n    tag_94:\n        /* \"#utility.yul\":2455:2543   */\n      swap2\n      pop\n        /* \"#utility.yul\":2271:2549   */\n      pop\n        /* \"#utility.yul\":2209:2549   */\n      swap3\n      swap2\n      pop\n      pop\n      jump\t// out\n        /* \"#utility.yul\":2555:3064   */\n    tag_6:\n        /* \"#utility.yul\":2624:2630   */\n      0x00\n        /* \"#utility.yul\":2673:2675   */\n      0x20\n        /* \"#utility.yul\":2661:2670   */\n      dup3\n        /* \"#utility.yul\":2652:2659   */\n      dup5\n        /* \"#utility.yul\":2648:2671   */\n      sub\n        /* \"#utility.yul\":2644:2676   */\n      slt\n        /* \"#utility.yul\":2641:2760   */\n      iszero\n      tag_96\n      jumpi\n        /* \"#utility.yul\":2679:2758   */\n      tag_97\n      tag_47\n      jump\t// in\n    tag_97:\n        /* \"#utility.yul\":2641:2760   */\n    tag_96:\n        /* \"#utility.yul\":2827:2828   */\n      0x00\n        /* \"#utility.yul\":2816:2825   */\n      dup3\n        /* \"#utility.yul\":2812:2829   */\n      add\n        /* \"#utility.yul\":2799:2830   */\n      calldataload\n        /* \"#utility.yul\":2857:2875   */\n      0xffffffffffffffff\n        /* \"#utility.yul\":2849:2855   */\n      dup2\n        /* \"#utility.yul\":2846:2876   */\n      gt\n        /* \"#utility.yul\":2843:2960   */\n      iszero\n      tag_98\n      jumpi\n        /* \"#utility.yul\":2879:2958   */\n      tag_99\n      tag_48\n      jump\t// in\n    tag_99:\n        /* \"#utility.yul\":2843:2960   */\n    tag_98:\n        /* \"#utility.yul\":2984:3047   */\n      tag_100\n        /* \"#utility.yul\":3039:3046   */\n      dup5\n        /* \"#utility.yul\":3030:3036   */\n      dup3\n        /* \"#utility.yul\":3019:3028   */\n      dup6\n        /* \"#utility.yul\":3015:3037   */\n      add\n        /* \"#utility.yul\":2984:3047   */\n      tag_58\n      jump\t// in\n    tag_100:\n        /* \"#utility.yul\":2974:3047   */\n      swap2\n      pop\n        /* \"#utility.yul\":2770:3057   */\n      pop\n        /* \"#utility.yul\":2555:3064   */\n      swap3\n      swap2\n      pop\n      pop\n      jump\t// out\n        /* \"#utility.yul\":3070:3147   */\n    tag_59:\n        /* \"#utility.yul\":3107:3114   */\n      0x00\n        /* \"#utility.yul\":3136:3141   */\n      dup2\n        /* \"#utility.yul\":3125:3141   */\n      swap1\n      pop\n        /* \"#utility.yul\":3070:3147   */\n      swap2\n      swap1\n      pop\n      jump\t// out\n        /* \"#utility.yul\":3153:3271   */\n    tag_60:\n        /* \"#utility.yul\":3240:3264   */\n      tag_103\n        /* \"#utility.yul\":3258:3263   */\n      dup2\n        /* \"#utility.yul\":3240:3264   */\n      tag_59\n      jump\t// in\n    tag_103:\n        /* \"#utility.yul\":3235:3238   */\n      dup3\n        /* \"#utility.yul\":3228:3265   */\n      mstore\n        /* \"#utility.yul\":3153:3271   */\n      pop\n      pop\n      jump\t// out\n        /* \"#utility.yul\":3277:3499   */\n    tag_9:\n        /* \"#utility.yul\":3370:3374   */\n      0x00\n        /* \"#utility.yul\":3408:3410   */\n      0x20\n        /* \"#utility.yul\":3397:3406   */\n      dup3\n        /* \"#utility.yul\":3393:3411   */\n      add\n        /* \"#utility.yul\":3385:3411   */\n      swap1\n      pop\n        /* \"#utility.yul\":3421:3492   */\n      tag_105\n        /* \"#utility.yul\":3489:3490   */\n      0x00\n        /* \"#utility.yul\":3478:3487   */\n      dup4\n        /* \"#utility.yul\":3474:3491   */\n      add\n        /* \"#utility.yul\":3465:3471   */\n      dup5\n        /* \"#utility.yul\":3421:3492   */\n      tag_60\n      jump\t// in\n    tag_105:\n        /* \"#utility.yul\":3277:3499   */\n      swap3\n      swap2\n      pop\n      pop\n      jump\t// out\n        /* \"#utility.yul\":3505:3685   */\n    tag_61:\n        /* \"#utility.yul\":3553:3630   */\n      0x4e487b7100000000000000000000000000000000000000000000000000000000\n        /* \"#utility.yul\":3550:3551   */\n      0x00\n        /* \"#utility.yul\":3543:3631   */\n      mstore\n        /* \"#utility.yul\":3650:3654   */\n      0x11\n        /* \"#utility.yul\":3647:3648   */\n      0x04\n        /* \"#utility.yul\":3640:3655   */\n      mstore\n        /* \"#utility.yul\":3674:3678   */\n      0x24\n        /* \"#utility.yul\":3671:3672   */\n      0x00\n        /* \"#utility.yul\":3664:3679   */\n      revert\n        /* \"#utility.yul\":3691:3885   */\n    tag_16:\n        /* \"#utility.yul\":3731:3735   */\n      0x00\n        /* \"#utility.yul\":3751:3771   */\n      tag_108\n        /* \"#utility.yul\":3769:3770   */\n      dup3\n        /* \"#utility.yul\":3751:3771   */\n      tag_59\n      jump\t// in\n    tag_108:\n        /* \"#utility.yul\":3746:3771   */\n      swap2\n      pop\n        /* \"#utility.yul\":3785:3805   */\n      tag_109\n        /* \"#utility.yul\":3803:3804   */\n      dup4\n        /* \"#utility.yul\":3785:3805   */\n      tag_59\n      jump\t// in\n    tag_109:\n        /* \"#utility.yul\":3780:3805   */\n      swap3\n      pop\n        /* \"#utility.yul\":3829:3830   */\n      dup3\n        /* \"#utility.yul\":3826:3827   */\n      dup3\n        /* \"#utility.yul\":3822:3831   */\n      sub\n        /* \"#utility.yul\":3814:3831   */\n      swap1\n      pop\n        /* \"#utility.yul\":3853:3854   */\n      dup2\n        /* \"#utility.yul\":3847:3851   */\n      dup2\n        /* \"#utility.yul\":3844:3855   */\n      gt\n        /* \"#utility.yul\":3841:3878   */\n      iszero\n      tag_110\n      jumpi\n        /* \"#utility.yul\":3858:3876   */\n      tag_111\n      tag_61\n      jump\t// in\n    tag_111:\n        /* \"#utility.yul\":3841:3878   */\n    tag_110:\n        /* \"#utility.yul\":3691:3885   */\n      swap3\n      swap2\n      pop\n      pop\n      jump\t// out\n        /* \"#utility.yul\":3891:4071   */\n    tag_20:\n        /* \"#utility.yul\":3939:4016   */\n      0x4e487b7100000000000000000000000000000000000000000000000000000000\n        /* \"#utility.yul\":3936:3937   */\n      0x00\n        /* \"#utility.yul\":3929:4017   */\n      mstore\n        /* \"#utility.yul\":4036:4040   */\n      0x32\n        /* \"#utility.yul\":4033:4034   */\n      0x04\n        /* \"#utility.yul\":4026:4041   */\n      mstore\n        /* \"#utility.yul\":4060:4064   */\n      0x24\n        /* \"#utility.yul\":4057:4058   */\n      0x00\n        /* \"#utility.yul\":4050:4065   */\n      revert\n        /* \"#utility.yul\":4077:4268   */\n    tag_24:\n        /* \"#utility.yul\":4117:4120   */\n      0x00\n        /* \"#utility.yul\":4136:4156   */\n      tag_114\n        /* \"#utility.yul\":4154:4155   */\n      dup3\n        /* \"#utility.yul\":4136:4156   */\n      tag_59\n      jump\t// in\n    tag_114:\n        /* \"#utility.yul\":4131:4156   */\n      swap2\n      pop\n        /* \"#utility.yul\":4170:4190   */\n      tag_115\n        /* \"#utility.yul\":4188:4189   */\n      dup4\n        /* \"#utility.yul\":4170:4190   */\n      tag_59\n      jump\t// in\n    tag_115:\n        /* \"#utility.yul\":4165:4190   */\n      swap3\n      pop\n        /* \"#utility.yul\":4213:4214   */\n      dup3\n        /* \"#utility.yul\":4210:4211   */\n      dup3\n        /* \"#utility.yul\":4206:4215   */\n      add\n        /* \"#utility.yul\":4199:4215   */\n      swap1\n      pop\n        /* \"#utility.yul\":4234:4237   */\n      dup1\n        /* \"#utility.yul\":4231:4232   */\n      dup3\n        /* \"#utility.yul\":4228:4238   */\n      gt\n        /* \"#utility.yul\":4225:4261   */\n      iszero\n      tag_116\n      jumpi\n        /* \"#utility.yul\":4241:4259   */\n      tag_117\n      tag_61\n      jump\t// in\n    tag_117:\n        /* \"#utility.yul\":4225:4261   */\n    tag_116:\n        /* \"#utility.yul\":4077:4268   */\n      swap3\n      swap2\n      pop\n      pop\n      jump\t// out\n        /* \"#utility.yul\":4274:4443   */\n    tag_62:\n        /* \"#utility.yul\":4358:4369   */\n      0x00\n        /* \"#utility.yul\":4392:4398   */\n      dup3\n        /* \"#utility.yul\":4387:4390   */\n      dup3\n        /* \"#utility.yul\":4380:4399   */\n      mstore\n        /* \"#utility.yul\":4432:4436   */\n      0x20\n        /* \"#utility.yul\":4427:4430   */\n      dup3\n        /* \"#utility.yul\":4423:4437   */\n      add\n        /* \"#utility.yul\":4408:4437   */\n      swap1\n      pop\n        /* \"#utility.yul\":4274:4443   */\n      swap3\n      swap2\n      pop\n      pop\n      jump\t// out\n        /* \"#utility.yul\":4449:4617   */\n    tag_63:\n        /* \"#utility.yul\":4589:4609   */\n      0x496e76616c696420726f6d616e20636861720000000000000000000000000000\n        /* \"#utility.yul\":4585:4586   */\n      0x00\n        /* \"#utility.yul\":4577:4583   */\n      dup3\n        /* \"#utility.yul\":4573:4587   */\n      add\n        /* \"#utility.yul\":4566:4610   */\n      mstore\n        /* \"#utility.yul\":4449:4617   */\n      pop\n      jump\t// out\n        /* \"#utility.yul\":4623:4989   */\n    tag_64:\n        /* \"#utility.yul\":4765:4768   */\n      0x00\n        /* \"#utility.yul\":4786:4853   */\n      tag_121\n        /* \"#utility.yul\":4850:4852   */\n      0x12\n        /* \"#utility.yul\":4845:4848   */\n      dup4\n        /* \"#utility.yul\":4786:4853   */\n      tag_62\n      jump\t// in\n    tag_121:\n        /* \"#utility.yul\":4779:4853   */\n      swap2\n      pop\n        /* \"#utility.yul\":4862:4955   */\n      tag_122\n        /* \"#utility.yul\":4951:4954   */\n      dup3\n        /* \"#utility.yul\":4862:4955   */\n      tag_63\n      jump\t// in\n    tag_122:\n        /* \"#utility.yul\":4980:4982   */\n      0x20\n        /* \"#utility.yul\":4975:4978   */\n      dup3\n        /* \"#utility.yul\":4971:4983   */\n      add\n        /* \"#utility.yul\":4964:4983   */\n      swap1\n      pop\n        /* \"#utility.yul\":4623:4989   */\n      swap2\n      swap1\n      pop\n      jump\t// out\n        /* \"#utility.yul\":4995:5414   */\n    tag_45:\n        /* \"#utility.yul\":5161:5165   */\n      0x00\n        /* \"#utility.yul\":5199:5201   */\n      0x20\n        /* \"#utility.yul\":5188:5197   */\n      dup3\n        /* \"#utility.yul\":5184:5202   */\n      add\n        /* \"#utility.yul\":5176:5202   */\n      swap1\n      pop\n        /* \"#utility.yul\":5248:5257   */\n      dup2\n        /* \"#utility.yul\":5242:5246   */\n      dup2\n        /* \"#utility.yul\":5238:5258   */\n      sub\n        /* \"#utility.yul\":5234:5235   */\n      0x00\n        /* \"#utility.yul\":5223:5232   */\n      dup4\n        /* \"#utility.yul\":5219:5236   */\n      add\n        /* \"#utility.yul\":5212:5259   */\n      mstore\n        /* \"#utility.yul\":5276:5407   */\n      tag_124\n        /* \"#utility.yul\":5402:5406   */\n      dup2\n        /* \"#utility.yul\":5276:5407   */\n      tag_64\n      jump\t// in\n    tag_124:\n        /* \"#utility.yul\":5268:5407   */\n      swap1\n      pop\n        /* \"#utility.yul\":4995:5414   */\n      swap2\n      swap1\n      pop\n      jump\t// out\n\n    auxdata: 0xa264697066735822122074eb73c14472eac2fd58db09ca8a4fb7de852834a879293ada7f475a90357e4564736f6c634300081e0033\n}\n",
				"bytecode": {
					"linkReferences": {},
					"object": "6080604052348015600e575f5ffd5b506107238061001c5f395ff3fe608060405234801561000f575f5ffd5b5060043610610029575f3560e01c8063cb159dfe1461002d575b5f5ffd5b6100476004803603810190610042919061053d565b61005d565b604051610054919061059c565b60405180910390f35b5f5f825190505f8103610073575f91505061016a565b5f8390505f5f90505b60018361008991906105e2565b811015610127575f6100b78383815181106100a7576100a6610615565b5b602001015160f81c60f81b61016f565b90505f6100ec846001856100cb9190610642565b815181106100dc576100db610615565b5b602001015160f81c60f81b61016f565b90508082106101095781866101019190610642565b955085610119565b818661011591906105e2565b9550855b50505080600101905061007c565b5061015a8160018461013991906105e2565b8151811061014a57610149610615565b5b602001015160f81c60f81b61016f565b836101659190610642565b925050505b919050565b5f7f4900000000000000000000000000000000000000000000000000000000000000827effffffffffffffffffffffffffffffffffffffffffffffffffffffffffffff1916036101c257600190506103eb565b7f5600000000000000000000000000000000000000000000000000000000000000827effffffffffffffffffffffffffffffffffffffffffffffffffffffffffffff19160361021457600590506103eb565b7f5800000000000000000000000000000000000000000000000000000000000000827effffffffffffffffffffffffffffffffffffffffffffffffffffffffffffff19160361026657600a90506103eb565b7f4c00000000000000000000000000000000000000000000000000000000000000827effffffffffffffffffffffffffffffffffffffffffffffffffffffffffffff1916036102b857603290506103eb565b7f4300000000000000000000000000000000000000000000000000000000000000827effffffffffffffffffffffffffffffffffffffffffffffffffffffffffffff19160361030a57606490506103eb565b7f4400000000000000000000000000000000000000000000000000000000000000827effffffffffffffffffffffffffffffffffffffffffffffffffffffffffffff19160361035d576101f490506103eb565b7f4d00000000000000000000000000000000000000000000000000000000000000827effffffffffffffffffffffffffffffffffffffffffffffffffffffffffffff1916036103b0576103e890506103eb565b6040517f08c379a00000000000000000000000000000000000000000000000000000000081526004016103e2906106cf565b60405180910390fd5b919050565b5f604051905090565b5f5ffd5b5f5ffd5b5f5ffd5b5f5ffd5b5f601f19601f8301169050919050565b7f4e487b71000000000000000000000000000000000000000000000000000000005f52604160045260245ffd5b61044f82610409565b810181811067ffffffffffffffff8211171561046e5761046d610419565b5b80604052505050565b5f6104806103f0565b905061048c8282610446565b919050565b5f67ffffffffffffffff8211156104ab576104aa610419565b5b6104b482610409565b9050602081019050919050565b828183375f83830152505050565b5f6104e16104dc84610491565b610477565b9050828152602081018484840111156104fd576104fc610405565b5b6105088482856104c1565b509392505050565b5f82601f83011261052457610523610401565b5b81356105348482602086016104cf565b91505092915050565b5f60208284031215610552576105516103f9565b5b5f82013567ffffffffffffffff81111561056f5761056e6103fd565b5b61057b84828501610510565b91505092915050565b5f819050919050565b61059681610584565b82525050565b5f6020820190506105af5f83018461058d565b92915050565b7f4e487b71000000000000000000000000000000000000000000000000000000005f52601160045260245ffd5b5f6105ec82610584565b91506105f783610584565b925082820390508181111561060f5761060e6105b5565b5b92915050565b7f4e487b71000000000000000000000000000000000000000000000000000000005f52603260045260245ffd5b5f61064c82610584565b915061065783610584565b925082820190508082111561066f5761066e6105b5565b5b92915050565b5f82825260208201905092915050565b7f496e76616c696420726f6d616e206368617200000000000000000000000000005f82015250565b5f6106b9601283610675565b91506106c482610685565b602082019050919050565b5f6020820190508181035f8301526106e6816106ad565b905091905056fea264697066735822122074eb73c14472eac2fd58db09ca8a4fb7de852834a879293ada7f475a90357e4564736f6c634300081e0033",
					"opcodes": "PUSH1 0x80 PUSH1 0x40 MSTORE CALLVALUE DUP1 ISZERO PUSH1 0xE JUMPI PUSH0 PUSH0 REVERT JUMPDEST POP PUSH2 0x723 DUP1 PUSH2 0x1C PUSH0 CODECOPY PUSH0 RETURN INVALID PUSH1 0x80 PUSH1 0x40 MSTORE CALLVALUE DUP1 ISZERO PUSH2 0xF JUMPI PUSH0 PUSH0 REVERT JUMPDEST POP PUSH1 0x4 CALLDATASIZE LT PUSH2 0x29 JUMPI PUSH0 CALLDATALOAD PUSH1 0xE0 SHR DUP1 PUSH4 0xCB159DFE EQ PUSH2 0x2D JUMPI JUMPDEST PUSH0 PUSH0 REVERT JUMPDEST PUSH2 0x47 PUSH1 0x4 DUP1 CALLDATASIZE SUB DUP2 ADD SWAP1 PUSH2 0x42 SWAP2 SWAP1 PUSH2 0x53D JUMP JUMPDEST PUSH2 0x5D JUMP JUMPDEST PUSH1 0x40 MLOAD PUSH2 0x54 SWAP2 SWAP1 PUSH2 0x59C JUMP JUMPDEST PUSH1 0x40 MLOAD DUP1 SWAP2 SUB SWAP1 RETURN JUMPDEST PUSH0 PUSH0 DUP3 MLOAD SWAP1 POP PUSH0 DUP2 SUB PUSH2 0x73 JUMPI PUSH0 SWAP2 POP POP PUSH2 0x16A JUMP JUMPDEST PUSH0 DUP4 SWAP1 POP PUSH0 PUSH0 SWAP1 POP JUMPDEST PUSH1 0x1 DUP4 PUSH2 0x89 SWAP2 SWAP1 PUSH2 0x5E2 JUMP JUMPDEST DUP2 LT ISZERO PUSH2 0x127 JUMPI PUSH0 PUSH2 0xB7 DUP4 DUP4 DUP2 MLOAD DUP2 LT PUSH2 0xA7 JUMPI PUSH2 0xA6 PUSH2 0x615 JUMP JUMPDEST JUMPDEST PUSH1 0x20 ADD ADD MLOAD PUSH1 0xF8 SHR PUSH1 0xF8 SHL PUSH2 0x16F JUMP JUMPDEST SWAP1 POP PUSH0 PUSH2 0xEC DUP5 PUSH1 0x1 DUP6 PUSH2 0xCB SWAP2 SWAP1 PUSH2 0x642 JUMP JUMPDEST DUP2 MLOAD DUP2 LT PUSH2 0xDC JUMPI PUSH2 0xDB PUSH2 0x615 JUMP JUMPDEST JUMPDEST PUSH1 0x20 ADD ADD MLOAD PUSH1 0xF8 SHR PUSH1 0xF8 SHL PUSH2 0x16F JUMP JUMPDEST SWAP1 POP DUP1 DUP3 LT PUSH2 0x109 JUMPI DUP2 DUP7 PUSH2 0x101 SWAP2 SWAP1 PUSH2 0x642 JUMP JUMPDEST SWAP6 POP DUP6 PUSH2 0x119 JUMP JUMPDEST DUP2 DUP7 PUSH2 0x115 SWAP2 SWAP1 PUSH2 0x5E2 JUMP JUMPDEST SWAP6 POP DUP6 JUMPDEST POP POP POP DUP1 PUSH1 0x1 ADD SWAP1 POP PUSH2 0x7C JUMP JUMPDEST POP PUSH2 0x15A DUP2 PUSH1 0x1 DUP5 PUSH2 0x139 SWAP2 SWAP1 PUSH2 0x5E2 JUMP JUMPDEST DUP2 MLOAD DUP2 LT PUSH2 0x14A JUMPI PUSH2 0x149 PUSH2 0x615 JUMP JUMPDEST JUMPDEST PUSH1 0x20 ADD ADD MLOAD PUSH1 0xF8 SHR PUSH1 0xF8 SHL PUSH2 0x16F JUMP JUMPDEST DUP4 PUSH2 0x165 SWAP2 SWAP1 PUSH2 0x642 JUMP JUMPDEST SWAP3 POP POP POP JUMPDEST SWAP2 SWAP1 POP JUMP JUMPDEST PUSH0 PUSH32 0x4900000000000000000000000000000000000000000000000000000000000000 DUP3 PUSH31 0xFFFFFFFFFFFFFFFFFFFFFFFFFFFFFFFFFFFFFFFFFFFFFFFFFFFFFFFFFFFFFF NOT AND SUB PUSH2 0x1C2 JUMPI PUSH1 0x1 SWAP1 POP PUSH2 0x3EB JUMP JUMPDEST PUSH32 0x5600000000000000000000000000000000000000000000000000000000000000 DUP3 PUSH31 0xFFFFFFFFFFFFFFFFFFFFFFFFFFFFFFFFFFFFFFFFFFFFFFFFFFFFFFFFFFFFFF NOT AND SUB PUSH2 0x214 JUMPI PUSH1 0x5 SWAP1 POP PUSH2 0x3EB JUMP JUMPDEST PUSH32 0x5800000000000000000000000000000000000000000000000000000000000000 DUP3 PUSH31 0xFFFFFFFFFFFFFFFFFFFFFFFFFFFFFFFFFFFFFFFFFFFFFFFFFFFFFFFFFFFFFF NOT AND SUB PUSH2 0x266 JUMPI PUSH1 0xA SWAP1 POP PUSH2 0x3EB JUMP JUMPDEST PUSH32 0x4C00000000000000000000000000000000000000000000000000000000000000 DUP3 PUSH31 0xFFFFFFFFFFFFFFFFFFFFFFFFFFFFFFFFFFFFFFFFFFFFFFFFFFFFFFFFFFFFFF NOT AND SUB PUSH2 0x2B8 JUMPI PUSH1 0x32 SWAP1 POP PUSH2 0x3EB JUMP JUMPDEST PUSH32 0x4300000000000000000000000000000000000000000000000000000000000000 DUP3 PUSH31 0xFFFFFFFFFFFFFFFFFFFFFFFFFFFFFFFFFFFFFFFFFFFFFFFFFFFFFFFFFFFFFF NOT AND SUB PUSH2 0x30A JUMPI PUSH1 0x64 SWAP1 POP PUSH2 0x3EB JUMP JUMPDEST PUSH32 0x4400000000000000000000000000000000000000000000000000000000000000 DUP3 PUSH31 0xFFFFFFFFFFFFFFFFFFFFFFFFFFFFFFFFFFFFFFFFFFFFFFFFFFFFFFFFFFFFFF NOT AND SUB PUSH2 0x35D JUMPI PUSH2 0x1F4 SWAP1 POP PUSH2 0x3EB JUMP JUMPDEST PUSH32 0x4D00000000000000000000000000000000000000000000000000000000000000 DUP3 PUSH31 0xFFFFFFFFFFFFFFFFFFFFFFFFFFFFFFFFFFFFFFFFFFFFFFFFFFFFFFFFFFFFFF NOT AND SUB PUSH2 0x3B0 JUMPI PUSH2 0x3E8 SWAP1 POP PUSH2 0x3EB JUMP JUMPDEST PUSH1 0x40 MLOAD PUSH32 0x8C379A000000000000000000000000000000000000000000000000000000000 DUP2 MSTORE PUSH1 0x4 ADD PUSH2 0x3E2 SWAP1 PUSH2 0x6CF JUMP JUMPDEST PUSH1 0x40 MLOAD DUP1 SWAP2 SUB SWAP1 REVERT JUMPDEST SWAP2 SWAP1 POP JUMP JUMPDEST PUSH0 PUSH1 0x40 MLOAD SWAP1 POP SWAP1 JUMP JUMPDEST PUSH0 PUSH0 REVERT JUMPDEST PUSH0 PUSH0 REVERT JUMPDEST PUSH0 PUSH0 REVERT JUMPDEST PUSH0 PUSH0 REVERT JUMPDEST PUSH0 PUSH1 0x1F NOT PUSH1 0x1F DUP4 ADD AND SWAP1 POP SWAP2 SWAP1 POP JUMP JUMPDEST PUSH32 0x4E487B7100000000000000000000000000000000000000000000000000000000 PUSH0 MSTORE PUSH1 0x41 PUSH1 0x4 MSTORE PUSH1 0x24 PUSH0 REVERT JUMPDEST PUSH2 0x44F DUP3 PUSH2 0x409 JUMP JUMPDEST DUP2 ADD DUP2 DUP2 LT PUSH8 0xFFFFFFFFFFFFFFFF DUP3 GT OR ISZERO PUSH2 0x46E JUMPI PUSH2 0x46D PUSH2 0x419 JUMP JUMPDEST JUMPDEST DUP1 PUSH1 0x40 MSTORE POP POP POP JUMP JUMPDEST PUSH0 PUSH2 0x480 PUSH2 0x3F0 JUMP JUMPDEST SWAP1 POP PUSH2 0x48C DUP3 DUP3 PUSH2 0x446 JUMP JUMPDEST SWAP2 SWAP1 POP JUMP JUMPDEST PUSH0 PUSH8 0xFFFFFFFFFFFFFFFF DUP3 GT ISZERO PUSH2 0x4AB JUMPI PUSH2 0x4AA PUSH2 0x419 JUMP JUMPDEST JUMPDEST PUSH2 0x4B4 DUP3 PUSH2 0x409 JUMP JUMPDEST SWAP1 POP PUSH1 0x20 DUP2 ADD SWAP1 POP SWAP2 SWAP1 POP JUMP JUMPDEST DUP3 DUP2 DUP4 CALLDATACOPY PUSH0 DUP4 DUP4 ADD MSTORE POP POP POP JUMP JUMPDEST PUSH0 PUSH2 0x4E1 PUSH2 0x4DC DUP5 PUSH2 0x491 JUMP JUMPDEST PUSH2 0x477 JUMP JUMPDEST SWAP1 POP DUP3 DUP2 MSTORE PUSH1 0x20 DUP2 ADD DUP5 DUP5 DUP5 ADD GT ISZERO PUSH2 0x4FD JUMPI PUSH2 0x4FC PUSH2 0x405 JUMP JUMPDEST JUMPDEST PUSH2 0x508 DUP5 DUP3 DUP6 PUSH2 0x4C1 JUMP JUMPDEST POP SWAP4 SWAP3 POP POP POP JUMP JUMPDEST PUSH0 DUP3 PUSH1 0x1F DUP4 ADD SLT PUSH2 0x524 JUMPI PUSH2 0x523 PUSH2 0x401 JUMP JUMPDEST JUMPDEST DUP2 CALLDATALOAD PUSH2 0x534 DUP5 DUP3 PUSH1 0x20 DUP7 ADD PUSH2 0x4CF JUMP JUMPDEST SWAP2 POP POP SWAP3 SWAP2 POP POP JUMP JUMPDEST PUSH0 PUSH1 0x20 DUP3 DUP5 SUB SLT ISZERO PUSH2 0x552 JUMPI PUSH2 0x551 PUSH2 0x3F9 JUMP JUMPDEST JUMPDEST PUSH0 DUP3 ADD CALLDATALOAD PUSH8 0xFFFFFFFFFFFFFFFF DUP2 GT ISZERO PUSH2 0x56F JUMPI PUSH2 0x56E PUSH2 0x3FD JUMP JUMPDEST JUMPDEST PUSH2 0x57B DUP5 DUP3 DUP6 ADD PUSH2 0x510 JUMP JUMPDEST SWAP2 POP POP SWAP3 SWAP2 POP POP JUMP JUMPDEST PUSH0 DUP2 SWAP1 POP SWAP2 SWAP1 POP JUMP JUMPDEST PUSH2 0x596 DUP2 PUSH2 0x584 JUMP JUMPDEST DUP3 MSTORE POP POP JUMP JUMPDEST PUSH0 PUSH1 0x20 DUP3 ADD SWAP1 POP PUSH2 0x5AF PUSH0 DUP4 ADD DUP5 PUSH2 0x58D JUMP JUMPDEST SWAP3 SWAP2 POP POP JUMP JUMPDEST PUSH32 0x4E487B7100000000000000000000000000000000000000000000000000000000 PUSH0 MSTORE PUSH1 0x11 PUSH1 0x4 MSTORE PUSH1 0x24 PUSH0 REVERT JUMPDEST PUSH0 PUSH2 0x5EC DUP3 PUSH2 0x584 JUMP JUMPDEST SWAP2 POP PUSH2 0x5F7 DUP4 PUSH2 0x584 JUMP JUMPDEST SWAP3 POP DUP3 DUP3 SUB SWAP1 POP DUP2 DUP2 GT ISZERO PUSH2 0x60F JUMPI PUSH2 0x60E PUSH2 0x5B5 JUMP JUMPDEST JUMPDEST SWAP3 SWAP2 POP POP JUMP JUMPDEST PUSH32 0x4E487B7100000000000000000000000000000000000000000000000000000000 PUSH0 MSTORE PUSH1 0x32 PUSH1 0x4 MSTORE PUSH1 0x24 PUSH0 REVERT JUMPDEST PUSH0 PUSH2 0x64C DUP3 PUSH2 0x584 JUMP JUMPDEST SWAP2 POP PUSH2 0x657 DUP4 PUSH2 0x584 JUMP JUMPDEST SWAP3 POP DUP3 DUP3 ADD SWAP1 POP DUP1 DUP3 GT ISZERO PUSH2 0x66F JUMPI PUSH2 0x66E PUSH2 0x5B5 JUMP JUMPDEST JUMPDEST SWAP3 SWAP2 POP POP JUMP JUMPDEST PUSH0 DUP3 DUP3 MSTORE PUSH1 0x20 DUP3 ADD SWAP1 POP SWAP3 SWAP2 POP POP JUMP JUMPDEST PUSH32 0x496E76616C696420726F6D616E20636861720000000000000000000000000000 PUSH0 DUP3 ADD MSTORE POP JUMP JUMPDEST PUSH0 PUSH2 0x6B9 PUSH1 0x12 DUP4 PUSH2 0x675 JUMP JUMPDEST SWAP2 POP PUSH2 0x6C4 DUP3 PUSH2 0x685 JUMP JUMPDEST PUSH1 0x20 DUP3 ADD SWAP1 POP SWAP2 SWAP1 POP JUMP JUMPDEST PUSH0 PUSH1 0x20 DUP3 ADD SWAP1 POP DUP2 DUP2 SUB PUSH0 DUP4 ADD MSTORE PUSH2 0x6E6 DUP2 PUSH2 0x6AD JUMP JUMPDEST SWAP1 POP SWAP2 SWAP1 POP JUMP INVALID LOG2 PUSH5 0x6970667358 0x22 SLT KECCAK256 PUSH21 0xEB73C14472EAC2FD58DB09CA8A4FB7DE852834A879 0x29 GASPRICE 0xDA PUSH32 0x475A90357E4564736F6C634300081E0033000000000000000000000000000000 "
				},
				"gasEstimates": {
					"creation": {
						"codeDepositCost": "365400",
						"executionCost": "403",
						"totalCost": "365803"
					},
					"external": {
						"romanToInt(string)": "infinite"
					},
					"internal": {
						"_val(bytes1)": "infinite"
					}
				},
				"methodIdentifiers": {
					"romanToInt(string)": "cb159dfe"
				}
			},
			"storageLayout": {
				"storage": [],
				"types": null
			},
			"userdoc": {
				"kind": "user",
				"methods": {},
				"version": 1
			}
		}
	}
}