{
	"task1/Voting.sol": {
		"Voting": {
			"abi": [
				{
					"anonymous": false,
					"inputs": [
						{
							"indexed": true,
							"internalType": "string",
							"name": "candidate",
							"type": "string"
						},
						{
							"indexed": true,
							"internalType": "address",
							"name": "voter",
							"type": "address"
						}
					],
					"name": "VoteCast",
					"type": "event"
				},
				{
					"inputs": [
						{
							"internalType": "uint256",
							"name": "index",
							"type": "uint256"
						}
					],
					"name": "getCandidateByIndex",
					"outputs": [
						{
							"internalType": "string",
							"name": "",
							"type": "string"
						}
					],
					"stateMutability": "view",
					"type": "function"
				},
				{
					"inputs": [],
					"name": "getCandidateCount",
					"outputs": [
						{
							"internalType": "uint256",
							"name": "",
							"type": "uint256"
						}
					],
					"stateMutability": "view",
					"type": "function"
				},
				{
					"inputs": [],
					"name": "getTotalVotes",
					"outputs": [
						{
							"internalType": "uint256",
							"name": "totalVotes",
							"type": "uint256"
						}
					],
					"stateMutability": "view",
					"type": "function"
				},
				{
					"inputs": [
						{
							"internalType": "string",
							"name": "candidate",
							"type": "string"
						}
					],
					"name": "getVotes",
					"outputs": [
						{
							"internalType": "uint256",
							"name": "",
							"type": "uint256"
						}
					],
					"stateMutability": "view",
					"type": "function"
				},
				{
					"inputs": [],
					"name": "resetVotes",
					"outputs": [],
					"stateMutability": "nonpayable",
					"type": "function"
				},
				{
					"inputs": [
						{
							"internalType": "string",
							"name": "candidate",
							"type": "string"
						}
					],
					"name": "vote",
					"outputs": [],
					"stateMutability": "nonpayable",
					"type": "function"
				},
				{
					"inputs": [
						{
							"internalType": "string",
							"name": "",
							"type": "string"
						}
					],
					"name": "votesReceived",
					"outputs": [
						{
							"internalType": "uint256",
							"name": "",
							"type": "uint256"
						}
					],
					"stateMutability": "view",
					"type": "function"
				}
			],
			"devdoc": {
				"kind": "dev",
				"methods": {},
				"version": 1
			},
			"evm": {
				"assembly": "    /* \"task1/Voting.sol\":57:1733  contract Voting {... */\n  mstore(0x40, 0x80)\n  callvalue\n  dup1\n  iszero\n  tag_1\n  jumpi\n  revert(0x00, 0x00)\ntag_1:\n  pop\n  dataSize(sub_0)\n  dup1\n  dataOffset(sub_0)\n  0x00\n  codecopy\n  0x00\n  return\nstop\n\nsub_0: assembly {\n        /* \"task1/Voting.sol\":57:1733  contract Voting {... */\n      mstore(0x40, 0x80)\n      callvalue\n      dup1\n      iszero\n      tag_1\n      jumpi\n      revert(0x00, 0x00)\n    tag_1:\n      pop\n      jumpi(tag_2, lt(calldatasize, 0x04))\n      shr(0xe0, calldataload(0x00))\n      dup1\n      0x9a0e7d66\n      gt\n      tag_10\n      jumpi\n      dup1\n      0x9a0e7d66\n      eq\n      tag_6\n      jumpi\n      dup1\n      0xab172cf5\n      eq\n      tag_7\n      jumpi\n      dup1\n      0xb9830ff1\n      eq\n      tag_8\n      jumpi\n      dup1\n      0xfc36e15b\n      eq\n      tag_9\n      jumpi\n      jump(tag_2)\n    tag_10:\n      dup1\n      0x30a56347\n      eq\n      tag_3\n      jumpi\n      dup1\n      0x805265e5\n      eq\n      tag_4\n      jumpi\n      dup1\n      0x8d4b44d9\n      eq\n      tag_5\n      jumpi\n    tag_2:\n      revert(0x00, 0x00)\n        /* \"task1/Voting.sol\":1318:1418  function getCandidateCount() external view returns (uint256) {... */\n    tag_3:\n      tag_11\n      tag_12\n      jump\t// in\n    tag_11:\n      mload(0x40)\n      tag_13\n      swap2\n      swap1\n      tag_14\n      jump\t// in\n    tag_13:\n      mload(0x40)\n      dup1\n      swap2\n      sub\n      swap1\n      return\n        /* \"task1/Voting.sol\":671:795  function getVotes(string memory candidate) external  view returns (uint256) {... */\n    tag_4:\n      tag_15\n      0x04\n      dup1\n      calldatasize\n      sub\n      dup2\n      add\n      swap1\n      tag_16\n      swap2\n      swap1\n      tag_17\n      jump\t// in\n    tag_16:\n      tag_18\n      jump\t// in\n    tag_15:\n      mload(0x40)\n      tag_19\n      swap2\n      swap1\n      tag_14\n      jump\t// in\n    tag_19:\n      mload(0x40)\n      dup1\n      swap2\n      sub\n      swap1\n      return\n        /* \"task1/Voting.sol\":80:130  mapping ( string => uint256 ) public votesReceived */\n    tag_5:\n      tag_20\n      0x04\n      dup1\n      calldatasize\n      sub\n      dup2\n      add\n      swap1\n      tag_21\n      swap2\n      swap1\n      tag_17\n      jump\t// in\n    tag_21:\n      tag_22\n      jump\t// in\n    tag_20:\n      mload(0x40)\n      tag_23\n      swap2\n      swap1\n      tag_14\n      jump\t// in\n    tag_23:\n      mload(0x40)\n      dup1\n      swap2\n      sub\n      swap1\n      return\n        /* \"task1/Voting.sol\":999:1213  function getTotalVotes() public view returns (uint256 totalVotes) {... */\n    tag_6:\n      tag_24\n      tag_25\n      jump\t// in\n    tag_24:\n      mload(0x40)\n      tag_26\n      swap2\n      swap1\n      tag_14\n      jump\t// in\n    tag_26:\n      mload(0x40)\n      dup1\n      swap2\n      sub\n      swap1\n      return\n        /* \"task1/Voting.sol\":1537:1722  function getCandidateByIndex(uint256 index) external view returns (string memory) {... */\n    tag_7:\n      tag_27\n      0x04\n      dup1\n      calldatasize\n      sub\n      dup2\n      add\n      swap1\n      tag_28\n      swap2\n      swap1\n      tag_29\n      jump\t// in\n    tag_28:\n      tag_30\n      jump\t// in\n    tag_27:\n      mload(0x40)\n      tag_31\n      swap2\n      swap1\n      tag_32\n      jump\t// in\n    tag_31:\n      mload(0x40)\n      dup1\n      swap2\n      sub\n      swap1\n      return\n        /* \"task1/Voting.sol\":825:969  function resetVotes() public {... */\n    tag_8:\n      tag_33\n      tag_34\n      jump\t// in\n    tag_33:\n      stop\n        /* \"task1/Voting.sol\":362:635  function vote(string memory candidate) external  {... */\n    tag_9:\n      tag_35\n      0x04\n      dup1\n      calldatasize\n      sub\n      dup2\n      add\n      swap1\n      tag_36\n      swap2\n      swap1\n      tag_17\n      jump\t// in\n    tag_36:\n      tag_37\n      jump\t// in\n    tag_35:\n      stop\n        /* \"task1/Voting.sol\":1318:1418  function getCandidateCount() external view returns (uint256) {... */\n    tag_12:\n        /* \"task1/Voting.sol\":1370:1377  uint256 */\n      0x00\n        /* \"task1/Voting.sol\":1396:1404  voteList */\n      0x01\n        /* \"task1/Voting.sol\":1396:1411  voteList.length */\n      dup1\n      sload\n      swap1\n      pop\n        /* \"task1/Voting.sol\":1389:1411  return voteList.length */\n      swap1\n      pop\n        /* \"task1/Voting.sol\":1318:1418  function getCandidateCount() external view returns (uint256) {... */\n      swap1\n      jump\t// out\n        /* \"task1/Voting.sol\":671:795  function getVotes(string memory candidate) external  view returns (uint256) {... */\n    tag_18:\n        /* \"task1/Voting.sol\":738:745  uint256 */\n      0x00\n        /* \"task1/Voting.sol\":764:777  votesReceived */\n      0x00\n        /* \"task1/Voting.sol\":778:787  candidate */\n      dup3\n        /* \"task1/Voting.sol\":764:788  votesReceived[candidate] */\n      mload(0x40)\n      tag_40\n      swap2\n      swap1\n      tag_41\n      jump\t// in\n    tag_40:\n      swap1\n      dup2\n      mstore\n      0x20\n      add\n      mload(0x40)\n      dup1\n      swap2\n      sub\n      swap1\n      keccak256\n      sload\n        /* \"task1/Voting.sol\":757:788  return votesReceived[candidate] */\n      swap1\n      pop\n        /* \"task1/Voting.sol\":671:795  function getVotes(string memory candidate) external  view returns (uint256) {... */\n      swap2\n      swap1\n      pop\n      jump\t// out\n        /* \"task1/Voting.sol\":80:130  mapping ( string => uint256 ) public votesReceived */\n    tag_22:\n      0x00\n      dup2\n      dup1\n      mload\n      0x20\n      dup2\n      add\n      dup3\n      add\n      dup1\n      mload\n      dup5\n      dup3\n      mstore\n      0x20\n      dup4\n      add\n      0x20\n      dup6\n      add\n      keccak256\n      dup2\n      dup4\n      mstore\n      dup1\n      swap6\n      pop\n      pop\n      pop\n      pop\n      pop\n      pop\n      0x00\n      swap2\n      pop\n      swap1\n      pop\n      sload\n      dup2\n      jump\t// out\n        /* \"task1/Voting.sol\":999:1213  function getTotalVotes() public view returns (uint256 totalVotes) {... */\n    tag_25:\n        /* \"task1/Voting.sol\":1045:1063  uint256 totalVotes */\n      0x00\n        /* \"task1/Voting.sol\":1088:1089  0 */\n      0x00\n        /* \"task1/Voting.sol\":1075:1089  totalVotes = 0 */\n      swap1\n      pop\n        /* \"task1/Voting.sol\":1104:1110  uint i */\n      0x00\n        /* \"task1/Voting.sol\":1113:1114  0 */\n      0x00\n        /* \"task1/Voting.sol\":1104:1114  uint i = 0 */\n      swap1\n      pop\n        /* \"task1/Voting.sol\":1099:1207  for (uint i = 0; i < voteList.length; i++) {... */\n    tag_43:\n        /* \"task1/Voting.sol\":1120:1128  voteList */\n      0x01\n        /* \"task1/Voting.sol\":1120:1135  voteList.length */\n      dup1\n      sload\n      swap1\n      pop\n        /* \"task1/Voting.sol\":1116:1117  i */\n      dup2\n        /* \"task1/Voting.sol\":1116:1135  i < voteList.length */\n      lt\n        /* \"task1/Voting.sol\":1099:1207  for (uint i = 0; i < voteList.length; i++) {... */\n      iszero\n      tag_44\n      jumpi\n        /* \"task1/Voting.sol\":1170:1183  votesReceived */\n      0x00\n        /* \"task1/Voting.sol\":1184:1192  voteList */\n      0x01\n        /* \"task1/Voting.sol\":1193:1194  i */\n      dup3\n        /* \"task1/Voting.sol\":1184:1195  voteList[i] */\n      dup2\n      sload\n      dup2\n      lt\n      tag_46\n      jumpi\n      tag_47\n      tag_48\n      jump\t// in\n    tag_47:\n    tag_46:\n      swap1\n      0x00\n      mstore\n      keccak256(0x00, 0x20)\n      add\n        /* \"task1/Voting.sol\":1170:1196  votesReceived[voteList[i]] */\n      mload(0x40)\n      tag_50\n      swap2\n      swap1\n      tag_51\n      jump\t// in\n    tag_50:\n      swap1\n      dup2\n      mstore\n      0x20\n      add\n      mload(0x40)\n      dup1\n      swap2\n      sub\n      swap1\n      keccak256\n      sload\n        /* \"task1/Voting.sol\":1156:1196  totalVotes += votesReceived[voteList[i]] */\n      dup3\n      tag_52\n      swap2\n      swap1\n      tag_53\n      jump\t// in\n    tag_52:\n      swap2\n      pop\n        /* \"task1/Voting.sol\":1137:1140  i++ */\n      dup1\n      dup1\n      0x01\n      add\n      swap2\n      pop\n      pop\n        /* \"task1/Voting.sol\":1099:1207  for (uint i = 0; i < voteList.length; i++) {... */\n      jump(tag_43)\n    tag_44:\n      pop\n        /* \"task1/Voting.sol\":999:1213  function getTotalVotes() public view returns (uint256 totalVotes) {... */\n      swap1\n      jump\t// out\n        /* \"task1/Voting.sol\":1537:1722  function getCandidateByIndex(uint256 index) external view returns (string memory) {... */\n    tag_30:\n        /* \"task1/Voting.sol\":1604:1617  string memory */\n      0x60\n        /* \"task1/Voting.sol\":1645:1653  voteList */\n      0x01\n        /* \"task1/Voting.sol\":1645:1660  voteList.length */\n      dup1\n      sload\n      swap1\n      pop\n        /* \"task1/Voting.sol\":1637:1642  index */\n      dup3\n        /* \"task1/Voting.sol\":1637:1660  index < voteList.length */\n      lt\n        /* \"task1/Voting.sol\":1629:1683  require(index < voteList.length, \"Index out of range\") */\n      tag_55\n      jumpi\n      mload(0x40)\n      0x08c379a000000000000000000000000000000000000000000000000000000000\n      dup2\n      mstore\n      0x04\n      add\n      tag_56\n      swap1\n      tag_57\n      jump\t// in\n    tag_56:\n      mload(0x40)\n      dup1\n      swap2\n      sub\n      swap1\n      revert\n    tag_55:\n        /* \"task1/Voting.sol\":1700:1708  voteList */\n      0x01\n        /* \"task1/Voting.sol\":1709:1714  index */\n      dup3\n        /* \"task1/Voting.sol\":1700:1715  voteList[index] */\n      dup2\n      sload\n      dup2\n      lt\n      tag_58\n      jumpi\n      tag_59\n      tag_48\n      jump\t// in\n    tag_59:\n    tag_58:\n      swap1\n      0x00\n      mstore\n      keccak256(0x00, 0x20)\n      add\n        /* \"task1/Voting.sol\":1693:1715  return voteList[index] */\n      dup1\n      sload\n      tag_61\n      swap1\n      tag_62\n      jump\t// in\n    tag_61:\n      dup1\n      0x1f\n      add\n      0x20\n      dup1\n      swap2\n      div\n      mul\n      0x20\n      add\n      mload(0x40)\n      swap1\n      dup2\n      add\n      0x40\n      mstore\n      dup1\n      swap3\n      swap2\n      swap1\n      dup2\n      dup2\n      mstore\n      0x20\n      add\n      dup3\n      dup1\n      sload\n      tag_63\n      swap1\n      tag_62\n      jump\t// in\n    tag_63:\n      dup1\n      iszero\n      tag_64\n      jumpi\n      dup1\n      0x1f\n      lt\n      tag_65\n      jumpi\n      0x0100\n      dup1\n      dup4\n      sload\n      div\n      mul\n      dup4\n      mstore\n      swap2\n      0x20\n      add\n      swap2\n      jump(tag_64)\n    tag_65:\n      dup3\n      add\n      swap2\n      swap1\n      0x00\n      mstore\n      keccak256(0x00, 0x20)\n      swap1\n    tag_66:\n      dup2\n      sload\n      dup2\n      mstore\n      swap1\n      0x01\n      add\n      swap1\n      0x20\n      add\n      dup1\n      dup4\n      gt\n      tag_66\n      jumpi\n      dup3\n      swap1\n      sub\n      0x1f\n      and\n      dup3\n      add\n      swap2\n    tag_64:\n      pop\n      pop\n      pop\n      pop\n      pop\n      swap1\n      pop\n        /* \"task1/Voting.sol\":1537:1722  function getCandidateByIndex(uint256 index) external view returns (string memory) {... */\n      swap2\n      swap1\n      pop\n      jump\t// out\n        /* \"task1/Voting.sol\":825:969  function resetVotes() public {... */\n    tag_34:\n        /* \"task1/Voting.sol\":869:875  uint i */\n      0x00\n        /* \"task1/Voting.sol\":878:879  0 */\n      0x00\n        /* \"task1/Voting.sol\":869:879  uint i = 0 */\n      swap1\n      pop\n        /* \"task1/Voting.sol\":864:962  for (uint i = 0; i < voteList.length; i++) {... */\n    tag_68:\n        /* \"task1/Voting.sol\":885:893  voteList */\n      0x01\n        /* \"task1/Voting.sol\":885:900  voteList.length */\n      dup1\n      sload\n      swap1\n      pop\n        /* \"task1/Voting.sol\":881:882  i */\n      dup2\n        /* \"task1/Voting.sol\":881:900  i < voteList.length */\n      lt\n        /* \"task1/Voting.sol\":864:962  for (uint i = 0; i < voteList.length; i++) {... */\n      iszero\n      tag_69\n      jumpi\n        /* \"task1/Voting.sol\":950:951  0 */\n      0x00\n        /* \"task1/Voting.sol\":921:934  votesReceived */\n      0x00\n        /* \"task1/Voting.sol\":935:943  voteList */\n      0x01\n        /* \"task1/Voting.sol\":944:945  i */\n      dup4\n        /* \"task1/Voting.sol\":935:946  voteList[i] */\n      dup2\n      sload\n      dup2\n      lt\n      tag_71\n      jumpi\n      tag_72\n      tag_48\n      jump\t// in\n    tag_72:\n    tag_71:\n      swap1\n      0x00\n      mstore\n      keccak256(0x00, 0x20)\n      add\n        /* \"task1/Voting.sol\":921:947  votesReceived[voteList[i]] */\n      mload(0x40)\n      tag_74\n      swap2\n      swap1\n      tag_51\n      jump\t// in\n    tag_74:\n      swap1\n      dup2\n      mstore\n      0x20\n      add\n      mload(0x40)\n      dup1\n      swap2\n      sub\n      swap1\n      keccak256\n        /* \"task1/Voting.sol\":921:951  votesReceived[voteList[i]] = 0 */\n      dup2\n      swap1\n      sstore\n      pop\n        /* \"task1/Voting.sol\":902:905  i++ */\n      dup1\n      dup1\n      0x01\n      add\n      swap2\n      pop\n      pop\n        /* \"task1/Voting.sol\":864:962  for (uint i = 0; i < voteList.length; i++) {... */\n      jump(tag_68)\n    tag_69:\n      pop\n        /* \"task1/Voting.sol\":825:969  function resetVotes() public {... */\n      jump\t// out\n        /* \"task1/Voting.sol\":362:635  function vote(string memory candidate) external  {... */\n    tag_37:\n        /* \"task1/Voting.sol\":426:438  isRegistered */\n      0x02\n        /* \"task1/Voting.sol\":439:448  candidate */\n      dup2\n        /* \"task1/Voting.sol\":426:449  isRegistered[candidate] */\n      mload(0x40)\n      tag_76\n      swap2\n      swap1\n      tag_41\n      jump\t// in\n    tag_76:\n      swap1\n      dup2\n      mstore\n      0x20\n      add\n      mload(0x40)\n      dup1\n      swap2\n      sub\n      swap1\n      keccak256\n      0x00\n      swap1\n      sload\n      swap1\n      0x0100\n      exp\n      swap1\n      div\n      0xff\n      and\n        /* \"task1/Voting.sol\":421:544  if (!isRegistered[candidate]) {... */\n      tag_77\n      jumpi\n        /* \"task1/Voting.sol\":491:495  true */\n      0x01\n        /* \"task1/Voting.sol\":465:477  isRegistered */\n      0x02\n        /* \"task1/Voting.sol\":478:487  candidate */\n      dup3\n        /* \"task1/Voting.sol\":465:488  isRegistered[candidate] */\n      mload(0x40)\n      tag_78\n      swap2\n      swap1\n      tag_41\n      jump\t// in\n    tag_78:\n      swap1\n      dup2\n      mstore\n      0x20\n      add\n      mload(0x40)\n      dup1\n      swap2\n      sub\n      swap1\n      keccak256\n      0x00\n        /* \"task1/Voting.sol\":465:495  isRegistered[candidate] = true */\n      0x0100\n      exp\n      dup2\n      sload\n      dup2\n      0xff\n      mul\n      not\n      and\n      swap1\n      dup4\n      iszero\n      iszero\n      mul\n      or\n      swap1\n      sstore\n      pop\n        /* \"task1/Voting.sol\":509:517  voteList */\n      0x01\n        /* \"task1/Voting.sol\":523:532  candidate */\n      dup2\n        /* \"task1/Voting.sol\":509:533  voteList.push(candidate) */\n      swap1\n      dup1\n      0x01\n      dup2\n      sload\n      add\n      dup1\n      dup3\n      sstore\n      dup1\n      swap2\n      pop\n      pop\n      0x01\n      swap1\n      sub\n      swap1\n      0x00\n      mstore\n      keccak256(0x00, 0x20)\n      add\n      0x00\n      swap1\n      swap2\n      swap1\n      swap2\n      swap1\n      swap2\n      pop\n      swap1\n      dup2\n      tag_80\n      swap2\n      swap1\n      tag_81\n      jump\t// in\n    tag_80:\n      pop\n        /* \"task1/Voting.sol\":421:544  if (!isRegistered[candidate]) {... */\n    tag_77:\n        /* \"task1/Voting.sol\":581:582  1 */\n      0x01\n        /* \"task1/Voting.sol\":553:566  votesReceived */\n      0x00\n        /* \"task1/Voting.sol\":567:576  candidate */\n      dup3\n        /* \"task1/Voting.sol\":553:577  votesReceived[candidate] */\n      mload(0x40)\n      tag_82\n      swap2\n      swap1\n      tag_41\n      jump\t// in\n    tag_82:\n      swap1\n      dup2\n      mstore\n      0x20\n      add\n      mload(0x40)\n      dup1\n      swap2\n      sub\n      swap1\n      keccak256\n      0x00\n        /* \"task1/Voting.sol\":553:582  votesReceived[candidate] += 1 */\n      dup3\n      dup3\n      sload\n      tag_83\n      swap2\n      swap1\n      tag_53\n      jump\t// in\n    tag_83:\n      swap3\n      pop\n      pop\n      dup2\n      swap1\n      sstore\n      pop\n        /* \"task1/Voting.sol\":617:627  msg.sender */\n      caller\n        /* \"task1/Voting.sol\":597:628  VoteCast(candidate, msg.sender) */\n      0xffffffffffffffffffffffffffffffffffffffff\n      and\n        /* \"task1/Voting.sol\":606:615  candidate */\n      dup2\n        /* \"task1/Voting.sol\":597:628  VoteCast(candidate, msg.sender) */\n      mload(0x40)\n      tag_84\n      swap2\n      swap1\n      tag_41\n      jump\t// in\n    tag_84:\n      mload(0x40)\n      dup1\n      swap2\n      sub\n      swap1\n      keccak256\n      0x85ccb673c0f28c4b8ba00fe954146d91c099b133e47a392bd0f6b547490d365f\n      mload(0x40)\n      mload(0x40)\n      dup1\n      swap2\n      sub\n      swap1\n      log3\n        /* \"task1/Voting.sol\":362:635  function vote(string memory candidate) external  {... */\n      pop\n      jump\t// out\n        /* \"#utility.yul\":7:84   */\n    tag_85:\n        /* \"#utility.yul\":44:51   */\n      0x00\n        /* \"#utility.yul\":73:78   */\n      dup2\n        /* \"#utility.yul\":62:78   */\n      swap1\n      pop\n        /* \"#utility.yul\":7:84   */\n      swap2\n      swap1\n      pop\n      jump\t// out\n        /* \"#utility.yul\":90:208   */\n    tag_86:\n        /* \"#utility.yul\":177:201   */\n      tag_131\n        /* \"#utility.yul\":195:200   */\n      dup2\n        /* \"#utility.yul\":177:201   */\n      tag_85\n      jump\t// in\n    tag_131:\n        /* \"#utility.yul\":172:175   */\n      dup3\n        /* \"#utility.yul\":165:202   */\n      mstore\n        /* \"#utility.yul\":90:208   */\n      pop\n      pop\n      jump\t// out\n        /* \"#utility.yul\":214:436   */\n    tag_14:\n        /* \"#utility.yul\":307:311   */\n      0x00\n        /* \"#utility.yul\":345:347   */\n      0x20\n        /* \"#utility.yul\":334:343   */\n      dup3\n        /* \"#utility.yul\":330:348   */\n      add\n        /* \"#utility.yul\":322:348   */\n      swap1\n      pop\n        /* \"#utility.yul\":358:429   */\n      tag_133\n        /* \"#utility.yul\":426:427   */\n      0x00\n        /* \"#utility.yul\":415:424   */\n      dup4\n        /* \"#utility.yul\":411:428   */\n      add\n        /* \"#utility.yul\":402:408   */\n      dup5\n        /* \"#utility.yul\":358:429   */\n      tag_86\n      jump\t// in\n    tag_133:\n        /* \"#utility.yul\":214:436   */\n      swap3\n      swap2\n      pop\n      pop\n      jump\t// out\n        /* \"#utility.yul\":442:517   */\n    tag_87:\n        /* \"#utility.yul\":475:481   */\n      0x00\n        /* \"#utility.yul\":508:510   */\n      0x40\n        /* \"#utility.yul\":502:511   */\n      mload\n        /* \"#utility.yul\":492:511   */\n      swap1\n      pop\n        /* \"#utility.yul\":442:517   */\n      swap1\n      jump\t// out\n        /* \"#utility.yul\":523:640   */\n    tag_88:\n        /* \"#utility.yul\":632:633   */\n      0x00\n        /* \"#utility.yul\":629:630   */\n      0x00\n        /* \"#utility.yul\":622:634   */\n      revert\n        /* \"#utility.yul\":646:763   */\n    tag_89:\n        /* \"#utility.yul\":755:756   */\n      0x00\n        /* \"#utility.yul\":752:753   */\n      0x00\n        /* \"#utility.yul\":745:757   */\n      revert\n        /* \"#utility.yul\":769:886   */\n    tag_90:\n        /* \"#utility.yul\":878:879   */\n      0x00\n        /* \"#utility.yul\":875:876   */\n      0x00\n        /* \"#utility.yul\":868:880   */\n      revert\n        /* \"#utility.yul\":892:1009   */\n    tag_91:\n        /* \"#utility.yul\":1001:1002   */\n      0x00\n        /* \"#utility.yul\":998:999   */\n      0x00\n        /* \"#utility.yul\":991:1003   */\n      revert\n        /* \"#utility.yul\":1015:1117   */\n    tag_92:\n        /* \"#utility.yul\":1056:1062   */\n      0x00\n        /* \"#utility.yul\":1107:1109   */\n      0x1f\n        /* \"#utility.yul\":1103:1110   */\n      not\n        /* \"#utility.yul\":1098:1100   */\n      0x1f\n        /* \"#utility.yul\":1091:1096   */\n      dup4\n        /* \"#utility.yul\":1087:1101   */\n      add\n        /* \"#utility.yul\":1083:1111   */\n      and\n        /* \"#utility.yul\":1073:1111   */\n      swap1\n      pop\n        /* \"#utility.yul\":1015:1117   */\n      swap2\n      swap1\n      pop\n      jump\t// out\n        /* \"#utility.yul\":1123:1303   */\n    tag_93:\n        /* \"#utility.yul\":1171:1248   */\n      0x4e487b7100000000000000000000000000000000000000000000000000000000\n        /* \"#utility.yul\":1168:1169   */\n      0x00\n        /* \"#utility.yul\":1161:1249   */\n      mstore\n        /* \"#utility.yul\":1268:1272   */\n      0x41\n        /* \"#utility.yul\":1265:1266   */\n      0x04\n        /* \"#utility.yul\":1258:1273   */\n      mstore\n        /* \"#utility.yul\":1292:1296   */\n      0x24\n        /* \"#utility.yul\":1289:1290   */\n      0x00\n        /* \"#utility.yul\":1282:1297   */\n      revert\n        /* \"#utility.yul\":1309:1590   */\n    tag_94:\n        /* \"#utility.yul\":1392:1419   */\n      tag_142\n        /* \"#utility.yul\":1414:1418   */\n      dup3\n        /* \"#utility.yul\":1392:1419   */\n      tag_92\n      jump\t// in\n    tag_142:\n        /* \"#utility.yul\":1384:1390   */\n      dup2\n        /* \"#utility.yul\":1380:1420   */\n      add\n        /* \"#utility.yul\":1522:1528   */\n      dup2\n        /* \"#utility.yul\":1510:1520   */\n      dup2\n        /* \"#utility.yul\":1507:1529   */\n      lt\n        /* \"#utility.yul\":1486:1504   */\n      0xffffffffffffffff\n        /* \"#utility.yul\":1474:1484   */\n      dup3\n        /* \"#utility.yul\":1471:1505   */\n      gt\n        /* \"#utility.yul\":1468:1530   */\n      or\n        /* \"#utility.yul\":1465:1553   */\n      iszero\n      tag_143\n      jumpi\n        /* \"#utility.yul\":1533:1551   */\n      tag_144\n      tag_93\n      jump\t// in\n    tag_144:\n        /* \"#utility.yul\":1465:1553   */\n    tag_143:\n        /* \"#utility.yul\":1573:1583   */\n      dup1\n        /* \"#utility.yul\":1569:1571   */\n      0x40\n        /* \"#utility.yul\":1562:1584   */\n      mstore\n        /* \"#utility.yul\":1352:1590   */\n      pop\n        /* \"#utility.yul\":1309:1590   */\n      pop\n      pop\n      jump\t// out\n        /* \"#utility.yul\":1596:1725   */\n    tag_95:\n        /* \"#utility.yul\":1630:1636   */\n      0x00\n        /* \"#utility.yul\":1657:1677   */\n      tag_146\n      tag_87\n      jump\t// in\n    tag_146:\n        /* \"#utility.yul\":1647:1677   */\n      swap1\n      pop\n        /* \"#utility.yul\":1686:1719   */\n      tag_147\n        /* \"#utility.yul\":1714:1718   */\n      dup3\n        /* \"#utility.yul\":1706:1712   */\n      dup3\n        /* \"#utility.yul\":1686:1719   */\n      tag_94\n      jump\t// in\n    tag_147:\n        /* \"#utility.yul\":1596:1725   */\n      swap2\n      swap1\n      pop\n      jump\t// out\n        /* \"#utility.yul\":1731:2039   */\n    tag_96:\n        /* \"#utility.yul\":1793:1797   */\n      0x00\n        /* \"#utility.yul\":1883:1901   */\n      0xffffffffffffffff\n        /* \"#utility.yul\":1875:1881   */\n      dup3\n        /* \"#utility.yul\":1872:1902   */\n      gt\n        /* \"#utility.yul\":1869:1925   */\n      iszero\n      tag_149\n      jumpi\n        /* \"#utility.yul\":1905:1923   */\n      tag_150\n      tag_93\n      jump\t// in\n    tag_150:\n        /* \"#utility.yul\":1869:1925   */\n    tag_149:\n        /* \"#utility.yul\":1943:1972   */\n      tag_151\n        /* \"#utility.yul\":1965:1971   */\n      dup3\n        /* \"#utility.yul\":1943:1972   */\n      tag_92\n      jump\t// in\n    tag_151:\n        /* \"#utility.yul\":1935:1972   */\n      swap1\n      pop\n        /* \"#utility.yul\":2027:2031   */\n      0x20\n        /* \"#utility.yul\":2021:2025   */\n      dup2\n        /* \"#utility.yul\":2017:2032   */\n      add\n        /* \"#utility.yul\":2009:2032   */\n      swap1\n      pop\n        /* \"#utility.yul\":1731:2039   */\n      swap2\n      swap1\n      pop\n      jump\t// out\n        /* \"#utility.yul\":2045:2193   */\n    tag_97:\n        /* \"#utility.yul\":2143:2149   */\n      dup3\n        /* \"#utility.yul\":2138:2141   */\n      dup2\n        /* \"#utility.yul\":2133:2136   */\n      dup4\n        /* \"#utility.yul\":2120:2150   */\n      calldatacopy\n        /* \"#utility.yul\":2184:2185   */\n      0x00\n        /* \"#utility.yul\":2175:2181   */\n      dup4\n        /* \"#utility.yul\":2170:2173   */\n      dup4\n        /* \"#utility.yul\":2166:2182   */\n      add\n        /* \"#utility.yul\":2159:2186   */\n      mstore\n        /* \"#utility.yul\":2045:2193   */\n      pop\n      pop\n      pop\n      jump\t// out\n        /* \"#utility.yul\":2199:2624   */\n    tag_98:\n        /* \"#utility.yul\":2277:2282   */\n      0x00\n        /* \"#utility.yul\":2302:2368   */\n      tag_154\n        /* \"#utility.yul\":2318:2367   */\n      tag_155\n        /* \"#utility.yul\":2360:2366   */\n      dup5\n        /* \"#utility.yul\":2318:2367   */\n      tag_96\n      jump\t// in\n    tag_155:\n        /* \"#utility.yul\":2302:2368   */\n      tag_95\n      jump\t// in\n    tag_154:\n        /* \"#utility.yul\":2293:2368   */\n      swap1\n      pop\n        /* \"#utility.yul\":2391:2397   */\n      dup3\n        /* \"#utility.yul\":2384:2389   */\n      dup2\n        /* \"#utility.yul\":2377:2398   */\n      mstore\n        /* \"#utility.yul\":2429:2433   */\n      0x20\n        /* \"#utility.yul\":2422:2427   */\n      dup2\n        /* \"#utility.yul\":2418:2434   */\n      add\n        /* \"#utility.yul\":2467:2470   */\n      dup5\n        /* \"#utility.yul\":2458:2464   */\n      dup5\n        /* \"#utility.yul\":2453:2456   */\n      dup5\n        /* \"#utility.yul\":2449:2465   */\n      add\n        /* \"#utility.yul\":2446:2471   */\n      gt\n        /* \"#utility.yul\":2443:2555   */\n      iszero\n      tag_156\n      jumpi\n        /* \"#utility.yul\":2474:2553   */\n      tag_157\n      tag_91\n      jump\t// in\n    tag_157:\n        /* \"#utility.yul\":2443:2555   */\n    tag_156:\n        /* \"#utility.yul\":2564:2618   */\n      tag_158\n        /* \"#utility.yul\":2611:2617   */\n      dup5\n        /* \"#utility.yul\":2606:2609   */\n      dup3\n        /* \"#utility.yul\":2601:2604   */\n      dup6\n        /* \"#utility.yul\":2564:2618   */\n      tag_97\n      jump\t// in\n    tag_158:\n        /* \"#utility.yul\":2283:2624   */\n      pop\n        /* \"#utility.yul\":2199:2624   */\n      swap4\n      swap3\n      pop\n      pop\n      pop\n      jump\t// out\n        /* \"#utility.yul\":2644:2984   */\n    tag_99:\n        /* \"#utility.yul\":2700:2705   */\n      0x00\n        /* \"#utility.yul\":2749:2752   */\n      dup3\n        /* \"#utility.yul\":2742:2746   */\n      0x1f\n        /* \"#utility.yul\":2734:2740   */\n      dup4\n        /* \"#utility.yul\":2730:2747   */\n      add\n        /* \"#utility.yul\":2726:2753   */\n      slt\n        /* \"#utility.yul\":2716:2838   */\n      tag_160\n      jumpi\n        /* \"#utility.yul\":2757:2836   */\n      tag_161\n      tag_90\n      jump\t// in\n    tag_161:\n        /* \"#utility.yul\":2716:2838   */\n    tag_160:\n        /* \"#utility.yul\":2874:2880   */\n      dup2\n        /* \"#utility.yul\":2861:2881   */\n      calldataload\n        /* \"#utility.yul\":2899:2978   */\n      tag_162\n        /* \"#utility.yul\":2974:2977   */\n      dup5\n        /* \"#utility.yul\":2966:2972   */\n      dup3\n        /* \"#utility.yul\":2959:2963   */\n      0x20\n        /* \"#utility.yul\":2951:2957   */\n      dup7\n        /* \"#utility.yul\":2947:2964   */\n      add\n        /* \"#utility.yul\":2899:2978   */\n      tag_98\n      jump\t// in\n    tag_162:\n        /* \"#utility.yul\":2890:2978   */\n      swap2\n      pop\n        /* \"#utility.yul\":2706:2984   */\n      pop\n        /* \"#utility.yul\":2644:2984   */\n      swap3\n      swap2\n      pop\n      pop\n      jump\t// out\n        /* \"#utility.yul\":2990:3499   */\n    tag_17:\n        /* \"#utility.yul\":3059:3065   */\n      0x00\n        /* \"#utility.yul\":3108:3110   */\n      0x20\n        /* \"#utility.yul\":3096:3105   */\n      dup3\n        /* \"#utility.yul\":3087:3094   */\n      dup5\n        /* \"#utility.yul\":3083:3106   */\n      sub\n        /* \"#utility.yul\":3079:3111   */\n      slt\n        /* \"#utility.yul\":3076:3195   */\n      iszero\n      tag_164\n      jumpi\n        /* \"#utility.yul\":3114:3193   */\n      tag_165\n      tag_88\n      jump\t// in\n    tag_165:\n        /* \"#utility.yul\":3076:3195   */\n    tag_164:\n        /* \"#utility.yul\":3262:3263   */\n      0x00\n        /* \"#utility.yul\":3251:3260   */\n      dup3\n        /* \"#utility.yul\":3247:3264   */\n      add\n        /* \"#utility.yul\":3234:3265   */\n      calldataload\n        /* \"#utility.yul\":3292:3310   */\n      0xffffffffffffffff\n        /* \"#utility.yul\":3284:3290   */\n      dup2\n        /* \"#utility.yul\":3281:3311   */\n      gt\n        /* \"#utility.yul\":3278:3395   */\n      iszero\n      tag_166\n      jumpi\n        /* \"#utility.yul\":3314:3393   */\n      tag_167\n      tag_89\n      jump\t// in\n    tag_167:\n        /* \"#utility.yul\":3278:3395   */\n    tag_166:\n        /* \"#utility.yul\":3419:3482   */\n      tag_168\n        /* \"#utility.yul\":3474:3481   */\n      dup5\n        /* \"#utility.yul\":3465:3471   */\n      dup3\n        /* \"#utility.yul\":3454:3463   */\n      dup6\n        /* \"#utility.yul\":3450:3472   */\n      add\n        /* \"#utility.yul\":3419:3482   */\n      tag_99\n      jump\t// in\n    tag_168:\n        /* \"#utility.yul\":3409:3482   */\n      swap2\n      pop\n        /* \"#utility.yul\":3205:3492   */\n      pop\n        /* \"#utility.yul\":2990:3499   */\n      swap3\n      swap2\n      pop\n      pop\n      jump\t// out\n        /* \"#utility.yul\":3505:3627   */\n    tag_100:\n        /* \"#utility.yul\":3578:3602   */\n      tag_170\n        /* \"#utility.yul\":3596:3601   */\n      dup2\n        /* \"#utility.yul\":3578:3602   */\n      tag_85\n      jump\t// in\n    tag_170:\n        /* \"#utility.yul\":3571:3576   */\n      dup2\n        /* \"#utility.yul\":3568:3603   */\n      eq\n        /* \"#utility.yul\":3558:3621   */\n      tag_171\n      jumpi\n        /* \"#utility.yul\":3617:3618   */\n      0x00\n        /* \"#utility.yul\":3614:3615   */\n      0x00\n        /* \"#utility.yul\":3607:3619   */\n      revert\n        /* \"#utility.yul\":3558:3621   */\n    tag_171:\n        /* \"#utility.yul\":3505:3627   */\n      pop\n      jump\t// out\n        /* \"#utility.yul\":3633:3772   */\n    tag_101:\n        /* \"#utility.yul\":3679:3684   */\n      0x00\n        /* \"#utility.yul\":3717:3723   */\n      dup2\n        /* \"#utility.yul\":3704:3724   */\n      calldataload\n        /* \"#utility.yul\":3695:3724   */\n      swap1\n      pop\n        /* \"#utility.yul\":3733:3766   */\n      tag_173\n        /* \"#utility.yul\":3760:3765   */\n      dup2\n        /* \"#utility.yul\":3733:3766   */\n      tag_100\n      jump\t// in\n    tag_173:\n        /* \"#utility.yul\":3633:3772   */\n      swap3\n      swap2\n      pop\n      pop\n      jump\t// out\n        /* \"#utility.yul\":3778:4107   */\n    tag_29:\n        /* \"#utility.yul\":3837:3843   */\n      0x00\n        /* \"#utility.yul\":3886:3888   */\n      0x20\n        /* \"#utility.yul\":3874:3883   */\n      dup3\n        /* \"#utility.yul\":3865:3872   */\n      dup5\n        /* \"#utility.yul\":3861:3884   */\n      sub\n        /* \"#utility.yul\":3857:3889   */\n      slt\n        /* \"#utility.yul\":3854:3973   */\n      iszero\n      tag_175\n      jumpi\n        /* \"#utility.yul\":3892:3971   */\n      tag_176\n      tag_88\n      jump\t// in\n    tag_176:\n        /* \"#utility.yul\":3854:3973   */\n    tag_175:\n        /* \"#utility.yul\":4012:4013   */\n      0x00\n        /* \"#utility.yul\":4037:4090   */\n      tag_177\n        /* \"#utility.yul\":4082:4089   */\n      dup5\n        /* \"#utility.yul\":4073:4079   */\n      dup3\n        /* \"#utility.yul\":4062:4071   */\n      dup6\n        /* \"#utility.yul\":4058:4080   */\n      add\n        /* \"#utility.yul\":4037:4090   */\n      tag_101\n      jump\t// in\n    tag_177:\n        /* \"#utility.yul\":4027:4090   */\n      swap2\n      pop\n        /* \"#utility.yul\":3983:4100   */\n      pop\n        /* \"#utility.yul\":3778:4107   */\n      swap3\n      swap2\n      pop\n      pop\n      jump\t// out\n        /* \"#utility.yul\":4113:4212   */\n    tag_102:\n        /* \"#utility.yul\":4165:4171   */\n      0x00\n        /* \"#utility.yul\":4199:4204   */\n      dup2\n        /* \"#utility.yul\":4193:4205   */\n      mload\n        /* \"#utility.yul\":4183:4205   */\n      swap1\n      pop\n        /* \"#utility.yul\":4113:4212   */\n      swap2\n      swap1\n      pop\n      jump\t// out\n        /* \"#utility.yul\":4218:4387   */\n    tag_103:\n        /* \"#utility.yul\":4302:4313   */\n      0x00\n        /* \"#utility.yul\":4336:4342   */\n      dup3\n        /* \"#utility.yul\":4331:4334   */\n      dup3\n        /* \"#utility.yul\":4324:4343   */\n      mstore\n        /* \"#utility.yul\":4376:4380   */\n      0x20\n        /* \"#utility.yul\":4371:4374   */\n      dup3\n        /* \"#utility.yul\":4367:4381   */\n      add\n        /* \"#utility.yul\":4352:4381   */\n      swap1\n      pop\n        /* \"#utility.yul\":4218:4387   */\n      swap3\n      swap2\n      pop\n      pop\n      jump\t// out\n        /* \"#utility.yul\":4393:4641   */\n    tag_104:\n        /* \"#utility.yul\":4475:4476   */\n      0x00\n        /* \"#utility.yul\":4485:4598   */\n    tag_181:\n        /* \"#utility.yul\":4499:4505   */\n      dup4\n        /* \"#utility.yul\":4496:4497   */\n      dup2\n        /* \"#utility.yul\":4493:4506   */\n      lt\n        /* \"#utility.yul\":4485:4598   */\n      iszero\n      tag_183\n      jumpi\n        /* \"#utility.yul\":4584:4585   */\n      dup1\n        /* \"#utility.yul\":4579:4582   */\n      dup3\n        /* \"#utility.yul\":4575:4586   */\n      add\n        /* \"#utility.yul\":4569:4587   */\n      mload\n        /* \"#utility.yul\":4565:4566   */\n      dup2\n        /* \"#utility.yul\":4560:4563   */\n      dup5\n        /* \"#utility.yul\":4556:4567   */\n      add\n        /* \"#utility.yul\":4549:4588   */\n      mstore\n        /* \"#utility.yul\":4521:4523   */\n      0x20\n        /* \"#utility.yul\":4518:4519   */\n      dup2\n        /* \"#utility.yul\":4514:4524   */\n      add\n        /* \"#utility.yul\":4509:4524   */\n      swap1\n      pop\n        /* \"#utility.yul\":4485:4598   */\n      jump(tag_181)\n    tag_183:\n        /* \"#utility.yul\":4632:4633   */\n      0x00\n        /* \"#utility.yul\":4623:4629   */\n      dup5\n        /* \"#utility.yul\":4618:4621   */\n      dup5\n        /* \"#utility.yul\":4614:4630   */\n      add\n        /* \"#utility.yul\":4607:4634   */\n      mstore\n        /* \"#utility.yul\":4455:4641   */\n      pop\n        /* \"#utility.yul\":4393:4641   */\n      pop\n      pop\n      pop\n      jump\t// out\n        /* \"#utility.yul\":4647:5024   */\n    tag_105:\n        /* \"#utility.yul\":4735:4738   */\n      0x00\n        /* \"#utility.yul\":4763:4802   */\n      tag_185\n        /* \"#utility.yul\":4796:4801   */\n      dup3\n        /* \"#utility.yul\":4763:4802   */\n      tag_102\n      jump\t// in\n    tag_185:\n        /* \"#utility.yul\":4818:4889   */\n      tag_186\n        /* \"#utility.yul\":4882:4888   */\n      dup2\n        /* \"#utility.yul\":4877:4880   */\n      dup6\n        /* \"#utility.yul\":4818:4889   */\n      tag_103\n      jump\t// in\n    tag_186:\n        /* \"#utility.yul\":4811:4889   */\n      swap4\n      pop\n        /* \"#utility.yul\":4898:4963   */\n      tag_187\n        /* \"#utility.yul\":4956:4962   */\n      dup2\n        /* \"#utility.yul\":4951:4954   */\n      dup6\n        /* \"#utility.yul\":4944:4948   */\n      0x20\n        /* \"#utility.yul\":4937:4942   */\n      dup7\n        /* \"#utility.yul\":4933:4949   */\n      add\n        /* \"#utility.yul\":4898:4963   */\n      tag_104\n      jump\t// in\n    tag_187:\n        /* \"#utility.yul\":4988:5017   */\n      tag_188\n        /* \"#utility.yul\":5010:5016   */\n      dup2\n        /* \"#utility.yul\":4988:5017   */\n      tag_92\n      jump\t// in\n    tag_188:\n        /* \"#utility.yul\":4983:4986   */\n      dup5\n        /* \"#utility.yul\":4979:5018   */\n      add\n        /* \"#utility.yul\":4972:5018   */\n      swap2\n      pop\n        /* \"#utility.yul\":4739:5024   */\n      pop\n        /* \"#utility.yul\":4647:5024   */\n      swap3\n      swap2\n      pop\n      pop\n      jump\t// out\n        /* \"#utility.yul\":5030:5343   */\n    tag_32:\n        /* \"#utility.yul\":5143:5147   */\n      0x00\n        /* \"#utility.yul\":5181:5183   */\n      0x20\n        /* \"#utility.yul\":5170:5179   */\n      dup3\n        /* \"#utility.yul\":5166:5184   */\n      add\n        /* \"#utility.yul\":5158:5184   */\n      swap1\n      pop\n        /* \"#utility.yul\":5230:5239   */\n      dup2\n        /* \"#utility.yul\":5224:5228   */\n      dup2\n        /* \"#utility.yul\":5220:5240   */\n      sub\n        /* \"#utility.yul\":5216:5217   */\n      0x00\n        /* \"#utility.yul\":5205:5214   */\n      dup4\n        /* \"#utility.yul\":5201:5218   */\n      add\n        /* \"#utility.yul\":5194:5241   */\n      mstore\n        /* \"#utility.yul\":5258:5336   */\n      tag_190\n        /* \"#utility.yul\":5331:5335   */\n      dup2\n        /* \"#utility.yul\":5322:5328   */\n      dup5\n        /* \"#utility.yul\":5258:5336   */\n      tag_105\n      jump\t// in\n    tag_190:\n        /* \"#utility.yul\":5250:5336   */\n      swap1\n      pop\n        /* \"#utility.yul\":5030:5343   */\n      swap3\n      swap2\n      pop\n      pop\n      jump\t// out\n        /* \"#utility.yul\":5349:5497   */\n    tag_106:\n        /* \"#utility.yul\":5451:5462   */\n      0x00\n        /* \"#utility.yul\":5488:5491   */\n      dup2\n        /* \"#utility.yul\":5473:5491   */\n      swap1\n      pop\n        /* \"#utility.yul\":5349:5497   */\n      swap3\n      swap2\n      pop\n      pop\n      jump\t// out\n        /* \"#utility.yul\":5503:5893   */\n    tag_107:\n        /* \"#utility.yul\":5609:5612   */\n      0x00\n        /* \"#utility.yul\":5637:5676   */\n      tag_193\n        /* \"#utility.yul\":5670:5675   */\n      dup3\n        /* \"#utility.yul\":5637:5676   */\n      tag_102\n      jump\t// in\n    tag_193:\n        /* \"#utility.yul\":5692:5781   */\n      tag_194\n        /* \"#utility.yul\":5774:5780   */\n      dup2\n        /* \"#utility.yul\":5769:5772   */\n      dup6\n        /* \"#utility.yul\":5692:5781   */\n      tag_106\n      jump\t// in\n    tag_194:\n        /* \"#utility.yul\":5685:5781   */\n      swap4\n      pop\n        /* \"#utility.yul\":5790:5855   */\n      tag_195\n        /* \"#utility.yul\":5848:5854   */\n      dup2\n        /* \"#utility.yul\":5843:5846   */\n      dup6\n        /* \"#utility.yul\":5836:5840   */\n      0x20\n        /* \"#utility.yul\":5829:5834   */\n      dup7\n        /* \"#utility.yul\":5825:5841   */\n      add\n        /* \"#utility.yul\":5790:5855   */\n      tag_104\n      jump\t// in\n    tag_195:\n        /* \"#utility.yul\":5880:5886   */\n      dup1\n        /* \"#utility.yul\":5875:5878   */\n      dup5\n        /* \"#utility.yul\":5871:5887   */\n      add\n        /* \"#utility.yul\":5864:5887   */\n      swap2\n      pop\n        /* \"#utility.yul\":5613:5893   */\n      pop\n        /* \"#utility.yul\":5503:5893   */\n      swap3\n      swap2\n      pop\n      pop\n      jump\t// out\n        /* \"#utility.yul\":5899:6174   */\n    tag_41:\n        /* \"#utility.yul\":6031:6034   */\n      0x00\n        /* \"#utility.yul\":6053:6148   */\n      tag_197\n        /* \"#utility.yul\":6144:6147   */\n      dup3\n        /* \"#utility.yul\":6135:6141   */\n      dup5\n        /* \"#utility.yul\":6053:6148   */\n      tag_107\n      jump\t// in\n    tag_197:\n        /* \"#utility.yul\":6046:6148   */\n      swap2\n      pop\n        /* \"#utility.yul\":6165:6168   */\n      dup2\n        /* \"#utility.yul\":6158:6168   */\n      swap1\n      pop\n        /* \"#utility.yul\":5899:6174   */\n      swap3\n      swap2\n      pop\n      pop\n      jump\t// out\n        /* \"#utility.yul\":6180:6360   */\n    tag_48:\n        /* \"#utility.yul\":6228:6305   */\n      0x4e487b7100000000000000000000000000000000000000000000000000000000\n        /* \"#utility.yul\":6225:6226   */\n      0x00\n        /* \"#utility.yul\":6218:6306   */\n      mstore\n        /* \"#utility.yul\":6325:6329   */\n      0x32\n        /* \"#utility.yul\":6322:6323   */\n      0x04\n        /* \"#utility.yul\":6315:6330   */\n      mstore\n        /* \"#utility.yul\":6349:6353   */\n      0x24\n        /* \"#utility.yul\":6346:6347   */\n      0x00\n        /* \"#utility.yul\":6339:6354   */\n      revert\n        /* \"#utility.yul\":6366:6546   */\n    tag_108:\n        /* \"#utility.yul\":6414:6491   */\n      0x4e487b7100000000000000000000000000000000000000000000000000000000\n        /* \"#utility.yul\":6411:6412   */\n      0x00\n        /* \"#utility.yul\":6404:6492   */\n      mstore\n        /* \"#utility.yul\":6511:6515   */\n      0x22\n        /* \"#utility.yul\":6508:6509   */\n      0x04\n        /* \"#utility.yul\":6501:6516   */\n      mstore\n        /* \"#utility.yul\":6535:6539   */\n      0x24\n        /* \"#utility.yul\":6532:6533   */\n      0x00\n        /* \"#utility.yul\":6525:6540   */\n      revert\n        /* \"#utility.yul\":6552:6872   */\n    tag_62:\n        /* \"#utility.yul\":6596:6602   */\n      0x00\n        /* \"#utility.yul\":6633:6634   */\n      0x02\n        /* \"#utility.yul\":6627:6631   */\n      dup3\n        /* \"#utility.yul\":6623:6635   */\n      div\n        /* \"#utility.yul\":6613:6635   */\n      swap1\n      pop\n        /* \"#utility.yul\":6680:6681   */\n      0x01\n        /* \"#utility.yul\":6674:6678   */\n      dup3\n        /* \"#utility.yul\":6670:6682   */\n      and\n        /* \"#utility.yul\":6701:6719   */\n      dup1\n        /* \"#utility.yul\":6691:6772   */\n      tag_201\n      jumpi\n        /* \"#utility.yul\":6757:6761   */\n      0x7f\n        /* \"#utility.yul\":6749:6755   */\n      dup3\n        /* \"#utility.yul\":6745:6762   */\n      and\n        /* \"#utility.yul\":6735:6762   */\n      swap2\n      pop\n        /* \"#utility.yul\":6691:6772   */\n    tag_201:\n        /* \"#utility.yul\":6819:6821   */\n      0x20\n        /* \"#utility.yul\":6811:6817   */\n      dup3\n        /* \"#utility.yul\":6808:6822   */\n      lt\n        /* \"#utility.yul\":6788:6806   */\n      dup2\n        /* \"#utility.yul\":6785:6823   */\n      sub\n        /* \"#utility.yul\":6782:6866   */\n      tag_202\n      jumpi\n        /* \"#utility.yul\":6838:6856   */\n      tag_203\n      tag_108\n      jump\t// in\n    tag_203:\n        /* \"#utility.yul\":6782:6866   */\n    tag_202:\n        /* \"#utility.yul\":6603:6872   */\n      pop\n        /* \"#utility.yul\":6552:6872   */\n      swap2\n      swap1\n      pop\n      jump\t// out\n        /* \"#utility.yul\":6878:7019   */\n    tag_109:\n        /* \"#utility.yul\":6927:6931   */\n      0x00\n        /* \"#utility.yul\":6950:6953   */\n      dup2\n        /* \"#utility.yul\":6942:6953   */\n      swap1\n      pop\n        /* \"#utility.yul\":6973:6976   */\n      dup2\n        /* \"#utility.yul\":6970:6971   */\n      0x00\n        /* \"#utility.yul\":6963:6977   */\n      mstore\n        /* \"#utility.yul\":7007:7011   */\n      0x20\n        /* \"#utility.yul\":7004:7005   */\n      0x00\n        /* \"#utility.yul\":6994:7012   */\n      keccak256\n        /* \"#utility.yul\":6986:7012   */\n      swap1\n      pop\n        /* \"#utility.yul\":6878:7019   */\n      swap2\n      swap1\n      pop\n      jump\t// out\n        /* \"#utility.yul\":7049:7923   */\n    tag_110:\n        /* \"#utility.yul\":7152:7155   */\n      0x00\n        /* \"#utility.yul\":7189:7194   */\n      dup2\n        /* \"#utility.yul\":7183:7195   */\n      sload\n        /* \"#utility.yul\":7218:7254   */\n      tag_206\n        /* \"#utility.yul\":7244:7253   */\n      dup2\n        /* \"#utility.yul\":7218:7254   */\n      tag_62\n      jump\t// in\n    tag_206:\n        /* \"#utility.yul\":7270:7359   */\n      tag_207\n        /* \"#utility.yul\":7352:7358   */\n      dup2\n        /* \"#utility.yul\":7347:7350   */\n      dup7\n        /* \"#utility.yul\":7270:7359   */\n      tag_106\n      jump\t// in\n    tag_207:\n        /* \"#utility.yul\":7263:7359   */\n      swap5\n      pop\n        /* \"#utility.yul\":7390:7391   */\n      0x01\n        /* \"#utility.yul\":7379:7388   */\n      dup3\n        /* \"#utility.yul\":7375:7392   */\n      and\n        /* \"#utility.yul\":7406:7407   */\n      0x00\n        /* \"#utility.yul\":7401:7567   */\n      dup2\n      eq\n      tag_209\n      jumpi\n        /* \"#utility.yul\":7581:7582   */\n      0x01\n        /* \"#utility.yul\":7576:7917   */\n      dup2\n      eq\n      tag_210\n      jumpi\n        /* \"#utility.yul\":7368:7917   */\n      jump(tag_208)\n        /* \"#utility.yul\":7401:7567   */\n    tag_209:\n        /* \"#utility.yul\":7485:7489   */\n      0xff\n        /* \"#utility.yul\":7481:7490   */\n      not\n        /* \"#utility.yul\":7470:7479   */\n      dup4\n        /* \"#utility.yul\":7466:7491   */\n      and\n        /* \"#utility.yul\":7461:7464   */\n      dup7\n        /* \"#utility.yul\":7454:7492   */\n      mstore\n        /* \"#utility.yul\":7547:7553   */\n      dup2\n        /* \"#utility.yul\":7540:7554   */\n      iszero\n        /* \"#utility.yul\":7533:7555   */\n      iszero\n        /* \"#utility.yul\":7525:7531   */\n      dup3\n        /* \"#utility.yul\":7521:7556   */\n      mul\n        /* \"#utility.yul\":7516:7519   */\n      dup7\n        /* \"#utility.yul\":7512:7557   */\n      add\n        /* \"#utility.yul\":7505:7557   */\n      swap4\n      pop\n        /* \"#utility.yul\":7401:7567   */\n      jump(tag_208)\n        /* \"#utility.yul\":7576:7917   */\n    tag_210:\n        /* \"#utility.yul\":7643:7681   */\n      tag_211\n        /* \"#utility.yul\":7675:7680   */\n      dup6\n        /* \"#utility.yul\":7643:7681   */\n      tag_109\n      jump\t// in\n    tag_211:\n        /* \"#utility.yul\":7703:7704   */\n      0x00\n        /* \"#utility.yul\":7717:7871   */\n    tag_212:\n        /* \"#utility.yul\":7731:7737   */\n      dup4\n        /* \"#utility.yul\":7728:7729   */\n      dup2\n        /* \"#utility.yul\":7725:7738   */\n      lt\n        /* \"#utility.yul\":7717:7871   */\n      iszero\n      tag_214\n      jumpi\n        /* \"#utility.yul\":7805:7812   */\n      dup2\n        /* \"#utility.yul\":7799:7813   */\n      sload\n        /* \"#utility.yul\":7795:7796   */\n      dup2\n        /* \"#utility.yul\":7790:7793   */\n      dup10\n        /* \"#utility.yul\":7786:7797   */\n      add\n        /* \"#utility.yul\":7779:7814   */\n      mstore\n        /* \"#utility.yul\":7855:7856   */\n      0x01\n        /* \"#utility.yul\":7846:7853   */\n      dup3\n        /* \"#utility.yul\":7842:7857   */\n      add\n        /* \"#utility.yul\":7831:7857   */\n      swap2\n      pop\n        /* \"#utility.yul\":7753:7757   */\n      0x20\n        /* \"#utility.yul\":7750:7751   */\n      dup2\n        /* \"#utility.yul\":7746:7758   */\n      add\n        /* \"#utility.yul\":7741:7758   */\n      swap1\n      pop\n        /* \"#utility.yul\":7717:7871   */\n      jump(tag_212)\n    tag_214:\n        /* \"#utility.yul\":7900:7906   */\n      dup4\n        /* \"#utility.yul\":7895:7898   */\n      dup9\n        /* \"#utility.yul\":7891:7907   */\n      add\n        /* \"#utility.yul\":7884:7907   */\n      swap6\n      pop\n        /* \"#utility.yul\":7583:7917   */\n      pop\n      pop\n        /* \"#utility.yul\":7368:7917   */\n    tag_208:\n      pop\n        /* \"#utility.yul\":7156:7923   */\n      pop\n      pop\n        /* \"#utility.yul\":7049:7923   */\n      swap3\n      swap2\n      pop\n      pop\n      jump\t// out\n        /* \"#utility.yul\":7929:8198   */\n    tag_51:\n        /* \"#utility.yul\":8058:8061   */\n      0x00\n        /* \"#utility.yul\":8080:8172   */\n      tag_216\n        /* \"#utility.yul\":8168:8171   */\n      dup3\n        /* \"#utility.yul\":8159:8165   */\n      dup5\n        /* \"#utility.yul\":8080:8172   */\n      tag_110\n      jump\t// in\n    tag_216:\n        /* \"#utility.yul\":8073:8172   */\n      swap2\n      pop\n        /* \"#utility.yul\":8189:8192   */\n      dup2\n        /* \"#utility.yul\":8182:8192   */\n      swap1\n      pop\n        /* \"#utility.yul\":7929:8198   */\n      swap3\n      swap2\n      pop\n      pop\n      jump\t// out\n        /* \"#utility.yul\":8204:8384   */\n    tag_111:\n        /* \"#utility.yul\":8252:8329   */\n      0x4e487b7100000000000000000000000000000000000000000000000000000000\n        /* \"#utility.yul\":8249:8250   */\n      0x00\n        /* \"#utility.yul\":8242:8330   */\n      mstore\n        /* \"#utility.yul\":8349:8353   */\n      0x11\n        /* \"#utility.yul\":8346:8347   */\n      0x04\n        /* \"#utility.yul\":8339:8354   */\n      mstore\n        /* \"#utility.yul\":8373:8377   */\n      0x24\n        /* \"#utility.yul\":8370:8371   */\n      0x00\n        /* \"#utility.yul\":8363:8378   */\n      revert\n        /* \"#utility.yul\":8390:8581   */\n    tag_53:\n        /* \"#utility.yul\":8430:8433   */\n      0x00\n        /* \"#utility.yul\":8449:8469   */\n      tag_219\n        /* \"#utility.yul\":8467:8468   */\n      dup3\n        /* \"#utility.yul\":8449:8469   */\n      tag_85\n      jump\t// in\n    tag_219:\n        /* \"#utility.yul\":8444:8469   */\n      swap2\n      pop\n        /* \"#utility.yul\":8483:8503   */\n      tag_220\n        /* \"#utility.yul\":8501:8502   */\n      dup4\n        /* \"#utility.yul\":8483:8503   */\n      tag_85\n      jump\t// in\n    tag_220:\n        /* \"#utility.yul\":8478:8503   */\n      swap3\n      pop\n        /* \"#utility.yul\":8526:8527   */\n      dup3\n        /* \"#utility.yul\":8523:8524   */\n      dup3\n        /* \"#utility.yul\":8519:8528   */\n      add\n        /* \"#utility.yul\":8512:8528   */\n      swap1\n      pop\n        /* \"#utility.yul\":8547:8550   */\n      dup1\n        /* \"#utility.yul\":8544:8545   */\n      dup3\n        /* \"#utility.yul\":8541:8551   */\n      gt\n        /* \"#utility.yul\":8538:8574   */\n      iszero\n      tag_221\n      jumpi\n        /* \"#utility.yul\":8554:8572   */\n      tag_222\n      tag_111\n      jump\t// in\n    tag_222:\n        /* \"#utility.yul\":8538:8574   */\n    tag_221:\n        /* \"#utility.yul\":8390:8581   */\n      swap3\n      swap2\n      pop\n      pop\n      jump\t// out\n        /* \"#utility.yul\":8587:8755   */\n    tag_112:\n        /* \"#utility.yul\":8727:8747   */\n      0x496e646578206f7574206f662072616e67650000000000000000000000000000\n        /* \"#utility.yul\":8723:8724   */\n      0x00\n        /* \"#utility.yul\":8715:8721   */\n      dup3\n        /* \"#utility.yul\":8711:8725   */\n      add\n        /* \"#utility.yul\":8704:8748   */\n      mstore\n        /* \"#utility.yul\":8587:8755   */\n      pop\n      jump\t// out\n        /* \"#utility.yul\":8761:9127   */\n    tag_113:\n        /* \"#utility.yul\":8903:8906   */\n      0x00\n        /* \"#utility.yul\":8924:8991   */\n      tag_225\n        /* \"#utility.yul\":8988:8990   */\n      0x12\n        /* \"#utility.yul\":8983:8986   */\n      dup4\n        /* \"#utility.yul\":8924:8991   */\n      tag_103\n      jump\t// in\n    tag_225:\n        /* \"#utility.yul\":8917:8991   */\n      swap2\n      pop\n        /* \"#utility.yul\":9000:9093   */\n      tag_226\n        /* \"#utility.yul\":9089:9092   */\n      dup3\n        /* \"#utility.yul\":9000:9093   */\n      tag_112\n      jump\t// in\n    tag_226:\n        /* \"#utility.yul\":9118:9120   */\n      0x20\n        /* \"#utility.yul\":9113:9116   */\n      dup3\n        /* \"#utility.yul\":9109:9121   */\n      add\n        /* \"#utility.yul\":9102:9121   */\n      swap1\n      pop\n        /* \"#utility.yul\":8761:9127   */\n      swap2\n      swap1\n      pop\n      jump\t// out\n        /* \"#utility.yul\":9133:9552   */\n    tag_57:\n        /* \"#utility.yul\":9299:9303   */\n      0x00\n        /* \"#utility.yul\":9337:9339   */\n      0x20\n        /* \"#utility.yul\":9326:9335   */\n      dup3\n        /* \"#utility.yul\":9322:9340   */\n      add\n        /* \"#utility.yul\":9314:9340   */\n      swap1\n      pop\n        /* \"#utility.yul\":9386:9395   */\n      dup2\n        /* \"#utility.yul\":9380:9384   */\n      dup2\n        /* \"#utility.yul\":9376:9396   */\n      sub\n        /* \"#utility.yul\":9372:9373   */\n      0x00\n        /* \"#utility.yul\":9361:9370   */\n      dup4\n        /* \"#utility.yul\":9357:9374   */\n      add\n        /* \"#utility.yul\":9350:9397   */\n      mstore\n        /* \"#utility.yul\":9414:9545   */\n      tag_228\n        /* \"#utility.yul\":9540:9544   */\n      dup2\n        /* \"#utility.yul\":9414:9545   */\n      tag_113\n      jump\t// in\n    tag_228:\n        /* \"#utility.yul\":9406:9545   */\n      swap1\n      pop\n        /* \"#utility.yul\":9133:9552   */\n      swap2\n      swap1\n      pop\n      jump\t// out\n        /* \"#utility.yul\":9558:9651   */\n    tag_114:\n        /* \"#utility.yul\":9595:9601   */\n      0x00\n        /* \"#utility.yul\":9642:9644   */\n      0x20\n        /* \"#utility.yul\":9637:9639   */\n      0x1f\n        /* \"#utility.yul\":9630:9635   */\n      dup4\n        /* \"#utility.yul\":9626:9640   */\n      add\n        /* \"#utility.yul\":9622:9645   */\n      div\n        /* \"#utility.yul\":9612:9645   */\n      swap1\n      pop\n        /* \"#utility.yul\":9558:9651   */\n      swap2\n      swap1\n      pop\n      jump\t// out\n        /* \"#utility.yul\":9657:9764   */\n    tag_115:\n        /* \"#utility.yul\":9701:9709   */\n      0x00\n        /* \"#utility.yul\":9751:9756   */\n      dup3\n        /* \"#utility.yul\":9745:9749   */\n      dup3\n        /* \"#utility.yul\":9741:9757   */\n      shl\n        /* \"#utility.yul\":9720:9757   */\n      swap1\n      pop\n        /* \"#utility.yul\":9657:9764   */\n      swap3\n      swap2\n      pop\n      pop\n      jump\t// out\n        /* \"#utility.yul\":9770:10163   */\n    tag_116:\n        /* \"#utility.yul\":9839:9845   */\n      0x00\n        /* \"#utility.yul\":9889:9890   */\n      0x08\n        /* \"#utility.yul\":9877:9887   */\n      dup4\n        /* \"#utility.yul\":9873:9891   */\n      mul\n        /* \"#utility.yul\":9912:10009   */\n      tag_232\n        /* \"#utility.yul\":9942:10008   */\n      0xffffffffffffffffffffffffffffffffffffffffffffffffffffffffffffffff\n        /* \"#utility.yul\":9931:9940   */\n      dup3\n        /* \"#utility.yul\":9912:10009   */\n      tag_115\n      jump\t// in\n    tag_232:\n        /* \"#utility.yul\":10030:10069   */\n      tag_233\n        /* \"#utility.yul\":10060:10068   */\n      dup7\n        /* \"#utility.yul\":10049:10058   */\n      dup4\n        /* \"#utility.yul\":10030:10069   */\n      tag_115\n      jump\t// in\n    tag_233:\n        /* \"#utility.yul\":10018:10069   */\n      swap6\n      pop\n        /* \"#utility.yul\":10102:10106   */\n      dup1\n        /* \"#utility.yul\":10098:10107   */\n      not\n        /* \"#utility.yul\":10091:10096   */\n      dup5\n        /* \"#utility.yul\":10087:10108   */\n      and\n        /* \"#utility.yul\":10078:10108   */\n      swap4\n      pop\n        /* \"#utility.yul\":10151:10155   */\n      dup1\n        /* \"#utility.yul\":10141:10149   */\n      dup7\n        /* \"#utility.yul\":10137:10156   */\n      and\n        /* \"#utility.yul\":10130:10135   */\n      dup5\n        /* \"#utility.yul\":10127:10157   */\n      or\n        /* \"#utility.yul\":10117:10157   */\n      swap3\n      pop\n        /* \"#utility.yul\":9846:10163   */\n      pop\n      pop\n        /* \"#utility.yul\":9770:10163   */\n      swap4\n      swap3\n      pop\n      pop\n      pop\n      jump\t// out\n        /* \"#utility.yul\":10169:10229   */\n    tag_117:\n        /* \"#utility.yul\":10197:10200   */\n      0x00\n        /* \"#utility.yul\":10218:10223   */\n      dup2\n        /* \"#utility.yul\":10211:10223   */\n      swap1\n      pop\n        /* \"#utility.yul\":10169:10229   */\n      swap2\n      swap1\n      pop\n      jump\t// out\n        /* \"#utility.yul\":10235:10377   */\n    tag_118:\n        /* \"#utility.yul\":10285:10294   */\n      0x00\n        /* \"#utility.yul\":10318:10371   */\n      tag_236\n        /* \"#utility.yul\":10336:10370   */\n      tag_237\n        /* \"#utility.yul\":10345:10369   */\n      tag_238\n        /* \"#utility.yul\":10363:10368   */\n      dup5\n        /* \"#utility.yul\":10345:10369   */\n      tag_85\n      jump\t// in\n    tag_238:\n        /* \"#utility.yul\":10336:10370   */\n      tag_117\n      jump\t// in\n    tag_237:\n        /* \"#utility.yul\":10318:10371   */\n      tag_85\n      jump\t// in\n    tag_236:\n        /* \"#utility.yul\":10305:10371   */\n      swap1\n      pop\n        /* \"#utility.yul\":10235:10377   */\n      swap2\n      swap1\n      pop\n      jump\t// out\n        /* \"#utility.yul\":10383:10458   */\n    tag_119:\n        /* \"#utility.yul\":10426:10429   */\n      0x00\n        /* \"#utility.yul\":10447:10452   */\n      dup2\n        /* \"#utility.yul\":10440:10452   */\n      swap1\n      pop\n        /* \"#utility.yul\":10383:10458   */\n      swap2\n      swap1\n      pop\n      jump\t// out\n        /* \"#utility.yul\":10464:10733   */\n    tag_120:\n        /* \"#utility.yul\":10574:10613   */\n      tag_241\n        /* \"#utility.yul\":10605:10612   */\n      dup4\n        /* \"#utility.yul\":10574:10613   */\n      tag_118\n      jump\t// in\n    tag_241:\n        /* \"#utility.yul\":10635:10726   */\n      tag_242\n        /* \"#utility.yul\":10684:10725   */\n      tag_243\n        /* \"#utility.yul\":10708:10724   */\n      dup3\n        /* \"#utility.yul\":10684:10725   */\n      tag_119\n      jump\t// in\n    tag_243:\n        /* \"#utility.yul\":10676:10682   */\n      dup5\n        /* \"#utility.yul\":10669:10673   */\n      dup5\n        /* \"#utility.yul\":10663:10674   */\n      sload\n        /* \"#utility.yul\":10635:10726   */\n      tag_116\n      jump\t// in\n    tag_242:\n        /* \"#utility.yul\":10629:10633   */\n      dup3\n        /* \"#utility.yul\":10622:10727   */\n      sstore\n        /* \"#utility.yul\":10540:10733   */\n      pop\n        /* \"#utility.yul\":10464:10733   */\n      pop\n      pop\n      pop\n      jump\t// out\n        /* \"#utility.yul\":10739:10812   */\n    tag_121:\n        /* \"#utility.yul\":10784:10787   */\n      0x00\n        /* \"#utility.yul\":10805:10806   */\n      0x00\n        /* \"#utility.yul\":10798:10806   */\n      swap1\n      pop\n        /* \"#utility.yul\":10739:10812   */\n      swap1\n      jump\t// out\n        /* \"#utility.yul\":10818:11007   */\n    tag_122:\n        /* \"#utility.yul\":10895:10927   */\n      tag_246\n      tag_121\n      jump\t// in\n    tag_246:\n        /* \"#utility.yul\":10936:11001   */\n      tag_247\n        /* \"#utility.yul\":10994:11000   */\n      dup2\n        /* \"#utility.yul\":10986:10992   */\n      dup5\n        /* \"#utility.yul\":10980:10984   */\n      dup5\n        /* \"#utility.yul\":10936:11001   */\n      tag_120\n      jump\t// in\n    tag_247:\n        /* \"#utility.yul\":10871:11007   */\n      pop\n        /* \"#utility.yul\":10818:11007   */\n      pop\n      pop\n      jump\t// out\n        /* \"#utility.yul\":11013:11199   */\n    tag_123:\n        /* \"#utility.yul\":11073:11193   */\n    tag_249:\n        /* \"#utility.yul\":11090:11093   */\n      dup2\n        /* \"#utility.yul\":11083:11088   */\n      dup2\n        /* \"#utility.yul\":11080:11094   */\n      lt\n        /* \"#utility.yul\":11073:11193   */\n      iszero\n      tag_251\n      jumpi\n        /* \"#utility.yul\":11144:11183   */\n      tag_252\n        /* \"#utility.yul\":11181:11182   */\n      0x00\n        /* \"#utility.yul\":11174:11179   */\n      dup3\n        /* \"#utility.yul\":11144:11183   */\n      tag_122\n      jump\t// in\n    tag_252:\n        /* \"#utility.yul\":11117:11118   */\n      0x01\n        /* \"#utility.yul\":11110:11115   */\n      dup2\n        /* \"#utility.yul\":11106:11119   */\n      add\n        /* \"#utility.yul\":11097:11119   */\n      swap1\n      pop\n        /* \"#utility.yul\":11073:11193   */\n      jump(tag_249)\n    tag_251:\n        /* \"#utility.yul\":11013:11199   */\n      pop\n      pop\n      jump\t// out\n        /* \"#utility.yul\":11205:11748   */\n    tag_124:\n        /* \"#utility.yul\":11306:11308   */\n      0x1f\n        /* \"#utility.yul\":11301:11304   */\n      dup3\n        /* \"#utility.yul\":11298:11309   */\n      gt\n        /* \"#utility.yul\":11295:11741   */\n      iszero\n      tag_254\n      jumpi\n        /* \"#utility.yul\":11340:11378   */\n      tag_255\n        /* \"#utility.yul\":11372:11377   */\n      dup2\n        /* \"#utility.yul\":11340:11378   */\n      tag_109\n      jump\t// in\n    tag_255:\n        /* \"#utility.yul\":11424:11453   */\n      tag_256\n        /* \"#utility.yul\":11442:11452   */\n      dup5\n        /* \"#utility.yul\":11424:11453   */\n      tag_114\n      jump\t// in\n    tag_256:\n        /* \"#utility.yul\":11414:11422   */\n      dup2\n        /* \"#utility.yul\":11410:11454   */\n      add\n        /* \"#utility.yul\":11607:11609   */\n      0x20\n        /* \"#utility.yul\":11595:11605   */\n      dup6\n        /* \"#utility.yul\":11592:11610   */\n      lt\n        /* \"#utility.yul\":11589:11638   */\n      iszero\n      tag_257\n      jumpi\n        /* \"#utility.yul\":11628:11636   */\n      dup2\n        /* \"#utility.yul\":11613:11636   */\n      swap1\n      pop\n        /* \"#utility.yul\":11589:11638   */\n    tag_257:\n        /* \"#utility.yul\":11651:11731   */\n      tag_258\n        /* \"#utility.yul\":11707:11729   */\n      tag_259\n        /* \"#utility.yul\":11725:11728   */\n      dup6\n        /* \"#utility.yul\":11707:11729   */\n      tag_114\n      jump\t// in\n    tag_259:\n        /* \"#utility.yul\":11697:11705   */\n      dup4\n        /* \"#utility.yul\":11693:11730   */\n      add\n        /* \"#utility.yul\":11680:11691   */\n      dup3\n        /* \"#utility.yul\":11651:11731   */\n      tag_123\n      jump\t// in\n    tag_258:\n        /* \"#utility.yul\":11310:11741   */\n      pop\n      pop\n        /* \"#utility.yul\":11295:11741   */\n    tag_254:\n        /* \"#utility.yul\":11205:11748   */\n      pop\n      pop\n      pop\n      jump\t// out\n        /* \"#utility.yul\":11754:11871   */\n    tag_125:\n        /* \"#utility.yul\":11808:11816   */\n      0x00\n        /* \"#utility.yul\":11858:11863   */\n      dup3\n        /* \"#utility.yul\":11852:11856   */\n      dup3\n        /* \"#utility.yul\":11848:11864   */\n      shr\n        /* \"#utility.yul\":11827:11864   */\n      swap1\n      pop\n        /* \"#utility.yul\":11754:11871   */\n      swap3\n      swap2\n      pop\n      pop\n      jump\t// out\n        /* \"#utility.yul\":11877:12046   */\n    tag_126:\n        /* \"#utility.yul\":11921:11927   */\n      0x00\n        /* \"#utility.yul\":11954:12005   */\n      tag_262\n        /* \"#utility.yul\":12002:12003   */\n      0x00\n        /* \"#utility.yul\":11998:12004   */\n      not\n        /* \"#utility.yul\":11990:11995   */\n      dup5\n        /* \"#utility.yul\":11987:11988   */\n      0x08\n        /* \"#utility.yul\":11983:11996   */\n      mul\n        /* \"#utility.yul\":11954:12005   */\n      tag_125\n      jump\t// in\n    tag_262:\n        /* \"#utility.yul\":11950:12006   */\n      not\n        /* \"#utility.yul\":12035:12039   */\n      dup1\n        /* \"#utility.yul\":12029:12033   */\n      dup4\n        /* \"#utility.yul\":12025:12040   */\n      and\n        /* \"#utility.yul\":12015:12040   */\n      swap2\n      pop\n        /* \"#utility.yul\":11928:12046   */\n      pop\n        /* \"#utility.yul\":11877:12046   */\n      swap3\n      swap2\n      pop\n      pop\n      jump\t// out\n        /* \"#utility.yul\":12051:12346   */\n    tag_127:\n        /* \"#utility.yul\":12127:12131   */\n      0x00\n        /* \"#utility.yul\":12273:12302   */\n      tag_264\n        /* \"#utility.yul\":12298:12301   */\n      dup4\n        /* \"#utility.yul\":12292:12296   */\n      dup4\n        /* \"#utility.yul\":12273:12302   */\n      tag_126\n      jump\t// in\n    tag_264:\n        /* \"#utility.yul\":12265:12302   */\n      swap2\n      pop\n        /* \"#utility.yul\":12335:12338   */\n      dup3\n        /* \"#utility.yul\":12332:12333   */\n      0x02\n        /* \"#utility.yul\":12328:12339   */\n      mul\n        /* \"#utility.yul\":12322:12326   */\n      dup3\n        /* \"#utility.yul\":12319:12340   */\n      or\n        /* \"#utility.yul\":12311:12340   */\n      swap1\n      pop\n        /* \"#utility.yul\":12051:12346   */\n      swap3\n      swap2\n      pop\n      pop\n      jump\t// out\n        /* \"#utility.yul\":12351:13746   */\n    tag_81:\n        /* \"#utility.yul\":12468:12505   */\n      tag_266\n        /* \"#utility.yul\":12501:12504   */\n      dup3\n        /* \"#utility.yul\":12468:12505   */\n      tag_102\n      jump\t// in\n    tag_266:\n        /* \"#utility.yul\":12570:12588   */\n      0xffffffffffffffff\n        /* \"#utility.yul\":12562:12568   */\n      dup2\n        /* \"#utility.yul\":12559:12589   */\n      gt\n        /* \"#utility.yul\":12556:12612   */\n      iszero\n      tag_267\n      jumpi\n        /* \"#utility.yul\":12592:12610   */\n      tag_268\n      tag_93\n      jump\t// in\n    tag_268:\n        /* \"#utility.yul\":12556:12612   */\n    tag_267:\n        /* \"#utility.yul\":12636:12674   */\n      tag_269\n        /* \"#utility.yul\":12668:12672   */\n      dup3\n        /* \"#utility.yul\":12662:12673   */\n      sload\n        /* \"#utility.yul\":12636:12674   */\n      tag_62\n      jump\t// in\n    tag_269:\n        /* \"#utility.yul\":12721:12788   */\n      tag_270\n        /* \"#utility.yul\":12781:12787   */\n      dup3\n        /* \"#utility.yul\":12773:12779   */\n      dup3\n        /* \"#utility.yul\":12767:12771   */\n      dup6\n        /* \"#utility.yul\":12721:12788   */\n      tag_124\n      jump\t// in\n    tag_270:\n        /* \"#utility.yul\":12815:12816   */\n      0x00\n        /* \"#utility.yul\":12839:12843   */\n      0x20\n        /* \"#utility.yul\":12826:12843   */\n      swap1\n      pop\n        /* \"#utility.yul\":12871:12873   */\n      0x1f\n        /* \"#utility.yul\":12863:12869   */\n      dup4\n        /* \"#utility.yul\":12860:12874   */\n      gt\n        /* \"#utility.yul\":12888:12889   */\n      0x01\n        /* \"#utility.yul\":12883:13501   */\n      dup2\n      eq\n      tag_272\n      jumpi\n        /* \"#utility.yul\":13545:13546   */\n      0x00\n        /* \"#utility.yul\":13562:13568   */\n      dup5\n        /* \"#utility.yul\":13559:13636   */\n      iszero\n      tag_273\n      jumpi\n        /* \"#utility.yul\":13611:13620   */\n      dup3\n        /* \"#utility.yul\":13606:13609   */\n      dup8\n        /* \"#utility.yul\":13602:13621   */\n      add\n        /* \"#utility.yul\":13596:13622   */\n      mload\n        /* \"#utility.yul\":13587:13622   */\n      swap1\n      pop\n        /* \"#utility.yul\":13559:13636   */\n    tag_273:\n        /* \"#utility.yul\":13662:13729   */\n      tag_274\n        /* \"#utility.yul\":13722:13728   */\n      dup6\n        /* \"#utility.yul\":13715:13720   */\n      dup3\n        /* \"#utility.yul\":13662:13729   */\n      tag_127\n      jump\t// in\n    tag_274:\n        /* \"#utility.yul\":13656:13660   */\n      dup7\n        /* \"#utility.yul\":13649:13730   */\n      sstore\n        /* \"#utility.yul\":13518:13740   */\n      pop\n        /* \"#utility.yul\":12853:13740   */\n      jump(tag_271)\n        /* \"#utility.yul\":12883:13501   */\n    tag_272:\n        /* \"#utility.yul\":12935:12939   */\n      0x1f\n        /* \"#utility.yul\":12931:12940   */\n      not\n        /* \"#utility.yul\":12923:12929   */\n      dup5\n        /* \"#utility.yul\":12919:12941   */\n      and\n        /* \"#utility.yul\":12969:13006   */\n      tag_275\n        /* \"#utility.yul\":13001:13005   */\n      dup7\n        /* \"#utility.yul\":12969:13006   */\n      tag_109\n      jump\t// in\n    tag_275:\n        /* \"#utility.yul\":13028:13029   */\n      0x00\n        /* \"#utility.yul\":13042:13250   */\n    tag_276:\n        /* \"#utility.yul\":13056:13063   */\n      dup3\n        /* \"#utility.yul\":13053:13054   */\n      dup2\n        /* \"#utility.yul\":13050:13064   */\n      lt\n        /* \"#utility.yul\":13042:13250   */\n      iszero\n      tag_278\n      jumpi\n        /* \"#utility.yul\":13135:13144   */\n      dup5\n        /* \"#utility.yul\":13130:13133   */\n      dup10\n        /* \"#utility.yul\":13126:13145   */\n      add\n        /* \"#utility.yul\":13120:13146   */\n      mload\n        /* \"#utility.yul\":13112:13118   */\n      dup3\n        /* \"#utility.yul\":13105:13147   */\n      sstore\n        /* \"#utility.yul\":13186:13187   */\n      0x01\n        /* \"#utility.yul\":13178:13184   */\n      dup3\n        /* \"#utility.yul\":13174:13188   */\n      add\n        /* \"#utility.yul\":13164:13188   */\n      swap2\n      pop\n        /* \"#utility.yul\":13233:13235   */\n      0x20\n        /* \"#utility.yul\":13222:13231   */\n      dup6\n        /* \"#utility.yul\":13218:13236   */\n      add\n        /* \"#utility.yul\":13205:13236   */\n      swap5\n      pop\n        /* \"#utility.yul\":13079:13083   */\n      0x20\n        /* \"#utility.yul\":13076:13077   */\n      dup2\n        /* \"#utility.yul\":13072:13084   */\n      add\n        /* \"#utility.yul\":13067:13084   */\n      swap1\n      pop\n        /* \"#utility.yul\":13042:13250   */\n      jump(tag_276)\n    tag_278:\n        /* \"#utility.yul\":13278:13284   */\n      dup7\n        /* \"#utility.yul\":13269:13276   */\n      dup4\n        /* \"#utility.yul\":13266:13285   */\n      lt\n        /* \"#utility.yul\":13263:13442   */\n      iszero\n      tag_279\n      jumpi\n        /* \"#utility.yul\":13336:13345   */\n      dup5\n        /* \"#utility.yul\":13331:13334   */\n      dup10\n        /* \"#utility.yul\":13327:13346   */\n      add\n        /* \"#utility.yul\":13321:13347   */\n      mload\n        /* \"#utility.yul\":13379:13427   */\n      tag_280\n        /* \"#utility.yul\":13421:13425   */\n      0x1f\n        /* \"#utility.yul\":13413:13419   */\n      dup10\n        /* \"#utility.yul\":13409:13426   */\n      and\n        /* \"#utility.yul\":13398:13407   */\n      dup3\n        /* \"#utility.yul\":13379:13427   */\n      tag_126\n      jump\t// in\n    tag_280:\n        /* \"#utility.yul\":13371:13377   */\n      dup4\n        /* \"#utility.yul\":13364:13428   */\n      sstore\n        /* \"#utility.yul\":13286:13442   */\n      pop\n        /* \"#utility.yul\":13263:13442   */\n    tag_279:\n        /* \"#utility.yul\":13488:13489   */\n      0x01\n        /* \"#utility.yul\":13484:13485   */\n      0x02\n        /* \"#utility.yul\":13476:13482   */\n      dup9\n        /* \"#utility.yul\":13472:13486   */\n      mul\n        /* \"#utility.yul\":13468:13490   */\n      add\n        /* \"#utility.yul\":13462:13466   */\n      dup9\n        /* \"#utility.yul\":13455:13491   */\n      sstore\n        /* \"#utility.yul\":12890:13501   */\n      pop\n      pop\n      pop\n        /* \"#utility.yul\":12853:13740   */\n    tag_271:\n      pop\n        /* \"#utility.yul\":12443:13746   */\n      pop\n      pop\n      pop\n        /* \"#utility.yul\":12351:13746   */\n      pop\n      pop\n      jump\t// out\n\n    auxdata: 0xa2646970667358221220eaf5feecf9b524655279d175e20df1f1690eca8df28f6d23b2263450ef8e0a4264736f6c634300081e0033\n}\n",
				"bytecode": {
					"linkReferences": {},
					"object": "6080604052348015600e575f5ffd5b50610c478061001c5f395ff3fe608060405234801561000f575f5ffd5b506004361061007b575f3560e01c80639a0e7d66116100595780639a0e7d66146100fd578063ab172cf51461011b578063b9830ff11461014b578063fc36e15b146101555761007b565b806330a563471461007f578063805265e51461009d5780638d4b44d9146100cd575b5f5ffd5b610087610171565b60405161009491906104ce565b60405180910390f35b6100b760048036038101906100b29190610634565b61017d565b6040516100c491906104ce565b60405180910390f35b6100e760048036038101906100e29190610634565b6101a3565b6040516100f491906104ce565b60405180910390f35b6101056101cf565b60405161011291906104ce565b60405180910390f35b610135600480360381019061013091906106a5565b61023c565b604051610142919061074a565b60405180910390f35b61015361032f565b005b61016f600480360381019061016a9190610634565b61038e565b005b5f600180549050905090565b5f5f8260405161018d91906107a4565b9081526020016040518091039020549050919050565b5f818051602081018201805184825260208301602085012081835280955050505050505f915090505481565b5f5f90505f5f90505b600180549050811015610238575f600182815481106101fa576101f96107ba565b5b905f5260205f200160405161020f91906108d6565b908152602001604051809103902054826102299190610919565b915080806001019150506101d8565b5090565b60606001805490508210610285576040517f08c379a000000000000000000000000000000000000000000000000000000000815260040161027c90610996565b60405180910390fd5b60018281548110610299576102986107ba565b5b905f5260205f200180546102ac90610814565b80601f01602080910402602001604051908101604052809291908181526020018280546102d890610814565b80156103235780601f106102fa57610100808354040283529160200191610323565b820191905f5260205f20905b81548152906001019060200180831161030657829003601f168201915b50505050509050919050565b5f5f90505b60018054905081101561038b575f5f60018381548110610357576103566107ba565b5b905f5260205f200160405161036c91906108d6565b9081526020016040518091039020819055508080600101915050610334565b50565b60028160405161039e91906107a4565b90815260200160405180910390205f9054906101000a900460ff166104265760016002826040516103cf91906107a4565b90815260200160405180910390205f6101000a81548160ff021916908315150217905550600181908060018154018082558091505060019003905f5260205f20015f9091909190915090816104249190610b42565b505b60015f8260405161043791906107a4565b90815260200160405180910390205f8282546104539190610919565b925050819055503373ffffffffffffffffffffffffffffffffffffffff168160405161047f91906107a4565b60405180910390207f85ccb673c0f28c4b8ba00fe954146d91c099b133e47a392bd0f6b547490d365f60405160405180910390a350565b5f819050919050565b6104c8816104b6565b82525050565b5f6020820190506104e15f8301846104bf565b92915050565b5f604051905090565b5f5ffd5b5f5ffd5b5f5ffd5b5f5ffd5b5f601f19601f8301169050919050565b7f4e487b71000000000000000000000000000000000000000000000000000000005f52604160045260245ffd5b61054682610500565b810181811067ffffffffffffffff8211171561056557610564610510565b5b80604052505050565b5f6105776104e7565b9050610583828261053d565b919050565b5f67ffffffffffffffff8211156105a2576105a1610510565b5b6105ab82610500565b9050602081019050919050565b828183375f83830152505050565b5f6105d86105d384610588565b61056e565b9050828152602081018484840111156105f4576105f36104fc565b5b6105ff8482856105b8565b509392505050565b5f82601f83011261061b5761061a6104f8565b5b813561062b8482602086016105c6565b91505092915050565b5f60208284031215610649576106486104f0565b5b5f82013567ffffffffffffffff811115610666576106656104f4565b5b61067284828501610607565b91505092915050565b610684816104b6565b811461068e575f5ffd5b50565b5f8135905061069f8161067b565b92915050565b5f602082840312156106ba576106b96104f0565b5b5f6106c784828501610691565b91505092915050565b5f81519050919050565b5f82825260208201905092915050565b5f5b838110156107075780820151818401526020810190506106ec565b5f8484015250505050565b5f61071c826106d0565b61072681856106da565b93506107368185602086016106ea565b61073f81610500565b840191505092915050565b5f6020820190508181035f8301526107628184610712565b905092915050565b5f81905092915050565b5f61077e826106d0565b610788818561076a565b93506107988185602086016106ea565b80840191505092915050565b5f6107af8284610774565b915081905092915050565b7f4e487b71000000000000000000000000000000000000000000000000000000005f52603260045260245ffd5b7f4e487b71000000000000000000000000000000000000000000000000000000005f52602260045260245ffd5b5f600282049050600182168061082b57607f821691505b60208210810361083e5761083d6107e7565b5b50919050565b5f819050815f5260205f209050919050565b5f815461086281610814565b61086c818661076a565b9450600182165f8114610886576001811461089b576108cd565b60ff19831686528115158202860193506108cd565b6108a485610844565b5f5b838110156108c5578154818901526001820191506020810190506108a6565b838801955050505b50505092915050565b5f6108e18284610856565b915081905092915050565b7f4e487b71000000000000000000000000000000000000000000000000000000005f52601160045260245ffd5b5f610923826104b6565b915061092e836104b6565b9250828201905080821115610946576109456108ec565b5b92915050565b7f496e646578206f7574206f662072616e676500000000000000000000000000005f82015250565b5f6109806012836106da565b915061098b8261094c565b602082019050919050565b5f6020820190508181035f8301526109ad81610974565b9050919050565b5f6020601f8301049050919050565b5f82821b905092915050565b5f600883026109fe7fffffffffffffffffffffffffffffffffffffffffffffffffffffffffffffffff826109c3565b610a0886836109c3565b95508019841693508086168417925050509392505050565b5f819050919050565b5f610a43610a3e610a39846104b6565b610a20565b6104b6565b9050919050565b5f819050919050565b610a5c83610a29565b610a70610a6882610a4a565b8484546109cf565b825550505050565b5f5f905090565b610a87610a78565b610a92818484610a53565b505050565b5b81811015610ab557610aaa5f82610a7f565b600181019050610a98565b5050565b601f821115610afa57610acb81610844565b610ad4846109b4565b81016020851015610ae3578190505b610af7610aef856109b4565b830182610a97565b50505b505050565b5f82821c905092915050565b5f610b1a5f1984600802610aff565b1980831691505092915050565b5f610b328383610b0b565b9150826002028217905092915050565b610b4b826106d0565b67ffffffffffffffff811115610b6457610b63610510565b5b610b6e8254610814565b610b79828285610ab9565b5f60209050601f831160018114610baa575f8415610b98578287015190505b610ba28582610b27565b865550610c09565b601f198416610bb886610844565b5f5b82811015610bdf57848901518255600182019150602085019450602081019050610bba565b86831015610bfc5784890151610bf8601f891682610b0b565b8355505b6001600288020188555050505b50505050505056fea2646970667358221220eaf5feecf9b524655279d175e20df1f1690eca8df28f6d23b2263450ef8e0a4264736f6c634300081e0033",
					"opcodes": "PUSH1 0x80 PUSH1 0x40 MSTORE CALLVALUE DUP1 ISZERO PUSH1 0xE JUMPI PUSH0 PUSH0 REVERT JUMPDEST POP PUSH2 0xC47 DUP1 PUSH2 0x1C PUSH0 CODECOPY PUSH0 RETURN INVALID PUSH1 0x80 PUSH1 0x40 MSTORE CALLVALUE DUP1 ISZERO PUSH2 0xF JUMPI PUSH0 PUSH0 REVERT JUMPDEST POP PUSH1 0x4 CALLDATASIZE LT PUSH2 0x7B JUMPI PUSH0 CALLDATALOAD PUSH1 0xE0 SHR DUP1 PUSH4 0x9A0E7D66 GT PUSH2 0x59 JUMPI DUP1 PUSH4 0x9A0E7D66 EQ PUSH2 0xFD JUMPI DUP1 PUSH4 0xAB172CF5 EQ PUSH2 0x11B JUMPI DUP1 PUSH4 0xB9830FF1 EQ PUSH2 0x14B JUMPI DUP1 PUSH4 0xFC36E15B EQ PUSH2 0x155 JUMPI PUSH2 0x7B JUMP JUMPDEST DUP1 PUSH4 0x30A56347 EQ PUSH2 0x7F JUMPI DUP1 PUSH4 0x805265E5 EQ PUSH2 0x9D JUMPI DUP1 PUSH4 0x8D4B44D9 EQ PUSH2 0xCD JUMPI JUMPDEST PUSH0 PUSH0 REVERT JUMPDEST PUSH2 0x87 PUSH2 0x171 JUMP JUMPDEST PUSH1 0x40 MLOAD PUSH2 0x94 SWAP2 SWAP1 PUSH2 0x4CE JUMP JUMPDEST PUSH1 0x40 MLOAD DUP1 SWAP2 SUB SWAP1 RETURN JUMPDEST PUSH2 0xB7 PUSH1 0x4 DUP1 CALLDATASIZE SUB DUP2 ADD SWAP1 PUSH2 0xB2 SWAP2 SWAP1 PUSH2 0x634 JUMP JUMPDEST PUSH2 0x17D JUMP JUMPDEST PUSH1 0x40 MLOAD PUSH2 0xC4 SWAP2 SWAP1 PUSH2 0x4CE JUMP JUMPDEST PUSH1 0x40 MLOAD DUP1 SWAP2 SUB SWAP1 RETURN JUMPDEST PUSH2 0xE7 PUSH1 0x4 DUP1 CALLDATASIZE SUB DUP2 ADD SWAP1 PUSH2 0xE2 SWAP2 SWAP1 PUSH2 0x634 JUMP JUMPDEST PUSH2 0x1A3 JUMP JUMPDEST PUSH1 0x40 MLOAD PUSH2 0xF4 SWAP2 SWAP1 PUSH2 0x4CE JUMP JUMPDEST PUSH1 0x40 MLOAD DUP1 SWAP2 SUB SWAP1 RETURN JUMPDEST PUSH2 0x105 PUSH2 0x1CF JUMP JUMPDEST PUSH1 0x40 MLOAD PUSH2 0x112 SWAP2 SWAP1 PUSH2 0x4CE JUMP JUMPDEST PUSH1 0x40 MLOAD DUP1 SWAP2 SUB SWAP1 RETURN JUMPDEST PUSH2 0x135 PUSH1 0x4 DUP1 CALLDATASIZE SUB DUP2 ADD SWAP1 PUSH2 0x130 SWAP2 SWAP1 PUSH2 0x6A5 JUMP JUMPDEST PUSH2 0x23C JUMP JUMPDEST PUSH1 0x40 MLOAD PUSH2 0x142 SWAP2 SWAP1 PUSH2 0x74A JUMP JUMPDEST PUSH1 0x40 MLOAD DUP1 SWAP2 SUB SWAP1 RETURN JUMPDEST PUSH2 0x153 PUSH2 0x32F JUMP JUMPDEST STOP JUMPDEST PUSH2 0x16F PUSH1 0x4 DUP1 CALLDATASIZE SUB DUP2 ADD SWAP1 PUSH2 0x16A SWAP2 SWAP1 PUSH2 0x634 JUMP JUMPDEST PUSH2 0x38E JUMP JUMPDEST STOP JUMPDEST PUSH0 PUSH1 0x1 DUP1 SLOAD SWAP1 POP SWAP1 POP SWAP1 JUMP JUMPDEST PUSH0 PUSH0 DUP3 PUSH1 0x40 MLOAD PUSH2 0x18D SWAP2 SWAP1 PUSH2 0x7A4 JUMP JUMPDEST SWAP1 DUP2 MSTORE PUSH1 0x20 ADD PUSH1 0x40 MLOAD DUP1 SWAP2 SUB SWAP1 KECCAK256 SLOAD SWAP1 POP SWAP2 SWAP1 POP JUMP JUMPDEST PUSH0 DUP2 DUP1 MLOAD PUSH1 0x20 DUP2 ADD DUP3 ADD DUP1 MLOAD DUP5 DUP3 MSTORE PUSH1 0x20 DUP4 ADD PUSH1 0x20 DUP6 ADD KECCAK256 DUP2 DUP4 MSTORE DUP1 SWAP6 POP POP POP POP POP POP PUSH0 SWAP2 POP SWAP1 POP SLOAD DUP2 JUMP JUMPDEST PUSH0 PUSH0 SWAP1 POP PUSH0 PUSH0 SWAP1 POP JUMPDEST PUSH1 0x1 DUP1 SLOAD SWAP1 POP DUP2 LT ISZERO PUSH2 0x238 JUMPI PUSH0 PUSH1 0x1 DUP3 DUP2 SLOAD DUP2 LT PUSH2 0x1FA JUMPI PUSH2 0x1F9 PUSH2 0x7BA JUMP JUMPDEST JUMPDEST SWAP1 PUSH0 MSTORE PUSH1 0x20 PUSH0 KECCAK256 ADD PUSH1 0x40 MLOAD PUSH2 0x20F SWAP2 SWAP1 PUSH2 0x8D6 JUMP JUMPDEST SWAP1 DUP2 MSTORE PUSH1 0x20 ADD PUSH1 0x40 MLOAD DUP1 SWAP2 SUB SWAP1 KECCAK256 SLOAD DUP3 PUSH2 0x229 SWAP2 SWAP1 PUSH2 0x919 JUMP JUMPDEST SWAP2 POP DUP1 DUP1 PUSH1 0x1 ADD SWAP2 POP POP PUSH2 0x1D8 JUMP JUMPDEST POP SWAP1 JUMP JUMPDEST PUSH1 0x60 PUSH1 0x1 DUP1 SLOAD SWAP1 POP DUP3 LT PUSH2 0x285 JUMPI PUSH1 0x40 MLOAD PUSH32 0x8C379A000000000000000000000000000000000000000000000000000000000 DUP2 MSTORE PUSH1 0x4 ADD PUSH2 0x27C SWAP1 PUSH2 0x996 JUMP JUMPDEST PUSH1 0x40 MLOAD DUP1 SWAP2 SUB SWAP1 REVERT JUMPDEST PUSH1 0x1 DUP3 DUP2 SLOAD DUP2 LT PUSH2 0x299 JUMPI PUSH2 0x298 PUSH2 0x7BA JUMP JUMPDEST JUMPDEST SWAP1 PUSH0 MSTORE PUSH1 0x20 PUSH0 KECCAK256 ADD DUP1 SLOAD PUSH2 0x2AC SWAP1 PUSH2 0x814 JUMP JUMPDEST DUP1 PUSH1 0x1F ADD PUSH1 0x20 DUP1 SWAP2 DIV MUL PUSH1 0x20 ADD PUSH1 0x40 MLOAD SWAP1 DUP2 ADD PUSH1 0x40 MSTORE DUP1 SWAP3 SWAP2 SWAP1 DUP2 DUP2 MSTORE PUSH1 0x20 ADD DUP3 DUP1 SLOAD PUSH2 0x2D8 SWAP1 PUSH2 0x814 JUMP JUMPDEST DUP1 ISZERO PUSH2 0x323 JUMPI DUP1 PUSH1 0x1F LT PUSH2 0x2FA JUMPI PUSH2 0x100 DUP1 DUP4 SLOAD DIV MUL DUP4 MSTORE SWAP2 PUSH1 0x20 ADD SWAP2 PUSH2 0x323 JUMP JUMPDEST DUP3 ADD SWAP2 SWAP1 PUSH0 MSTORE PUSH1 0x20 PUSH0 KECCAK256 SWAP1 JUMPDEST DUP2 SLOAD DUP2 MSTORE SWAP1 PUSH1 0x1 ADD SWAP1 PUSH1 0x20 ADD DUP1 DUP4 GT PUSH2 0x306 JUMPI DUP3 SWAP1 SUB PUSH1 0x1F AND DUP3 ADD SWAP2 JUMPDEST POP POP POP POP POP SWAP1 POP SWAP2 SWAP1 POP JUMP JUMPDEST PUSH0 PUSH0 SWAP1 POP JUMPDEST PUSH1 0x1 DUP1 SLOAD SWAP1 POP DUP2 LT ISZERO PUSH2 0x38B JUMPI PUSH0 PUSH0 PUSH1 0x1 DUP4 DUP2 SLOAD DUP2 LT PUSH2 0x357 JUMPI PUSH2 0x356 PUSH2 0x7BA JUMP JUMPDEST JUMPDEST SWAP1 PUSH0 MSTORE PUSH1 0x20 PUSH0 KECCAK256 ADD PUSH1 0x40 MLOAD PUSH2 0x36C SWAP2 SWAP1 PUSH2 0x8D6 JUMP JUMPDEST SWAP1 DUP2 MSTORE PUSH1 0x20 ADD PUSH1 0x40 MLOAD DUP1 SWAP2 SUB SWAP1 KECCAK256 DUP2 SWAP1 SSTORE POP DUP1 DUP1 PUSH1 0x1 ADD SWAP2 POP POP PUSH2 0x334 JUMP JUMPDEST POP JUMP JUMPDEST PUSH1 0x2 DUP2 PUSH1 0x40 MLOAD PUSH2 0x39E SWAP2 SWAP1 PUSH2 0x7A4 JUMP JUMPDEST SWAP1 DUP2 MSTORE PUSH1 0x20 ADD PUSH1 0x40 MLOAD DUP1 SWAP2 SUB SWAP1 KECCAK256 PUSH0 SWAP1 SLOAD SWAP1 PUSH2 0x100 EXP SWAP1 DIV PUSH1 0xFF AND PUSH2 0x426 JUMPI PUSH1 0x1 PUSH1 0x2 DUP3 PUSH1 0x40 MLOAD PUSH2 0x3CF SWAP2 SWAP1 PUSH2 0x7A4 JUMP JUMPDEST SWAP1 DUP2 MSTORE PUSH1 0x20 ADD PUSH1 0x40 MLOAD DUP1 SWAP2 SUB SWAP1 KECCAK256 PUSH0 PUSH2 0x100 EXP DUP2 SLOAD DUP2 PUSH1 0xFF MUL NOT AND SWAP1 DUP4 ISZERO ISZERO MUL OR SWAP1 SSTORE POP PUSH1 0x1 DUP2 SWAP1 DUP1 PUSH1 0x1 DUP2 SLOAD ADD DUP1 DUP3 SSTORE DUP1 SWAP2 POP POP PUSH1 0x1 SWAP1 SUB SWAP1 PUSH0 MSTORE PUSH1 0x20 PUSH0 KECCAK256 ADD PUSH0 SWAP1 SWAP2 SWAP1 SWAP2 SWAP1 SWAP2 POP SWAP1 DUP2 PUSH2 0x424 SWAP2 SWAP1 PUSH2 0xB42 JUMP JUMPDEST POP JUMPDEST PUSH1 0x1 PUSH0 DUP3 PUSH1 0x40 MLOAD PUSH2 0x437 SWAP2 SWAP1 PUSH2 0x7A4 JUMP JUMPDEST SWAP1 DUP2 MSTORE PUSH1 0x20 ADD PUSH1 0x40 MLOAD DUP1 SWAP2 SUB SWAP1 KECCAK256 PUSH0 DUP3 DUP3 SLOAD PUSH2 0x453 SWAP2 SWAP1 PUSH2 0x919 JUMP JUMPDEST SWAP3 POP POP DUP2 SWAP1 SSTORE POP CALLER PUSH20 0xFFFFFFFFFFFFFFFFFFFFFFFFFFFFFFFFFFFFFFFF AND DUP2 PUSH1 0x40 MLOAD PUSH2 0x47F SWAP2 SWAP1 PUSH2 0x7A4 JUMP JUMPDEST PUSH1 0x40 MLOAD DUP1 SWAP2 SUB SWAP1 KECCAK256 PUSH32 0x85CCB673C0F28C4B8BA00FE954146D91C099B133E47A392BD0F6B547490D365F PUSH1 0x40 MLOAD PUSH1 0x40 MLOAD DUP1 SWAP2 SUB SWAP1 LOG3 POP JUMP JUMPDEST PUSH0 DUP2 SWAP1 POP SWAP2 SWAP1 POP JUMP JUMPDEST PUSH2 0x4C8 DUP2 PUSH2 0x4B6 JUMP JUMPDEST DUP3 MSTORE POP POP JUMP JUMPDEST PUSH0 PUSH1 0x20 DUP3 ADD SWAP1 POP PUSH2 0x4E1 PUSH0 DUP4 ADD DUP5 PUSH2 0x4BF JUMP JUMPDEST SWAP3 SWAP2 POP POP JUMP JUMPDEST PUSH0 PUSH1 0x40 MLOAD SWAP1 POP SWAP1 JUMP JUMPDEST PUSH0 PUSH0 REVERT JUMPDEST PUSH0 PUSH0 REVERT JUMPDEST PUSH0 PUSH0 REVERT JUMPDEST PUSH0 PUSH0 REVERT JUMPDEST PUSH0 PUSH1 0x1F NOT PUSH1 0x1F DUP4 ADD AND SWAP1 POP SWAP2 SWAP1 POP JUMP JUMPDEST PUSH32 0x4E487B7100000000000000000000000000000000000000000000000000000000 PUSH0 MSTORE PUSH1 0x41 PUSH1 0x4 MSTORE PUSH1 0x24 PUSH0 REVERT JUMPDEST PUSH2 0x546 DUP3 PUSH2 0x500 JUMP JUMPDEST DUP2 ADD DUP2 DUP2 LT PUSH8 0xFFFFFFFFFFFFFFFF DUP3 GT OR ISZERO PUSH2 0x565 JUMPI PUSH2 0x564 PUSH2 0x510 JUMP JUMPDEST JUMPDEST DUP1 PUSH1 0x40 MSTORE POP POP POP JUMP JUMPDEST PUSH0 PUSH2 0x577 PUSH2 0x4E7 JUMP JUMPDEST SWAP1 POP PUSH2 0x583 DUP3 DUP3 PUSH2 0x53D JUMP JUMPDEST SWAP2 SWAP1 POP JUMP JUMPDEST PUSH0 PUSH8 0xFFFFFFFFFFFFFFFF DUP3 GT ISZERO PUSH2 0x5A2 JUMPI PUSH2 0x5A1 PUSH2 0x510 JUMP JUMPDEST JUMPDEST PUSH2 0x5AB DUP3 PUSH2 0x500 JUMP JUMPDEST SWAP1 POP PUSH1 0x20 DUP2 ADD SWAP1 POP SWAP2 SWAP1 POP JUMP JUMPDEST DUP3 DUP2 DUP4 CALLDATACOPY PUSH0 DUP4 DUP4 ADD MSTORE POP POP POP JUMP JUMPDEST PUSH0 PUSH2 0x5D8 PUSH2 0x5D3 DUP5 PUSH2 0x588 JUMP JUMPDEST PUSH2 0x56E JUMP JUMPDEST SWAP1 POP DUP3 DUP2 MSTORE PUSH1 0x20 DUP2 ADD DUP5 DUP5 DUP5 ADD GT ISZERO PUSH2 0x5F4 JUMPI PUSH2 0x5F3 PUSH2 0x4FC JUMP JUMPDEST JUMPDEST PUSH2 0x5FF DUP5 DUP3 DUP6 PUSH2 0x5B8 JUMP JUMPDEST POP SWAP4 SWAP3 POP POP POP JUMP JUMPDEST PUSH0 DUP3 PUSH1 0x1F DUP4 ADD SLT PUSH2 0x61B JUMPI PUSH2 0x61A PUSH2 0x4F8 JUMP JUMPDEST JUMPDEST DUP2 CALLDATALOAD PUSH2 0x62B DUP5 DUP3 PUSH1 0x20 DUP7 ADD PUSH2 0x5C6 JUMP JUMPDEST SWAP2 POP POP SWAP3 SWAP2 POP POP JUMP JUMPDEST PUSH0 PUSH1 0x20 DUP3 DUP5 SUB SLT ISZERO PUSH2 0x649 JUMPI PUSH2 0x648 PUSH2 0x4F0 JUMP JUMPDEST JUMPDEST PUSH0 DUP3 ADD CALLDATALOAD PUSH8 0xFFFFFFFFFFFFFFFF DUP2 GT ISZERO PUSH2 0x666 JUMPI PUSH2 0x665 PUSH2 0x4F4 JUMP JUMPDEST JUMPDEST PUSH2 0x672 DUP5 DUP3 DUP6 ADD PUSH2 0x607 JUMP JUMPDEST SWAP2 POP POP SWAP3 SWAP2 POP POP JUMP JUMPDEST PUSH2 0x684 DUP2 PUSH2 0x4B6 JUMP JUMPDEST DUP2 EQ PUSH2 0x68E JUMPI PUSH0 PUSH0 REVERT JUMPDEST POP JUMP JUMPDEST PUSH0 DUP2 CALLDATALOAD SWAP1 POP PUSH2 0x69F DUP2 PUSH2 0x67B JUMP JUMPDEST SWAP3 SWAP2 POP POP JUMP JUMPDEST PUSH0 PUSH1 0x20 DUP3 DUP5 SUB SLT ISZERO PUSH2 0x6BA JUMPI PUSH2 0x6B9 PUSH2 0x4F0 JUMP JUMPDEST JUMPDEST PUSH0 PUSH2 0x6C7 DUP5 DUP3 DUP6 ADD PUSH2 0x691 JUMP JUMPDEST SWAP2 POP POP SWAP3 SWAP2 POP POP JUMP JUMPDEST PUSH0 DUP2 MLOAD SWAP1 POP SWAP2 SWAP1 POP JUMP JUMPDEST PUSH0 DUP3 DUP3 MSTORE PUSH1 0x20 DUP3 ADD SWAP1 POP SWAP3 SWAP2 POP POP JUMP JUMPDEST PUSH0 JUMPDEST DUP4 DUP2 LT ISZERO PUSH2 0x707 JUMPI DUP1 DUP3 ADD MLOAD DUP2 DUP5 ADD MSTORE PUSH1 0x20 DUP2 ADD SWAP1 POP PUSH2 0x6EC JUMP JUMPDEST PUSH0 DUP5 DUP5 ADD MSTORE POP POP POP POP JUMP JUMPDEST PUSH0 PUSH2 0x71C DUP3 PUSH2 0x6D0 JUMP JUMPDEST PUSH2 0x726 DUP2 DUP6 PUSH2 0x6DA JUMP JUMPDEST SWAP4 POP PUSH2 0x736 DUP2 DUP6 PUSH1 0x20 DUP7 ADD PUSH2 0x6EA JUMP JUMPDEST PUSH2 0x73F DUP2 PUSH2 0x500 JUMP JUMPDEST DUP5 ADD SWAP2 POP POP SWAP3 SWAP2 POP POP JUMP JUMPDEST PUSH0 PUSH1 0x20 DUP3 ADD SWAP1 POP DUP2 DUP2 SUB PUSH0 DUP4 ADD MSTORE PUSH2 0x762 DUP2 DUP5 PUSH2 0x712 JUMP JUMPDEST SWAP1 POP SWAP3 SWAP2 POP POP JUMP JUMPDEST PUSH0 DUP2 SWAP1 POP SWAP3 SWAP2 POP POP JUMP JUMPDEST PUSH0 PUSH2 0x77E DUP3 PUSH2 0x6D0 JUMP JUMPDEST PUSH2 0x788 DUP2 DUP6 PUSH2 0x76A JUMP JUMPDEST SWAP4 POP PUSH2 0x798 DUP2 DUP6 PUSH1 0x20 DUP7 ADD PUSH2 0x6EA JUMP JUMPDEST DUP1 DUP5 ADD SWAP2 POP POP SWAP3 SWAP2 POP POP JUMP JUMPDEST PUSH0 PUSH2 0x7AF DUP3 DUP5 PUSH2 0x774 JUMP JUMPDEST SWAP2 POP DUP2 SWAP1 POP SWAP3 SWAP2 POP POP JUMP JUMPDEST PUSH32 0x4E487B7100000000000000000000000000000000000000000000000000000000 PUSH0 MSTORE PUSH1 0x32 PUSH1 0x4 MSTORE PUSH1 0x24 PUSH0 REVERT JUMPDEST PUSH32 0x4E487B7100000000000000000000000000000000000000000000000000000000 PUSH0 MSTORE PUSH1 0x22 PUSH1 0x4 MSTORE PUSH1 0x24 PUSH0 REVERT JUMPDEST PUSH0 PUSH1 0x2 DUP3 DIV SWAP1 POP PUSH1 0x1 DUP3 AND DUP1 PUSH2 0x82B JUMPI PUSH1 0x7F DUP3 AND SWAP2 POP JUMPDEST PUSH1 0x20 DUP3 LT DUP2 SUB PUSH2 0x83E JUMPI PUSH2 0x83D PUSH2 0x7E7 JUMP JUMPDEST JUMPDEST POP SWAP2 SWAP1 POP JUMP JUMPDEST PUSH0 DUP2 SWAP1 POP DUP2 PUSH0 MSTORE PUSH1 0x20 PUSH0 KECCAK256 SWAP1 POP SWAP2 SWAP1 POP JUMP JUMPDEST PUSH0 DUP2 SLOAD PUSH2 0x862 DUP2 PUSH2 0x814 JUMP JUMPDEST PUSH2 0x86C DUP2 DUP7 PUSH2 0x76A JUMP JUMPDEST SWAP5 POP PUSH1 0x1 DUP3 AND PUSH0 DUP2 EQ PUSH2 0x886 JUMPI PUSH1 0x1 DUP2 EQ PUSH2 0x89B JUMPI PUSH2 0x8CD JUMP JUMPDEST PUSH1 0xFF NOT DUP4 AND DUP7 MSTORE DUP2 ISZERO ISZERO DUP3 MUL DUP7 ADD SWAP4 POP PUSH2 0x8CD JUMP JUMPDEST PUSH2 0x8A4 DUP6 PUSH2 0x844 JUMP JUMPDEST PUSH0 JUMPDEST DUP4 DUP2 LT ISZERO PUSH2 0x8C5 JUMPI DUP2 SLOAD DUP2 DUP10 ADD MSTORE PUSH1 0x1 DUP3 ADD SWAP2 POP PUSH1 0x20 DUP2 ADD SWAP1 POP PUSH2 0x8A6 JUMP JUMPDEST DUP4 DUP9 ADD SWAP6 POP POP POP JUMPDEST POP POP POP SWAP3 SWAP2 POP POP JUMP JUMPDEST PUSH0 PUSH2 0x8E1 DUP3 DUP5 PUSH2 0x856 JUMP JUMPDEST SWAP2 POP DUP2 SWAP1 POP SWAP3 SWAP2 POP POP JUMP JUMPDEST PUSH32 0x4E487B7100000000000000000000000000000000000000000000000000000000 PUSH0 MSTORE PUSH1 0x11 PUSH1 0x4 MSTORE PUSH1 0x24 PUSH0 REVERT JUMPDEST PUSH0 PUSH2 0x923 DUP3 PUSH2 0x4B6 JUMP JUMPDEST SWAP2 POP PUSH2 0x92E DUP4 PUSH2 0x4B6 JUMP JUMPDEST SWAP3 POP DUP3 DUP3 ADD SWAP1 POP DUP1 DUP3 GT ISZERO PUSH2 0x946 JUMPI PUSH2 0x945 PUSH2 0x8EC JUMP JUMPDEST JUMPDEST SWAP3 SWAP2 POP POP JUMP JUMPDEST PUSH32 0x496E646578206F7574206F662072616E67650000000000000000000000000000 PUSH0 DUP3 ADD MSTORE POP JUMP JUMPDEST PUSH0 PUSH2 0x980 PUSH1 0x12 DUP4 PUSH2 0x6DA JUMP JUMPDEST SWAP2 POP PUSH2 0x98B DUP3 PUSH2 0x94C JUMP JUMPDEST PUSH1 0x20 DUP3 ADD SWAP1 POP SWAP2 SWAP1 POP JUMP JUMPDEST PUSH0 PUSH1 0x20 DUP3 ADD SWAP1 POP DUP2 DUP2 SUB PUSH0 DUP4 ADD MSTORE PUSH2 0x9AD DUP2 PUSH2 0x974 JUMP JUMPDEST SWAP1 POP SWAP2 SWAP1 POP JUMP JUMPDEST PUSH0 PUSH1 0x20 PUSH1 0x1F DUP4 ADD DIV SWAP1 POP SWAP2 SWAP1 POP JUMP JUMPDEST PUSH0 DUP3 DUP3 SHL SWAP1 POP SWAP3 SWAP2 POP POP JUMP JUMPDEST PUSH0 PUSH1 0x8 DUP4 MUL PUSH2 0x9FE PUSH32 0xFFFFFFFFFFFFFFFFFFFFFFFFFFFFFFFFFFFFFFFFFFFFFFFFFFFFFFFFFFFFFFFF DUP3 PUSH2 0x9C3 JUMP JUMPDEST PUSH2 0xA08 DUP7 DUP4 PUSH2 0x9C3 JUMP JUMPDEST SWAP6 POP DUP1 NOT DUP5 AND SWAP4 POP DUP1 DUP7 AND DUP5 OR SWAP3 POP POP POP SWAP4 SWAP3 POP POP POP JUMP JUMPDEST PUSH0 DUP2 SWAP1 POP SWAP2 SWAP1 POP JUMP JUMPDEST PUSH0 PUSH2 0xA43 PUSH2 0xA3E PUSH2 0xA39 DUP5 PUSH2 0x4B6 JUMP JUMPDEST PUSH2 0xA20 JUMP JUMPDEST PUSH2 0x4B6 JUMP JUMPDEST SWAP1 POP SWAP2 SWAP1 POP JUMP JUMPDEST PUSH0 DUP2 SWAP1 POP SWAP2 SWAP1 POP JUMP JUMPDEST PUSH2 0xA5C DUP4 PUSH2 0xA29 JUMP JUMPDEST PUSH2 0xA70 PUSH2 0xA68 DUP3 PUSH2 0xA4A JUMP JUMPDEST DUP5 DUP5 SLOAD PUSH2 0x9CF JUMP JUMPDEST DUP3 SSTORE POP POP POP POP JUMP JUMPDEST PUSH0 PUSH0 SWAP1 POP SWAP1 JUMP JUMPDEST PUSH2 0xA87 PUSH2 0xA78 JUMP JUMPDEST PUSH2 0xA92 DUP2 DUP5 DUP5 PUSH2 0xA53 JUMP JUMPDEST POP POP POP JUMP JUMPDEST JUMPDEST DUP2 DUP2 LT ISZERO PUSH2 0xAB5 JUMPI PUSH2 0xAAA PUSH0 DUP3 PUSH2 0xA7F JUMP JUMPDEST PUSH1 0x1 DUP2 ADD SWAP1 POP PUSH2 0xA98 JUMP JUMPDEST POP POP JUMP JUMPDEST PUSH1 0x1F DUP3 GT ISZERO PUSH2 0xAFA JUMPI PUSH2 0xACB DUP2 PUSH2 0x844 JUMP JUMPDEST PUSH2 0xAD4 DUP5 PUSH2 0x9B4 JUMP JUMPDEST DUP2 ADD PUSH1 0x20 DUP6 LT ISZERO PUSH2 0xAE3 JUMPI DUP2 SWAP1 POP JUMPDEST PUSH2 0xAF7 PUSH2 0xAEF DUP6 PUSH2 0x9B4 JUMP JUMPDEST DUP4 ADD DUP3 PUSH2 0xA97 JUMP JUMPDEST POP POP JUMPDEST POP POP POP JUMP JUMPDEST PUSH0 DUP3 DUP3 SHR SWAP1 POP SWAP3 SWAP2 POP POP JUMP JUMPDEST PUSH0 PUSH2 0xB1A PUSH0 NOT DUP5 PUSH1 0x8 MUL PUSH2 0xAFF JUMP JUMPDEST NOT DUP1 DUP4 AND SWAP2 POP POP SWAP3 SWAP2 POP POP JUMP JUMPDEST PUSH0 PUSH2 0xB32 DUP4 DUP4 PUSH2 0xB0B JUMP JUMPDEST SWAP2 POP DUP3 PUSH1 0x2 MUL DUP3 OR SWAP1 POP SWAP3 SWAP2 POP POP JUMP JUMPDEST PUSH2 0xB4B DUP3 PUSH2 0x6D0 JUMP JUMPDEST PUSH8 0xFFFFFFFFFFFFFFFF DUP2 GT ISZERO PUSH2 0xB64 JUMPI PUSH2 0xB63 PUSH2 0x510 JUMP JUMPDEST JUMPDEST PUSH2 0xB6E DUP3 SLOAD PUSH2 0x814 JUMP JUMPDEST PUSH2 0xB79 DUP3 DUP3 DUP6 PUSH2 0xAB9 JUMP JUMPDEST PUSH0 PUSH1 0x20 SWAP1 POP PUSH1 0x1F DUP4 GT PUSH1 0x1 DUP2 EQ PUSH2 0xBAA JUMPI PUSH0 DUP5 ISZERO PUSH2 0xB98 JUMPI DUP3 DUP8 ADD MLOAD SWAP1 POP JUMPDEST PUSH2 0xBA2 DUP6 DUP3 PUSH2 0xB27 JUMP JUMPDEST DUP7 SSTORE POP PUSH2 0xC09 JUMP JUMPDEST PUSH1 0x1F NOT DUP5 AND PUSH2 0xBB8 DUP7 PUSH2 0x844 JUMP JUMPDEST PUSH0 JUMPDEST DUP3 DUP2 LT ISZERO PUSH2 0xBDF JUMPI DUP5 DUP10 ADD MLOAD DUP3 SSTORE PUSH1 0x1 DUP3 ADD SWAP2 POP PUSH1 0x20 DUP6 ADD SWAP5 POP PUSH1 0x20 DUP2 ADD SWAP1 POP PUSH2 0xBBA JUMP JUMPDEST DUP7 DUP4 LT ISZERO PUSH2 0xBFC JUMPI DUP5 DUP10 ADD MLOAD PUSH2 0xBF8 PUSH1 0x1F DUP10 AND DUP3 PUSH2 0xB0B JUMP JUMPDEST DUP4 SSTORE POP JUMPDEST PUSH1 0x1 PUSH1 0x2 DUP9 MUL ADD DUP9 SSTORE POP POP POP JUMPDEST POP POP POP POP POP POP JUMP INVALID LOG2 PUSH5 0x6970667358 0x22 SLT KECCAK256 0xEA CREATE2 INVALID EOFCREATE 0xF9 0xB5 0x24 PUSH6 0x5279D175E20D CALL CALL PUSH10 0xECA8DF28F6D23B22634 POP 0xEF DUP15 EXP TIMESTAMP PUSH5 0x736F6C6343 STOP ADDMOD 0x1E STOP CALLER "
				},
				"gasEstimates": {
					"creation": {
						"codeDepositCost": "628600",
						"executionCost": "662",
						"totalCost": "629262"
					},
					"external": {
						"getCandidateByIndex(uint256)": "infinite",
						"getCandidateCount()": "2441",
						"getTotalVotes()": "infinite",
						"getVotes(string)": "infinite",
						"resetVotes()": "infinite",
						"vote(string)": "infinite",
						"votesReceived(string)": "infinite"
					}
				},
				"methodIdentifiers": {
					"getCandidateByIndex(uint256)": "ab172cf5",
					"getCandidateCount()": "30a56347",
					"getTotalVotes()": "9a0e7d66",
					"getVotes(string)": "805265e5",
					"resetVotes()": "b9830ff1",
					"vote(string)": "fc36e15b",
					"votesReceived(string)": "8d4b44d9"
				}
			},
			"storageLayout": {
				"storage": [
					{
						"astId": 5,
						"contract": "task1/Voting.sol:Voting",
						"label": "votesReceived",
						"offset": 0,
						"slot": "0",
						"type": "t_mapping(t_string_memory_ptr,t_uint256)"
					},
					{
						"astId": 8,
						"contract": "task1/Voting.sol:Voting",
						"label": "voteList",
						"offset": 0,
						"slot": "1",
						"type": "t_array(t_string_storage)dyn_storage"
					},
					{
						"astId": 18,
						"contract": "task1/Voting.sol:Voting",
						"label": "isRegistered",
						"offset": 0,
						"slot": "2",
						"type": "t_mapping(t_string_memory_ptr,t_bool)"
					}
				],
				"types": {
					"t_array(t_string_storage)dyn_storage": {
						"base": "t_string_storage",
						"encoding": "dynamic_array",
						"label": "string[]",
						"numberOfBytes": "32"
					},
					"t_bool": {
						"encoding": "inplace",
						"label": "bool",
						"numberOfBytes": "1"
					},
					"t_mapping(t_string_memory_ptr,t_bool)": {
						"encoding": "mapping",
						"key": "t_string_memory_ptr",
						"label": "mapping(string => bool)",
						"numberOfBytes": "32",
						"value": "t_bool"
					},
					"t_mapping(t_string_memory_ptr,t_uint256)": {
						"encoding": "mapping",
						"key": "t_string_memory_ptr",
						"label": "mapping(string => uint256)",
						"numberOfBytes": "32",
						"value": "t_uint256"
					},
					"t_string_memory_ptr": {
						"encoding": "bytes",
						"label": "string",
						"numberOfBytes": "32"
					},
					"t_string_storage": {
						"encoding": "bytes",
						"label": "string",
						"numberOfBytes": "32"
					},
					"t_uint256": {
						"encoding": "inplace",
						"label": "uint256",
						"numberOfBytes": "32"
					}
				}
			},
			"userdoc": {
				"kind": "user",
				"methods": {
					"getCandidateByIndex(uint256)": {
						"notice": "按索引获取候选人名称 配合 getCandidateCount() 可遍历全部候选人"
					},
					"getCandidateCount()": {
						"notice": "获取当前已登记候选人的总数量 方便前端遍历调试"
					}
				},
				"version": 1
			}
		}
	}
}