{
	"testOverflow.sol": {
		"testOverflow": {
			"abi": [
				{
					"constant": true,
					"inputs": [],
					"name": "add1",
					"outputs": [
						{
							"internalType": "uint8",
							"name": "",
							"type": "uint8"
						}
					],
					"payable": false,
					"stateMutability": "view",
					"type": "function"
				},
				{
					"constant": true,
					"inputs": [],
					"name": "add2",
					"outputs": [
						{
							"internalType": "uint8",
							"name": "",
							"type": "uint8"
						}
					],
					"payable": false,
					"stateMutability": "view",
					"type": "function"
				},
				{
					"constant": true,
					"inputs": [],
					"name": "sub1",
					"outputs": [
						{
							"internalType": "uint8",
							"name": "",
							"type": "uint8"
						}
					],
					"payable": false,
					"stateMutability": "view",
					"type": "function"
				}
			],
			"devdoc": {
				"methods": {}
			},
			"evm": {
				"assembly": "    /* \"testOverflow.sol\":57:483  contract testOverflow{... */\n  mstore(0x40, 0x80)\n  callvalue\n    /* \"--CODEGEN--\":8:17   */\n  dup1\n    /* \"--CODEGEN--\":5:7   */\n  iszero\n  tag_1\n  jumpi\n    /* \"--CODEGEN--\":30:31   */\n  0x00\n    /* \"--CODEGEN--\":27:28   */\n  dup1\n    /* \"--CODEGEN--\":20:32   */\n  revert\n    /* \"--CODEGEN--\":5:7   */\ntag_1:\n    /* \"testOverflow.sol\":57:483  contract testOverflow{... */\n  pop\n  dataSize(sub_0)\n  dup1\n  dataOffset(sub_0)\n  0x00\n  codecopy\n  0x00\n  return\nstop\n\nsub_0: assembly {\n        /* \"testOverflow.sol\":57:483  contract testOverflow{... */\n      mstore(0x40, 0x80)\n      callvalue\n        /* \"--CODEGEN--\":8:17   */\n      dup1\n        /* \"--CODEGEN--\":5:7   */\n      iszero\n      tag_1\n      jumpi\n        /* \"--CODEGEN--\":30:31   */\n      0x00\n        /* \"--CODEGEN--\":27:28   */\n      dup1\n        /* \"--CODEGEN--\":20:32   */\n      revert\n        /* \"--CODEGEN--\":5:7   */\n    tag_1:\n        /* \"testOverflow.sol\":57:483  contract testOverflow{... */\n      pop\n      jumpi(tag_2, lt(calldatasize, 0x04))\n      shr(0xe0, calldataload(0x00))\n      dup1\n      0x35921a\n      eq\n      tag_3\n      jumpi\n      dup1\n      0x6c1f222f\n      eq\n      tag_4\n      jumpi\n      dup1\n      0x72a099b7\n      eq\n      tag_5\n      jumpi\n    tag_2:\n      0x00\n      dup1\n      revert\n        /* \"testOverflow.sol\":84:205  function add1() public pure returns (uint8) { ... */\n    tag_3:\n      tag_6\n      tag_7\n      jump\t// in\n    tag_6:\n      mload(0x40)\n      dup1\n      dup3\n      0xff\n      and\n      0xff\n      and\n      dup2\n      mstore\n      0x20\n      add\n      swap2\n      pop\n      pop\n      mload(0x40)\n      dup1\n      swap2\n      sub\n      swap1\n      return\n        /* \"testOverflow.sol\":211:355  function add2() public pure returns (uint8) { ... */\n    tag_4:\n      tag_8\n      tag_9\n      jump\t// in\n    tag_8:\n      mload(0x40)\n      dup1\n      dup3\n      0xff\n      and\n      0xff\n      and\n      dup2\n      mstore\n      0x20\n      add\n      swap2\n      pop\n      pop\n      mload(0x40)\n      dup1\n      swap2\n      sub\n      swap1\n      return\n        /* \"testOverflow.sol\":361:480  function sub1() public pure returns (uint8) { ... */\n    tag_5:\n      tag_10\n      tag_11\n      jump\t// in\n    tag_10:\n      mload(0x40)\n      dup1\n      dup3\n      0xff\n      and\n      0xff\n      and\n      dup2\n      mstore\n      0x20\n      add\n      swap2\n      pop\n      pop\n      mload(0x40)\n      dup1\n      swap2\n      sub\n      swap1\n      return\n        /* \"testOverflow.sol\":84:205  function add1() public pure returns (uint8) { ... */\n    tag_7:\n        /* \"testOverflow.sol\":121:126  uint8 */\n      0x00\n        /* \"testOverflow.sol\":139:146  uint8 x */\n      dup1\n        /* \"testOverflow.sol\":149:152  128 */\n      0x80\n        /* \"testOverflow.sol\":139:152  uint8 x = 128 */\n      swap1\n      pop\n        /* \"testOverflow.sol\":163:170  uint8 y */\n      0x00\n        /* \"testOverflow.sol\":177:178  2 */\n      0x02\n        /* \"testOverflow.sol\":173:174  x */\n      dup3\n        /* \"testOverflow.sol\":173:178  x * 2 */\n      mul\n        /* \"testOverflow.sol\":163:178  uint8 y = x * 2 */\n      swap1\n      pop\n        /* \"testOverflow.sol\":196:197  y */\n      dup1\n        /* \"testOverflow.sol\":189:197  return y */\n      swap3\n      pop\n      pop\n      pop\n        /* \"testOverflow.sol\":84:205  function add1() public pure returns (uint8) { ... */\n      swap1\n      jump\t// out\n        /* \"testOverflow.sol\":211:355  function add2() public pure returns (uint8) { ... */\n    tag_9:\n        /* \"testOverflow.sol\":248:253  uint8 */\n      0x00\n        /* \"testOverflow.sol\":266:273  uint8 i */\n      dup1\n        /* \"testOverflow.sol\":276:279  240 */\n      0xf0\n        /* \"testOverflow.sol\":266:279  uint8 i = 240 */\n      swap1\n      pop\n        /* \"testOverflow.sol\":290:297  uint8 j */\n      0x00\n        /* \"testOverflow.sol\":300:302  16 */\n      0x10\n        /* \"testOverflow.sol\":290:302  uint8 j = 16 */\n      swap1\n      pop\n        /* \"testOverflow.sol\":313:320  uint8 k */\n      0x00\n        /* \"testOverflow.sol\":327:328  j */\n      dup2\n        /* \"testOverflow.sol\":323:324  i */\n      dup4\n        /* \"testOverflow.sol\":323:328  i + j */\n      add\n        /* \"testOverflow.sol\":313:328  uint8 k = i + j */\n      swap1\n      pop\n        /* \"testOverflow.sol\":346:347  k */\n      dup1\n        /* \"testOverflow.sol\":339:347  return k */\n      swap4\n      pop\n      pop\n      pop\n      pop\n        /* \"testOverflow.sol\":211:355  function add2() public pure returns (uint8) { ... */\n      swap1\n      jump\t// out\n        /* \"testOverflow.sol\":361:480  function sub1() public pure returns (uint8) { ... */\n    tag_11:\n        /* \"testOverflow.sol\":398:403  uint8 */\n      0x00\n        /* \"testOverflow.sol\":416:423  uint8 m */\n      dup1\n        /* \"testOverflow.sol\":426:427  1 */\n      0x01\n        /* \"testOverflow.sol\":416:427  uint8 m = 1 */\n      swap1\n      pop\n        /* \"testOverflow.sol\":438:445  uint8 n */\n      0x00\n        /* \"testOverflow.sol\":452:453  2 */\n      0x02\n        /* \"testOverflow.sol\":448:449  m */\n      dup3\n        /* \"testOverflow.sol\":448:453  m - 2 */\n      sub\n        /* \"testOverflow.sol\":438:453  uint8 n = m - 2 */\n      swap1\n      pop\n        /* \"testOverflow.sol\":471:472  n */\n      dup1\n        /* \"testOverflow.sol\":464:472  return n */\n      swap3\n      pop\n      pop\n      pop\n        /* \"testOverflow.sol\":361:480  function sub1() public pure returns (uint8) { ... */\n      swap1\n      jump\t// out\n\n    auxdata: 0xa265627a7a72315820f8ed04a955e4ddbc5f5e9a0a8cfec42bf43a1af37e05fbe140ce7eca1b425e9564736f6c63430005110032\n}\n",
				"bytecode": {
					"linkReferences": {},
					"object": "608060405234801561001057600080fd5b50610126806100206000396000f3fe6080604052348015600f57600080fd5b5060043610603b5760003560e01c806235921a1460405780636c1f222f14606257806372a099b7146084575b600080fd5b604660a6565b604051808260ff1660ff16815260200191505060405180910390f35b606860bd565b604051808260ff1660ff16815260200191505060405180910390f35b608a60da565b604051808260ff1660ff16815260200191505060405180910390f35b600080608090506000600282029050809250505090565b60008060f090506000601090506000818301905080935050505090565b60008060019050600060028203905080925050509056fea265627a7a72315820f8ed04a955e4ddbc5f5e9a0a8cfec42bf43a1af37e05fbe140ce7eca1b425e9564736f6c63430005110032",
					"opcodes": "PUSH1 0x80 PUSH1 0x40 MSTORE CALLVALUE DUP1 ISZERO PUSH2 0x10 JUMPI PUSH1 0x0 DUP1 REVERT JUMPDEST POP PUSH2 0x126 DUP1 PUSH2 0x20 PUSH1 0x0 CODECOPY PUSH1 0x0 RETURN INVALID PUSH1 0x80 PUSH1 0x40 MSTORE CALLVALUE DUP1 ISZERO PUSH1 0xF JUMPI PUSH1 0x0 DUP1 REVERT JUMPDEST POP PUSH1 0x4 CALLDATASIZE LT PUSH1 0x3B JUMPI PUSH1 0x0 CALLDATALOAD PUSH1 0xE0 SHR DUP1 PUSH3 0x35921A EQ PUSH1 0x40 JUMPI DUP1 PUSH4 0x6C1F222F EQ PUSH1 0x62 JUMPI DUP1 PUSH4 0x72A099B7 EQ PUSH1 0x84 JUMPI JUMPDEST PUSH1 0x0 DUP1 REVERT JUMPDEST PUSH1 0x46 PUSH1 0xA6 JUMP JUMPDEST PUSH1 0x40 MLOAD DUP1 DUP3 PUSH1 0xFF AND PUSH1 0xFF AND DUP2 MSTORE PUSH1 0x20 ADD SWAP2 POP POP PUSH1 0x40 MLOAD DUP1 SWAP2 SUB SWAP1 RETURN JUMPDEST PUSH1 0x68 PUSH1 0xBD JUMP JUMPDEST PUSH1 0x40 MLOAD DUP1 DUP3 PUSH1 0xFF AND PUSH1 0xFF AND DUP2 MSTORE PUSH1 0x20 ADD SWAP2 POP POP PUSH1 0x40 MLOAD DUP1 SWAP2 SUB SWAP1 RETURN JUMPDEST PUSH1 0x8A PUSH1 0xDA JUMP JUMPDEST PUSH1 0x40 MLOAD DUP1 DUP3 PUSH1 0xFF AND PUSH1 0xFF AND DUP2 MSTORE PUSH1 0x20 ADD SWAP2 POP POP PUSH1 0x40 MLOAD DUP1 SWAP2 SUB SWAP1 RETURN JUMPDEST PUSH1 0x0 DUP1 PUSH1 0x80 SWAP1 POP PUSH1 0x0 PUSH1 0x2 DUP3 MUL SWAP1 POP DUP1 SWAP3 POP POP POP SWAP1 JUMP JUMPDEST PUSH1 0x0 DUP1 PUSH1 0xF0 SWAP1 POP PUSH1 0x0 PUSH1 0x10 SWAP1 POP PUSH1 0x0 DUP2 DUP4 ADD SWAP1 POP DUP1 SWAP4 POP POP POP POP SWAP1 JUMP JUMPDEST PUSH1 0x0 DUP1 PUSH1 0x1 SWAP1 POP PUSH1 0x0 PUSH1 0x2 DUP3 SUB SWAP1 POP DUP1 SWAP3 POP POP POP SWAP1 JUMP INVALID LOG2 PUSH6 0x627A7A723158 KECCAK256 0xF8 0xED DIV 0xA9 SSTORE 0xE4 0xDD 0xBC 0x5F 0x5E SWAP11 EXP DUP13 INVALID 0xC4 0x2B DELEGATECALL GASPRICE BYTE RETURN PUSH31 0x5FBE140CE7ECA1B425E9564736F6C63430005110032000000000000000000 "
				},
				"gasEstimates": {
					"creation": {
						"codeDepositCost": "58800",
						"executionCost": "111",
						"totalCost": "58911"
					},
					"external": {
						"add1()": "237",
						"add2()": "270",
						"sub1()": "279"
					}
				},
				"methodIdentifiers": {
					"add1()": "0035921a",
					"add2()": "6c1f222f",
					"sub1()": "72a099b7"
				}
			},
			"storageLayout": {
				"storage": [],
				"types": null
			},
			"userdoc": {
				"methods": {}
			}
		}
	}
}