{
	"testInt.sol": {
		"testInt": {
			"abi": [
				{
					"inputs": [],
					"name": "a2",
					"outputs": [
						{
							"internalType": "uint256",
							"name": "",
							"type": "uint256"
						}
					],
					"stateMutability": "view",
					"type": "function"
				},
				{
					"inputs": [],
					"name": "account",
					"outputs": [
						{
							"internalType": "int256",
							"name": "",
							"type": "int256"
						}
					],
					"stateMutability": "view",
					"type": "function"
				},
				{
					"inputs": [
						{
							"internalType": "uint256",
							"name": "x",
							"type": "uint256"
						},
						{
							"internalType": "uint256",
							"name": "y",
							"type": "uint256"
						}
					],
					"name": "add",
					"outputs": [
						{
							"internalType": "uint256",
							"name": "z",
							"type": "uint256"
						}
					],
					"stateMutability": "pure",
					"type": "function"
				},
				{
					"inputs": [],
					"name": "addr",
					"outputs": [
						{
							"internalType": "address",
							"name": "",
							"type": "address"
						}
					],
					"stateMutability": "view",
					"type": "function"
				},
				{
					"inputs": [],
					"name": "b2",
					"outputs": [
						{
							"internalType": "bytes32",
							"name": "",
							"type": "bytes32"
						}
					],
					"stateMutability": "view",
					"type": "function"
				},
				{
					"inputs": [
						{
							"internalType": "uint256",
							"name": "x",
							"type": "uint256"
						},
						{
							"internalType": "uint256",
							"name": "y",
							"type": "uint256"
						}
					],
					"name": "divide",
					"outputs": [
						{
							"internalType": "uint256",
							"name": "z",
							"type": "uint256"
						}
					],
					"stateMutability": "pure",
					"type": "function"
				},
				{
					"inputs": [],
					"name": "flag1",
					"outputs": [
						{
							"internalType": "bool",
							"name": "",
							"type": "bool"
						}
					],
					"stateMutability": "view",
					"type": "function"
				},
				{
					"inputs": [],
					"name": "flag2",
					"outputs": [
						{
							"internalType": "bool",
							"name": "",
							"type": "bool"
						}
					],
					"stateMutability": "view",
					"type": "function"
				},
				{
					"inputs": [
						{
							"internalType": "int256",
							"name": "x",
							"type": "int256"
						},
						{
							"internalType": "uint256",
							"name": "y",
							"type": "uint256"
						}
					],
					"name": "leftshift",
					"outputs": [
						{
							"internalType": "int256",
							"name": "z",
							"type": "int256"
						}
					],
					"stateMutability": "pure",
					"type": "function"
				},
				{
					"inputs": [
						{
							"internalType": "int256",
							"name": "x",
							"type": "int256"
						},
						{
							"internalType": "uint256",
							"name": "y",
							"type": "uint256"
						}
					],
					"name": "rightshift",
					"outputs": [
						{
							"internalType": "int256",
							"name": "z",
							"type": "int256"
						}
					],
					"stateMutability": "pure",
					"type": "function"
				},
				{
					"inputs": [],
					"name": "testPlusPlus",
					"outputs": [
						{
							"internalType": "uint256",
							"name": "",
							"type": "uint256"
						}
					],
					"stateMutability": "pure",
					"type": "function"
				}
			],
			"devdoc": {
				"kind": "dev",
				"methods": {},
				"version": 1
			},
			"evm": {
				"assembly": "    /* \"testInt.sol\":58:1178  contract testInt{... */\n  mstore(0x40, 0x80)\n    /* \"testInt.sol\":90:92  -1 */\n  0xffffffffffffffffffffffffffffffffffffffffffffffffffffffffffffffff\n    /* \"testInt.sol\":81:92  int8 a = -1 */\n  0x00\n  exp(0x0100, 0x00)\n  dup2\n  sload\n  dup2\n  0xff\n  mul\n  not\n  and\n  swap1\n  dup4\n  0x00\n  signextend\n  0xff\n  and\n  mul\n  or\n  swap1\n  sstore\n  pop\n    /* \"testInt.sol\":108:110  16 */\n  0x10\n    /* \"testInt.sol\":98:110  int16 b = 16 */\n  0x00\n  exp(0x0100, 0x01)\n  dup2\n  sload\n  dup2\n  0xffff\n  mul\n  not\n  and\n  swap1\n  dup4\n  0x01\n  signextend\n  0xffff\n  and\n  mul\n  or\n  swap1\n  sstore\n  pop\n    /* \"testInt.sol\":127:129  32 */\n  0x20\n    /* \"testInt.sol\":116:129  uint32 c = 32 */\n  0x00\n  exp(0x0100, 0x03)\n  dup2\n  sload\n  dup2\n  0xffffffff\n  mul\n  not\n  and\n  swap1\n  dup4\n  0xffffffff\n  and\n  mul\n  or\n  swap1\n  sstore\n  pop\n    /* \"testInt.sol\":145:146  8 */\n  0x08\n    /* \"testInt.sol\":135:146  uint8 d = 8 */\n  0x00\n  exp(0x0100, 0x07)\n  dup2\n  sload\n  dup2\n  0xff\n  mul\n  not\n  and\n  swap1\n  dup4\n  0xff\n  and\n  mul\n  or\n  swap1\n  sstore\n  pop\n    /* \"testInt.sol\":174:184  1*2**255-1 */\n  0x7fffffffffffffffffffffffffffffffffffffffffffffffffffffffffffffff\n    /* \"testInt.sol\":153:184  int public account = 1*2**255-1 */\n  0x01\n  sstore\n    /* \"testInt.sol\":212:222  1*2**256-1 */\n  0xffffffffffffffffffffffffffffffffffffffffffffffffffffffffffffffff\n    /* \"testInt.sol\":195:222  uint public a2 = 1*2**256-1 */\n  0x02\n  sstore\n    /* \"testInt.sol\":248:253  false */\n  0x00\n    /* \"testInt.sol\":228:253  bool public flag2 = false */\n  0x03\n  exp(0x0100, 0x00)\n  dup2\n  sload\n  dup2\n  0xff\n  mul\n  not\n  and\n  swap1\n  dup4\n  iszero\n  iszero\n  mul\n  or\n  swap1\n  sstore\n  pop\n    /* \"testInt.sol\":279:283  true */\n  0x01\n    /* \"testInt.sol\":259:283  bool public flag1 = true */\n  0x03\n  exp(0x0100, 0x01)\n  dup2\n  sload\n  dup2\n  0xff\n  mul\n  not\n  and\n  swap1\n  dup4\n  iszero\n  iszero\n  mul\n  or\n  swap1\n  sstore\n  pop\n    /* \"testInt.sol\":312:354  0xf79Dc8C6eaDD48cC6C1c8536e0b5e10c7d121970 */\n  0xf79dc8c6eadd48cc6c1c8536e0b5e10c7d121970\n    /* \"testInt.sol\":289:354  address public  addr = 0xf79Dc8C6eaDD48cC6C1c8536e0b5e10c7d121970 */\n  0x03\n  exp(0x0100, 0x02)\n  dup2\n  sload\n  dup2\n  0xffffffffffffffffffffffffffffffffffffffff\n  mul\n  not\n  and\n  swap1\n  dup4\n  0xffffffffffffffffffffffffffffffffffffffff\n  and\n  mul\n  or\n  swap1\n  sstore\n  pop\n    /* \"testInt.sol\":365:395  bytes32 public  b2 = hex\"1000\" */\n  sstore(0x04, 0x1000000000000000000000000000000000000000000000000000000000000000)\n    /* \"testInt.sol\":58:1178  contract testInt{... */\n  callvalue\n  dup1\n  iszero\n  tag_1\n  jumpi\n  revert(0x00, 0x00)\ntag_1:\n  pop\n  dataSize(sub_0)\n  dup1\n  dataOffset(sub_0)\n  0x00\n  codecopy\n  0x00\n  return\nstop\n\nsub_0: assembly {\n        /* \"testInt.sol\":58:1178  contract testInt{... */\n      mstore(0x40, 0x80)\n      callvalue\n      dup1\n      iszero\n      tag_1\n      jumpi\n      revert(0x00, 0x00)\n    tag_1:\n      pop\n      jumpi(tag_2, lt(calldatasize, 0x04))\n      shr(0xe0, calldataload(0x00))\n      dup1\n      0x767800de\n      gt\n      tag_14\n      jumpi\n      dup1\n      0x767800de\n      eq\n      tag_8\n      jumpi\n      dup1\n      0x771602f7\n      eq\n      tag_9\n      jumpi\n      dup1\n      0x969e9d0c\n      eq\n      tag_10\n      jumpi\n      dup1\n      0xb41cd3c8\n      eq\n      tag_11\n      jumpi\n      dup1\n      0xb68af89b\n      eq\n      tag_12\n      jumpi\n      dup1\n      0xf88e9fbf\n      eq\n      tag_13\n      jumpi\n      jump(tag_2)\n    tag_14:\n      dup1\n      0x0add6ef2\n      eq\n      tag_3\n      jumpi\n      dup1\n      0x3004511f\n      eq\n      tag_4\n      jumpi\n      dup1\n      0x49ed7394\n      eq\n      tag_5\n      jumpi\n      dup1\n      0x5dab2420\n      eq\n      tag_6\n      jumpi\n      dup1\n      0x6f52cd7a\n      eq\n      tag_7\n      jumpi\n    tag_2:\n      revert(0x00, 0x00)\n        /* \"testInt.sol\":365:395  bytes32 public  b2 = hex\"1000\" */\n    tag_3:\n      tag_15\n      tag_16\n      jump\t// in\n    tag_15:\n      mload(0x40)\n      tag_17\n      swap2\n      swap1\n      tag_18\n      jump\t// in\n    tag_17:\n      mload(0x40)\n      dup1\n      swap2\n      sub\n      swap1\n      return\n        /* \"testInt.sol\":228:253  bool public flag2 = false */\n    tag_4:\n      tag_19\n      tag_20\n      jump\t// in\n    tag_19:\n      mload(0x40)\n      tag_21\n      swap2\n      swap1\n      tag_22\n      jump\t// in\n    tag_21:\n      mload(0x40)\n      dup1\n      swap2\n      sub\n      swap1\n      return\n        /* \"testInt.sol\":259:283  bool public flag1 = true */\n    tag_5:\n      tag_23\n      tag_24\n      jump\t// in\n    tag_23:\n      mload(0x40)\n      tag_25\n      swap2\n      swap1\n      tag_22\n      jump\t// in\n    tag_25:\n      mload(0x40)\n      dup1\n      swap2\n      sub\n      swap1\n      return\n        /* \"testInt.sol\":153:184  int public account = 1*2**255-1 */\n    tag_6:\n      tag_26\n      tag_27\n      jump\t// in\n    tag_26:\n      mload(0x40)\n      tag_28\n      swap2\n      swap1\n      tag_29\n      jump\t// in\n    tag_28:\n      mload(0x40)\n      dup1\n      swap2\n      sub\n      swap1\n      return\n        /* \"testInt.sol\":647:736  function leftshift(int x, uint y) public pure returns (int z){... */\n    tag_7:\n      tag_30\n      0x04\n      dup1\n      calldatasize\n      sub\n      dup2\n      add\n      swap1\n      tag_31\n      swap2\n      swap1\n      tag_32\n      jump\t// in\n    tag_31:\n      tag_33\n      jump\t// in\n    tag_30:\n      mload(0x40)\n      tag_34\n      swap2\n      swap1\n      tag_29\n      jump\t// in\n    tag_34:\n      mload(0x40)\n      dup1\n      swap2\n      sub\n      swap1\n      return\n        /* \"testInt.sol\":289:354  address public  addr = 0xf79Dc8C6eaDD48cC6C1c8536e0b5e10c7d121970 */\n    tag_8:\n      tag_35\n      tag_36\n      jump\t// in\n    tag_35:\n      mload(0x40)\n      tag_37\n      swap2\n      swap1\n      tag_38\n      jump\t// in\n    tag_37:\n      mload(0x40)\n      dup1\n      swap2\n      sub\n      swap1\n      return\n        /* \"testInt.sol\":462:545  function add(uint x,uint y) public pure returns (uint z){... */\n    tag_9:\n      tag_39\n      0x04\n      dup1\n      calldatasize\n      sub\n      dup2\n      add\n      swap1\n      tag_40\n      swap2\n      swap1\n      tag_41\n      jump\t// in\n    tag_40:\n      tag_42\n      jump\t// in\n    tag_39:\n      mload(0x40)\n      tag_43\n      swap2\n      swap1\n      tag_44\n      jump\t// in\n    tag_43:\n      mload(0x40)\n      dup1\n      swap2\n      sub\n      swap1\n      return\n        /* \"testInt.sol\":195:222  uint public a2 = 1*2**256-1 */\n    tag_10:\n      tag_45\n      tag_46\n      jump\t// in\n    tag_45:\n      mload(0x40)\n      tag_47\n      swap2\n      swap1\n      tag_44\n      jump\t// in\n    tag_47:\n      mload(0x40)\n      dup1\n      swap2\n      sub\n      swap1\n      return\n        /* \"testInt.sol\":838:964  function testPlusPlus() public pure returns (uint ) { ... */\n    tag_11:\n      tag_48\n      tag_49\n      jump\t// in\n    tag_48:\n      mload(0x40)\n      tag_50\n      swap2\n      swap1\n      tag_44\n      jump\t// in\n    tag_50:\n      mload(0x40)\n      dup1\n      swap2\n      sub\n      swap1\n      return\n        /* \"testInt.sol\":742:832  function rightshift(int x, uint y) public pure returns (int z){... */\n    tag_12:\n      tag_51\n      0x04\n      dup1\n      calldatasize\n      sub\n      dup2\n      add\n      swap1\n      tag_52\n      swap2\n      swap1\n      tag_32\n      jump\t// in\n    tag_52:\n      tag_53\n      jump\t// in\n    tag_51:\n      mload(0x40)\n      tag_54\n      swap2\n      swap1\n      tag_29\n      jump\t// in\n    tag_54:\n      mload(0x40)\n      dup1\n      swap2\n      sub\n      swap1\n      return\n        /* \"testInt.sol\":555:642  function divide(uint x,uint y) public pure returns (uint z) {... */\n    tag_13:\n      tag_55\n      0x04\n      dup1\n      calldatasize\n      sub\n      dup2\n      add\n      swap1\n      tag_56\n      swap2\n      swap1\n      tag_41\n      jump\t// in\n    tag_56:\n      tag_57\n      jump\t// in\n    tag_55:\n      mload(0x40)\n      tag_58\n      swap2\n      swap1\n      tag_44\n      jump\t// in\n    tag_58:\n      mload(0x40)\n      dup1\n      swap2\n      sub\n      swap1\n      return\n        /* \"testInt.sol\":365:395  bytes32 public  b2 = hex\"1000\" */\n    tag_16:\n      sload(0x04)\n      dup2\n      jump\t// out\n        /* \"testInt.sol\":228:253  bool public flag2 = false */\n    tag_20:\n      0x03\n      0x00\n      swap1\n      sload\n      swap1\n      0x0100\n      exp\n      swap1\n      div\n      0xff\n      and\n      dup2\n      jump\t// out\n        /* \"testInt.sol\":259:283  bool public flag1 = true */\n    tag_24:\n      0x03\n      0x01\n      swap1\n      sload\n      swap1\n      0x0100\n      exp\n      swap1\n      div\n      0xff\n      and\n      dup2\n      jump\t// out\n        /* \"testInt.sol\":153:184  int public account = 1*2**255-1 */\n    tag_27:\n      sload(0x01)\n      dup2\n      jump\t// out\n        /* \"testInt.sol\":647:736  function leftshift(int x, uint y) public pure returns (int z){... */\n    tag_33:\n        /* \"testInt.sol\":702:707  int z */\n      0x00\n        /* \"testInt.sol\":727:728  y */\n      dup2\n        /* \"testInt.sol\":722:723  x */\n      dup4\n        /* \"testInt.sol\":722:728  x << y */\n      swap1\n      shl\n        /* \"testInt.sol\":718:728  z = x << y */\n      swap1\n      pop\n        /* \"testInt.sol\":647:736  function leftshift(int x, uint y) public pure returns (int z){... */\n      swap3\n      swap2\n      pop\n      pop\n      jump\t// out\n        /* \"testInt.sol\":289:354  address public  addr = 0xf79Dc8C6eaDD48cC6C1c8536e0b5e10c7d121970 */\n    tag_36:\n      0x03\n      0x02\n      swap1\n      sload\n      swap1\n      0x0100\n      exp\n      swap1\n      div\n      0xffffffffffffffffffffffffffffffffffffffff\n      and\n      dup2\n      jump\t// out\n        /* \"testInt.sol\":462:545  function add(uint x,uint y) public pure returns (uint z){... */\n    tag_42:\n        /* \"testInt.sol\":511:517  uint z */\n      0x00\n        /* \"testInt.sol\":537:538  y */\n      dup2\n        /* \"testInt.sol\":535:536  x */\n      dup4\n        /* \"testInt.sol\":535:538  x+y */\n      tag_61\n      swap2\n      swap1\n      tag_62\n      jump\t// in\n    tag_61:\n        /* \"testInt.sol\":528:538  return x+y */\n      swap1\n      pop\n        /* \"testInt.sol\":462:545  function add(uint x,uint y) public pure returns (uint z){... */\n      swap3\n      swap2\n      pop\n      pop\n      jump\t// out\n        /* \"testInt.sol\":195:222  uint public a2 = 1*2**256-1 */\n    tag_46:\n      sload(0x02)\n      dup2\n      jump\t// out\n        /* \"testInt.sol\":838:964  function testPlusPlus() public pure returns (uint ) { ... */\n    tag_49:\n        /* \"testInt.sol\":883:887  uint */\n      0x00\n        /* \"testInt.sol\":901:907  uint x */\n      0x00\n        /* \"testInt.sol\":910:911  1 */\n      0x01\n        /* \"testInt.sol\":901:911  uint x = 1 */\n      swap1\n      pop\n        /* \"testInt.sol\":913:919  uint y */\n      0x00\n        /* \"testInt.sol\":922:925  ++x */\n      dup2\n      tag_64\n      swap1\n      tag_65\n      jump\t// in\n    tag_64:\n      swap2\n      pop\n      dup2\n        /* \"testInt.sol\":913:925  uint y = ++x */\n      swap1\n      pop\n        /* \"testInt.sol\":955:956  y */\n      dup1\n        /* \"testInt.sol\":948:956  return y */\n      swap3\n      pop\n      pop\n      pop\n        /* \"testInt.sol\":838:964  function testPlusPlus() public pure returns (uint ) { ... */\n      swap1\n      jump\t// out\n        /* \"testInt.sol\":742:832  function rightshift(int x, uint y) public pure returns (int z){... */\n    tag_53:\n        /* \"testInt.sol\":798:803  int z */\n      0x00\n        /* \"testInt.sol\":823:824  y */\n      dup2\n        /* \"testInt.sol\":818:819  x */\n      dup4\n        /* \"testInt.sol\":818:824  x >> y */\n      swap1\n      sar\n        /* \"testInt.sol\":814:824  z = x >> y */\n      swap1\n      pop\n        /* \"testInt.sol\":742:832  function rightshift(int x, uint y) public pure returns (int z){... */\n      swap3\n      swap2\n      pop\n      pop\n      jump\t// out\n        /* \"testInt.sol\":555:642  function divide(uint x,uint y) public pure returns (uint z) {... */\n    tag_57:\n        /* \"testInt.sol\":607:613  uint z */\n      0x00\n        /* \"testInt.sol\":634:635  y */\n      dup2\n        /* \"testInt.sol\":632:633  x */\n      dup4\n        /* \"testInt.sol\":632:635  x/y */\n      tag_68\n      swap2\n      swap1\n      tag_69\n      jump\t// in\n    tag_68:\n        /* \"testInt.sol\":625:635  return x/y */\n      swap1\n      pop\n        /* \"testInt.sol\":555:642  function divide(uint x,uint y) public pure returns (uint z) {... */\n      swap3\n      swap2\n      pop\n      pop\n      jump\t// out\n        /* \"#utility.yul\":7:84   */\n    tag_70:\n        /* \"#utility.yul\":44:51   */\n      0x00\n        /* \"#utility.yul\":73:78   */\n      dup2\n        /* \"#utility.yul\":62:78   */\n      swap1\n      pop\n        /* \"#utility.yul\":7:84   */\n      swap2\n      swap1\n      pop\n      jump\t// out\n        /* \"#utility.yul\":90:208   */\n    tag_71:\n        /* \"#utility.yul\":177:201   */\n      tag_93\n        /* \"#utility.yul\":195:200   */\n      dup2\n        /* \"#utility.yul\":177:201   */\n      tag_70\n      jump\t// in\n    tag_93:\n        /* \"#utility.yul\":172:175   */\n      dup3\n        /* \"#utility.yul\":165:202   */\n      mstore\n        /* \"#utility.yul\":90:208   */\n      pop\n      pop\n      jump\t// out\n        /* \"#utility.yul\":214:436   */\n    tag_18:\n        /* \"#utility.yul\":307:311   */\n      0x00\n        /* \"#utility.yul\":345:347   */\n      0x20\n        /* \"#utility.yul\":334:343   */\n      dup3\n        /* \"#utility.yul\":330:348   */\n      add\n        /* \"#utility.yul\":322:348   */\n      swap1\n      pop\n        /* \"#utility.yul\":358:429   */\n      tag_95\n        /* \"#utility.yul\":426:427   */\n      0x00\n        /* \"#utility.yul\":415:424   */\n      dup4\n        /* \"#utility.yul\":411:428   */\n      add\n        /* \"#utility.yul\":402:408   */\n      dup5\n        /* \"#utility.yul\":358:429   */\n      tag_71\n      jump\t// in\n    tag_95:\n        /* \"#utility.yul\":214:436   */\n      swap3\n      swap2\n      pop\n      pop\n      jump\t// out\n        /* \"#utility.yul\":442:532   */\n    tag_72:\n        /* \"#utility.yul\":476:483   */\n      0x00\n        /* \"#utility.yul\":519:524   */\n      dup2\n        /* \"#utility.yul\":512:525   */\n      iszero\n        /* \"#utility.yul\":505:526   */\n      iszero\n        /* \"#utility.yul\":494:526   */\n      swap1\n      pop\n        /* \"#utility.yul\":442:532   */\n      swap2\n      swap1\n      pop\n      jump\t// out\n        /* \"#utility.yul\":538:647   */\n    tag_73:\n        /* \"#utility.yul\":619:640   */\n      tag_98\n        /* \"#utility.yul\":634:639   */\n      dup2\n        /* \"#utility.yul\":619:640   */\n      tag_72\n      jump\t// in\n    tag_98:\n        /* \"#utility.yul\":614:617   */\n      dup3\n        /* \"#utility.yul\":607:641   */\n      mstore\n        /* \"#utility.yul\":538:647   */\n      pop\n      pop\n      jump\t// out\n        /* \"#utility.yul\":653:863   */\n    tag_22:\n        /* \"#utility.yul\":740:744   */\n      0x00\n        /* \"#utility.yul\":778:780   */\n      0x20\n        /* \"#utility.yul\":767:776   */\n      dup3\n        /* \"#utility.yul\":763:781   */\n      add\n        /* \"#utility.yul\":755:781   */\n      swap1\n      pop\n        /* \"#utility.yul\":791:856   */\n      tag_100\n        /* \"#utility.yul\":853:854   */\n      0x00\n        /* \"#utility.yul\":842:851   */\n      dup4\n        /* \"#utility.yul\":838:855   */\n      add\n        /* \"#utility.yul\":829:835   */\n      dup5\n        /* \"#utility.yul\":791:856   */\n      tag_73\n      jump\t// in\n    tag_100:\n        /* \"#utility.yul\":653:863   */\n      swap3\n      swap2\n      pop\n      pop\n      jump\t// out\n        /* \"#utility.yul\":869:945   */\n    tag_74:\n        /* \"#utility.yul\":905:912   */\n      0x00\n        /* \"#utility.yul\":934:939   */\n      dup2\n        /* \"#utility.yul\":923:939   */\n      swap1\n      pop\n        /* \"#utility.yul\":869:945   */\n      swap2\n      swap1\n      pop\n      jump\t// out\n        /* \"#utility.yul\":951:1066   */\n    tag_75:\n        /* \"#utility.yul\":1036:1059   */\n      tag_103\n        /* \"#utility.yul\":1053:1058   */\n      dup2\n        /* \"#utility.yul\":1036:1059   */\n      tag_74\n      jump\t// in\n    tag_103:\n        /* \"#utility.yul\":1031:1034   */\n      dup3\n        /* \"#utility.yul\":1024:1060   */\n      mstore\n        /* \"#utility.yul\":951:1066   */\n      pop\n      pop\n      jump\t// out\n        /* \"#utility.yul\":1072:1290   */\n    tag_29:\n        /* \"#utility.yul\":1163:1167   */\n      0x00\n        /* \"#utility.yul\":1201:1203   */\n      0x20\n        /* \"#utility.yul\":1190:1199   */\n      dup3\n        /* \"#utility.yul\":1186:1204   */\n      add\n        /* \"#utility.yul\":1178:1204   */\n      swap1\n      pop\n        /* \"#utility.yul\":1214:1283   */\n      tag_105\n        /* \"#utility.yul\":1280:1281   */\n      0x00\n        /* \"#utility.yul\":1269:1278   */\n      dup4\n        /* \"#utility.yul\":1265:1282   */\n      add\n        /* \"#utility.yul\":1256:1262   */\n      dup5\n        /* \"#utility.yul\":1214:1283   */\n      tag_75\n      jump\t// in\n    tag_105:\n        /* \"#utility.yul\":1072:1290   */\n      swap3\n      swap2\n      pop\n      pop\n      jump\t// out\n        /* \"#utility.yul\":1377:1494   */\n    tag_77:\n        /* \"#utility.yul\":1486:1487   */\n      0x00\n        /* \"#utility.yul\":1483:1484   */\n      0x00\n        /* \"#utility.yul\":1476:1488   */\n      revert\n        /* \"#utility.yul\":1623:1743   */\n    tag_79:\n        /* \"#utility.yul\":1695:1718   */\n      tag_110\n        /* \"#utility.yul\":1712:1717   */\n      dup2\n        /* \"#utility.yul\":1695:1718   */\n      tag_74\n      jump\t// in\n    tag_110:\n        /* \"#utility.yul\":1688:1693   */\n      dup2\n        /* \"#utility.yul\":1685:1719   */\n      eq\n        /* \"#utility.yul\":1675:1737   */\n      tag_111\n      jumpi\n        /* \"#utility.yul\":1733:1734   */\n      0x00\n        /* \"#utility.yul\":1730:1731   */\n      0x00\n        /* \"#utility.yul\":1723:1735   */\n      revert\n        /* \"#utility.yul\":1675:1737   */\n    tag_111:\n        /* \"#utility.yul\":1623:1743   */\n      pop\n      jump\t// out\n        /* \"#utility.yul\":1749:1886   */\n    tag_80:\n        /* \"#utility.yul\":1794:1799   */\n      0x00\n        /* \"#utility.yul\":1832:1838   */\n      dup2\n        /* \"#utility.yul\":1819:1839   */\n      calldataload\n        /* \"#utility.yul\":1810:1839   */\n      swap1\n      pop\n        /* \"#utility.yul\":1848:1880   */\n      tag_113\n        /* \"#utility.yul\":1874:1879   */\n      dup2\n        /* \"#utility.yul\":1848:1880   */\n      tag_79\n      jump\t// in\n    tag_113:\n        /* \"#utility.yul\":1749:1886   */\n      swap3\n      swap2\n      pop\n      pop\n      jump\t// out\n        /* \"#utility.yul\":1892:1969   */\n    tag_81:\n        /* \"#utility.yul\":1929:1936   */\n      0x00\n        /* \"#utility.yul\":1958:1963   */\n      dup2\n        /* \"#utility.yul\":1947:1963   */\n      swap1\n      pop\n        /* \"#utility.yul\":1892:1969   */\n      swap2\n      swap1\n      pop\n      jump\t// out\n        /* \"#utility.yul\":1975:2097   */\n    tag_82:\n        /* \"#utility.yul\":2048:2072   */\n      tag_116\n        /* \"#utility.yul\":2066:2071   */\n      dup2\n        /* \"#utility.yul\":2048:2072   */\n      tag_81\n      jump\t// in\n    tag_116:\n        /* \"#utility.yul\":2041:2046   */\n      dup2\n        /* \"#utility.yul\":2038:2073   */\n      eq\n        /* \"#utility.yul\":2028:2091   */\n      tag_117\n      jumpi\n        /* \"#utility.yul\":2087:2088   */\n      0x00\n        /* \"#utility.yul\":2084:2085   */\n      0x00\n        /* \"#utility.yul\":2077:2089   */\n      revert\n        /* \"#utility.yul\":2028:2091   */\n    tag_117:\n        /* \"#utility.yul\":1975:2097   */\n      pop\n      jump\t// out\n        /* \"#utility.yul\":2103:2242   */\n    tag_83:\n        /* \"#utility.yul\":2149:2154   */\n      0x00\n        /* \"#utility.yul\":2187:2193   */\n      dup2\n        /* \"#utility.yul\":2174:2194   */\n      calldataload\n        /* \"#utility.yul\":2165:2194   */\n      swap1\n      pop\n        /* \"#utility.yul\":2203:2236   */\n      tag_119\n        /* \"#utility.yul\":2230:2235   */\n      dup2\n        /* \"#utility.yul\":2203:2236   */\n      tag_82\n      jump\t// in\n    tag_119:\n        /* \"#utility.yul\":2103:2242   */\n      swap3\n      swap2\n      pop\n      pop\n      jump\t// out\n        /* \"#utility.yul\":2248:2720   */\n    tag_32:\n        /* \"#utility.yul\":2315:2321   */\n      0x00\n        /* \"#utility.yul\":2323:2329   */\n      0x00\n        /* \"#utility.yul\":2372:2374   */\n      0x40\n        /* \"#utility.yul\":2360:2369   */\n      dup4\n        /* \"#utility.yul\":2351:2358   */\n      dup6\n        /* \"#utility.yul\":2347:2370   */\n      sub\n        /* \"#utility.yul\":2343:2375   */\n      slt\n        /* \"#utility.yul\":2340:2459   */\n      iszero\n      tag_121\n      jumpi\n        /* \"#utility.yul\":2378:2457   */\n      tag_122\n      tag_77\n      jump\t// in\n    tag_122:\n        /* \"#utility.yul\":2340:2459   */\n    tag_121:\n        /* \"#utility.yul\":2498:2499   */\n      0x00\n        /* \"#utility.yul\":2523:2575   */\n      tag_123\n        /* \"#utility.yul\":2567:2574   */\n      dup6\n        /* \"#utility.yul\":2558:2564   */\n      dup3\n        /* \"#utility.yul\":2547:2556   */\n      dup7\n        /* \"#utility.yul\":2543:2565   */\n      add\n        /* \"#utility.yul\":2523:2575   */\n      tag_80\n      jump\t// in\n    tag_123:\n        /* \"#utility.yul\":2513:2575   */\n      swap3\n      pop\n        /* \"#utility.yul\":2469:2585   */\n      pop\n        /* \"#utility.yul\":2624:2626   */\n      0x20\n        /* \"#utility.yul\":2650:2703   */\n      tag_124\n        /* \"#utility.yul\":2695:2702   */\n      dup6\n        /* \"#utility.yul\":2686:2692   */\n      dup3\n        /* \"#utility.yul\":2675:2684   */\n      dup7\n        /* \"#utility.yul\":2671:2693   */\n      add\n        /* \"#utility.yul\":2650:2703   */\n      tag_83\n      jump\t// in\n    tag_124:\n        /* \"#utility.yul\":2640:2703   */\n      swap2\n      pop\n        /* \"#utility.yul\":2595:2713   */\n      pop\n        /* \"#utility.yul\":2248:2720   */\n      swap3\n      pop\n      swap3\n      swap1\n      pop\n      jump\t// out\n        /* \"#utility.yul\":2726:2852   */\n    tag_84:\n        /* \"#utility.yul\":2763:2770   */\n      0x00\n        /* \"#utility.yul\":2803:2845   */\n      0xffffffffffffffffffffffffffffffffffffffff\n        /* \"#utility.yul\":2796:2801   */\n      dup3\n        /* \"#utility.yul\":2792:2846   */\n      and\n        /* \"#utility.yul\":2781:2846   */\n      swap1\n      pop\n        /* \"#utility.yul\":2726:2852   */\n      swap2\n      swap1\n      pop\n      jump\t// out\n        /* \"#utility.yul\":2858:2954   */\n    tag_85:\n        /* \"#utility.yul\":2895:2902   */\n      0x00\n        /* \"#utility.yul\":2924:2948   */\n      tag_127\n        /* \"#utility.yul\":2942:2947   */\n      dup3\n        /* \"#utility.yul\":2924:2948   */\n      tag_84\n      jump\t// in\n    tag_127:\n        /* \"#utility.yul\":2913:2948   */\n      swap1\n      pop\n        /* \"#utility.yul\":2858:2954   */\n      swap2\n      swap1\n      pop\n      jump\t// out\n        /* \"#utility.yul\":2960:3078   */\n    tag_86:\n        /* \"#utility.yul\":3047:3071   */\n      tag_129\n        /* \"#utility.yul\":3065:3070   */\n      dup2\n        /* \"#utility.yul\":3047:3071   */\n      tag_85\n      jump\t// in\n    tag_129:\n        /* \"#utility.yul\":3042:3045   */\n      dup3\n        /* \"#utility.yul\":3035:3072   */\n      mstore\n        /* \"#utility.yul\":2960:3078   */\n      pop\n      pop\n      jump\t// out\n        /* \"#utility.yul\":3084:3306   */\n    tag_38:\n        /* \"#utility.yul\":3177:3181   */\n      0x00\n        /* \"#utility.yul\":3215:3217   */\n      0x20\n        /* \"#utility.yul\":3204:3213   */\n      dup3\n        /* \"#utility.yul\":3200:3218   */\n      add\n        /* \"#utility.yul\":3192:3218   */\n      swap1\n      pop\n        /* \"#utility.yul\":3228:3299   */\n      tag_131\n        /* \"#utility.yul\":3296:3297   */\n      0x00\n        /* \"#utility.yul\":3285:3294   */\n      dup4\n        /* \"#utility.yul\":3281:3298   */\n      add\n        /* \"#utility.yul\":3272:3278   */\n      dup5\n        /* \"#utility.yul\":3228:3299   */\n      tag_86\n      jump\t// in\n    tag_131:\n        /* \"#utility.yul\":3084:3306   */\n      swap3\n      swap2\n      pop\n      pop\n      jump\t// out\n        /* \"#utility.yul\":3312:3786   */\n    tag_41:\n        /* \"#utility.yul\":3380:3386   */\n      0x00\n        /* \"#utility.yul\":3388:3394   */\n      0x00\n        /* \"#utility.yul\":3437:3439   */\n      0x40\n        /* \"#utility.yul\":3425:3434   */\n      dup4\n        /* \"#utility.yul\":3416:3423   */\n      dup6\n        /* \"#utility.yul\":3412:3435   */\n      sub\n        /* \"#utility.yul\":3408:3440   */\n      slt\n        /* \"#utility.yul\":3405:3524   */\n      iszero\n      tag_133\n      jumpi\n        /* \"#utility.yul\":3443:3522   */\n      tag_134\n      tag_77\n      jump\t// in\n    tag_134:\n        /* \"#utility.yul\":3405:3524   */\n    tag_133:\n        /* \"#utility.yul\":3563:3564   */\n      0x00\n        /* \"#utility.yul\":3588:3641   */\n      tag_135\n        /* \"#utility.yul\":3633:3640   */\n      dup6\n        /* \"#utility.yul\":3624:3630   */\n      dup3\n        /* \"#utility.yul\":3613:3622   */\n      dup7\n        /* \"#utility.yul\":3609:3631   */\n      add\n        /* \"#utility.yul\":3588:3641   */\n      tag_83\n      jump\t// in\n    tag_135:\n        /* \"#utility.yul\":3578:3641   */\n      swap3\n      pop\n        /* \"#utility.yul\":3534:3651   */\n      pop\n        /* \"#utility.yul\":3690:3692   */\n      0x20\n        /* \"#utility.yul\":3716:3769   */\n      tag_136\n        /* \"#utility.yul\":3761:3768   */\n      dup6\n        /* \"#utility.yul\":3752:3758   */\n      dup3\n        /* \"#utility.yul\":3741:3750   */\n      dup7\n        /* \"#utility.yul\":3737:3759   */\n      add\n        /* \"#utility.yul\":3716:3769   */\n      tag_83\n      jump\t// in\n    tag_136:\n        /* \"#utility.yul\":3706:3769   */\n      swap2\n      pop\n        /* \"#utility.yul\":3661:3779   */\n      pop\n        /* \"#utility.yul\":3312:3786   */\n      swap3\n      pop\n      swap3\n      swap1\n      pop\n      jump\t// out\n        /* \"#utility.yul\":3792:3910   */\n    tag_87:\n        /* \"#utility.yul\":3879:3903   */\n      tag_138\n        /* \"#utility.yul\":3897:3902   */\n      dup2\n        /* \"#utility.yul\":3879:3903   */\n      tag_81\n      jump\t// in\n    tag_138:\n        /* \"#utility.yul\":3874:3877   */\n      dup3\n        /* \"#utility.yul\":3867:3904   */\n      mstore\n        /* \"#utility.yul\":3792:3910   */\n      pop\n      pop\n      jump\t// out\n        /* \"#utility.yul\":3916:4138   */\n    tag_44:\n        /* \"#utility.yul\":4009:4013   */\n      0x00\n        /* \"#utility.yul\":4047:4049   */\n      0x20\n        /* \"#utility.yul\":4036:4045   */\n      dup3\n        /* \"#utility.yul\":4032:4050   */\n      add\n        /* \"#utility.yul\":4024:4050   */\n      swap1\n      pop\n        /* \"#utility.yul\":4060:4131   */\n      tag_140\n        /* \"#utility.yul\":4128:4129   */\n      0x00\n        /* \"#utility.yul\":4117:4126   */\n      dup4\n        /* \"#utility.yul\":4113:4130   */\n      add\n        /* \"#utility.yul\":4104:4110   */\n      dup5\n        /* \"#utility.yul\":4060:4131   */\n      tag_87\n      jump\t// in\n    tag_140:\n        /* \"#utility.yul\":3916:4138   */\n      swap3\n      swap2\n      pop\n      pop\n      jump\t// out\n        /* \"#utility.yul\":4144:4324   */\n    tag_88:\n        /* \"#utility.yul\":4192:4269   */\n      0x4e487b7100000000000000000000000000000000000000000000000000000000\n        /* \"#utility.yul\":4189:4190   */\n      0x00\n        /* \"#utility.yul\":4182:4270   */\n      mstore\n        /* \"#utility.yul\":4289:4293   */\n      0x11\n        /* \"#utility.yul\":4286:4287   */\n      0x04\n        /* \"#utility.yul\":4279:4294   */\n      mstore\n        /* \"#utility.yul\":4313:4317   */\n      0x24\n        /* \"#utility.yul\":4310:4311   */\n      0x00\n        /* \"#utility.yul\":4303:4318   */\n      revert\n        /* \"#utility.yul\":4330:4521   */\n    tag_62:\n        /* \"#utility.yul\":4370:4373   */\n      0x00\n        /* \"#utility.yul\":4389:4409   */\n      tag_143\n        /* \"#utility.yul\":4407:4408   */\n      dup3\n        /* \"#utility.yul\":4389:4409   */\n      tag_81\n      jump\t// in\n    tag_143:\n        /* \"#utility.yul\":4384:4409   */\n      swap2\n      pop\n        /* \"#utility.yul\":4423:4443   */\n      tag_144\n        /* \"#utility.yul\":4441:4442   */\n      dup4\n        /* \"#utility.yul\":4423:4443   */\n      tag_81\n      jump\t// in\n    tag_144:\n        /* \"#utility.yul\":4418:4443   */\n      swap3\n      pop\n        /* \"#utility.yul\":4466:4467   */\n      dup3\n        /* \"#utility.yul\":4463:4464   */\n      dup3\n        /* \"#utility.yul\":4459:4468   */\n      add\n        /* \"#utility.yul\":4452:4468   */\n      swap1\n      pop\n        /* \"#utility.yul\":4487:4490   */\n      dup1\n        /* \"#utility.yul\":4484:4485   */\n      dup3\n        /* \"#utility.yul\":4481:4491   */\n      gt\n        /* \"#utility.yul\":4478:4514   */\n      iszero\n      tag_145\n      jumpi\n        /* \"#utility.yul\":4494:4512   */\n      tag_146\n      tag_88\n      jump\t// in\n    tag_146:\n        /* \"#utility.yul\":4478:4514   */\n    tag_145:\n        /* \"#utility.yul\":4330:4521   */\n      swap3\n      swap2\n      pop\n      pop\n      jump\t// out\n        /* \"#utility.yul\":4527:4760   */\n    tag_65:\n        /* \"#utility.yul\":4566:4569   */\n      0x00\n        /* \"#utility.yul\":4589:4613   */\n      tag_148\n        /* \"#utility.yul\":4607:4612   */\n      dup3\n        /* \"#utility.yul\":4589:4613   */\n      tag_81\n      jump\t// in\n    tag_148:\n        /* \"#utility.yul\":4580:4613   */\n      swap2\n      pop\n        /* \"#utility.yul\":4635:4701   */\n      0xffffffffffffffffffffffffffffffffffffffffffffffffffffffffffffffff\n        /* \"#utility.yul\":4628:4633   */\n      dup3\n        /* \"#utility.yul\":4625:4702   */\n      sub\n        /* \"#utility.yul\":4622:4725   */\n      tag_149\n      jumpi\n        /* \"#utility.yul\":4705:4723   */\n      tag_150\n      tag_88\n      jump\t// in\n    tag_150:\n        /* \"#utility.yul\":4622:4725   */\n    tag_149:\n        /* \"#utility.yul\":4752:4753   */\n      0x01\n        /* \"#utility.yul\":4745:4750   */\n      dup3\n        /* \"#utility.yul\":4741:4754   */\n      add\n        /* \"#utility.yul\":4734:4754   */\n      swap1\n      pop\n        /* \"#utility.yul\":4527:4760   */\n      swap2\n      swap1\n      pop\n      jump\t// out\n        /* \"#utility.yul\":4766:4946   */\n    tag_89:\n        /* \"#utility.yul\":4814:4891   */\n      0x4e487b7100000000000000000000000000000000000000000000000000000000\n        /* \"#utility.yul\":4811:4812   */\n      0x00\n        /* \"#utility.yul\":4804:4892   */\n      mstore\n        /* \"#utility.yul\":4911:4915   */\n      0x12\n        /* \"#utility.yul\":4908:4909   */\n      0x04\n        /* \"#utility.yul\":4901:4916   */\n      mstore\n        /* \"#utility.yul\":4935:4939   */\n      0x24\n        /* \"#utility.yul\":4932:4933   */\n      0x00\n        /* \"#utility.yul\":4925:4940   */\n      revert\n        /* \"#utility.yul\":4952:5137   */\n    tag_69:\n        /* \"#utility.yul\":4992:4993   */\n      0x00\n        /* \"#utility.yul\":5009:5029   */\n      tag_153\n        /* \"#utility.yul\":5027:5028   */\n      dup3\n        /* \"#utility.yul\":5009:5029   */\n      tag_81\n      jump\t// in\n    tag_153:\n        /* \"#utility.yul\":5004:5029   */\n      swap2\n      pop\n        /* \"#utility.yul\":5043:5063   */\n      tag_154\n        /* \"#utility.yul\":5061:5062   */\n      dup4\n        /* \"#utility.yul\":5043:5063   */\n      tag_81\n      jump\t// in\n    tag_154:\n        /* \"#utility.yul\":5038:5063   */\n      swap3\n      pop\n        /* \"#utility.yul\":5082:5083   */\n      dup3\n        /* \"#utility.yul\":5072:5107   */\n      tag_155\n      jumpi\n        /* \"#utility.yul\":5087:5105   */\n      tag_156\n      tag_89\n      jump\t// in\n    tag_156:\n        /* \"#utility.yul\":5072:5107   */\n    tag_155:\n        /* \"#utility.yul\":5129:5130   */\n      dup3\n        /* \"#utility.yul\":5126:5127   */\n      dup3\n        /* \"#utility.yul\":5122:5131   */\n      div\n        /* \"#utility.yul\":5117:5131   */\n      swap1\n      pop\n        /* \"#utility.yul\":4952:5137   */\n      swap3\n      swap2\n      pop\n      pop\n      jump\t// out\n\n    auxdata: 0xa26469706673582212207c6ab8502d6b856db3edf7a309fe07fa9c70c1b27d2d8569dc5a18a445db8c3e64736f6c634300081e0033\n}\n",
				"bytecode": {
					"linkReferences": {},
					"object": "60806040527fffffffffffffffffffffffffffffffffffffffffffffffffffffffffffffffff5f5f6101000a81548160ff02191690835f0b60ff16021790555060105f60016101000a81548161ffff021916908360010b61ffff16021790555060205f60036101000a81548163ffffffff021916908363ffffffff16021790555060085f60076101000a81548160ff021916908360ff1602179055507f7fffffffffffffffffffffffffffffffffffffffffffffffffffffffffffffff6001557fffffffffffffffffffffffffffffffffffffffffffffffffffffffffffffffff6002555f60035f6101000a81548160ff0219169083151502179055506001600360016101000a81548160ff02191690831515021790555073f79dc8c6eadd48cc6c1c8536e0b5e10c7d121970600360026101000a81548173ffffffffffffffffffffffffffffffffffffffff021916908373ffffffffffffffffffffffffffffffffffffffff1602179055507f100000000000000000000000000000000000000000000000000000000000000060045534801561019b575f5ffd5b50610628806101a95f395ff3fe608060405234801561000f575f5ffd5b50600436106100a7575f3560e01c8063767800de1161006f578063767800de14610153578063771602f714610171578063969e9d0c146101a1578063b41cd3c8146101bf578063b68af89b146101dd578063f88e9fbf1461020d576100a7565b80630add6ef2146100ab5780633004511f146100c957806349ed7394146100e75780635dab2420146101055780636f52cd7a14610123575b5f5ffd5b6100b361023d565b6040516100c09190610314565b60405180910390f35b6100d1610243565b6040516100de9190610347565b60405180910390f35b6100ef610255565b6040516100fc9190610347565b60405180910390f35b61010d610268565b60405161011a9190610378565b60405180910390f35b61013d600480360381019061013891906103f2565b61026e565b60405161014a9190610378565b60405180910390f35b61015b61027b565b604051610168919061046f565b60405180910390f35b61018b60048036038101906101869190610488565b6102a1565b60405161019891906104d5565b60405180910390f35b6101a96102b6565b6040516101b691906104d5565b60405180910390f35b6101c76102bc565b6040516101d491906104d5565b60405180910390f35b6101f760048036038101906101f291906103f2565b6102da565b6040516102049190610378565b60405180910390f35b61022760048036038101906102229190610488565b6102e7565b60405161023491906104d5565b60405180910390f35b60045481565b60035f9054906101000a900460ff1681565b600360019054906101000a900460ff1681565b60015481565b5f8183901b905092915050565b600360029054906101000a900473ffffffffffffffffffffffffffffffffffffffff1681565b5f81836102ae919061051b565b905092915050565b60025481565b5f5f600190505f816102cd9061054e565b9150819050809250505090565b5f8183901d905092915050565b5f81836102f491906105c2565b905092915050565b5f819050919050565b61030e816102fc565b82525050565b5f6020820190506103275f830184610305565b92915050565b5f8115159050919050565b6103418161032d565b82525050565b5f60208201905061035a5f830184610338565b92915050565b5f819050919050565b61037281610360565b82525050565b5f60208201905061038b5f830184610369565b92915050565b5f5ffd5b61039e81610360565b81146103a8575f5ffd5b50565b5f813590506103b981610395565b92915050565b5f819050919050565b6103d1816103bf565b81146103db575f5ffd5b50565b5f813590506103ec816103c8565b92915050565b5f5f6040838503121561040857610407610391565b5b5f610415858286016103ab565b9250506020610426858286016103de565b9150509250929050565b5f73ffffffffffffffffffffffffffffffffffffffff82169050919050565b5f61045982610430565b9050919050565b6104698161044f565b82525050565b5f6020820190506104825f830184610460565b92915050565b5f5f6040838503121561049e5761049d610391565b5b5f6104ab858286016103de565b92505060206104bc858286016103de565b9150509250929050565b6104cf816103bf565b82525050565b5f6020820190506104e85f8301846104c6565b92915050565b7f4e487b71000000000000000000000000000000000000000000000000000000005f52601160045260245ffd5b5f610525826103bf565b9150610530836103bf565b9250828201905080821115610548576105476104ee565b5b92915050565b5f610558826103bf565b91507fffffffffffffffffffffffffffffffffffffffffffffffffffffffffffffffff820361058a576105896104ee565b5b600182019050919050565b7f4e487b71000000000000000000000000000000000000000000000000000000005f52601260045260245ffd5b5f6105cc826103bf565b91506105d7836103bf565b9250826105e7576105e6610595565b5b82820490509291505056fea26469706673582212207c6ab8502d6b856db3edf7a309fe07fa9c70c1b27d2d8569dc5a18a445db8c3e64736f6c634300081e0033",
					"opcodes": "PUSH1 0x80 PUSH1 0x40 MSTORE PUSH32 0xFFFFFFFFFFFFFFFFFFFFFFFFFFFFFFFFFFFFFFFFFFFFFFFFFFFFFFFFFFFFFFFF PUSH0 PUSH0 PUSH2 0x100 EXP DUP2 SLOAD DUP2 PUSH1 0xFF MUL NOT AND SWAP1 DUP4 PUSH0 SIGNEXTEND PUSH1 0xFF AND MUL OR SWAP1 SSTORE POP PUSH1 0x10 PUSH0 PUSH1 0x1 PUSH2 0x100 EXP DUP2 SLOAD DUP2 PUSH2 0xFFFF MUL NOT AND SWAP1 DUP4 PUSH1 0x1 SIGNEXTEND PUSH2 0xFFFF AND MUL OR SWAP1 SSTORE POP PUSH1 0x20 PUSH0 PUSH1 0x3 PUSH2 0x100 EXP DUP2 SLOAD DUP2 PUSH4 0xFFFFFFFF MUL NOT AND SWAP1 DUP4 PUSH4 0xFFFFFFFF AND MUL OR SWAP1 SSTORE POP PUSH1 0x8 PUSH0 PUSH1 0x7 PUSH2 0x100 EXP DUP2 SLOAD DUP2 PUSH1 0xFF MUL NOT AND SWAP1 DUP4 PUSH1 0xFF AND MUL OR SWAP1 SSTORE POP PUSH32 0x7FFFFFFFFFFFFFFFFFFFFFFFFFFFFFFFFFFFFFFFFFFFFFFFFFFFFFFFFFFFFFFF PUSH1 0x1 SSTORE PUSH32 0xFFFFFFFFFFFFFFFFFFFFFFFFFFFFFFFFFFFFFFFFFFFFFFFFFFFFFFFFFFFFFFFF PUSH1 0x2 SSTORE PUSH0 PUSH1 0x3 PUSH0 PUSH2 0x100 EXP DUP2 SLOAD DUP2 PUSH1 0xFF MUL NOT AND SWAP1 DUP4 ISZERO ISZERO MUL OR SWAP1 SSTORE POP PUSH1 0x1 PUSH1 0x3 PUSH1 0x1 PUSH2 0x100 EXP DUP2 SLOAD DUP2 PUSH1 0xFF MUL NOT AND SWAP1 DUP4 ISZERO ISZERO MUL OR SWAP1 SSTORE POP PUSH20 0xF79DC8C6EADD48CC6C1C8536E0B5E10C7D121970 PUSH1 0x3 PUSH1 0x2 PUSH2 0x100 EXP DUP2 SLOAD DUP2 PUSH20 0xFFFFFFFFFFFFFFFFFFFFFFFFFFFFFFFFFFFFFFFF MUL NOT AND SWAP1 DUP4 PUSH20 0xFFFFFFFFFFFFFFFFFFFFFFFFFFFFFFFFFFFFFFFF AND MUL OR SWAP1 SSTORE POP PUSH32 0x1000000000000000000000000000000000000000000000000000000000000000 PUSH1 0x4 SSTORE CALLVALUE DUP1 ISZERO PUSH2 0x19B JUMPI PUSH0 PUSH0 REVERT JUMPDEST POP PUSH2 0x628 DUP1 PUSH2 0x1A9 PUSH0 CODECOPY PUSH0 RETURN INVALID PUSH1 0x80 PUSH1 0x40 MSTORE CALLVALUE DUP1 ISZERO PUSH2 0xF JUMPI PUSH0 PUSH0 REVERT JUMPDEST POP PUSH1 0x4 CALLDATASIZE LT PUSH2 0xA7 JUMPI PUSH0 CALLDATALOAD PUSH1 0xE0 SHR DUP1 PUSH4 0x767800DE GT PUSH2 0x6F JUMPI DUP1 PUSH4 0x767800DE EQ PUSH2 0x153 JUMPI DUP1 PUSH4 0x771602F7 EQ PUSH2 0x171 JUMPI DUP1 PUSH4 0x969E9D0C EQ PUSH2 0x1A1 JUMPI DUP1 PUSH4 0xB41CD3C8 EQ PUSH2 0x1BF JUMPI DUP1 PUSH4 0xB68AF89B EQ PUSH2 0x1DD JUMPI DUP1 PUSH4 0xF88E9FBF EQ PUSH2 0x20D JUMPI PUSH2 0xA7 JUMP JUMPDEST DUP1 PUSH4 0xADD6EF2 EQ PUSH2 0xAB JUMPI DUP1 PUSH4 0x3004511F EQ PUSH2 0xC9 JUMPI DUP1 PUSH4 0x49ED7394 EQ PUSH2 0xE7 JUMPI DUP1 PUSH4 0x5DAB2420 EQ PUSH2 0x105 JUMPI DUP1 PUSH4 0x6F52CD7A EQ PUSH2 0x123 JUMPI JUMPDEST PUSH0 PUSH0 REVERT JUMPDEST PUSH2 0xB3 PUSH2 0x23D JUMP JUMPDEST PUSH1 0x40 MLOAD PUSH2 0xC0 SWAP2 SWAP1 PUSH2 0x314 JUMP JUMPDEST PUSH1 0x40 MLOAD DUP1 SWAP2 SUB SWAP1 RETURN JUMPDEST PUSH2 0xD1 PUSH2 0x243 JUMP JUMPDEST PUSH1 0x40 MLOAD PUSH2 0xDE SWAP2 SWAP1 PUSH2 0x347 JUMP JUMPDEST PUSH1 0x40 MLOAD DUP1 SWAP2 SUB SWAP1 RETURN JUMPDEST PUSH2 0xEF PUSH2 0x255 JUMP JUMPDEST PUSH1 0x40 MLOAD PUSH2 0xFC SWAP2 SWAP1 PUSH2 0x347 JUMP JUMPDEST PUSH1 0x40 MLOAD DUP1 SWAP2 SUB SWAP1 RETURN JUMPDEST PUSH2 0x10D PUSH2 0x268 JUMP JUMPDEST PUSH1 0x40 MLOAD PUSH2 0x11A SWAP2 SWAP1 PUSH2 0x378 JUMP JUMPDEST PUSH1 0x40 MLOAD DUP1 SWAP2 SUB SWAP1 RETURN JUMPDEST PUSH2 0x13D PUSH1 0x4 DUP1 CALLDATASIZE SUB DUP2 ADD SWAP1 PUSH2 0x138 SWAP2 SWAP1 PUSH2 0x3F2 JUMP JUMPDEST PUSH2 0x26E JUMP JUMPDEST PUSH1 0x40 MLOAD PUSH2 0x14A SWAP2 SWAP1 PUSH2 0x378 JUMP JUMPDEST PUSH1 0x40 MLOAD DUP1 SWAP2 SUB SWAP1 RETURN JUMPDEST PUSH2 0x15B PUSH2 0x27B JUMP JUMPDEST PUSH1 0x40 MLOAD PUSH2 0x168 SWAP2 SWAP1 PUSH2 0x46F JUMP JUMPDEST PUSH1 0x40 MLOAD DUP1 SWAP2 SUB SWAP1 RETURN JUMPDEST PUSH2 0x18B PUSH1 0x4 DUP1 CALLDATASIZE SUB DUP2 ADD SWAP1 PUSH2 0x186 SWAP2 SWAP1 PUSH2 0x488 JUMP JUMPDEST PUSH2 0x2A1 JUMP JUMPDEST PUSH1 0x40 MLOAD PUSH2 0x198 SWAP2 SWAP1 PUSH2 0x4D5 JUMP JUMPDEST PUSH1 0x40 MLOAD DUP1 SWAP2 SUB SWAP1 RETURN JUMPDEST PUSH2 0x1A9 PUSH2 0x2B6 JUMP JUMPDEST PUSH1 0x40 MLOAD PUSH2 0x1B6 SWAP2 SWAP1 PUSH2 0x4D5 JUMP JUMPDEST PUSH1 0x40 MLOAD DUP1 SWAP2 SUB SWAP1 RETURN JUMPDEST PUSH2 0x1C7 PUSH2 0x2BC JUMP JUMPDEST PUSH1 0x40 MLOAD PUSH2 0x1D4 SWAP2 SWAP1 PUSH2 0x4D5 JUMP JUMPDEST PUSH1 0x40 MLOAD DUP1 SWAP2 SUB SWAP1 RETURN JUMPDEST PUSH2 0x1F7 PUSH1 0x4 DUP1 CALLDATASIZE SUB DUP2 ADD SWAP1 PUSH2 0x1F2 SWAP2 SWAP1 PUSH2 0x3F2 JUMP JUMPDEST PUSH2 0x2DA JUMP JUMPDEST PUSH1 0x40 MLOAD PUSH2 0x204 SWAP2 SWAP1 PUSH2 0x378 JUMP JUMPDEST PUSH1 0x40 MLOAD DUP1 SWAP2 SUB SWAP1 RETURN JUMPDEST PUSH2 0x227 PUSH1 0x4 DUP1 CALLDATASIZE SUB DUP2 ADD SWAP1 PUSH2 0x222 SWAP2 SWAP1 PUSH2 0x488 JUMP JUMPDEST PUSH2 0x2E7 JUMP JUMPDEST PUSH1 0x40 MLOAD PUSH2 0x234 SWAP2 SWAP1 PUSH2 0x4D5 JUMP JUMPDEST PUSH1 0x40 MLOAD DUP1 SWAP2 SUB SWAP1 RETURN JUMPDEST PUSH1 0x4 SLOAD DUP2 JUMP JUMPDEST PUSH1 0x3 PUSH0 SWAP1 SLOAD SWAP1 PUSH2 0x100 EXP SWAP1 DIV PUSH1 0xFF AND DUP2 JUMP JUMPDEST PUSH1 0x3 PUSH1 0x1 SWAP1 SLOAD SWAP1 PUSH2 0x100 EXP SWAP1 DIV PUSH1 0xFF AND DUP2 JUMP JUMPDEST PUSH1 0x1 SLOAD DUP2 JUMP JUMPDEST PUSH0 DUP2 DUP4 SWAP1 SHL SWAP1 POP SWAP3 SWAP2 POP POP JUMP JUMPDEST PUSH1 0x3 PUSH1 0x2 SWAP1 SLOAD SWAP1 PUSH2 0x100 EXP SWAP1 DIV PUSH20 0xFFFFFFFFFFFFFFFFFFFFFFFFFFFFFFFFFFFFFFFF AND DUP2 JUMP JUMPDEST PUSH0 DUP2 DUP4 PUSH2 0x2AE SWAP2 SWAP1 PUSH2 0x51B JUMP JUMPDEST SWAP1 POP SWAP3 SWAP2 POP POP JUMP JUMPDEST PUSH1 0x2 SLOAD DUP2 JUMP JUMPDEST PUSH0 PUSH0 PUSH1 0x1 SWAP1 POP PUSH0 DUP2 PUSH2 0x2CD SWAP1 PUSH2 0x54E JUMP JUMPDEST SWAP2 POP DUP2 SWAP1 POP DUP1 SWAP3 POP POP POP SWAP1 JUMP JUMPDEST PUSH0 DUP2 DUP4 SWAP1 SAR SWAP1 POP SWAP3 SWAP2 POP POP JUMP JUMPDEST PUSH0 DUP2 DUP4 PUSH2 0x2F4 SWAP2 SWAP1 PUSH2 0x5C2 JUMP JUMPDEST SWAP1 POP SWAP3 SWAP2 POP POP JUMP JUMPDEST PUSH0 DUP2 SWAP1 POP SWAP2 SWAP1 POP JUMP JUMPDEST PUSH2 0x30E DUP2 PUSH2 0x2FC JUMP JUMPDEST DUP3 MSTORE POP POP JUMP JUMPDEST PUSH0 PUSH1 0x20 DUP3 ADD SWAP1 POP PUSH2 0x327 PUSH0 DUP4 ADD DUP5 PUSH2 0x305 JUMP JUMPDEST SWAP3 SWAP2 POP POP JUMP JUMPDEST PUSH0 DUP2 ISZERO ISZERO SWAP1 POP SWAP2 SWAP1 POP JUMP JUMPDEST PUSH2 0x341 DUP2 PUSH2 0x32D JUMP JUMPDEST DUP3 MSTORE POP POP JUMP JUMPDEST PUSH0 PUSH1 0x20 DUP3 ADD SWAP1 POP PUSH2 0x35A PUSH0 DUP4 ADD DUP5 PUSH2 0x338 JUMP JUMPDEST SWAP3 SWAP2 POP POP JUMP JUMPDEST PUSH0 DUP2 SWAP1 POP SWAP2 SWAP1 POP JUMP JUMPDEST PUSH2 0x372 DUP2 PUSH2 0x360 JUMP JUMPDEST DUP3 MSTORE POP POP JUMP JUMPDEST PUSH0 PUSH1 0x20 DUP3 ADD SWAP1 POP PUSH2 0x38B PUSH0 DUP4 ADD DUP5 PUSH2 0x369 JUMP JUMPDEST SWAP3 SWAP2 POP POP JUMP JUMPDEST PUSH0 PUSH0 REVERT JUMPDEST PUSH2 0x39E DUP2 PUSH2 0x360 JUMP JUMPDEST DUP2 EQ PUSH2 0x3A8 JUMPI PUSH0 PUSH0 REVERT JUMPDEST POP JUMP JUMPDEST PUSH0 DUP2 CALLDATALOAD SWAP1 POP PUSH2 0x3B9 DUP2 PUSH2 0x395 JUMP JUMPDEST SWAP3 SWAP2 POP POP JUMP JUMPDEST PUSH0 DUP2 SWAP1 POP SWAP2 SWAP1 POP JUMP JUMPDEST PUSH2 0x3D1 DUP2 PUSH2 0x3BF JUMP JUMPDEST DUP2 EQ PUSH2 0x3DB JUMPI PUSH0 PUSH0 REVERT JUMPDEST POP JUMP JUMPDEST PUSH0 DUP2 CALLDATALOAD SWAP1 POP PUSH2 0x3EC DUP2 PUSH2 0x3C8 JUMP JUMPDEST SWAP3 SWAP2 POP POP JUMP JUMPDEST PUSH0 PUSH0 PUSH1 0x40 DUP4 DUP6 SUB SLT ISZERO PUSH2 0x408 JUMPI PUSH2 0x407 PUSH2 0x391 JUMP JUMPDEST JUMPDEST PUSH0 PUSH2 0x415 DUP6 DUP3 DUP7 ADD PUSH2 0x3AB JUMP JUMPDEST SWAP3 POP POP PUSH1 0x20 PUSH2 0x426 DUP6 DUP3 DUP7 ADD PUSH2 0x3DE JUMP JUMPDEST SWAP2 POP POP SWAP3 POP SWAP3 SWAP1 POP JUMP JUMPDEST PUSH0 PUSH20 0xFFFFFFFFFFFFFFFFFFFFFFFFFFFFFFFFFFFFFFFF DUP3 AND SWAP1 POP SWAP2 SWAP1 POP JUMP JUMPDEST PUSH0 PUSH2 0x459 DUP3 PUSH2 0x430 JUMP JUMPDEST SWAP1 POP SWAP2 SWAP1 POP JUMP JUMPDEST PUSH2 0x469 DUP2 PUSH2 0x44F JUMP JUMPDEST DUP3 MSTORE POP POP JUMP JUMPDEST PUSH0 PUSH1 0x20 DUP3 ADD SWAP1 POP PUSH2 0x482 PUSH0 DUP4 ADD DUP5 PUSH2 0x460 JUMP JUMPDEST SWAP3 SWAP2 POP POP JUMP JUMPDEST PUSH0 PUSH0 PUSH1 0x40 DUP4 DUP6 SUB SLT ISZERO PUSH2 0x49E JUMPI PUSH2 0x49D PUSH2 0x391 JUMP JUMPDEST JUMPDEST PUSH0 PUSH2 0x4AB DUP6 DUP3 DUP7 ADD PUSH2 0x3DE JUMP JUMPDEST SWAP3 POP POP PUSH1 0x20 PUSH2 0x4BC DUP6 DUP3 DUP7 ADD PUSH2 0x3DE JUMP JUMPDEST SWAP2 POP POP SWAP3 POP SWAP3 SWAP1 POP JUMP JUMPDEST PUSH2 0x4CF DUP2 PUSH2 0x3BF JUMP JUMPDEST DUP3 MSTORE POP POP JUMP JUMPDEST PUSH0 PUSH1 0x20 DUP3 ADD SWAP1 POP PUSH2 0x4E8 PUSH0 DUP4 ADD DUP5 PUSH2 0x4C6 JUMP JUMPDEST SWAP3 SWAP2 POP POP JUMP JUMPDEST PUSH32 0x4E487B7100000000000000000000000000000000000000000000000000000000 PUSH0 MSTORE PUSH1 0x11 PUSH1 0x4 MSTORE PUSH1 0x24 PUSH0 REVERT JUMPDEST PUSH0 PUSH2 0x525 DUP3 PUSH2 0x3BF JUMP JUMPDEST SWAP2 POP PUSH2 0x530 DUP4 PUSH2 0x3BF JUMP JUMPDEST SWAP3 POP DUP3 DUP3 ADD SWAP1 POP DUP1 DUP3 GT ISZERO PUSH2 0x548 JUMPI PUSH2 0x547 PUSH2 0x4EE JUMP JUMPDEST JUMPDEST SWAP3 SWAP2 POP POP JUMP JUMPDEST PUSH0 PUSH2 0x558 DUP3 PUSH2 0x3BF JUMP JUMPDEST SWAP2 POP PUSH32 0xFFFFFFFFFFFFFFFFFFFFFFFFFFFFFFFFFFFFFFFFFFFFFFFFFFFFFFFFFFFFFFFF DUP3 SUB PUSH2 0x58A JUMPI PUSH2 0x589 PUSH2 0x4EE JUMP JUMPDEST JUMPDEST PUSH1 0x1 DUP3 ADD SWAP1 POP SWAP2 SWAP1 POP JUMP JUMPDEST PUSH32 0x4E487B7100000000000000000000000000000000000000000000000000000000 PUSH0 MSTORE PUSH1 0x12 PUSH1 0x4 MSTORE PUSH1 0x24 PUSH0 REVERT JUMPDEST PUSH0 PUSH2 0x5CC DUP3 PUSH2 0x3BF JUMP JUMPDEST SWAP2 POP PUSH2 0x5D7 DUP4 PUSH2 0x3BF JUMP JUMPDEST SWAP3 POP DUP3 PUSH2 0x5E7 JUMPI PUSH2 0x5E6 PUSH2 0x595 JUMP JUMPDEST JUMPDEST DUP3 DUP3 DIV SWAP1 POP SWAP3 SWAP2 POP POP JUMP INVALID LOG2 PUSH5 0x6970667358 0x22 SLT KECCAK256 PUSH29 0x6AB8502D6B856DB3EDF7A309FE07FA9C70C1B27D2D8569DC5A18A445DB DUP13 RETURNDATACOPY PUSH5 0x736F6C6343 STOP ADDMOD 0x1E STOP CALLER "
				},
				"gasEstimates": {
					"creation": {
						"codeDepositCost": "315200",
						"executionCost": "236798",
						"totalCost": "551998"
					},
					"external": {
						"a2()": "2469",
						"account()": "2492",
						"add(uint256,uint256)": "infinite",
						"addr()": "2559",
						"b2()": "2426",
						"divide(uint256,uint256)": "infinite",
						"flag1()": "2562",
						"flag2()": "2489",
						"leftshift(int256,uint256)": "infinite",
						"rightshift(int256,uint256)": "infinite",
						"testPlusPlus()": "infinite"
					},
					"internal": {
						"add2(uint256,uint256)": "infinite"
					}
				},
				"methodIdentifiers": {
					"a2()": "969e9d0c",
					"account()": "5dab2420",
					"add(uint256,uint256)": "771602f7",
					"addr()": "767800de",
					"b2()": "0add6ef2",
					"divide(uint256,uint256)": "f88e9fbf",
					"flag1()": "49ed7394",
					"flag2()": "3004511f",
					"leftshift(int256,uint256)": "6f52cd7a",
					"rightshift(int256,uint256)": "b68af89b",
					"testPlusPlus()": "b41cd3c8"
				}
			},
			"storageLayout": {
				"storage": [
					{
						"astId": 5,
						"contract": "testInt.sol:testInt",
						"label": "a",
						"offset": 0,
						"slot": "0",
						"type": "t_int8"
					},
					{
						"astId": 8,
						"contract": "testInt.sol:testInt",
						"label": "b",
						"offset": 1,
						"slot": "0",
						"type": "t_int16"
					},
					{
						"astId": 11,
						"contract": "testInt.sol:testInt",
						"label": "c",
						"offset": 3,
						"slot": "0",
						"type": "t_uint32"
					},
					{
						"astId": 14,
						"contract": "testInt.sol:testInt",
						"label": "d",
						"offset": 7,
						"slot": "0",
						"type": "t_uint8"
					},
					{
						"astId": 23,
						"contract": "testInt.sol:testInt",
						"label": "account",
						"offset": 0,
						"slot": "1",
						"type": "t_int256"
					},
					{
						"astId": 32,
						"contract": "testInt.sol:testInt",
						"label": "a2",
						"offset": 0,
						"slot": "2",
						"type": "t_uint256"
					},
					{
						"astId": 35,
						"contract": "testInt.sol:testInt",
						"label": "flag2",
						"offset": 0,
						"slot": "3",
						"type": "t_bool"
					},
					{
						"astId": 38,
						"contract": "testInt.sol:testInt",
						"label": "flag1",
						"offset": 1,
						"slot": "3",
						"type": "t_bool"
					},
					{
						"astId": 41,
						"contract": "testInt.sol:testInt",
						"label": "addr",
						"offset": 2,
						"slot": "3",
						"type": "t_address"
					},
					{
						"astId": 44,
						"contract": "testInt.sol:testInt",
						"label": "b2",
						"offset": 0,
						"slot": "4",
						"type": "t_bytes32"
					}
				],
				"types": {
					"t_address": {
						"encoding": "inplace",
						"label": "address",
						"numberOfBytes": "20"
					},
					"t_bool": {
						"encoding": "inplace",
						"label": "bool",
						"numberOfBytes": "1"
					},
					"t_bytes32": {
						"encoding": "inplace",
						"label": "bytes32",
						"numberOfBytes": "32"
					},
					"t_int16": {
						"encoding": "inplace",
						"label": "int16",
						"numberOfBytes": "2"
					},
					"t_int256": {
						"encoding": "inplace",
						"label": "int256",
						"numberOfBytes": "32"
					},
					"t_int8": {
						"encoding": "inplace",
						"label": "int8",
						"numberOfBytes": "1"
					},
					"t_uint256": {
						"encoding": "inplace",
						"label": "uint256",
						"numberOfBytes": "32"
					},
					"t_uint32": {
						"encoding": "inplace",
						"label": "uint32",
						"numberOfBytes": "4"
					},
					"t_uint8": {
						"encoding": "inplace",
						"label": "uint8",
						"numberOfBytes": "1"
					}
				}
			},
			"userdoc": {
				"kind": "user",
				"methods": {},
				"version": 1
			}
		}
	}
}