{
	"task2/BeggingContract.sol": {
		"BeggingContract": {
			"abi": [
				{
					"inputs": [],
					"stateMutability": "nonpayable",
					"type": "constructor"
				},
				{
					"anonymous": false,
					"inputs": [
						{
							"indexed": true,
							"internalType": "address",
							"name": "donor",
							"type": "address"
						},
						{
							"indexed": false,
							"internalType": "uint256",
							"name": "amount",
							"type": "uint256"
						},
						{
							"indexed": false,
							"internalType": "uint256",
							"name": "timestamp",
							"type": "uint256"
						}
					],
					"name": "DonationReceived",
					"type": "event"
				},
				{
					"anonymous": false,
					"inputs": [
						{
							"indexed": false,
							"internalType": "uint256",
							"name": "startTime",
							"type": "uint256"
						},
						{
							"indexed": false,
							"internalType": "uint256",
							"name": "endTime",
							"type": "uint256"
						}
					],
					"name": "TimeLimitSet",
					"type": "event"
				},
				{
					"anonymous": false,
					"inputs": [
						{
							"indexed": true,
							"internalType": "address",
							"name": "owner",
							"type": "address"
						},
						{
							"indexed": false,
							"internalType": "uint256",
							"name": "amount",
							"type": "uint256"
						},
						{
							"indexed": false,
							"internalType": "uint256",
							"name": "timstam",
							"type": "uint256"
						}
					],
					"name": "Withdrawal",
					"type": "event"
				},
				{
					"inputs": [],
					"name": "donate",
					"outputs": [],
					"stateMutability": "payable",
					"type": "function"
				},
				{
					"inputs": [],
					"name": "donationCount",
					"outputs": [
						{
							"internalType": "uint256",
							"name": "",
							"type": "uint256"
						}
					],
					"stateMutability": "view",
					"type": "function"
				},
				{
					"inputs": [],
					"name": "donationEndTime",
					"outputs": [
						{
							"internalType": "uint256",
							"name": "",
							"type": "uint256"
						}
					],
					"stateMutability": "view",
					"type": "function"
				},
				{
					"inputs": [],
					"name": "donationStartTime",
					"outputs": [
						{
							"internalType": "uint256",
							"name": "",
							"type": "uint256"
						}
					],
					"stateMutability": "view",
					"type": "function"
				},
				{
					"inputs": [
						{
							"internalType": "address",
							"name": "",
							"type": "address"
						}
					],
					"name": "donations",
					"outputs": [
						{
							"internalType": "uint256",
							"name": "",
							"type": "uint256"
						}
					],
					"stateMutability": "view",
					"type": "function"
				},
				{
					"inputs": [
						{
							"internalType": "uint256",
							"name": "",
							"type": "uint256"
						}
					],
					"name": "donors",
					"outputs": [
						{
							"internalType": "address",
							"name": "",
							"type": "address"
						}
					],
					"stateMutability": "view",
					"type": "function"
				},
				{
					"inputs": [],
					"name": "getAllDonors",
					"outputs": [
						{
							"internalType": "address[]",
							"name": "",
							"type": "address[]"
						}
					],
					"stateMutability": "view",
					"type": "function"
				},
				{
					"inputs": [],
					"name": "getContractBalance",
					"outputs": [
						{
							"internalType": "uint256",
							"name": "",
							"type": "uint256"
						}
					],
					"stateMutability": "view",
					"type": "function"
				},
				{
					"inputs": [],
					"name": "getContractInfo",
					"outputs": [
						{
							"internalType": "address",
							"name": "contractOwner",
							"type": "address"
						},
						{
							"internalType": "uint256",
							"name": "totalDonationAmount",
							"type": "uint256"
						},
						{
							"internalType": "uint256",
							"name": "totalDonors",
							"type": "uint256"
						},
						{
							"internalType": "uint256",
							"name": "contractBalance",
							"type": "uint256"
						},
						{
							"internalType": "bool",
							"name": "timeLimitEnabled",
							"type": "bool"
						}
					],
					"stateMutability": "view",
					"type": "function"
				},
				{
					"inputs": [
						{
							"internalType": "address",
							"name": "donor",
							"type": "address"
						}
					],
					"name": "getDonateAmount",
					"outputs": [
						{
							"internalType": "uint256",
							"name": "",
							"type": "uint256"
						}
					],
					"stateMutability": "view",
					"type": "function"
				},
				{
					"inputs": [],
					"name": "getDonorsCount",
					"outputs": [
						{
							"internalType": "uint256",
							"name": "",
							"type": "uint256"
						}
					],
					"stateMutability": "view",
					"type": "function"
				},
				{
					"inputs": [],
					"name": "getTop",
					"outputs": [
						{
							"internalType": "address[]",
							"name": "topAddresses",
							"type": "address[]"
						},
						{
							"internalType": "uint256[]",
							"name": "topAmounts",
							"type": "uint256[]"
						}
					],
					"stateMutability": "view",
					"type": "function"
				},
				{
					"inputs": [
						{
							"internalType": "address",
							"name": "",
							"type": "address"
						}
					],
					"name": "hasDonated",
					"outputs": [
						{
							"internalType": "bool",
							"name": "",
							"type": "bool"
						}
					],
					"stateMutability": "view",
					"type": "function"
				},
				{
					"inputs": [],
					"name": "hasTimeLimit",
					"outputs": [
						{
							"internalType": "bool",
							"name": "",
							"type": "bool"
						}
					],
					"stateMutability": "view",
					"type": "function"
				},
				{
					"inputs": [],
					"name": "owner",
					"outputs": [
						{
							"internalType": "address",
							"name": "",
							"type": "address"
						}
					],
					"stateMutability": "view",
					"type": "function"
				},
				{
					"inputs": [],
					"name": "removeTimeLimit",
					"outputs": [],
					"stateMutability": "nonpayable",
					"type": "function"
				},
				{
					"inputs": [
						{
							"internalType": "uint256",
							"name": "_startTime",
							"type": "uint256"
						},
						{
							"internalType": "uint256",
							"name": "_endTime",
							"type": "uint256"
						}
					],
					"name": "setTimeLimit",
					"outputs": [],
					"stateMutability": "nonpayable",
					"type": "function"
				},
				{
					"inputs": [],
					"name": "totalDonations",
					"outputs": [
						{
							"internalType": "uint256",
							"name": "",
							"type": "uint256"
						}
					],
					"stateMutability": "view",
					"type": "function"
				},
				{
					"inputs": [],
					"name": "withdraw",
					"outputs": [],
					"stateMutability": "nonpayable",
					"type": "function"
				},
				{
					"stateMutability": "payable",
					"type": "receive"
				}
			],
			"devdoc": {
				"kind": "dev",
				"methods": {},
				"version": 1
			},
			"evm": {
				"assembly": "    /* \"task2/BeggingContract.sol\":59:5875  contract BeggingContract{... */\n  mstore(0x40, 0x80)\n    /* \"task2/BeggingContract.sol\":618:696  constructor(){... */\n  callvalue\n  dup1\n  iszero\n  tag_1\n  jumpi\n  revert(0x00, 0x00)\ntag_1:\n  pop\n    /* \"task2/BeggingContract.sol\":649:659  msg.sender */\n  caller\n    /* \"task2/BeggingContract.sol\":641:646  owner */\n  0x00\n  0x00\n    /* \"task2/BeggingContract.sol\":641:659  owner = msg.sender */\n  0x0100\n  exp\n  dup2\n  sload\n  dup2\n  0xffffffffffffffffffffffffffffffffffffffff\n  mul\n  not\n  and\n  swap1\n  dup4\n  0xffffffffffffffffffffffffffffffffffffffff\n  and\n  mul\n  or\n  swap1\n  sstore\n  pop\n    /* \"task2/BeggingContract.sol\":684:689  false */\n  0x00\n    /* \"task2/BeggingContract.sol\":669:681  hasTimeLimit */\n  0x05\n  0x00\n    /* \"task2/BeggingContract.sol\":669:689  hasTimeLimit = false */\n  0x0100\n  exp\n  dup2\n  sload\n  dup2\n  0xff\n  mul\n  not\n  and\n  swap1\n  dup4\n  iszero\n  iszero\n  mul\n  or\n  swap1\n  sstore\n  pop\n    /* \"task2/BeggingContract.sol\":59:5875  contract BeggingContract{... */\n  dataSize(sub_0)\n  dup1\n  dataOffset(sub_0)\n  0x00\n  codecopy\n  0x00\n  return\nstop\n\nsub_0: assembly {\n        /* \"task2/BeggingContract.sol\":59:5875  contract BeggingContract{... */\n      mstore(0x40, 0x80)\n      jumpi(tag_1, lt(calldatasize, 0x04))\n      shr(0xe0, calldataload(0x00))\n      dup1\n      0x7cc1f867\n      gt\n      tag_22\n      jumpi\n      dup1\n      0xd8a5787a\n      gt\n      tag_23\n      jumpi\n      dup1\n      0xd8a5787a\n      eq\n      tag_17\n      jumpi\n      dup1\n      0xde2ed893\n      eq\n      tag_18\n      jumpi\n      dup1\n      0xed88c68e\n      eq\n      tag_19\n      jumpi\n      dup1\n      0xf12a4a53\n      eq\n      tag_20\n      jumpi\n      dup1\n      0xf57a4753\n      eq\n      tag_21\n      jumpi\n      jump(tag_2)\n    tag_23:\n      dup1\n      0x7cc1f867\n      eq\n      tag_12\n      jumpi\n      dup1\n      0x8da5cb5b\n      eq\n      tag_13\n      jumpi\n      dup1\n      0x98e36b04\n      eq\n      tag_14\n      jumpi\n      dup1\n      0xba5dccb4\n      eq\n      tag_15\n      jumpi\n      dup1\n      0xcc6cb19a\n      eq\n      tag_16\n      jumpi\n      jump(tag_2)\n    tag_22:\n      dup1\n      0x4abfa163\n      gt\n      tag_24\n      jumpi\n      dup1\n      0x4abfa163\n      eq\n      tag_7\n      jumpi\n      dup1\n      0x5c2b1119\n      eq\n      tag_8\n      jumpi\n      dup1\n      0x5cfa7cbe\n      eq\n      tag_9\n      jumpi\n      dup1\n      0x6f9fb98a\n      eq\n      tag_10\n      jumpi\n      dup1\n      0x78331552\n      eq\n      tag_11\n      jumpi\n      jump(tag_2)\n    tag_24:\n      dup1\n      0x17294a11\n      eq\n      tag_3\n      jumpi\n      dup1\n      0x2abfab4d\n      eq\n      tag_4\n      jumpi\n      dup1\n      0x3ccfd60b\n      eq\n      tag_5\n      jumpi\n      dup1\n      0x3f85b887\n      eq\n      tag_6\n      jumpi\n      jump(tag_2)\n    tag_1:\n      jumpi(tag_2, calldatasize)\n        /* \"task2/BeggingContract.sol\":5847:5855  donate() */\n      tag_27\n        /* \"task2/BeggingContract.sol\":5847:5853  donate */\n      tag_28\n        /* \"task2/BeggingContract.sol\":5847:5855  donate() */\n      jump\t// in\n    tag_27:\n        /* \"task2/BeggingContract.sol\":59:5875  contract BeggingContract{... */\n      stop\n    tag_2:\n      revert(0x00, 0x00)\n        /* \"task2/BeggingContract.sol\":568:610  mapping(address => bool) public hasDonated */\n    tag_3:\n      callvalue\n      dup1\n      iszero\n      tag_29\n      jumpi\n      revert(0x00, 0x00)\n    tag_29:\n      pop\n      tag_30\n      0x04\n      dup1\n      calldatasize\n      sub\n      dup2\n      add\n      swap1\n      tag_31\n      swap2\n      swap1\n      tag_32\n      jump\t// in\n    tag_31:\n      tag_33\n      jump\t// in\n    tag_30:\n      mload(0x40)\n      tag_34\n      swap2\n      swap1\n      tag_35\n      jump\t// in\n    tag_34:\n      mload(0x40)\n      dup1\n      swap2\n      sub\n      swap1\n      return\n        /* \"task2/BeggingContract.sol\":152:180  uint256 public donationCount */\n    tag_4:\n      callvalue\n      dup1\n      iszero\n      tag_36\n      jumpi\n      revert(0x00, 0x00)\n    tag_36:\n      pop\n      tag_37\n      tag_38\n      jump\t// in\n    tag_37:\n      mload(0x40)\n      tag_39\n      swap2\n      swap1\n      tag_40\n      jump\t// in\n    tag_39:\n      mload(0x40)\n      dup1\n      swap2\n      sub\n      swap1\n      return\n        /* \"task2/BeggingContract.sol\":2441:2819  function withdraw() public onlyOwner {... */\n    tag_5:\n      callvalue\n      dup1\n      iszero\n      tag_41\n      jumpi\n      revert(0x00, 0x00)\n    tag_41:\n      pop\n      tag_42\n      tag_43\n      jump\t// in\n    tag_42:\n      stop\n        /* \"task2/BeggingContract.sol\":2995:3088  function getDonorsCount() public view returns (uint256) {... */\n    tag_6:\n      callvalue\n      dup1\n      iszero\n      tag_44\n      jumpi\n      revert(0x00, 0x00)\n    tag_44:\n      pop\n      tag_45\n      tag_46\n      jump\t// in\n    tag_45:\n      mload(0x40)\n      tag_47\n      swap2\n      swap1\n      tag_40\n      jump\t// in\n    tag_47:\n      mload(0x40)\n      dup1\n      swap2\n      sub\n      swap1\n      return\n        /* \"task2/BeggingContract.sol\":498:521  address[] public donors */\n    tag_7:\n      callvalue\n      dup1\n      iszero\n      tag_48\n      jumpi\n      revert(0x00, 0x00)\n    tag_48:\n      pop\n      tag_49\n      0x04\n      dup1\n      calldatasize\n      sub\n      dup2\n      add\n      swap1\n      tag_50\n      swap2\n      swap1\n      tag_51\n      jump\t// in\n    tag_50:\n      tag_52\n      jump\t// in\n    tag_49:\n      mload(0x40)\n      tag_53\n      swap2\n      swap1\n      tag_54\n      jump\t// in\n    tag_53:\n      mload(0x40)\n      dup1\n      swap2\n      sub\n      swap1\n      return\n        /* \"task2/BeggingContract.sol\":4712:5744  function getTop() public view returns(address[] memory topAddresses,uint256[] memory topAmounts){... */\n    tag_8:\n      callvalue\n      dup1\n      iszero\n      tag_55\n      jumpi\n      revert(0x00, 0x00)\n    tag_55:\n      pop\n      tag_56\n      tag_57\n      jump\t// in\n    tag_56:\n      mload(0x40)\n      tag_58\n      swap3\n      swap2\n      swap1\n      tag_59\n      jump\t// in\n    tag_58:\n      mload(0x40)\n      dup1\n      swap2\n      sub\n      swap1\n      return\n        /* \"task2/BeggingContract.sol\":3742:3823  function removeTimeLimit() public onlyOwner {... */\n    tag_9:\n      callvalue\n      dup1\n      iszero\n      tag_60\n      jumpi\n      revert(0x00, 0x00)\n    tag_60:\n      pop\n      tag_61\n      tag_62\n      jump\t// in\n    tag_61:\n      stop\n        /* \"task2/BeggingContract.sol\":2851:2956  function getContractBalance() public view returns (uint256) {... */\n    tag_10:\n      callvalue\n      dup1\n      iszero\n      tag_63\n      jumpi\n      revert(0x00, 0x00)\n    tag_63:\n      pop\n      tag_64\n      tag_65\n      jump\t// in\n    tag_64:\n      mload(0x40)\n      tag_66\n      swap2\n      swap1\n      tag_40\n      jump\t// in\n    tag_66:\n      mload(0x40)\n      dup1\n      swap2\n      sub\n      swap1\n      return\n        /* \"task2/BeggingContract.sol\":231:263  uint256 public donationStartTime */\n    tag_11:\n      callvalue\n      dup1\n      iszero\n      tag_67\n      jumpi\n      revert(0x00, 0x00)\n    tag_67:\n      pop\n      tag_68\n      tag_69\n      jump\t// in\n    tag_68:\n      mload(0x40)\n      tag_70\n      swap2\n      swap1\n      tag_40\n      jump\t// in\n    tag_70:\n      mload(0x40)\n      dup1\n      swap2\n      sub\n      swap1\n      return\n        /* \"task2/BeggingContract.sol\":853:1237  function getContractInfo() public view returns (... */\n    tag_12:\n      callvalue\n      dup1\n      iszero\n      tag_71\n      jumpi\n      revert(0x00, 0x00)\n    tag_71:\n      pop\n      tag_72\n      tag_73\n      jump\t// in\n    tag_72:\n      mload(0x40)\n      tag_74\n      swap6\n      swap5\n      swap4\n      swap3\n      swap2\n      swap1\n      tag_75\n      jump\t// in\n    tag_74:\n      mload(0x40)\n      dup1\n      swap2\n      sub\n      swap1\n      return\n        /* \"task2/BeggingContract.sol\":91:111  address public owner */\n    tag_13:\n      callvalue\n      dup1\n      iszero\n      tag_76\n      jumpi\n      revert(0x00, 0x00)\n    tag_76:\n      pop\n      tag_77\n      tag_78\n      jump\t// in\n    tag_77:\n      mload(0x40)\n      tag_79\n      swap2\n      swap1\n      tag_54\n      jump\t// in\n    tag_79:\n      mload(0x40)\n      dup1\n      swap2\n      sub\n      swap1\n      return\n        /* \"task2/BeggingContract.sol\":3145:3238  function getAllDonors() public view returns (address[] memory) {... */\n    tag_14:\n      callvalue\n      dup1\n      iszero\n      tag_80\n      jumpi\n      revert(0x00, 0x00)\n    tag_80:\n      pop\n      tag_81\n      tag_82\n      jump\t// in\n    tag_81:\n      mload(0x40)\n      tag_83\n      swap2\n      swap1\n      tag_84\n      jump\t// in\n    tag_83:\n      mload(0x40)\n      dup1\n      swap2\n      sub\n      swap1\n      return\n        /* \"task2/BeggingContract.sol\":2286:2394  function getDonateAmount(address donor) public view returns(uint256){... */\n    tag_15:\n      callvalue\n      dup1\n      iszero\n      tag_85\n      jumpi\n      revert(0x00, 0x00)\n    tag_85:\n      pop\n      tag_86\n      0x04\n      dup1\n      calldatasize\n      sub\n      dup2\n      add\n      swap1\n      tag_87\n      swap2\n      swap1\n      tag_32\n      jump\t// in\n    tag_87:\n      tag_88\n      jump\t// in\n    tag_86:\n      mload(0x40)\n      tag_89\n      swap2\n      swap1\n      tag_40\n      jump\t// in\n    tag_89:\n      mload(0x40)\n      dup1\n      swap2\n      sub\n      swap1\n      return\n        /* \"task2/BeggingContract.sol\":392:436  mapping(address => uint256) public donations */\n    tag_16:\n      callvalue\n      dup1\n      iszero\n      tag_90\n      jumpi\n      revert(0x00, 0x00)\n    tag_90:\n      pop\n      tag_91\n      0x04\n      dup1\n      calldatasize\n      sub\n      dup2\n      add\n      swap1\n      tag_92\n      swap2\n      swap1\n      tag_32\n      jump\t// in\n    tag_92:\n      tag_93\n      jump\t// in\n    tag_91:\n      mload(0x40)\n      tag_94\n      swap2\n      swap1\n      tag_40\n      jump\t// in\n    tag_94:\n      mload(0x40)\n      dup1\n      swap2\n      sub\n      swap1\n      return\n        /* \"task2/BeggingContract.sol\":305:329  bool public hasTimeLimit */\n    tag_17:\n      callvalue\n      dup1\n      iszero\n      tag_95\n      jumpi\n      revert(0x00, 0x00)\n    tag_95:\n      pop\n      tag_96\n      tag_97\n      jump\t// in\n    tag_96:\n      mload(0x40)\n      tag_98\n      swap2\n      swap1\n      tag_35\n      jump\t// in\n    tag_98:\n      mload(0x40)\n      dup1\n      swap2\n      sub\n      swap1\n      return\n        /* \"task2/BeggingContract.sol\":117:146  uint256 public totalDonations */\n    tag_18:\n      callvalue\n      dup1\n      iszero\n      tag_99\n      jumpi\n      revert(0x00, 0x00)\n    tag_99:\n      pop\n      tag_100\n      tag_101\n      jump\t// in\n    tag_100:\n      mload(0x40)\n      tag_102\n      swap2\n      swap1\n      tag_40\n      jump\t// in\n    tag_102:\n      mload(0x40)\n      dup1\n      swap2\n      sub\n      swap1\n      return\n        /* \"task2/BeggingContract.sol\":1773:2255  function donate()payable  public withinTimeLimit {... */\n    tag_19:\n      tag_103\n      tag_28\n      jump\t// in\n    tag_103:\n      stop\n        /* \"task2/BeggingContract.sol\":269:299  uint256 public donationEndTime */\n    tag_20:\n      callvalue\n      dup1\n      iszero\n      tag_104\n      jumpi\n      revert(0x00, 0x00)\n    tag_104:\n      pop\n      tag_105\n      tag_106\n      jump\t// in\n    tag_105:\n      mload(0x40)\n      tag_107\n      swap2\n      swap1\n      tag_40\n      jump\t// in\n    tag_107:\n      mload(0x40)\n      dup1\n      swap2\n      sub\n      swap1\n      return\n        /* \"task2/BeggingContract.sol\":3289:3706  function setTimeLimit(uint256 _startTime, uint256 _endTime) public onlyOwner {... */\n    tag_21:\n      callvalue\n      dup1\n      iszero\n      tag_108\n      jumpi\n      revert(0x00, 0x00)\n    tag_108:\n      pop\n      tag_109\n      0x04\n      dup1\n      calldatasize\n      sub\n      dup2\n      add\n      swap1\n      tag_110\n      swap2\n      swap1\n      tag_111\n      jump\t// in\n    tag_110:\n      tag_112\n      jump\t// in\n    tag_109:\n      stop\n        /* \"task2/BeggingContract.sol\":1773:2255  function donate()payable  public withinTimeLimit {... */\n    tag_28:\n        /* \"task2/BeggingContract.sol\":1286:1298  hasTimeLimit */\n      0x05\n      0x00\n      swap1\n      sload\n      swap1\n      0x0100\n      exp\n      swap1\n      div\n      0xff\n      and\n        /* \"task2/BeggingContract.sol\":1282:1487  if (hasTimeLimit) {... */\n      iszero\n      tag_114\n      jumpi\n        /* \"task2/BeggingContract.sol\":1358:1375  donationStartTime */\n      sload(0x03)\n        /* \"task2/BeggingContract.sol\":1339:1354  block.timestamp */\n      timestamp\n        /* \"task2/BeggingContract.sol\":1339:1375  block.timestamp >= donationStartTime */\n      lt\n      iszero\n        /* \"task2/BeggingContract.sol\":1339:1413  block.timestamp >= donationStartTime && block.timestamp <= donationEndTime */\n      dup1\n      iszero\n      tag_115\n      jumpi\n      pop\n        /* \"task2/BeggingContract.sol\":1398:1413  donationEndTime */\n      sload(0x04)\n        /* \"task2/BeggingContract.sol\":1379:1394  block.timestamp */\n      timestamp\n        /* \"task2/BeggingContract.sol\":1379:1413  block.timestamp <= donationEndTime */\n      gt\n      iszero\n        /* \"task2/BeggingContract.sol\":1339:1413  block.timestamp >= donationStartTime && block.timestamp <= donationEndTime */\n    tag_115:\n        /* \"task2/BeggingContract.sol\":1314:1476  require(... */\n      tag_116\n      jumpi\n      mload(0x40)\n      0x08c379a000000000000000000000000000000000000000000000000000000000\n      dup2\n      mstore\n      0x04\n      add\n      tag_117\n      swap1\n      tag_118\n      jump\t// in\n    tag_117:\n      mload(0x40)\n      dup1\n      swap2\n      sub\n      swap1\n      revert\n    tag_116:\n        /* \"task2/BeggingContract.sol\":1282:1487  if (hasTimeLimit) {... */\n    tag_114:\n        /* \"task2/BeggingContract.sol\":1852:1853  0 */\n      0x00\n        /* \"task2/BeggingContract.sol\":1840:1849  msg.value */\n      callvalue\n        /* \"task2/BeggingContract.sol\":1840:1853  msg.value > 0 */\n      gt\n        /* \"task2/BeggingContract.sol\":1832:1896  require(msg.value > 0, \"Donation amount must be greater than 0\") */\n      tag_120\n      jumpi\n      mload(0x40)\n      0x08c379a000000000000000000000000000000000000000000000000000000000\n      dup2\n      mstore\n      0x04\n      add\n      tag_121\n      swap1\n      tag_122\n      jump\t// in\n    tag_121:\n      mload(0x40)\n      dup1\n      swap2\n      sub\n      swap1\n      revert\n    tag_120:\n        /* \"task2/BeggingContract.sol\":1911:1921  hasDonated */\n      0x08\n        /* \"task2/BeggingContract.sol\":1911:1933  hasDonated[msg.sender] */\n      0x00\n        /* \"task2/BeggingContract.sol\":1922:1932  msg.sender */\n      caller\n        /* \"task2/BeggingContract.sol\":1911:1933  hasDonated[msg.sender] */\n      0xffffffffffffffffffffffffffffffffffffffff\n      and\n      0xffffffffffffffffffffffffffffffffffffffff\n      and\n      dup2\n      mstore\n      0x20\n      add\n      swap1\n      dup2\n      mstore\n      0x20\n      add\n      0x00\n      keccak256\n      0x00\n      swap1\n      sload\n      swap1\n      0x0100\n      exp\n      swap1\n      div\n      0xff\n      and\n        /* \"task2/BeggingContract.sol\":1907:2054  if(!hasDonated[msg.sender]){... */\n      tag_123\n      jumpi\n        /* \"task2/BeggingContract.sol\":1948:1954  donors */\n      0x07\n        /* \"task2/BeggingContract.sol\":1960:1970  msg.sender */\n      caller\n        /* \"task2/BeggingContract.sol\":1948:1971  donors.push(msg.sender) */\n      swap1\n      dup1\n      0x01\n      dup2\n      sload\n      add\n      dup1\n      dup3\n      sstore\n      dup1\n      swap2\n      pop\n      pop\n      0x01\n      swap1\n      sub\n      swap1\n      0x00\n      mstore\n      keccak256(0x00, 0x20)\n      add\n      0x00\n      swap1\n      swap2\n      swap1\n      swap2\n      swap1\n      swap2\n      0x0100\n      exp\n      dup2\n      sload\n      dup2\n      0xffffffffffffffffffffffffffffffffffffffff\n      mul\n      not\n      and\n      swap1\n      dup4\n      0xffffffffffffffffffffffffffffffffffffffff\n      and\n      mul\n      or\n      swap1\n      sstore\n      pop\n        /* \"task2/BeggingContract.sol\":2010:2014  true */\n      0x01\n        /* \"task2/BeggingContract.sol\":1985:1995  hasDonated */\n      0x08\n        /* \"task2/BeggingContract.sol\":1985:2007  hasDonated[msg.sender] */\n      0x00\n        /* \"task2/BeggingContract.sol\":1996:2006  msg.sender */\n      caller\n        /* \"task2/BeggingContract.sol\":1985:2007  hasDonated[msg.sender] */\n      0xffffffffffffffffffffffffffffffffffffffff\n      and\n      0xffffffffffffffffffffffffffffffffffffffff\n      and\n      dup2\n      mstore\n      0x20\n      add\n      swap1\n      dup2\n      mstore\n      0x20\n      add\n      0x00\n      keccak256\n      0x00\n        /* \"task2/BeggingContract.sol\":1985:2014  hasDonated[msg.sender] = true */\n      0x0100\n      exp\n      dup2\n      sload\n      dup2\n      0xff\n      mul\n      not\n      and\n      swap1\n      dup4\n      iszero\n      iszero\n      mul\n      or\n      swap1\n      sstore\n      pop\n        /* \"task2/BeggingContract.sol\":2028:2041  donationCount */\n      0x02\n      0x00\n        /* \"task2/BeggingContract.sol\":2028:2043  donationCount++ */\n      dup2\n      sload\n      dup1\n      swap3\n      swap2\n      swap1\n      tag_125\n      swap1\n      tag_126\n      jump\t// in\n    tag_125:\n      swap2\n      swap1\n      pop\n      sstore\n      pop\n        /* \"task2/BeggingContract.sol\":1907:2054  if(!hasDonated[msg.sender]){... */\n    tag_123:\n        /* \"task2/BeggingContract.sol\":2131:2140  msg.value */\n      callvalue\n        /* \"task2/BeggingContract.sol\":2106:2115  donations */\n      0x06\n        /* \"task2/BeggingContract.sol\":2106:2127  donations[msg.sender] */\n      0x00\n        /* \"task2/BeggingContract.sol\":2116:2126  msg.sender */\n      caller\n        /* \"task2/BeggingContract.sol\":2106:2127  donations[msg.sender] */\n      0xffffffffffffffffffffffffffffffffffffffff\n      and\n      0xffffffffffffffffffffffffffffffffffffffff\n      and\n      dup2\n      mstore\n      0x20\n      add\n      swap1\n      dup2\n      mstore\n      0x20\n      add\n      0x00\n      keccak256\n      0x00\n        /* \"task2/BeggingContract.sol\":2106:2140  donations[msg.sender] += msg.value */\n      dup3\n      dup3\n      sload\n      tag_127\n      swap2\n      swap1\n      tag_128\n      jump\t// in\n    tag_127:\n      swap3\n      pop\n      pop\n      dup2\n      swap1\n      sstore\n      pop\n        /* \"task2/BeggingContract.sol\":2168:2177  msg.value */\n      callvalue\n        /* \"task2/BeggingContract.sol\":2150:2164  totalDonations */\n      0x01\n      0x00\n        /* \"task2/BeggingContract.sol\":2150:2177  totalDonations += msg.value */\n      dup3\n      dup3\n      sload\n      tag_129\n      swap2\n      swap1\n      tag_128\n      jump\t// in\n    tag_129:\n      swap3\n      pop\n      pop\n      dup2\n      swap1\n      sstore\n      pop\n        /* \"task2/BeggingContract.sol\":2209:2219  msg.sender */\n      caller\n        /* \"task2/BeggingContract.sol\":2192:2248  DonationReceived(msg.sender, msg.value, block.timestamp) */\n      0xffffffffffffffffffffffffffffffffffffffff\n      and\n      0x4b0304ab2f313234b1cea012339c8f8c3bf2c8bb357d81a579cfdb35d2e3d030\n        /* \"task2/BeggingContract.sol\":2221:2230  msg.value */\n      callvalue\n        /* \"task2/BeggingContract.sol\":2232:2247  block.timestamp */\n      timestamp\n        /* \"task2/BeggingContract.sol\":2192:2248  DonationReceived(msg.sender, msg.value, block.timestamp) */\n      mload(0x40)\n      tag_130\n      swap3\n      swap2\n      swap1\n      tag_131\n      jump\t// in\n    tag_130:\n      mload(0x40)\n      dup1\n      swap2\n      sub\n      swap1\n      log2\n        /* \"task2/BeggingContract.sol\":1773:2255  function donate()payable  public withinTimeLimit {... */\n      jump\t// out\n        /* \"task2/BeggingContract.sol\":568:610  mapping(address => bool) public hasDonated */\n    tag_33:\n      mstore(0x20, 0x08)\n      dup1\n      0x00\n      mstore\n      keccak256(0x00, 0x40)\n      0x00\n      swap2\n      pop\n      sload\n      swap1\n      0x0100\n      exp\n      swap1\n      div\n      0xff\n      and\n      dup2\n      jump\t// out\n        /* \"task2/BeggingContract.sol\":152:180  uint256 public donationCount */\n    tag_38:\n      sload(0x02)\n      dup2\n      jump\t// out\n        /* \"task2/BeggingContract.sol\":2441:2819  function withdraw() public onlyOwner {... */\n    tag_43:\n        /* \"task2/BeggingContract.sol\":756:761  owner */\n      0x00\n      0x00\n      swap1\n      sload\n      swap1\n      0x0100\n      exp\n      swap1\n      div\n      0xffffffffffffffffffffffffffffffffffffffff\n      and\n        /* \"task2/BeggingContract.sol\":742:761  msg.sender == owner */\n      0xffffffffffffffffffffffffffffffffffffffff\n      and\n        /* \"task2/BeggingContract.sol\":742:752  msg.sender */\n      caller\n        /* \"task2/BeggingContract.sol\":742:761  msg.sender == owner */\n      0xffffffffffffffffffffffffffffffffffffffff\n      and\n      eq\n        /* \"task2/BeggingContract.sol\":734:799  require(msg.sender == owner, \"Only owner can call this function\") */\n      tag_133\n      jumpi\n      mload(0x40)\n      0x08c379a000000000000000000000000000000000000000000000000000000000\n      dup2\n      mstore\n      0x04\n      add\n      tag_134\n      swap1\n      tag_135\n      jump\t// in\n    tag_134:\n      mload(0x40)\n      dup1\n      swap2\n      sub\n      swap1\n      revert\n    tag_133:\n        /* \"task2/BeggingContract.sol\":2488:2503  uint256 balance */\n      0x00\n        /* \"task2/BeggingContract.sol\":2506:2527  address(this).balance */\n      selfbalance\n        /* \"task2/BeggingContract.sol\":2488:2527  uint256 balance = address(this).balance */\n      swap1\n      pop\n        /* \"task2/BeggingContract.sol\":2555:2556  0 */\n      0x00\n        /* \"task2/BeggingContract.sol\":2545:2552  balance */\n      dup2\n        /* \"task2/BeggingContract.sol\":2545:2556  balance > 0 */\n      gt\n        /* \"task2/BeggingContract.sol\":2537:2581  require(balance > 0, \"No funds to withdraw\") */\n      tag_137\n      jumpi\n      mload(0x40)\n      0x08c379a000000000000000000000000000000000000000000000000000000000\n      dup2\n      mstore\n      0x04\n      add\n      tag_138\n      swap1\n      tag_139\n      jump\t// in\n    tag_138:\n      mload(0x40)\n      dup1\n      swap2\n      sub\n      swap1\n      revert\n    tag_137:\n        /* \"task2/BeggingContract.sol\":2641:2653  bool success */\n      0x00\n        /* \"task2/BeggingContract.sol\":2667:2672  owner */\n      0x00\n      0x00\n      swap1\n      sload\n      swap1\n      0x0100\n      exp\n      swap1\n      div\n      0xffffffffffffffffffffffffffffffffffffffff\n      and\n        /* \"task2/BeggingContract.sol\":2659:2678  payable(owner).call */\n      0xffffffffffffffffffffffffffffffffffffffff\n      and\n        /* \"task2/BeggingContract.sol\":2686:2693  balance */\n      dup3\n        /* \"task2/BeggingContract.sol\":2659:2698  payable(owner).call{value: balance}(\"\") */\n      mload(0x40)\n      tag_140\n      swap1\n      tag_141\n      jump\t// in\n    tag_140:\n      0x00\n      mload(0x40)\n      dup1\n      dup4\n      sub\n      dup2\n      dup6\n      dup8\n      gas\n      call\n      swap3\n      pop\n      pop\n      pop\n      returndatasize\n      dup1\n      0x00\n      dup2\n      eq\n      tag_144\n      jumpi\n      mload(0x40)\n      swap2\n      pop\n      and(add(returndatasize, 0x3f), not(0x1f))\n      dup3\n      add\n      0x40\n      mstore\n      returndatasize\n      dup3\n      mstore\n      returndatasize\n      0x00\n      0x20\n      dup5\n      add\n      returndatacopy\n      jump(tag_143)\n    tag_144:\n      0x60\n      swap2\n      pop\n    tag_143:\n      pop\n        /* \"task2/BeggingContract.sol\":2640:2698  (bool success, ) = payable(owner).call{value: balance}(\"\") */\n      pop\n      swap1\n      pop\n        /* \"task2/BeggingContract.sol\":2716:2723  success */\n      dup1\n        /* \"task2/BeggingContract.sol\":2708:2745  require(success, \"Withdrawal failed\") */\n      tag_145\n      jumpi\n      mload(0x40)\n      0x08c379a000000000000000000000000000000000000000000000000000000000\n      dup2\n      mstore\n      0x04\n      add\n      tag_146\n      swap1\n      tag_147\n      jump\t// in\n    tag_146:\n      mload(0x40)\n      dup1\n      swap2\n      sub\n      swap1\n      revert\n    tag_145:\n        /* \"task2/BeggingContract.sol\":2780:2785  owner */\n      0x00\n      0x00\n      swap1\n      sload\n      swap1\n      0x0100\n      exp\n      swap1\n      div\n      0xffffffffffffffffffffffffffffffffffffffff\n      and\n        /* \"task2/BeggingContract.sol\":2769:2812  Withdrawal(owner, balance, block.timestamp) */\n      0xffffffffffffffffffffffffffffffffffffffff\n      and\n      0xdf273cb619d95419a9cd0ec88123a0538c85064229baa6363788f743fff90deb\n        /* \"task2/BeggingContract.sol\":2787:2794  balance */\n      dup4\n        /* \"task2/BeggingContract.sol\":2796:2811  block.timestamp */\n      timestamp\n        /* \"task2/BeggingContract.sol\":2769:2812  Withdrawal(owner, balance, block.timestamp) */\n      mload(0x40)\n      tag_148\n      swap3\n      swap2\n      swap1\n      tag_131\n      jump\t// in\n    tag_148:\n      mload(0x40)\n      dup1\n      swap2\n      sub\n      swap1\n      log2\n        /* \"task2/BeggingContract.sol\":2478:2819  {... */\n      pop\n      pop\n        /* \"task2/BeggingContract.sol\":2441:2819  function withdraw() public onlyOwner {... */\n      jump\t// out\n        /* \"task2/BeggingContract.sol\":2995:3088  function getDonorsCount() public view returns (uint256) {... */\n    tag_46:\n        /* \"task2/BeggingContract.sol\":3042:3049  uint256 */\n      0x00\n        /* \"task2/BeggingContract.sol\":3068:3074  donors */\n      0x07\n        /* \"task2/BeggingContract.sol\":3068:3081  donors.length */\n      dup1\n      sload\n      swap1\n      pop\n        /* \"task2/BeggingContract.sol\":3061:3081  return donors.length */\n      swap1\n      pop\n        /* \"task2/BeggingContract.sol\":2995:3088  function getDonorsCount() public view returns (uint256) {... */\n      swap1\n      jump\t// out\n        /* \"task2/BeggingContract.sol\":498:521  address[] public donors */\n    tag_52:\n      0x07\n      dup2\n      dup2\n      sload\n      dup2\n      lt\n      tag_150\n      jumpi\n      0x00\n      dup1\n      revert\n    tag_150:\n      swap1\n      0x00\n      mstore\n      keccak256(0x00, 0x20)\n      add\n      0x00\n      swap2\n      pop\n      sload\n      swap1\n      0x0100\n      exp\n      swap1\n      div\n      0xffffffffffffffffffffffffffffffffffffffff\n      and\n      dup2\n      jump\t// out\n        /* \"task2/BeggingContract.sol\":4712:5744  function getTop() public view returns(address[] memory topAddresses,uint256[] memory topAmounts){... */\n    tag_57:\n        /* \"task2/BeggingContract.sol\":4750:4779  address[] memory topAddresses */\n      0x60\n        /* \"task2/BeggingContract.sol\":4780:4807  uint256[] memory topAmounts */\n      dup1\n        /* \"task2/BeggingContract.sol\":4819:4836  uint256 arraySize */\n      0x00\n        /* \"task2/BeggingContract.sol\":4855:4856  3 */\n      0x03\n        /* \"task2/BeggingContract.sol\":4839:4845  donors */\n      0x07\n        /* \"task2/BeggingContract.sol\":4839:4852  donors.length */\n      dup1\n      sload\n      swap1\n      pop\n        /* \"task2/BeggingContract.sol\":4839:4856  donors.length < 3 */\n      lt\n        /* \"task2/BeggingContract.sol\":4839:4876  donors.length < 3 ? donors.length : 3 */\n      tag_153\n      jumpi\n        /* \"task2/BeggingContract.sol\":4875:4876  3 */\n      0x03\n        /* \"task2/BeggingContract.sol\":4839:4876  donors.length < 3 ? donors.length : 3 */\n      jump(tag_154)\n    tag_153:\n        /* \"task2/BeggingContract.sol\":4859:4865  donors */\n      0x07\n        /* \"task2/BeggingContract.sol\":4859:4872  donors.length */\n      dup1\n      sload\n      swap1\n      pop\n        /* \"task2/BeggingContract.sol\":4839:4876  donors.length < 3 ? donors.length : 3 */\n    tag_154:\n        /* \"task2/BeggingContract.sol\":4819:4876  uint256 arraySize = donors.length < 3 ? donors.length : 3 */\n      swap1\n      pop\n        /* \"task2/BeggingContract.sol\":4916:4925  arraySize */\n      dup1\n        /* \"task2/BeggingContract.sol\":4902:4926  new address[](arraySize) */\n      0xffffffffffffffff\n      dup2\n      gt\n      iszero\n      tag_155\n      jumpi\n      tag_156\n      tag_157\n      jump\t// in\n    tag_156:\n    tag_155:\n      mload(0x40)\n      swap1\n      dup1\n      dup3\n      mstore\n      dup1\n      0x20\n      mul\n      0x20\n      add\n      dup3\n      add\n      0x40\n      mstore\n      dup1\n      iszero\n      tag_158\n      jumpi\n      dup2\n      0x20\n      add\n      0x20\n      dup3\n      mul\n      dup1\n      calldatasize\n      dup4\n      calldatacopy\n      dup1\n      dup3\n      add\n      swap2\n      pop\n      pop\n      swap1\n      pop\n    tag_158:\n      pop\n        /* \"task2/BeggingContract.sol\":4887:4926  topAddresses = new address[](arraySize) */\n      swap3\n      pop\n        /* \"task2/BeggingContract.sol\":4963:4972  arraySize */\n      dup1\n        /* \"task2/BeggingContract.sol\":4949:4973  new uint256[](arraySize) */\n      0xffffffffffffffff\n      dup2\n      gt\n      iszero\n      tag_159\n      jumpi\n      tag_160\n      tag_157\n      jump\t// in\n    tag_160:\n    tag_159:\n      mload(0x40)\n      swap1\n      dup1\n      dup3\n      mstore\n      dup1\n      0x20\n      mul\n      0x20\n      add\n      dup3\n      add\n      0x40\n      mstore\n      dup1\n      iszero\n      tag_161\n      jumpi\n      dup2\n      0x20\n      add\n      0x20\n      dup3\n      mul\n      dup1\n      calldatasize\n      dup4\n      calldatacopy\n      dup1\n      dup3\n      add\n      swap2\n      pop\n      pop\n      swap1\n      pop\n    tag_161:\n      pop\n        /* \"task2/BeggingContract.sol\":4936:4973  topAmounts = new uint256[](arraySize) */\n      swap2\n      pop\n        /* \"task2/BeggingContract.sol\":5013:5014  0 */\n      0x00\n        /* \"task2/BeggingContract.sol\":4996:5002  donors */\n      0x07\n        /* \"task2/BeggingContract.sol\":4996:5009  donors.length */\n      dup1\n      sload\n      swap1\n      pop\n        /* \"task2/BeggingContract.sol\":4996:5014  donors.length == 0 */\n      sub\n        /* \"task2/BeggingContract.sol\":4992:5074  if (donors.length == 0) {... */\n      tag_162\n      jumpi\n        /* \"task2/BeggingContract.sol\":5030:5063  return (topAddresses, topAmounts) */\n      pop\n      jump(tag_152)\n        /* \"task2/BeggingContract.sol\":4992:5074  if (donors.length == 0) {... */\n    tag_162:\n        /* \"task2/BeggingContract.sol\":5130:5157  address[] memory tempDonors */\n      0x00\n        /* \"task2/BeggingContract.sol\":5174:5180  donors */\n      0x07\n        /* \"task2/BeggingContract.sol\":5174:5187  donors.length */\n      dup1\n      sload\n      swap1\n      pop\n        /* \"task2/BeggingContract.sol\":5160:5188  new address[](donors.length) */\n      0xffffffffffffffff\n      dup2\n      gt\n      iszero\n      tag_163\n      jumpi\n      tag_164\n      tag_157\n      jump\t// in\n    tag_164:\n    tag_163:\n      mload(0x40)\n      swap1\n      dup1\n      dup3\n      mstore\n      dup1\n      0x20\n      mul\n      0x20\n      add\n      dup3\n      add\n      0x40\n      mstore\n      dup1\n      iszero\n      tag_165\n      jumpi\n      dup2\n      0x20\n      add\n      0x20\n      dup3\n      mul\n      dup1\n      calldatasize\n      dup4\n      calldatacopy\n      dup1\n      dup3\n      add\n      swap2\n      pop\n      pop\n      swap1\n      pop\n    tag_165:\n      pop\n        /* \"task2/BeggingContract.sol\":5130:5188  address[] memory tempDonors = new address[](donors.length) */\n      swap1\n      pop\n        /* \"task2/BeggingContract.sol\":5198:5226  uint256[] memory tempAmounts */\n      0x00\n        /* \"task2/BeggingContract.sol\":5243:5249  donors */\n      0x07\n        /* \"task2/BeggingContract.sol\":5243:5256  donors.length */\n      dup1\n      sload\n      swap1\n      pop\n        /* \"task2/BeggingContract.sol\":5229:5257  new uint256[](donors.length) */\n      0xffffffffffffffff\n      dup2\n      gt\n      iszero\n      tag_166\n      jumpi\n      tag_167\n      tag_157\n      jump\t// in\n    tag_167:\n    tag_166:\n      mload(0x40)\n      swap1\n      dup1\n      dup3\n      mstore\n      dup1\n      0x20\n      mul\n      0x20\n      add\n      dup3\n      add\n      0x40\n      mstore\n      dup1\n      iszero\n      tag_168\n      jumpi\n      dup2\n      0x20\n      add\n      0x20\n      dup3\n      mul\n      dup1\n      calldatasize\n      dup4\n      calldatacopy\n      dup1\n      dup3\n      add\n      swap2\n      pop\n      pop\n      swap1\n      pop\n    tag_168:\n      pop\n        /* \"task2/BeggingContract.sol\":5198:5257  uint256[] memory tempAmounts = new uint256[](donors.length) */\n      swap1\n      pop\n        /* \"task2/BeggingContract.sol\":5281:5290  uint256 i */\n      0x00\n        /* \"task2/BeggingContract.sol\":5293:5294  0 */\n      0x00\n        /* \"task2/BeggingContract.sol\":5281:5294  uint256 i = 0 */\n      swap1\n      pop\n        /* \"task2/BeggingContract.sol\":5276:5421  for (uint256 i = 0; i < donors.length; i++) {... */\n    tag_169:\n        /* \"task2/BeggingContract.sol\":5300:5306  donors */\n      0x07\n        /* \"task2/BeggingContract.sol\":5300:5313  donors.length */\n      dup1\n      sload\n      swap1\n      pop\n        /* \"task2/BeggingContract.sol\":5296:5297  i */\n      dup2\n        /* \"task2/BeggingContract.sol\":5296:5313  i < donors.length */\n      lt\n        /* \"task2/BeggingContract.sol\":5276:5421  for (uint256 i = 0; i < donors.length; i++) {... */\n      iszero\n      tag_170\n      jumpi\n        /* \"task2/BeggingContract.sol\":5350:5356  donors */\n      0x07\n        /* \"task2/BeggingContract.sol\":5357:5358  i */\n      dup2\n        /* \"task2/BeggingContract.sol\":5350:5359  donors[i] */\n      dup2\n      sload\n      dup2\n      lt\n      tag_172\n      jumpi\n      tag_173\n      tag_174\n      jump\t// in\n    tag_173:\n    tag_172:\n      swap1\n      0x00\n      mstore\n      keccak256(0x00, 0x20)\n      add\n      0x00\n      swap1\n      sload\n      swap1\n      0x0100\n      exp\n      swap1\n      div\n      0xffffffffffffffffffffffffffffffffffffffff\n      and\n        /* \"task2/BeggingContract.sol\":5334:5344  tempDonors */\n      dup4\n        /* \"task2/BeggingContract.sol\":5345:5346  i */\n      dup3\n        /* \"task2/BeggingContract.sol\":5334:5347  tempDonors[i] */\n      dup2\n      mload\n      dup2\n      lt\n      tag_176\n      jumpi\n      tag_177\n      tag_174\n      jump\t// in\n    tag_177:\n    tag_176:\n      0x20\n      mul\n      0x20\n      add\n      add\n        /* \"task2/BeggingContract.sol\":5334:5359  tempDonors[i] = donors[i] */\n      swap1\n      0xffffffffffffffffffffffffffffffffffffffff\n      and\n      swap1\n      dup2\n      0xffffffffffffffffffffffffffffffffffffffff\n      and\n      dup2\n      mstore\n      pop\n      pop\n        /* \"task2/BeggingContract.sol\":5390:5399  donations */\n      0x06\n        /* \"task2/BeggingContract.sol\":5390:5410  donations[donors[i]] */\n      0x00\n        /* \"task2/BeggingContract.sol\":5400:5406  donors */\n      0x07\n        /* \"task2/BeggingContract.sol\":5407:5408  i */\n      dup4\n        /* \"task2/BeggingContract.sol\":5400:5409  donors[i] */\n      dup2\n      sload\n      dup2\n      lt\n      tag_178\n      jumpi\n      tag_179\n      tag_174\n      jump\t// in\n    tag_179:\n    tag_178:\n      swap1\n      0x00\n      mstore\n      keccak256(0x00, 0x20)\n      add\n      0x00\n      swap1\n      sload\n      swap1\n      0x0100\n      exp\n      swap1\n      div\n      0xffffffffffffffffffffffffffffffffffffffff\n      and\n        /* \"task2/BeggingContract.sol\":5390:5410  donations[donors[i]] */\n      0xffffffffffffffffffffffffffffffffffffffff\n      and\n      0xffffffffffffffffffffffffffffffffffffffff\n      and\n      dup2\n      mstore\n      0x20\n      add\n      swap1\n      dup2\n      mstore\n      0x20\n      add\n      0x00\n      keccak256\n      sload\n        /* \"task2/BeggingContract.sol\":5373:5384  tempAmounts */\n      dup3\n        /* \"task2/BeggingContract.sol\":5385:5386  i */\n      dup3\n        /* \"task2/BeggingContract.sol\":5373:5387  tempAmounts[i] */\n      dup2\n      mload\n      dup2\n      lt\n      tag_181\n      jumpi\n      tag_182\n      tag_174\n      jump\t// in\n    tag_182:\n    tag_181:\n      0x20\n      mul\n      0x20\n      add\n      add\n        /* \"task2/BeggingContract.sol\":5373:5410  tempAmounts[i] = donations[donors[i]] */\n      dup2\n      dup2\n      mstore\n      pop\n      pop\n        /* \"task2/BeggingContract.sol\":5315:5318  i++ */\n      dup1\n      dup1\n      0x01\n      add\n      swap2\n      pop\n      pop\n        /* \"task2/BeggingContract.sol\":5276:5421  for (uint256 i = 0; i < donors.length; i++) {... */\n      jump(tag_169)\n    tag_170:\n      pop\n        /* \"task2/BeggingContract.sol\":5430:5508  _quickSort(tempDonors, tempAmounts, int256(0), int256(tempAmounts.length - 1)) */\n      tag_183\n        /* \"task2/BeggingContract.sol\":5441:5451  tempDonors */\n      dup3\n        /* \"task2/BeggingContract.sol\":5453:5464  tempAmounts */\n      dup3\n        /* \"task2/BeggingContract.sol\":5473:5474  0 */\n      0x00\n        /* \"task2/BeggingContract.sol\":5505:5506  1 */\n      0x01\n        /* \"task2/BeggingContract.sol\":5484:5495  tempAmounts */\n      dup6\n        /* \"task2/BeggingContract.sol\":5484:5502  tempAmounts.length */\n      mload\n        /* \"task2/BeggingContract.sol\":5484:5506  tempAmounts.length - 1 */\n      tag_184\n      swap2\n      swap1\n      tag_185\n      jump\t// in\n    tag_184:\n        /* \"task2/BeggingContract.sol\":5430:5440  _quickSort */\n      tag_186\n        /* \"task2/BeggingContract.sol\":5430:5508  _quickSort(tempDonors, tempAmounts, int256(0), int256(tempAmounts.length - 1)) */\n      jump\t// in\n    tag_183:\n        /* \"task2/BeggingContract.sol\":5550:5559  uint256 i */\n      0x00\n        /* \"task2/BeggingContract.sol\":5562:5563  0 */\n      0x00\n        /* \"task2/BeggingContract.sol\":5550:5563  uint256 i = 0 */\n      swap1\n      pop\n        /* \"task2/BeggingContract.sol\":5545:5685  for (uint256 i = 0; i < arraySize; i++) {... */\n    tag_187:\n        /* \"task2/BeggingContract.sol\":5569:5578  arraySize */\n      dup4\n        /* \"task2/BeggingContract.sol\":5565:5566  i */\n      dup2\n        /* \"task2/BeggingContract.sol\":5565:5578  i < arraySize */\n      lt\n        /* \"task2/BeggingContract.sol\":5545:5685  for (uint256 i = 0; i < arraySize; i++) {... */\n      iszero\n      tag_188\n      jumpi\n        /* \"task2/BeggingContract.sol\":5617:5627  tempDonors */\n      dup3\n        /* \"task2/BeggingContract.sol\":5628:5629  i */\n      dup2\n        /* \"task2/BeggingContract.sol\":5617:5630  tempDonors[i] */\n      dup2\n      mload\n      dup2\n      lt\n      tag_190\n      jumpi\n      tag_191\n      tag_174\n      jump\t// in\n    tag_191:\n    tag_190:\n      0x20\n      mul\n      0x20\n      add\n      add\n      mload\n        /* \"task2/BeggingContract.sol\":5599:5611  topAddresses */\n      dup7\n        /* \"task2/BeggingContract.sol\":5612:5613  i */\n      dup3\n        /* \"task2/BeggingContract.sol\":5599:5614  topAddresses[i] */\n      dup2\n      mload\n      dup2\n      lt\n      tag_192\n      jumpi\n      tag_193\n      tag_174\n      jump\t// in\n    tag_193:\n    tag_192:\n      0x20\n      mul\n      0x20\n      add\n      add\n        /* \"task2/BeggingContract.sol\":5599:5630  topAddresses[i] = tempDonors[i] */\n      swap1\n      0xffffffffffffffffffffffffffffffffffffffff\n      and\n      swap1\n      dup2\n      0xffffffffffffffffffffffffffffffffffffffff\n      and\n      dup2\n      mstore\n      pop\n      pop\n        /* \"task2/BeggingContract.sol\":5660:5671  tempAmounts */\n      dup2\n        /* \"task2/BeggingContract.sol\":5672:5673  i */\n      dup2\n        /* \"task2/BeggingContract.sol\":5660:5674  tempAmounts[i] */\n      dup2\n      mload\n      dup2\n      lt\n      tag_194\n      jumpi\n      tag_195\n      tag_174\n      jump\t// in\n    tag_195:\n    tag_194:\n      0x20\n      mul\n      0x20\n      add\n      add\n      mload\n        /* \"task2/BeggingContract.sol\":5644:5654  topAmounts */\n      dup6\n        /* \"task2/BeggingContract.sol\":5655:5656  i */\n      dup3\n        /* \"task2/BeggingContract.sol\":5644:5657  topAmounts[i] */\n      dup2\n      mload\n      dup2\n      lt\n      tag_196\n      jumpi\n      tag_197\n      tag_174\n      jump\t// in\n    tag_197:\n    tag_196:\n      0x20\n      mul\n      0x20\n      add\n      add\n        /* \"task2/BeggingContract.sol\":5644:5674  topAmounts[i] = tempAmounts[i] */\n      dup2\n      dup2\n      mstore\n      pop\n      pop\n        /* \"task2/BeggingContract.sol\":5580:5583  i++ */\n      dup1\n      dup1\n      0x01\n      add\n      swap2\n      pop\n      pop\n        /* \"task2/BeggingContract.sol\":5545:5685  for (uint256 i = 0; i < arraySize; i++) {... */\n      jump(tag_187)\n    tag_188:\n      pop\n        /* \"task2/BeggingContract.sol\":5703:5736  return (topAddresses, topAmounts) */\n      pop\n      pop\n      pop\n        /* \"task2/BeggingContract.sol\":4712:5744  function getTop() public view returns(address[] memory topAddresses,uint256[] memory topAmounts){... */\n    tag_152:\n      swap1\n      swap2\n      jump\t// out\n        /* \"task2/BeggingContract.sol\":3742:3823  function removeTimeLimit() public onlyOwner {... */\n    tag_62:\n        /* \"task2/BeggingContract.sol\":756:761  owner */\n      0x00\n      0x00\n      swap1\n      sload\n      swap1\n      0x0100\n      exp\n      swap1\n      div\n      0xffffffffffffffffffffffffffffffffffffffff\n      and\n        /* \"task2/BeggingContract.sol\":742:761  msg.sender == owner */\n      0xffffffffffffffffffffffffffffffffffffffff\n      and\n        /* \"task2/BeggingContract.sol\":742:752  msg.sender */\n      caller\n        /* \"task2/BeggingContract.sol\":742:761  msg.sender == owner */\n      0xffffffffffffffffffffffffffffffffffffffff\n      and\n      eq\n        /* \"task2/BeggingContract.sol\":734:799  require(msg.sender == owner, \"Only owner can call this function\") */\n      tag_199\n      jumpi\n      mload(0x40)\n      0x08c379a000000000000000000000000000000000000000000000000000000000\n      dup2\n      mstore\n      0x04\n      add\n      tag_200\n      swap1\n      tag_135\n      jump\t// in\n    tag_200:\n      mload(0x40)\n      dup1\n      swap2\n      sub\n      swap1\n      revert\n    tag_199:\n        /* \"task2/BeggingContract.sol\":3811:3816  false */\n      0x00\n        /* \"task2/BeggingContract.sol\":3796:3808  hasTimeLimit */\n      0x05\n      0x00\n        /* \"task2/BeggingContract.sol\":3796:3816  hasTimeLimit = false */\n      0x0100\n      exp\n      dup2\n      sload\n      dup2\n      0xff\n      mul\n      not\n      and\n      swap1\n      dup4\n      iszero\n      iszero\n      mul\n      or\n      swap1\n      sstore\n      pop\n        /* \"task2/BeggingContract.sol\":3742:3823  function removeTimeLimit() public onlyOwner {... */\n      jump\t// out\n        /* \"task2/BeggingContract.sol\":2851:2956  function getContractBalance() public view returns (uint256) {... */\n    tag_65:\n        /* \"task2/BeggingContract.sol\":2902:2909  uint256 */\n      0x00\n        /* \"task2/BeggingContract.sol\":2928:2949  address(this).balance */\n      selfbalance\n        /* \"task2/BeggingContract.sol\":2921:2949  return address(this).balance */\n      swap1\n      pop\n        /* \"task2/BeggingContract.sol\":2851:2956  function getContractBalance() public view returns (uint256) {... */\n      swap1\n      jump\t// out\n        /* \"task2/BeggingContract.sol\":231:263  uint256 public donationStartTime */\n    tag_69:\n      sload(0x03)\n      dup2\n      jump\t// out\n        /* \"task2/BeggingContract.sol\":853:1237  function getContractInfo() public view returns (... */\n    tag_73:\n        /* \"task2/BeggingContract.sol\":910:931  address contractOwner */\n      0x00\n        /* \"task2/BeggingContract.sol\":941:968  uint256 totalDonationAmount */\n      0x00\n        /* \"task2/BeggingContract.sol\":978:997  uint256 totalDonors */\n      0x00\n        /* \"task2/BeggingContract.sol\":1007:1030  uint256 contractBalance */\n      0x00\n        /* \"task2/BeggingContract.sol\":1040:1061  bool timeLimitEnabled */\n      0x00\n        /* \"task2/BeggingContract.sol\":1099:1104  owner */\n      0x00\n      0x00\n      swap1\n      sload\n      swap1\n      0x0100\n      exp\n      swap1\n      div\n      0xffffffffffffffffffffffffffffffffffffffff\n      and\n        /* \"task2/BeggingContract.sol\":1118:1132  totalDonations */\n      sload(0x01)\n        /* \"task2/BeggingContract.sol\":1146:1159  donationCount */\n      sload(0x02)\n        /* \"task2/BeggingContract.sol\":1173:1194  address(this).balance */\n      selfbalance\n        /* \"task2/BeggingContract.sol\":1208:1220  hasTimeLimit */\n      0x05\n      0x00\n      swap1\n      sload\n      swap1\n      0x0100\n      exp\n      swap1\n      div\n      0xff\n      and\n        /* \"task2/BeggingContract.sol\":1078:1230  return (... */\n      swap5\n      pop\n      swap5\n      pop\n      swap5\n      pop\n      swap5\n      pop\n      swap5\n      pop\n        /* \"task2/BeggingContract.sol\":853:1237  function getContractInfo() public view returns (... */\n      swap1\n      swap2\n      swap3\n      swap4\n      swap5\n      jump\t// out\n        /* \"task2/BeggingContract.sol\":91:111  address public owner */\n    tag_78:\n      0x00\n      0x00\n      swap1\n      sload\n      swap1\n      0x0100\n      exp\n      swap1\n      div\n      0xffffffffffffffffffffffffffffffffffffffff\n      and\n      dup2\n      jump\t// out\n        /* \"task2/BeggingContract.sol\":3145:3238  function getAllDonors() public view returns (address[] memory) {... */\n    tag_82:\n        /* \"task2/BeggingContract.sol\":3190:3206  address[] memory */\n      0x60\n        /* \"task2/BeggingContract.sol\":3225:3231  donors */\n      0x07\n        /* \"task2/BeggingContract.sol\":3218:3231  return donors */\n      dup1\n      sload\n      dup1\n      0x20\n      mul\n      0x20\n      add\n      mload(0x40)\n      swap1\n      dup2\n      add\n      0x40\n      mstore\n      dup1\n      swap3\n      swap2\n      swap1\n      dup2\n      dup2\n      mstore\n      0x20\n      add\n      dup3\n      dup1\n      sload\n      dup1\n      iszero\n      tag_205\n      jumpi\n      0x20\n      mul\n      dup3\n      add\n      swap2\n      swap1\n      0x00\n      mstore\n      keccak256(0x00, 0x20)\n      swap1\n    tag_206:\n      dup2\n      0x00\n      swap1\n      sload\n      swap1\n      0x0100\n      exp\n      swap1\n      div\n      0xffffffffffffffffffffffffffffffffffffffff\n      and\n      0xffffffffffffffffffffffffffffffffffffffff\n      and\n      dup2\n      mstore\n      0x20\n      add\n      swap1\n      0x01\n      add\n      swap1\n      dup1\n      dup4\n      gt\n      tag_206\n      jumpi\n    tag_205:\n      pop\n      pop\n      pop\n      pop\n      pop\n      swap1\n      pop\n        /* \"task2/BeggingContract.sol\":3145:3238  function getAllDonors() public view returns (address[] memory) {... */\n      swap1\n      jump\t// out\n        /* \"task2/BeggingContract.sol\":2286:2394  function getDonateAmount(address donor) public view returns(uint256){... */\n    tag_88:\n        /* \"task2/BeggingContract.sol\":2346:2353  uint256 */\n      0x00\n        /* \"task2/BeggingContract.sol\":2371:2380  donations */\n      0x06\n        /* \"task2/BeggingContract.sol\":2371:2387  donations[donor] */\n      0x00\n        /* \"task2/BeggingContract.sol\":2381:2386  donor */\n      dup4\n        /* \"task2/BeggingContract.sol\":2371:2387  donations[donor] */\n      0xffffffffffffffffffffffffffffffffffffffff\n      and\n      0xffffffffffffffffffffffffffffffffffffffff\n      and\n      dup2\n      mstore\n      0x20\n      add\n      swap1\n      dup2\n      mstore\n      0x20\n      add\n      0x00\n      keccak256\n      sload\n        /* \"task2/BeggingContract.sol\":2364:2387  return donations[donor] */\n      swap1\n      pop\n        /* \"task2/BeggingContract.sol\":2286:2394  function getDonateAmount(address donor) public view returns(uint256){... */\n      swap2\n      swap1\n      pop\n      jump\t// out\n        /* \"task2/BeggingContract.sol\":392:436  mapping(address => uint256) public donations */\n    tag_93:\n      mstore(0x20, 0x06)\n      dup1\n      0x00\n      mstore\n      keccak256(0x00, 0x40)\n      0x00\n      swap2\n      pop\n      swap1\n      pop\n      sload\n      dup2\n      jump\t// out\n        /* \"task2/BeggingContract.sol\":305:329  bool public hasTimeLimit */\n    tag_97:\n      0x05\n      0x00\n      swap1\n      sload\n      swap1\n      0x0100\n      exp\n      swap1\n      div\n      0xff\n      and\n      dup2\n      jump\t// out\n        /* \"task2/BeggingContract.sol\":117:146  uint256 public totalDonations */\n    tag_101:\n      sload(0x01)\n      dup2\n      jump\t// out\n        /* \"task2/BeggingContract.sol\":269:299  uint256 public donationEndTime */\n    tag_106:\n      sload(0x04)\n      dup2\n      jump\t// out\n        /* \"task2/BeggingContract.sol\":3289:3706  function setTimeLimit(uint256 _startTime, uint256 _endTime) public onlyOwner {... */\n    tag_112:\n        /* \"task2/BeggingContract.sol\":756:761  owner */\n      0x00\n      0x00\n      swap1\n      sload\n      swap1\n      0x0100\n      exp\n      swap1\n      div\n      0xffffffffffffffffffffffffffffffffffffffff\n      and\n        /* \"task2/BeggingContract.sol\":742:761  msg.sender == owner */\n      0xffffffffffffffffffffffffffffffffffffffff\n      and\n        /* \"task2/BeggingContract.sol\":742:752  msg.sender */\n      caller\n        /* \"task2/BeggingContract.sol\":742:761  msg.sender == owner */\n      0xffffffffffffffffffffffffffffffffffffffff\n      and\n      eq\n        /* \"task2/BeggingContract.sol\":734:799  require(msg.sender == owner, \"Only owner can call this function\") */\n      tag_209\n      jumpi\n      mload(0x40)\n      0x08c379a000000000000000000000000000000000000000000000000000000000\n      dup2\n      mstore\n      0x04\n      add\n      tag_210\n      swap1\n      tag_135\n      jump\t// in\n    tag_210:\n      mload(0x40)\n      dup1\n      swap2\n      sub\n      swap1\n      revert\n    tag_209:\n        /* \"task2/BeggingContract.sol\":3397:3405  _endTime */\n      dup1\n        /* \"task2/BeggingContract.sol\":3384:3394  _startTime */\n      dup3\n        /* \"task2/BeggingContract.sol\":3384:3405  _startTime < _endTime */\n      lt\n        /* \"task2/BeggingContract.sol\":3376:3444  require(_startTime < _endTime, \"Start time must be before end time\") */\n      tag_212\n      jumpi\n      mload(0x40)\n      0x08c379a000000000000000000000000000000000000000000000000000000000\n      dup2\n      mstore\n      0x04\n      add\n      tag_213\n      swap1\n      tag_214\n      jump\t// in\n    tag_213:\n      mload(0x40)\n      dup1\n      swap2\n      sub\n      swap1\n      revert\n    tag_212:\n        /* \"task2/BeggingContract.sol\":3475:3490  block.timestamp */\n      timestamp\n        /* \"task2/BeggingContract.sol\":3462:3472  _startTime */\n      dup3\n        /* \"task2/BeggingContract.sol\":3462:3490  _startTime > block.timestamp */\n      gt\n        /* \"task2/BeggingContract.sol\":3454:3527  require(_startTime > block.timestamp, \"Start time must be in the future\") */\n      tag_215\n      jumpi\n      mload(0x40)\n      0x08c379a000000000000000000000000000000000000000000000000000000000\n      dup2\n      mstore\n      0x04\n      add\n      tag_216\n      swap1\n      tag_217\n      jump\t// in\n    tag_216:\n      mload(0x40)\n      dup1\n      swap2\n      sub\n      swap1\n      revert\n    tag_215:\n        /* \"task2/BeggingContract.sol\":3566:3576  _startTime */\n      dup2\n        /* \"task2/BeggingContract.sol\":3546:3563  donationStartTime */\n      0x03\n        /* \"task2/BeggingContract.sol\":3546:3576  donationStartTime = _startTime */\n      dup2\n      swap1\n      sstore\n      pop\n        /* \"task2/BeggingContract.sol\":3604:3612  _endTime */\n      dup1\n        /* \"task2/BeggingContract.sol\":3586:3601  donationEndTime */\n      0x04\n        /* \"task2/BeggingContract.sol\":3586:3612  donationEndTime = _endTime */\n      dup2\n      swap1\n      sstore\n      pop\n        /* \"task2/BeggingContract.sol\":3637:3641  true */\n      0x01\n        /* \"task2/BeggingContract.sol\":3622:3634  hasTimeLimit */\n      0x05\n      0x00\n        /* \"task2/BeggingContract.sol\":3622:3641  hasTimeLimit = true */\n      0x0100\n      exp\n      dup2\n      sload\n      dup2\n      0xff\n      mul\n      not\n      and\n      swap1\n      dup4\n      iszero\n      iszero\n      mul\n      or\n      swap1\n      sstore\n      pop\n        /* \"task2/BeggingContract.sol\":3665:3699  TimeLimitSet(_startTime, _endTime) */\n      0x4a53152ceca2ce059179e272279afa57041103440e131e57c5a2262e01d607f6\n        /* \"task2/BeggingContract.sol\":3678:3688  _startTime */\n      dup3\n        /* \"task2/BeggingContract.sol\":3690:3698  _endTime */\n      dup3\n        /* \"task2/BeggingContract.sol\":3665:3699  TimeLimitSet(_startTime, _endTime) */\n      mload(0x40)\n      tag_218\n      swap3\n      swap2\n      swap1\n      tag_131\n      jump\t// in\n    tag_218:\n      mload(0x40)\n      dup1\n      swap2\n      sub\n      swap1\n      log1\n        /* \"task2/BeggingContract.sol\":3289:3706  function setTimeLimit(uint256 _startTime, uint256 _endTime) public onlyOwner {... */\n      pop\n      pop\n      jump\t// out\n        /* \"task2/BeggingContract.sol\":3880:4684  function _quickSort(address[] memory addrs, uint256[] memory amounts,int256 left,int256 right) internal pure {... */\n    tag_186:\n        /* \"task2/BeggingContract.sol\":3999:4007  int256 i */\n      0x00\n        /* \"task2/BeggingContract.sol\":4010:4014  left */\n      dup3\n        /* \"task2/BeggingContract.sol\":3999:4014  int256 i = left */\n      swap1\n      pop\n        /* \"task2/BeggingContract.sol\":4024:4032  int256 j */\n      0x00\n        /* \"task2/BeggingContract.sol\":4035:4040  right */\n      dup3\n        /* \"task2/BeggingContract.sol\":4024:4040  int256 j = right */\n      swap1\n      pop\n        /* \"task2/BeggingContract.sol\":4056:4057  j */\n      dup1\n        /* \"task2/BeggingContract.sol\":4053:4054  i */\n      dup3\n        /* \"task2/BeggingContract.sol\":4053:4057  i==j */\n      sub\n        /* \"task2/BeggingContract.sol\":4050:4066  if(i==j) return; */\n      tag_220\n      jumpi\n        /* \"task2/BeggingContract.sol\":4059:4066  return; */\n      pop\n      pop\n      jump(tag_219)\n        /* \"task2/BeggingContract.sol\":4050:4066  if(i==j) return; */\n    tag_220:\n        /* \"task2/BeggingContract.sol\":4076:4090  uint256 privot */\n      0x00\n        /* \"task2/BeggingContract.sol\":4093:4100  amounts */\n      dup6\n        /* \"task2/BeggingContract.sol\":4127:4128  2 */\n      0x02\n        /* \"task2/BeggingContract.sol\":4121:4125  left */\n      dup7\n        /* \"task2/BeggingContract.sol\":4115:4120  right */\n      dup7\n        /* \"task2/BeggingContract.sol\":4115:4125  right-left */\n      tag_221\n      swap2\n      swap1\n      tag_222\n      jump\t// in\n    tag_221:\n        /* \"task2/BeggingContract.sol\":4114:4128  (right-left)/2 */\n      tag_223\n      swap2\n      swap1\n      tag_224\n      jump\t// in\n    tag_223:\n        /* \"task2/BeggingContract.sol\":4109:4113  left */\n      dup7\n        /* \"task2/BeggingContract.sol\":4109:4128  left+(right-left)/2 */\n      tag_225\n      swap2\n      swap1\n      tag_226\n      jump\t// in\n    tag_225:\n        /* \"task2/BeggingContract.sol\":4093:4130  amounts[uint256(left+(right-left)/2)] */\n      dup2\n      mload\n      dup2\n      lt\n      tag_227\n      jumpi\n      tag_228\n      tag_174\n      jump\t// in\n    tag_228:\n    tag_227:\n      0x20\n      mul\n      0x20\n      add\n      add\n      mload\n        /* \"task2/BeggingContract.sol\":4076:4130  uint256 privot = amounts[uint256(left+(right-left)/2)] */\n      swap1\n      pop\n        /* \"task2/BeggingContract.sol\":4140:4677  while (i<=j){... */\n    tag_229:\n        /* \"task2/BeggingContract.sol\":4150:4151  j */\n      dup2\n        /* \"task2/BeggingContract.sol\":4147:4148  i */\n      dup4\n        /* \"task2/BeggingContract.sol\":4147:4151  i<=j */\n      sgt\n        /* \"task2/BeggingContract.sol\":4140:4677  while (i<=j){... */\n      tag_230\n      jumpi\n        /* \"task2/BeggingContract.sol\":4166:4235  while(amounts[uint256(i)]>privot){... */\n    tag_231:\n        /* \"task2/BeggingContract.sol\":4192:4198  privot */\n      dup1\n        /* \"task2/BeggingContract.sol\":4172:4179  amounts */\n      dup7\n        /* \"task2/BeggingContract.sol\":4188:4189  i */\n      dup5\n        /* \"task2/BeggingContract.sol\":4172:4191  amounts[uint256(i)] */\n      dup2\n      mload\n      dup2\n      lt\n      tag_233\n      jumpi\n      tag_234\n      tag_174\n      jump\t// in\n    tag_234:\n    tag_233:\n      0x20\n      mul\n      0x20\n      add\n      add\n      mload\n        /* \"task2/BeggingContract.sol\":4172:4198  amounts[uint256(i)]>privot */\n      gt\n        /* \"task2/BeggingContract.sol\":4166:4235  while(amounts[uint256(i)]>privot){... */\n      iszero\n      tag_232\n      jumpi\n        /* \"task2/BeggingContract.sol\":4217:4220  i++ */\n      dup3\n      dup1\n      tag_235\n      swap1\n      tag_236\n      jump\t// in\n    tag_235:\n      swap4\n      pop\n      pop\n        /* \"task2/BeggingContract.sol\":4166:4235  while(amounts[uint256(i)]>privot){... */\n      jump(tag_231)\n    tag_232:\n        /* \"task2/BeggingContract.sol\":4248:4317  while(amounts[uint256(j)]<privot){... */\n    tag_237:\n        /* \"task2/BeggingContract.sol\":4274:4280  privot */\n      dup1\n        /* \"task2/BeggingContract.sol\":4254:4261  amounts */\n      dup7\n        /* \"task2/BeggingContract.sol\":4270:4271  j */\n      dup4\n        /* \"task2/BeggingContract.sol\":4254:4273  amounts[uint256(j)] */\n      dup2\n      mload\n      dup2\n      lt\n      tag_239\n      jumpi\n      tag_240\n      tag_174\n      jump\t// in\n    tag_240:\n    tag_239:\n      0x20\n      mul\n      0x20\n      add\n      add\n      mload\n        /* \"task2/BeggingContract.sol\":4254:4280  amounts[uint256(j)]<privot */\n      lt\n        /* \"task2/BeggingContract.sol\":4248:4317  while(amounts[uint256(j)]<privot){... */\n      iszero\n      tag_238\n      jumpi\n        /* \"task2/BeggingContract.sol\":4299:4302  j-- */\n      dup2\n      dup1\n      tag_241\n      swap1\n      tag_242\n      jump\t// in\n    tag_241:\n      swap3\n      pop\n      pop\n        /* \"task2/BeggingContract.sol\":4248:4317  while(amounts[uint256(j)]<privot){... */\n      jump(tag_237)\n    tag_238:\n        /* \"task2/BeggingContract.sol\":4349:4350  j */\n      dup2\n        /* \"task2/BeggingContract.sol\":4346:4347  i */\n      dup4\n        /* \"task2/BeggingContract.sol\":4346:4350  i<=j */\n      sgt\n        /* \"task2/BeggingContract.sol\":4343:4632  if(i<=j){... */\n      tag_243\n      jumpi\n        /* \"task2/BeggingContract.sol\":4447:4454  amounts */\n      dup6\n        /* \"task2/BeggingContract.sol\":4463:4464  j */\n      dup3\n        /* \"task2/BeggingContract.sol\":4447:4466  amounts[uint256(j)] */\n      dup2\n      mload\n      dup2\n      lt\n      tag_244\n      jumpi\n      tag_245\n      tag_174\n      jump\t// in\n    tag_245:\n    tag_244:\n      0x20\n      mul\n      0x20\n      add\n      add\n      mload\n        /* \"task2/BeggingContract.sol\":4468:4475  amounts */\n      dup7\n        /* \"task2/BeggingContract.sol\":4484:4485  i */\n      dup5\n        /* \"task2/BeggingContract.sol\":4468:4487  amounts[uint256(i)] */\n      dup2\n      mload\n      dup2\n      lt\n      tag_246\n      jumpi\n      tag_247\n      tag_174\n      jump\t// in\n    tag_247:\n    tag_246:\n      0x20\n      mul\n      0x20\n      add\n      add\n      mload\n        /* \"task2/BeggingContract.sol\":4402:4409  amounts */\n      dup8\n        /* \"task2/BeggingContract.sol\":4418:4419  i */\n      dup6\n        /* \"task2/BeggingContract.sol\":4402:4421  amounts[uint256(i)] */\n      dup2\n      mload\n      dup2\n      lt\n      tag_248\n      jumpi\n      tag_249\n      tag_174\n      jump\t// in\n    tag_249:\n    tag_248:\n      0x20\n      mul\n      0x20\n      add\n      add\n        /* \"task2/BeggingContract.sol\":4423:4430  amounts */\n      dup9\n        /* \"task2/BeggingContract.sol\":4439:4440  j */\n      dup6\n        /* \"task2/BeggingContract.sol\":4423:4442  amounts[uint256(j)] */\n      dup2\n      mload\n      dup2\n      lt\n      tag_250\n      jumpi\n      tag_251\n      tag_174\n      jump\t// in\n    tag_251:\n    tag_250:\n      0x20\n      mul\n      0x20\n      add\n      add\n        /* \"task2/BeggingContract.sol\":4401:4488  (amounts[uint256(i)], amounts[uint256(j)]) = (amounts[uint256(j)], amounts[uint256(i)]) */\n      dup3\n      dup2\n      mstore\n      pop\n      dup3\n      dup2\n      mstore\n      pop\n      pop\n      pop\n        /* \"task2/BeggingContract.sol\":4580:4585  addrs */\n      dup7\n        /* \"task2/BeggingContract.sol\":4594:4595  j */\n      dup3\n        /* \"task2/BeggingContract.sol\":4580:4597  addrs[uint256(j)] */\n      dup2\n      mload\n      dup2\n      lt\n      tag_252\n      jumpi\n      tag_253\n      tag_174\n      jump\t// in\n    tag_253:\n    tag_252:\n      0x20\n      mul\n      0x20\n      add\n      add\n      mload\n        /* \"task2/BeggingContract.sol\":4599:4604  addrs */\n      dup8\n        /* \"task2/BeggingContract.sol\":4613:4614  i */\n      dup5\n        /* \"task2/BeggingContract.sol\":4599:4616  addrs[uint256(i)] */\n      dup2\n      mload\n      dup2\n      lt\n      tag_254\n      jumpi\n      tag_255\n      tag_174\n      jump\t// in\n    tag_255:\n    tag_254:\n      0x20\n      mul\n      0x20\n      add\n      add\n      mload\n        /* \"task2/BeggingContract.sol\":4539:4544  addrs */\n      dup9\n        /* \"task2/BeggingContract.sol\":4553:4554  i */\n      dup6\n        /* \"task2/BeggingContract.sol\":4539:4556  addrs[uint256(i)] */\n      dup2\n      mload\n      dup2\n      lt\n      tag_256\n      jumpi\n      tag_257\n      tag_174\n      jump\t// in\n    tag_257:\n    tag_256:\n      0x20\n      mul\n      0x20\n      add\n      add\n        /* \"task2/BeggingContract.sol\":4558:4563  addrs */\n      dup10\n        /* \"task2/BeggingContract.sol\":4572:4573  j */\n      dup6\n        /* \"task2/BeggingContract.sol\":4558:4575  addrs[uint256(j)] */\n      dup2\n      mload\n      dup2\n      lt\n      tag_258\n      jumpi\n      tag_259\n      tag_174\n      jump\t// in\n    tag_259:\n    tag_258:\n      0x20\n      mul\n      0x20\n      add\n      add\n        /* \"task2/BeggingContract.sol\":4538:4617  (addrs[uint256(i)], addrs[uint256(j)]) = (addrs[uint256(j)], addrs[uint256(i)]) */\n      dup3\n      0xffffffffffffffffffffffffffffffffffffffff\n      and\n      0xffffffffffffffffffffffffffffffffffffffff\n      and\n      dup2\n      mstore\n      pop\n      dup3\n      0xffffffffffffffffffffffffffffffffffffffff\n      and\n      0xffffffffffffffffffffffffffffffffffffffff\n      and\n      dup2\n      mstore\n      pop\n      pop\n      pop\n        /* \"task2/BeggingContract.sol\":4343:4632  if(i<=j){... */\n    tag_243:\n        /* \"task2/BeggingContract.sol\":4645:4648  i++ */\n      dup3\n      dup1\n      tag_260\n      swap1\n      tag_236\n      jump\t// in\n    tag_260:\n      swap4\n      pop\n      pop\n        /* \"task2/BeggingContract.sol\":4662:4665  j-- */\n      dup2\n      dup1\n      tag_261\n      swap1\n      tag_242\n      jump\t// in\n    tag_261:\n      swap3\n      pop\n      pop\n        /* \"task2/BeggingContract.sol\":4140:4677  while (i<=j){... */\n      jump(tag_229)\n    tag_230:\n        /* \"task2/BeggingContract.sol\":3989:4684  {... */\n      pop\n      pop\n      pop\n        /* \"task2/BeggingContract.sol\":3880:4684  function _quickSort(address[] memory addrs, uint256[] memory amounts,int256 left,int256 right) internal pure {... */\n    tag_219:\n      pop\n      pop\n      pop\n      pop\n      jump\t// out\n        /* \"#utility.yul\":88:205   */\n    tag_263:\n        /* \"#utility.yul\":197:198   */\n      0x00\n        /* \"#utility.yul\":194:195   */\n      0x00\n        /* \"#utility.yul\":187:199   */\n      revert\n        /* \"#utility.yul\":334:460   */\n    tag_265:\n        /* \"#utility.yul\":371:378   */\n      0x00\n        /* \"#utility.yul\":411:453   */\n      0xffffffffffffffffffffffffffffffffffffffff\n        /* \"#utility.yul\":404:409   */\n      dup3\n        /* \"#utility.yul\":400:454   */\n      and\n        /* \"#utility.yul\":389:454   */\n      swap1\n      pop\n        /* \"#utility.yul\":334:460   */\n      swap2\n      swap1\n      pop\n      jump\t// out\n        /* \"#utility.yul\":466:562   */\n    tag_266:\n        /* \"#utility.yul\":503:510   */\n      0x00\n        /* \"#utility.yul\":532:556   */\n      tag_317\n        /* \"#utility.yul\":550:555   */\n      dup3\n        /* \"#utility.yul\":532:556   */\n      tag_265\n      jump\t// in\n    tag_317:\n        /* \"#utility.yul\":521:556   */\n      swap1\n      pop\n        /* \"#utility.yul\":466:562   */\n      swap2\n      swap1\n      pop\n      jump\t// out\n        /* \"#utility.yul\":568:690   */\n    tag_267:\n        /* \"#utility.yul\":641:665   */\n      tag_319\n        /* \"#utility.yul\":659:664   */\n      dup2\n        /* \"#utility.yul\":641:665   */\n      tag_266\n      jump\t// in\n    tag_319:\n        /* \"#utility.yul\":634:639   */\n      dup2\n        /* \"#utility.yul\":631:666   */\n      eq\n        /* \"#utility.yul\":621:684   */\n      tag_320\n      jumpi\n        /* \"#utility.yul\":680:681   */\n      0x00\n        /* \"#utility.yul\":677:678   */\n      0x00\n        /* \"#utility.yul\":670:682   */\n      revert\n        /* \"#utility.yul\":621:684   */\n    tag_320:\n        /* \"#utility.yul\":568:690   */\n      pop\n      jump\t// out\n        /* \"#utility.yul\":696:835   */\n    tag_268:\n        /* \"#utility.yul\":742:747   */\n      0x00\n        /* \"#utility.yul\":780:786   */\n      dup2\n        /* \"#utility.yul\":767:787   */\n      calldataload\n        /* \"#utility.yul\":758:787   */\n      swap1\n      pop\n        /* \"#utility.yul\":796:829   */\n      tag_322\n        /* \"#utility.yul\":823:828   */\n      dup2\n        /* \"#utility.yul\":796:829   */\n      tag_267\n      jump\t// in\n    tag_322:\n        /* \"#utility.yul\":696:835   */\n      swap3\n      swap2\n      pop\n      pop\n      jump\t// out\n        /* \"#utility.yul\":841:1170   */\n    tag_32:\n        /* \"#utility.yul\":900:906   */\n      0x00\n        /* \"#utility.yul\":949:951   */\n      0x20\n        /* \"#utility.yul\":937:946   */\n      dup3\n        /* \"#utility.yul\":928:935   */\n      dup5\n        /* \"#utility.yul\":924:947   */\n      sub\n        /* \"#utility.yul\":920:952   */\n      slt\n        /* \"#utility.yul\":917:1036   */\n      iszero\n      tag_324\n      jumpi\n        /* \"#utility.yul\":955:1034   */\n      tag_325\n      tag_263\n      jump\t// in\n    tag_325:\n        /* \"#utility.yul\":917:1036   */\n    tag_324:\n        /* \"#utility.yul\":1075:1076   */\n      0x00\n        /* \"#utility.yul\":1100:1153   */\n      tag_326\n        /* \"#utility.yul\":1145:1152   */\n      dup5\n        /* \"#utility.yul\":1136:1142   */\n      dup3\n        /* \"#utility.yul\":1125:1134   */\n      dup6\n        /* \"#utility.yul\":1121:1143   */\n      add\n        /* \"#utility.yul\":1100:1153   */\n      tag_268\n      jump\t// in\n    tag_326:\n        /* \"#utility.yul\":1090:1153   */\n      swap2\n      pop\n        /* \"#utility.yul\":1046:1163   */\n      pop\n        /* \"#utility.yul\":841:1170   */\n      swap3\n      swap2\n      pop\n      pop\n      jump\t// out\n        /* \"#utility.yul\":1176:1266   */\n    tag_269:\n        /* \"#utility.yul\":1210:1217   */\n      0x00\n        /* \"#utility.yul\":1253:1258   */\n      dup2\n        /* \"#utility.yul\":1246:1259   */\n      iszero\n        /* \"#utility.yul\":1239:1260   */\n      iszero\n        /* \"#utility.yul\":1228:1260   */\n      swap1\n      pop\n        /* \"#utility.yul\":1176:1266   */\n      swap2\n      swap1\n      pop\n      jump\t// out\n        /* \"#utility.yul\":1272:1381   */\n    tag_270:\n        /* \"#utility.yul\":1353:1374   */\n      tag_329\n        /* \"#utility.yul\":1368:1373   */\n      dup2\n        /* \"#utility.yul\":1353:1374   */\n      tag_269\n      jump\t// in\n    tag_329:\n        /* \"#utility.yul\":1348:1351   */\n      dup3\n        /* \"#utility.yul\":1341:1375   */\n      mstore\n        /* \"#utility.yul\":1272:1381   */\n      pop\n      pop\n      jump\t// out\n        /* \"#utility.yul\":1387:1597   */\n    tag_35:\n        /* \"#utility.yul\":1474:1478   */\n      0x00\n        /* \"#utility.yul\":1512:1514   */\n      0x20\n        /* \"#utility.yul\":1501:1510   */\n      dup3\n        /* \"#utility.yul\":1497:1515   */\n      add\n        /* \"#utility.yul\":1489:1515   */\n      swap1\n      pop\n        /* \"#utility.yul\":1525:1590   */\n      tag_331\n        /* \"#utility.yul\":1587:1588   */\n      0x00\n        /* \"#utility.yul\":1576:1585   */\n      dup4\n        /* \"#utility.yul\":1572:1589   */\n      add\n        /* \"#utility.yul\":1563:1569   */\n      dup5\n        /* \"#utility.yul\":1525:1590   */\n      tag_270\n      jump\t// in\n    tag_331:\n        /* \"#utility.yul\":1387:1597   */\n      swap3\n      swap2\n      pop\n      pop\n      jump\t// out\n        /* \"#utility.yul\":1603:1680   */\n    tag_271:\n        /* \"#utility.yul\":1640:1647   */\n      0x00\n        /* \"#utility.yul\":1669:1674   */\n      dup2\n        /* \"#utility.yul\":1658:1674   */\n      swap1\n      pop\n        /* \"#utility.yul\":1603:1680   */\n      swap2\n      swap1\n      pop\n      jump\t// out\n        /* \"#utility.yul\":1686:1804   */\n    tag_272:\n        /* \"#utility.yul\":1773:1797   */\n      tag_334\n        /* \"#utility.yul\":1791:1796   */\n      dup2\n        /* \"#utility.yul\":1773:1797   */\n      tag_271\n      jump\t// in\n    tag_334:\n        /* \"#utility.yul\":1768:1771   */\n      dup3\n        /* \"#utility.yul\":1761:1798   */\n      mstore\n        /* \"#utility.yul\":1686:1804   */\n      pop\n      pop\n      jump\t// out\n        /* \"#utility.yul\":1810:2032   */\n    tag_40:\n        /* \"#utility.yul\":1903:1907   */\n      0x00\n        /* \"#utility.yul\":1941:1943   */\n      0x20\n        /* \"#utility.yul\":1930:1939   */\n      dup3\n        /* \"#utility.yul\":1926:1944   */\n      add\n        /* \"#utility.yul\":1918:1944   */\n      swap1\n      pop\n        /* \"#utility.yul\":1954:2025   */\n      tag_336\n        /* \"#utility.yul\":2022:2023   */\n      0x00\n        /* \"#utility.yul\":2011:2020   */\n      dup4\n        /* \"#utility.yul\":2007:2024   */\n      add\n        /* \"#utility.yul\":1998:2004   */\n      dup5\n        /* \"#utility.yul\":1954:2025   */\n      tag_272\n      jump\t// in\n    tag_336:\n        /* \"#utility.yul\":1810:2032   */\n      swap3\n      swap2\n      pop\n      pop\n      jump\t// out\n        /* \"#utility.yul\":2038:2160   */\n    tag_273:\n        /* \"#utility.yul\":2111:2135   */\n      tag_338\n        /* \"#utility.yul\":2129:2134   */\n      dup2\n        /* \"#utility.yul\":2111:2135   */\n      tag_271\n      jump\t// in\n    tag_338:\n        /* \"#utility.yul\":2104:2109   */\n      dup2\n        /* \"#utility.yul\":2101:2136   */\n      eq\n        /* \"#utility.yul\":2091:2154   */\n      tag_339\n      jumpi\n        /* \"#utility.yul\":2150:2151   */\n      0x00\n        /* \"#utility.yul\":2147:2148   */\n      0x00\n        /* \"#utility.yul\":2140:2152   */\n      revert\n        /* \"#utility.yul\":2091:2154   */\n    tag_339:\n        /* \"#utility.yul\":2038:2160   */\n      pop\n      jump\t// out\n        /* \"#utility.yul\":2166:2305   */\n    tag_274:\n        /* \"#utility.yul\":2212:2217   */\n      0x00\n        /* \"#utility.yul\":2250:2256   */\n      dup2\n        /* \"#utility.yul\":2237:2257   */\n      calldataload\n        /* \"#utility.yul\":2228:2257   */\n      swap1\n      pop\n        /* \"#utility.yul\":2266:2299   */\n      tag_341\n        /* \"#utility.yul\":2293:2298   */\n      dup2\n        /* \"#utility.yul\":2266:2299   */\n      tag_273\n      jump\t// in\n    tag_341:\n        /* \"#utility.yul\":2166:2305   */\n      swap3\n      swap2\n      pop\n      pop\n      jump\t// out\n        /* \"#utility.yul\":2311:2640   */\n    tag_51:\n        /* \"#utility.yul\":2370:2376   */\n      0x00\n        /* \"#utility.yul\":2419:2421   */\n      0x20\n        /* \"#utility.yul\":2407:2416   */\n      dup3\n        /* \"#utility.yul\":2398:2405   */\n      dup5\n        /* \"#utility.yul\":2394:2417   */\n      sub\n        /* \"#utility.yul\":2390:2422   */\n      slt\n        /* \"#utility.yul\":2387:2506   */\n      iszero\n      tag_343\n      jumpi\n        /* \"#utility.yul\":2425:2504   */\n      tag_344\n      tag_263\n      jump\t// in\n    tag_344:\n        /* \"#utility.yul\":2387:2506   */\n    tag_343:\n        /* \"#utility.yul\":2545:2546   */\n      0x00\n        /* \"#utility.yul\":2570:2623   */\n      tag_345\n        /* \"#utility.yul\":2615:2622   */\n      dup5\n        /* \"#utility.yul\":2606:2612   */\n      dup3\n        /* \"#utility.yul\":2595:2604   */\n      dup6\n        /* \"#utility.yul\":2591:2613   */\n      add\n        /* \"#utility.yul\":2570:2623   */\n      tag_274\n      jump\t// in\n    tag_345:\n        /* \"#utility.yul\":2560:2623   */\n      swap2\n      pop\n        /* \"#utility.yul\":2516:2633   */\n      pop\n        /* \"#utility.yul\":2311:2640   */\n      swap3\n      swap2\n      pop\n      pop\n      jump\t// out\n        /* \"#utility.yul\":2646:2764   */\n    tag_275:\n        /* \"#utility.yul\":2733:2757   */\n      tag_347\n        /* \"#utility.yul\":2751:2756   */\n      dup2\n        /* \"#utility.yul\":2733:2757   */\n      tag_266\n      jump\t// in\n    tag_347:\n        /* \"#utility.yul\":2728:2731   */\n      dup3\n        /* \"#utility.yul\":2721:2758   */\n      mstore\n        /* \"#utility.yul\":2646:2764   */\n      pop\n      pop\n      jump\t// out\n        /* \"#utility.yul\":2770:2992   */\n    tag_54:\n        /* \"#utility.yul\":2863:2867   */\n      0x00\n        /* \"#utility.yul\":2901:2903   */\n      0x20\n        /* \"#utility.yul\":2890:2899   */\n      dup3\n        /* \"#utility.yul\":2886:2904   */\n      add\n        /* \"#utility.yul\":2878:2904   */\n      swap1\n      pop\n        /* \"#utility.yul\":2914:2985   */\n      tag_349\n        /* \"#utility.yul\":2982:2983   */\n      0x00\n        /* \"#utility.yul\":2971:2980   */\n      dup4\n        /* \"#utility.yul\":2967:2984   */\n      add\n        /* \"#utility.yul\":2958:2964   */\n      dup5\n        /* \"#utility.yul\":2914:2985   */\n      tag_275\n      jump\t// in\n    tag_349:\n        /* \"#utility.yul\":2770:2992   */\n      swap3\n      swap2\n      pop\n      pop\n      jump\t// out\n        /* \"#utility.yul\":2998:3112   */\n    tag_276:\n        /* \"#utility.yul\":3065:3071   */\n      0x00\n        /* \"#utility.yul\":3099:3104   */\n      dup2\n        /* \"#utility.yul\":3093:3105   */\n      mload\n        /* \"#utility.yul\":3083:3105   */\n      swap1\n      pop\n        /* \"#utility.yul\":2998:3112   */\n      swap2\n      swap1\n      pop\n      jump\t// out\n        /* \"#utility.yul\":3118:3302   */\n    tag_277:\n        /* \"#utility.yul\":3217:3228   */\n      0x00\n        /* \"#utility.yul\":3251:3257   */\n      dup3\n        /* \"#utility.yul\":3246:3249   */\n      dup3\n        /* \"#utility.yul\":3239:3258   */\n      mstore\n        /* \"#utility.yul\":3291:3295   */\n      0x20\n        /* \"#utility.yul\":3286:3289   */\n      dup3\n        /* \"#utility.yul\":3282:3296   */\n      add\n        /* \"#utility.yul\":3267:3296   */\n      swap1\n      pop\n        /* \"#utility.yul\":3118:3302   */\n      swap3\n      swap2\n      pop\n      pop\n      jump\t// out\n        /* \"#utility.yul\":3308:3440   */\n    tag_278:\n        /* \"#utility.yul\":3375:3379   */\n      0x00\n        /* \"#utility.yul\":3398:3401   */\n      dup2\n        /* \"#utility.yul\":3390:3401   */\n      swap1\n      pop\n        /* \"#utility.yul\":3428:3432   */\n      0x20\n        /* \"#utility.yul\":3423:3426   */\n      dup3\n        /* \"#utility.yul\":3419:3433   */\n      add\n        /* \"#utility.yul\":3411:3433   */\n      swap1\n      pop\n        /* \"#utility.yul\":3308:3440   */\n      swap2\n      swap1\n      pop\n      jump\t// out\n        /* \"#utility.yul\":3446:3554   */\n    tag_279:\n        /* \"#utility.yul\":3523:3547   */\n      tag_354\n        /* \"#utility.yul\":3541:3546   */\n      dup2\n        /* \"#utility.yul\":3523:3547   */\n      tag_266\n      jump\t// in\n    tag_354:\n        /* \"#utility.yul\":3518:3521   */\n      dup3\n        /* \"#utility.yul\":3511:3548   */\n      mstore\n        /* \"#utility.yul\":3446:3554   */\n      pop\n      pop\n      jump\t// out\n        /* \"#utility.yul\":3560:3739   */\n    tag_280:\n        /* \"#utility.yul\":3629:3639   */\n      0x00\n        /* \"#utility.yul\":3650:3696   */\n      tag_356\n        /* \"#utility.yul\":3692:3695   */\n      dup4\n        /* \"#utility.yul\":3684:3690   */\n      dup4\n        /* \"#utility.yul\":3650:3696   */\n      tag_279\n      jump\t// in\n    tag_356:\n        /* \"#utility.yul\":3728:3732   */\n      0x20\n        /* \"#utility.yul\":3723:3726   */\n      dup4\n        /* \"#utility.yul\":3719:3733   */\n      add\n        /* \"#utility.yul\":3705:3733   */\n      swap1\n      pop\n        /* \"#utility.yul\":3560:3739   */\n      swap3\n      swap2\n      pop\n      pop\n      jump\t// out\n        /* \"#utility.yul\":3745:3858   */\n    tag_281:\n        /* \"#utility.yul\":3815:3819   */\n      0x00\n        /* \"#utility.yul\":3847:3851   */\n      0x20\n        /* \"#utility.yul\":3842:3845   */\n      dup3\n        /* \"#utility.yul\":3838:3852   */\n      add\n        /* \"#utility.yul\":3830:3852   */\n      swap1\n      pop\n        /* \"#utility.yul\":3745:3858   */\n      swap2\n      swap1\n      pop\n      jump\t// out\n        /* \"#utility.yul\":3894:4626   */\n    tag_282:\n        /* \"#utility.yul\":4013:4016   */\n      0x00\n        /* \"#utility.yul\":4042:4096   */\n      tag_359\n        /* \"#utility.yul\":4090:4095   */\n      dup3\n        /* \"#utility.yul\":4042:4096   */\n      tag_276\n      jump\t// in\n    tag_359:\n        /* \"#utility.yul\":4112:4198   */\n      tag_360\n        /* \"#utility.yul\":4191:4197   */\n      dup2\n        /* \"#utility.yul\":4186:4189   */\n      dup6\n        /* \"#utility.yul\":4112:4198   */\n      tag_277\n      jump\t// in\n    tag_360:\n        /* \"#utility.yul\":4105:4198   */\n      swap4\n      pop\n        /* \"#utility.yul\":4222:4278   */\n      tag_361\n        /* \"#utility.yul\":4272:4277   */\n      dup4\n        /* \"#utility.yul\":4222:4278   */\n      tag_278\n      jump\t// in\n    tag_361:\n        /* \"#utility.yul\":4301:4308   */\n      dup1\n        /* \"#utility.yul\":4332:4333   */\n      0x00\n        /* \"#utility.yul\":4317:4601   */\n    tag_362:\n        /* \"#utility.yul\":4342:4348   */\n      dup4\n        /* \"#utility.yul\":4339:4340   */\n      dup2\n        /* \"#utility.yul\":4336:4349   */\n      lt\n        /* \"#utility.yul\":4317:4601   */\n      iszero\n      tag_364\n      jumpi\n        /* \"#utility.yul\":4418:4424   */\n      dup2\n        /* \"#utility.yul\":4412:4425   */\n      mload\n        /* \"#utility.yul\":4445:4508   */\n      tag_365\n        /* \"#utility.yul\":4504:4507   */\n      dup9\n        /* \"#utility.yul\":4489:4502   */\n      dup3\n        /* \"#utility.yul\":4445:4508   */\n      tag_280\n      jump\t// in\n    tag_365:\n        /* \"#utility.yul\":4438:4508   */\n      swap8\n      pop\n        /* \"#utility.yul\":4531:4591   */\n      tag_366\n        /* \"#utility.yul\":4584:4590   */\n      dup4\n        /* \"#utility.yul\":4531:4591   */\n      tag_281\n      jump\t// in\n    tag_366:\n        /* \"#utility.yul\":4521:4591   */\n      swap3\n      pop\n        /* \"#utility.yul\":4377:4601   */\n      pop\n        /* \"#utility.yul\":4364:4365   */\n      0x01\n        /* \"#utility.yul\":4361:4362   */\n      dup2\n        /* \"#utility.yul\":4357:4366   */\n      add\n        /* \"#utility.yul\":4352:4366   */\n      swap1\n      pop\n        /* \"#utility.yul\":4317:4601   */\n      jump(tag_362)\n    tag_364:\n        /* \"#utility.yul\":4321:4335   */\n      pop\n        /* \"#utility.yul\":4617:4620   */\n      dup6\n        /* \"#utility.yul\":4610:4620   */\n      swap4\n      pop\n        /* \"#utility.yul\":4018:4626   */\n      pop\n      pop\n      pop\n        /* \"#utility.yul\":3894:4626   */\n      swap3\n      swap2\n      pop\n      pop\n      jump\t// out\n        /* \"#utility.yul\":4632:4746   */\n    tag_283:\n        /* \"#utility.yul\":4699:4705   */\n      0x00\n        /* \"#utility.yul\":4733:4738   */\n      dup2\n        /* \"#utility.yul\":4727:4739   */\n      mload\n        /* \"#utility.yul\":4717:4739   */\n      swap1\n      pop\n        /* \"#utility.yul\":4632:4746   */\n      swap2\n      swap1\n      pop\n      jump\t// out\n        /* \"#utility.yul\":4752:4936   */\n    tag_284:\n        /* \"#utility.yul\":4851:4862   */\n      0x00\n        /* \"#utility.yul\":4885:4891   */\n      dup3\n        /* \"#utility.yul\":4880:4883   */\n      dup3\n        /* \"#utility.yul\":4873:4892   */\n      mstore\n        /* \"#utility.yul\":4925:4929   */\n      0x20\n        /* \"#utility.yul\":4920:4923   */\n      dup3\n        /* \"#utility.yul\":4916:4930   */\n      add\n        /* \"#utility.yul\":4901:4930   */\n      swap1\n      pop\n        /* \"#utility.yul\":4752:4936   */\n      swap3\n      swap2\n      pop\n      pop\n      jump\t// out\n        /* \"#utility.yul\":4942:5074   */\n    tag_285:\n        /* \"#utility.yul\":5009:5013   */\n      0x00\n        /* \"#utility.yul\":5032:5035   */\n      dup2\n        /* \"#utility.yul\":5024:5035   */\n      swap1\n      pop\n        /* \"#utility.yul\":5062:5066   */\n      0x20\n        /* \"#utility.yul\":5057:5060   */\n      dup3\n        /* \"#utility.yul\":5053:5067   */\n      add\n        /* \"#utility.yul\":5045:5067   */\n      swap1\n      pop\n        /* \"#utility.yul\":4942:5074   */\n      swap2\n      swap1\n      pop\n      jump\t// out\n        /* \"#utility.yul\":5080:5188   */\n    tag_286:\n        /* \"#utility.yul\":5157:5181   */\n      tag_371\n        /* \"#utility.yul\":5175:5180   */\n      dup2\n        /* \"#utility.yul\":5157:5181   */\n      tag_271\n      jump\t// in\n    tag_371:\n        /* \"#utility.yul\":5152:5155   */\n      dup3\n        /* \"#utility.yul\":5145:5182   */\n      mstore\n        /* \"#utility.yul\":5080:5188   */\n      pop\n      pop\n      jump\t// out\n        /* \"#utility.yul\":5194:5373   */\n    tag_287:\n        /* \"#utility.yul\":5263:5273   */\n      0x00\n        /* \"#utility.yul\":5284:5330   */\n      tag_373\n        /* \"#utility.yul\":5326:5329   */\n      dup4\n        /* \"#utility.yul\":5318:5324   */\n      dup4\n        /* \"#utility.yul\":5284:5330   */\n      tag_286\n      jump\t// in\n    tag_373:\n        /* \"#utility.yul\":5362:5366   */\n      0x20\n        /* \"#utility.yul\":5357:5360   */\n      dup4\n        /* \"#utility.yul\":5353:5367   */\n      add\n        /* \"#utility.yul\":5339:5367   */\n      swap1\n      pop\n        /* \"#utility.yul\":5194:5373   */\n      swap3\n      swap2\n      pop\n      pop\n      jump\t// out\n        /* \"#utility.yul\":5379:5492   */\n    tag_288:\n        /* \"#utility.yul\":5449:5453   */\n      0x00\n        /* \"#utility.yul\":5481:5485   */\n      0x20\n        /* \"#utility.yul\":5476:5479   */\n      dup3\n        /* \"#utility.yul\":5472:5486   */\n      add\n        /* \"#utility.yul\":5464:5486   */\n      swap1\n      pop\n        /* \"#utility.yul\":5379:5492   */\n      swap2\n      swap1\n      pop\n      jump\t// out\n        /* \"#utility.yul\":5528:6260   */\n    tag_289:\n        /* \"#utility.yul\":5647:5650   */\n      0x00\n        /* \"#utility.yul\":5676:5730   */\n      tag_376\n        /* \"#utility.yul\":5724:5729   */\n      dup3\n        /* \"#utility.yul\":5676:5730   */\n      tag_283\n      jump\t// in\n    tag_376:\n        /* \"#utility.yul\":5746:5832   */\n      tag_377\n        /* \"#utility.yul\":5825:5831   */\n      dup2\n        /* \"#utility.yul\":5820:5823   */\n      dup6\n        /* \"#utility.yul\":5746:5832   */\n      tag_284\n      jump\t// in\n    tag_377:\n        /* \"#utility.yul\":5739:5832   */\n      swap4\n      pop\n        /* \"#utility.yul\":5856:5912   */\n      tag_378\n        /* \"#utility.yul\":5906:5911   */\n      dup4\n        /* \"#utility.yul\":5856:5912   */\n      tag_285\n      jump\t// in\n    tag_378:\n        /* \"#utility.yul\":5935:5942   */\n      dup1\n        /* \"#utility.yul\":5966:5967   */\n      0x00\n        /* \"#utility.yul\":5951:6235   */\n    tag_379:\n        /* \"#utility.yul\":5976:5982   */\n      dup4\n        /* \"#utility.yul\":5973:5974   */\n      dup2\n        /* \"#utility.yul\":5970:5983   */\n      lt\n        /* \"#utility.yul\":5951:6235   */\n      iszero\n      tag_381\n      jumpi\n        /* \"#utility.yul\":6052:6058   */\n      dup2\n        /* \"#utility.yul\":6046:6059   */\n      mload\n        /* \"#utility.yul\":6079:6142   */\n      tag_382\n        /* \"#utility.yul\":6138:6141   */\n      dup9\n        /* \"#utility.yul\":6123:6136   */\n      dup3\n        /* \"#utility.yul\":6079:6142   */\n      tag_287\n      jump\t// in\n    tag_382:\n        /* \"#utility.yul\":6072:6142   */\n      swap8\n      pop\n        /* \"#utility.yul\":6165:6225   */\n      tag_383\n        /* \"#utility.yul\":6218:6224   */\n      dup4\n        /* \"#utility.yul\":6165:6225   */\n      tag_288\n      jump\t// in\n    tag_383:\n        /* \"#utility.yul\":6155:6225   */\n      swap3\n      pop\n        /* \"#utility.yul\":6011:6235   */\n      pop\n        /* \"#utility.yul\":5998:5999   */\n      0x01\n        /* \"#utility.yul\":5995:5996   */\n      dup2\n        /* \"#utility.yul\":5991:6000   */\n      add\n        /* \"#utility.yul\":5986:6000   */\n      swap1\n      pop\n        /* \"#utility.yul\":5951:6235   */\n      jump(tag_379)\n    tag_381:\n        /* \"#utility.yul\":5955:5969   */\n      pop\n        /* \"#utility.yul\":6251:6254   */\n      dup6\n        /* \"#utility.yul\":6244:6254   */\n      swap4\n      pop\n        /* \"#utility.yul\":5652:6260   */\n      pop\n      pop\n      pop\n        /* \"#utility.yul\":5528:6260   */\n      swap3\n      swap2\n      pop\n      pop\n      jump\t// out\n        /* \"#utility.yul\":6266:6900   */\n    tag_59:\n        /* \"#utility.yul\":6487:6491   */\n      0x00\n        /* \"#utility.yul\":6525:6527   */\n      0x40\n        /* \"#utility.yul\":6514:6523   */\n      dup3\n        /* \"#utility.yul\":6510:6528   */\n      add\n        /* \"#utility.yul\":6502:6528   */\n      swap1\n      pop\n        /* \"#utility.yul\":6574:6583   */\n      dup2\n        /* \"#utility.yul\":6568:6572   */\n      dup2\n        /* \"#utility.yul\":6564:6584   */\n      sub\n        /* \"#utility.yul\":6560:6561   */\n      0x00\n        /* \"#utility.yul\":6549:6558   */\n      dup4\n        /* \"#utility.yul\":6545:6562   */\n      add\n        /* \"#utility.yul\":6538:6585   */\n      mstore\n        /* \"#utility.yul\":6602:6710   */\n      tag_385\n        /* \"#utility.yul\":6705:6709   */\n      dup2\n        /* \"#utility.yul\":6696:6702   */\n      dup6\n        /* \"#utility.yul\":6602:6710   */\n      tag_282\n      jump\t// in\n    tag_385:\n        /* \"#utility.yul\":6594:6710   */\n      swap1\n      pop\n        /* \"#utility.yul\":6757:6766   */\n      dup2\n        /* \"#utility.yul\":6751:6755   */\n      dup2\n        /* \"#utility.yul\":6747:6767   */\n      sub\n        /* \"#utility.yul\":6742:6744   */\n      0x20\n        /* \"#utility.yul\":6731:6740   */\n      dup4\n        /* \"#utility.yul\":6727:6745   */\n      add\n        /* \"#utility.yul\":6720:6768   */\n      mstore\n        /* \"#utility.yul\":6785:6893   */\n      tag_386\n        /* \"#utility.yul\":6888:6892   */\n      dup2\n        /* \"#utility.yul\":6879:6885   */\n      dup5\n        /* \"#utility.yul\":6785:6893   */\n      tag_289\n      jump\t// in\n    tag_386:\n        /* \"#utility.yul\":6777:6893   */\n      swap1\n      pop\n        /* \"#utility.yul\":6266:6900   */\n      swap4\n      swap3\n      pop\n      pop\n      pop\n      jump\t// out\n        /* \"#utility.yul\":6906:7558   */\n    tag_75:\n        /* \"#utility.yul\":7105:7109   */\n      0x00\n        /* \"#utility.yul\":7143:7146   */\n      0xa0\n        /* \"#utility.yul\":7132:7141   */\n      dup3\n        /* \"#utility.yul\":7128:7147   */\n      add\n        /* \"#utility.yul\":7120:7147   */\n      swap1\n      pop\n        /* \"#utility.yul\":7157:7228   */\n      tag_388\n        /* \"#utility.yul\":7225:7226   */\n      0x00\n        /* \"#utility.yul\":7214:7223   */\n      dup4\n        /* \"#utility.yul\":7210:7227   */\n      add\n        /* \"#utility.yul\":7201:7207   */\n      dup9\n        /* \"#utility.yul\":7157:7228   */\n      tag_275\n      jump\t// in\n    tag_388:\n        /* \"#utility.yul\":7238:7310   */\n      tag_389\n        /* \"#utility.yul\":7306:7308   */\n      0x20\n        /* \"#utility.yul\":7295:7304   */\n      dup4\n        /* \"#utility.yul\":7291:7309   */\n      add\n        /* \"#utility.yul\":7282:7288   */\n      dup8\n        /* \"#utility.yul\":7238:7310   */\n      tag_272\n      jump\t// in\n    tag_389:\n        /* \"#utility.yul\":7320:7392   */\n      tag_390\n        /* \"#utility.yul\":7388:7390   */\n      0x40\n        /* \"#utility.yul\":7377:7386   */\n      dup4\n        /* \"#utility.yul\":7373:7391   */\n      add\n        /* \"#utility.yul\":7364:7370   */\n      dup7\n        /* \"#utility.yul\":7320:7392   */\n      tag_272\n      jump\t// in\n    tag_390:\n        /* \"#utility.yul\":7402:7474   */\n      tag_391\n        /* \"#utility.yul\":7470:7472   */\n      0x60\n        /* \"#utility.yul\":7459:7468   */\n      dup4\n        /* \"#utility.yul\":7455:7473   */\n      add\n        /* \"#utility.yul\":7446:7452   */\n      dup6\n        /* \"#utility.yul\":7402:7474   */\n      tag_272\n      jump\t// in\n    tag_391:\n        /* \"#utility.yul\":7484:7551   */\n      tag_392\n        /* \"#utility.yul\":7546:7549   */\n      0x80\n        /* \"#utility.yul\":7535:7544   */\n      dup4\n        /* \"#utility.yul\":7531:7550   */\n      add\n        /* \"#utility.yul\":7522:7528   */\n      dup5\n        /* \"#utility.yul\":7484:7551   */\n      tag_270\n      jump\t// in\n    tag_392:\n        /* \"#utility.yul\":6906:7558   */\n      swap7\n      swap6\n      pop\n      pop\n      pop\n      pop\n      pop\n      pop\n      jump\t// out\n        /* \"#utility.yul\":7564:7937   */\n    tag_84:\n        /* \"#utility.yul\":7707:7711   */\n      0x00\n        /* \"#utility.yul\":7745:7747   */\n      0x20\n        /* \"#utility.yul\":7734:7743   */\n      dup3\n        /* \"#utility.yul\":7730:7748   */\n      add\n        /* \"#utility.yul\":7722:7748   */\n      swap1\n      pop\n        /* \"#utility.yul\":7794:7803   */\n      dup2\n        /* \"#utility.yul\":7788:7792   */\n      dup2\n        /* \"#utility.yul\":7784:7804   */\n      sub\n        /* \"#utility.yul\":7780:7781   */\n      0x00\n        /* \"#utility.yul\":7769:7778   */\n      dup4\n        /* \"#utility.yul\":7765:7782   */\n      add\n        /* \"#utility.yul\":7758:7805   */\n      mstore\n        /* \"#utility.yul\":7822:7930   */\n      tag_394\n        /* \"#utility.yul\":7925:7929   */\n      dup2\n        /* \"#utility.yul\":7916:7922   */\n      dup5\n        /* \"#utility.yul\":7822:7930   */\n      tag_282\n      jump\t// in\n    tag_394:\n        /* \"#utility.yul\":7814:7930   */\n      swap1\n      pop\n        /* \"#utility.yul\":7564:7937   */\n      swap3\n      swap2\n      pop\n      pop\n      jump\t// out\n        /* \"#utility.yul\":7943:8417   */\n    tag_111:\n        /* \"#utility.yul\":8011:8017   */\n      0x00\n        /* \"#utility.yul\":8019:8025   */\n      0x00\n        /* \"#utility.yul\":8068:8070   */\n      0x40\n        /* \"#utility.yul\":8056:8065   */\n      dup4\n        /* \"#utility.yul\":8047:8054   */\n      dup6\n        /* \"#utility.yul\":8043:8066   */\n      sub\n        /* \"#utility.yul\":8039:8071   */\n      slt\n        /* \"#utility.yul\":8036:8155   */\n      iszero\n      tag_396\n      jumpi\n        /* \"#utility.yul\":8074:8153   */\n      tag_397\n      tag_263\n      jump\t// in\n    tag_397:\n        /* \"#utility.yul\":8036:8155   */\n    tag_396:\n        /* \"#utility.yul\":8194:8195   */\n      0x00\n        /* \"#utility.yul\":8219:8272   */\n      tag_398\n        /* \"#utility.yul\":8264:8271   */\n      dup6\n        /* \"#utility.yul\":8255:8261   */\n      dup3\n        /* \"#utility.yul\":8244:8253   */\n      dup7\n        /* \"#utility.yul\":8240:8262   */\n      add\n        /* \"#utility.yul\":8219:8272   */\n      tag_274\n      jump\t// in\n    tag_398:\n        /* \"#utility.yul\":8209:8272   */\n      swap3\n      pop\n        /* \"#utility.yul\":8165:8282   */\n      pop\n        /* \"#utility.yul\":8321:8323   */\n      0x20\n        /* \"#utility.yul\":8347:8400   */\n      tag_399\n        /* \"#utility.yul\":8392:8399   */\n      dup6\n        /* \"#utility.yul\":8383:8389   */\n      dup3\n        /* \"#utility.yul\":8372:8381   */\n      dup7\n        /* \"#utility.yul\":8368:8390   */\n      add\n        /* \"#utility.yul\":8347:8400   */\n      tag_274\n      jump\t// in\n    tag_399:\n        /* \"#utility.yul\":8337:8400   */\n      swap2\n      pop\n        /* \"#utility.yul\":8292:8410   */\n      pop\n        /* \"#utility.yul\":7943:8417   */\n      swap3\n      pop\n      swap3\n      swap1\n      pop\n      jump\t// out\n        /* \"#utility.yul\":8423:8592   */\n    tag_290:\n        /* \"#utility.yul\":8507:8518   */\n      0x00\n        /* \"#utility.yul\":8541:8547   */\n      dup3\n        /* \"#utility.yul\":8536:8539   */\n      dup3\n        /* \"#utility.yul\":8529:8548   */\n      mstore\n        /* \"#utility.yul\":8581:8585   */\n      0x20\n        /* \"#utility.yul\":8576:8579   */\n      dup3\n        /* \"#utility.yul\":8572:8586   */\n      add\n        /* \"#utility.yul\":8557:8586   */\n      swap1\n      pop\n        /* \"#utility.yul\":8423:8592   */\n      swap3\n      swap2\n      pop\n      pop\n      jump\t// out\n        /* \"#utility.yul\":8598:8777   */\n    tag_291:\n        /* \"#utility.yul\":8738:8769   */\n      0x446f6e6174696f6e20706572696f64206973206e6f7420616374697665000000\n        /* \"#utility.yul\":8734:8735   */\n      0x00\n        /* \"#utility.yul\":8726:8732   */\n      dup3\n        /* \"#utility.yul\":8722:8736   */\n      add\n        /* \"#utility.yul\":8715:8770   */\n      mstore\n        /* \"#utility.yul\":8598:8777   */\n      pop\n      jump\t// out\n        /* \"#utility.yul\":8783:9149   */\n    tag_292:\n        /* \"#utility.yul\":8925:8928   */\n      0x00\n        /* \"#utility.yul\":8946:9013   */\n      tag_403\n        /* \"#utility.yul\":9010:9012   */\n      0x1d\n        /* \"#utility.yul\":9005:9008   */\n      dup4\n        /* \"#utility.yul\":8946:9013   */\n      tag_290\n      jump\t// in\n    tag_403:\n        /* \"#utility.yul\":8939:9013   */\n      swap2\n      pop\n        /* \"#utility.yul\":9022:9115   */\n      tag_404\n        /* \"#utility.yul\":9111:9114   */\n      dup3\n        /* \"#utility.yul\":9022:9115   */\n      tag_291\n      jump\t// in\n    tag_404:\n        /* \"#utility.yul\":9140:9142   */\n      0x20\n        /* \"#utility.yul\":9135:9138   */\n      dup3\n        /* \"#utility.yul\":9131:9143   */\n      add\n        /* \"#utility.yul\":9124:9143   */\n      swap1\n      pop\n        /* \"#utility.yul\":8783:9149   */\n      swap2\n      swap1\n      pop\n      jump\t// out\n        /* \"#utility.yul\":9155:9574   */\n    tag_118:\n        /* \"#utility.yul\":9321:9325   */\n      0x00\n        /* \"#utility.yul\":9359:9361   */\n      0x20\n        /* \"#utility.yul\":9348:9357   */\n      dup3\n        /* \"#utility.yul\":9344:9362   */\n      add\n        /* \"#utility.yul\":9336:9362   */\n      swap1\n      pop\n        /* \"#utility.yul\":9408:9417   */\n      dup2\n        /* \"#utility.yul\":9402:9406   */\n      dup2\n        /* \"#utility.yul\":9398:9418   */\n      sub\n        /* \"#utility.yul\":9394:9395   */\n      0x00\n        /* \"#utility.yul\":9383:9392   */\n      dup4\n        /* \"#utility.yul\":9379:9396   */\n      add\n        /* \"#utility.yul\":9372:9419   */\n      mstore\n        /* \"#utility.yul\":9436:9567   */\n      tag_406\n        /* \"#utility.yul\":9562:9566   */\n      dup2\n        /* \"#utility.yul\":9436:9567   */\n      tag_292\n      jump\t// in\n    tag_406:\n        /* \"#utility.yul\":9428:9567   */\n      swap1\n      pop\n        /* \"#utility.yul\":9155:9574   */\n      swap2\n      swap1\n      pop\n      jump\t// out\n        /* \"#utility.yul\":9580:9805   */\n    tag_293:\n        /* \"#utility.yul\":9720:9754   */\n      0x446f6e6174696f6e20616d6f756e74206d757374206265206772656174657220\n        /* \"#utility.yul\":9716:9717   */\n      0x00\n        /* \"#utility.yul\":9708:9714   */\n      dup3\n        /* \"#utility.yul\":9704:9718   */\n      add\n        /* \"#utility.yul\":9697:9755   */\n      mstore\n        /* \"#utility.yul\":9789:9797   */\n      0x7468616e20300000000000000000000000000000000000000000000000000000\n        /* \"#utility.yul\":9784:9786   */\n      0x20\n        /* \"#utility.yul\":9776:9782   */\n      dup3\n        /* \"#utility.yul\":9772:9787   */\n      add\n        /* \"#utility.yul\":9765:9798   */\n      mstore\n        /* \"#utility.yul\":9580:9805   */\n      pop\n      jump\t// out\n        /* \"#utility.yul\":9811:10177   */\n    tag_294:\n        /* \"#utility.yul\":9953:9956   */\n      0x00\n        /* \"#utility.yul\":9974:10041   */\n      tag_409\n        /* \"#utility.yul\":10038:10040   */\n      0x26\n        /* \"#utility.yul\":10033:10036   */\n      dup4\n        /* \"#utility.yul\":9974:10041   */\n      tag_290\n      jump\t// in\n    tag_409:\n        /* \"#utility.yul\":9967:10041   */\n      swap2\n      pop\n        /* \"#utility.yul\":10050:10143   */\n      tag_410\n        /* \"#utility.yul\":10139:10142   */\n      dup3\n        /* \"#utility.yul\":10050:10143   */\n      tag_293\n      jump\t// in\n    tag_410:\n        /* \"#utility.yul\":10168:10170   */\n      0x40\n        /* \"#utility.yul\":10163:10166   */\n      dup3\n        /* \"#utility.yul\":10159:10171   */\n      add\n        /* \"#utility.yul\":10152:10171   */\n      swap1\n      pop\n        /* \"#utility.yul\":9811:10177   */\n      swap2\n      swap1\n      pop\n      jump\t// out\n        /* \"#utility.yul\":10183:10602   */\n    tag_122:\n        /* \"#utility.yul\":10349:10353   */\n      0x00\n        /* \"#utility.yul\":10387:10389   */\n      0x20\n        /* \"#utility.yul\":10376:10385   */\n      dup3\n        /* \"#utility.yul\":10372:10390   */\n      add\n        /* \"#utility.yul\":10364:10390   */\n      swap1\n      pop\n        /* \"#utility.yul\":10436:10445   */\n      dup2\n        /* \"#utility.yul\":10430:10434   */\n      dup2\n        /* \"#utility.yul\":10426:10446   */\n      sub\n        /* \"#utility.yul\":10422:10423   */\n      0x00\n        /* \"#utility.yul\":10411:10420   */\n      dup4\n        /* \"#utility.yul\":10407:10424   */\n      add\n        /* \"#utility.yul\":10400:10447   */\n      mstore\n        /* \"#utility.yul\":10464:10595   */\n      tag_412\n        /* \"#utility.yul\":10590:10594   */\n      dup2\n        /* \"#utility.yul\":10464:10595   */\n      tag_294\n      jump\t// in\n    tag_412:\n        /* \"#utility.yul\":10456:10595   */\n      swap1\n      pop\n        /* \"#utility.yul\":10183:10602   */\n      swap2\n      swap1\n      pop\n      jump\t// out\n        /* \"#utility.yul\":10608:10788   */\n    tag_295:\n        /* \"#utility.yul\":10656:10733   */\n      0x4e487b7100000000000000000000000000000000000000000000000000000000\n        /* \"#utility.yul\":10653:10654   */\n      0x00\n        /* \"#utility.yul\":10646:10734   */\n      mstore\n        /* \"#utility.yul\":10753:10757   */\n      0x11\n        /* \"#utility.yul\":10750:10751   */\n      0x04\n        /* \"#utility.yul\":10743:10758   */\n      mstore\n        /* \"#utility.yul\":10777:10781   */\n      0x24\n        /* \"#utility.yul\":10774:10775   */\n      0x00\n        /* \"#utility.yul\":10767:10782   */\n      revert\n        /* \"#utility.yul\":10794:11027   */\n    tag_126:\n        /* \"#utility.yul\":10833:10836   */\n      0x00\n        /* \"#utility.yul\":10856:10880   */\n      tag_415\n        /* \"#utility.yul\":10874:10879   */\n      dup3\n        /* \"#utility.yul\":10856:10880   */\n      tag_271\n      jump\t// in\n    tag_415:\n        /* \"#utility.yul\":10847:10880   */\n      swap2\n      pop\n        /* \"#utility.yul\":10902:10968   */\n      0xffffffffffffffffffffffffffffffffffffffffffffffffffffffffffffffff\n        /* \"#utility.yul\":10895:10900   */\n      dup3\n        /* \"#utility.yul\":10892:10969   */\n      sub\n        /* \"#utility.yul\":10889:10992   */\n      tag_416\n      jumpi\n        /* \"#utility.yul\":10972:10990   */\n      tag_417\n      tag_295\n      jump\t// in\n    tag_417:\n        /* \"#utility.yul\":10889:10992   */\n    tag_416:\n        /* \"#utility.yul\":11019:11020   */\n      0x01\n        /* \"#utility.yul\":11012:11017   */\n      dup3\n        /* \"#utility.yul\":11008:11021   */\n      add\n        /* \"#utility.yul\":11001:11021   */\n      swap1\n      pop\n        /* \"#utility.yul\":10794:11027   */\n      swap2\n      swap1\n      pop\n      jump\t// out\n        /* \"#utility.yul\":11033:11224   */\n    tag_128:\n        /* \"#utility.yul\":11073:11076   */\n      0x00\n        /* \"#utility.yul\":11092:11112   */\n      tag_419\n        /* \"#utility.yul\":11110:11111   */\n      dup3\n        /* \"#utility.yul\":11092:11112   */\n      tag_271\n      jump\t// in\n    tag_419:\n        /* \"#utility.yul\":11087:11112   */\n      swap2\n      pop\n        /* \"#utility.yul\":11126:11146   */\n      tag_420\n        /* \"#utility.yul\":11144:11145   */\n      dup4\n        /* \"#utility.yul\":11126:11146   */\n      tag_271\n      jump\t// in\n    tag_420:\n        /* \"#utility.yul\":11121:11146   */\n      swap3\n      pop\n        /* \"#utility.yul\":11169:11170   */\n      dup3\n        /* \"#utility.yul\":11166:11167   */\n      dup3\n        /* \"#utility.yul\":11162:11171   */\n      add\n        /* \"#utility.yul\":11155:11171   */\n      swap1\n      pop\n        /* \"#utility.yul\":11190:11193   */\n      dup1\n        /* \"#utility.yul\":11187:11188   */\n      dup3\n        /* \"#utility.yul\":11184:11194   */\n      gt\n        /* \"#utility.yul\":11181:11217   */\n      iszero\n      tag_421\n      jumpi\n        /* \"#utility.yul\":11197:11215   */\n      tag_422\n      tag_295\n      jump\t// in\n    tag_422:\n        /* \"#utility.yul\":11181:11217   */\n    tag_421:\n        /* \"#utility.yul\":11033:11224   */\n      swap3\n      swap2\n      pop\n      pop\n      jump\t// out\n        /* \"#utility.yul\":11230:11562   */\n    tag_131:\n        /* \"#utility.yul\":11351:11355   */\n      0x00\n        /* \"#utility.yul\":11389:11391   */\n      0x40\n        /* \"#utility.yul\":11378:11387   */\n      dup3\n        /* \"#utility.yul\":11374:11392   */\n      add\n        /* \"#utility.yul\":11366:11392   */\n      swap1\n      pop\n        /* \"#utility.yul\":11402:11473   */\n      tag_424\n        /* \"#utility.yul\":11470:11471   */\n      0x00\n        /* \"#utility.yul\":11459:11468   */\n      dup4\n        /* \"#utility.yul\":11455:11472   */\n      add\n        /* \"#utility.yul\":11446:11452   */\n      dup6\n        /* \"#utility.yul\":11402:11473   */\n      tag_272\n      jump\t// in\n    tag_424:\n        /* \"#utility.yul\":11483:11555   */\n      tag_425\n        /* \"#utility.yul\":11551:11553   */\n      0x20\n        /* \"#utility.yul\":11540:11549   */\n      dup4\n        /* \"#utility.yul\":11536:11554   */\n      add\n        /* \"#utility.yul\":11527:11533   */\n      dup5\n        /* \"#utility.yul\":11483:11555   */\n      tag_272\n      jump\t// in\n    tag_425:\n        /* \"#utility.yul\":11230:11562   */\n      swap4\n      swap3\n      pop\n      pop\n      pop\n      jump\t// out\n        /* \"#utility.yul\":11568:11788   */\n    tag_296:\n        /* \"#utility.yul\":11708:11742   */\n      0x4f6e6c79206f776e65722063616e2063616c6c20746869732066756e6374696f\n        /* \"#utility.yul\":11704:11705   */\n      0x00\n        /* \"#utility.yul\":11696:11702   */\n      dup3\n        /* \"#utility.yul\":11692:11706   */\n      add\n        /* \"#utility.yul\":11685:11743   */\n      mstore\n        /* \"#utility.yul\":11777:11780   */\n      0x6e00000000000000000000000000000000000000000000000000000000000000\n        /* \"#utility.yul\":11772:11774   */\n      0x20\n        /* \"#utility.yul\":11764:11770   */\n      dup3\n        /* \"#utility.yul\":11760:11775   */\n      add\n        /* \"#utility.yul\":11753:11781   */\n      mstore\n        /* \"#utility.yul\":11568:11788   */\n      pop\n      jump\t// out\n        /* \"#utility.yul\":11794:12160   */\n    tag_297:\n        /* \"#utility.yul\":11936:11939   */\n      0x00\n        /* \"#utility.yul\":11957:12024   */\n      tag_428\n        /* \"#utility.yul\":12021:12023   */\n      0x21\n        /* \"#utility.yul\":12016:12019   */\n      dup4\n        /* \"#utility.yul\":11957:12024   */\n      tag_290\n      jump\t// in\n    tag_428:\n        /* \"#utility.yul\":11950:12024   */\n      swap2\n      pop\n        /* \"#utility.yul\":12033:12126   */\n      tag_429\n        /* \"#utility.yul\":12122:12125   */\n      dup3\n        /* \"#utility.yul\":12033:12126   */\n      tag_296\n      jump\t// in\n    tag_429:\n        /* \"#utility.yul\":12151:12153   */\n      0x40\n        /* \"#utility.yul\":12146:12149   */\n      dup3\n        /* \"#utility.yul\":12142:12154   */\n      add\n        /* \"#utility.yul\":12135:12154   */\n      swap1\n      pop\n        /* \"#utility.yul\":11794:12160   */\n      swap2\n      swap1\n      pop\n      jump\t// out\n        /* \"#utility.yul\":12166:12585   */\n    tag_135:\n        /* \"#utility.yul\":12332:12336   */\n      0x00\n        /* \"#utility.yul\":12370:12372   */\n      0x20\n        /* \"#utility.yul\":12359:12368   */\n      dup3\n        /* \"#utility.yul\":12355:12373   */\n      add\n        /* \"#utility.yul\":12347:12373   */\n      swap1\n      pop\n        /* \"#utility.yul\":12419:12428   */\n      dup2\n        /* \"#utility.yul\":12413:12417   */\n      dup2\n        /* \"#utility.yul\":12409:12429   */\n      sub\n        /* \"#utility.yul\":12405:12406   */\n      0x00\n        /* \"#utility.yul\":12394:12403   */\n      dup4\n        /* \"#utility.yul\":12390:12407   */\n      add\n        /* \"#utility.yul\":12383:12430   */\n      mstore\n        /* \"#utility.yul\":12447:12578   */\n      tag_431\n        /* \"#utility.yul\":12573:12577   */\n      dup2\n        /* \"#utility.yul\":12447:12578   */\n      tag_297\n      jump\t// in\n    tag_431:\n        /* \"#utility.yul\":12439:12578   */\n      swap1\n      pop\n        /* \"#utility.yul\":12166:12585   */\n      swap2\n      swap1\n      pop\n      jump\t// out\n        /* \"#utility.yul\":12591:12761   */\n    tag_298:\n        /* \"#utility.yul\":12731:12753   */\n      0x4e6f2066756e647320746f207769746864726177000000000000000000000000\n        /* \"#utility.yul\":12727:12728   */\n      0x00\n        /* \"#utility.yul\":12719:12725   */\n      dup3\n        /* \"#utility.yul\":12715:12729   */\n      add\n        /* \"#utility.yul\":12708:12754   */\n      mstore\n        /* \"#utility.yul\":12591:12761   */\n      pop\n      jump\t// out\n        /* \"#utility.yul\":12767:13133   */\n    tag_299:\n        /* \"#utility.yul\":12909:12912   */\n      0x00\n        /* \"#utility.yul\":12930:12997   */\n      tag_434\n        /* \"#utility.yul\":12994:12996   */\n      0x14\n        /* \"#utility.yul\":12989:12992   */\n      dup4\n        /* \"#utility.yul\":12930:12997   */\n      tag_290\n      jump\t// in\n    tag_434:\n        /* \"#utility.yul\":12923:12997   */\n      swap2\n      pop\n        /* \"#utility.yul\":13006:13099   */\n      tag_435\n        /* \"#utility.yul\":13095:13098   */\n      dup3\n        /* \"#utility.yul\":13006:13099   */\n      tag_298\n      jump\t// in\n    tag_435:\n        /* \"#utility.yul\":13124:13126   */\n      0x20\n        /* \"#utility.yul\":13119:13122   */\n      dup3\n        /* \"#utility.yul\":13115:13127   */\n      add\n        /* \"#utility.yul\":13108:13127   */\n      swap1\n      pop\n        /* \"#utility.yul\":12767:13133   */\n      swap2\n      swap1\n      pop\n      jump\t// out\n        /* \"#utility.yul\":13139:13558   */\n    tag_139:\n        /* \"#utility.yul\":13305:13309   */\n      0x00\n        /* \"#utility.yul\":13343:13345   */\n      0x20\n        /* \"#utility.yul\":13332:13341   */\n      dup3\n        /* \"#utility.yul\":13328:13346   */\n      add\n        /* \"#utility.yul\":13320:13346   */\n      swap1\n      pop\n        /* \"#utility.yul\":13392:13401   */\n      dup2\n        /* \"#utility.yul\":13386:13390   */\n      dup2\n        /* \"#utility.yul\":13382:13402   */\n      sub\n        /* \"#utility.yul\":13378:13379   */\n      0x00\n        /* \"#utility.yul\":13367:13376   */\n      dup4\n        /* \"#utility.yul\":13363:13380   */\n      add\n        /* \"#utility.yul\":13356:13403   */\n      mstore\n        /* \"#utility.yul\":13420:13551   */\n      tag_437\n        /* \"#utility.yul\":13546:13550   */\n      dup2\n        /* \"#utility.yul\":13420:13551   */\n      tag_299\n      jump\t// in\n    tag_437:\n        /* \"#utility.yul\":13412:13551   */\n      swap1\n      pop\n        /* \"#utility.yul\":13139:13558   */\n      swap2\n      swap1\n      pop\n      jump\t// out\n        /* \"#utility.yul\":13564:13711   */\n    tag_300:\n        /* \"#utility.yul\":13665:13676   */\n      0x00\n        /* \"#utility.yul\":13702:13705   */\n      dup2\n        /* \"#utility.yul\":13687:13705   */\n      swap1\n      pop\n        /* \"#utility.yul\":13564:13711   */\n      swap3\n      swap2\n      pop\n      pop\n      jump\t// out\n        /* \"#utility.yul\":13717:13831   */\n    tag_301:\n      pop\n      jump\t// out\n        /* \"#utility.yul\":13837:14235   */\n    tag_302:\n        /* \"#utility.yul\":13996:13999   */\n      0x00\n        /* \"#utility.yul\":14017:14100   */\n      tag_441\n        /* \"#utility.yul\":14098:14099   */\n      0x00\n        /* \"#utility.yul\":14093:14096   */\n      dup4\n        /* \"#utility.yul\":14017:14100   */\n      tag_300\n      jump\t// in\n    tag_441:\n        /* \"#utility.yul\":14010:14100   */\n      swap2\n      pop\n        /* \"#utility.yul\":14109:14202   */\n      tag_442\n        /* \"#utility.yul\":14198:14201   */\n      dup3\n        /* \"#utility.yul\":14109:14202   */\n      tag_301\n      jump\t// in\n    tag_442:\n        /* \"#utility.yul\":14227:14228   */\n      0x00\n        /* \"#utility.yul\":14222:14225   */\n      dup3\n        /* \"#utility.yul\":14218:14229   */\n      add\n        /* \"#utility.yul\":14211:14229   */\n      swap1\n      pop\n        /* \"#utility.yul\":13837:14235   */\n      swap2\n      swap1\n      pop\n      jump\t// out\n        /* \"#utility.yul\":14241:14620   */\n    tag_141:\n        /* \"#utility.yul\":14425:14428   */\n      0x00\n        /* \"#utility.yul\":14447:14594   */\n      tag_444\n        /* \"#utility.yul\":14590:14593   */\n      dup3\n        /* \"#utility.yul\":14447:14594   */\n      tag_302\n      jump\t// in\n    tag_444:\n        /* \"#utility.yul\":14440:14594   */\n      swap2\n      pop\n        /* \"#utility.yul\":14611:14614   */\n      dup2\n        /* \"#utility.yul\":14604:14614   */\n      swap1\n      pop\n        /* \"#utility.yul\":14241:14620   */\n      swap2\n      swap1\n      pop\n      jump\t// out\n        /* \"#utility.yul\":14626:14793   */\n    tag_303:\n        /* \"#utility.yul\":14766:14785   */\n      0x5769746864726177616c206661696c6564000000000000000000000000000000\n        /* \"#utility.yul\":14762:14763   */\n      0x00\n        /* \"#utility.yul\":14754:14760   */\n      dup3\n        /* \"#utility.yul\":14750:14764   */\n      add\n        /* \"#utility.yul\":14743:14786   */\n      mstore\n        /* \"#utility.yul\":14626:14793   */\n      pop\n      jump\t// out\n        /* \"#utility.yul\":14799:15165   */\n    tag_304:\n        /* \"#utility.yul\":14941:14944   */\n      0x00\n        /* \"#utility.yul\":14962:15029   */\n      tag_447\n        /* \"#utility.yul\":15026:15028   */\n      0x11\n        /* \"#utility.yul\":15021:15024   */\n      dup4\n        /* \"#utility.yul\":14962:15029   */\n      tag_290\n      jump\t// in\n    tag_447:\n        /* \"#utility.yul\":14955:15029   */\n      swap2\n      pop\n        /* \"#utility.yul\":15038:15131   */\n      tag_448\n        /* \"#utility.yul\":15127:15130   */\n      dup3\n        /* \"#utility.yul\":15038:15131   */\n      tag_303\n      jump\t// in\n    tag_448:\n        /* \"#utility.yul\":15156:15158   */\n      0x20\n        /* \"#utility.yul\":15151:15154   */\n      dup3\n        /* \"#utility.yul\":15147:15159   */\n      add\n        /* \"#utility.yul\":15140:15159   */\n      swap1\n      pop\n        /* \"#utility.yul\":14799:15165   */\n      swap2\n      swap1\n      pop\n      jump\t// out\n        /* \"#utility.yul\":15171:15590   */\n    tag_147:\n        /* \"#utility.yul\":15337:15341   */\n      0x00\n        /* \"#utility.yul\":15375:15377   */\n      0x20\n        /* \"#utility.yul\":15364:15373   */\n      dup3\n        /* \"#utility.yul\":15360:15378   */\n      add\n        /* \"#utility.yul\":15352:15378   */\n      swap1\n      pop\n        /* \"#utility.yul\":15424:15433   */\n      dup2\n        /* \"#utility.yul\":15418:15422   */\n      dup2\n        /* \"#utility.yul\":15414:15434   */\n      sub\n        /* \"#utility.yul\":15410:15411   */\n      0x00\n        /* \"#utility.yul\":15399:15408   */\n      dup4\n        /* \"#utility.yul\":15395:15412   */\n      add\n        /* \"#utility.yul\":15388:15435   */\n      mstore\n        /* \"#utility.yul\":15452:15583   */\n      tag_450\n        /* \"#utility.yul\":15578:15582   */\n      dup2\n        /* \"#utility.yul\":15452:15583   */\n      tag_304\n      jump\t// in\n    tag_450:\n        /* \"#utility.yul\":15444:15583   */\n      swap1\n      pop\n        /* \"#utility.yul\":15171:15590   */\n      swap2\n      swap1\n      pop\n      jump\t// out\n        /* \"#utility.yul\":15596:15776   */\n    tag_157:\n        /* \"#utility.yul\":15644:15721   */\n      0x4e487b7100000000000000000000000000000000000000000000000000000000\n        /* \"#utility.yul\":15641:15642   */\n      0x00\n        /* \"#utility.yul\":15634:15722   */\n      mstore\n        /* \"#utility.yul\":15741:15745   */\n      0x41\n        /* \"#utility.yul\":15738:15739   */\n      0x04\n        /* \"#utility.yul\":15731:15746   */\n      mstore\n        /* \"#utility.yul\":15765:15769   */\n      0x24\n        /* \"#utility.yul\":15762:15763   */\n      0x00\n        /* \"#utility.yul\":15755:15770   */\n      revert\n        /* \"#utility.yul\":15782:15962   */\n    tag_174:\n        /* \"#utility.yul\":15830:15907   */\n      0x4e487b7100000000000000000000000000000000000000000000000000000000\n        /* \"#utility.yul\":15827:15828   */\n      0x00\n        /* \"#utility.yul\":15820:15908   */\n      mstore\n        /* \"#utility.yul\":15927:15931   */\n      0x32\n        /* \"#utility.yul\":15924:15925   */\n      0x04\n        /* \"#utility.yul\":15917:15932   */\n      mstore\n        /* \"#utility.yul\":15951:15955   */\n      0x24\n        /* \"#utility.yul\":15948:15949   */\n      0x00\n        /* \"#utility.yul\":15941:15956   */\n      revert\n        /* \"#utility.yul\":15968:16162   */\n    tag_185:\n        /* \"#utility.yul\":16008:16012   */\n      0x00\n        /* \"#utility.yul\":16028:16048   */\n      tag_454\n        /* \"#utility.yul\":16046:16047   */\n      dup3\n        /* \"#utility.yul\":16028:16048   */\n      tag_271\n      jump\t// in\n    tag_454:\n        /* \"#utility.yul\":16023:16048   */\n      swap2\n      pop\n        /* \"#utility.yul\":16062:16082   */\n      tag_455\n        /* \"#utility.yul\":16080:16081   */\n      dup4\n        /* \"#utility.yul\":16062:16082   */\n      tag_271\n      jump\t// in\n    tag_455:\n        /* \"#utility.yul\":16057:16082   */\n      swap3\n      pop\n        /* \"#utility.yul\":16106:16107   */\n      dup3\n        /* \"#utility.yul\":16103:16104   */\n      dup3\n        /* \"#utility.yul\":16099:16108   */\n      sub\n        /* \"#utility.yul\":16091:16108   */\n      swap1\n      pop\n        /* \"#utility.yul\":16130:16131   */\n      dup2\n        /* \"#utility.yul\":16124:16128   */\n      dup2\n        /* \"#utility.yul\":16121:16132   */\n      gt\n        /* \"#utility.yul\":16118:16155   */\n      iszero\n      tag_456\n      jumpi\n        /* \"#utility.yul\":16135:16153   */\n      tag_457\n      tag_295\n      jump\t// in\n    tag_457:\n        /* \"#utility.yul\":16118:16155   */\n    tag_456:\n        /* \"#utility.yul\":15968:16162   */\n      swap3\n      swap2\n      pop\n      pop\n      jump\t// out\n        /* \"#utility.yul\":16168:16389   */\n    tag_305:\n        /* \"#utility.yul\":16308:16342   */\n      0x53746172742074696d65206d757374206265206265666f726520656e64207469\n        /* \"#utility.yul\":16304:16305   */\n      0x00\n        /* \"#utility.yul\":16296:16302   */\n      dup3\n        /* \"#utility.yul\":16292:16306   */\n      add\n        /* \"#utility.yul\":16285:16343   */\n      mstore\n        /* \"#utility.yul\":16377:16381   */\n      0x6d65000000000000000000000000000000000000000000000000000000000000\n        /* \"#utility.yul\":16372:16374   */\n      0x20\n        /* \"#utility.yul\":16364:16370   */\n      dup3\n        /* \"#utility.yul\":16360:16375   */\n      add\n        /* \"#utility.yul\":16353:16382   */\n      mstore\n        /* \"#utility.yul\":16168:16389   */\n      pop\n      jump\t// out\n        /* \"#utility.yul\":16395:16761   */\n    tag_306:\n        /* \"#utility.yul\":16537:16540   */\n      0x00\n        /* \"#utility.yul\":16558:16625   */\n      tag_460\n        /* \"#utility.yul\":16622:16624   */\n      0x22\n        /* \"#utility.yul\":16617:16620   */\n      dup4\n        /* \"#utility.yul\":16558:16625   */\n      tag_290\n      jump\t// in\n    tag_460:\n        /* \"#utility.yul\":16551:16625   */\n      swap2\n      pop\n        /* \"#utility.yul\":16634:16727   */\n      tag_461\n        /* \"#utility.yul\":16723:16726   */\n      dup3\n        /* \"#utility.yul\":16634:16727   */\n      tag_305\n      jump\t// in\n    tag_461:\n        /* \"#utility.yul\":16752:16754   */\n      0x40\n        /* \"#utility.yul\":16747:16750   */\n      dup3\n        /* \"#utility.yul\":16743:16755   */\n      add\n        /* \"#utility.yul\":16736:16755   */\n      swap1\n      pop\n        /* \"#utility.yul\":16395:16761   */\n      swap2\n      swap1\n      pop\n      jump\t// out\n        /* \"#utility.yul\":16767:17186   */\n    tag_214:\n        /* \"#utility.yul\":16933:16937   */\n      0x00\n        /* \"#utility.yul\":16971:16973   */\n      0x20\n        /* \"#utility.yul\":16960:16969   */\n      dup3\n        /* \"#utility.yul\":16956:16974   */\n      add\n        /* \"#utility.yul\":16948:16974   */\n      swap1\n      pop\n        /* \"#utility.yul\":17020:17029   */\n      dup2\n        /* \"#utility.yul\":17014:17018   */\n      dup2\n        /* \"#utility.yul\":17010:17030   */\n      sub\n        /* \"#utility.yul\":17006:17007   */\n      0x00\n        /* \"#utility.yul\":16995:17004   */\n      dup4\n        /* \"#utility.yul\":16991:17008   */\n      add\n        /* \"#utility.yul\":16984:17031   */\n      mstore\n        /* \"#utility.yul\":17048:17179   */\n      tag_463\n        /* \"#utility.yul\":17174:17178   */\n      dup2\n        /* \"#utility.yul\":17048:17179   */\n      tag_306\n      jump\t// in\n    tag_463:\n        /* \"#utility.yul\":17040:17179   */\n      swap1\n      pop\n        /* \"#utility.yul\":16767:17186   */\n      swap2\n      swap1\n      pop\n      jump\t// out\n        /* \"#utility.yul\":17192:17374   */\n    tag_307:\n        /* \"#utility.yul\":17332:17366   */\n      0x53746172742074696d65206d75737420626520696e2074686520667574757265\n        /* \"#utility.yul\":17328:17329   */\n      0x00\n        /* \"#utility.yul\":17320:17326   */\n      dup3\n        /* \"#utility.yul\":17316:17330   */\n      add\n        /* \"#utility.yul\":17309:17367   */\n      mstore\n        /* \"#utility.yul\":17192:17374   */\n      pop\n      jump\t// out\n        /* \"#utility.yul\":17380:17746   */\n    tag_308:\n        /* \"#utility.yul\":17522:17525   */\n      0x00\n        /* \"#utility.yul\":17543:17610   */\n      tag_466\n        /* \"#utility.yul\":17607:17609   */\n      0x20\n        /* \"#utility.yul\":17602:17605   */\n      dup4\n        /* \"#utility.yul\":17543:17610   */\n      tag_290\n      jump\t// in\n    tag_466:\n        /* \"#utility.yul\":17536:17610   */\n      swap2\n      pop\n        /* \"#utility.yul\":17619:17712   */\n      tag_467\n        /* \"#utility.yul\":17708:17711   */\n      dup3\n        /* \"#utility.yul\":17619:17712   */\n      tag_307\n      jump\t// in\n    tag_467:\n        /* \"#utility.yul\":17737:17739   */\n      0x20\n        /* \"#utility.yul\":17732:17735   */\n      dup3\n        /* \"#utility.yul\":17728:17740   */\n      add\n        /* \"#utility.yul\":17721:17740   */\n      swap1\n      pop\n        /* \"#utility.yul\":17380:17746   */\n      swap2\n      swap1\n      pop\n      jump\t// out\n        /* \"#utility.yul\":17752:18171   */\n    tag_217:\n        /* \"#utility.yul\":17918:17922   */\n      0x00\n        /* \"#utility.yul\":17956:17958   */\n      0x20\n        /* \"#utility.yul\":17945:17954   */\n      dup3\n        /* \"#utility.yul\":17941:17959   */\n      add\n        /* \"#utility.yul\":17933:17959   */\n      swap1\n      pop\n        /* \"#utility.yul\":18005:18014   */\n      dup2\n        /* \"#utility.yul\":17999:18003   */\n      dup2\n        /* \"#utility.yul\":17995:18015   */\n      sub\n        /* \"#utility.yul\":17991:17992   */\n      0x00\n        /* \"#utility.yul\":17980:17989   */\n      dup4\n        /* \"#utility.yul\":17976:17993   */\n      add\n        /* \"#utility.yul\":17969:18016   */\n      mstore\n        /* \"#utility.yul\":18033:18164   */\n      tag_469\n        /* \"#utility.yul\":18159:18163   */\n      dup2\n        /* \"#utility.yul\":18033:18164   */\n      tag_308\n      jump\t// in\n    tag_469:\n        /* \"#utility.yul\":18025:18164   */\n      swap1\n      pop\n        /* \"#utility.yul\":17752:18171   */\n      swap2\n      swap1\n      pop\n      jump\t// out\n        /* \"#utility.yul\":18177:18253   */\n    tag_309:\n        /* \"#utility.yul\":18213:18220   */\n      0x00\n        /* \"#utility.yul\":18242:18247   */\n      dup2\n        /* \"#utility.yul\":18231:18247   */\n      swap1\n      pop\n        /* \"#utility.yul\":18177:18253   */\n      swap2\n      swap1\n      pop\n      jump\t// out\n        /* \"#utility.yul\":18259:18631   */\n    tag_222:\n        /* \"#utility.yul\":18298:18302   */\n      0x00\n        /* \"#utility.yul\":18318:18337   */\n      tag_472\n        /* \"#utility.yul\":18335:18336   */\n      dup3\n        /* \"#utility.yul\":18318:18337   */\n      tag_309\n      jump\t// in\n    tag_472:\n        /* \"#utility.yul\":18313:18337   */\n      swap2\n      pop\n        /* \"#utility.yul\":18351:18370   */\n      tag_473\n        /* \"#utility.yul\":18368:18369   */\n      dup4\n        /* \"#utility.yul\":18351:18370   */\n      tag_309\n      jump\t// in\n    tag_473:\n        /* \"#utility.yul\":18346:18370   */\n      swap3\n      pop\n        /* \"#utility.yul\":18394:18395   */\n      dup3\n        /* \"#utility.yul\":18391:18392   */\n      dup3\n        /* \"#utility.yul\":18387:18396   */\n      sub\n        /* \"#utility.yul\":18379:18396   */\n      swap1\n      pop\n        /* \"#utility.yul\":18588:18589   */\n      dup2\n        /* \"#utility.yul\":18582:18586   */\n      dup2\n        /* \"#utility.yul\":18578:18590   */\n      slt\n        /* \"#utility.yul\":18574:18575   */\n      0x00\n        /* \"#utility.yul\":18571:18572   */\n      dup5\n        /* \"#utility.yul\":18567:18576   */\n      slt\n        /* \"#utility.yul\":18563:18591   */\n      and\n        /* \"#utility.yul\":18546:18547   */\n      dup3\n        /* \"#utility.yul\":18540:18544   */\n      dup3\n        /* \"#utility.yul\":18536:18548   */\n      sgt\n        /* \"#utility.yul\":18531:18532   */\n      0x00\n        /* \"#utility.yul\":18528:18529   */\n      dup6\n        /* \"#utility.yul\":18524:18533   */\n      slt\n        /* \"#utility.yul\":18517:18534   */\n      iszero\n        /* \"#utility.yul\":18513:18549   */\n      and\n        /* \"#utility.yul\":18497:18601   */\n      or\n        /* \"#utility.yul\":18494:18624   */\n      iszero\n      tag_474\n      jumpi\n        /* \"#utility.yul\":18604:18622   */\n      tag_475\n      tag_295\n      jump\t// in\n    tag_475:\n        /* \"#utility.yul\":18494:18624   */\n    tag_474:\n        /* \"#utility.yul\":18259:18631   */\n      swap3\n      swap2\n      pop\n      pop\n      jump\t// out\n        /* \"#utility.yul\":18637:18817   */\n    tag_310:\n        /* \"#utility.yul\":18685:18762   */\n      0x4e487b7100000000000000000000000000000000000000000000000000000000\n        /* \"#utility.yul\":18682:18683   */\n      0x00\n        /* \"#utility.yul\":18675:18763   */\n      mstore\n        /* \"#utility.yul\":18782:18786   */\n      0x12\n        /* \"#utility.yul\":18779:18780   */\n      0x04\n        /* \"#utility.yul\":18772:18787   */\n      mstore\n        /* \"#utility.yul\":18806:18810   */\n      0x24\n        /* \"#utility.yul\":18803:18804   */\n      0x00\n        /* \"#utility.yul\":18796:18811   */\n      revert\n        /* \"#utility.yul\":18823:19208   */\n    tag_224:\n        /* \"#utility.yul\":18862:18863   */\n      0x00\n        /* \"#utility.yul\":18879:18898   */\n      tag_478\n        /* \"#utility.yul\":18896:18897   */\n      dup3\n        /* \"#utility.yul\":18879:18898   */\n      tag_309\n      jump\t// in\n    tag_478:\n        /* \"#utility.yul\":18874:18898   */\n      swap2\n      pop\n        /* \"#utility.yul\":18912:18931   */\n      tag_479\n        /* \"#utility.yul\":18929:18930   */\n      dup4\n        /* \"#utility.yul\":18912:18931   */\n      tag_309\n      jump\t// in\n    tag_479:\n        /* \"#utility.yul\":18907:18931   */\n      swap3\n      pop\n        /* \"#utility.yul\":18950:18951   */\n      dup3\n        /* \"#utility.yul\":18940:18975   */\n      tag_480\n      jumpi\n        /* \"#utility.yul\":18955:18973   */\n      tag_481\n      tag_310\n      jump\t// in\n    tag_481:\n        /* \"#utility.yul\":18940:18975   */\n    tag_480:\n        /* \"#utility.yul\":19141:19142   */\n      0x01\n        /* \"#utility.yul\":19138:19139   */\n      0x00\n        /* \"#utility.yul\":19134:19143   */\n      sub\n        /* \"#utility.yul\":19131:19132   */\n      dup4\n        /* \"#utility.yul\":19128:19144   */\n      eq\n        /* \"#utility.yul\":19047:19113   */\n      0x8000000000000000000000000000000000000000000000000000000000000000\n        /* \"#utility.yul\":19044:19045   */\n      dup4\n        /* \"#utility.yul\":19041:19114   */\n      eq\n        /* \"#utility.yul\":19024:19154   */\n      and\n        /* \"#utility.yul\":19021:19177   */\n      iszero\n      tag_482\n      jumpi\n        /* \"#utility.yul\":19157:19175   */\n      tag_483\n      tag_295\n      jump\t// in\n    tag_483:\n        /* \"#utility.yul\":19021:19177   */\n    tag_482:\n        /* \"#utility.yul\":19200:19201   */\n      dup3\n        /* \"#utility.yul\":19197:19198   */\n      dup3\n        /* \"#utility.yul\":19192:19202   */\n      sdiv\n        /* \"#utility.yul\":19187:19202   */\n      swap1\n      pop\n        /* \"#utility.yul\":18823:19208   */\n      swap3\n      swap2\n      pop\n      pop\n      jump\t// out\n        /* \"#utility.yul\":19214:19589   */\n    tag_226:\n        /* \"#utility.yul\":19253:19256   */\n      0x00\n        /* \"#utility.yul\":19272:19291   */\n      tag_485\n        /* \"#utility.yul\":19289:19290   */\n      dup3\n        /* \"#utility.yul\":19272:19291   */\n      tag_309\n      jump\t// in\n    tag_485:\n        /* \"#utility.yul\":19267:19291   */\n      swap2\n      pop\n        /* \"#utility.yul\":19305:19324   */\n      tag_486\n        /* \"#utility.yul\":19322:19323   */\n      dup4\n        /* \"#utility.yul\":19305:19324   */\n      tag_309\n      jump\t// in\n    tag_486:\n        /* \"#utility.yul\":19300:19324   */\n      swap3\n      pop\n        /* \"#utility.yul\":19347:19348   */\n      dup3\n        /* \"#utility.yul\":19344:19345   */\n      dup3\n        /* \"#utility.yul\":19340:19349   */\n      add\n        /* \"#utility.yul\":19333:19349   */\n      swap1\n      pop\n        /* \"#utility.yul\":19545:19546   */\n      dup3\n        /* \"#utility.yul\":19540:19543   */\n      dup2\n        /* \"#utility.yul\":19536:19547   */\n      slt\n        /* \"#utility.yul\":19529:19548   */\n      iszero\n        /* \"#utility.yul\":19525:19526   */\n      0x00\n        /* \"#utility.yul\":19522:19523   */\n      dup4\n        /* \"#utility.yul\":19518:19527   */\n      slt\n        /* \"#utility.yul\":19514:19549   */\n      and\n        /* \"#utility.yul\":19497:19498   */\n      dup4\n        /* \"#utility.yul\":19492:19495   */\n      dup3\n        /* \"#utility.yul\":19488:19499   */\n      slt\n        /* \"#utility.yul\":19483:19484   */\n      0x00\n        /* \"#utility.yul\":19480:19481   */\n      dup5\n        /* \"#utility.yul\":19476:19485   */\n      slt\n        /* \"#utility.yul\":19469:19486   */\n      iszero\n        /* \"#utility.yul\":19465:19500   */\n      and\n        /* \"#utility.yul\":19449:19559   */\n      or\n        /* \"#utility.yul\":19446:19582   */\n      iszero\n      tag_487\n      jumpi\n        /* \"#utility.yul\":19562:19580   */\n      tag_488\n      tag_295\n      jump\t// in\n    tag_488:\n        /* \"#utility.yul\":19446:19582   */\n    tag_487:\n        /* \"#utility.yul\":19214:19589   */\n      swap3\n      swap2\n      pop\n      pop\n      jump\t// out\n        /* \"#utility.yul\":19595:19826   */\n    tag_236:\n        /* \"#utility.yul\":19633:19636   */\n      0x00\n        /* \"#utility.yul\":19656:19679   */\n      tag_490\n        /* \"#utility.yul\":19673:19678   */\n      dup3\n        /* \"#utility.yul\":19656:19679   */\n      tag_309\n      jump\t// in\n    tag_490:\n        /* \"#utility.yul\":19647:19679   */\n      swap2\n      pop\n        /* \"#utility.yul\":19701:19767   */\n      0x7fffffffffffffffffffffffffffffffffffffffffffffffffffffffffffffff\n        /* \"#utility.yul\":19694:19699   */\n      dup3\n        /* \"#utility.yul\":19691:19768   */\n      sub\n        /* \"#utility.yul\":19688:19791   */\n      tag_491\n      jumpi\n        /* \"#utility.yul\":19771:19789   */\n      tag_492\n      tag_295\n      jump\t// in\n    tag_492:\n        /* \"#utility.yul\":19688:19791   */\n    tag_491:\n        /* \"#utility.yul\":19818:19819   */\n      0x01\n        /* \"#utility.yul\":19811:19816   */\n      dup3\n        /* \"#utility.yul\":19807:19820   */\n      add\n        /* \"#utility.yul\":19800:19820   */\n      swap1\n      pop\n        /* \"#utility.yul\":19595:19826   */\n      swap2\n      swap1\n      pop\n      jump\t// out\n        /* \"#utility.yul\":19832:20063   */\n    tag_242:\n        /* \"#utility.yul\":19870:19873   */\n      0x00\n        /* \"#utility.yul\":19893:19916   */\n      tag_494\n        /* \"#utility.yul\":19910:19915   */\n      dup3\n        /* \"#utility.yul\":19893:19916   */\n      tag_309\n      jump\t// in\n    tag_494:\n        /* \"#utility.yul\":19884:19916   */\n      swap2\n      pop\n        /* \"#utility.yul\":19938:20004   */\n      0x8000000000000000000000000000000000000000000000000000000000000000\n        /* \"#utility.yul\":19931:19936   */\n      dup3\n        /* \"#utility.yul\":19928:20005   */\n      sub\n        /* \"#utility.yul\":19925:20028   */\n      tag_495\n      jumpi\n        /* \"#utility.yul\":20008:20026   */\n      tag_496\n      tag_295\n      jump\t// in\n    tag_496:\n        /* \"#utility.yul\":19925:20028   */\n    tag_495:\n        /* \"#utility.yul\":20055:20056   */\n      0x01\n        /* \"#utility.yul\":20048:20053   */\n      dup3\n        /* \"#utility.yul\":20044:20057   */\n      sub\n        /* \"#utility.yul\":20037:20057   */\n      swap1\n      pop\n        /* \"#utility.yul\":19832:20063   */\n      swap2\n      swap1\n      pop\n      jump\t// out\n\n    auxdata: 0xa264697066735822122013fcdecf349594cd7edb3f1fc6ab9ec42fbb9d10cd2e730e452c6d08c46c563264736f6c634300081e0033\n}\n",
				"bytecode": {
					"linkReferences": {},
					"object": "6080604052348015600e575f5ffd5b50335f5f6101000a81548173ffffffffffffffffffffffffffffffffffffffff021916908373ffffffffffffffffffffffffffffffffffffffff1602179055505f60055f6101000a81548160ff021916908315150217905550611d45806100745f395ff3fe608060405260043610610117575f3560e01c80637cc1f8671161009f578063d8a5787a11610063578063d8a5787a1461039b578063de2ed893146103c5578063ed88c68e146103ef578063f12a4a53146103f9578063f57a47531461042357610126565b80637cc1f867146102a15780638da5cb5b146102cf57806398e36b04146102f9578063ba5dccb414610323578063cc6cb19a1461035f57610126565b80634abfa163116100e65780634abfa163146101d05780635c2b11191461020c5780635cfa7cbe146102375780636f9fb98a1461024d578063783315521461027757610126565b806317294a111461012a5780632abfab4d146101665780633ccfd60b146101905780633f85b887146101a657610126565b366101265761012461044b565b005b5f5ffd5b348015610135575f5ffd5b50610150600480360381019061014b919061130e565b6106cd565b60405161015d9190611353565b60405180910390f35b348015610171575f5ffd5b5061017a6106ea565b6040516101879190611384565b60405180910390f35b34801561019b575f5ffd5b506101a46106f0565b005b3480156101b1575f5ffd5b506101ba610900565b6040516101c79190611384565b60405180910390f35b3480156101db575f5ffd5b506101f660048036038101906101f191906113c7565b61090c565b6040516102039190611401565b60405180910390f35b348015610217575f5ffd5b50610220610947565b60405161022e929190611588565b60405180910390f35b348015610242575f5ffd5b5061024b610cd1565b005b348015610258575f5ffd5b50610261610d7a565b60405161026e9190611384565b60405180910390f35b348015610282575f5ffd5b5061028b610d81565b6040516102989190611384565b60405180910390f35b3480156102ac575f5ffd5b506102b5610d87565b6040516102c69594939291906115bd565b60405180910390f35b3480156102da575f5ffd5b506102e3610dd4565b6040516102f09190611401565b60405180910390f35b348015610304575f5ffd5b5061030d610df8565b60405161031a919061160e565b60405180910390f35b34801561032e575f5ffd5b506103496004803603810190610344919061130e565b610e83565b6040516103569190611384565b60405180910390f35b34801561036a575f5ffd5b506103856004803603810190610380919061130e565b610ec9565b6040516103929190611384565b60405180910390f35b3480156103a6575f5ffd5b506103af610ede565b6040516103bc9190611353565b60405180910390f35b3480156103d0575f5ffd5b506103d9610ef0565b6040516103e69190611384565b60405180910390f35b6103f761044b565b005b348015610404575f5ffd5b5061040d610ef6565b60405161041a9190611384565b60405180910390f35b34801561042e575f5ffd5b506104496004803603810190610444919061162e565b610efc565b005b60055f9054906101000a900460ff16156104b357600354421015801561047357506004544211155b6104b2576040517f08c379a00000000000000000000000000000000000000000000000000000000081526004016104a9906116c6565b60405180910390fd5b5b5f34116104f5576040517f08c379a00000000000000000000000000000000000000000000000000000000081526004016104ec90611754565b60405180910390fd5b60085f3373ffffffffffffffffffffffffffffffffffffffff1673ffffffffffffffffffffffffffffffffffffffff1681526020019081526020015f205f9054906101000a900460ff1661061057600733908060018154018082558091505060019003905f5260205f20015f9091909190916101000a81548173ffffffffffffffffffffffffffffffffffffffff021916908373ffffffffffffffffffffffffffffffffffffffff160217905550600160085f3373ffffffffffffffffffffffffffffffffffffffff1673ffffffffffffffffffffffffffffffffffffffff1681526020019081526020015f205f6101000a81548160ff02191690831515021790555060025f81548092919061060a9061179f565b91905055505b3460065f3373ffffffffffffffffffffffffffffffffffffffff1673ffffffffffffffffffffffffffffffffffffffff1681526020019081526020015f205f82825461065c91906117e6565b925050819055503460015f82825461067491906117e6565b925050819055503373ffffffffffffffffffffffffffffffffffffffff167f4b0304ab2f313234b1cea012339c8f8c3bf2c8bb357d81a579cfdb35d2e3d03034426040516106c3929190611819565b60405180910390a2565b6008602052805f5260405f205f915054906101000a900460ff1681565b60025481565b5f5f9054906101000a900473ffffffffffffffffffffffffffffffffffffffff1673ffffffffffffffffffffffffffffffffffffffff163373ffffffffffffffffffffffffffffffffffffffff161461077e576040517f08c379a0000000000000000000000000000000000000000000000000000000008152600401610775906118b0565b60405180910390fd5b5f4790505f81116107c4576040517f08c379a00000000000000000000000000000000000000000000000000000000081526004016107bb90611918565b60405180910390fd5b5f5f5f9054906101000a900473ffffffffffffffffffffffffffffffffffffffff1673ffffffffffffffffffffffffffffffffffffffff168260405161080990611963565b5f6040518083038185875af1925050503d805f8114610843576040519150601f19603f3d011682016040523d82523d5f602084013e610848565b606091505b505090508061088c576040517f08c379a0000000000000000000000000000000000000000000000000000000008152600401610883906119c1565b60405180910390fd5b5f5f9054906101000a900473ffffffffffffffffffffffffffffffffffffffff1673ffffffffffffffffffffffffffffffffffffffff167fdf273cb619d95419a9cd0ec88123a0538c85064229baa6363788f743fff90deb83426040516108f4929190611819565b60405180910390a25050565b5f600780549050905090565b6007818154811061091b575f80fd5b905f5260205f20015f915054906101000a900473ffffffffffffffffffffffffffffffffffffffff1681565b6060805f60036007805490501061095f576003610966565b6007805490505b90508067ffffffffffffffff811115610982576109816119df565b5b6040519080825280602002602001820160405280156109b05781602001602082028036833780820191505090505b5092508067ffffffffffffffff8111156109cd576109cc6119df565b5b6040519080825280602002602001820160405280156109fb5781602001602082028036833780820191505090505b5091505f60078054905003610a105750610ccd565b5f60078054905067ffffffffffffffff811115610a3057610a2f6119df565b5b604051908082528060200260200182016040528015610a5e5781602001602082028036833780820191505090505b5090505f60078054905067ffffffffffffffff811115610a8157610a806119df565b5b604051908082528060200260200182016040528015610aaf5781602001602082028036833780820191505090505b5090505f5f90505b600780549050811015610bf25760078181548110610ad857610ad7611a0c565b5b905f5260205f20015f9054906101000a900473ffffffffffffffffffffffffffffffffffffffff16838281518110610b1357610b12611a0c565b5b602002602001019073ffffffffffffffffffffffffffffffffffffffff16908173ffffffffffffffffffffffffffffffffffffffff168152505060065f60078381548110610b6457610b63611a0c565b5b905f5260205f20015f9054906101000a900473ffffffffffffffffffffffffffffffffffffffff1673ffffffffffffffffffffffffffffffffffffffff1673ffffffffffffffffffffffffffffffffffffffff1681526020019081526020015f2054828281518110610bd957610bd8611a0c565b5b6020026020010181815250508080600101915050610ab7565b50610c0c82825f60018551610c079190611a39565b611073565b5f5f90505b83811015610cc857828181518110610c2c57610c2b611a0c565b5b6020026020010151868281518110610c4757610c46611a0c565b5b602002602001019073ffffffffffffffffffffffffffffffffffffffff16908173ffffffffffffffffffffffffffffffffffffffff1681525050818181518110610c9457610c93611a0c565b5b6020026020010151858281518110610caf57610cae611a0c565b5b6020026020010181815250508080600101915050610c11565b505050505b9091565b5f5f9054906101000a900473ffffffffffffffffffffffffffffffffffffffff1673ffffffffffffffffffffffffffffffffffffffff163373ffffffffffffffffffffffffffffffffffffffff1614610d5f576040517f08c379a0000000000000000000000000000000000000000000000000000000008152600401610d56906118b0565b60405180910390fd5b5f60055f6101000a81548160ff021916908315150217905550565b5f47905090565b60035481565b5f5f5f5f5f5f5f9054906101000a900473ffffffffffffffffffffffffffffffffffffffff166001546002544760055f9054906101000a900460ff16945094509450945094509091929394565b5f5f9054906101000a900473ffffffffffffffffffffffffffffffffffffffff1681565b60606007805480602002602001604051908101604052809291908181526020018280548015610e7957602002820191905f5260205f20905b815f9054906101000a900473ffffffffffffffffffffffffffffffffffffffff1673ffffffffffffffffffffffffffffffffffffffff1681526020019060010190808311610e30575b5050505050905090565b5f60065f8373ffffffffffffffffffffffffffffffffffffffff1673ffffffffffffffffffffffffffffffffffffffff1681526020019081526020015f20549050919050565b6006602052805f5260405f205f915090505481565b60055f9054906101000a900460ff1681565b60015481565b60045481565b5f5f9054906101000a900473ffffffffffffffffffffffffffffffffffffffff1673ffffffffffffffffffffffffffffffffffffffff163373ffffffffffffffffffffffffffffffffffffffff1614610f8a576040517f08c379a0000000000000000000000000000000000000000000000000000000008152600401610f81906118b0565b60405180910390fd5b808210610fcc576040517f08c379a0000000000000000000000000000000000000000000000000000000008152600401610fc390611adc565b60405180910390fd5b42821161100e576040517f08c379a000000000000000000000000000000000000000000000000000000000815260040161100590611b44565b60405180910390fd5b8160038190555080600481905550600160055f6101000a81548160ff0219169083151502179055507f4a53152ceca2ce059179e272279afa57041103440e131e57c5a2262e01d607f68282604051611067929190611819565b60405180910390a15050565b5f8290505f8290508082036110895750506112aa565b5f85600286866110999190611b6b565b6110a39190611bd8565b866110ae9190611c40565b815181106110bf576110be611a0c565b5b602002602001015190505b8183136112a6575b808684815181106110e6576110e5611a0c565b5b602002602001015111156111075782806110ff90611c81565b9350506110d2565b5b8086838151811061111c5761111b611a0c565b5b6020026020010151101561113d57818061113590611cc8565b925050611108565b8183136112855785828151811061115757611156611a0c565b5b602002602001015186848151811061117257611171611a0c565b5b602002602001015187858151811061118d5761118c611a0c565b5b602002602001018885815181106111a7576111a6611a0c565b5b60200260200101828152508281525050508682815181106111cb576111ca611a0c565b5b60200260200101518784815181106111e6576111e5611a0c565b5b602002602001015188858151811061120157611200611a0c565b5b6020026020010189858151811061121b5761121a611a0c565b5b602002602001018273ffffffffffffffffffffffffffffffffffffffff1673ffffffffffffffffffffffffffffffffffffffff168152508273ffffffffffffffffffffffffffffffffffffffff1673ffffffffffffffffffffffffffffffffffffffff1681525050505b828061129090611c81565b935050818061129e90611cc8565b9250506110ca565b5050505b50505050565b5f5ffd5b5f73ffffffffffffffffffffffffffffffffffffffff82169050919050565b5f6112dd826112b4565b9050919050565b6112ed816112d3565b81146112f7575f5ffd5b50565b5f81359050611308816112e4565b92915050565b5f60208284031215611323576113226112b0565b5b5f611330848285016112fa565b91505092915050565b5f8115159050919050565b61134d81611339565b82525050565b5f6020820190506113665f830184611344565b92915050565b5f819050919050565b61137e8161136c565b82525050565b5f6020820190506113975f830184611375565b92915050565b6113a68161136c565b81146113b0575f5ffd5b50565b5f813590506113c18161139d565b92915050565b5f602082840312156113dc576113db6112b0565b5b5f6113e9848285016113b3565b91505092915050565b6113fb816112d3565b82525050565b5f6020820190506114145f8301846113f2565b92915050565b5f81519050919050565b5f82825260208201905092915050565b5f819050602082019050919050565b61144c816112d3565b82525050565b5f61145d8383611443565b60208301905092915050565b5f602082019050919050565b5f61147f8261141a565b6114898185611424565b935061149483611434565b805f5b838110156114c45781516114ab8882611452565b97506114b683611469565b925050600181019050611497565b5085935050505092915050565b5f81519050919050565b5f82825260208201905092915050565b5f819050602082019050919050565b6115038161136c565b82525050565b5f61151483836114fa565b60208301905092915050565b5f602082019050919050565b5f611536826114d1565b61154081856114db565b935061154b836114eb565b805f5b8381101561157b5781516115628882611509565b975061156d83611520565b92505060018101905061154e565b5085935050505092915050565b5f6040820190508181035f8301526115a08185611475565b905081810360208301526115b4818461152c565b90509392505050565b5f60a0820190506115d05f8301886113f2565b6115dd6020830187611375565b6115ea6040830186611375565b6115f76060830185611375565b6116046080830184611344565b9695505050505050565b5f6020820190508181035f8301526116268184611475565b905092915050565b5f5f60408385031215611644576116436112b0565b5b5f611651858286016113b3565b9250506020611662858286016113b3565b9150509250929050565b5f82825260208201905092915050565b7f446f6e6174696f6e20706572696f64206973206e6f74206163746976650000005f82015250565b5f6116b0601d8361166c565b91506116bb8261167c565b602082019050919050565b5f6020820190508181035f8301526116dd816116a4565b9050919050565b7f446f6e6174696f6e20616d6f756e74206d7573742062652067726561746572205f8201527f7468616e20300000000000000000000000000000000000000000000000000000602082015250565b5f61173e60268361166c565b9150611749826116e4565b604082019050919050565b5f6020820190508181035f83015261176b81611732565b9050919050565b7f4e487b71000000000000000000000000000000000000000000000000000000005f52601160045260245ffd5b5f6117a98261136c565b91507fffffffffffffffffffffffffffffffffffffffffffffffffffffffffffffffff82036117db576117da611772565b5b600182019050919050565b5f6117f08261136c565b91506117fb8361136c565b925082820190508082111561181357611812611772565b5b92915050565b5f60408201905061182c5f830185611375565b6118396020830184611375565b9392505050565b7f4f6e6c79206f776e65722063616e2063616c6c20746869732066756e6374696f5f8201527f6e00000000000000000000000000000000000000000000000000000000000000602082015250565b5f61189a60218361166c565b91506118a582611840565b604082019050919050565b5f6020820190508181035f8301526118c78161188e565b9050919050565b7f4e6f2066756e647320746f2077697468647261770000000000000000000000005f82015250565b5f61190260148361166c565b915061190d826118ce565b602082019050919050565b5f6020820190508181035f83015261192f816118f6565b9050919050565b5f81905092915050565b50565b5f61194e5f83611936565b915061195982611940565b5f82019050919050565b5f61196d82611943565b9150819050919050565b7f5769746864726177616c206661696c65640000000000000000000000000000005f82015250565b5f6119ab60118361166c565b91506119b682611977565b602082019050919050565b5f6020820190508181035f8301526119d88161199f565b9050919050565b7f4e487b71000000000000000000000000000000000000000000000000000000005f52604160045260245ffd5b7f4e487b71000000000000000000000000000000000000000000000000000000005f52603260045260245ffd5b5f611a438261136c565b9150611a4e8361136c565b9250828203905081811115611a6657611a65611772565b5b92915050565b7f53746172742074696d65206d757374206265206265666f726520656e642074695f8201527f6d65000000000000000000000000000000000000000000000000000000000000602082015250565b5f611ac660228361166c565b9150611ad182611a6c565b604082019050919050565b5f6020820190508181035f830152611af381611aba565b9050919050565b7f53746172742074696d65206d75737420626520696e20746865206675747572655f82015250565b5f611b2e60208361166c565b9150611b3982611afa565b602082019050919050565b5f6020820190508181035f830152611b5b81611b22565b9050919050565b5f819050919050565b5f611b7582611b62565b9150611b8083611b62565b925082820390508181125f8412168282135f851215161715611ba557611ba4611772565b5b92915050565b7f4e487b71000000000000000000000000000000000000000000000000000000005f52601260045260245ffd5b5f611be282611b62565b9150611bed83611b62565b925082611bfd57611bfc611bab565b5b60015f0383147f800000000000000000000000000000000000000000000000000000000000000083141615611c3557611c34611772565b5b828205905092915050565b5f611c4a82611b62565b9150611c5583611b62565b92508282019050828112155f8312168382125f841215161715611c7b57611c7a611772565b5b92915050565b5f611c8b82611b62565b91507f7fffffffffffffffffffffffffffffffffffffffffffffffffffffffffffffff8203611cbd57611cbc611772565b5b600182019050919050565b5f611cd282611b62565b91507f80000000000000000000000000000000000000000000000000000000000000008203611d0457611d03611772565b5b60018203905091905056fea264697066735822122013fcdecf349594cd7edb3f1fc6ab9ec42fbb9d10cd2e730e452c6d08c46c563264736f6c634300081e0033",
					"opcodes": "PUSH1 0x80 PUSH1 0x40 MSTORE CALLVALUE DUP1 ISZERO PUSH1 0xE JUMPI PUSH0 PUSH0 REVERT JUMPDEST POP CALLER PUSH0 PUSH0 PUSH2 0x100 EXP DUP2 SLOAD DUP2 PUSH20 0xFFFFFFFFFFFFFFFFFFFFFFFFFFFFFFFFFFFFFFFF MUL NOT AND SWAP1 DUP4 PUSH20 0xFFFFFFFFFFFFFFFFFFFFFFFFFFFFFFFFFFFFFFFF AND MUL OR SWAP1 SSTORE POP PUSH0 PUSH1 0x5 PUSH0 PUSH2 0x100 EXP DUP2 SLOAD DUP2 PUSH1 0xFF MUL NOT AND SWAP1 DUP4 ISZERO ISZERO MUL OR SWAP1 SSTORE POP PUSH2 0x1D45 DUP1 PUSH2 0x74 PUSH0 CODECOPY PUSH0 RETURN INVALID PUSH1 0x80 PUSH1 0x40 MSTORE PUSH1 0x4 CALLDATASIZE LT PUSH2 0x117 JUMPI PUSH0 CALLDATALOAD PUSH1 0xE0 SHR DUP1 PUSH4 0x7CC1F867 GT PUSH2 0x9F JUMPI DUP1 PUSH4 0xD8A5787A GT PUSH2 0x63 JUMPI DUP1 PUSH4 0xD8A5787A EQ PUSH2 0x39B JUMPI DUP1 PUSH4 0xDE2ED893 EQ PUSH2 0x3C5 JUMPI DUP1 PUSH4 0xED88C68E EQ PUSH2 0x3EF JUMPI DUP1 PUSH4 0xF12A4A53 EQ PUSH2 0x3F9 JUMPI DUP1 PUSH4 0xF57A4753 EQ PUSH2 0x423 JUMPI PUSH2 0x126 JUMP JUMPDEST DUP1 PUSH4 0x7CC1F867 EQ PUSH2 0x2A1 JUMPI DUP1 PUSH4 0x8DA5CB5B EQ PUSH2 0x2CF JUMPI DUP1 PUSH4 0x98E36B04 EQ PUSH2 0x2F9 JUMPI DUP1 PUSH4 0xBA5DCCB4 EQ PUSH2 0x323 JUMPI DUP1 PUSH4 0xCC6CB19A EQ PUSH2 0x35F JUMPI PUSH2 0x126 JUMP JUMPDEST DUP1 PUSH4 0x4ABFA163 GT PUSH2 0xE6 JUMPI DUP1 PUSH4 0x4ABFA163 EQ PUSH2 0x1D0 JUMPI DUP1 PUSH4 0x5C2B1119 EQ PUSH2 0x20C JUMPI DUP1 PUSH4 0x5CFA7CBE EQ PUSH2 0x237 JUMPI DUP1 PUSH4 0x6F9FB98A EQ PUSH2 0x24D JUMPI DUP1 PUSH4 0x78331552 EQ PUSH2 0x277 JUMPI PUSH2 0x126 JUMP JUMPDEST DUP1 PUSH4 0x17294A11 EQ PUSH2 0x12A JUMPI DUP1 PUSH4 0x2ABFAB4D EQ PUSH2 0x166 JUMPI DUP1 PUSH4 0x3CCFD60B EQ PUSH2 0x190 JUMPI DUP1 PUSH4 0x3F85B887 EQ PUSH2 0x1A6 JUMPI PUSH2 0x126 JUMP JUMPDEST CALLDATASIZE PUSH2 0x126 JUMPI PUSH2 0x124 PUSH2 0x44B JUMP JUMPDEST STOP JUMPDEST PUSH0 PUSH0 REVERT JUMPDEST CALLVALUE DUP1 ISZERO PUSH2 0x135 JUMPI PUSH0 PUSH0 REVERT JUMPDEST POP PUSH2 0x150 PUSH1 0x4 DUP1 CALLDATASIZE SUB DUP2 ADD SWAP1 PUSH2 0x14B SWAP2 SWAP1 PUSH2 0x130E JUMP JUMPDEST PUSH2 0x6CD JUMP JUMPDEST PUSH1 0x40 MLOAD PUSH2 0x15D SWAP2 SWAP1 PUSH2 0x1353 JUMP JUMPDEST PUSH1 0x40 MLOAD DUP1 SWAP2 SUB SWAP1 RETURN JUMPDEST CALLVALUE DUP1 ISZERO PUSH2 0x171 JUMPI PUSH0 PUSH0 REVERT JUMPDEST POP PUSH2 0x17A PUSH2 0x6EA JUMP JUMPDEST PUSH1 0x40 MLOAD PUSH2 0x187 SWAP2 SWAP1 PUSH2 0x1384 JUMP JUMPDEST PUSH1 0x40 MLOAD DUP1 SWAP2 SUB SWAP1 RETURN JUMPDEST CALLVALUE DUP1 ISZERO PUSH2 0x19B JUMPI PUSH0 PUSH0 REVERT JUMPDEST POP PUSH2 0x1A4 PUSH2 0x6F0 JUMP JUMPDEST STOP JUMPDEST CALLVALUE DUP1 ISZERO PUSH2 0x1B1 JUMPI PUSH0 PUSH0 REVERT JUMPDEST POP PUSH2 0x1BA PUSH2 0x900 JUMP JUMPDEST PUSH1 0x40 MLOAD PUSH2 0x1C7 SWAP2 SWAP1 PUSH2 0x1384 JUMP JUMPDEST PUSH1 0x40 MLOAD DUP1 SWAP2 SUB SWAP1 RETURN JUMPDEST CALLVALUE DUP1 ISZERO PUSH2 0x1DB JUMPI PUSH0 PUSH0 REVERT JUMPDEST POP PUSH2 0x1F6 PUSH1 0x4 DUP1 CALLDATASIZE SUB DUP2 ADD SWAP1 PUSH2 0x1F1 SWAP2 SWAP1 PUSH2 0x13C7 JUMP JUMPDEST PUSH2 0x90C JUMP JUMPDEST PUSH1 0x40 MLOAD PUSH2 0x203 SWAP2 SWAP1 PUSH2 0x1401 JUMP JUMPDEST PUSH1 0x40 MLOAD DUP1 SWAP2 SUB SWAP1 RETURN JUMPDEST CALLVALUE DUP1 ISZERO PUSH2 0x217 JUMPI PUSH0 PUSH0 REVERT JUMPDEST POP PUSH2 0x220 PUSH2 0x947 JUMP JUMPDEST PUSH1 0x40 MLOAD PUSH2 0x22E SWAP3 SWAP2 SWAP1 PUSH2 0x1588 JUMP JUMPDEST PUSH1 0x40 MLOAD DUP1 SWAP2 SUB SWAP1 RETURN JUMPDEST CALLVALUE DUP1 ISZERO PUSH2 0x242 JUMPI PUSH0 PUSH0 REVERT JUMPDEST POP PUSH2 0x24B PUSH2 0xCD1 JUMP JUMPDEST STOP JUMPDEST CALLVALUE DUP1 ISZERO PUSH2 0x258 JUMPI PUSH0 PUSH0 REVERT JUMPDEST POP PUSH2 0x261 PUSH2 0xD7A JUMP JUMPDEST PUSH1 0x40 MLOAD PUSH2 0x26E SWAP2 SWAP1 PUSH2 0x1384 JUMP JUMPDEST PUSH1 0x40 MLOAD DUP1 SWAP2 SUB SWAP1 RETURN JUMPDEST CALLVALUE DUP1 ISZERO PUSH2 0x282 JUMPI PUSH0 PUSH0 REVERT JUMPDEST POP PUSH2 0x28B PUSH2 0xD81 JUMP JUMPDEST PUSH1 0x40 MLOAD PUSH2 0x298 SWAP2 SWAP1 PUSH2 0x1384 JUMP JUMPDEST PUSH1 0x40 MLOAD DUP1 SWAP2 SUB SWAP1 RETURN JUMPDEST CALLVALUE DUP1 ISZERO PUSH2 0x2AC JUMPI PUSH0 PUSH0 REVERT JUMPDEST POP PUSH2 0x2B5 PUSH2 0xD87 JUMP JUMPDEST PUSH1 0x40 MLOAD PUSH2 0x2C6 SWAP6 SWAP5 SWAP4 SWAP3 SWAP2 SWAP1 PUSH2 0x15BD JUMP JUMPDEST PUSH1 0x40 MLOAD DUP1 SWAP2 SUB SWAP1 RETURN JUMPDEST CALLVALUE DUP1 ISZERO PUSH2 0x2DA JUMPI PUSH0 PUSH0 REVERT JUMPDEST POP PUSH2 0x2E3 PUSH2 0xDD4 JUMP JUMPDEST PUSH1 0x40 MLOAD PUSH2 0x2F0 SWAP2 SWAP1 PUSH2 0x1401 JUMP JUMPDEST PUSH1 0x40 MLOAD DUP1 SWAP2 SUB SWAP1 RETURN JUMPDEST CALLVALUE DUP1 ISZERO PUSH2 0x304 JUMPI PUSH0 PUSH0 REVERT JUMPDEST POP PUSH2 0x30D PUSH2 0xDF8 JUMP JUMPDEST PUSH1 0x40 MLOAD PUSH2 0x31A SWAP2 SWAP1 PUSH2 0x160E JUMP JUMPDEST PUSH1 0x40 MLOAD DUP1 SWAP2 SUB SWAP1 RETURN JUMPDEST CALLVALUE DUP1 ISZERO PUSH2 0x32E JUMPI PUSH0 PUSH0 REVERT JUMPDEST POP PUSH2 0x349 PUSH1 0x4 DUP1 CALLDATASIZE SUB DUP2 ADD SWAP1 PUSH2 0x344 SWAP2 SWAP1 PUSH2 0x130E JUMP JUMPDEST PUSH2 0xE83 JUMP JUMPDEST PUSH1 0x40 MLOAD PUSH2 0x356 SWAP2 SWAP1 PUSH2 0x1384 JUMP JUMPDEST PUSH1 0x40 MLOAD DUP1 SWAP2 SUB SWAP1 RETURN JUMPDEST CALLVALUE DUP1 ISZERO PUSH2 0x36A JUMPI PUSH0 PUSH0 REVERT JUMPDEST POP PUSH2 0x385 PUSH1 0x4 DUP1 CALLDATASIZE SUB DUP2 ADD SWAP1 PUSH2 0x380 SWAP2 SWAP1 PUSH2 0x130E JUMP JUMPDEST PUSH2 0xEC9 JUMP JUMPDEST PUSH1 0x40 MLOAD PUSH2 0x392 SWAP2 SWAP1 PUSH2 0x1384 JUMP JUMPDEST PUSH1 0x40 MLOAD DUP1 SWAP2 SUB SWAP1 RETURN JUMPDEST CALLVALUE DUP1 ISZERO PUSH2 0x3A6 JUMPI PUSH0 PUSH0 REVERT JUMPDEST POP PUSH2 0x3AF PUSH2 0xEDE JUMP JUMPDEST PUSH1 0x40 MLOAD PUSH2 0x3BC SWAP2 SWAP1 PUSH2 0x1353 JUMP JUMPDEST PUSH1 0x40 MLOAD DUP1 SWAP2 SUB SWAP1 RETURN JUMPDEST CALLVALUE DUP1 ISZERO PUSH2 0x3D0 JUMPI PUSH0 PUSH0 REVERT JUMPDEST POP PUSH2 0x3D9 PUSH2 0xEF0 JUMP JUMPDEST PUSH1 0x40 MLOAD PUSH2 0x3E6 SWAP2 SWAP1 PUSH2 0x1384 JUMP JUMPDEST PUSH1 0x40 MLOAD DUP1 SWAP2 SUB SWAP1 RETURN JUMPDEST PUSH2 0x3F7 PUSH2 0x44B JUMP JUMPDEST STOP JUMPDEST CALLVALUE DUP1 ISZERO PUSH2 0x404 JUMPI PUSH0 PUSH0 REVERT JUMPDEST POP PUSH2 0x40D PUSH2 0xEF6 JUMP JUMPDEST PUSH1 0x40 MLOAD PUSH2 0x41A SWAP2 SWAP1 PUSH2 0x1384 JUMP JUMPDEST PUSH1 0x40 MLOAD DUP1 SWAP2 SUB SWAP1 RETURN JUMPDEST CALLVALUE DUP1 ISZERO PUSH2 0x42E JUMPI PUSH0 PUSH0 REVERT JUMPDEST POP PUSH2 0x449 PUSH1 0x4 DUP1 CALLDATASIZE SUB DUP2 ADD SWAP1 PUSH2 0x444 SWAP2 SWAP1 PUSH2 0x162E JUMP JUMPDEST PUSH2 0xEFC JUMP JUMPDEST STOP JUMPDEST PUSH1 0x5 PUSH0 SWAP1 SLOAD SWAP1 PUSH2 0x100 EXP SWAP1 DIV PUSH1 0xFF AND ISZERO PUSH2 0x4B3 JUMPI PUSH1 0x3 SLOAD TIMESTAMP LT ISZERO DUP1 ISZERO PUSH2 0x473 JUMPI POP PUSH1 0x4 SLOAD TIMESTAMP GT ISZERO JUMPDEST PUSH2 0x4B2 JUMPI PUSH1 0x40 MLOAD PUSH32 0x8C379A000000000000000000000000000000000000000000000000000000000 DUP2 MSTORE PUSH1 0x4 ADD PUSH2 0x4A9 SWAP1 PUSH2 0x16C6 JUMP JUMPDEST PUSH1 0x40 MLOAD DUP1 SWAP2 SUB SWAP1 REVERT JUMPDEST JUMPDEST PUSH0 CALLVALUE GT PUSH2 0x4F5 JUMPI PUSH1 0x40 MLOAD PUSH32 0x8C379A000000000000000000000000000000000000000000000000000000000 DUP2 MSTORE PUSH1 0x4 ADD PUSH2 0x4EC SWAP1 PUSH2 0x1754 JUMP JUMPDEST PUSH1 0x40 MLOAD DUP1 SWAP2 SUB SWAP1 REVERT JUMPDEST PUSH1 0x8 PUSH0 CALLER PUSH20 0xFFFFFFFFFFFFFFFFFFFFFFFFFFFFFFFFFFFFFFFF AND PUSH20 0xFFFFFFFFFFFFFFFFFFFFFFFFFFFFFFFFFFFFFFFF AND DUP2 MSTORE PUSH1 0x20 ADD SWAP1 DUP2 MSTORE PUSH1 0x20 ADD PUSH0 KECCAK256 PUSH0 SWAP1 SLOAD SWAP1 PUSH2 0x100 EXP SWAP1 DIV PUSH1 0xFF AND PUSH2 0x610 JUMPI PUSH1 0x7 CALLER SWAP1 DUP1 PUSH1 0x1 DUP2 SLOAD ADD DUP1 DUP3 SSTORE DUP1 SWAP2 POP POP PUSH1 0x1 SWAP1 SUB SWAP1 PUSH0 MSTORE PUSH1 0x20 PUSH0 KECCAK256 ADD PUSH0 SWAP1 SWAP2 SWAP1 SWAP2 SWAP1 SWAP2 PUSH2 0x100 EXP DUP2 SLOAD DUP2 PUSH20 0xFFFFFFFFFFFFFFFFFFFFFFFFFFFFFFFFFFFFFFFF MUL NOT AND SWAP1 DUP4 PUSH20 0xFFFFFFFFFFFFFFFFFFFFFFFFFFFFFFFFFFFFFFFF AND MUL OR SWAP1 SSTORE POP PUSH1 0x1 PUSH1 0x8 PUSH0 CALLER PUSH20 0xFFFFFFFFFFFFFFFFFFFFFFFFFFFFFFFFFFFFFFFF AND PUSH20 0xFFFFFFFFFFFFFFFFFFFFFFFFFFFFFFFFFFFFFFFF AND DUP2 MSTORE PUSH1 0x20 ADD SWAP1 DUP2 MSTORE PUSH1 0x20 ADD PUSH0 KECCAK256 PUSH0 PUSH2 0x100 EXP DUP2 SLOAD DUP2 PUSH1 0xFF MUL NOT AND SWAP1 DUP4 ISZERO ISZERO MUL OR SWAP1 SSTORE POP PUSH1 0x2 PUSH0 DUP2 SLOAD DUP1 SWAP3 SWAP2 SWAP1 PUSH2 0x60A SWAP1 PUSH2 0x179F JUMP JUMPDEST SWAP2 SWAP1 POP SSTORE POP JUMPDEST CALLVALUE PUSH1 0x6 PUSH0 CALLER PUSH20 0xFFFFFFFFFFFFFFFFFFFFFFFFFFFFFFFFFFFFFFFF AND PUSH20 0xFFFFFFFFFFFFFFFFFFFFFFFFFFFFFFFFFFFFFFFF AND DUP2 MSTORE PUSH1 0x20 ADD SWAP1 DUP2 MSTORE PUSH1 0x20 ADD PUSH0 KECCAK256 PUSH0 DUP3 DUP3 SLOAD PUSH2 0x65C SWAP2 SWAP1 PUSH2 0x17E6 JUMP JUMPDEST SWAP3 POP POP DUP2 SWAP1 SSTORE POP CALLVALUE PUSH1 0x1 PUSH0 DUP3 DUP3 SLOAD PUSH2 0x674 SWAP2 SWAP1 PUSH2 0x17E6 JUMP JUMPDEST SWAP3 POP POP DUP2 SWAP1 SSTORE POP CALLER PUSH20 0xFFFFFFFFFFFFFFFFFFFFFFFFFFFFFFFFFFFFFFFF AND PUSH32 0x4B0304AB2F313234B1CEA012339C8F8C3BF2C8BB357D81A579CFDB35D2E3D030 CALLVALUE TIMESTAMP PUSH1 0x40 MLOAD PUSH2 0x6C3 SWAP3 SWAP2 SWAP1 PUSH2 0x1819 JUMP JUMPDEST PUSH1 0x40 MLOAD DUP1 SWAP2 SUB SWAP1 LOG2 JUMP JUMPDEST PUSH1 0x8 PUSH1 0x20 MSTORE DUP1 PUSH0 MSTORE PUSH1 0x40 PUSH0 KECCAK256 PUSH0 SWAP2 POP SLOAD SWAP1 PUSH2 0x100 EXP SWAP1 DIV PUSH1 0xFF AND DUP2 JUMP JUMPDEST PUSH1 0x2 SLOAD DUP2 JUMP JUMPDEST PUSH0 PUSH0 SWAP1 SLOAD SWAP1 PUSH2 0x100 EXP SWAP1 DIV PUSH20 0xFFFFFFFFFFFFFFFFFFFFFFFFFFFFFFFFFFFFFFFF AND PUSH20 0xFFFFFFFFFFFFFFFFFFFFFFFFFFFFFFFFFFFFFFFF AND CALLER PUSH20 0xFFFFFFFFFFFFFFFFFFFFFFFFFFFFFFFFFFFFFFFF AND EQ PUSH2 0x77E JUMPI PUSH1 0x40 MLOAD PUSH32 0x8C379A000000000000000000000000000000000000000000000000000000000 DUP2 MSTORE PUSH1 0x4 ADD PUSH2 0x775 SWAP1 PUSH2 0x18B0 JUMP JUMPDEST PUSH1 0x40 MLOAD DUP1 SWAP2 SUB SWAP1 REVERT JUMPDEST PUSH0 SELFBALANCE SWAP1 POP PUSH0 DUP2 GT PUSH2 0x7C4 JUMPI PUSH1 0x40 MLOAD PUSH32 0x8C379A000000000000000000000000000000000000000000000000000000000 DUP2 MSTORE PUSH1 0x4 ADD PUSH2 0x7BB SWAP1 PUSH2 0x1918 JUMP JUMPDEST PUSH1 0x40 MLOAD DUP1 SWAP2 SUB SWAP1 REVERT JUMPDEST PUSH0 PUSH0 PUSH0 SWAP1 SLOAD SWAP1 PUSH2 0x100 EXP SWAP1 DIV PUSH20 0xFFFFFFFFFFFFFFFFFFFFFFFFFFFFFFFFFFFFFFFF AND PUSH20 0xFFFFFFFFFFFFFFFFFFFFFFFFFFFFFFFFFFFFFFFF AND DUP3 PUSH1 0x40 MLOAD PUSH2 0x809 SWAP1 PUSH2 0x1963 JUMP JUMPDEST PUSH0 PUSH1 0x40 MLOAD DUP1 DUP4 SUB DUP2 DUP6 DUP8 GAS CALL SWAP3 POP POP POP RETURNDATASIZE DUP1 PUSH0 DUP2 EQ PUSH2 0x843 JUMPI PUSH1 0x40 MLOAD SWAP2 POP PUSH1 0x1F NOT PUSH1 0x3F RETURNDATASIZE ADD AND DUP3 ADD PUSH1 0x40 MSTORE RETURNDATASIZE DUP3 MSTORE RETURNDATASIZE PUSH0 PUSH1 0x20 DUP5 ADD RETURNDATACOPY PUSH2 0x848 JUMP JUMPDEST PUSH1 0x60 SWAP2 POP JUMPDEST POP POP SWAP1 POP DUP1 PUSH2 0x88C JUMPI PUSH1 0x40 MLOAD PUSH32 0x8C379A000000000000000000000000000000000000000000000000000000000 DUP2 MSTORE PUSH1 0x4 ADD PUSH2 0x883 SWAP1 PUSH2 0x19C1 JUMP JUMPDEST PUSH1 0x40 MLOAD DUP1 SWAP2 SUB SWAP1 REVERT JUMPDEST PUSH0 PUSH0 SWAP1 SLOAD SWAP1 PUSH2 0x100 EXP SWAP1 DIV PUSH20 0xFFFFFFFFFFFFFFFFFFFFFFFFFFFFFFFFFFFFFFFF AND PUSH20 0xFFFFFFFFFFFFFFFFFFFFFFFFFFFFFFFFFFFFFFFF AND PUSH32 0xDF273CB619D95419A9CD0EC88123A0538C85064229BAA6363788F743FFF90DEB DUP4 TIMESTAMP PUSH1 0x40 MLOAD PUSH2 0x8F4 SWAP3 SWAP2 SWAP1 PUSH2 0x1819 JUMP JUMPDEST PUSH1 0x40 MLOAD DUP1 SWAP2 SUB SWAP1 LOG2 POP POP JUMP JUMPDEST PUSH0 PUSH1 0x7 DUP1 SLOAD SWAP1 POP SWAP1 POP SWAP1 JUMP JUMPDEST PUSH1 0x7 DUP2 DUP2 SLOAD DUP2 LT PUSH2 0x91B JUMPI PUSH0 DUP1 REVERT JUMPDEST SWAP1 PUSH0 MSTORE PUSH1 0x20 PUSH0 KECCAK256 ADD PUSH0 SWAP2 POP SLOAD SWAP1 PUSH2 0x100 EXP SWAP1 DIV PUSH20 0xFFFFFFFFFFFFFFFFFFFFFFFFFFFFFFFFFFFFFFFF AND DUP2 JUMP JUMPDEST PUSH1 0x60 DUP1 PUSH0 PUSH1 0x3 PUSH1 0x7 DUP1 SLOAD SWAP1 POP LT PUSH2 0x95F JUMPI PUSH1 0x3 PUSH2 0x966 JUMP JUMPDEST PUSH1 0x7 DUP1 SLOAD SWAP1 POP JUMPDEST SWAP1 POP DUP1 PUSH8 0xFFFFFFFFFFFFFFFF DUP2 GT ISZERO PUSH2 0x982 JUMPI PUSH2 0x981 PUSH2 0x19DF JUMP JUMPDEST JUMPDEST PUSH1 0x40 MLOAD SWAP1 DUP1 DUP3 MSTORE DUP1 PUSH1 0x20 MUL PUSH1 0x20 ADD DUP3 ADD PUSH1 0x40 MSTORE DUP1 ISZERO PUSH2 0x9B0 JUMPI DUP2 PUSH1 0x20 ADD PUSH1 0x20 DUP3 MUL DUP1 CALLDATASIZE DUP4 CALLDATACOPY DUP1 DUP3 ADD SWAP2 POP POP SWAP1 POP JUMPDEST POP SWAP3 POP DUP1 PUSH8 0xFFFFFFFFFFFFFFFF DUP2 GT ISZERO PUSH2 0x9CD JUMPI PUSH2 0x9CC PUSH2 0x19DF JUMP JUMPDEST JUMPDEST PUSH1 0x40 MLOAD SWAP1 DUP1 DUP3 MSTORE DUP1 PUSH1 0x20 MUL PUSH1 0x20 ADD DUP3 ADD PUSH1 0x40 MSTORE DUP1 ISZERO PUSH2 0x9FB JUMPI DUP2 PUSH1 0x20 ADD PUSH1 0x20 DUP3 MUL DUP1 CALLDATASIZE DUP4 CALLDATACOPY DUP1 DUP3 ADD SWAP2 POP POP SWAP1 POP JUMPDEST POP SWAP2 POP PUSH0 PUSH1 0x7 DUP1 SLOAD SWAP1 POP SUB PUSH2 0xA10 JUMPI POP PUSH2 0xCCD JUMP JUMPDEST PUSH0 PUSH1 0x7 DUP1 SLOAD SWAP1 POP PUSH8 0xFFFFFFFFFFFFFFFF DUP2 GT ISZERO PUSH2 0xA30 JUMPI PUSH2 0xA2F PUSH2 0x19DF JUMP JUMPDEST JUMPDEST PUSH1 0x40 MLOAD SWAP1 DUP1 DUP3 MSTORE DUP1 PUSH1 0x20 MUL PUSH1 0x20 ADD DUP3 ADD PUSH1 0x40 MSTORE DUP1 ISZERO PUSH2 0xA5E JUMPI DUP2 PUSH1 0x20 ADD PUSH1 0x20 DUP3 MUL DUP1 CALLDATASIZE DUP4 CALLDATACOPY DUP1 DUP3 ADD SWAP2 POP POP SWAP1 POP JUMPDEST POP SWAP1 POP PUSH0 PUSH1 0x7 DUP1 SLOAD SWAP1 POP PUSH8 0xFFFFFFFFFFFFFFFF DUP2 GT ISZERO PUSH2 0xA81 JUMPI PUSH2 0xA80 PUSH2 0x19DF JUMP JUMPDEST JUMPDEST PUSH1 0x40 MLOAD SWAP1 DUP1 DUP3 MSTORE DUP1 PUSH1 0x20 MUL PUSH1 0x20 ADD DUP3 ADD PUSH1 0x40 MSTORE DUP1 ISZERO PUSH2 0xAAF JUMPI DUP2 PUSH1 0x20 ADD PUSH1 0x20 DUP3 MUL DUP1 CALLDATASIZE DUP4 CALLDATACOPY DUP1 DUP3 ADD SWAP2 POP POP SWAP1 POP JUMPDEST POP SWAP1 POP PUSH0 PUSH0 SWAP1 POP JUMPDEST PUSH1 0x7 DUP1 SLOAD SWAP1 POP DUP2 LT ISZERO PUSH2 0xBF2 JUMPI PUSH1 0x7 DUP2 DUP2 SLOAD DUP2 LT PUSH2 0xAD8 JUMPI PUSH2 0xAD7 PUSH2 0x1A0C JUMP JUMPDEST JUMPDEST SWAP1 PUSH0 MSTORE PUSH1 0x20 PUSH0 KECCAK256 ADD PUSH0 SWAP1 SLOAD SWAP1 PUSH2 0x100 EXP SWAP1 DIV PUSH20 0xFFFFFFFFFFFFFFFFFFFFFFFFFFFFFFFFFFFFFFFF AND DUP4 DUP3 DUP2 MLOAD DUP2 LT PUSH2 0xB13 JUMPI PUSH2 0xB12 PUSH2 0x1A0C JUMP JUMPDEST JUMPDEST PUSH1 0x20 MUL PUSH1 0x20 ADD ADD SWAP1 PUSH20 0xFFFFFFFFFFFFFFFFFFFFFFFFFFFFFFFFFFFFFFFF AND SWAP1 DUP2 PUSH20 0xFFFFFFFFFFFFFFFFFFFFFFFFFFFFFFFFFFFFFFFF AND DUP2 MSTORE POP POP PUSH1 0x6 PUSH0 PUSH1 0x7 DUP4 DUP2 SLOAD DUP2 LT PUSH2 0xB64 JUMPI PUSH2 0xB63 PUSH2 0x1A0C JUMP JUMPDEST JUMPDEST SWAP1 PUSH0 MSTORE PUSH1 0x20 PUSH0 KECCAK256 ADD PUSH0 SWAP1 SLOAD SWAP1 PUSH2 0x100 EXP SWAP1 DIV PUSH20 0xFFFFFFFFFFFFFFFFFFFFFFFFFFFFFFFFFFFFFFFF AND PUSH20 0xFFFFFFFFFFFFFFFFFFFFFFFFFFFFFFFFFFFFFFFF AND PUSH20 0xFFFFFFFFFFFFFFFFFFFFFFFFFFFFFFFFFFFFFFFF AND DUP2 MSTORE PUSH1 0x20 ADD SWAP1 DUP2 MSTORE PUSH1 0x20 ADD PUSH0 KECCAK256 SLOAD DUP3 DUP3 DUP2 MLOAD DUP2 LT PUSH2 0xBD9 JUMPI PUSH2 0xBD8 PUSH2 0x1A0C JUMP JUMPDEST JUMPDEST PUSH1 0x20 MUL PUSH1 0x20 ADD ADD DUP2 DUP2 MSTORE POP POP DUP1 DUP1 PUSH1 0x1 ADD SWAP2 POP POP PUSH2 0xAB7 JUMP JUMPDEST POP PUSH2 0xC0C DUP3 DUP3 PUSH0 PUSH1 0x1 DUP6 MLOAD PUSH2 0xC07 SWAP2 SWAP1 PUSH2 0x1A39 JUMP JUMPDEST PUSH2 0x1073 JUMP JUMPDEST PUSH0 PUSH0 SWAP1 POP JUMPDEST DUP4 DUP2 LT ISZERO PUSH2 0xCC8 JUMPI DUP3 DUP2 DUP2 MLOAD DUP2 LT PUSH2 0xC2C JUMPI PUSH2 0xC2B PUSH2 0x1A0C JUMP JUMPDEST JUMPDEST PUSH1 0x20 MUL PUSH1 0x20 ADD ADD MLOAD DUP7 DUP3 DUP2 MLOAD DUP2 LT PUSH2 0xC47 JUMPI PUSH2 0xC46 PUSH2 0x1A0C JUMP JUMPDEST JUMPDEST PUSH1 0x20 MUL PUSH1 0x20 ADD ADD SWAP1 PUSH20 0xFFFFFFFFFFFFFFFFFFFFFFFFFFFFFFFFFFFFFFFF AND SWAP1 DUP2 PUSH20 0xFFFFFFFFFFFFFFFFFFFFFFFFFFFFFFFFFFFFFFFF AND DUP2 MSTORE POP POP DUP2 DUP2 DUP2 MLOAD DUP2 LT PUSH2 0xC94 JUMPI PUSH2 0xC93 PUSH2 0x1A0C JUMP JUMPDEST JUMPDEST PUSH1 0x20 MUL PUSH1 0x20 ADD ADD MLOAD DUP6 DUP3 DUP2 MLOAD DUP2 LT PUSH2 0xCAF JUMPI PUSH2 0xCAE PUSH2 0x1A0C JUMP JUMPDEST JUMPDEST PUSH1 0x20 MUL PUSH1 0x20 ADD ADD DUP2 DUP2 MSTORE POP POP DUP1 DUP1 PUSH1 0x1 ADD SWAP2 POP POP PUSH2 0xC11 JUMP JUMPDEST POP POP POP POP JUMPDEST SWAP1 SWAP2 JUMP JUMPDEST PUSH0 PUSH0 SWAP1 SLOAD SWAP1 PUSH2 0x100 EXP SWAP1 DIV PUSH20 0xFFFFFFFFFFFFFFFFFFFFFFFFFFFFFFFFFFFFFFFF AND PUSH20 0xFFFFFFFFFFFFFFFFFFFFFFFFFFFFFFFFFFFFFFFF AND CALLER PUSH20 0xFFFFFFFFFFFFFFFFFFFFFFFFFFFFFFFFFFFFFFFF AND EQ PUSH2 0xD5F JUMPI PUSH1 0x40 MLOAD PUSH32 0x8C379A000000000000000000000000000000000000000000000000000000000 DUP2 MSTORE PUSH1 0x4 ADD PUSH2 0xD56 SWAP1 PUSH2 0x18B0 JUMP JUMPDEST PUSH1 0x40 MLOAD DUP1 SWAP2 SUB SWAP1 REVERT JUMPDEST PUSH0 PUSH1 0x5 PUSH0 PUSH2 0x100 EXP DUP2 SLOAD DUP2 PUSH1 0xFF MUL NOT AND SWAP1 DUP4 ISZERO ISZERO MUL OR SWAP1 SSTORE POP JUMP JUMPDEST PUSH0 SELFBALANCE SWAP1 POP SWAP1 JUMP JUMPDEST PUSH1 0x3 SLOAD DUP2 JUMP JUMPDEST PUSH0 PUSH0 PUSH0 PUSH0 PUSH0 PUSH0 PUSH0 SWAP1 SLOAD SWAP1 PUSH2 0x100 EXP SWAP1 DIV PUSH20 0xFFFFFFFFFFFFFFFFFFFFFFFFFFFFFFFFFFFFFFFF AND PUSH1 0x1 SLOAD PUSH1 0x2 SLOAD SELFBALANCE PUSH1 0x5 PUSH0 SWAP1 SLOAD SWAP1 PUSH2 0x100 EXP SWAP1 DIV PUSH1 0xFF AND SWAP5 POP SWAP5 POP SWAP5 POP SWAP5 POP SWAP5 POP SWAP1 SWAP2 SWAP3 SWAP4 SWAP5 JUMP JUMPDEST PUSH0 PUSH0 SWAP1 SLOAD SWAP1 PUSH2 0x100 EXP SWAP1 DIV PUSH20 0xFFFFFFFFFFFFFFFFFFFFFFFFFFFFFFFFFFFFFFFF AND DUP2 JUMP JUMPDEST PUSH1 0x60 PUSH1 0x7 DUP1 SLOAD DUP1 PUSH1 0x20 MUL PUSH1 0x20 ADD PUSH1 0x40 MLOAD SWAP1 DUP2 ADD PUSH1 0x40 MSTORE DUP1 SWAP3 SWAP2 SWAP1 DUP2 DUP2 MSTORE PUSH1 0x20 ADD DUP3 DUP1 SLOAD DUP1 ISZERO PUSH2 0xE79 JUMPI PUSH1 0x20 MUL DUP3 ADD SWAP2 SWAP1 PUSH0 MSTORE PUSH1 0x20 PUSH0 KECCAK256 SWAP1 JUMPDEST DUP2 PUSH0 SWAP1 SLOAD SWAP1 PUSH2 0x100 EXP SWAP1 DIV PUSH20 0xFFFFFFFFFFFFFFFFFFFFFFFFFFFFFFFFFFFFFFFF AND PUSH20 0xFFFFFFFFFFFFFFFFFFFFFFFFFFFFFFFFFFFFFFFF AND DUP2 MSTORE PUSH1 0x20 ADD SWAP1 PUSH1 0x1 ADD SWAP1 DUP1 DUP4 GT PUSH2 0xE30 JUMPI JUMPDEST POP POP POP POP POP SWAP1 POP SWAP1 JUMP JUMPDEST PUSH0 PUSH1 0x6 PUSH0 DUP4 PUSH20 0xFFFFFFFFFFFFFFFFFFFFFFFFFFFFFFFFFFFFFFFF AND PUSH20 0xFFFFFFFFFFFFFFFFFFFFFFFFFFFFFFFFFFFFFFFF AND DUP2 MSTORE PUSH1 0x20 ADD SWAP1 DUP2 MSTORE PUSH1 0x20 ADD PUSH0 KECCAK256 SLOAD SWAP1 POP SWAP2 SWAP1 POP JUMP JUMPDEST PUSH1 0x6 PUSH1 0x20 MSTORE DUP1 PUSH0 MSTORE PUSH1 0x40 PUSH0 KECCAK256 PUSH0 SWAP2 POP SWAP1 POP SLOAD DUP2 JUMP JUMPDEST PUSH1 0x5 PUSH0 SWAP1 SLOAD SWAP1 PUSH2 0x100 EXP SWAP1 DIV PUSH1 0xFF AND DUP2 JUMP JUMPDEST PUSH1 0x1 SLOAD DUP2 JUMP JUMPDEST PUSH1 0x4 SLOAD DUP2 JUMP JUMPDEST PUSH0 PUSH0 SWAP1 SLOAD SWAP1 PUSH2 0x100 EXP SWAP1 DIV PUSH20 0xFFFFFFFFFFFFFFFFFFFFFFFFFFFFFFFFFFFFFFFF AND PUSH20 0xFFFFFFFFFFFFFFFFFFFFFFFFFFFFFFFFFFFFFFFF AND CALLER PUSH20 0xFFFFFFFFFFFFFFFFFFFFFFFFFFFFFFFFFFFFFFFF AND EQ PUSH2 0xF8A JUMPI PUSH1 0x40 MLOAD PUSH32 0x8C379A000000000000000000000000000000000000000000000000000000000 DUP2 MSTORE PUSH1 0x4 ADD PUSH2 0xF81 SWAP1 PUSH2 0x18B0 JUMP JUMPDEST PUSH1 0x40 MLOAD DUP1 SWAP2 SUB SWAP1 REVERT JUMPDEST DUP1 DUP3 LT PUSH2 0xFCC JUMPI PUSH1 0x40 MLOAD PUSH32 0x8C379A000000000000000000000000000000000000000000000000000000000 DUP2 MSTORE PUSH1 0x4 ADD PUSH2 0xFC3 SWAP1 PUSH2 0x1ADC JUMP JUMPDEST PUSH1 0x40 MLOAD DUP1 SWAP2 SUB SWAP1 REVERT JUMPDEST TIMESTAMP DUP3 GT PUSH2 0x100E JUMPI PUSH1 0x40 MLOAD PUSH32 0x8C379A000000000000000000000000000000000000000000000000000000000 DUP2 MSTORE PUSH1 0x4 ADD PUSH2 0x1005 SWAP1 PUSH2 0x1B44 JUMP JUMPDEST PUSH1 0x40 MLOAD DUP1 SWAP2 SUB SWAP1 REVERT JUMPDEST DUP2 PUSH1 0x3 DUP2 SWAP1 SSTORE POP DUP1 PUSH1 0x4 DUP2 SWAP1 SSTORE POP PUSH1 0x1 PUSH1 0x5 PUSH0 PUSH2 0x100 EXP DUP2 SLOAD DUP2 PUSH1 0xFF MUL NOT AND SWAP1 DUP4 ISZERO ISZERO MUL OR SWAP1 SSTORE POP PUSH32 0x4A53152CECA2CE059179E272279AFA57041103440E131E57C5A2262E01D607F6 DUP3 DUP3 PUSH1 0x40 MLOAD PUSH2 0x1067 SWAP3 SWAP2 SWAP1 PUSH2 0x1819 JUMP JUMPDEST PUSH1 0x40 MLOAD DUP1 SWAP2 SUB SWAP1 LOG1 POP POP JUMP JUMPDEST PUSH0 DUP3 SWAP1 POP PUSH0 DUP3 SWAP1 POP DUP1 DUP3 SUB PUSH2 0x1089 JUMPI POP POP PUSH2 0x12AA JUMP JUMPDEST PUSH0 DUP6 PUSH1 0x2 DUP7 DUP7 PUSH2 0x1099 SWAP2 SWAP1 PUSH2 0x1B6B JUMP JUMPDEST PUSH2 0x10A3 SWAP2 SWAP1 PUSH2 0x1BD8 JUMP JUMPDEST DUP7 PUSH2 0x10AE SWAP2 SWAP1 PUSH2 0x1C40 JUMP JUMPDEST DUP2 MLOAD DUP2 LT PUSH2 0x10BF JUMPI PUSH2 0x10BE PUSH2 0x1A0C JUMP JUMPDEST JUMPDEST PUSH1 0x20 MUL PUSH1 0x20 ADD ADD MLOAD SWAP1 POP JUMPDEST DUP2 DUP4 SGT PUSH2 0x12A6 JUMPI JUMPDEST DUP1 DUP7 DUP5 DUP2 MLOAD DUP2 LT PUSH2 0x10E6 JUMPI PUSH2 0x10E5 PUSH2 0x1A0C JUMP JUMPDEST JUMPDEST PUSH1 0x20 MUL PUSH1 0x20 ADD ADD MLOAD GT ISZERO PUSH2 0x1107 JUMPI DUP3 DUP1 PUSH2 0x10FF SWAP1 PUSH2 0x1C81 JUMP JUMPDEST SWAP4 POP POP PUSH2 0x10D2 JUMP JUMPDEST JUMPDEST DUP1 DUP7 DUP4 DUP2 MLOAD DUP2 LT PUSH2 0x111C JUMPI PUSH2 0x111B PUSH2 0x1A0C JUMP JUMPDEST JUMPDEST PUSH1 0x20 MUL PUSH1 0x20 ADD ADD MLOAD LT ISZERO PUSH2 0x113D JUMPI DUP2 DUP1 PUSH2 0x1135 SWAP1 PUSH2 0x1CC8 JUMP JUMPDEST SWAP3 POP POP PUSH2 0x1108 JUMP JUMPDEST DUP2 DUP4 SGT PUSH2 0x1285 JUMPI DUP6 DUP3 DUP2 MLOAD DUP2 LT PUSH2 0x1157 JUMPI PUSH2 0x1156 PUSH2 0x1A0C JUMP JUMPDEST JUMPDEST PUSH1 0x20 MUL PUSH1 0x20 ADD ADD MLOAD DUP7 DUP5 DUP2 MLOAD DUP2 LT PUSH2 0x1172 JUMPI PUSH2 0x1171 PUSH2 0x1A0C JUMP JUMPDEST JUMPDEST PUSH1 0x20 MUL PUSH1 0x20 ADD ADD MLOAD DUP8 DUP6 DUP2 MLOAD DUP2 LT PUSH2 0x118D JUMPI PUSH2 0x118C PUSH2 0x1A0C JUMP JUMPDEST JUMPDEST PUSH1 0x20 MUL PUSH1 0x20 ADD ADD DUP9 DUP6 DUP2 MLOAD DUP2 LT PUSH2 0x11A7 JUMPI PUSH2 0x11A6 PUSH2 0x1A0C JUMP JUMPDEST JUMPDEST PUSH1 0x20 MUL PUSH1 0x20 ADD ADD DUP3 DUP2 MSTORE POP DUP3 DUP2 MSTORE POP POP POP DUP7 DUP3 DUP2 MLOAD DUP2 LT PUSH2 0x11CB JUMPI PUSH2 0x11CA PUSH2 0x1A0C JUMP JUMPDEST JUMPDEST PUSH1 0x20 MUL PUSH1 0x20 ADD ADD MLOAD DUP8 DUP5 DUP2 MLOAD DUP2 LT PUSH2 0x11E6 JUMPI PUSH2 0x11E5 PUSH2 0x1A0C JUMP JUMPDEST JUMPDEST PUSH1 0x20 MUL PUSH1 0x20 ADD ADD MLOAD DUP9 DUP6 DUP2 MLOAD DUP2 LT PUSH2 0x1201 JUMPI PUSH2 0x1200 PUSH2 0x1A0C JUMP JUMPDEST JUMPDEST PUSH1 0x20 MUL PUSH1 0x20 ADD ADD DUP10 DUP6 DUP2 MLOAD DUP2 LT PUSH2 0x121B JUMPI PUSH2 0x121A PUSH2 0x1A0C JUMP JUMPDEST JUMPDEST PUSH1 0x20 MUL PUSH1 0x20 ADD ADD DUP3 PUSH20 0xFFFFFFFFFFFFFFFFFFFFFFFFFFFFFFFFFFFFFFFF AND PUSH20 0xFFFFFFFFFFFFFFFFFFFFFFFFFFFFFFFFFFFFFFFF AND DUP2 MSTORE POP DUP3 PUSH20 0xFFFFFFFFFFFFFFFFFFFFFFFFFFFFFFFFFFFFFFFF AND PUSH20 0xFFFFFFFFFFFFFFFFFFFFFFFFFFFFFFFFFFFFFFFF AND DUP2 MSTORE POP POP POP JUMPDEST DUP3 DUP1 PUSH2 0x1290 SWAP1 PUSH2 0x1C81 JUMP JUMPDEST SWAP4 POP POP DUP2 DUP1 PUSH2 0x129E SWAP1 PUSH2 0x1CC8 JUMP JUMPDEST SWAP3 POP POP PUSH2 0x10CA JUMP JUMPDEST POP POP POP JUMPDEST POP POP POP POP JUMP JUMPDEST PUSH0 PUSH0 REVERT JUMPDEST PUSH0 PUSH20 0xFFFFFFFFFFFFFFFFFFFFFFFFFFFFFFFFFFFFFFFF DUP3 AND SWAP1 POP SWAP2 SWAP1 POP JUMP JUMPDEST PUSH0 PUSH2 0x12DD DUP3 PUSH2 0x12B4 JUMP JUMPDEST SWAP1 POP SWAP2 SWAP1 POP JUMP JUMPDEST PUSH2 0x12ED DUP2 PUSH2 0x12D3 JUMP JUMPDEST DUP2 EQ PUSH2 0x12F7 JUMPI PUSH0 PUSH0 REVERT JUMPDEST POP JUMP JUMPDEST PUSH0 DUP2 CALLDATALOAD SWAP1 POP PUSH2 0x1308 DUP2 PUSH2 0x12E4 JUMP JUMPDEST SWAP3 SWAP2 POP POP JUMP JUMPDEST PUSH0 PUSH1 0x20 DUP3 DUP5 SUB SLT ISZERO PUSH2 0x1323 JUMPI PUSH2 0x1322 PUSH2 0x12B0 JUMP JUMPDEST JUMPDEST PUSH0 PUSH2 0x1330 DUP5 DUP3 DUP6 ADD PUSH2 0x12FA JUMP JUMPDEST SWAP2 POP POP SWAP3 SWAP2 POP POP JUMP JUMPDEST PUSH0 DUP2 ISZERO ISZERO SWAP1 POP SWAP2 SWAP1 POP JUMP JUMPDEST PUSH2 0x134D DUP2 PUSH2 0x1339 JUMP JUMPDEST DUP3 MSTORE POP POP JUMP JUMPDEST PUSH0 PUSH1 0x20 DUP3 ADD SWAP1 POP PUSH2 0x1366 PUSH0 DUP4 ADD DUP5 PUSH2 0x1344 JUMP JUMPDEST SWAP3 SWAP2 POP POP JUMP JUMPDEST PUSH0 DUP2 SWAP1 POP SWAP2 SWAP1 POP JUMP JUMPDEST PUSH2 0x137E DUP2 PUSH2 0x136C JUMP JUMPDEST DUP3 MSTORE POP POP JUMP JUMPDEST PUSH0 PUSH1 0x20 DUP3 ADD SWAP1 POP PUSH2 0x1397 PUSH0 DUP4 ADD DUP5 PUSH2 0x1375 JUMP JUMPDEST SWAP3 SWAP2 POP POP JUMP JUMPDEST PUSH2 0x13A6 DUP2 PUSH2 0x136C JUMP JUMPDEST DUP2 EQ PUSH2 0x13B0 JUMPI PUSH0 PUSH0 REVERT JUMPDEST POP JUMP JUMPDEST PUSH0 DUP2 CALLDATALOAD SWAP1 POP PUSH2 0x13C1 DUP2 PUSH2 0x139D JUMP JUMPDEST SWAP3 SWAP2 POP POP JUMP JUMPDEST PUSH0 PUSH1 0x20 DUP3 DUP5 SUB SLT ISZERO PUSH2 0x13DC JUMPI PUSH2 0x13DB PUSH2 0x12B0 JUMP JUMPDEST JUMPDEST PUSH0 PUSH2 0x13E9 DUP5 DUP3 DUP6 ADD PUSH2 0x13B3 JUMP JUMPDEST SWAP2 POP POP SWAP3 SWAP2 POP POP JUMP JUMPDEST PUSH2 0x13FB DUP2 PUSH2 0x12D3 JUMP JUMPDEST DUP3 MSTORE POP POP JUMP JUMPDEST PUSH0 PUSH1 0x20 DUP3 ADD SWAP1 POP PUSH2 0x1414 PUSH0 DUP4 ADD DUP5 PUSH2 0x13F2 JUMP JUMPDEST SWAP3 SWAP2 POP POP JUMP JUMPDEST PUSH0 DUP2 MLOAD SWAP1 POP SWAP2 SWAP1 POP JUMP JUMPDEST PUSH0 DUP3 DUP3 MSTORE PUSH1 0x20 DUP3 ADD SWAP1 POP SWAP3 SWAP2 POP POP JUMP JUMPDEST PUSH0 DUP2 SWAP1 POP PUSH1 0x20 DUP3 ADD SWAP1 POP SWAP2 SWAP1 POP JUMP JUMPDEST PUSH2 0x144C DUP2 PUSH2 0x12D3 JUMP JUMPDEST DUP3 MSTORE POP POP JUMP JUMPDEST PUSH0 PUSH2 0x145D DUP4 DUP4 PUSH2 0x1443 JUMP JUMPDEST PUSH1 0x20 DUP4 ADD SWAP1 POP SWAP3 SWAP2 POP POP JUMP JUMPDEST PUSH0 PUSH1 0x20 DUP3 ADD SWAP1 POP SWAP2 SWAP1 POP JUMP JUMPDEST PUSH0 PUSH2 0x147F DUP3 PUSH2 0x141A JUMP JUMPDEST PUSH2 0x1489 DUP2 DUP6 PUSH2 0x1424 JUMP JUMPDEST SWAP4 POP PUSH2 0x1494 DUP4 PUSH2 0x1434 JUMP JUMPDEST DUP1 PUSH0 JUMPDEST DUP4 DUP2 LT ISZERO PUSH2 0x14C4 JUMPI DUP2 MLOAD PUSH2 0x14AB DUP9 DUP3 PUSH2 0x1452 JUMP JUMPDEST SWAP8 POP PUSH2 0x14B6 DUP4 PUSH2 0x1469 JUMP JUMPDEST SWAP3 POP POP PUSH1 0x1 DUP2 ADD SWAP1 POP PUSH2 0x1497 JUMP JUMPDEST POP DUP6 SWAP4 POP POP POP POP SWAP3 SWAP2 POP POP JUMP JUMPDEST PUSH0 DUP2 MLOAD SWAP1 POP SWAP2 SWAP1 POP JUMP JUMPDEST PUSH0 DUP3 DUP3 MSTORE PUSH1 0x20 DUP3 ADD SWAP1 POP SWAP3 SWAP2 POP POP JUMP JUMPDEST PUSH0 DUP2 SWAP1 POP PUSH1 0x20 DUP3 ADD SWAP1 POP SWAP2 SWAP1 POP JUMP JUMPDEST PUSH2 0x1503 DUP2 PUSH2 0x136C JUMP JUMPDEST DUP3 MSTORE POP POP JUMP JUMPDEST PUSH0 PUSH2 0x1514 DUP4 DUP4 PUSH2 0x14FA JUMP JUMPDEST PUSH1 0x20 DUP4 ADD SWAP1 POP SWAP3 SWAP2 POP POP JUMP JUMPDEST PUSH0 PUSH1 0x20 DUP3 ADD SWAP1 POP SWAP2 SWAP1 POP JUMP JUMPDEST PUSH0 PUSH2 0x1536 DUP3 PUSH2 0x14D1 JUMP JUMPDEST PUSH2 0x1540 DUP2 DUP6 PUSH2 0x14DB JUMP JUMPDEST SWAP4 POP PUSH2 0x154B DUP4 PUSH2 0x14EB JUMP JUMPDEST DUP1 PUSH0 JUMPDEST DUP4 DUP2 LT ISZERO PUSH2 0x157B JUMPI DUP2 MLOAD PUSH2 0x1562 DUP9 DUP3 PUSH2 0x1509 JUMP JUMPDEST SWAP8 POP PUSH2 0x156D DUP4 PUSH2 0x1520 JUMP JUMPDEST SWAP3 POP POP PUSH1 0x1 DUP2 ADD SWAP1 POP PUSH2 0x154E JUMP JUMPDEST POP DUP6 SWAP4 POP POP POP POP SWAP3 SWAP2 POP POP JUMP JUMPDEST PUSH0 PUSH1 0x40 DUP3 ADD SWAP1 POP DUP2 DUP2 SUB PUSH0 DUP4 ADD MSTORE PUSH2 0x15A0 DUP2 DUP6 PUSH2 0x1475 JUMP JUMPDEST SWAP1 POP DUP2 DUP2 SUB PUSH1 0x20 DUP4 ADD MSTORE PUSH2 0x15B4 DUP2 DUP5 PUSH2 0x152C JUMP JUMPDEST SWAP1 POP SWAP4 SWAP3 POP POP POP JUMP JUMPDEST PUSH0 PUSH1 0xA0 DUP3 ADD SWAP1 POP PUSH2 0x15D0 PUSH0 DUP4 ADD DUP9 PUSH2 0x13F2 JUMP JUMPDEST PUSH2 0x15DD PUSH1 0x20 DUP4 ADD DUP8 PUSH2 0x1375 JUMP JUMPDEST PUSH2 0x15EA PUSH1 0x40 DUP4 ADD DUP7 PUSH2 0x1375 JUMP JUMPDEST PUSH2 0x15F7 PUSH1 0x60 DUP4 ADD DUP6 PUSH2 0x1375 JUMP JUMPDEST PUSH2 0x1604 PUSH1 0x80 DUP4 ADD DUP5 PUSH2 0x1344 JUMP JUMPDEST SWAP7 SWAP6 POP POP POP POP POP POP JUMP JUMPDEST PUSH0 PUSH1 0x20 DUP3 ADD SWAP1 POP DUP2 DUP2 SUB PUSH0 DUP4 ADD MSTORE PUSH2 0x1626 DUP2 DUP5 PUSH2 0x1475 JUMP JUMPDEST SWAP1 POP SWAP3 SWAP2 POP POP JUMP JUMPDEST PUSH0 PUSH0 PUSH1 0x40 DUP4 DUP6 SUB SLT ISZERO PUSH2 0x1644 JUMPI PUSH2 0x1643 PUSH2 0x12B0 JUMP JUMPDEST JUMPDEST PUSH0 PUSH2 0x1651 DUP6 DUP3 DUP7 ADD PUSH2 0x13B3 JUMP JUMPDEST SWAP3 POP POP PUSH1 0x20 PUSH2 0x1662 DUP6 DUP3 DUP7 ADD PUSH2 0x13B3 JUMP JUMPDEST SWAP2 POP POP SWAP3 POP SWAP3 SWAP1 POP JUMP JUMPDEST PUSH0 DUP3 DUP3 MSTORE PUSH1 0x20 DUP3 ADD SWAP1 POP SWAP3 SWAP2 POP POP JUMP JUMPDEST PUSH32 0x446F6E6174696F6E20706572696F64206973206E6F7420616374697665000000 PUSH0 DUP3 ADD MSTORE POP JUMP JUMPDEST PUSH0 PUSH2 0x16B0 PUSH1 0x1D DUP4 PUSH2 0x166C JUMP JUMPDEST SWAP2 POP PUSH2 0x16BB DUP3 PUSH2 0x167C JUMP JUMPDEST PUSH1 0x20 DUP3 ADD SWAP1 POP SWAP2 SWAP1 POP JUMP JUMPDEST PUSH0 PUSH1 0x20 DUP3 ADD SWAP1 POP DUP2 DUP2 SUB PUSH0 DUP4 ADD MSTORE PUSH2 0x16DD DUP2 PUSH2 0x16A4 JUMP JUMPDEST SWAP1 POP SWAP2 SWAP1 POP JUMP JUMPDEST PUSH32 0x446F6E6174696F6E20616D6F756E74206D757374206265206772656174657220 PUSH0 DUP3 ADD MSTORE PUSH32 0x7468616E20300000000000000000000000000000000000000000000000000000 PUSH1 0x20 DUP3 ADD MSTORE POP JUMP JUMPDEST PUSH0 PUSH2 0x173E PUSH1 0x26 DUP4 PUSH2 0x166C JUMP JUMPDEST SWAP2 POP PUSH2 0x1749 DUP3 PUSH2 0x16E4 JUMP JUMPDEST PUSH1 0x40 DUP3 ADD SWAP1 POP SWAP2 SWAP1 POP JUMP JUMPDEST PUSH0 PUSH1 0x20 DUP3 ADD SWAP1 POP DUP2 DUP2 SUB PUSH0 DUP4 ADD MSTORE PUSH2 0x176B DUP2 PUSH2 0x1732 JUMP JUMPDEST SWAP1 POP SWAP2 SWAP1 POP JUMP JUMPDEST PUSH32 0x4E487B7100000000000000000000000000000000000000000000000000000000 PUSH0 MSTORE PUSH1 0x11 PUSH1 0x4 MSTORE PUSH1 0x24 PUSH0 REVERT JUMPDEST PUSH0 PUSH2 0x17A9 DUP3 PUSH2 0x136C JUMP JUMPDEST SWAP2 POP PUSH32 0xFFFFFFFFFFFFFFFFFFFFFFFFFFFFFFFFFFFFFFFFFFFFFFFFFFFFFFFFFFFFFFFF DUP3 SUB PUSH2 0x17DB JUMPI PUSH2 0x17DA PUSH2 0x1772 JUMP JUMPDEST JUMPDEST PUSH1 0x1 DUP3 ADD SWAP1 POP SWAP2 SWAP1 POP JUMP JUMPDEST PUSH0 PUSH2 0x17F0 DUP3 PUSH2 0x136C JUMP JUMPDEST SWAP2 POP PUSH2 0x17FB DUP4 PUSH2 0x136C JUMP JUMPDEST SWAP3 POP DUP3 DUP3 ADD SWAP1 POP DUP1 DUP3 GT ISZERO PUSH2 0x1813 JUMPI PUSH2 0x1812 PUSH2 0x1772 JUMP JUMPDEST JUMPDEST SWAP3 SWAP2 POP POP JUMP JUMPDEST PUSH0 PUSH1 0x40 DUP3 ADD SWAP1 POP PUSH2 0x182C PUSH0 DUP4 ADD DUP6 PUSH2 0x1375 JUMP JUMPDEST PUSH2 0x1839 PUSH1 0x20 DUP4 ADD DUP5 PUSH2 0x1375 JUMP JUMPDEST SWAP4 SWAP3 POP POP POP JUMP JUMPDEST PUSH32 0x4F6E6C79206F776E65722063616E2063616C6C20746869732066756E6374696F PUSH0 DUP3 ADD MSTORE PUSH32 0x6E00000000000000000000000000000000000000000000000000000000000000 PUSH1 0x20 DUP3 ADD MSTORE POP JUMP JUMPDEST PUSH0 PUSH2 0x189A PUSH1 0x21 DUP4 PUSH2 0x166C JUMP JUMPDEST SWAP2 POP PUSH2 0x18A5 DUP3 PUSH2 0x1840 JUMP JUMPDEST PUSH1 0x40 DUP3 ADD SWAP1 POP SWAP2 SWAP1 POP JUMP JUMPDEST PUSH0 PUSH1 0x20 DUP3 ADD SWAP1 POP DUP2 DUP2 SUB PUSH0 DUP4 ADD MSTORE PUSH2 0x18C7 DUP2 PUSH2 0x188E JUMP JUMPDEST SWAP1 POP SWAP2 SWAP1 POP JUMP JUMPDEST PUSH32 0x4E6F2066756E647320746F207769746864726177000000000000000000000000 PUSH0 DUP3 ADD MSTORE POP JUMP JUMPDEST PUSH0 PUSH2 0x1902 PUSH1 0x14 DUP4 PUSH2 0x166C JUMP JUMPDEST SWAP2 POP PUSH2 0x190D DUP3 PUSH2 0x18CE JUMP JUMPDEST PUSH1 0x20 DUP3 ADD SWAP1 POP SWAP2 SWAP1 POP JUMP JUMPDEST PUSH0 PUSH1 0x20 DUP3 ADD SWAP1 POP DUP2 DUP2 SUB PUSH0 DUP4 ADD MSTORE PUSH2 0x192F DUP2 PUSH2 0x18F6 JUMP JUMPDEST SWAP1 POP SWAP2 SWAP1 POP JUMP JUMPDEST PUSH0 DUP2 SWAP1 POP SWAP3 SWAP2 POP POP JUMP JUMPDEST POP JUMP JUMPDEST PUSH0 PUSH2 0x194E PUSH0 DUP4 PUSH2 0x1936 JUMP JUMPDEST SWAP2 POP PUSH2 0x1959 DUP3 PUSH2 0x1940 JUMP JUMPDEST PUSH0 DUP3 ADD SWAP1 POP SWAP2 SWAP1 POP JUMP JUMPDEST PUSH0 PUSH2 0x196D DUP3 PUSH2 0x1943 JUMP JUMPDEST SWAP2 POP DUP2 SWAP1 POP SWAP2 SWAP1 POP JUMP JUMPDEST PUSH32 0x5769746864726177616C206661696C6564000000000000000000000000000000 PUSH0 DUP3 ADD MSTORE POP JUMP JUMPDEST PUSH0 PUSH2 0x19AB PUSH1 0x11 DUP4 PUSH2 0x166C JUMP JUMPDEST SWAP2 POP PUSH2 0x19B6 DUP3 PUSH2 0x1977 JUMP JUMPDEST PUSH1 0x20 DUP3 ADD SWAP1 POP SWAP2 SWAP1 POP JUMP JUMPDEST PUSH0 PUSH1 0x20 DUP3 ADD SWAP1 POP DUP2 DUP2 SUB PUSH0 DUP4 ADD MSTORE PUSH2 0x19D8 DUP2 PUSH2 0x199F JUMP JUMPDEST SWAP1 POP SWAP2 SWAP1 POP JUMP JUMPDEST PUSH32 0x4E487B7100000000000000000000000000000000000000000000000000000000 PUSH0 MSTORE PUSH1 0x41 PUSH1 0x4 MSTORE PUSH1 0x24 PUSH0 REVERT JUMPDEST PUSH32 0x4E487B7100000000000000000000000000000000000000000000000000000000 PUSH0 MSTORE PUSH1 0x32 PUSH1 0x4 MSTORE PUSH1 0x24 PUSH0 REVERT JUMPDEST PUSH0 PUSH2 0x1A43 DUP3 PUSH2 0x136C JUMP JUMPDEST SWAP2 POP PUSH2 0x1A4E DUP4 PUSH2 0x136C JUMP JUMPDEST SWAP3 POP DUP3 DUP3 SUB SWAP1 POP DUP2 DUP2 GT ISZERO PUSH2 0x1A66 JUMPI PUSH2 0x1A65 PUSH2 0x1772 JUMP JUMPDEST JUMPDEST SWAP3 SWAP2 POP POP JUMP JUMPDEST PUSH32 0x53746172742074696D65206D757374206265206265666F726520656E64207469 PUSH0 DUP3 ADD MSTORE PUSH32 0x6D65000000000000000000000000000000000000000000000000000000000000 PUSH1 0x20 DUP3 ADD MSTORE POP JUMP JUMPDEST PUSH0 PUSH2 0x1AC6 PUSH1 0x22 DUP4 PUSH2 0x166C JUMP JUMPDEST SWAP2 POP PUSH2 0x1AD1 DUP3 PUSH2 0x1A6C JUMP JUMPDEST PUSH1 0x40 DUP3 ADD SWAP1 POP SWAP2 SWAP1 POP JUMP JUMPDEST PUSH0 PUSH1 0x20 DUP3 ADD SWAP1 POP DUP2 DUP2 SUB PUSH0 DUP4 ADD MSTORE PUSH2 0x1AF3 DUP2 PUSH2 0x1ABA JUMP JUMPDEST SWAP1 POP SWAP2 SWAP1 POP JUMP JUMPDEST PUSH32 0x53746172742074696D65206D75737420626520696E2074686520667574757265 PUSH0 DUP3 ADD MSTORE POP JUMP JUMPDEST PUSH0 PUSH2 0x1B2E PUSH1 0x20 DUP4 PUSH2 0x166C JUMP JUMPDEST SWAP2 POP PUSH2 0x1B39 DUP3 PUSH2 0x1AFA JUMP JUMPDEST PUSH1 0x20 DUP3 ADD SWAP1 POP SWAP2 SWAP1 POP JUMP JUMPDEST PUSH0 PUSH1 0x20 DUP3 ADD SWAP1 POP DUP2 DUP2 SUB PUSH0 DUP4 ADD MSTORE PUSH2 0x1B5B DUP2 PUSH2 0x1B22 JUMP JUMPDEST SWAP1 POP SWAP2 SWAP1 POP JUMP JUMPDEST PUSH0 DUP2 SWAP1 POP SWAP2 SWAP1 POP JUMP JUMPDEST PUSH0 PUSH2 0x1B75 DUP3 PUSH2 0x1B62 JUMP JUMPDEST SWAP2 POP PUSH2 0x1B80 DUP4 PUSH2 0x1B62 JUMP JUMPDEST SWAP3 POP DUP3 DUP3 SUB SWAP1 POP DUP2 DUP2 SLT PUSH0 DUP5 SLT AND DUP3 DUP3 SGT PUSH0 DUP6 SLT ISZERO AND OR ISZERO PUSH2 0x1BA5 JUMPI PUSH2 0x1BA4 PUSH2 0x1772 JUMP JUMPDEST JUMPDEST SWAP3 SWAP2 POP POP JUMP JUMPDEST PUSH32 0x4E487B7100000000000000000000000000000000000000000000000000000000 PUSH0 MSTORE PUSH1 0x12 PUSH1 0x4 MSTORE PUSH1 0x24 PUSH0 REVERT JUMPDEST PUSH0 PUSH2 0x1BE2 DUP3 PUSH2 0x1B62 JUMP JUMPDEST SWAP2 POP PUSH2 0x1BED DUP4 PUSH2 0x1B62 JUMP JUMPDEST SWAP3 POP DUP3 PUSH2 0x1BFD JUMPI PUSH2 0x1BFC PUSH2 0x1BAB JUMP JUMPDEST JUMPDEST PUSH1 0x1 PUSH0 SUB DUP4 EQ PUSH32 0x8000000000000000000000000000000000000000000000000000000000000000 DUP4 EQ AND ISZERO PUSH2 0x1C35 JUMPI PUSH2 0x1C34 PUSH2 0x1772 JUMP JUMPDEST JUMPDEST DUP3 DUP3 SDIV SWAP1 POP SWAP3 SWAP2 POP POP JUMP JUMPDEST PUSH0 PUSH2 0x1C4A DUP3 PUSH2 0x1B62 JUMP JUMPDEST SWAP2 POP PUSH2 0x1C55 DUP4 PUSH2 0x1B62 JUMP JUMPDEST SWAP3 POP DUP3 DUP3 ADD SWAP1 POP DUP3 DUP2 SLT ISZERO PUSH0 DUP4 SLT AND DUP4 DUP3 SLT PUSH0 DUP5 SLT ISZERO AND OR ISZERO PUSH2 0x1C7B JUMPI PUSH2 0x1C7A PUSH2 0x1772 JUMP JUMPDEST JUMPDEST SWAP3 SWAP2 POP POP JUMP JUMPDEST PUSH0 PUSH2 0x1C8B DUP3 PUSH2 0x1B62 JUMP JUMPDEST SWAP2 POP PUSH32 0x7FFFFFFFFFFFFFFFFFFFFFFFFFFFFFFFFFFFFFFFFFFFFFFFFFFFFFFFFFFFFFFF DUP3 SUB PUSH2 0x1CBD JUMPI PUSH2 0x1CBC PUSH2 0x1772 JUMP JUMPDEST JUMPDEST PUSH1 0x1 DUP3 ADD SWAP1 POP SWAP2 SWAP1 POP JUMP JUMPDEST PUSH0 PUSH2 0x1CD2 DUP3 PUSH2 0x1B62 JUMP JUMPDEST SWAP2 POP PUSH32 0x8000000000000000000000000000000000000000000000000000000000000000 DUP3 SUB PUSH2 0x1D04 JUMPI PUSH2 0x1D03 PUSH2 0x1772 JUMP JUMPDEST JUMPDEST PUSH1 0x1 DUP3 SUB SWAP1 POP SWAP2 SWAP1 POP JUMP INVALID LOG2 PUSH5 0x6970667358 0x22 SLT KECCAK256 SGT 0xFC 0xDE 0xCF CALLVALUE SWAP6 SWAP5 0xCD PUSH31 0xDB3F1FC6AB9EC42FBB9D10CD2E730E452C6D08C46C563264736F6C63430008 0x1E STOP CALLER "
				},
				"gasEstimates": {
					"creation": {
						"codeDepositCost": "1498600",
						"executionCost": "50095",
						"totalCost": "1548695"
					},
					"external": {
						"donate()": "infinite",
						"donationCount()": "2471",
						"donationEndTime()": "2513",
						"donationStartTime()": "2536",
						"donations(address)": "2913",
						"donors(uint256)": "4967",
						"getAllDonors()": "infinite",
						"getContractBalance()": "423",
						"getContractInfo()": "infinite",
						"getDonateAmount(address)": "2918",
						"getDonorsCount()": "2530",
						"getTop()": "infinite",
						"hasDonated(address)": "2857",
						"hasTimeLimit()": "2488",
						"owner()": "2552",
						"removeTimeLimit()": "26643",
						"setTimeLimit(uint256,uint256)": "infinite",
						"totalDonations()": "2469",
						"withdraw()": "infinite"
					},
					"internal": {
						"_quickSort(address[] memory,uint256[] memory,int256,int256)": "infinite"
					}
				},
				"methodIdentifiers": {
					"donate()": "ed88c68e",
					"donationCount()": "2abfab4d",
					"donationEndTime()": "f12a4a53",
					"donationStartTime()": "78331552",
					"donations(address)": "cc6cb19a",
					"donors(uint256)": "4abfa163",
					"getAllDonors()": "98e36b04",
					"getContractBalance()": "6f9fb98a",
					"getContractInfo()": "7cc1f867",
					"getDonateAmount(address)": "ba5dccb4",
					"getDonorsCount()": "3f85b887",
					"getTop()": "5c2b1119",
					"hasDonated(address)": "17294a11",
					"hasTimeLimit()": "d8a5787a",
					"owner()": "8da5cb5b",
					"removeTimeLimit()": "5cfa7cbe",
					"setTimeLimit(uint256,uint256)": "f57a4753",
					"totalDonations()": "de2ed893",
					"withdraw()": "3ccfd60b"
				}
			},
			"storageLayout": {
				"storage": [
					{
						"astId": 3,
						"contract": "task2/BeggingContract.sol:BeggingContract",
						"label": "owner",
						"offset": 0,
						"slot": "0",
						"type": "t_address"
					},
					{
						"astId": 5,
						"contract": "task2/BeggingContract.sol:BeggingContract",
						"label": "totalDonations",
						"offset": 0,
						"slot": "1",
						"type": "t_uint256"
					},
					{
						"astId": 7,
						"contract": "task2/BeggingContract.sol:BeggingContract",
						"label": "donationCount",
						"offset": 0,
						"slot": "2",
						"type": "t_uint256"
					},
					{
						"astId": 9,
						"contract": "task2/BeggingContract.sol:BeggingContract",
						"label": "donationStartTime",
						"offset": 0,
						"slot": "3",
						"type": "t_uint256"
					},
					{
						"astId": 11,
						"contract": "task2/BeggingContract.sol:BeggingContract",
						"label": "donationEndTime",
						"offset": 0,
						"slot": "4",
						"type": "t_uint256"
					},
					{
						"astId": 13,
						"contract": "task2/BeggingContract.sol:BeggingContract",
						"label": "hasTimeLimit",
						"offset": 0,
						"slot": "5",
						"type": "t_bool"
					},
					{
						"astId": 17,
						"contract": "task2/BeggingContract.sol:BeggingContract",
						"label": "donations",
						"offset": 0,
						"slot": "6",
						"type": "t_mapping(t_address,t_uint256)"
					},
					{
						"astId": 20,
						"contract": "task2/BeggingContract.sol:BeggingContract",
						"label": "donors",
						"offset": 0,
						"slot": "7",
						"type": "t_array(t_address)dyn_storage"
					},
					{
						"astId": 24,
						"contract": "task2/BeggingContract.sol:BeggingContract",
						"label": "hasDonated",
						"offset": 0,
						"slot": "8",
						"type": "t_mapping(t_address,t_bool)"
					}
				],
				"types": {
					"t_address": {
						"encoding": "inplace",
						"label": "address",
						"numberOfBytes": "20"
					},
					"t_array(t_address)dyn_storage": {
						"base": "t_address",
						"encoding": "dynamic_array",
						"label": "address[]",
						"numberOfBytes": "32"
					},
					"t_bool": {
						"encoding": "inplace",
						"label": "bool",
						"numberOfBytes": "1"
					},
					"t_mapping(t_address,t_bool)": {
						"encoding": "mapping",
						"key": "t_address",
						"label": "mapping(address => bool)",
						"numberOfBytes": "32",
						"value": "t_bool"
					},
					"t_mapping(t_address,t_uint256)": {
						"encoding": "mapping",
						"key": "t_address",
						"label": "mapping(address => uint256)",
						"numberOfBytes": "32",
						"value": "t_uint256"
					},
					"t_uint256": {
						"encoding": "inplace",
						"label": "uint256",
						"numberOfBytes": "32"
					}
				}
			},
			"userdoc": {
				"kind": "user",
				"methods": {},
				"version": 1
			}
		}
	}
}