{
	"base1/whileAddress.sol": {
		"whileAddressContract": {
			"abi": [
				{
					"inputs": [
						{
							"internalType": "address[]",
							"name": "addresses",
							"type": "address[]"
						}
					],
					"name": "batchAddWhitelist",
					"outputs": [],
					"stateMutability": "nonpayable",
					"type": "function"
				},
				{
					"inputs": [
						{
							"internalType": "address[]",
							"name": "accounts",
							"type": "address[]"
						}
					],
					"name": "batchCheckWhitelist",
					"outputs": [
						{
							"internalType": "bool[]",
							"name": "results",
							"type": "bool[]"
						}
					],
					"stateMutability": "view",
					"type": "function"
				},
				{
					"inputs": [],
					"name": "getWhitelistArray",
					"outputs": [
						{
							"internalType": "address[]",
							"name": "",
							"type": "address[]"
						}
					],
					"stateMutability": "view",
					"type": "function"
				},
				{
					"inputs": [],
					"name": "getWhitelistLength",
					"outputs": [
						{
							"internalType": "uint256",
							"name": "",
							"type": "uint256"
						}
					],
					"stateMutability": "view",
					"type": "function"
				},
				{
					"inputs": [
						{
							"internalType": "address[]",
							"name": "addresses",
							"type": "address[]"
						}
					],
					"name": "hasDuplicate",
					"outputs": [
						{
							"internalType": "bool",
							"name": "",
							"type": "bool"
						}
					],
					"stateMutability": "pure",
					"type": "function"
				},
				{
					"inputs": [
						{
							"internalType": "address",
							"name": "account",
							"type": "address"
						}
					],
					"name": "isWhitelisted",
					"outputs": [
						{
							"internalType": "bool",
							"name": "",
							"type": "bool"
						}
					],
					"stateMutability": "view",
					"type": "function"
				},
				{
					"inputs": [
						{
							"internalType": "uint256[]",
							"name": "input",
							"type": "uint256[]"
						}
					],
					"name": "revertArray",
					"outputs": [
						{
							"internalType": "uint256[]",
							"name": "reversed",
							"type": "uint256[]"
						}
					],
					"stateMutability": "pure",
					"type": "function"
				},
				{
					"inputs": [
						{
							"internalType": "address[]",
							"name": "array",
							"type": "address[]"
						}
					],
					"name": "sumEvenAddresses",
					"outputs": [
						{
							"internalType": "uint256",
							"name": "evenSum",
							"type": "uint256"
						}
					],
					"stateMutability": "pure",
					"type": "function"
				},
				{
					"inputs": [
						{
							"internalType": "uint256[]",
							"name": "numbers",
							"type": "uint256[]"
						}
					],
					"name": "sumEvenNumbers",
					"outputs": [
						{
							"internalType": "uint256",
							"name": "evenSum",
							"type": "uint256"
						}
					],
					"stateMutability": "pure",
					"type": "function"
				}
			],
			"devdoc": {
				"kind": "dev",
				"methods": {
					"batchCheckWhitelist(address[])": {
						"details": "批量检查地址是否在白名单中",
						"params": {
							"accounts": "要检查的地址数组"
						},
						"returns": {
							"results": "检查结果数组"
						}
					},
					"getWhitelistArray()": {
						"details": "获取白名单数组（优化版本，避免复制大数组）",
						"returns": {
							"_0": "白名单地址数组"
						}
					},
					"getWhitelistLength()": {
						"details": "获取白名单长度",
						"returns": {
							"_0": "白名单长度"
						}
					},
					"isWhitelisted(address)": {
						"details": "优化的白名单检查（使用mapping，O(1)复杂度）",
						"params": {
							"account": "要检查的地址"
						},
						"returns": {
							"_0": "isWhitelisted 是否在白名单中"
						}
					},
					"revertArray(uint256[])": {
						"details": "优化的数组反转函数（减少内存分配）",
						"params": {
							"input": "输入数组"
						},
						"returns": {
							"reversed": "反转后的数组"
						}
					},
					"sumEvenAddresses(address[])": {
						"details": "计算数组中所有偶数地址的和（将地址转换为uint256处理）",
						"params": {
							"array": "要计算的地址数组"
						},
						"returns": {
							"evenSum": "偶数地址的和"
						}
					},
					"sumEvenNumbers(uint256[])": {
						"details": "计算数组中所有偶数（数值数组）的和",
						"params": {
							"numbers": "数值数组"
						},
						"returns": {
							"evenSum": "偶数的和"
						}
					}
				},
				"version": 1
			},
			"evm": {
				"assembly": "    /* \"base1/whileAddress.sol\":58:5474  contract whileAddressContract {... */\n  mstore(0x40, 0x80)\n  callvalue\n  dup1\n  iszero\n  tag_1\n  jumpi\n  revert(0x00, 0x00)\ntag_1:\n  pop\n  dataSize(sub_0)\n  dup1\n  dataOffset(sub_0)\n  0x00\n  codecopy\n  0x00\n  return\nstop\n\nsub_0: assembly {\n        /* \"base1/whileAddress.sol\":58:5474  contract whileAddressContract {... */\n      mstore(0x40, 0x80)\n      callvalue\n      dup1\n      iszero\n      tag_1\n      jumpi\n      revert(0x00, 0x00)\n    tag_1:\n      pop\n      jumpi(tag_2, lt(calldatasize, 0x04))\n      shr(0xe0, calldataload(0x00))\n      dup1\n      0x9bb86350\n      gt\n      tag_12\n      jumpi\n      dup1\n      0x9bb86350\n      eq\n      tag_7\n      jumpi\n      dup1\n      0xa13202e9\n      eq\n      tag_8\n      jumpi\n      dup1\n      0xd587d5ed\n      eq\n      tag_9\n      jumpi\n      dup1\n      0xec10172d\n      eq\n      tag_10\n      jumpi\n      dup1\n      0xf797eee3\n      eq\n      tag_11\n      jumpi\n      jump(tag_2)\n    tag_12:\n      dup1\n      0x3af32abf\n      eq\n      tag_3\n      jumpi\n      dup1\n      0x60be465a\n      eq\n      tag_4\n      jumpi\n      dup1\n      0x64c20abc\n      eq\n      tag_5\n      jumpi\n      dup1\n      0x8165e932\n      eq\n      tag_6\n      jumpi\n    tag_2:\n      revert(0x00, 0x00)\n        /* \"base1/whileAddress.sol\":3805:3914  function isWhitelisted(address account) public view returns (bool) {... */\n    tag_3:\n      tag_13\n      0x04\n      dup1\n      calldatasize\n      sub\n      dup2\n      add\n      swap1\n      tag_14\n      swap2\n      swap1\n      tag_15\n      jump\t// in\n    tag_14:\n      tag_16\n      jump\t// in\n    tag_13:\n      mload(0x40)\n      tag_17\n      swap2\n      swap1\n      tag_18\n      jump\t// in\n    tag_17:\n      mload(0x40)\n      dup1\n      swap2\n      sub\n      swap1\n      return\n        /* \"base1/whileAddress.sol\":4521:4991  function revertArray(uint256[] memory input) public pure returns(uint256[] memory reversed){... */\n    tag_4:\n      tag_19\n      0x04\n      dup1\n      calldatasize\n      sub\n      dup2\n      add\n      swap1\n      tag_20\n      swap2\n      swap1\n      tag_21\n      jump\t// in\n    tag_20:\n      tag_22\n      jump\t// in\n    tag_19:\n      mload(0x40)\n      tag_23\n      swap2\n      swap1\n      tag_24\n      jump\t// in\n    tag_23:\n      mload(0x40)\n      dup1\n      swap2\n      sub\n      swap1\n      return\n        /* \"base1/whileAddress.sol\":1368:2179  function hasDuplicate(address[] memory addresses) public pure returns (bool ){... */\n    tag_5:\n      tag_25\n      0x04\n      dup1\n      calldatasize\n      sub\n      dup2\n      add\n      swap1\n      tag_26\n      swap2\n      swap1\n      tag_27\n      jump\t// in\n    tag_26:\n      tag_28\n      jump\t// in\n    tag_25:\n      mload(0x40)\n      tag_29\n      swap2\n      swap1\n      tag_18\n      jump\t// in\n    tag_29:\n      mload(0x40)\n      dup1\n      swap2\n      sub\n      swap1\n      return\n        /* \"base1/whileAddress.sol\":5155:5472  function batchCheckWhitelist(address[] memory accounts)  public view returns (bool[] memory results) ... */\n    tag_6:\n      tag_30\n      0x04\n      dup1\n      calldatasize\n      sub\n      dup2\n      add\n      swap1\n      tag_31\n      swap2\n      swap1\n      tag_27\n      jump\t// in\n    tag_31:\n      tag_32\n      jump\t// in\n    tag_30:\n      mload(0x40)\n      tag_33\n      swap2\n      swap1\n      tag_34\n      jump\t// in\n    tag_33:\n      mload(0x40)\n      dup1\n      swap2\n      sub\n      swap1\n      return\n        /* \"base1/whileAddress.sol\":3338:3618  function sumEvenNumbers(uint256[] memory numbers) public pure returns (uint256 evenSum){... */\n    tag_7:\n      tag_35\n      0x04\n      dup1\n      calldatasize\n      sub\n      dup2\n      add\n      swap1\n      tag_36\n      swap2\n      swap1\n      tag_21\n      jump\t// in\n    tag_36:\n      tag_37\n      jump\t// in\n    tag_35:\n      mload(0x40)\n      tag_38\n      swap2\n      swap1\n      tag_39\n      jump\t// in\n    tag_38:\n      mload(0x40)\n      dup1\n      swap2\n      sub\n      swap1\n      return\n        /* \"base1/whileAddress.sol\":4252:4359  function getWhitelistLength() public view returns (uint256) {... */\n    tag_8:\n      tag_40\n      tag_41\n      jump\t// in\n    tag_40:\n      mload(0x40)\n      tag_42\n      swap2\n      swap1\n      tag_39\n      jump\t// in\n    tag_42:\n      mload(0x40)\n      dup1\n      swap2\n      sub\n      swap1\n      return\n        /* \"base1/whileAddress.sol\":2740:3180  function sumEvenAddresses(address[] memory array) public pure returns (uint256 evenSum) {... */\n    tag_9:\n      tag_43\n      0x04\n      dup1\n      calldatasize\n      sub\n      dup2\n      add\n      swap1\n      tag_44\n      swap2\n      swap1\n      tag_27\n      jump\t// in\n    tag_44:\n      tag_45\n      jump\t// in\n    tag_43:\n      mload(0x40)\n      tag_46\n      swap2\n      swap1\n      tag_39\n      jump\t// in\n    tag_46:\n      mload(0x40)\n      dup1\n      swap2\n      sub\n      swap1\n      return\n        /* \"base1/whileAddress.sol\":4053:4161  function getWhitelistArray() public view returns (address[] memory) {... */\n    tag_10:\n      tag_47\n      tag_48\n      jump\t// in\n    tag_47:\n      mload(0x40)\n      tag_49\n      swap2\n      swap1\n      tag_50\n      jump\t// in\n    tag_49:\n      mload(0x40)\n      dup1\n      swap2\n      sub\n      swap1\n      return\n        /* \"base1/whileAddress.sol\":217:1362  function batchAddWhitelist(address [] memory addresses) public {... */\n    tag_11:\n      tag_51\n      0x04\n      dup1\n      calldatasize\n      sub\n      dup2\n      add\n      swap1\n      tag_52\n      swap2\n      swap1\n      tag_27\n      jump\t// in\n    tag_52:\n      tag_53\n      jump\t// in\n    tag_51:\n      stop\n        /* \"base1/whileAddress.sol\":3805:3914  function isWhitelisted(address account) public view returns (bool) {... */\n    tag_16:\n        /* \"base1/whileAddress.sol\":3866:3870  bool */\n      0x00\n        /* \"base1/whileAddress.sol\":3889:3898  whiteList */\n      0x00\n        /* \"base1/whileAddress.sol\":3889:3907  whiteList[account] */\n      0x00\n        /* \"base1/whileAddress.sol\":3899:3906  account */\n      dup4\n        /* \"base1/whileAddress.sol\":3889:3907  whiteList[account] */\n      0xffffffffffffffffffffffffffffffffffffffff\n      and\n      0xffffffffffffffffffffffffffffffffffffffff\n      and\n      dup2\n      mstore\n      0x20\n      add\n      swap1\n      dup2\n      mstore\n      0x20\n      add\n      0x00\n      keccak256\n      0x00\n      swap1\n      sload\n      swap1\n      0x0100\n      exp\n      swap1\n      div\n      0xff\n      and\n        /* \"base1/whileAddress.sol\":3882:3907  return whiteList[account] */\n      swap1\n      pop\n        /* \"base1/whileAddress.sol\":3805:3914  function isWhitelisted(address account) public view returns (bool) {... */\n      swap2\n      swap1\n      pop\n      jump\t// out\n        /* \"base1/whileAddress.sol\":4521:4991  function revertArray(uint256[] memory input) public pure returns(uint256[] memory reversed){... */\n    tag_22:\n        /* \"base1/whileAddress.sol\":4586:4611  uint256[] memory reversed */\n      0x60\n        /* \"base1/whileAddress.sol\":4641:4642  0 */\n      0x00\n        /* \"base1/whileAddress.sol\":4626:4631  input */\n      dup3\n        /* \"base1/whileAddress.sol\":4626:4638  input.length */\n      mload\n        /* \"base1/whileAddress.sol\":4626:4642  input.length ==0 */\n      sub\n        /* \"base1/whileAddress.sol\":4622:4681  if (input.length ==0) {... */\n      tag_56\n      jumpi\n        /* \"base1/whileAddress.sol\":4665:4670  input */\n      dup2\n        /* \"base1/whileAddress.sol\":4658:4670  return input */\n      swap1\n      pop\n      jump(tag_55)\n        /* \"base1/whileAddress.sol\":4622:4681  if (input.length ==0) {... */\n    tag_56:\n        /* \"base1/whileAddress.sol\":4715:4720  input */\n      dup2\n        /* \"base1/whileAddress.sol\":4715:4727  input.length */\n      mload\n        /* \"base1/whileAddress.sol\":4701:4728  new uint256[](input.length) */\n      0xffffffffffffffff\n      dup2\n      gt\n      iszero\n      tag_57\n      jumpi\n      tag_58\n      tag_59\n      jump\t// in\n    tag_58:\n    tag_57:\n      mload(0x40)\n      swap1\n      dup1\n      dup3\n      mstore\n      dup1\n      0x20\n      mul\n      0x20\n      add\n      dup3\n      add\n      0x40\n      mstore\n      dup1\n      iszero\n      tag_60\n      jumpi\n      dup2\n      0x20\n      add\n      0x20\n      dup3\n      mul\n      dup1\n      calldatasize\n      dup4\n      calldatacopy\n      dup1\n      dup3\n      add\n      swap2\n      pop\n      pop\n      swap1\n      pop\n    tag_60:\n      pop\n        /* \"base1/whileAddress.sol\":4690:4728  reversed = new uint256[](input.length) */\n      swap1\n      pop\n        /* \"base1/whileAddress.sol\":4739:4751  uint256 left */\n      0x00\n        /* \"base1/whileAddress.sol\":4752:4753  0 */\n      0x00\n        /* \"base1/whileAddress.sol\":4739:4753  uint256 left=0 */\n      swap1\n      pop\n        /* \"base1/whileAddress.sol\":4763:4776  uint256 right */\n      0x00\n        /* \"base1/whileAddress.sol\":4792:4793  1 */\n      0x01\n        /* \"base1/whileAddress.sol\":4779:4784  input */\n      dup5\n        /* \"base1/whileAddress.sol\":4779:4791  input.length */\n      mload\n        /* \"base1/whileAddress.sol\":4779:4793  input.length-1 */\n      tag_61\n      swap2\n      swap1\n      tag_62\n      jump\t// in\n    tag_61:\n        /* \"base1/whileAddress.sol\":4763:4793  uint256 right = input.length-1 */\n      swap1\n      pop\n        /* \"base1/whileAddress.sol\":4803:4960  while (left<=right){... */\n    tag_63:\n        /* \"base1/whileAddress.sol\":4816:4821  right */\n      dup1\n        /* \"base1/whileAddress.sol\":4810:4814  left */\n      dup3\n        /* \"base1/whileAddress.sol\":4810:4821  left<=right */\n      gt\n        /* \"base1/whileAddress.sol\":4803:4960  while (left<=right){... */\n      tag_64\n      jumpi\n        /* \"base1/whileAddress.sol\":4853:4858  input */\n      dup4\n        /* \"base1/whileAddress.sol\":4859:4864  right */\n      dup2\n        /* \"base1/whileAddress.sol\":4853:4865  input[right] */\n      dup2\n      mload\n      dup2\n      lt\n      tag_65\n      jumpi\n      tag_66\n      tag_67\n      jump\t// in\n    tag_66:\n    tag_65:\n      0x20\n      mul\n      0x20\n      add\n      add\n      mload\n        /* \"base1/whileAddress.sol\":4836:4844  reversed */\n      dup4\n        /* \"base1/whileAddress.sol\":4845:4849  left */\n      dup4\n        /* \"base1/whileAddress.sol\":4836:4850  reversed[left] */\n      dup2\n      mload\n      dup2\n      lt\n      tag_68\n      jumpi\n      tag_69\n      tag_67\n      jump\t// in\n    tag_69:\n    tag_68:\n      0x20\n      mul\n      0x20\n      add\n      add\n        /* \"base1/whileAddress.sol\":4836:4865  reversed[left] = input[right] */\n      dup2\n      dup2\n      mstore\n      pop\n      pop\n        /* \"base1/whileAddress.sol\":4897:4902  input */\n      dup4\n        /* \"base1/whileAddress.sol\":4903:4907  left */\n      dup3\n        /* \"base1/whileAddress.sol\":4897:4908  input[left] */\n      dup2\n      mload\n      dup2\n      lt\n      tag_70\n      jumpi\n      tag_71\n      tag_67\n      jump\t// in\n    tag_71:\n    tag_70:\n      0x20\n      mul\n      0x20\n      add\n      add\n      mload\n        /* \"base1/whileAddress.sol\":4879:4887  reversed */\n      dup4\n        /* \"base1/whileAddress.sol\":4888:4893  right */\n      dup3\n        /* \"base1/whileAddress.sol\":4879:4894  reversed[right] */\n      dup2\n      mload\n      dup2\n      lt\n      tag_72\n      jumpi\n      tag_73\n      tag_67\n      jump\t// in\n    tag_73:\n    tag_72:\n      0x20\n      mul\n      0x20\n      add\n      add\n        /* \"base1/whileAddress.sol\":4879:4908  reversed[right] = input[left] */\n      dup2\n      dup2\n      mstore\n      pop\n      pop\n        /* \"base1/whileAddress.sol\":4922:4928  left++ */\n      dup2\n      dup1\n      tag_74\n      swap1\n      tag_75\n      jump\t// in\n    tag_74:\n      swap3\n      pop\n      pop\n        /* \"base1/whileAddress.sol\":4942:4949  right++ */\n      dup1\n      dup1\n      tag_76\n      swap1\n      tag_75\n      jump\t// in\n    tag_76:\n      swap2\n      pop\n      pop\n        /* \"base1/whileAddress.sol\":4803:4960  while (left<=right){... */\n      jump(tag_63)\n    tag_64:\n        /* \"base1/whileAddress.sol\":4969:4984  return reversed */\n      pop\n      pop\n        /* \"base1/whileAddress.sol\":4521:4991  function revertArray(uint256[] memory input) public pure returns(uint256[] memory reversed){... */\n    tag_55:\n      swap2\n      swap1\n      pop\n      jump\t// out\n        /* \"base1/whileAddress.sol\":1368:2179  function hasDuplicate(address[] memory addresses) public pure returns (bool ){... */\n    tag_28:\n        /* \"base1/whileAddress.sol\":1439:1443  bool */\n      0x00\n        /* \"base1/whileAddress.sol\":1492:1495  256 */\n      0x0100\n        /* \"base1/whileAddress.sol\":1472:1481  addresses */\n      dup3\n        /* \"base1/whileAddress.sol\":1472:1488  addresses.length */\n      mload\n        /* \"base1/whileAddress.sol\":1472:1495  addresses.length <= 256 */\n      gt\n      iszero\n        /* \"base1/whileAddress.sol\":1464:1513  require(addresses.length <= 256, \"array too big\") */\n      tag_78\n      jumpi\n      mload(0x40)\n      0x08c379a000000000000000000000000000000000000000000000000000000000\n      dup2\n      mstore\n      0x04\n      add\n      tag_79\n      swap1\n      tag_80\n      jump\t// in\n    tag_79:\n      mload(0x40)\n      dup1\n      swap2\n      sub\n      swap1\n      revert\n    tag_78:\n        /* \"base1/whileAddress.sol\":1547:1548  1 */\n      0x01\n        /* \"base1/whileAddress.sol\":1527:1536  addresses */\n      dup3\n        /* \"base1/whileAddress.sol\":1527:1543  addresses.length */\n      mload\n        /* \"base1/whileAddress.sol\":1527:1548  addresses.length <= 1 */\n      gt\n        /* \"base1/whileAddress.sol\":1523:1562  if (addresses.length <= 1) return false */\n      tag_81\n      jumpi\n        /* \"base1/whileAddress.sol\":1557:1562  false */\n      0x00\n        /* \"base1/whileAddress.sol\":1550:1562  return false */\n      swap1\n      pop\n      jump(tag_77)\n        /* \"base1/whileAddress.sol\":1523:1562  if (addresses.length <= 1) return false */\n    tag_81:\n        /* \"base1/whileAddress.sol\":1645:1647  10 */\n      0x0a\n        /* \"base1/whileAddress.sol\":1625:1634  addresses */\n      dup3\n        /* \"base1/whileAddress.sol\":1625:1641  addresses.length */\n      mload\n        /* \"base1/whileAddress.sol\":1625:1647  addresses.length <= 10 */\n      gt\n        /* \"base1/whileAddress.sol\":1621:1967  if (addresses.length <= 10) {... */\n      tag_82\n      jumpi\n        /* \"base1/whileAddress.sol\":1668:1677  uint256 i */\n      0x00\n        /* \"base1/whileAddress.sol\":1680:1681  0 */\n      0x00\n        /* \"base1/whileAddress.sol\":1668:1681  uint256 i = 0 */\n      swap1\n      pop\n        /* \"base1/whileAddress.sol\":1663:1931  for (uint256 i = 0; i < addresses.length - 1; i++) {... */\n    tag_83:\n        /* \"base1/whileAddress.sol\":1706:1707  1 */\n      0x01\n        /* \"base1/whileAddress.sol\":1687:1696  addresses */\n      dup4\n        /* \"base1/whileAddress.sol\":1687:1703  addresses.length */\n      mload\n        /* \"base1/whileAddress.sol\":1687:1707  addresses.length - 1 */\n      tag_86\n      swap2\n      swap1\n      tag_62\n      jump\t// in\n    tag_86:\n        /* \"base1/whileAddress.sol\":1683:1684  i */\n      dup2\n        /* \"base1/whileAddress.sol\":1683:1707  i < addresses.length - 1 */\n      lt\n        /* \"base1/whileAddress.sol\":1663:1931  for (uint256 i = 0; i < addresses.length - 1; i++) {... */\n      iszero\n      tag_84\n      jumpi\n        /* \"base1/whileAddress.sol\":1737:1746  uint256 j */\n      0x00\n        /* \"base1/whileAddress.sol\":1753:1754  1 */\n      0x01\n        /* \"base1/whileAddress.sol\":1749:1750  i */\n      dup3\n        /* \"base1/whileAddress.sol\":1749:1754  i + 1 */\n      tag_90\n      swap2\n      swap1\n      tag_91\n      jump\t// in\n    tag_90:\n        /* \"base1/whileAddress.sol\":1737:1754  uint256 j = i + 1 */\n      swap1\n      pop\n        /* \"base1/whileAddress.sol\":1732:1917  for (uint256 j = i + 1; j < addresses.length; j++) {... */\n    tag_87:\n        /* \"base1/whileAddress.sol\":1760:1769  addresses */\n      dup4\n        /* \"base1/whileAddress.sol\":1760:1776  addresses.length */\n      mload\n        /* \"base1/whileAddress.sol\":1756:1757  j */\n      dup2\n        /* \"base1/whileAddress.sol\":1756:1776  j < addresses.length */\n      lt\n        /* \"base1/whileAddress.sol\":1732:1917  for (uint256 j = i + 1; j < addresses.length; j++) {... */\n      iszero\n      tag_88\n      jumpi\n        /* \"base1/whileAddress.sol\":1825:1834  addresses */\n      dup4\n        /* \"base1/whileAddress.sol\":1835:1836  j */\n      dup2\n        /* \"base1/whileAddress.sol\":1825:1837  addresses[j] */\n      dup2\n      mload\n      dup2\n      lt\n      tag_92\n      jumpi\n      tag_93\n      tag_67\n      jump\t// in\n    tag_93:\n    tag_92:\n      0x20\n      mul\n      0x20\n      add\n      add\n      mload\n        /* \"base1/whileAddress.sol\":1809:1837  addresses[i] == addresses[j] */\n      0xffffffffffffffffffffffffffffffffffffffff\n      and\n        /* \"base1/whileAddress.sol\":1809:1818  addresses */\n      dup5\n        /* \"base1/whileAddress.sol\":1819:1820  i */\n      dup4\n        /* \"base1/whileAddress.sol\":1809:1821  addresses[i] */\n      dup2\n      mload\n      dup2\n      lt\n      tag_94\n      jumpi\n      tag_95\n      tag_67\n      jump\t// in\n    tag_95:\n    tag_94:\n      0x20\n      mul\n      0x20\n      add\n      add\n      mload\n        /* \"base1/whileAddress.sol\":1809:1837  addresses[i] == addresses[j] */\n      0xffffffffffffffffffffffffffffffffffffffff\n      and\n      sub\n        /* \"base1/whileAddress.sol\":1805:1899  if (addresses[i] == addresses[j]) {... */\n      tag_96\n      jumpi\n        /* \"base1/whileAddress.sol\":1872:1876  true */\n      0x01\n        /* \"base1/whileAddress.sol\":1865:1876  return true */\n      swap3\n      pop\n      pop\n      pop\n      jump(tag_77)\n        /* \"base1/whileAddress.sol\":1805:1899  if (addresses[i] == addresses[j]) {... */\n    tag_96:\n        /* \"base1/whileAddress.sol\":1778:1781  j++ */\n      dup1\n      dup1\n      0x01\n      add\n      swap2\n      pop\n      pop\n        /* \"base1/whileAddress.sol\":1732:1917  for (uint256 j = i + 1; j < addresses.length; j++) {... */\n      jump(tag_87)\n    tag_88:\n      pop\n        /* \"base1/whileAddress.sol\":1709:1712  i++ */\n      dup1\n      dup1\n      0x01\n      add\n      swap2\n      pop\n      pop\n        /* \"base1/whileAddress.sol\":1663:1931  for (uint256 i = 0; i < addresses.length - 1; i++) {... */\n      jump(tag_83)\n    tag_84:\n      pop\n        /* \"base1/whileAddress.sol\":1951:1956  false */\n      0x00\n        /* \"base1/whileAddress.sol\":1944:1956  return false */\n      swap1\n      pop\n      jump(tag_77)\n        /* \"base1/whileAddress.sol\":1621:1967  if (addresses.length <= 10) {... */\n    tag_82:\n        /* \"base1/whileAddress.sol\":2135:2172  _checkLargeArrayDuplicates(addresses) */\n      tag_97\n        /* \"base1/whileAddress.sol\":2162:2171  addresses */\n      dup3\n        /* \"base1/whileAddress.sol\":2135:2161  _checkLargeArrayDuplicates */\n      tag_98\n        /* \"base1/whileAddress.sol\":2135:2172  _checkLargeArrayDuplicates(addresses) */\n      jump\t// in\n    tag_97:\n        /* \"base1/whileAddress.sol\":2128:2172  return _checkLargeArrayDuplicates(addresses) */\n      swap1\n      pop\n        /* \"base1/whileAddress.sol\":1368:2179  function hasDuplicate(address[] memory addresses) public pure returns (bool ){... */\n    tag_77:\n      swap2\n      swap1\n      pop\n      jump\t// out\n        /* \"base1/whileAddress.sol\":5155:5472  function batchCheckWhitelist(address[] memory accounts)  public view returns (bool[] memory results) ... */\n    tag_32:\n        /* \"base1/whileAddress.sol\":5233:5254  bool[] memory results */\n      0x60\n        /* \"base1/whileAddress.sol\":5292:5300  accounts */\n      dup2\n        /* \"base1/whileAddress.sol\":5292:5307  accounts.length */\n      mload\n        /* \"base1/whileAddress.sol\":5281:5308  new bool[](accounts.length) */\n      0xffffffffffffffff\n      dup2\n      gt\n      iszero\n      tag_100\n      jumpi\n      tag_101\n      tag_59\n      jump\t// in\n    tag_101:\n    tag_100:\n      mload(0x40)\n      swap1\n      dup1\n      dup3\n      mstore\n      dup1\n      0x20\n      mul\n      0x20\n      add\n      dup3\n      add\n      0x40\n      mstore\n      dup1\n      iszero\n      tag_102\n      jumpi\n      dup2\n      0x20\n      add\n      0x20\n      dup3\n      mul\n      dup1\n      calldatasize\n      dup4\n      calldatacopy\n      dup1\n      dup3\n      add\n      swap2\n      pop\n      pop\n      swap1\n      pop\n    tag_102:\n      pop\n        /* \"base1/whileAddress.sol\":5271:5308  results = new bool[](accounts.length) */\n      swap1\n      pop\n        /* \"base1/whileAddress.sol\":5332:5341  uint256 i */\n      0x00\n        /* \"base1/whileAddress.sol\":5344:5345  0 */\n      0x00\n        /* \"base1/whileAddress.sol\":5332:5345  uint256 i = 0 */\n      swap1\n      pop\n        /* \"base1/whileAddress.sol\":5327:5433  for (uint256 i = 0; i < accounts.length; i++) {... */\n    tag_103:\n        /* \"base1/whileAddress.sol\":5351:5359  accounts */\n      dup3\n        /* \"base1/whileAddress.sol\":5351:5366  accounts.length */\n      mload\n        /* \"base1/whileAddress.sol\":5347:5348  i */\n      dup2\n        /* \"base1/whileAddress.sol\":5347:5366  i < accounts.length */\n      lt\n        /* \"base1/whileAddress.sol\":5327:5433  for (uint256 i = 0; i < accounts.length; i++) {... */\n      iszero\n      tag_104\n      jumpi\n        /* \"base1/whileAddress.sol\":5400:5409  whiteList */\n      0x00\n        /* \"base1/whileAddress.sol\":5400:5422  whiteList[accounts[i]] */\n      0x00\n        /* \"base1/whileAddress.sol\":5410:5418  accounts */\n      dup5\n        /* \"base1/whileAddress.sol\":5419:5420  i */\n      dup4\n        /* \"base1/whileAddress.sol\":5410:5421  accounts[i] */\n      dup2\n      mload\n      dup2\n      lt\n      tag_106\n      jumpi\n      tag_107\n      tag_67\n      jump\t// in\n    tag_107:\n    tag_106:\n      0x20\n      mul\n      0x20\n      add\n      add\n      mload\n        /* \"base1/whileAddress.sol\":5400:5422  whiteList[accounts[i]] */\n      0xffffffffffffffffffffffffffffffffffffffff\n      and\n      0xffffffffffffffffffffffffffffffffffffffff\n      and\n      dup2\n      mstore\n      0x20\n      add\n      swap1\n      dup2\n      mstore\n      0x20\n      add\n      0x00\n      keccak256\n      0x00\n      swap1\n      sload\n      swap1\n      0x0100\n      exp\n      swap1\n      div\n      0xff\n      and\n        /* \"base1/whileAddress.sol\":5387:5394  results */\n      dup3\n        /* \"base1/whileAddress.sol\":5395:5396  i */\n      dup3\n        /* \"base1/whileAddress.sol\":5387:5397  results[i] */\n      dup2\n      mload\n      dup2\n      lt\n      tag_108\n      jumpi\n      tag_109\n      tag_67\n      jump\t// in\n    tag_109:\n    tag_108:\n      0x20\n      mul\n      0x20\n      add\n      add\n        /* \"base1/whileAddress.sol\":5387:5422  results[i] = whiteList[accounts[i]] */\n      swap1\n      iszero\n      iszero\n      swap1\n      dup2\n      iszero\n      iszero\n      dup2\n      mstore\n      pop\n      pop\n        /* \"base1/whileAddress.sol\":5368:5371  i++ */\n      dup1\n      dup1\n      0x01\n      add\n      swap2\n      pop\n      pop\n        /* \"base1/whileAddress.sol\":5327:5433  for (uint256 i = 0; i < accounts.length; i++) {... */\n      jump(tag_103)\n    tag_104:\n      pop\n        /* \"base1/whileAddress.sol\":5155:5472  function batchCheckWhitelist(address[] memory accounts)  public view returns (bool[] memory results) ... */\n      swap2\n      swap1\n      pop\n      jump\t// out\n        /* \"base1/whileAddress.sol\":3338:3618  function sumEvenNumbers(uint256[] memory numbers) public pure returns (uint256 evenSum){... */\n    tag_37:\n        /* \"base1/whileAddress.sol\":3409:3424  uint256 evenSum */\n      0x00\n        /* \"base1/whileAddress.sol\":3444:3445  0 */\n      0x00\n        /* \"base1/whileAddress.sol\":3435:3445  evenSum =0 */\n      swap1\n      pop\n        /* \"base1/whileAddress.sol\":3460:3466  uint i */\n      0x00\n        /* \"base1/whileAddress.sol\":3467:3468  0 */\n      0x00\n        /* \"base1/whileAddress.sol\":3460:3468  uint i=0 */\n      swap1\n      pop\n        /* \"base1/whileAddress.sol\":3456:3586  for(uint i=0;i<numbers.length;i++){... */\n    tag_111:\n        /* \"base1/whileAddress.sol\":3471:3478  numbers */\n      dup3\n        /* \"base1/whileAddress.sol\":3471:3485  numbers.length */\n      mload\n        /* \"base1/whileAddress.sol\":3469:3470  i */\n      dup2\n        /* \"base1/whileAddress.sol\":3469:3485  i<numbers.length */\n      lt\n        /* \"base1/whileAddress.sol\":3456:3586  for(uint i=0;i<numbers.length;i++){... */\n      iszero\n      tag_112\n      jumpi\n        /* \"base1/whileAddress.sol\":3521:3522  0 */\n      0x00\n        /* \"base1/whileAddress.sol\":3518:3519  1 */\n      0x01\n        /* \"base1/whileAddress.sol\":3507:3514  numbers */\n      dup5\n        /* \"base1/whileAddress.sol\":3515:3516  i */\n      dup4\n        /* \"base1/whileAddress.sol\":3507:3517  numbers[i] */\n      dup2\n      mload\n      dup2\n      lt\n      tag_114\n      jumpi\n      tag_115\n      tag_67\n      jump\t// in\n    tag_115:\n    tag_114:\n      0x20\n      mul\n      0x20\n      add\n      add\n      mload\n        /* \"base1/whileAddress.sol\":3507:3519  numbers[i]&1 */\n      and\n        /* \"base1/whileAddress.sol\":3507:3522  numbers[i]&1==0 */\n      sub\n        /* \"base1/whileAddress.sol\":3504:3576  if(numbers[i]&1==0){... */\n      tag_116\n      jumpi\n        /* \"base1/whileAddress.sol\":3551:3558  numbers */\n      dup3\n        /* \"base1/whileAddress.sol\":3559:3560  i */\n      dup2\n        /* \"base1/whileAddress.sol\":3551:3561  numbers[i] */\n      dup2\n      mload\n      dup2\n      lt\n      tag_117\n      jumpi\n      tag_118\n      tag_67\n      jump\t// in\n    tag_118:\n    tag_117:\n      0x20\n      mul\n      0x20\n      add\n      add\n      mload\n        /* \"base1/whileAddress.sol\":3541:3561  evenSum +=numbers[i] */\n      dup3\n      tag_119\n      swap2\n      swap1\n      tag_91\n      jump\t// in\n    tag_119:\n      swap2\n      pop\n        /* \"base1/whileAddress.sol\":3504:3576  if(numbers[i]&1==0){... */\n    tag_116:\n        /* \"base1/whileAddress.sol\":3486:3489  i++ */\n      dup1\n      dup1\n      0x01\n      add\n      swap2\n      pop\n      pop\n        /* \"base1/whileAddress.sol\":3456:3586  for(uint i=0;i<numbers.length;i++){... */\n      jump(tag_111)\n    tag_112:\n      pop\n        /* \"base1/whileAddress.sol\":3338:3618  function sumEvenNumbers(uint256[] memory numbers) public pure returns (uint256 evenSum){... */\n      swap2\n      swap1\n      pop\n      jump\t// out\n        /* \"base1/whileAddress.sol\":4252:4359  function getWhitelistLength() public view returns (uint256) {... */\n    tag_41:\n        /* \"base1/whileAddress.sol\":4303:4310  uint256 */\n      0x00\n        /* \"base1/whileAddress.sol\":4329:4345  whiteAddressList */\n      0x01\n        /* \"base1/whileAddress.sol\":4329:4352  whiteAddressList.length */\n      dup1\n      sload\n      swap1\n      pop\n        /* \"base1/whileAddress.sol\":4322:4352  return whiteAddressList.length */\n      swap1\n      pop\n        /* \"base1/whileAddress.sol\":4252:4359  function getWhitelistLength() public view returns (uint256) {... */\n      swap1\n      jump\t// out\n        /* \"base1/whileAddress.sol\":2740:3180  function sumEvenAddresses(address[] memory array) public pure returns (uint256 evenSum) {... */\n    tag_45:\n        /* \"base1/whileAddress.sol\":2811:2826  uint256 evenSum */\n      0x00\n        /* \"base1/whileAddress.sol\":2848:2849  0 */\n      0x00\n        /* \"base1/whileAddress.sol\":2838:2849  evenSum = 0 */\n      swap1\n      pop\n        /* \"base1/whileAddress.sol\":2873:2882  uint256 i */\n      0x00\n        /* \"base1/whileAddress.sol\":2885:2886  0 */\n      0x00\n        /* \"base1/whileAddress.sol\":2873:2886  uint256 i = 0 */\n      swap1\n      pop\n        /* \"base1/whileAddress.sol\":2868:3141  for (uint256 i = 0; i < array.length; i++) {... */\n    tag_122:\n        /* \"base1/whileAddress.sol\":2892:2897  array */\n      dup3\n        /* \"base1/whileAddress.sol\":2892:2904  array.length */\n      mload\n        /* \"base1/whileAddress.sol\":2888:2889  i */\n      dup2\n        /* \"base1/whileAddress.sol\":2888:2904  i < array.length */\n      lt\n        /* \"base1/whileAddress.sol\":2868:3141  for (uint256 i = 0; i < array.length; i++) {... */\n      iszero\n      tag_123\n      jumpi\n        /* \"base1/whileAddress.sol\":2925:2942  uint256 addrValue */\n      0x00\n        /* \"base1/whileAddress.sol\":2961:2966  array */\n      dup4\n        /* \"base1/whileAddress.sol\":2967:2968  i */\n      dup3\n        /* \"base1/whileAddress.sol\":2961:2969  array[i] */\n      dup2\n      mload\n      dup2\n      lt\n      tag_125\n      jumpi\n      tag_126\n      tag_67\n      jump\t// in\n    tag_126:\n    tag_125:\n      0x20\n      mul\n      0x20\n      add\n      add\n      mload\n        /* \"base1/whileAddress.sol\":2945:2971  uint256(uint160(array[i])) */\n      0xffffffffffffffffffffffffffffffffffffffff\n      and\n        /* \"base1/whileAddress.sol\":2925:2971  uint256 addrValue = uint256(uint160(array[i])) */\n      swap1\n      pop\n        /* \"base1/whileAddress.sol\":3075:3076  0 */\n      0x00\n        /* \"base1/whileAddress.sol\":3070:3071  1 */\n      0x01\n        /* \"base1/whileAddress.sol\":3058:3067  addrValue */\n      dup3\n        /* \"base1/whileAddress.sol\":3058:3071  addrValue & 1 */\n      and\n        /* \"base1/whileAddress.sol\":3058:3076  addrValue & 1 == 0 */\n      sub\n        /* \"base1/whileAddress.sol\":3054:3131  if (addrValue & 1 == 0) {... */\n      tag_127\n      jumpi\n        /* \"base1/whileAddress.sol\":3107:3116  addrValue */\n      dup1\n        /* \"base1/whileAddress.sol\":3096:3116  evenSum += addrValue */\n      dup4\n      tag_128\n      swap2\n      swap1\n      tag_91\n      jump\t// in\n    tag_128:\n      swap3\n      pop\n        /* \"base1/whileAddress.sol\":3054:3131  if (addrValue & 1 == 0) {... */\n    tag_127:\n        /* \"base1/whileAddress.sol\":2911:3141  {... */\n      pop\n        /* \"base1/whileAddress.sol\":2906:2909  i++ */\n      dup1\n      dup1\n      0x01\n      add\n      swap2\n      pop\n      pop\n        /* \"base1/whileAddress.sol\":2868:3141  for (uint256 i = 0; i < array.length; i++) {... */\n      jump(tag_122)\n    tag_123:\n      pop\n        /* \"base1/whileAddress.sol\":2740:3180  function sumEvenAddresses(address[] memory array) public pure returns (uint256 evenSum) {... */\n      swap2\n      swap1\n      pop\n      jump\t// out\n        /* \"base1/whileAddress.sol\":4053:4161  function getWhitelistArray() public view returns (address[] memory) {... */\n    tag_48:\n        /* \"base1/whileAddress.sol\":4103:4119  address[] memory */\n      0x60\n        /* \"base1/whileAddress.sol\":4138:4154  whiteAddressList */\n      0x01\n        /* \"base1/whileAddress.sol\":4131:4154  return whiteAddressList */\n      dup1\n      sload\n      dup1\n      0x20\n      mul\n      0x20\n      add\n      mload(0x40)\n      swap1\n      dup2\n      add\n      0x40\n      mstore\n      dup1\n      swap3\n      swap2\n      swap1\n      dup2\n      dup2\n      mstore\n      0x20\n      add\n      dup3\n      dup1\n      sload\n      dup1\n      iszero\n      tag_130\n      jumpi\n      0x20\n      mul\n      dup3\n      add\n      swap2\n      swap1\n      0x00\n      mstore\n      keccak256(0x00, 0x20)\n      swap1\n    tag_131:\n      dup2\n      0x00\n      swap1\n      sload\n      swap1\n      0x0100\n      exp\n      swap1\n      div\n      0xffffffffffffffffffffffffffffffffffffffff\n      and\n      0xffffffffffffffffffffffffffffffffffffffff\n      and\n      dup2\n      mstore\n      0x20\n      add\n      swap1\n      0x01\n      add\n      swap1\n      dup1\n      dup4\n      gt\n      tag_131\n      jumpi\n    tag_130:\n      pop\n      pop\n      pop\n      pop\n      pop\n      swap1\n      pop\n        /* \"base1/whileAddress.sol\":4053:4161  function getWhitelistArray() public view returns (address[] memory) {... */\n      swap1\n      jump\t// out\n        /* \"base1/whileAddress.sol\":217:1362  function batchAddWhitelist(address [] memory addresses) public {... */\n    tag_53:\n        /* \"base1/whileAddress.sol\":290:313  uint256 newAddressCount */\n      0x00\n        /* \"base1/whileAddress.sol\":315:316  0 */\n      0x00\n        /* \"base1/whileAddress.sol\":290:316  uint256 newAddressCount =0 */\n      swap1\n      pop\n        /* \"base1/whileAddress.sol\":331:337  uint i */\n      0x00\n        /* \"base1/whileAddress.sol\":338:339  0 */\n      0x00\n        /* \"base1/whileAddress.sol\":331:339  uint i=0 */\n      swap1\n      pop\n        /* \"base1/whileAddress.sol\":327:491  for(uint i=0;i<addresses.length;i++){... */\n    tag_133:\n        /* \"base1/whileAddress.sol\":342:351  addresses */\n      dup3\n        /* \"base1/whileAddress.sol\":342:358  addresses.length */\n      mload\n        /* \"base1/whileAddress.sol\":340:341  i */\n      dup2\n        /* \"base1/whileAddress.sol\":340:358  i<addresses.length */\n      lt\n        /* \"base1/whileAddress.sol\":327:491  for(uint i=0;i<addresses.length;i++){... */\n      iszero\n      tag_134\n      jumpi\n        /* \"base1/whileAddress.sol\":381:390  whiteList */\n      0x00\n        /* \"base1/whileAddress.sol\":381:404  whiteList[addresses[i]] */\n      0x00\n        /* \"base1/whileAddress.sol\":391:400  addresses */\n      dup5\n        /* \"base1/whileAddress.sol\":401:402  i */\n      dup4\n        /* \"base1/whileAddress.sol\":391:403  addresses[i] */\n      dup2\n      mload\n      dup2\n      lt\n      tag_136\n      jumpi\n      tag_137\n      tag_67\n      jump\t// in\n    tag_137:\n    tag_136:\n      0x20\n      mul\n      0x20\n      add\n      add\n      mload\n        /* \"base1/whileAddress.sol\":381:404  whiteList[addresses[i]] */\n      0xffffffffffffffffffffffffffffffffffffffff\n      and\n      0xffffffffffffffffffffffffffffffffffffffff\n      and\n      dup2\n      mstore\n      0x20\n      add\n      swap1\n      dup2\n      mstore\n      0x20\n      add\n      0x00\n      keccak256\n      0x00\n      swap1\n      sload\n      swap1\n      0x0100\n      exp\n      swap1\n      div\n      0xff\n      and\n        /* \"base1/whileAddress.sol\":380:404  !whiteList[addresses[i]] */\n      iszero\n        /* \"base1/whileAddress.sol\":380:430  !whiteList[addresses[i]]&&addresses[i]!=address(0) */\n      dup1\n      iszero\n      tag_138\n      jumpi\n      pop\n        /* \"base1/whileAddress.sol\":428:429  0 */\n      0x00\n        /* \"base1/whileAddress.sol\":406:430  addresses[i]!=address(0) */\n      0xffffffffffffffffffffffffffffffffffffffff\n      and\n        /* \"base1/whileAddress.sol\":406:415  addresses */\n      dup4\n        /* \"base1/whileAddress.sol\":416:417  i */\n      dup3\n        /* \"base1/whileAddress.sol\":406:418  addresses[i] */\n      dup2\n      mload\n      dup2\n      lt\n      tag_139\n      jumpi\n      tag_140\n      tag_67\n      jump\t// in\n    tag_140:\n    tag_139:\n      0x20\n      mul\n      0x20\n      add\n      add\n      mload\n        /* \"base1/whileAddress.sol\":406:430  addresses[i]!=address(0) */\n      0xffffffffffffffffffffffffffffffffffffffff\n      and\n      eq\n      iszero\n        /* \"base1/whileAddress.sol\":380:430  !whiteList[addresses[i]]&&addresses[i]!=address(0) */\n    tag_138:\n        /* \"base1/whileAddress.sol\":377:481  if(!whiteList[addresses[i]]&&addresses[i]!=address(0)){... */\n      iszero\n      tag_141\n      jumpi\n        /* \"base1/whileAddress.sol\":449:466  newAddressCount++ */\n      dup2\n      dup1\n      tag_142\n      swap1\n      tag_75\n      jump\t// in\n    tag_142:\n      swap3\n      pop\n      pop\n        /* \"base1/whileAddress.sol\":377:481  if(!whiteList[addresses[i]]&&addresses[i]!=address(0)){... */\n    tag_141:\n        /* \"base1/whileAddress.sol\":359:362  i++ */\n      dup1\n      dup1\n      0x01\n      add\n      swap2\n      pop\n      pop\n        /* \"base1/whileAddress.sol\":327:491  for(uint i=0;i<addresses.length;i++){... */\n      jump(tag_133)\n    tag_134:\n      pop\n        /* \"base1/whileAddress.sol\":519:520  0 */\n      0x00\n        /* \"base1/whileAddress.sol\":503:518  newAddressCount */\n      dup2\n        /* \"base1/whileAddress.sol\":503:520  newAddressCount>0 */\n      gt\n        /* \"base1/whileAddress.sol\":500:1356  if(newAddressCount>0){... */\n      iszero\n      tag_143\n      jumpi\n        /* \"base1/whileAddress.sol\":535:546  uint256 len */\n      0x00\n        /* \"base1/whileAddress.sol\":549:565  whiteAddressList */\n      0x01\n        /* \"base1/whileAddress.sol\":549:572  whiteAddressList.length */\n      dup1\n      sload\n      swap1\n      pop\n        /* \"base1/whileAddress.sol\":535:572  uint256 len = whiteAddressList.length */\n      swap1\n      pop\n        /* \"base1/whileAddress.sol\":586:616  address [] memory newAddresses */\n      0x00\n        /* \"base1/whileAddress.sol\":633:648  newAddressCount */\n      dup3\n        /* \"base1/whileAddress.sol\":619:649  new address[](newAddressCount) */\n      0xffffffffffffffff\n      dup2\n      gt\n      iszero\n      tag_144\n      jumpi\n      tag_145\n      tag_59\n      jump\t// in\n    tag_145:\n    tag_144:\n      mload(0x40)\n      swap1\n      dup1\n      dup3\n      mstore\n      dup1\n      0x20\n      mul\n      0x20\n      add\n      dup3\n      add\n      0x40\n      mstore\n      dup1\n      iszero\n      tag_146\n      jumpi\n      dup2\n      0x20\n      add\n      0x20\n      dup3\n      mul\n      dup1\n      calldatasize\n      dup4\n      calldatacopy\n      dup1\n      dup3\n      add\n      swap2\n      pop\n      pop\n      swap1\n      pop\n    tag_146:\n      pop\n        /* \"base1/whileAddress.sol\":586:649  address [] memory newAddresses = new address[](newAddressCount) */\n      swap1\n      pop\n        /* \"base1/whileAddress.sol\":663:676  uint256 index */\n      0x00\n        /* \"base1/whileAddress.sol\":677:678  0 */\n      0x00\n        /* \"base1/whileAddress.sol\":663:678  uint256 index=0 */\n      swap1\n      pop\n        /* \"base1/whileAddress.sol\":697:703  uint i */\n      0x00\n        /* \"base1/whileAddress.sol\":704:705  0 */\n      0x00\n        /* \"base1/whileAddress.sol\":697:705  uint i=0 */\n      swap1\n      pop\n        /* \"base1/whileAddress.sol\":693:1028  for(uint i=0;i<addresses.length;i++){... */\n    tag_147:\n        /* \"base1/whileAddress.sol\":708:717  addresses */\n      dup6\n        /* \"base1/whileAddress.sol\":708:724  addresses.length */\n      mload\n        /* \"base1/whileAddress.sol\":706:707  i */\n      dup2\n        /* \"base1/whileAddress.sol\":706:724  i<addresses.length */\n      lt\n        /* \"base1/whileAddress.sol\":693:1028  for(uint i=0;i<addresses.length;i++){... */\n      iszero\n      tag_148\n      jumpi\n        /* \"base1/whileAddress.sol\":747:763  address _address */\n      0x00\n        /* \"base1/whileAddress.sol\":766:775  addresses */\n      dup7\n        /* \"base1/whileAddress.sol\":776:777  i */\n      dup3\n        /* \"base1/whileAddress.sol\":766:778  addresses[i] */\n      dup2\n      mload\n      dup2\n      lt\n      tag_150\n      jumpi\n      tag_151\n      tag_67\n      jump\t// in\n    tag_151:\n    tag_150:\n      0x20\n      mul\n      0x20\n      add\n      add\n      mload\n        /* \"base1/whileAddress.sol\":747:778  address _address = addresses[i] */\n      swap1\n      pop\n        /* \"base1/whileAddress.sol\":801:810  whiteList */\n      0x00\n        /* \"base1/whileAddress.sol\":801:820  whiteList[_address] */\n      0x00\n        /* \"base1/whileAddress.sol\":811:819  _address */\n      dup3\n        /* \"base1/whileAddress.sol\":801:820  whiteList[_address] */\n      0xffffffffffffffffffffffffffffffffffffffff\n      and\n      0xffffffffffffffffffffffffffffffffffffffff\n      and\n      dup2\n      mstore\n      0x20\n      add\n      swap1\n      dup2\n      mstore\n      0x20\n      add\n      0x00\n      keccak256\n      0x00\n      swap1\n      sload\n      swap1\n      0x0100\n      exp\n      swap1\n      div\n      0xff\n      and\n        /* \"base1/whileAddress.sol\":800:820  !whiteList[_address] */\n      iszero\n        /* \"base1/whileAddress.sol\":800:846  !whiteList[_address] && _address != address(0) */\n      dup1\n      iszero\n      tag_152\n      jumpi\n      pop\n        /* \"base1/whileAddress.sol\":844:845  0 */\n      0x00\n        /* \"base1/whileAddress.sol\":824:846  _address != address(0) */\n      0xffffffffffffffffffffffffffffffffffffffff\n      and\n        /* \"base1/whileAddress.sol\":824:832  _address */\n      dup2\n        /* \"base1/whileAddress.sol\":824:846  _address != address(0) */\n      0xffffffffffffffffffffffffffffffffffffffff\n      and\n      eq\n      iszero\n        /* \"base1/whileAddress.sol\":800:846  !whiteList[_address] && _address != address(0) */\n    tag_152:\n        /* \"base1/whileAddress.sol\":796:1014  if (!whiteList[_address] && _address != address(0)) {... */\n      iszero\n      tag_153\n      jumpi\n        /* \"base1/whileAddress.sol\":892:896  true */\n      0x01\n        /* \"base1/whileAddress.sol\":870:879  whiteList */\n      0x00\n        /* \"base1/whileAddress.sol\":870:889  whiteList[_address] */\n      0x00\n        /* \"base1/whileAddress.sol\":880:888  _address */\n      dup4\n        /* \"base1/whileAddress.sol\":870:889  whiteList[_address] */\n      0xffffffffffffffffffffffffffffffffffffffff\n      and\n      0xffffffffffffffffffffffffffffffffffffffff\n      and\n      dup2\n      mstore\n      0x20\n      add\n      swap1\n      dup2\n      mstore\n      0x20\n      add\n      0x00\n      keccak256\n      0x00\n        /* \"base1/whileAddress.sol\":870:896  whiteList[_address] = true */\n      0x0100\n      exp\n      dup2\n      sload\n      dup2\n      0xff\n      mul\n      not\n      and\n      swap1\n      dup4\n      iszero\n      iszero\n      mul\n      or\n      swap1\n      sstore\n      pop\n        /* \"base1/whileAddress.sol\":940:948  _address */\n      dup1\n        /* \"base1/whileAddress.sol\":918:930  newAddresses */\n      dup5\n        /* \"base1/whileAddress.sol\":931:936  index */\n      dup5\n        /* \"base1/whileAddress.sol\":918:937  newAddresses[index] */\n      dup2\n      mload\n      dup2\n      lt\n      tag_154\n      jumpi\n      tag_155\n      tag_67\n      jump\t// in\n    tag_155:\n    tag_154:\n      0x20\n      mul\n      0x20\n      add\n      add\n        /* \"base1/whileAddress.sol\":918:948  newAddresses[index] = _address */\n      swap1\n      0xffffffffffffffffffffffffffffffffffffffff\n      and\n      swap1\n      dup2\n      0xffffffffffffffffffffffffffffffffffffffff\n      and\n      dup2\n      mstore\n      pop\n      pop\n        /* \"base1/whileAddress.sol\":970:978  index ++ */\n      dup3\n      dup1\n      tag_156\n      swap1\n      tag_75\n      jump\t// in\n    tag_156:\n      swap4\n      pop\n      pop\n        /* \"base1/whileAddress.sol\":796:1014  if (!whiteList[_address] && _address != address(0)) {... */\n    tag_153:\n        /* \"base1/whileAddress.sol\":729:1028  {... */\n      pop\n        /* \"base1/whileAddress.sol\":725:728  i++ */\n      dup1\n      dup1\n      0x01\n      add\n      swap2\n      pop\n      pop\n        /* \"base1/whileAddress.sol\":693:1028  for(uint i=0;i<addresses.length;i++){... */\n      jump(tag_147)\n    tag_148:\n      pop\n        /* \"base1/whileAddress.sol\":1041:1058  uint256 newLength */\n      0x00\n        /* \"base1/whileAddress.sol\":1065:1080  newAddressCount */\n      dup5\n        /* \"base1/whileAddress.sol\":1061:1064  len */\n      dup5\n        /* \"base1/whileAddress.sol\":1061:1080  len+newAddressCount */\n      tag_157\n      swap2\n      swap1\n      tag_91\n      jump\t// in\n    tag_157:\n        /* \"base1/whileAddress.sol\":1041:1080  uint256 newLength = len+newAddressCount */\n      swap1\n      pop\n        /* \"base1/whileAddress.sol\":1144:1153  newLength */\n      dup1\n        /* \"base1/whileAddress.sol\":1128:1142  whiteList.slot */\n      0x00\n        /* \"base1/whileAddress.sol\":1121:1154  sstore(whiteList.slot, newLength) */\n      sstore\n        /* \"base1/whileAddress.sol\":1229:1238  uint256 i */\n      0x00\n        /* \"base1/whileAddress.sol\":1241:1242  0 */\n      0x00\n        /* \"base1/whileAddress.sol\":1229:1242  uint256 i = 0 */\n      swap1\n      pop\n        /* \"base1/whileAddress.sol\":1224:1346  for (uint256 i = 0; i < newAddressCount; i++) {... */\n    tag_158:\n        /* \"base1/whileAddress.sol\":1248:1263  newAddressCount */\n      dup6\n        /* \"base1/whileAddress.sol\":1244:1245  i */\n      dup2\n        /* \"base1/whileAddress.sol\":1244:1263  i < newAddressCount */\n      lt\n        /* \"base1/whileAddress.sol\":1224:1346  for (uint256 i = 0; i < newAddressCount; i++) {... */\n      iszero\n      tag_159\n      jumpi\n        /* \"base1/whileAddress.sol\":1316:1328  newAddresses */\n      dup4\n        /* \"base1/whileAddress.sol\":1329:1330  i */\n      dup2\n        /* \"base1/whileAddress.sol\":1316:1331  newAddresses[i] */\n      dup2\n      mload\n      dup2\n      lt\n      tag_161\n      jumpi\n      tag_162\n      tag_67\n      jump\t// in\n    tag_162:\n    tag_161:\n      0x20\n      mul\n      0x20\n      add\n      add\n      mload\n        /* \"base1/whileAddress.sol\":1288:1304  whiteAddressList */\n      0x01\n        /* \"base1/whileAddress.sol\":1311:1312  i */\n      dup3\n        /* \"base1/whileAddress.sol\":1305:1308  len */\n      dup8\n        /* \"base1/whileAddress.sol\":1305:1312  len + i */\n      tag_163\n      swap2\n      swap1\n      tag_91\n      jump\t// in\n    tag_163:\n        /* \"base1/whileAddress.sol\":1288:1313  whiteAddressList[len + i] */\n      dup2\n      sload\n      dup2\n      lt\n      tag_164\n      jumpi\n      tag_165\n      tag_67\n      jump\t// in\n    tag_165:\n    tag_164:\n      swap1\n      0x00\n      mstore\n      keccak256(0x00, 0x20)\n      add\n      0x00\n        /* \"base1/whileAddress.sol\":1288:1331  whiteAddressList[len + i] = newAddresses[i] */\n      0x0100\n      exp\n      dup2\n      sload\n      dup2\n      0xffffffffffffffffffffffffffffffffffffffff\n      mul\n      not\n      and\n      swap1\n      dup4\n      0xffffffffffffffffffffffffffffffffffffffff\n      and\n      mul\n      or\n      swap1\n      sstore\n      pop\n        /* \"base1/whileAddress.sol\":1265:1268  i++ */\n      dup1\n      dup1\n      0x01\n      add\n      swap2\n      pop\n      pop\n        /* \"base1/whileAddress.sol\":1224:1346  for (uint256 i = 0; i < newAddressCount; i++) {... */\n      jump(tag_158)\n    tag_159:\n      pop\n        /* \"base1/whileAddress.sol\":521:1356  {... */\n      pop\n      pop\n      pop\n      pop\n        /* \"base1/whileAddress.sol\":500:1356  if(newAddressCount>0){... */\n    tag_143:\n        /* \"base1/whileAddress.sol\":280:1362  {... */\n      pop\n        /* \"base1/whileAddress.sol\":217:1362  function batchAddWhitelist(address [] memory addresses) public {... */\n      pop\n      jump\t// out\n        /* \"base1/whileAddress.sol\":2185:2538  function _checkLargeArrayDuplicates(address[] memory array) private pure returns(bool){... */\n    tag_98:\n        /* \"base1/whileAddress.sol\":2266:2270  bool */\n      0x00\n        /* \"base1/whileAddress.sol\":2287:2296  uint256 i */\n      0x00\n        /* \"base1/whileAddress.sol\":2299:2300  0 */\n      0x00\n        /* \"base1/whileAddress.sol\":2287:2300  uint256 i = 0 */\n      swap1\n      pop\n        /* \"base1/whileAddress.sol\":2282:2510  for (uint256 i = 0; i < array.length - 1; i++) {... */\n    tag_168:\n        /* \"base1/whileAddress.sol\":2321:2322  1 */\n      0x01\n        /* \"base1/whileAddress.sol\":2306:2311  array */\n      dup4\n        /* \"base1/whileAddress.sol\":2306:2318  array.length */\n      mload\n        /* \"base1/whileAddress.sol\":2306:2322  array.length - 1 */\n      tag_171\n      swap2\n      swap1\n      tag_62\n      jump\t// in\n    tag_171:\n        /* \"base1/whileAddress.sol\":2302:2303  i */\n      dup2\n        /* \"base1/whileAddress.sol\":2302:2322  i < array.length - 1 */\n      lt\n        /* \"base1/whileAddress.sol\":2282:2510  for (uint256 i = 0; i < array.length - 1; i++) {... */\n      iszero\n      tag_169\n      jumpi\n        /* \"base1/whileAddress.sol\":2348:2357  uint256 j */\n      0x00\n        /* \"base1/whileAddress.sol\":2364:2365  1 */\n      0x01\n        /* \"base1/whileAddress.sol\":2360:2361  i */\n      dup3\n        /* \"base1/whileAddress.sol\":2360:2365  i + 1 */\n      tag_175\n      swap2\n      swap1\n      tag_91\n      jump\t// in\n    tag_175:\n        /* \"base1/whileAddress.sol\":2348:2365  uint256 j = i + 1 */\n      swap1\n      pop\n        /* \"base1/whileAddress.sol\":2343:2500  for (uint256 j = i + 1; j < array.length; j++) {... */\n    tag_172:\n        /* \"base1/whileAddress.sol\":2371:2376  array */\n      dup4\n        /* \"base1/whileAddress.sol\":2371:2383  array.length */\n      mload\n        /* \"base1/whileAddress.sol\":2367:2368  j */\n      dup2\n        /* \"base1/whileAddress.sol\":2367:2383  j < array.length */\n      lt\n        /* \"base1/whileAddress.sol\":2343:2500  for (uint256 j = i + 1; j < array.length; j++) {... */\n      iszero\n      tag_173\n      jumpi\n        /* \"base1/whileAddress.sol\":2424:2429  array */\n      dup4\n        /* \"base1/whileAddress.sol\":2430:2431  j */\n      dup2\n        /* \"base1/whileAddress.sol\":2424:2432  array[j] */\n      dup2\n      mload\n      dup2\n      lt\n      tag_176\n      jumpi\n      tag_177\n      tag_67\n      jump\t// in\n    tag_177:\n    tag_176:\n      0x20\n      mul\n      0x20\n      add\n      add\n      mload\n        /* \"base1/whileAddress.sol\":2412:2432  array[i] == array[j] */\n      0xffffffffffffffffffffffffffffffffffffffff\n      and\n        /* \"base1/whileAddress.sol\":2412:2417  array */\n      dup5\n        /* \"base1/whileAddress.sol\":2418:2419  i */\n      dup4\n        /* \"base1/whileAddress.sol\":2412:2420  array[i] */\n      dup2\n      mload\n      dup2\n      lt\n      tag_178\n      jumpi\n      tag_179\n      tag_67\n      jump\t// in\n    tag_179:\n    tag_178:\n      0x20\n      mul\n      0x20\n      add\n      add\n      mload\n        /* \"base1/whileAddress.sol\":2412:2432  array[i] == array[j] */\n      0xffffffffffffffffffffffffffffffffffffffff\n      and\n      sub\n        /* \"base1/whileAddress.sol\":2408:2486  if (array[i] == array[j]) {... */\n      tag_180\n      jumpi\n        /* \"base1/whileAddress.sol\":2463:2467  true */\n      0x01\n        /* \"base1/whileAddress.sol\":2456:2467  return true */\n      swap3\n      pop\n      pop\n      pop\n      jump(tag_167)\n        /* \"base1/whileAddress.sol\":2408:2486  if (array[i] == array[j]) {... */\n    tag_180:\n        /* \"base1/whileAddress.sol\":2385:2388  j++ */\n      dup1\n      dup1\n      0x01\n      add\n      swap2\n      pop\n      pop\n        /* \"base1/whileAddress.sol\":2343:2500  for (uint256 j = i + 1; j < array.length; j++) {... */\n      jump(tag_172)\n    tag_173:\n      pop\n        /* \"base1/whileAddress.sol\":2324:2327  i++ */\n      dup1\n      dup1\n      0x01\n      add\n      swap2\n      pop\n      pop\n        /* \"base1/whileAddress.sol\":2282:2510  for (uint256 i = 0; i < array.length - 1; i++) {... */\n      jump(tag_168)\n    tag_169:\n      pop\n        /* \"base1/whileAddress.sol\":2526:2531  false */\n      0x00\n        /* \"base1/whileAddress.sol\":2519:2531  return false */\n      swap1\n      pop\n        /* \"base1/whileAddress.sol\":2185:2538  function _checkLargeArrayDuplicates(address[] memory array) private pure returns(bool){... */\n    tag_167:\n      swap2\n      swap1\n      pop\n      jump\t// out\n        /* \"#utility.yul\":7:82   */\n    tag_181:\n        /* \"#utility.yul\":40:46   */\n      0x00\n        /* \"#utility.yul\":73:75   */\n      0x40\n        /* \"#utility.yul\":67:76   */\n      mload\n        /* \"#utility.yul\":57:76   */\n      swap1\n      pop\n        /* \"#utility.yul\":7:82   */\n      swap1\n      jump\t// out\n        /* \"#utility.yul\":88:205   */\n    tag_182:\n        /* \"#utility.yul\":197:198   */\n      0x00\n        /* \"#utility.yul\":194:195   */\n      0x00\n        /* \"#utility.yul\":187:199   */\n      revert\n        /* \"#utility.yul\":211:328   */\n    tag_183:\n        /* \"#utility.yul\":320:321   */\n      0x00\n        /* \"#utility.yul\":317:318   */\n      0x00\n        /* \"#utility.yul\":310:322   */\n      revert\n        /* \"#utility.yul\":334:460   */\n    tag_184:\n        /* \"#utility.yul\":371:378   */\n      0x00\n        /* \"#utility.yul\":411:453   */\n      0xffffffffffffffffffffffffffffffffffffffff\n        /* \"#utility.yul\":404:409   */\n      dup3\n        /* \"#utility.yul\":400:454   */\n      and\n        /* \"#utility.yul\":389:454   */\n      swap1\n      pop\n        /* \"#utility.yul\":334:460   */\n      swap2\n      swap1\n      pop\n      jump\t// out\n        /* \"#utility.yul\":466:562   */\n    tag_185:\n        /* \"#utility.yul\":503:510   */\n      0x00\n        /* \"#utility.yul\":532:556   */\n      tag_236\n        /* \"#utility.yul\":550:555   */\n      dup3\n        /* \"#utility.yul\":532:556   */\n      tag_184\n      jump\t// in\n    tag_236:\n        /* \"#utility.yul\":521:556   */\n      swap1\n      pop\n        /* \"#utility.yul\":466:562   */\n      swap2\n      swap1\n      pop\n      jump\t// out\n        /* \"#utility.yul\":568:690   */\n    tag_186:\n        /* \"#utility.yul\":641:665   */\n      tag_238\n        /* \"#utility.yul\":659:664   */\n      dup2\n        /* \"#utility.yul\":641:665   */\n      tag_185\n      jump\t// in\n    tag_238:\n        /* \"#utility.yul\":634:639   */\n      dup2\n        /* \"#utility.yul\":631:666   */\n      eq\n        /* \"#utility.yul\":621:684   */\n      tag_239\n      jumpi\n        /* \"#utility.yul\":680:681   */\n      0x00\n        /* \"#utility.yul\":677:678   */\n      0x00\n        /* \"#utility.yul\":670:682   */\n      revert\n        /* \"#utility.yul\":621:684   */\n    tag_239:\n        /* \"#utility.yul\":568:690   */\n      pop\n      jump\t// out\n        /* \"#utility.yul\":696:835   */\n    tag_187:\n        /* \"#utility.yul\":742:747   */\n      0x00\n        /* \"#utility.yul\":780:786   */\n      dup2\n        /* \"#utility.yul\":767:787   */\n      calldataload\n        /* \"#utility.yul\":758:787   */\n      swap1\n      pop\n        /* \"#utility.yul\":796:829   */\n      tag_241\n        /* \"#utility.yul\":823:828   */\n      dup2\n        /* \"#utility.yul\":796:829   */\n      tag_186\n      jump\t// in\n    tag_241:\n        /* \"#utility.yul\":696:835   */\n      swap3\n      swap2\n      pop\n      pop\n      jump\t// out\n        /* \"#utility.yul\":841:1170   */\n    tag_15:\n        /* \"#utility.yul\":900:906   */\n      0x00\n        /* \"#utility.yul\":949:951   */\n      0x20\n        /* \"#utility.yul\":937:946   */\n      dup3\n        /* \"#utility.yul\":928:935   */\n      dup5\n        /* \"#utility.yul\":924:947   */\n      sub\n        /* \"#utility.yul\":920:952   */\n      slt\n        /* \"#utility.yul\":917:1036   */\n      iszero\n      tag_243\n      jumpi\n        /* \"#utility.yul\":955:1034   */\n      tag_244\n      tag_182\n      jump\t// in\n    tag_244:\n        /* \"#utility.yul\":917:1036   */\n    tag_243:\n        /* \"#utility.yul\":1075:1076   */\n      0x00\n        /* \"#utility.yul\":1100:1153   */\n      tag_245\n        /* \"#utility.yul\":1145:1152   */\n      dup5\n        /* \"#utility.yul\":1136:1142   */\n      dup3\n        /* \"#utility.yul\":1125:1134   */\n      dup6\n        /* \"#utility.yul\":1121:1143   */\n      add\n        /* \"#utility.yul\":1100:1153   */\n      tag_187\n      jump\t// in\n    tag_245:\n        /* \"#utility.yul\":1090:1153   */\n      swap2\n      pop\n        /* \"#utility.yul\":1046:1163   */\n      pop\n        /* \"#utility.yul\":841:1170   */\n      swap3\n      swap2\n      pop\n      pop\n      jump\t// out\n        /* \"#utility.yul\":1176:1266   */\n    tag_188:\n        /* \"#utility.yul\":1210:1217   */\n      0x00\n        /* \"#utility.yul\":1253:1258   */\n      dup2\n        /* \"#utility.yul\":1246:1259   */\n      iszero\n        /* \"#utility.yul\":1239:1260   */\n      iszero\n        /* \"#utility.yul\":1228:1260   */\n      swap1\n      pop\n        /* \"#utility.yul\":1176:1266   */\n      swap2\n      swap1\n      pop\n      jump\t// out\n        /* \"#utility.yul\":1272:1381   */\n    tag_189:\n        /* \"#utility.yul\":1353:1374   */\n      tag_248\n        /* \"#utility.yul\":1368:1373   */\n      dup2\n        /* \"#utility.yul\":1353:1374   */\n      tag_188\n      jump\t// in\n    tag_248:\n        /* \"#utility.yul\":1348:1351   */\n      dup3\n        /* \"#utility.yul\":1341:1375   */\n      mstore\n        /* \"#utility.yul\":1272:1381   */\n      pop\n      pop\n      jump\t// out\n        /* \"#utility.yul\":1387:1597   */\n    tag_18:\n        /* \"#utility.yul\":1474:1478   */\n      0x00\n        /* \"#utility.yul\":1512:1514   */\n      0x20\n        /* \"#utility.yul\":1501:1510   */\n      dup3\n        /* \"#utility.yul\":1497:1515   */\n      add\n        /* \"#utility.yul\":1489:1515   */\n      swap1\n      pop\n        /* \"#utility.yul\":1525:1590   */\n      tag_250\n        /* \"#utility.yul\":1587:1588   */\n      0x00\n        /* \"#utility.yul\":1576:1585   */\n      dup4\n        /* \"#utility.yul\":1572:1589   */\n      add\n        /* \"#utility.yul\":1563:1569   */\n      dup5\n        /* \"#utility.yul\":1525:1590   */\n      tag_189\n      jump\t// in\n    tag_250:\n        /* \"#utility.yul\":1387:1597   */\n      swap3\n      swap2\n      pop\n      pop\n      jump\t// out\n        /* \"#utility.yul\":1603:1720   */\n    tag_190:\n        /* \"#utility.yul\":1712:1713   */\n      0x00\n        /* \"#utility.yul\":1709:1710   */\n      0x00\n        /* \"#utility.yul\":1702:1714   */\n      revert\n        /* \"#utility.yul\":1726:1828   */\n    tag_191:\n        /* \"#utility.yul\":1767:1773   */\n      0x00\n        /* \"#utility.yul\":1818:1820   */\n      0x1f\n        /* \"#utility.yul\":1814:1821   */\n      not\n        /* \"#utility.yul\":1809:1811   */\n      0x1f\n        /* \"#utility.yul\":1802:1807   */\n      dup4\n        /* \"#utility.yul\":1798:1812   */\n      add\n        /* \"#utility.yul\":1794:1822   */\n      and\n        /* \"#utility.yul\":1784:1822   */\n      swap1\n      pop\n        /* \"#utility.yul\":1726:1828   */\n      swap2\n      swap1\n      pop\n      jump\t// out\n        /* \"#utility.yul\":1834:2014   */\n    tag_59:\n        /* \"#utility.yul\":1882:1959   */\n      0x4e487b7100000000000000000000000000000000000000000000000000000000\n        /* \"#utility.yul\":1879:1880   */\n      0x00\n        /* \"#utility.yul\":1872:1960   */\n      mstore\n        /* \"#utility.yul\":1979:1983   */\n      0x41\n        /* \"#utility.yul\":1976:1977   */\n      0x04\n        /* \"#utility.yul\":1969:1984   */\n      mstore\n        /* \"#utility.yul\":2003:2007   */\n      0x24\n        /* \"#utility.yul\":2000:2001   */\n      0x00\n        /* \"#utility.yul\":1993:2008   */\n      revert\n        /* \"#utility.yul\":2020:2301   */\n    tag_192:\n        /* \"#utility.yul\":2103:2130   */\n      tag_255\n        /* \"#utility.yul\":2125:2129   */\n      dup3\n        /* \"#utility.yul\":2103:2130   */\n      tag_191\n      jump\t// in\n    tag_255:\n        /* \"#utility.yul\":2095:2101   */\n      dup2\n        /* \"#utility.yul\":2091:2131   */\n      add\n        /* \"#utility.yul\":2233:2239   */\n      dup2\n        /* \"#utility.yul\":2221:2231   */\n      dup2\n        /* \"#utility.yul\":2218:2240   */\n      lt\n        /* \"#utility.yul\":2197:2215   */\n      0xffffffffffffffff\n        /* \"#utility.yul\":2185:2195   */\n      dup3\n        /* \"#utility.yul\":2182:2216   */\n      gt\n        /* \"#utility.yul\":2179:2241   */\n      or\n        /* \"#utility.yul\":2176:2264   */\n      iszero\n      tag_256\n      jumpi\n        /* \"#utility.yul\":2244:2262   */\n      tag_257\n      tag_59\n      jump\t// in\n    tag_257:\n        /* \"#utility.yul\":2176:2264   */\n    tag_256:\n        /* \"#utility.yul\":2284:2294   */\n      dup1\n        /* \"#utility.yul\":2280:2282   */\n      0x40\n        /* \"#utility.yul\":2273:2295   */\n      mstore\n        /* \"#utility.yul\":2063:2301   */\n      pop\n        /* \"#utility.yul\":2020:2301   */\n      pop\n      pop\n      jump\t// out\n        /* \"#utility.yul\":2307:2436   */\n    tag_193:\n        /* \"#utility.yul\":2341:2347   */\n      0x00\n        /* \"#utility.yul\":2368:2388   */\n      tag_259\n      tag_181\n      jump\t// in\n    tag_259:\n        /* \"#utility.yul\":2358:2388   */\n      swap1\n      pop\n        /* \"#utility.yul\":2397:2430   */\n      tag_260\n        /* \"#utility.yul\":2425:2429   */\n      dup3\n        /* \"#utility.yul\":2417:2423   */\n      dup3\n        /* \"#utility.yul\":2397:2430   */\n      tag_192\n      jump\t// in\n    tag_260:\n        /* \"#utility.yul\":2307:2436   */\n      swap2\n      swap1\n      pop\n      jump\t// out\n        /* \"#utility.yul\":2442:2753   */\n    tag_194:\n        /* \"#utility.yul\":2519:2523   */\n      0x00\n        /* \"#utility.yul\":2609:2627   */\n      0xffffffffffffffff\n        /* \"#utility.yul\":2601:2607   */\n      dup3\n        /* \"#utility.yul\":2598:2628   */\n      gt\n        /* \"#utility.yul\":2595:2651   */\n      iszero\n      tag_262\n      jumpi\n        /* \"#utility.yul\":2631:2649   */\n      tag_263\n      tag_59\n      jump\t// in\n    tag_263:\n        /* \"#utility.yul\":2595:2651   */\n    tag_262:\n        /* \"#utility.yul\":2681:2685   */\n      0x20\n        /* \"#utility.yul\":2673:2679   */\n      dup3\n        /* \"#utility.yul\":2669:2686   */\n      mul\n        /* \"#utility.yul\":2661:2686   */\n      swap1\n      pop\n        /* \"#utility.yul\":2741:2745   */\n      0x20\n        /* \"#utility.yul\":2735:2739   */\n      dup2\n        /* \"#utility.yul\":2731:2746   */\n      add\n        /* \"#utility.yul\":2723:2746   */\n      swap1\n      pop\n        /* \"#utility.yul\":2442:2753   */\n      swap2\n      swap1\n      pop\n      jump\t// out\n        /* \"#utility.yul\":2759:2876   */\n    tag_195:\n        /* \"#utility.yul\":2868:2869   */\n      0x00\n        /* \"#utility.yul\":2865:2866   */\n      0x00\n        /* \"#utility.yul\":2858:2870   */\n      revert\n        /* \"#utility.yul\":2882:2959   */\n    tag_196:\n        /* \"#utility.yul\":2919:2926   */\n      0x00\n        /* \"#utility.yul\":2948:2953   */\n      dup2\n        /* \"#utility.yul\":2937:2953   */\n      swap1\n      pop\n        /* \"#utility.yul\":2882:2959   */\n      swap2\n      swap1\n      pop\n      jump\t// out\n        /* \"#utility.yul\":2965:3087   */\n    tag_197:\n        /* \"#utility.yul\":3038:3062   */\n      tag_267\n        /* \"#utility.yul\":3056:3061   */\n      dup2\n        /* \"#utility.yul\":3038:3062   */\n      tag_196\n      jump\t// in\n    tag_267:\n        /* \"#utility.yul\":3031:3036   */\n      dup2\n        /* \"#utility.yul\":3028:3063   */\n      eq\n        /* \"#utility.yul\":3018:3081   */\n      tag_268\n      jumpi\n        /* \"#utility.yul\":3077:3078   */\n      0x00\n        /* \"#utility.yul\":3074:3075   */\n      0x00\n        /* \"#utility.yul\":3067:3079   */\n      revert\n        /* \"#utility.yul\":3018:3081   */\n    tag_268:\n        /* \"#utility.yul\":2965:3087   */\n      pop\n      jump\t// out\n        /* \"#utility.yul\":3093:3232   */\n    tag_198:\n        /* \"#utility.yul\":3139:3144   */\n      0x00\n        /* \"#utility.yul\":3177:3183   */\n      dup2\n        /* \"#utility.yul\":3164:3184   */\n      calldataload\n        /* \"#utility.yul\":3155:3184   */\n      swap1\n      pop\n        /* \"#utility.yul\":3193:3226   */\n      tag_270\n        /* \"#utility.yul\":3220:3225   */\n      dup2\n        /* \"#utility.yul\":3193:3226   */\n      tag_197\n      jump\t// in\n    tag_270:\n        /* \"#utility.yul\":3093:3232   */\n      swap3\n      swap2\n      pop\n      pop\n      jump\t// out\n        /* \"#utility.yul\":3255:3965   */\n    tag_199:\n        /* \"#utility.yul\":3351:3356   */\n      0x00\n        /* \"#utility.yul\":3376:3457   */\n      tag_272\n        /* \"#utility.yul\":3392:3456   */\n      tag_273\n        /* \"#utility.yul\":3449:3455   */\n      dup5\n        /* \"#utility.yul\":3392:3456   */\n      tag_194\n      jump\t// in\n    tag_273:\n        /* \"#utility.yul\":3376:3457   */\n      tag_193\n      jump\t// in\n    tag_272:\n        /* \"#utility.yul\":3367:3457   */\n      swap1\n      pop\n        /* \"#utility.yul\":3477:3482   */\n      dup1\n        /* \"#utility.yul\":3506:3512   */\n      dup4\n        /* \"#utility.yul\":3499:3504   */\n      dup3\n        /* \"#utility.yul\":3492:3513   */\n      mstore\n        /* \"#utility.yul\":3540:3544   */\n      0x20\n        /* \"#utility.yul\":3533:3538   */\n      dup3\n        /* \"#utility.yul\":3529:3545   */\n      add\n        /* \"#utility.yul\":3522:3545   */\n      swap1\n      pop\n        /* \"#utility.yul\":3593:3597   */\n      0x20\n        /* \"#utility.yul\":3585:3591   */\n      dup5\n        /* \"#utility.yul\":3581:3598   */\n      mul\n        /* \"#utility.yul\":3573:3579   */\n      dup4\n        /* \"#utility.yul\":3569:3599   */\n      add\n        /* \"#utility.yul\":3622:3625   */\n      dup6\n        /* \"#utility.yul\":3614:3620   */\n      dup2\n        /* \"#utility.yul\":3611:3626   */\n      gt\n        /* \"#utility.yul\":3608:3730   */\n      iszero\n      tag_274\n      jumpi\n        /* \"#utility.yul\":3641:3720   */\n      tag_275\n      tag_195\n      jump\t// in\n    tag_275:\n        /* \"#utility.yul\":3608:3730   */\n    tag_274:\n        /* \"#utility.yul\":3756:3762   */\n      dup4\n        /* \"#utility.yul\":3739:3959   */\n    tag_276:\n        /* \"#utility.yul\":3773:3779   */\n      dup2\n        /* \"#utility.yul\":3768:3771   */\n      dup2\n        /* \"#utility.yul\":3765:3780   */\n      lt\n        /* \"#utility.yul\":3739:3959   */\n      iszero\n      tag_278\n      jumpi\n        /* \"#utility.yul\":3848:3851   */\n      dup1\n        /* \"#utility.yul\":3877:3914   */\n      tag_279\n        /* \"#utility.yul\":3910:3913   */\n      dup9\n        /* \"#utility.yul\":3898:3908   */\n      dup3\n        /* \"#utility.yul\":3877:3914   */\n      tag_198\n      jump\t// in\n    tag_279:\n        /* \"#utility.yul\":3872:3875   */\n      dup5\n        /* \"#utility.yul\":3865:3915   */\n      mstore\n        /* \"#utility.yul\":3944:3948   */\n      0x20\n        /* \"#utility.yul\":3939:3942   */\n      dup5\n        /* \"#utility.yul\":3935:3949   */\n      add\n        /* \"#utility.yul\":3928:3949   */\n      swap4\n      pop\n        /* \"#utility.yul\":3815:3959   */\n      pop\n        /* \"#utility.yul\":3799:3803   */\n      0x20\n        /* \"#utility.yul\":3794:3797   */\n      dup2\n        /* \"#utility.yul\":3790:3804   */\n      add\n        /* \"#utility.yul\":3783:3804   */\n      swap1\n      pop\n        /* \"#utility.yul\":3739:3959   */\n      jump(tag_276)\n    tag_278:\n        /* \"#utility.yul\":3743:3764   */\n      pop\n        /* \"#utility.yul\":3357:3965   */\n      pop\n      pop\n        /* \"#utility.yul\":3255:3965   */\n      swap4\n      swap3\n      pop\n      pop\n      pop\n      jump\t// out\n        /* \"#utility.yul\":3988:4358   */\n    tag_200:\n        /* \"#utility.yul\":4059:4064   */\n      0x00\n        /* \"#utility.yul\":4108:4111   */\n      dup3\n        /* \"#utility.yul\":4101:4105   */\n      0x1f\n        /* \"#utility.yul\":4093:4099   */\n      dup4\n        /* \"#utility.yul\":4089:4106   */\n      add\n        /* \"#utility.yul\":4085:4112   */\n      slt\n        /* \"#utility.yul\":4075:4197   */\n      tag_281\n      jumpi\n        /* \"#utility.yul\":4116:4195   */\n      tag_282\n      tag_190\n      jump\t// in\n    tag_282:\n        /* \"#utility.yul\":4075:4197   */\n    tag_281:\n        /* \"#utility.yul\":4233:4239   */\n      dup2\n        /* \"#utility.yul\":4220:4240   */\n      calldataload\n        /* \"#utility.yul\":4258:4352   */\n      tag_283\n        /* \"#utility.yul\":4348:4351   */\n      dup5\n        /* \"#utility.yul\":4340:4346   */\n      dup3\n        /* \"#utility.yul\":4333:4337   */\n      0x20\n        /* \"#utility.yul\":4325:4331   */\n      dup7\n        /* \"#utility.yul\":4321:4338   */\n      add\n        /* \"#utility.yul\":4258:4352   */\n      tag_199\n      jump\t// in\n    tag_283:\n        /* \"#utility.yul\":4249:4352   */\n      swap2\n      pop\n        /* \"#utility.yul\":4065:4358   */\n      pop\n        /* \"#utility.yul\":3988:4358   */\n      swap3\n      swap2\n      pop\n      pop\n      jump\t// out\n        /* \"#utility.yul\":4364:4903   */\n    tag_21:\n        /* \"#utility.yul\":4448:4454   */\n      0x00\n        /* \"#utility.yul\":4497:4499   */\n      0x20\n        /* \"#utility.yul\":4485:4494   */\n      dup3\n        /* \"#utility.yul\":4476:4483   */\n      dup5\n        /* \"#utility.yul\":4472:4495   */\n      sub\n        /* \"#utility.yul\":4468:4500   */\n      slt\n        /* \"#utility.yul\":4465:4584   */\n      iszero\n      tag_285\n      jumpi\n        /* \"#utility.yul\":4503:4582   */\n      tag_286\n      tag_182\n      jump\t// in\n    tag_286:\n        /* \"#utility.yul\":4465:4584   */\n    tag_285:\n        /* \"#utility.yul\":4651:4652   */\n      0x00\n        /* \"#utility.yul\":4640:4649   */\n      dup3\n        /* \"#utility.yul\":4636:4653   */\n      add\n        /* \"#utility.yul\":4623:4654   */\n      calldataload\n        /* \"#utility.yul\":4681:4699   */\n      0xffffffffffffffff\n        /* \"#utility.yul\":4673:4679   */\n      dup2\n        /* \"#utility.yul\":4670:4700   */\n      gt\n        /* \"#utility.yul\":4667:4784   */\n      iszero\n      tag_287\n      jumpi\n        /* \"#utility.yul\":4703:4782   */\n      tag_288\n      tag_183\n      jump\t// in\n    tag_288:\n        /* \"#utility.yul\":4667:4784   */\n    tag_287:\n        /* \"#utility.yul\":4808:4886   */\n      tag_289\n        /* \"#utility.yul\":4878:4885   */\n      dup5\n        /* \"#utility.yul\":4869:4875   */\n      dup3\n        /* \"#utility.yul\":4858:4867   */\n      dup6\n        /* \"#utility.yul\":4854:4876   */\n      add\n        /* \"#utility.yul\":4808:4886   */\n      tag_200\n      jump\t// in\n    tag_289:\n        /* \"#utility.yul\":4798:4886   */\n      swap2\n      pop\n        /* \"#utility.yul\":4594:4896   */\n      pop\n        /* \"#utility.yul\":4364:4903   */\n      swap3\n      swap2\n      pop\n      pop\n      jump\t// out\n        /* \"#utility.yul\":4909:5023   */\n    tag_201:\n        /* \"#utility.yul\":4976:4982   */\n      0x00\n        /* \"#utility.yul\":5010:5015   */\n      dup2\n        /* \"#utility.yul\":5004:5016   */\n      mload\n        /* \"#utility.yul\":4994:5016   */\n      swap1\n      pop\n        /* \"#utility.yul\":4909:5023   */\n      swap2\n      swap1\n      pop\n      jump\t// out\n        /* \"#utility.yul\":5029:5213   */\n    tag_202:\n        /* \"#utility.yul\":5128:5139   */\n      0x00\n        /* \"#utility.yul\":5162:5168   */\n      dup3\n        /* \"#utility.yul\":5157:5160   */\n      dup3\n        /* \"#utility.yul\":5150:5169   */\n      mstore\n        /* \"#utility.yul\":5202:5206   */\n      0x20\n        /* \"#utility.yul\":5197:5200   */\n      dup3\n        /* \"#utility.yul\":5193:5207   */\n      add\n        /* \"#utility.yul\":5178:5207   */\n      swap1\n      pop\n        /* \"#utility.yul\":5029:5213   */\n      swap3\n      swap2\n      pop\n      pop\n      jump\t// out\n        /* \"#utility.yul\":5219:5351   */\n    tag_203:\n        /* \"#utility.yul\":5286:5290   */\n      0x00\n        /* \"#utility.yul\":5309:5312   */\n      dup2\n        /* \"#utility.yul\":5301:5312   */\n      swap1\n      pop\n        /* \"#utility.yul\":5339:5343   */\n      0x20\n        /* \"#utility.yul\":5334:5337   */\n      dup3\n        /* \"#utility.yul\":5330:5344   */\n      add\n        /* \"#utility.yul\":5322:5344   */\n      swap1\n      pop\n        /* \"#utility.yul\":5219:5351   */\n      swap2\n      swap1\n      pop\n      jump\t// out\n        /* \"#utility.yul\":5357:5465   */\n    tag_204:\n        /* \"#utility.yul\":5434:5458   */\n      tag_294\n        /* \"#utility.yul\":5452:5457   */\n      dup2\n        /* \"#utility.yul\":5434:5458   */\n      tag_196\n      jump\t// in\n    tag_294:\n        /* \"#utility.yul\":5429:5432   */\n      dup3\n        /* \"#utility.yul\":5422:5459   */\n      mstore\n        /* \"#utility.yul\":5357:5465   */\n      pop\n      pop\n      jump\t// out\n        /* \"#utility.yul\":5471:5650   */\n    tag_205:\n        /* \"#utility.yul\":5540:5550   */\n      0x00\n        /* \"#utility.yul\":5561:5607   */\n      tag_296\n        /* \"#utility.yul\":5603:5606   */\n      dup4\n        /* \"#utility.yul\":5595:5601   */\n      dup4\n        /* \"#utility.yul\":5561:5607   */\n      tag_204\n      jump\t// in\n    tag_296:\n        /* \"#utility.yul\":5639:5643   */\n      0x20\n        /* \"#utility.yul\":5634:5637   */\n      dup4\n        /* \"#utility.yul\":5630:5644   */\n      add\n        /* \"#utility.yul\":5616:5644   */\n      swap1\n      pop\n        /* \"#utility.yul\":5471:5650   */\n      swap3\n      swap2\n      pop\n      pop\n      jump\t// out\n        /* \"#utility.yul\":5656:5769   */\n    tag_206:\n        /* \"#utility.yul\":5726:5730   */\n      0x00\n        /* \"#utility.yul\":5758:5762   */\n      0x20\n        /* \"#utility.yul\":5753:5756   */\n      dup3\n        /* \"#utility.yul\":5749:5763   */\n      add\n        /* \"#utility.yul\":5741:5763   */\n      swap1\n      pop\n        /* \"#utility.yul\":5656:5769   */\n      swap2\n      swap1\n      pop\n      jump\t// out\n        /* \"#utility.yul\":5805:6537   */\n    tag_207:\n        /* \"#utility.yul\":5924:5927   */\n      0x00\n        /* \"#utility.yul\":5953:6007   */\n      tag_299\n        /* \"#utility.yul\":6001:6006   */\n      dup3\n        /* \"#utility.yul\":5953:6007   */\n      tag_201\n      jump\t// in\n    tag_299:\n        /* \"#utility.yul\":6023:6109   */\n      tag_300\n        /* \"#utility.yul\":6102:6108   */\n      dup2\n        /* \"#utility.yul\":6097:6100   */\n      dup6\n        /* \"#utility.yul\":6023:6109   */\n      tag_202\n      jump\t// in\n    tag_300:\n        /* \"#utility.yul\":6016:6109   */\n      swap4\n      pop\n        /* \"#utility.yul\":6133:6189   */\n      tag_301\n        /* \"#utility.yul\":6183:6188   */\n      dup4\n        /* \"#utility.yul\":6133:6189   */\n      tag_203\n      jump\t// in\n    tag_301:\n        /* \"#utility.yul\":6212:6219   */\n      dup1\n        /* \"#utility.yul\":6243:6244   */\n      0x00\n        /* \"#utility.yul\":6228:6512   */\n    tag_302:\n        /* \"#utility.yul\":6253:6259   */\n      dup4\n        /* \"#utility.yul\":6250:6251   */\n      dup2\n        /* \"#utility.yul\":6247:6260   */\n      lt\n        /* \"#utility.yul\":6228:6512   */\n      iszero\n      tag_304\n      jumpi\n        /* \"#utility.yul\":6329:6335   */\n      dup2\n        /* \"#utility.yul\":6323:6336   */\n      mload\n        /* \"#utility.yul\":6356:6419   */\n      tag_305\n        /* \"#utility.yul\":6415:6418   */\n      dup9\n        /* \"#utility.yul\":6400:6413   */\n      dup3\n        /* \"#utility.yul\":6356:6419   */\n      tag_205\n      jump\t// in\n    tag_305:\n        /* \"#utility.yul\":6349:6419   */\n      swap8\n      pop\n        /* \"#utility.yul\":6442:6502   */\n      tag_306\n        /* \"#utility.yul\":6495:6501   */\n      dup4\n        /* \"#utility.yul\":6442:6502   */\n      tag_206\n      jump\t// in\n    tag_306:\n        /* \"#utility.yul\":6432:6502   */\n      swap3\n      pop\n        /* \"#utility.yul\":6288:6512   */\n      pop\n        /* \"#utility.yul\":6275:6276   */\n      0x01\n        /* \"#utility.yul\":6272:6273   */\n      dup2\n        /* \"#utility.yul\":6268:6277   */\n      add\n        /* \"#utility.yul\":6263:6277   */\n      swap1\n      pop\n        /* \"#utility.yul\":6228:6512   */\n      jump(tag_302)\n    tag_304:\n        /* \"#utility.yul\":6232:6246   */\n      pop\n        /* \"#utility.yul\":6528:6531   */\n      dup6\n        /* \"#utility.yul\":6521:6531   */\n      swap4\n      pop\n        /* \"#utility.yul\":5929:6537   */\n      pop\n      pop\n      pop\n        /* \"#utility.yul\":5805:6537   */\n      swap3\n      swap2\n      pop\n      pop\n      jump\t// out\n        /* \"#utility.yul\":6543:6916   */\n    tag_24:\n        /* \"#utility.yul\":6686:6690   */\n      0x00\n        /* \"#utility.yul\":6724:6726   */\n      0x20\n        /* \"#utility.yul\":6713:6722   */\n      dup3\n        /* \"#utility.yul\":6709:6727   */\n      add\n        /* \"#utility.yul\":6701:6727   */\n      swap1\n      pop\n        /* \"#utility.yul\":6773:6782   */\n      dup2\n        /* \"#utility.yul\":6767:6771   */\n      dup2\n        /* \"#utility.yul\":6763:6783   */\n      sub\n        /* \"#utility.yul\":6759:6760   */\n      0x00\n        /* \"#utility.yul\":6748:6757   */\n      dup4\n        /* \"#utility.yul\":6744:6761   */\n      add\n        /* \"#utility.yul\":6737:6784   */\n      mstore\n        /* \"#utility.yul\":6801:6909   */\n      tag_308\n        /* \"#utility.yul\":6904:6908   */\n      dup2\n        /* \"#utility.yul\":6895:6901   */\n      dup5\n        /* \"#utility.yul\":6801:6909   */\n      tag_207\n      jump\t// in\n    tag_308:\n        /* \"#utility.yul\":6793:6909   */\n      swap1\n      pop\n        /* \"#utility.yul\":6543:6916   */\n      swap3\n      swap2\n      pop\n      pop\n      jump\t// out\n        /* \"#utility.yul\":6922:7233   */\n    tag_208:\n        /* \"#utility.yul\":6999:7003   */\n      0x00\n        /* \"#utility.yul\":7089:7107   */\n      0xffffffffffffffff\n        /* \"#utility.yul\":7081:7087   */\n      dup3\n        /* \"#utility.yul\":7078:7108   */\n      gt\n        /* \"#utility.yul\":7075:7131   */\n      iszero\n      tag_310\n      jumpi\n        /* \"#utility.yul\":7111:7129   */\n      tag_311\n      tag_59\n      jump\t// in\n    tag_311:\n        /* \"#utility.yul\":7075:7131   */\n    tag_310:\n        /* \"#utility.yul\":7161:7165   */\n      0x20\n        /* \"#utility.yul\":7153:7159   */\n      dup3\n        /* \"#utility.yul\":7149:7166   */\n      mul\n        /* \"#utility.yul\":7141:7166   */\n      swap1\n      pop\n        /* \"#utility.yul\":7221:7225   */\n      0x20\n        /* \"#utility.yul\":7215:7219   */\n      dup2\n        /* \"#utility.yul\":7211:7226   */\n      add\n        /* \"#utility.yul\":7203:7226   */\n      swap1\n      pop\n        /* \"#utility.yul\":6922:7233   */\n      swap2\n      swap1\n      pop\n      jump\t// out\n        /* \"#utility.yul\":7256:7966   */\n    tag_209:\n        /* \"#utility.yul\":7352:7357   */\n      0x00\n        /* \"#utility.yul\":7377:7458   */\n      tag_313\n        /* \"#utility.yul\":7393:7457   */\n      tag_314\n        /* \"#utility.yul\":7450:7456   */\n      dup5\n        /* \"#utility.yul\":7393:7457   */\n      tag_208\n      jump\t// in\n    tag_314:\n        /* \"#utility.yul\":7377:7458   */\n      tag_193\n      jump\t// in\n    tag_313:\n        /* \"#utility.yul\":7368:7458   */\n      swap1\n      pop\n        /* \"#utility.yul\":7478:7483   */\n      dup1\n        /* \"#utility.yul\":7507:7513   */\n      dup4\n        /* \"#utility.yul\":7500:7505   */\n      dup3\n        /* \"#utility.yul\":7493:7514   */\n      mstore\n        /* \"#utility.yul\":7541:7545   */\n      0x20\n        /* \"#utility.yul\":7534:7539   */\n      dup3\n        /* \"#utility.yul\":7530:7546   */\n      add\n        /* \"#utility.yul\":7523:7546   */\n      swap1\n      pop\n        /* \"#utility.yul\":7594:7598   */\n      0x20\n        /* \"#utility.yul\":7586:7592   */\n      dup5\n        /* \"#utility.yul\":7582:7599   */\n      mul\n        /* \"#utility.yul\":7574:7580   */\n      dup4\n        /* \"#utility.yul\":7570:7600   */\n      add\n        /* \"#utility.yul\":7623:7626   */\n      dup6\n        /* \"#utility.yul\":7615:7621   */\n      dup2\n        /* \"#utility.yul\":7612:7627   */\n      gt\n        /* \"#utility.yul\":7609:7731   */\n      iszero\n      tag_315\n      jumpi\n        /* \"#utility.yul\":7642:7721   */\n      tag_316\n      tag_195\n      jump\t// in\n    tag_316:\n        /* \"#utility.yul\":7609:7731   */\n    tag_315:\n        /* \"#utility.yul\":7757:7763   */\n      dup4\n        /* \"#utility.yul\":7740:7960   */\n    tag_317:\n        /* \"#utility.yul\":7774:7780   */\n      dup2\n        /* \"#utility.yul\":7769:7772   */\n      dup2\n        /* \"#utility.yul\":7766:7781   */\n      lt\n        /* \"#utility.yul\":7740:7960   */\n      iszero\n      tag_319\n      jumpi\n        /* \"#utility.yul\":7849:7852   */\n      dup1\n        /* \"#utility.yul\":7878:7915   */\n      tag_320\n        /* \"#utility.yul\":7911:7914   */\n      dup9\n        /* \"#utility.yul\":7899:7909   */\n      dup3\n        /* \"#utility.yul\":7878:7915   */\n      tag_187\n      jump\t// in\n    tag_320:\n        /* \"#utility.yul\":7873:7876   */\n      dup5\n        /* \"#utility.yul\":7866:7916   */\n      mstore\n        /* \"#utility.yul\":7945:7949   */\n      0x20\n        /* \"#utility.yul\":7940:7943   */\n      dup5\n        /* \"#utility.yul\":7936:7950   */\n      add\n        /* \"#utility.yul\":7929:7950   */\n      swap4\n      pop\n        /* \"#utility.yul\":7816:7960   */\n      pop\n        /* \"#utility.yul\":7800:7804   */\n      0x20\n        /* \"#utility.yul\":7795:7798   */\n      dup2\n        /* \"#utility.yul\":7791:7805   */\n      add\n        /* \"#utility.yul\":7784:7805   */\n      swap1\n      pop\n        /* \"#utility.yul\":7740:7960   */\n      jump(tag_317)\n    tag_319:\n        /* \"#utility.yul\":7744:7765   */\n      pop\n        /* \"#utility.yul\":7358:7966   */\n      pop\n      pop\n        /* \"#utility.yul\":7256:7966   */\n      swap4\n      swap3\n      pop\n      pop\n      pop\n      jump\t// out\n        /* \"#utility.yul\":7989:8359   */\n    tag_210:\n        /* \"#utility.yul\":8060:8065   */\n      0x00\n        /* \"#utility.yul\":8109:8112   */\n      dup3\n        /* \"#utility.yul\":8102:8106   */\n      0x1f\n        /* \"#utility.yul\":8094:8100   */\n      dup4\n        /* \"#utility.yul\":8090:8107   */\n      add\n        /* \"#utility.yul\":8086:8113   */\n      slt\n        /* \"#utility.yul\":8076:8198   */\n      tag_322\n      jumpi\n        /* \"#utility.yul\":8117:8196   */\n      tag_323\n      tag_190\n      jump\t// in\n    tag_323:\n        /* \"#utility.yul\":8076:8198   */\n    tag_322:\n        /* \"#utility.yul\":8234:8240   */\n      dup2\n        /* \"#utility.yul\":8221:8241   */\n      calldataload\n        /* \"#utility.yul\":8259:8353   */\n      tag_324\n        /* \"#utility.yul\":8349:8352   */\n      dup5\n        /* \"#utility.yul\":8341:8347   */\n      dup3\n        /* \"#utility.yul\":8334:8338   */\n      0x20\n        /* \"#utility.yul\":8326:8332   */\n      dup7\n        /* \"#utility.yul\":8322:8339   */\n      add\n        /* \"#utility.yul\":8259:8353   */\n      tag_209\n      jump\t// in\n    tag_324:\n        /* \"#utility.yul\":8250:8353   */\n      swap2\n      pop\n        /* \"#utility.yul\":8066:8359   */\n      pop\n        /* \"#utility.yul\":7989:8359   */\n      swap3\n      swap2\n      pop\n      pop\n      jump\t// out\n        /* \"#utility.yul\":8365:8904   */\n    tag_27:\n        /* \"#utility.yul\":8449:8455   */\n      0x00\n        /* \"#utility.yul\":8498:8500   */\n      0x20\n        /* \"#utility.yul\":8486:8495   */\n      dup3\n        /* \"#utility.yul\":8477:8484   */\n      dup5\n        /* \"#utility.yul\":8473:8496   */\n      sub\n        /* \"#utility.yul\":8469:8501   */\n      slt\n        /* \"#utility.yul\":8466:8585   */\n      iszero\n      tag_326\n      jumpi\n        /* \"#utility.yul\":8504:8583   */\n      tag_327\n      tag_182\n      jump\t// in\n    tag_327:\n        /* \"#utility.yul\":8466:8585   */\n    tag_326:\n        /* \"#utility.yul\":8652:8653   */\n      0x00\n        /* \"#utility.yul\":8641:8650   */\n      dup3\n        /* \"#utility.yul\":8637:8654   */\n      add\n        /* \"#utility.yul\":8624:8655   */\n      calldataload\n        /* \"#utility.yul\":8682:8700   */\n      0xffffffffffffffff\n        /* \"#utility.yul\":8674:8680   */\n      dup2\n        /* \"#utility.yul\":8671:8701   */\n      gt\n        /* \"#utility.yul\":8668:8785   */\n      iszero\n      tag_328\n      jumpi\n        /* \"#utility.yul\":8704:8783   */\n      tag_329\n      tag_183\n      jump\t// in\n    tag_329:\n        /* \"#utility.yul\":8668:8785   */\n    tag_328:\n        /* \"#utility.yul\":8809:8887   */\n      tag_330\n        /* \"#utility.yul\":8879:8886   */\n      dup5\n        /* \"#utility.yul\":8870:8876   */\n      dup3\n        /* \"#utility.yul\":8859:8868   */\n      dup6\n        /* \"#utility.yul\":8855:8877   */\n      add\n        /* \"#utility.yul\":8809:8887   */\n      tag_210\n      jump\t// in\n    tag_330:\n        /* \"#utility.yul\":8799:8887   */\n      swap2\n      pop\n        /* \"#utility.yul\":8595:8897   */\n      pop\n        /* \"#utility.yul\":8365:8904   */\n      swap3\n      swap2\n      pop\n      pop\n      jump\t// out\n        /* \"#utility.yul\":8910:9021   */\n    tag_211:\n        /* \"#utility.yul\":8974:8980   */\n      0x00\n        /* \"#utility.yul\":9008:9013   */\n      dup2\n        /* \"#utility.yul\":9002:9014   */\n      mload\n        /* \"#utility.yul\":8992:9014   */\n      swap1\n      pop\n        /* \"#utility.yul\":8910:9021   */\n      swap2\n      swap1\n      pop\n      jump\t// out\n        /* \"#utility.yul\":9027:9208   */\n    tag_212:\n        /* \"#utility.yul\":9123:9134   */\n      0x00\n        /* \"#utility.yul\":9157:9163   */\n      dup3\n        /* \"#utility.yul\":9152:9155   */\n      dup3\n        /* \"#utility.yul\":9145:9164   */\n      mstore\n        /* \"#utility.yul\":9197:9201   */\n      0x20\n        /* \"#utility.yul\":9192:9195   */\n      dup3\n        /* \"#utility.yul\":9188:9202   */\n      add\n        /* \"#utility.yul\":9173:9202   */\n      swap1\n      pop\n        /* \"#utility.yul\":9027:9208   */\n      swap3\n      swap2\n      pop\n      pop\n      jump\t// out\n        /* \"#utility.yul\":9214:9343   */\n    tag_213:\n        /* \"#utility.yul\":9278:9282   */\n      0x00\n        /* \"#utility.yul\":9301:9304   */\n      dup2\n        /* \"#utility.yul\":9293:9304   */\n      swap1\n      pop\n        /* \"#utility.yul\":9331:9335   */\n      0x20\n        /* \"#utility.yul\":9326:9329   */\n      dup3\n        /* \"#utility.yul\":9322:9336   */\n      add\n        /* \"#utility.yul\":9314:9336   */\n      swap1\n      pop\n        /* \"#utility.yul\":9214:9343   */\n      swap2\n      swap1\n      pop\n      jump\t// out\n        /* \"#utility.yul\":9349:9448   */\n    tag_214:\n        /* \"#utility.yul\":9420:9441   */\n      tag_335\n        /* \"#utility.yul\":9435:9440   */\n      dup2\n        /* \"#utility.yul\":9420:9441   */\n      tag_188\n      jump\t// in\n    tag_335:\n        /* \"#utility.yul\":9415:9418   */\n      dup3\n        /* \"#utility.yul\":9408:9442   */\n      mstore\n        /* \"#utility.yul\":9349:9448   */\n      pop\n      pop\n      jump\t// out\n        /* \"#utility.yul\":9454:9621   */\n    tag_215:\n        /* \"#utility.yul\":9517:9527   */\n      0x00\n        /* \"#utility.yul\":9538:9578   */\n      tag_337\n        /* \"#utility.yul\":9574:9577   */\n      dup4\n        /* \"#utility.yul\":9566:9572   */\n      dup4\n        /* \"#utility.yul\":9538:9578   */\n      tag_214\n      jump\t// in\n    tag_337:\n        /* \"#utility.yul\":9610:9614   */\n      0x20\n        /* \"#utility.yul\":9605:9608   */\n      dup4\n        /* \"#utility.yul\":9601:9615   */\n      add\n        /* \"#utility.yul\":9587:9615   */\n      swap1\n      pop\n        /* \"#utility.yul\":9454:9621   */\n      swap3\n      swap2\n      pop\n      pop\n      jump\t// out\n        /* \"#utility.yul\":9627:9737   */\n    tag_216:\n        /* \"#utility.yul\":9694:9698   */\n      0x00\n        /* \"#utility.yul\":9726:9730   */\n      0x20\n        /* \"#utility.yul\":9721:9724   */\n      dup3\n        /* \"#utility.yul\":9717:9731   */\n      add\n        /* \"#utility.yul\":9709:9731   */\n      swap1\n      pop\n        /* \"#utility.yul\":9627:9737   */\n      swap2\n      swap1\n      pop\n      jump\t// out\n        /* \"#utility.yul\":9767:10475   */\n    tag_217:\n        /* \"#utility.yul\":9880:9883   */\n      0x00\n        /* \"#utility.yul\":9909:9960   */\n      tag_340\n        /* \"#utility.yul\":9954:9959   */\n      dup3\n        /* \"#utility.yul\":9909:9960   */\n      tag_211\n      jump\t// in\n    tag_340:\n        /* \"#utility.yul\":9976:10059   */\n      tag_341\n        /* \"#utility.yul\":10052:10058   */\n      dup2\n        /* \"#utility.yul\":10047:10050   */\n      dup6\n        /* \"#utility.yul\":9976:10059   */\n      tag_212\n      jump\t// in\n    tag_341:\n        /* \"#utility.yul\":9969:10059   */\n      swap4\n      pop\n        /* \"#utility.yul\":10083:10136   */\n      tag_342\n        /* \"#utility.yul\":10130:10135   */\n      dup4\n        /* \"#utility.yul\":10083:10136   */\n      tag_213\n      jump\t// in\n    tag_342:\n        /* \"#utility.yul\":10159:10166   */\n      dup1\n        /* \"#utility.yul\":10190:10191   */\n      0x00\n        /* \"#utility.yul\":10175:10450   */\n    tag_343:\n        /* \"#utility.yul\":10200:10206   */\n      dup4\n        /* \"#utility.yul\":10197:10198   */\n      dup2\n        /* \"#utility.yul\":10194:10207   */\n      lt\n        /* \"#utility.yul\":10175:10450   */\n      iszero\n      tag_345\n      jumpi\n        /* \"#utility.yul\":10276:10282   */\n      dup2\n        /* \"#utility.yul\":10270:10283   */\n      mload\n        /* \"#utility.yul\":10303:10360   */\n      tag_346\n        /* \"#utility.yul\":10356:10359   */\n      dup9\n        /* \"#utility.yul\":10341:10354   */\n      dup3\n        /* \"#utility.yul\":10303:10360   */\n      tag_215\n      jump\t// in\n    tag_346:\n        /* \"#utility.yul\":10296:10360   */\n      swap8\n      pop\n        /* \"#utility.yul\":10383:10440   */\n      tag_347\n        /* \"#utility.yul\":10433:10439   */\n      dup4\n        /* \"#utility.yul\":10383:10440   */\n      tag_216\n      jump\t// in\n    tag_347:\n        /* \"#utility.yul\":10373:10440   */\n      swap3\n      pop\n        /* \"#utility.yul\":10235:10450   */\n      pop\n        /* \"#utility.yul\":10222:10223   */\n      0x01\n        /* \"#utility.yul\":10219:10220   */\n      dup2\n        /* \"#utility.yul\":10215:10224   */\n      add\n        /* \"#utility.yul\":10210:10224   */\n      swap1\n      pop\n        /* \"#utility.yul\":10175:10450   */\n      jump(tag_343)\n    tag_345:\n        /* \"#utility.yul\":10179:10193   */\n      pop\n        /* \"#utility.yul\":10466:10469   */\n      dup6\n        /* \"#utility.yul\":10459:10469   */\n      swap4\n      pop\n        /* \"#utility.yul\":9885:10475   */\n      pop\n      pop\n      pop\n        /* \"#utility.yul\":9767:10475   */\n      swap3\n      swap2\n      pop\n      pop\n      jump\t// out\n        /* \"#utility.yul\":10481:10842   */\n    tag_34:\n        /* \"#utility.yul\":10618:10622   */\n      0x00\n        /* \"#utility.yul\":10656:10658   */\n      0x20\n        /* \"#utility.yul\":10645:10654   */\n      dup3\n        /* \"#utility.yul\":10641:10659   */\n      add\n        /* \"#utility.yul\":10633:10659   */\n      swap1\n      pop\n        /* \"#utility.yul\":10705:10714   */\n      dup2\n        /* \"#utility.yul\":10699:10703   */\n      dup2\n        /* \"#utility.yul\":10695:10715   */\n      sub\n        /* \"#utility.yul\":10691:10692   */\n      0x00\n        /* \"#utility.yul\":10680:10689   */\n      dup4\n        /* \"#utility.yul\":10676:10693   */\n      add\n        /* \"#utility.yul\":10669:10716   */\n      mstore\n        /* \"#utility.yul\":10733:10835   */\n      tag_349\n        /* \"#utility.yul\":10830:10834   */\n      dup2\n        /* \"#utility.yul\":10821:10827   */\n      dup5\n        /* \"#utility.yul\":10733:10835   */\n      tag_217\n      jump\t// in\n    tag_349:\n        /* \"#utility.yul\":10725:10835   */\n      swap1\n      pop\n        /* \"#utility.yul\":10481:10842   */\n      swap3\n      swap2\n      pop\n      pop\n      jump\t// out\n        /* \"#utility.yul\":10848:10966   */\n    tag_218:\n        /* \"#utility.yul\":10935:10959   */\n      tag_351\n        /* \"#utility.yul\":10953:10958   */\n      dup2\n        /* \"#utility.yul\":10935:10959   */\n      tag_196\n      jump\t// in\n    tag_351:\n        /* \"#utility.yul\":10930:10933   */\n      dup3\n        /* \"#utility.yul\":10923:10960   */\n      mstore\n        /* \"#utility.yul\":10848:10966   */\n      pop\n      pop\n      jump\t// out\n        /* \"#utility.yul\":10972:11194   */\n    tag_39:\n        /* \"#utility.yul\":11065:11069   */\n      0x00\n        /* \"#utility.yul\":11103:11105   */\n      0x20\n        /* \"#utility.yul\":11092:11101   */\n      dup3\n        /* \"#utility.yul\":11088:11106   */\n      add\n        /* \"#utility.yul\":11080:11106   */\n      swap1\n      pop\n        /* \"#utility.yul\":11116:11187   */\n      tag_353\n        /* \"#utility.yul\":11184:11185   */\n      0x00\n        /* \"#utility.yul\":11173:11182   */\n      dup4\n        /* \"#utility.yul\":11169:11186   */\n      add\n        /* \"#utility.yul\":11160:11166   */\n      dup5\n        /* \"#utility.yul\":11116:11187   */\n      tag_218\n      jump\t// in\n    tag_353:\n        /* \"#utility.yul\":10972:11194   */\n      swap3\n      swap2\n      pop\n      pop\n      jump\t// out\n        /* \"#utility.yul\":11200:11314   */\n    tag_219:\n        /* \"#utility.yul\":11267:11273   */\n      0x00\n        /* \"#utility.yul\":11301:11306   */\n      dup2\n        /* \"#utility.yul\":11295:11307   */\n      mload\n        /* \"#utility.yul\":11285:11307   */\n      swap1\n      pop\n        /* \"#utility.yul\":11200:11314   */\n      swap2\n      swap1\n      pop\n      jump\t// out\n        /* \"#utility.yul\":11320:11504   */\n    tag_220:\n        /* \"#utility.yul\":11419:11430   */\n      0x00\n        /* \"#utility.yul\":11453:11459   */\n      dup3\n        /* \"#utility.yul\":11448:11451   */\n      dup3\n        /* \"#utility.yul\":11441:11460   */\n      mstore\n        /* \"#utility.yul\":11493:11497   */\n      0x20\n        /* \"#utility.yul\":11488:11491   */\n      dup3\n        /* \"#utility.yul\":11484:11498   */\n      add\n        /* \"#utility.yul\":11469:11498   */\n      swap1\n      pop\n        /* \"#utility.yul\":11320:11504   */\n      swap3\n      swap2\n      pop\n      pop\n      jump\t// out\n        /* \"#utility.yul\":11510:11642   */\n    tag_221:\n        /* \"#utility.yul\":11577:11581   */\n      0x00\n        /* \"#utility.yul\":11600:11603   */\n      dup2\n        /* \"#utility.yul\":11592:11603   */\n      swap1\n      pop\n        /* \"#utility.yul\":11630:11634   */\n      0x20\n        /* \"#utility.yul\":11625:11628   */\n      dup3\n        /* \"#utility.yul\":11621:11635   */\n      add\n        /* \"#utility.yul\":11613:11635   */\n      swap1\n      pop\n        /* \"#utility.yul\":11510:11642   */\n      swap2\n      swap1\n      pop\n      jump\t// out\n        /* \"#utility.yul\":11648:11756   */\n    tag_222:\n        /* \"#utility.yul\":11725:11749   */\n      tag_358\n        /* \"#utility.yul\":11743:11748   */\n      dup2\n        /* \"#utility.yul\":11725:11749   */\n      tag_185\n      jump\t// in\n    tag_358:\n        /* \"#utility.yul\":11720:11723   */\n      dup3\n        /* \"#utility.yul\":11713:11750   */\n      mstore\n        /* \"#utility.yul\":11648:11756   */\n      pop\n      pop\n      jump\t// out\n        /* \"#utility.yul\":11762:11941   */\n    tag_223:\n        /* \"#utility.yul\":11831:11841   */\n      0x00\n        /* \"#utility.yul\":11852:11898   */\n      tag_360\n        /* \"#utility.yul\":11894:11897   */\n      dup4\n        /* \"#utility.yul\":11886:11892   */\n      dup4\n        /* \"#utility.yul\":11852:11898   */\n      tag_222\n      jump\t// in\n    tag_360:\n        /* \"#utility.yul\":11930:11934   */\n      0x20\n        /* \"#utility.yul\":11925:11928   */\n      dup4\n        /* \"#utility.yul\":11921:11935   */\n      add\n        /* \"#utility.yul\":11907:11935   */\n      swap1\n      pop\n        /* \"#utility.yul\":11762:11941   */\n      swap3\n      swap2\n      pop\n      pop\n      jump\t// out\n        /* \"#utility.yul\":11947:12060   */\n    tag_224:\n        /* \"#utility.yul\":12017:12021   */\n      0x00\n        /* \"#utility.yul\":12049:12053   */\n      0x20\n        /* \"#utility.yul\":12044:12047   */\n      dup3\n        /* \"#utility.yul\":12040:12054   */\n      add\n        /* \"#utility.yul\":12032:12054   */\n      swap1\n      pop\n        /* \"#utility.yul\":11947:12060   */\n      swap2\n      swap1\n      pop\n      jump\t// out\n        /* \"#utility.yul\":12096:12828   */\n    tag_225:\n        /* \"#utility.yul\":12215:12218   */\n      0x00\n        /* \"#utility.yul\":12244:12298   */\n      tag_363\n        /* \"#utility.yul\":12292:12297   */\n      dup3\n        /* \"#utility.yul\":12244:12298   */\n      tag_219\n      jump\t// in\n    tag_363:\n        /* \"#utility.yul\":12314:12400   */\n      tag_364\n        /* \"#utility.yul\":12393:12399   */\n      dup2\n        /* \"#utility.yul\":12388:12391   */\n      dup6\n        /* \"#utility.yul\":12314:12400   */\n      tag_220\n      jump\t// in\n    tag_364:\n        /* \"#utility.yul\":12307:12400   */\n      swap4\n      pop\n        /* \"#utility.yul\":12424:12480   */\n      tag_365\n        /* \"#utility.yul\":12474:12479   */\n      dup4\n        /* \"#utility.yul\":12424:12480   */\n      tag_221\n      jump\t// in\n    tag_365:\n        /* \"#utility.yul\":12503:12510   */\n      dup1\n        /* \"#utility.yul\":12534:12535   */\n      0x00\n        /* \"#utility.yul\":12519:12803   */\n    tag_366:\n        /* \"#utility.yul\":12544:12550   */\n      dup4\n        /* \"#utility.yul\":12541:12542   */\n      dup2\n        /* \"#utility.yul\":12538:12551   */\n      lt\n        /* \"#utility.yul\":12519:12803   */\n      iszero\n      tag_368\n      jumpi\n        /* \"#utility.yul\":12620:12626   */\n      dup2\n        /* \"#utility.yul\":12614:12627   */\n      mload\n        /* \"#utility.yul\":12647:12710   */\n      tag_369\n        /* \"#utility.yul\":12706:12709   */\n      dup9\n        /* \"#utility.yul\":12691:12704   */\n      dup3\n        /* \"#utility.yul\":12647:12710   */\n      tag_223\n      jump\t// in\n    tag_369:\n        /* \"#utility.yul\":12640:12710   */\n      swap8\n      pop\n        /* \"#utility.yul\":12733:12793   */\n      tag_370\n        /* \"#utility.yul\":12786:12792   */\n      dup4\n        /* \"#utility.yul\":12733:12793   */\n      tag_224\n      jump\t// in\n    tag_370:\n        /* \"#utility.yul\":12723:12793   */\n      swap3\n      pop\n        /* \"#utility.yul\":12579:12803   */\n      pop\n        /* \"#utility.yul\":12566:12567   */\n      0x01\n        /* \"#utility.yul\":12563:12564   */\n      dup2\n        /* \"#utility.yul\":12559:12568   */\n      add\n        /* \"#utility.yul\":12554:12568   */\n      swap1\n      pop\n        /* \"#utility.yul\":12519:12803   */\n      jump(tag_366)\n    tag_368:\n        /* \"#utility.yul\":12523:12537   */\n      pop\n        /* \"#utility.yul\":12819:12822   */\n      dup6\n        /* \"#utility.yul\":12812:12822   */\n      swap4\n      pop\n        /* \"#utility.yul\":12220:12828   */\n      pop\n      pop\n      pop\n        /* \"#utility.yul\":12096:12828   */\n      swap3\n      swap2\n      pop\n      pop\n      jump\t// out\n        /* \"#utility.yul\":12834:13207   */\n    tag_50:\n        /* \"#utility.yul\":12977:12981   */\n      0x00\n        /* \"#utility.yul\":13015:13017   */\n      0x20\n        /* \"#utility.yul\":13004:13013   */\n      dup3\n        /* \"#utility.yul\":13000:13018   */\n      add\n        /* \"#utility.yul\":12992:13018   */\n      swap1\n      pop\n        /* \"#utility.yul\":13064:13073   */\n      dup2\n        /* \"#utility.yul\":13058:13062   */\n      dup2\n        /* \"#utility.yul\":13054:13074   */\n      sub\n        /* \"#utility.yul\":13050:13051   */\n      0x00\n        /* \"#utility.yul\":13039:13048   */\n      dup4\n        /* \"#utility.yul\":13035:13052   */\n      add\n        /* \"#utility.yul\":13028:13075   */\n      mstore\n        /* \"#utility.yul\":13092:13200   */\n      tag_372\n        /* \"#utility.yul\":13195:13199   */\n      dup2\n        /* \"#utility.yul\":13186:13192   */\n      dup5\n        /* \"#utility.yul\":13092:13200   */\n      tag_225\n      jump\t// in\n    tag_372:\n        /* \"#utility.yul\":13084:13200   */\n      swap1\n      pop\n        /* \"#utility.yul\":12834:13207   */\n      swap3\n      swap2\n      pop\n      pop\n      jump\t// out\n        /* \"#utility.yul\":13213:13393   */\n    tag_226:\n        /* \"#utility.yul\":13261:13338   */\n      0x4e487b7100000000000000000000000000000000000000000000000000000000\n        /* \"#utility.yul\":13258:13259   */\n      0x00\n        /* \"#utility.yul\":13251:13339   */\n      mstore\n        /* \"#utility.yul\":13358:13362   */\n      0x11\n        /* \"#utility.yul\":13355:13356   */\n      0x04\n        /* \"#utility.yul\":13348:13363   */\n      mstore\n        /* \"#utility.yul\":13382:13386   */\n      0x24\n        /* \"#utility.yul\":13379:13380   */\n      0x00\n        /* \"#utility.yul\":13372:13387   */\n      revert\n        /* \"#utility.yul\":13399:13593   */\n    tag_62:\n        /* \"#utility.yul\":13439:13443   */\n      0x00\n        /* \"#utility.yul\":13459:13479   */\n      tag_375\n        /* \"#utility.yul\":13477:13478   */\n      dup3\n        /* \"#utility.yul\":13459:13479   */\n      tag_196\n      jump\t// in\n    tag_375:\n        /* \"#utility.yul\":13454:13479   */\n      swap2\n      pop\n        /* \"#utility.yul\":13493:13513   */\n      tag_376\n        /* \"#utility.yul\":13511:13512   */\n      dup4\n        /* \"#utility.yul\":13493:13513   */\n      tag_196\n      jump\t// in\n    tag_376:\n        /* \"#utility.yul\":13488:13513   */\n      swap3\n      pop\n        /* \"#utility.yul\":13537:13538   */\n      dup3\n        /* \"#utility.yul\":13534:13535   */\n      dup3\n        /* \"#utility.yul\":13530:13539   */\n      sub\n        /* \"#utility.yul\":13522:13539   */\n      swap1\n      pop\n        /* \"#utility.yul\":13561:13562   */\n      dup2\n        /* \"#utility.yul\":13555:13559   */\n      dup2\n        /* \"#utility.yul\":13552:13563   */\n      gt\n        /* \"#utility.yul\":13549:13586   */\n      iszero\n      tag_377\n      jumpi\n        /* \"#utility.yul\":13566:13584   */\n      tag_378\n      tag_226\n      jump\t// in\n    tag_378:\n        /* \"#utility.yul\":13549:13586   */\n    tag_377:\n        /* \"#utility.yul\":13399:13593   */\n      swap3\n      swap2\n      pop\n      pop\n      jump\t// out\n        /* \"#utility.yul\":13599:13779   */\n    tag_67:\n        /* \"#utility.yul\":13647:13724   */\n      0x4e487b7100000000000000000000000000000000000000000000000000000000\n        /* \"#utility.yul\":13644:13645   */\n      0x00\n        /* \"#utility.yul\":13637:13725   */\n      mstore\n        /* \"#utility.yul\":13744:13748   */\n      0x32\n        /* \"#utility.yul\":13741:13742   */\n      0x04\n        /* \"#utility.yul\":13734:13749   */\n      mstore\n        /* \"#utility.yul\":13768:13772   */\n      0x24\n        /* \"#utility.yul\":13765:13766   */\n      0x00\n        /* \"#utility.yul\":13758:13773   */\n      revert\n        /* \"#utility.yul\":13785:14018   */\n    tag_75:\n        /* \"#utility.yul\":13824:13827   */\n      0x00\n        /* \"#utility.yul\":13847:13871   */\n      tag_381\n        /* \"#utility.yul\":13865:13870   */\n      dup3\n        /* \"#utility.yul\":13847:13871   */\n      tag_196\n      jump\t// in\n    tag_381:\n        /* \"#utility.yul\":13838:13871   */\n      swap2\n      pop\n        /* \"#utility.yul\":13893:13959   */\n      0xffffffffffffffffffffffffffffffffffffffffffffffffffffffffffffffff\n        /* \"#utility.yul\":13886:13891   */\n      dup3\n        /* \"#utility.yul\":13883:13960   */\n      sub\n        /* \"#utility.yul\":13880:13983   */\n      tag_382\n      jumpi\n        /* \"#utility.yul\":13963:13981   */\n      tag_383\n      tag_226\n      jump\t// in\n    tag_383:\n        /* \"#utility.yul\":13880:13983   */\n    tag_382:\n        /* \"#utility.yul\":14010:14011   */\n      0x01\n        /* \"#utility.yul\":14003:14008   */\n      dup3\n        /* \"#utility.yul\":13999:14012   */\n      add\n        /* \"#utility.yul\":13992:14012   */\n      swap1\n      pop\n        /* \"#utility.yul\":13785:14018   */\n      swap2\n      swap1\n      pop\n      jump\t// out\n        /* \"#utility.yul\":14024:14193   */\n    tag_227:\n        /* \"#utility.yul\":14108:14119   */\n      0x00\n        /* \"#utility.yul\":14142:14148   */\n      dup3\n        /* \"#utility.yul\":14137:14140   */\n      dup3\n        /* \"#utility.yul\":14130:14149   */\n      mstore\n        /* \"#utility.yul\":14182:14186   */\n      0x20\n        /* \"#utility.yul\":14177:14180   */\n      dup3\n        /* \"#utility.yul\":14173:14187   */\n      add\n        /* \"#utility.yul\":14158:14187   */\n      swap1\n      pop\n        /* \"#utility.yul\":14024:14193   */\n      swap3\n      swap2\n      pop\n      pop\n      jump\t// out\n        /* \"#utility.yul\":14199:14362   */\n    tag_228:\n        /* \"#utility.yul\":14339:14354   */\n      0x617272617920746f6f2062696700000000000000000000000000000000000000\n        /* \"#utility.yul\":14335:14336   */\n      0x00\n        /* \"#utility.yul\":14327:14333   */\n      dup3\n        /* \"#utility.yul\":14323:14337   */\n      add\n        /* \"#utility.yul\":14316:14355   */\n      mstore\n        /* \"#utility.yul\":14199:14362   */\n      pop\n      jump\t// out\n        /* \"#utility.yul\":14368:14734   */\n    tag_229:\n        /* \"#utility.yul\":14510:14513   */\n      0x00\n        /* \"#utility.yul\":14531:14598   */\n      tag_387\n        /* \"#utility.yul\":14595:14597   */\n      0x0d\n        /* \"#utility.yul\":14590:14593   */\n      dup4\n        /* \"#utility.yul\":14531:14598   */\n      tag_227\n      jump\t// in\n    tag_387:\n        /* \"#utility.yul\":14524:14598   */\n      swap2\n      pop\n        /* \"#utility.yul\":14607:14700   */\n      tag_388\n        /* \"#utility.yul\":14696:14699   */\n      dup3\n        /* \"#utility.yul\":14607:14700   */\n      tag_228\n      jump\t// in\n    tag_388:\n        /* \"#utility.yul\":14725:14727   */\n      0x20\n        /* \"#utility.yul\":14720:14723   */\n      dup3\n        /* \"#utility.yul\":14716:14728   */\n      add\n        /* \"#utility.yul\":14709:14728   */\n      swap1\n      pop\n        /* \"#utility.yul\":14368:14734   */\n      swap2\n      swap1\n      pop\n      jump\t// out\n        /* \"#utility.yul\":14740:15159   */\n    tag_80:\n        /* \"#utility.yul\":14906:14910   */\n      0x00\n        /* \"#utility.yul\":14944:14946   */\n      0x20\n        /* \"#utility.yul\":14933:14942   */\n      dup3\n        /* \"#utility.yul\":14929:14947   */\n      add\n        /* \"#utility.yul\":14921:14947   */\n      swap1\n      pop\n        /* \"#utility.yul\":14993:15002   */\n      dup2\n        /* \"#utility.yul\":14987:14991   */\n      dup2\n        /* \"#utility.yul\":14983:15003   */\n      sub\n        /* \"#utility.yul\":14979:14980   */\n      0x00\n        /* \"#utility.yul\":14968:14977   */\n      dup4\n        /* \"#utility.yul\":14964:14981   */\n      add\n        /* \"#utility.yul\":14957:15004   */\n      mstore\n        /* \"#utility.yul\":15021:15152   */\n      tag_390\n        /* \"#utility.yul\":15147:15151   */\n      dup2\n        /* \"#utility.yul\":15021:15152   */\n      tag_229\n      jump\t// in\n    tag_390:\n        /* \"#utility.yul\":15013:15152   */\n      swap1\n      pop\n        /* \"#utility.yul\":14740:15159   */\n      swap2\n      swap1\n      pop\n      jump\t// out\n        /* \"#utility.yul\":15165:15356   */\n    tag_91:\n        /* \"#utility.yul\":15205:15208   */\n      0x00\n        /* \"#utility.yul\":15224:15244   */\n      tag_392\n        /* \"#utility.yul\":15242:15243   */\n      dup3\n        /* \"#utility.yul\":15224:15244   */\n      tag_196\n      jump\t// in\n    tag_392:\n        /* \"#utility.yul\":15219:15244   */\n      swap2\n      pop\n        /* \"#utility.yul\":15258:15278   */\n      tag_393\n        /* \"#utility.yul\":15276:15277   */\n      dup4\n        /* \"#utility.yul\":15258:15278   */\n      tag_196\n      jump\t// in\n    tag_393:\n        /* \"#utility.yul\":15253:15278   */\n      swap3\n      pop\n        /* \"#utility.yul\":15301:15302   */\n      dup3\n        /* \"#utility.yul\":15298:15299   */\n      dup3\n        /* \"#utility.yul\":15294:15303   */\n      add\n        /* \"#utility.yul\":15287:15303   */\n      swap1\n      pop\n        /* \"#utility.yul\":15322:15325   */\n      dup1\n        /* \"#utility.yul\":15319:15320   */\n      dup3\n        /* \"#utility.yul\":15316:15326   */\n      gt\n        /* \"#utility.yul\":15313:15349   */\n      iszero\n      tag_394\n      jumpi\n        /* \"#utility.yul\":15329:15347   */\n      tag_395\n      tag_226\n      jump\t// in\n    tag_395:\n        /* \"#utility.yul\":15313:15349   */\n    tag_394:\n        /* \"#utility.yul\":15165:15356   */\n      swap3\n      swap2\n      pop\n      pop\n      jump\t// out\n\n    auxdata: 0xa2646970667358221220be4ac0a0bb25a7a0ad7c25fda1268f5ac21fb19907732da5500a77b9cc1e6d6964736f6c634300081e0033\n}\n",
				"bytecode": {
					"linkReferences": {},
					"object": "6080604052348015600e575f5ffd5b506113608061001c5f395ff3fe608060405234801561000f575f5ffd5b5060043610610091575f3560e01c80639bb86350116100645780639bb8635014610155578063a13202e914610185578063d587d5ed146101a3578063ec10172d146101d3578063f797eee3146101f157610091565b80633af32abf1461009557806360be465a146100c557806364c20abc146100f55780638165e93214610125575b5f5ffd5b6100af60048036038101906100aa9190610bcf565b61020d565b6040516100bc9190610c14565b60405180910390f35b6100df60048036038101906100da9190610db0565b61025e565b6040516100ec9190610eae565b60405180910390f35b61010f600480360381019061010a9190610f8e565b610376565b60405161011c9190610c14565b60405180910390f35b61013f600480360381019061013a9190610f8e565b6104b2565b60405161014c919061108c565b60405180910390f35b61016f600480360381019061016a9190610db0565b6105a9565b60405161017c91906110bb565b60405180910390f35b61018d61061b565b60405161019a91906110bb565b60405180910390f35b6101bd60048036038101906101b89190610f8e565b610627565b6040516101ca91906110bb565b60405180910390f35b6101db61069a565b6040516101e8919061118b565b60405180910390f35b61020b60048036038101906102069190610f8e565b610725565b005b5f5f5f8373ffffffffffffffffffffffffffffffffffffffff1673ffffffffffffffffffffffffffffffffffffffff1681526020019081526020015f205f9054906101000a900460ff169050919050565b60605f82510361027057819050610371565b815167ffffffffffffffff81111561028b5761028a610c41565b5b6040519080825280602002602001820160405280156102b95781602001602082028036833780820191505090505b5090505f5f90505f600184516102cf91906111d8565b90505b80821161036e578381815181106102ec576102eb61120b565b5b60200260200101518383815181106103075761030661120b565b5b6020026020010181815250508382815181106103265761032561120b565b5b60200260200101518382815181106103415761034061120b565b5b602002602001018181525050818061035890611238565b925050808061036690611238565b9150506102d2565b50505b919050565b5f610100825111156103bd576040517f08c379a00000000000000000000000000000000000000000000000000000000081526004016103b4906112d9565b60405180910390fd5b60018251116103ce575f90506104ad565b600a8251116104a1575f5f90505b600183516103ea91906111d8565b811015610498575f6001826103ff91906112f7565b90505b835181101561048a5783818151811061041e5761041d61120b565b5b602002602001015173ffffffffffffffffffffffffffffffffffffffff1684838151811061044f5761044e61120b565b5b602002602001015173ffffffffffffffffffffffffffffffffffffffff160361047d576001925050506104ad565b8080600101915050610402565b5080806001019150506103dc565b505f90506104ad565b6104aa82610a98565b90505b919050565b6060815167ffffffffffffffff8111156104cf576104ce610c41565b5b6040519080825280602002602001820160405280156104fd5781602001602082028036833780820191505090505b5090505f5f90505b82518110156105a3575f5f8483815181106105235761052261120b565b5b602002602001015173ffffffffffffffffffffffffffffffffffffffff1673ffffffffffffffffffffffffffffffffffffffff1681526020019081526020015f205f9054906101000a900460ff168282815181106105845761058361120b565b5b6020026020010190151590811515815250508080600101915050610505565b50919050565b5f5f90505f5f90505b8251811015610615575f60018483815181106105d1576105d061120b565b5b60200260200101511603610608578281815181106105f2576105f161120b565b5b60200260200101518261060591906112f7565b91505b80806001019150506105b2565b50919050565b5f600180549050905090565b5f5f90505f5f90505b8251811015610694575f83828151811061064d5761064c61120b565b5b602002602001015173ffffffffffffffffffffffffffffffffffffffff1690505f600182160361068657808361068391906112f7565b92505b508080600101915050610630565b50919050565b6060600180548060200260200160405190810160405280929190818152602001828054801561071b57602002820191905f5260205f20905b815f9054906101000a900473ffffffffffffffffffffffffffffffffffffffff1673ffffffffffffffffffffffffffffffffffffffff16815260200190600101908083116106d2575b5050505050905090565b5f5f90505f5f90505b825181101561080e575f5f84838151811061074c5761074b61120b565b5b602002602001015173ffffffffffffffffffffffffffffffffffffffff1673ffffffffffffffffffffffffffffffffffffffff1681526020019081526020015f205f9054906101000a900460ff161580156107ed57505f73ffffffffffffffffffffffffffffffffffffffff168382815181106107cc576107cb61120b565b5b602002602001015173ffffffffffffffffffffffffffffffffffffffff1614155b156108015781806107fd90611238565b9250505b808060010191505061072e565b505f811115610a94575f60018054905090505f8267ffffffffffffffff81111561083b5761083a610c41565b5b6040519080825280602002602001820160405280156108695781602001602082028036833780820191505090505b5090505f5f90505f5f90505b85518110156109e2575f8682815181106108925761089161120b565b5b602002602001015190505f5f8273ffffffffffffffffffffffffffffffffffffffff1673ffffffffffffffffffffffffffffffffffffffff1681526020019081526020015f205f9054906101000a900460ff1615801561091e57505f73ffffffffffffffffffffffffffffffffffffffff168173ffffffffffffffffffffffffffffffffffffffff1614155b156109d45760015f5f8373ffffffffffffffffffffffffffffffffffffffff1673ffffffffffffffffffffffffffffffffffffffff1681526020019081526020015f205f6101000a81548160ff0219169083151502179055508084848151811061098b5761098a61120b565b5b602002602001019073ffffffffffffffffffffffffffffffffffffffff16908173ffffffffffffffffffffffffffffffffffffffff168152505082806109d090611238565b9350505b508080600101915050610875565b505f84846109f091906112f7565b9050805f555f5f90505b85811015610a8e57838181518110610a1557610a1461120b565b5b602002602001015160018287610a2b91906112f7565b81548110610a3c57610a3b61120b565b5b905f5260205f20015f6101000a81548173ffffffffffffffffffffffffffffffffffffffff021916908373ffffffffffffffffffffffffffffffffffffffff16021790555080806001019150506109fa565b50505050505b5050565b5f5f5f90505b60018351610aac91906111d8565b811015610b5a575f600182610ac191906112f7565b90505b8351811015610b4c57838181518110610ae057610adf61120b565b5b602002602001015173ffffffffffffffffffffffffffffffffffffffff16848381518110610b1157610b1061120b565b5b602002602001015173ffffffffffffffffffffffffffffffffffffffff1603610b3f57600192505050610b5f565b8080600101915050610ac4565b508080600101915050610a9e565b505f90505b919050565b5f604051905090565b5f5ffd5b5f5ffd5b5f73ffffffffffffffffffffffffffffffffffffffff82169050919050565b5f610b9e82610b75565b9050919050565b610bae81610b94565b8114610bb8575f5ffd5b50565b5f81359050610bc981610ba5565b92915050565b5f60208284031215610be457610be3610b6d565b5b5f610bf184828501610bbb565b91505092915050565b5f8115159050919050565b610c0e81610bfa565b82525050565b5f602082019050610c275f830184610c05565b92915050565b5f5ffd5b5f601f19601f8301169050919050565b7f4e487b71000000000000000000000000000000000000000000000000000000005f52604160045260245ffd5b610c7782610c31565b810181811067ffffffffffffffff82111715610c9657610c95610c41565b5b80604052505050565b5f610ca8610b64565b9050610cb48282610c6e565b919050565b5f67ffffffffffffffff821115610cd357610cd2610c41565b5b602082029050602081019050919050565b5f5ffd5b5f819050919050565b610cfa81610ce8565b8114610d04575f5ffd5b50565b5f81359050610d1581610cf1565b92915050565b5f610d2d610d2884610cb9565b610c9f565b90508083825260208201905060208402830185811115610d5057610d4f610ce4565b5b835b81811015610d795780610d658882610d07565b845260208401935050602081019050610d52565b5050509392505050565b5f82601f830112610d9757610d96610c2d565b5b8135610da7848260208601610d1b565b91505092915050565b5f60208284031215610dc557610dc4610b6d565b5b5f82013567ffffffffffffffff811115610de257610de1610b71565b5b610dee84828501610d83565b91505092915050565b5f81519050919050565b5f82825260208201905092915050565b5f819050602082019050919050565b610e2981610ce8565b82525050565b5f610e3a8383610e20565b60208301905092915050565b5f602082019050919050565b5f610e5c82610df7565b610e668185610e01565b9350610e7183610e11565b805f5b83811015610ea1578151610e888882610e2f565b9750610e9383610e46565b925050600181019050610e74565b5085935050505092915050565b5f6020820190508181035f830152610ec68184610e52565b905092915050565b5f67ffffffffffffffff821115610ee857610ee7610c41565b5b602082029050602081019050919050565b5f610f0b610f0684610ece565b610c9f565b90508083825260208201905060208402830185811115610f2e57610f2d610ce4565b5b835b81811015610f575780610f438882610bbb565b845260208401935050602081019050610f30565b5050509392505050565b5f82601f830112610f7557610f74610c2d565b5b8135610f85848260208601610ef9565b91505092915050565b5f60208284031215610fa357610fa2610b6d565b5b5f82013567ffffffffffffffff811115610fc057610fbf610b71565b5b610fcc84828501610f61565b91505092915050565b5f81519050919050565b5f82825260208201905092915050565b5f819050602082019050919050565b61100781610bfa565b82525050565b5f6110188383610ffe565b60208301905092915050565b5f602082019050919050565b5f61103a82610fd5565b6110448185610fdf565b935061104f83610fef565b805f5b8381101561107f578151611066888261100d565b975061107183611024565b925050600181019050611052565b5085935050505092915050565b5f6020820190508181035f8301526110a48184611030565b905092915050565b6110b581610ce8565b82525050565b5f6020820190506110ce5f8301846110ac565b92915050565b5f81519050919050565b5f82825260208201905092915050565b5f819050602082019050919050565b61110681610b94565b82525050565b5f61111783836110fd565b60208301905092915050565b5f602082019050919050565b5f611139826110d4565b61114381856110de565b935061114e836110ee565b805f5b8381101561117e578151611165888261110c565b975061117083611123565b925050600181019050611151565b5085935050505092915050565b5f6020820190508181035f8301526111a3818461112f565b905092915050565b7f4e487b71000000000000000000000000000000000000000000000000000000005f52601160045260245ffd5b5f6111e282610ce8565b91506111ed83610ce8565b9250828203905081811115611205576112046111ab565b5b92915050565b7f4e487b71000000000000000000000000000000000000000000000000000000005f52603260045260245ffd5b5f61124282610ce8565b91507fffffffffffffffffffffffffffffffffffffffffffffffffffffffffffffffff8203611274576112736111ab565b5b600182019050919050565b5f82825260208201905092915050565b7f617272617920746f6f20626967000000000000000000000000000000000000005f82015250565b5f6112c3600d8361127f565b91506112ce8261128f565b602082019050919050565b5f6020820190508181035f8301526112f0816112b7565b9050919050565b5f61130182610ce8565b915061130c83610ce8565b9250828201905080821115611324576113236111ab565b5b9291505056fea2646970667358221220be4ac0a0bb25a7a0ad7c25fda1268f5ac21fb19907732da5500a77b9cc1e6d6964736f6c634300081e0033",
					"opcodes": "PUSH1 0x80 PUSH1 0x40 MSTORE CALLVALUE DUP1 ISZERO PUSH1 0xE JUMPI PUSH0 PUSH0 REVERT JUMPDEST POP PUSH2 0x1360 DUP1 PUSH2 0x1C PUSH0 CODECOPY PUSH0 RETURN INVALID PUSH1 0x80 PUSH1 0x40 MSTORE CALLVALUE DUP1 ISZERO PUSH2 0xF JUMPI PUSH0 PUSH0 REVERT JUMPDEST POP PUSH1 0x4 CALLDATASIZE LT PUSH2 0x91 JUMPI PUSH0 CALLDATALOAD PUSH1 0xE0 SHR DUP1 PUSH4 0x9BB86350 GT PUSH2 0x64 JUMPI DUP1 PUSH4 0x9BB86350 EQ PUSH2 0x155 JUMPI DUP1 PUSH4 0xA13202E9 EQ PUSH2 0x185 JUMPI DUP1 PUSH4 0xD587D5ED EQ PUSH2 0x1A3 JUMPI DUP1 PUSH4 0xEC10172D EQ PUSH2 0x1D3 JUMPI DUP1 PUSH4 0xF797EEE3 EQ PUSH2 0x1F1 JUMPI PUSH2 0x91 JUMP JUMPDEST DUP1 PUSH4 0x3AF32ABF EQ PUSH2 0x95 JUMPI DUP1 PUSH4 0x60BE465A EQ PUSH2 0xC5 JUMPI DUP1 PUSH4 0x64C20ABC EQ PUSH2 0xF5 JUMPI DUP1 PUSH4 0x8165E932 EQ PUSH2 0x125 JUMPI JUMPDEST PUSH0 PUSH0 REVERT JUMPDEST PUSH2 0xAF PUSH1 0x4 DUP1 CALLDATASIZE SUB DUP2 ADD SWAP1 PUSH2 0xAA SWAP2 SWAP1 PUSH2 0xBCF JUMP JUMPDEST PUSH2 0x20D JUMP JUMPDEST PUSH1 0x40 MLOAD PUSH2 0xBC SWAP2 SWAP1 PUSH2 0xC14 JUMP JUMPDEST PUSH1 0x40 MLOAD DUP1 SWAP2 SUB SWAP1 RETURN JUMPDEST PUSH2 0xDF PUSH1 0x4 DUP1 CALLDATASIZE SUB DUP2 ADD SWAP1 PUSH2 0xDA SWAP2 SWAP1 PUSH2 0xDB0 JUMP JUMPDEST PUSH2 0x25E JUMP JUMPDEST PUSH1 0x40 MLOAD PUSH2 0xEC SWAP2 SWAP1 PUSH2 0xEAE JUMP JUMPDEST PUSH1 0x40 MLOAD DUP1 SWAP2 SUB SWAP1 RETURN JUMPDEST PUSH2 0x10F PUSH1 0x4 DUP1 CALLDATASIZE SUB DUP2 ADD SWAP1 PUSH2 0x10A SWAP2 SWAP1 PUSH2 0xF8E JUMP JUMPDEST PUSH2 0x376 JUMP JUMPDEST PUSH1 0x40 MLOAD PUSH2 0x11C SWAP2 SWAP1 PUSH2 0xC14 JUMP JUMPDEST PUSH1 0x40 MLOAD DUP1 SWAP2 SUB SWAP1 RETURN JUMPDEST PUSH2 0x13F PUSH1 0x4 DUP1 CALLDATASIZE SUB DUP2 ADD SWAP1 PUSH2 0x13A SWAP2 SWAP1 PUSH2 0xF8E JUMP JUMPDEST PUSH2 0x4B2 JUMP JUMPDEST PUSH1 0x40 MLOAD PUSH2 0x14C SWAP2 SWAP1 PUSH2 0x108C JUMP JUMPDEST PUSH1 0x40 MLOAD DUP1 SWAP2 SUB SWAP1 RETURN JUMPDEST PUSH2 0x16F PUSH1 0x4 DUP1 CALLDATASIZE SUB DUP2 ADD SWAP1 PUSH2 0x16A SWAP2 SWAP1 PUSH2 0xDB0 JUMP JUMPDEST PUSH2 0x5A9 JUMP JUMPDEST PUSH1 0x40 MLOAD PUSH2 0x17C SWAP2 SWAP1 PUSH2 0x10BB JUMP JUMPDEST PUSH1 0x40 MLOAD DUP1 SWAP2 SUB SWAP1 RETURN JUMPDEST PUSH2 0x18D PUSH2 0x61B JUMP JUMPDEST PUSH1 0x40 MLOAD PUSH2 0x19A SWAP2 SWAP1 PUSH2 0x10BB JUMP JUMPDEST PUSH1 0x40 MLOAD DUP1 SWAP2 SUB SWAP1 RETURN JUMPDEST PUSH2 0x1BD PUSH1 0x4 DUP1 CALLDATASIZE SUB DUP2 ADD SWAP1 PUSH2 0x1B8 SWAP2 SWAP1 PUSH2 0xF8E JUMP JUMPDEST PUSH2 0x627 JUMP JUMPDEST PUSH1 0x40 MLOAD PUSH2 0x1CA SWAP2 SWAP1 PUSH2 0x10BB JUMP JUMPDEST PUSH1 0x40 MLOAD DUP1 SWAP2 SUB SWAP1 RETURN JUMPDEST PUSH2 0x1DB PUSH2 0x69A JUMP JUMPDEST PUSH1 0x40 MLOAD PUSH2 0x1E8 SWAP2 SWAP1 PUSH2 0x118B JUMP JUMPDEST PUSH1 0x40 MLOAD DUP1 SWAP2 SUB SWAP1 RETURN JUMPDEST PUSH2 0x20B PUSH1 0x4 DUP1 CALLDATASIZE SUB DUP2 ADD SWAP1 PUSH2 0x206 SWAP2 SWAP1 PUSH2 0xF8E JUMP JUMPDEST PUSH2 0x725 JUMP JUMPDEST STOP JUMPDEST PUSH0 PUSH0 PUSH0 DUP4 PUSH20 0xFFFFFFFFFFFFFFFFFFFFFFFFFFFFFFFFFFFFFFFF AND PUSH20 0xFFFFFFFFFFFFFFFFFFFFFFFFFFFFFFFFFFFFFFFF AND DUP2 MSTORE PUSH1 0x20 ADD SWAP1 DUP2 MSTORE PUSH1 0x20 ADD PUSH0 KECCAK256 PUSH0 SWAP1 SLOAD SWAP1 PUSH2 0x100 EXP SWAP1 DIV PUSH1 0xFF AND SWAP1 POP SWAP2 SWAP1 POP JUMP JUMPDEST PUSH1 0x60 PUSH0 DUP3 MLOAD SUB PUSH2 0x270 JUMPI DUP2 SWAP1 POP PUSH2 0x371 JUMP JUMPDEST DUP2 MLOAD PUSH8 0xFFFFFFFFFFFFFFFF DUP2 GT ISZERO PUSH2 0x28B JUMPI PUSH2 0x28A PUSH2 0xC41 JUMP JUMPDEST JUMPDEST PUSH1 0x40 MLOAD SWAP1 DUP1 DUP3 MSTORE DUP1 PUSH1 0x20 MUL PUSH1 0x20 ADD DUP3 ADD PUSH1 0x40 MSTORE DUP1 ISZERO PUSH2 0x2B9 JUMPI DUP2 PUSH1 0x20 ADD PUSH1 0x20 DUP3 MUL DUP1 CALLDATASIZE DUP4 CALLDATACOPY DUP1 DUP3 ADD SWAP2 POP POP SWAP1 POP JUMPDEST POP SWAP1 POP PUSH0 PUSH0 SWAP1 POP PUSH0 PUSH1 0x1 DUP5 MLOAD PUSH2 0x2CF SWAP2 SWAP1 PUSH2 0x11D8 JUMP JUMPDEST SWAP1 POP JUMPDEST DUP1 DUP3 GT PUSH2 0x36E JUMPI DUP4 DUP2 DUP2 MLOAD DUP2 LT PUSH2 0x2EC JUMPI PUSH2 0x2EB PUSH2 0x120B JUMP JUMPDEST JUMPDEST PUSH1 0x20 MUL PUSH1 0x20 ADD ADD MLOAD DUP4 DUP4 DUP2 MLOAD DUP2 LT PUSH2 0x307 JUMPI PUSH2 0x306 PUSH2 0x120B JUMP JUMPDEST JUMPDEST PUSH1 0x20 MUL PUSH1 0x20 ADD ADD DUP2 DUP2 MSTORE POP POP DUP4 DUP3 DUP2 MLOAD DUP2 LT PUSH2 0x326 JUMPI PUSH2 0x325 PUSH2 0x120B JUMP JUMPDEST JUMPDEST PUSH1 0x20 MUL PUSH1 0x20 ADD ADD MLOAD DUP4 DUP3 DUP2 MLOAD DUP2 LT PUSH2 0x341 JUMPI PUSH2 0x340 PUSH2 0x120B JUMP JUMPDEST JUMPDEST PUSH1 0x20 MUL PUSH1 0x20 ADD ADD DUP2 DUP2 MSTORE POP POP DUP2 DUP1 PUSH2 0x358 SWAP1 PUSH2 0x1238 JUMP JUMPDEST SWAP3 POP POP DUP1 DUP1 PUSH2 0x366 SWAP1 PUSH2 0x1238 JUMP JUMPDEST SWAP2 POP POP PUSH2 0x2D2 JUMP JUMPDEST POP POP JUMPDEST SWAP2 SWAP1 POP JUMP JUMPDEST PUSH0 PUSH2 0x100 DUP3 MLOAD GT ISZERO PUSH2 0x3BD JUMPI PUSH1 0x40 MLOAD PUSH32 0x8C379A000000000000000000000000000000000000000000000000000000000 DUP2 MSTORE PUSH1 0x4 ADD PUSH2 0x3B4 SWAP1 PUSH2 0x12D9 JUMP JUMPDEST PUSH1 0x40 MLOAD DUP1 SWAP2 SUB SWAP1 REVERT JUMPDEST PUSH1 0x1 DUP3 MLOAD GT PUSH2 0x3CE JUMPI PUSH0 SWAP1 POP PUSH2 0x4AD JUMP JUMPDEST PUSH1 0xA DUP3 MLOAD GT PUSH2 0x4A1 JUMPI PUSH0 PUSH0 SWAP1 POP JUMPDEST PUSH1 0x1 DUP4 MLOAD PUSH2 0x3EA SWAP2 SWAP1 PUSH2 0x11D8 JUMP JUMPDEST DUP2 LT ISZERO PUSH2 0x498 JUMPI PUSH0 PUSH1 0x1 DUP3 PUSH2 0x3FF SWAP2 SWAP1 PUSH2 0x12F7 JUMP JUMPDEST SWAP1 POP JUMPDEST DUP4 MLOAD DUP2 LT ISZERO PUSH2 0x48A JUMPI DUP4 DUP2 DUP2 MLOAD DUP2 LT PUSH2 0x41E JUMPI PUSH2 0x41D PUSH2 0x120B JUMP JUMPDEST JUMPDEST PUSH1 0x20 MUL PUSH1 0x20 ADD ADD MLOAD PUSH20 0xFFFFFFFFFFFFFFFFFFFFFFFFFFFFFFFFFFFFFFFF AND DUP5 DUP4 DUP2 MLOAD DUP2 LT PUSH2 0x44F JUMPI PUSH2 0x44E PUSH2 0x120B JUMP JUMPDEST JUMPDEST PUSH1 0x20 MUL PUSH1 0x20 ADD ADD MLOAD PUSH20 0xFFFFFFFFFFFFFFFFFFFFFFFFFFFFFFFFFFFFFFFF AND SUB PUSH2 0x47D JUMPI PUSH1 0x1 SWAP3 POP POP POP PUSH2 0x4AD JUMP JUMPDEST DUP1 DUP1 PUSH1 0x1 ADD SWAP2 POP POP PUSH2 0x402 JUMP JUMPDEST POP DUP1 DUP1 PUSH1 0x1 ADD SWAP2 POP POP PUSH2 0x3DC JUMP JUMPDEST POP PUSH0 SWAP1 POP PUSH2 0x4AD JUMP JUMPDEST PUSH2 0x4AA DUP3 PUSH2 0xA98 JUMP JUMPDEST SWAP1 POP JUMPDEST SWAP2 SWAP1 POP JUMP JUMPDEST PUSH1 0x60 DUP2 MLOAD PUSH8 0xFFFFFFFFFFFFFFFF DUP2 GT ISZERO PUSH2 0x4CF JUMPI PUSH2 0x4CE PUSH2 0xC41 JUMP JUMPDEST JUMPDEST PUSH1 0x40 MLOAD SWAP1 DUP1 DUP3 MSTORE DUP1 PUSH1 0x20 MUL PUSH1 0x20 ADD DUP3 ADD PUSH1 0x40 MSTORE DUP1 ISZERO PUSH2 0x4FD JUMPI DUP2 PUSH1 0x20 ADD PUSH1 0x20 DUP3 MUL DUP1 CALLDATASIZE DUP4 CALLDATACOPY DUP1 DUP3 ADD SWAP2 POP POP SWAP1 POP JUMPDEST POP SWAP1 POP PUSH0 PUSH0 SWAP1 POP JUMPDEST DUP3 MLOAD DUP2 LT ISZERO PUSH2 0x5A3 JUMPI PUSH0 PUSH0 DUP5 DUP4 DUP2 MLOAD DUP2 LT PUSH2 0x523 JUMPI PUSH2 0x522 PUSH2 0x120B JUMP JUMPDEST JUMPDEST PUSH1 0x20 MUL PUSH1 0x20 ADD ADD MLOAD PUSH20 0xFFFFFFFFFFFFFFFFFFFFFFFFFFFFFFFFFFFFFFFF AND PUSH20 0xFFFFFFFFFFFFFFFFFFFFFFFFFFFFFFFFFFFFFFFF AND DUP2 MSTORE PUSH1 0x20 ADD SWAP1 DUP2 MSTORE PUSH1 0x20 ADD PUSH0 KECCAK256 PUSH0 SWAP1 SLOAD SWAP1 PUSH2 0x100 EXP SWAP1 DIV PUSH1 0xFF AND DUP3 DUP3 DUP2 MLOAD DUP2 LT PUSH2 0x584 JUMPI PUSH2 0x583 PUSH2 0x120B JUMP JUMPDEST JUMPDEST PUSH1 0x20 MUL PUSH1 0x20 ADD ADD SWAP1 ISZERO ISZERO SWAP1 DUP2 ISZERO ISZERO DUP2 MSTORE POP POP DUP1 DUP1 PUSH1 0x1 ADD SWAP2 POP POP PUSH2 0x505 JUMP JUMPDEST POP SWAP2 SWAP1 POP JUMP JUMPDEST PUSH0 PUSH0 SWAP1 POP PUSH0 PUSH0 SWAP1 POP JUMPDEST DUP3 MLOAD DUP2 LT ISZERO PUSH2 0x615 JUMPI PUSH0 PUSH1 0x1 DUP5 DUP4 DUP2 MLOAD DUP2 LT PUSH2 0x5D1 JUMPI PUSH2 0x5D0 PUSH2 0x120B JUMP JUMPDEST JUMPDEST PUSH1 0x20 MUL PUSH1 0x20 ADD ADD MLOAD AND SUB PUSH2 0x608 JUMPI DUP3 DUP2 DUP2 MLOAD DUP2 LT PUSH2 0x5F2 JUMPI PUSH2 0x5F1 PUSH2 0x120B JUMP JUMPDEST JUMPDEST PUSH1 0x20 MUL PUSH1 0x20 ADD ADD MLOAD DUP3 PUSH2 0x605 SWAP2 SWAP1 PUSH2 0x12F7 JUMP JUMPDEST SWAP2 POP JUMPDEST DUP1 DUP1 PUSH1 0x1 ADD SWAP2 POP POP PUSH2 0x5B2 JUMP JUMPDEST POP SWAP2 SWAP1 POP JUMP JUMPDEST PUSH0 PUSH1 0x1 DUP1 SLOAD SWAP1 POP SWAP1 POP SWAP1 JUMP JUMPDEST PUSH0 PUSH0 SWAP1 POP PUSH0 PUSH0 SWAP1 POP JUMPDEST DUP3 MLOAD DUP2 LT ISZERO PUSH2 0x694 JUMPI PUSH0 DUP4 DUP3 DUP2 MLOAD DUP2 LT PUSH2 0x64D JUMPI PUSH2 0x64C PUSH2 0x120B JUMP JUMPDEST JUMPDEST PUSH1 0x20 MUL PUSH1 0x20 ADD ADD MLOAD PUSH20 0xFFFFFFFFFFFFFFFFFFFFFFFFFFFFFFFFFFFFFFFF AND SWAP1 POP PUSH0 PUSH1 0x1 DUP3 AND SUB PUSH2 0x686 JUMPI DUP1 DUP4 PUSH2 0x683 SWAP2 SWAP1 PUSH2 0x12F7 JUMP JUMPDEST SWAP3 POP JUMPDEST POP DUP1 DUP1 PUSH1 0x1 ADD SWAP2 POP POP PUSH2 0x630 JUMP JUMPDEST POP SWAP2 SWAP1 POP JUMP JUMPDEST PUSH1 0x60 PUSH1 0x1 DUP1 SLOAD DUP1 PUSH1 0x20 MUL PUSH1 0x20 ADD PUSH1 0x40 MLOAD SWAP1 DUP2 ADD PUSH1 0x40 MSTORE DUP1 SWAP3 SWAP2 SWAP1 DUP2 DUP2 MSTORE PUSH1 0x20 ADD DUP3 DUP1 SLOAD DUP1 ISZERO PUSH2 0x71B JUMPI PUSH1 0x20 MUL DUP3 ADD SWAP2 SWAP1 PUSH0 MSTORE PUSH1 0x20 PUSH0 KECCAK256 SWAP1 JUMPDEST DUP2 PUSH0 SWAP1 SLOAD SWAP1 PUSH2 0x100 EXP SWAP1 DIV PUSH20 0xFFFFFFFFFFFFFFFFFFFFFFFFFFFFFFFFFFFFFFFF AND PUSH20 0xFFFFFFFFFFFFFFFFFFFFFFFFFFFFFFFFFFFFFFFF AND DUP2 MSTORE PUSH1 0x20 ADD SWAP1 PUSH1 0x1 ADD SWAP1 DUP1 DUP4 GT PUSH2 0x6D2 JUMPI JUMPDEST POP POP POP POP POP SWAP1 POP SWAP1 JUMP JUMPDEST PUSH0 PUSH0 SWAP1 POP PUSH0 PUSH0 SWAP1 POP JUMPDEST DUP3 MLOAD DUP2 LT ISZERO PUSH2 0x80E JUMPI PUSH0 PUSH0 DUP5 DUP4 DUP2 MLOAD DUP2 LT PUSH2 0x74C JUMPI PUSH2 0x74B PUSH2 0x120B JUMP JUMPDEST JUMPDEST PUSH1 0x20 MUL PUSH1 0x20 ADD ADD MLOAD PUSH20 0xFFFFFFFFFFFFFFFFFFFFFFFFFFFFFFFFFFFFFFFF AND PUSH20 0xFFFFFFFFFFFFFFFFFFFFFFFFFFFFFFFFFFFFFFFF AND DUP2 MSTORE PUSH1 0x20 ADD SWAP1 DUP2 MSTORE PUSH1 0x20 ADD PUSH0 KECCAK256 PUSH0 SWAP1 SLOAD SWAP1 PUSH2 0x100 EXP SWAP1 DIV PUSH1 0xFF AND ISZERO DUP1 ISZERO PUSH2 0x7ED JUMPI POP PUSH0 PUSH20 0xFFFFFFFFFFFFFFFFFFFFFFFFFFFFFFFFFFFFFFFF AND DUP4 DUP3 DUP2 MLOAD DUP2 LT PUSH2 0x7CC JUMPI PUSH2 0x7CB PUSH2 0x120B JUMP JUMPDEST JUMPDEST PUSH1 0x20 MUL PUSH1 0x20 ADD ADD MLOAD PUSH20 0xFFFFFFFFFFFFFFFFFFFFFFFFFFFFFFFFFFFFFFFF AND EQ ISZERO JUMPDEST ISZERO PUSH2 0x801 JUMPI DUP2 DUP1 PUSH2 0x7FD SWAP1 PUSH2 0x1238 JUMP JUMPDEST SWAP3 POP POP JUMPDEST DUP1 DUP1 PUSH1 0x1 ADD SWAP2 POP POP PUSH2 0x72E JUMP JUMPDEST POP PUSH0 DUP2 GT ISZERO PUSH2 0xA94 JUMPI PUSH0 PUSH1 0x1 DUP1 SLOAD SWAP1 POP SWAP1 POP PUSH0 DUP3 PUSH8 0xFFFFFFFFFFFFFFFF DUP2 GT ISZERO PUSH2 0x83B JUMPI PUSH2 0x83A PUSH2 0xC41 JUMP JUMPDEST JUMPDEST PUSH1 0x40 MLOAD SWAP1 DUP1 DUP3 MSTORE DUP1 PUSH1 0x20 MUL PUSH1 0x20 ADD DUP3 ADD PUSH1 0x40 MSTORE DUP1 ISZERO PUSH2 0x869 JUMPI DUP2 PUSH1 0x20 ADD PUSH1 0x20 DUP3 MUL DUP1 CALLDATASIZE DUP4 CALLDATACOPY DUP1 DUP3 ADD SWAP2 POP POP SWAP1 POP JUMPDEST POP SWAP1 POP PUSH0 PUSH0 SWAP1 POP PUSH0 PUSH0 SWAP1 POP JUMPDEST DUP6 MLOAD DUP2 LT ISZERO PUSH2 0x9E2 JUMPI PUSH0 DUP7 DUP3 DUP2 MLOAD DUP2 LT PUSH2 0x892 JUMPI PUSH2 0x891 PUSH2 0x120B JUMP JUMPDEST JUMPDEST PUSH1 0x20 MUL PUSH1 0x20 ADD ADD MLOAD SWAP1 POP PUSH0 PUSH0 DUP3 PUSH20 0xFFFFFFFFFFFFFFFFFFFFFFFFFFFFFFFFFFFFFFFF AND PUSH20 0xFFFFFFFFFFFFFFFFFFFFFFFFFFFFFFFFFFFFFFFF AND DUP2 MSTORE PUSH1 0x20 ADD SWAP1 DUP2 MSTORE PUSH1 0x20 ADD PUSH0 KECCAK256 PUSH0 SWAP1 SLOAD SWAP1 PUSH2 0x100 EXP SWAP1 DIV PUSH1 0xFF AND ISZERO DUP1 ISZERO PUSH2 0x91E JUMPI POP PUSH0 PUSH20 0xFFFFFFFFFFFFFFFFFFFFFFFFFFFFFFFFFFFFFFFF AND DUP2 PUSH20 0xFFFFFFFFFFFFFFFFFFFFFFFFFFFFFFFFFFFFFFFF AND EQ ISZERO JUMPDEST ISZERO PUSH2 0x9D4 JUMPI PUSH1 0x1 PUSH0 PUSH0 DUP4 PUSH20 0xFFFFFFFFFFFFFFFFFFFFFFFFFFFFFFFFFFFFFFFF AND PUSH20 0xFFFFFFFFFFFFFFFFFFFFFFFFFFFFFFFFFFFFFFFF AND DUP2 MSTORE PUSH1 0x20 ADD SWAP1 DUP2 MSTORE PUSH1 0x20 ADD PUSH0 KECCAK256 PUSH0 PUSH2 0x100 EXP DUP2 SLOAD DUP2 PUSH1 0xFF MUL NOT AND SWAP1 DUP4 ISZERO ISZERO MUL OR SWAP1 SSTORE POP DUP1 DUP5 DUP5 DUP2 MLOAD DUP2 LT PUSH2 0x98B JUMPI PUSH2 0x98A PUSH2 0x120B JUMP JUMPDEST JUMPDEST PUSH1 0x20 MUL PUSH1 0x20 ADD ADD SWAP1 PUSH20 0xFFFFFFFFFFFFFFFFFFFFFFFFFFFFFFFFFFFFFFFF AND SWAP1 DUP2 PUSH20 0xFFFFFFFFFFFFFFFFFFFFFFFFFFFFFFFFFFFFFFFF AND DUP2 MSTORE POP POP DUP3 DUP1 PUSH2 0x9D0 SWAP1 PUSH2 0x1238 JUMP JUMPDEST SWAP4 POP POP JUMPDEST POP DUP1 DUP1 PUSH1 0x1 ADD SWAP2 POP POP PUSH2 0x875 JUMP JUMPDEST POP PUSH0 DUP5 DUP5 PUSH2 0x9F0 SWAP2 SWAP1 PUSH2 0x12F7 JUMP JUMPDEST SWAP1 POP DUP1 PUSH0 SSTORE PUSH0 PUSH0 SWAP1 POP JUMPDEST DUP6 DUP2 LT ISZERO PUSH2 0xA8E JUMPI DUP4 DUP2 DUP2 MLOAD DUP2 LT PUSH2 0xA15 JUMPI PUSH2 0xA14 PUSH2 0x120B JUMP JUMPDEST JUMPDEST PUSH1 0x20 MUL PUSH1 0x20 ADD ADD MLOAD PUSH1 0x1 DUP3 DUP8 PUSH2 0xA2B SWAP2 SWAP1 PUSH2 0x12F7 JUMP JUMPDEST DUP2 SLOAD DUP2 LT PUSH2 0xA3C JUMPI PUSH2 0xA3B PUSH2 0x120B JUMP JUMPDEST JUMPDEST SWAP1 PUSH0 MSTORE PUSH1 0x20 PUSH0 KECCAK256 ADD PUSH0 PUSH2 0x100 EXP DUP2 SLOAD DUP2 PUSH20 0xFFFFFFFFFFFFFFFFFFFFFFFFFFFFFFFFFFFFFFFF MUL NOT AND SWAP1 DUP4 PUSH20 0xFFFFFFFFFFFFFFFFFFFFFFFFFFFFFFFFFFFFFFFF AND MUL OR SWAP1 SSTORE POP DUP1 DUP1 PUSH1 0x1 ADD SWAP2 POP POP PUSH2 0x9FA JUMP JUMPDEST POP POP POP POP POP JUMPDEST POP POP JUMP JUMPDEST PUSH0 PUSH0 PUSH0 SWAP1 POP JUMPDEST PUSH1 0x1 DUP4 MLOAD PUSH2 0xAAC SWAP2 SWAP1 PUSH2 0x11D8 JUMP JUMPDEST DUP2 LT ISZERO PUSH2 0xB5A JUMPI PUSH0 PUSH1 0x1 DUP3 PUSH2 0xAC1 SWAP2 SWAP1 PUSH2 0x12F7 JUMP JUMPDEST SWAP1 POP JUMPDEST DUP4 MLOAD DUP2 LT ISZERO PUSH2 0xB4C JUMPI DUP4 DUP2 DUP2 MLOAD DUP2 LT PUSH2 0xAE0 JUMPI PUSH2 0xADF PUSH2 0x120B JUMP JUMPDEST JUMPDEST PUSH1 0x20 MUL PUSH1 0x20 ADD ADD MLOAD PUSH20 0xFFFFFFFFFFFFFFFFFFFFFFFFFFFFFFFFFFFFFFFF AND DUP5 DUP4 DUP2 MLOAD DUP2 LT PUSH2 0xB11 JUMPI PUSH2 0xB10 PUSH2 0x120B JUMP JUMPDEST JUMPDEST PUSH1 0x20 MUL PUSH1 0x20 ADD ADD MLOAD PUSH20 0xFFFFFFFFFFFFFFFFFFFFFFFFFFFFFFFFFFFFFFFF AND SUB PUSH2 0xB3F JUMPI PUSH1 0x1 SWAP3 POP POP POP PUSH2 0xB5F JUMP JUMPDEST DUP1 DUP1 PUSH1 0x1 ADD SWAP2 POP POP PUSH2 0xAC4 JUMP JUMPDEST POP DUP1 DUP1 PUSH1 0x1 ADD SWAP2 POP POP PUSH2 0xA9E JUMP JUMPDEST POP PUSH0 SWAP1 POP JUMPDEST SWAP2 SWAP1 POP JUMP JUMPDEST PUSH0 PUSH1 0x40 MLOAD SWAP1 POP SWAP1 JUMP JUMPDEST PUSH0 PUSH0 REVERT JUMPDEST PUSH0 PUSH0 REVERT JUMPDEST PUSH0 PUSH20 0xFFFFFFFFFFFFFFFFFFFFFFFFFFFFFFFFFFFFFFFF DUP3 AND SWAP1 POP SWAP2 SWAP1 POP JUMP JUMPDEST PUSH0 PUSH2 0xB9E DUP3 PUSH2 0xB75 JUMP JUMPDEST SWAP1 POP SWAP2 SWAP1 POP JUMP JUMPDEST PUSH2 0xBAE DUP2 PUSH2 0xB94 JUMP JUMPDEST DUP2 EQ PUSH2 0xBB8 JUMPI PUSH0 PUSH0 REVERT JUMPDEST POP JUMP JUMPDEST PUSH0 DUP2 CALLDATALOAD SWAP1 POP PUSH2 0xBC9 DUP2 PUSH2 0xBA5 JUMP JUMPDEST SWAP3 SWAP2 POP POP JUMP JUMPDEST PUSH0 PUSH1 0x20 DUP3 DUP5 SUB SLT ISZERO PUSH2 0xBE4 JUMPI PUSH2 0xBE3 PUSH2 0xB6D JUMP JUMPDEST JUMPDEST PUSH0 PUSH2 0xBF1 DUP5 DUP3 DUP6 ADD PUSH2 0xBBB JUMP JUMPDEST SWAP2 POP POP SWAP3 SWAP2 POP POP JUMP JUMPDEST PUSH0 DUP2 ISZERO ISZERO SWAP1 POP SWAP2 SWAP1 POP JUMP JUMPDEST PUSH2 0xC0E DUP2 PUSH2 0xBFA JUMP JUMPDEST DUP3 MSTORE POP POP JUMP JUMPDEST PUSH0 PUSH1 0x20 DUP3 ADD SWAP1 POP PUSH2 0xC27 PUSH0 DUP4 ADD DUP5 PUSH2 0xC05 JUMP JUMPDEST SWAP3 SWAP2 POP POP JUMP JUMPDEST PUSH0 PUSH0 REVERT JUMPDEST PUSH0 PUSH1 0x1F NOT PUSH1 0x1F DUP4 ADD AND SWAP1 POP SWAP2 SWAP1 POP JUMP JUMPDEST PUSH32 0x4E487B7100000000000000000000000000000000000000000000000000000000 PUSH0 MSTORE PUSH1 0x41 PUSH1 0x4 MSTORE PUSH1 0x24 PUSH0 REVERT JUMPDEST PUSH2 0xC77 DUP3 PUSH2 0xC31 JUMP JUMPDEST DUP2 ADD DUP2 DUP2 LT PUSH8 0xFFFFFFFFFFFFFFFF DUP3 GT OR ISZERO PUSH2 0xC96 JUMPI PUSH2 0xC95 PUSH2 0xC41 JUMP JUMPDEST JUMPDEST DUP1 PUSH1 0x40 MSTORE POP POP POP JUMP JUMPDEST PUSH0 PUSH2 0xCA8 PUSH2 0xB64 JUMP JUMPDEST SWAP1 POP PUSH2 0xCB4 DUP3 DUP3 PUSH2 0xC6E JUMP JUMPDEST SWAP2 SWAP1 POP JUMP JUMPDEST PUSH0 PUSH8 0xFFFFFFFFFFFFFFFF DUP3 GT ISZERO PUSH2 0xCD3 JUMPI PUSH2 0xCD2 PUSH2 0xC41 JUMP JUMPDEST JUMPDEST PUSH1 0x20 DUP3 MUL SWAP1 POP PUSH1 0x20 DUP2 ADD SWAP1 POP SWAP2 SWAP1 POP JUMP JUMPDEST PUSH0 PUSH0 REVERT JUMPDEST PUSH0 DUP2 SWAP1 POP SWAP2 SWAP1 POP JUMP JUMPDEST PUSH2 0xCFA DUP2 PUSH2 0xCE8 JUMP JUMPDEST DUP2 EQ PUSH2 0xD04 JUMPI PUSH0 PUSH0 REVERT JUMPDEST POP JUMP JUMPDEST PUSH0 DUP2 CALLDATALOAD SWAP1 POP PUSH2 0xD15 DUP2 PUSH2 0xCF1 JUMP JUMPDEST SWAP3 SWAP2 POP POP JUMP JUMPDEST PUSH0 PUSH2 0xD2D PUSH2 0xD28 DUP5 PUSH2 0xCB9 JUMP JUMPDEST PUSH2 0xC9F JUMP JUMPDEST SWAP1 POP DUP1 DUP4 DUP3 MSTORE PUSH1 0x20 DUP3 ADD SWAP1 POP PUSH1 0x20 DUP5 MUL DUP4 ADD DUP6 DUP2 GT ISZERO PUSH2 0xD50 JUMPI PUSH2 0xD4F PUSH2 0xCE4 JUMP JUMPDEST JUMPDEST DUP4 JUMPDEST DUP2 DUP2 LT ISZERO PUSH2 0xD79 JUMPI DUP1 PUSH2 0xD65 DUP9 DUP3 PUSH2 0xD07 JUMP JUMPDEST DUP5 MSTORE PUSH1 0x20 DUP5 ADD SWAP4 POP POP PUSH1 0x20 DUP2 ADD SWAP1 POP PUSH2 0xD52 JUMP JUMPDEST POP POP POP SWAP4 SWAP3 POP POP POP JUMP JUMPDEST PUSH0 DUP3 PUSH1 0x1F DUP4 ADD SLT PUSH2 0xD97 JUMPI PUSH2 0xD96 PUSH2 0xC2D JUMP JUMPDEST JUMPDEST DUP2 CALLDATALOAD PUSH2 0xDA7 DUP5 DUP3 PUSH1 0x20 DUP7 ADD PUSH2 0xD1B JUMP JUMPDEST SWAP2 POP POP SWAP3 SWAP2 POP POP JUMP JUMPDEST PUSH0 PUSH1 0x20 DUP3 DUP5 SUB SLT ISZERO PUSH2 0xDC5 JUMPI PUSH2 0xDC4 PUSH2 0xB6D JUMP JUMPDEST JUMPDEST PUSH0 DUP3 ADD CALLDATALOAD PUSH8 0xFFFFFFFFFFFFFFFF DUP2 GT ISZERO PUSH2 0xDE2 JUMPI PUSH2 0xDE1 PUSH2 0xB71 JUMP JUMPDEST JUMPDEST PUSH2 0xDEE DUP5 DUP3 DUP6 ADD PUSH2 0xD83 JUMP JUMPDEST SWAP2 POP POP SWAP3 SWAP2 POP POP JUMP JUMPDEST PUSH0 DUP2 MLOAD SWAP1 POP SWAP2 SWAP1 POP JUMP JUMPDEST PUSH0 DUP3 DUP3 MSTORE PUSH1 0x20 DUP3 ADD SWAP1 POP SWAP3 SWAP2 POP POP JUMP JUMPDEST PUSH0 DUP2 SWAP1 POP PUSH1 0x20 DUP3 ADD SWAP1 POP SWAP2 SWAP1 POP JUMP JUMPDEST PUSH2 0xE29 DUP2 PUSH2 0xCE8 JUMP JUMPDEST DUP3 MSTORE POP POP JUMP JUMPDEST PUSH0 PUSH2 0xE3A DUP4 DUP4 PUSH2 0xE20 JUMP JUMPDEST PUSH1 0x20 DUP4 ADD SWAP1 POP SWAP3 SWAP2 POP POP JUMP JUMPDEST PUSH0 PUSH1 0x20 DUP3 ADD SWAP1 POP SWAP2 SWAP1 POP JUMP JUMPDEST PUSH0 PUSH2 0xE5C DUP3 PUSH2 0xDF7 JUMP JUMPDEST PUSH2 0xE66 DUP2 DUP6 PUSH2 0xE01 JUMP JUMPDEST SWAP4 POP PUSH2 0xE71 DUP4 PUSH2 0xE11 JUMP JUMPDEST DUP1 PUSH0 JUMPDEST DUP4 DUP2 LT ISZERO PUSH2 0xEA1 JUMPI DUP2 MLOAD PUSH2 0xE88 DUP9 DUP3 PUSH2 0xE2F JUMP JUMPDEST SWAP8 POP PUSH2 0xE93 DUP4 PUSH2 0xE46 JUMP JUMPDEST SWAP3 POP POP PUSH1 0x1 DUP2 ADD SWAP1 POP PUSH2 0xE74 JUMP JUMPDEST POP DUP6 SWAP4 POP POP POP POP SWAP3 SWAP2 POP POP JUMP JUMPDEST PUSH0 PUSH1 0x20 DUP3 ADD SWAP1 POP DUP2 DUP2 SUB PUSH0 DUP4 ADD MSTORE PUSH2 0xEC6 DUP2 DUP5 PUSH2 0xE52 JUMP JUMPDEST SWAP1 POP SWAP3 SWAP2 POP POP JUMP JUMPDEST PUSH0 PUSH8 0xFFFFFFFFFFFFFFFF DUP3 GT ISZERO PUSH2 0xEE8 JUMPI PUSH2 0xEE7 PUSH2 0xC41 JUMP JUMPDEST JUMPDEST PUSH1 0x20 DUP3 MUL SWAP1 POP PUSH1 0x20 DUP2 ADD SWAP1 POP SWAP2 SWAP1 POP JUMP JUMPDEST PUSH0 PUSH2 0xF0B PUSH2 0xF06 DUP5 PUSH2 0xECE JUMP JUMPDEST PUSH2 0xC9F JUMP JUMPDEST SWAP1 POP DUP1 DUP4 DUP3 MSTORE PUSH1 0x20 DUP3 ADD SWAP1 POP PUSH1 0x20 DUP5 MUL DUP4 ADD DUP6 DUP2 GT ISZERO PUSH2 0xF2E JUMPI PUSH2 0xF2D PUSH2 0xCE4 JUMP JUMPDEST JUMPDEST DUP4 JUMPDEST DUP2 DUP2 LT ISZERO PUSH2 0xF57 JUMPI DUP1 PUSH2 0xF43 DUP9 DUP3 PUSH2 0xBBB JUMP JUMPDEST DUP5 MSTORE PUSH1 0x20 DUP5 ADD SWAP4 POP POP PUSH1 0x20 DUP2 ADD SWAP1 POP PUSH2 0xF30 JUMP JUMPDEST POP POP POP SWAP4 SWAP3 POP POP POP JUMP JUMPDEST PUSH0 DUP3 PUSH1 0x1F DUP4 ADD SLT PUSH2 0xF75 JUMPI PUSH2 0xF74 PUSH2 0xC2D JUMP JUMPDEST JUMPDEST DUP2 CALLDATALOAD PUSH2 0xF85 DUP5 DUP3 PUSH1 0x20 DUP7 ADD PUSH2 0xEF9 JUMP JUMPDEST SWAP2 POP POP SWAP3 SWAP2 POP POP JUMP JUMPDEST PUSH0 PUSH1 0x20 DUP3 DUP5 SUB SLT ISZERO PUSH2 0xFA3 JUMPI PUSH2 0xFA2 PUSH2 0xB6D JUMP JUMPDEST JUMPDEST PUSH0 DUP3 ADD CALLDATALOAD PUSH8 0xFFFFFFFFFFFFFFFF DUP2 GT ISZERO PUSH2 0xFC0 JUMPI PUSH2 0xFBF PUSH2 0xB71 JUMP JUMPDEST JUMPDEST PUSH2 0xFCC DUP5 DUP3 DUP6 ADD PUSH2 0xF61 JUMP JUMPDEST SWAP2 POP POP SWAP3 SWAP2 POP POP JUMP JUMPDEST PUSH0 DUP2 MLOAD SWAP1 POP SWAP2 SWAP1 POP JUMP JUMPDEST PUSH0 DUP3 DUP3 MSTORE PUSH1 0x20 DUP3 ADD SWAP1 POP SWAP3 SWAP2 POP POP JUMP JUMPDEST PUSH0 DUP2 SWAP1 POP PUSH1 0x20 DUP3 ADD SWAP1 POP SWAP2 SWAP1 POP JUMP JUMPDEST PUSH2 0x1007 DUP2 PUSH2 0xBFA JUMP JUMPDEST DUP3 MSTORE POP POP JUMP JUMPDEST PUSH0 PUSH2 0x1018 DUP4 DUP4 PUSH2 0xFFE JUMP JUMPDEST PUSH1 0x20 DUP4 ADD SWAP1 POP SWAP3 SWAP2 POP POP JUMP JUMPDEST PUSH0 PUSH1 0x20 DUP3 ADD SWAP1 POP SWAP2 SWAP1 POP JUMP JUMPDEST PUSH0 PUSH2 0x103A DUP3 PUSH2 0xFD5 JUMP JUMPDEST PUSH2 0x1044 DUP2 DUP6 PUSH2 0xFDF JUMP JUMPDEST SWAP4 POP PUSH2 0x104F DUP4 PUSH2 0xFEF JUMP JUMPDEST DUP1 PUSH0 JUMPDEST DUP4 DUP2 LT ISZERO PUSH2 0x107F JUMPI DUP2 MLOAD PUSH2 0x1066 DUP9 DUP3 PUSH2 0x100D JUMP JUMPDEST SWAP8 POP PUSH2 0x1071 DUP4 PUSH2 0x1024 JUMP JUMPDEST SWAP3 POP POP PUSH1 0x1 DUP2 ADD SWAP1 POP PUSH2 0x1052 JUMP JUMPDEST POP DUP6 SWAP4 POP POP POP POP SWAP3 SWAP2 POP POP JUMP JUMPDEST PUSH0 PUSH1 0x20 DUP3 ADD SWAP1 POP DUP2 DUP2 SUB PUSH0 DUP4 ADD MSTORE PUSH2 0x10A4 DUP2 DUP5 PUSH2 0x1030 JUMP JUMPDEST SWAP1 POP SWAP3 SWAP2 POP POP JUMP JUMPDEST PUSH2 0x10B5 DUP2 PUSH2 0xCE8 JUMP JUMPDEST DUP3 MSTORE POP POP JUMP JUMPDEST PUSH0 PUSH1 0x20 DUP3 ADD SWAP1 POP PUSH2 0x10CE PUSH0 DUP4 ADD DUP5 PUSH2 0x10AC JUMP JUMPDEST SWAP3 SWAP2 POP POP JUMP JUMPDEST PUSH0 DUP2 MLOAD SWAP1 POP SWAP2 SWAP1 POP JUMP JUMPDEST PUSH0 DUP3 DUP3 MSTORE PUSH1 0x20 DUP3 ADD SWAP1 POP SWAP3 SWAP2 POP POP JUMP JUMPDEST PUSH0 DUP2 SWAP1 POP PUSH1 0x20 DUP3 ADD SWAP1 POP SWAP2 SWAP1 POP JUMP JUMPDEST PUSH2 0x1106 DUP2 PUSH2 0xB94 JUMP JUMPDEST DUP3 MSTORE POP POP JUMP JUMPDEST PUSH0 PUSH2 0x1117 DUP4 DUP4 PUSH2 0x10FD JUMP JUMPDEST PUSH1 0x20 DUP4 ADD SWAP1 POP SWAP3 SWAP2 POP POP JUMP JUMPDEST PUSH0 PUSH1 0x20 DUP3 ADD SWAP1 POP SWAP2 SWAP1 POP JUMP JUMPDEST PUSH0 PUSH2 0x1139 DUP3 PUSH2 0x10D4 JUMP JUMPDEST PUSH2 0x1143 DUP2 DUP6 PUSH2 0x10DE JUMP JUMPDEST SWAP4 POP PUSH2 0x114E DUP4 PUSH2 0x10EE JUMP JUMPDEST DUP1 PUSH0 JUMPDEST DUP4 DUP2 LT ISZERO PUSH2 0x117E JUMPI DUP2 MLOAD PUSH2 0x1165 DUP9 DUP3 PUSH2 0x110C JUMP JUMPDEST SWAP8 POP PUSH2 0x1170 DUP4 PUSH2 0x1123 JUMP JUMPDEST SWAP3 POP POP PUSH1 0x1 DUP2 ADD SWAP1 POP PUSH2 0x1151 JUMP JUMPDEST POP DUP6 SWAP4 POP POP POP POP SWAP3 SWAP2 POP POP JUMP JUMPDEST PUSH0 PUSH1 0x20 DUP3 ADD SWAP1 POP DUP2 DUP2 SUB PUSH0 DUP4 ADD MSTORE PUSH2 0x11A3 DUP2 DUP5 PUSH2 0x112F JUMP JUMPDEST SWAP1 POP SWAP3 SWAP2 POP POP JUMP JUMPDEST PUSH32 0x4E487B7100000000000000000000000000000000000000000000000000000000 PUSH0 MSTORE PUSH1 0x11 PUSH1 0x4 MSTORE PUSH1 0x24 PUSH0 REVERT JUMPDEST PUSH0 PUSH2 0x11E2 DUP3 PUSH2 0xCE8 JUMP JUMPDEST SWAP2 POP PUSH2 0x11ED DUP4 PUSH2 0xCE8 JUMP JUMPDEST SWAP3 POP DUP3 DUP3 SUB SWAP1 POP DUP2 DUP2 GT ISZERO PUSH2 0x1205 JUMPI PUSH2 0x1204 PUSH2 0x11AB JUMP JUMPDEST JUMPDEST SWAP3 SWAP2 POP POP JUMP JUMPDEST PUSH32 0x4E487B7100000000000000000000000000000000000000000000000000000000 PUSH0 MSTORE PUSH1 0x32 PUSH1 0x4 MSTORE PUSH1 0x24 PUSH0 REVERT JUMPDEST PUSH0 PUSH2 0x1242 DUP3 PUSH2 0xCE8 JUMP JUMPDEST SWAP2 POP PUSH32 0xFFFFFFFFFFFFFFFFFFFFFFFFFFFFFFFFFFFFFFFFFFFFFFFFFFFFFFFFFFFFFFFF DUP3 SUB PUSH2 0x1274 JUMPI PUSH2 0x1273 PUSH2 0x11AB JUMP JUMPDEST JUMPDEST PUSH1 0x1 DUP3 ADD SWAP1 POP SWAP2 SWAP1 POP JUMP JUMPDEST PUSH0 DUP3 DUP3 MSTORE PUSH1 0x20 DUP3 ADD SWAP1 POP SWAP3 SWAP2 POP POP JUMP JUMPDEST PUSH32 0x617272617920746F6F2062696700000000000000000000000000000000000000 PUSH0 DUP3 ADD MSTORE POP JUMP JUMPDEST PUSH0 PUSH2 0x12C3 PUSH1 0xD DUP4 PUSH2 0x127F JUMP JUMPDEST SWAP2 POP PUSH2 0x12CE DUP3 PUSH2 0x128F JUMP JUMPDEST PUSH1 0x20 DUP3 ADD SWAP1 POP SWAP2 SWAP1 POP JUMP JUMPDEST PUSH0 PUSH1 0x20 DUP3 ADD SWAP1 POP DUP2 DUP2 SUB PUSH0 DUP4 ADD MSTORE PUSH2 0x12F0 DUP2 PUSH2 0x12B7 JUMP JUMPDEST SWAP1 POP SWAP2 SWAP1 POP JUMP JUMPDEST PUSH0 PUSH2 0x1301 DUP3 PUSH2 0xCE8 JUMP JUMPDEST SWAP2 POP PUSH2 0x130C DUP4 PUSH2 0xCE8 JUMP JUMPDEST SWAP3 POP DUP3 DUP3 ADD SWAP1 POP DUP1 DUP3 GT ISZERO PUSH2 0x1324 JUMPI PUSH2 0x1323 PUSH2 0x11AB JUMP JUMPDEST JUMPDEST SWAP3 SWAP2 POP POP JUMP INVALID LOG2 PUSH5 0x6970667358 0x22 SLT KECCAK256 0xBE BLOBBASEFEE 0xC0 LOG0 0xBB 0x25 0xA7 LOG0 0xAD PUSH29 0x25FDA1268F5AC21FB19907732DA5500A77B9CC1E6D6964736F6C634300 ADDMOD 0x1E STOP CALLER "
				},
				"gasEstimates": {
					"creation": {
						"codeDepositCost": "992000",
						"executionCost": "1025",
						"totalCost": "993025"
					},
					"external": {
						"batchAddWhitelist(address[])": "infinite",
						"batchCheckWhitelist(address[])": "infinite",
						"getWhitelistArray()": "infinite",
						"getWhitelistLength()": "2462",
						"hasDuplicate(address[])": "infinite",
						"isWhitelisted(address)": "2870",
						"revertArray(uint256[])": "infinite",
						"sumEvenAddresses(address[])": "infinite",
						"sumEvenNumbers(uint256[])": "infinite"
					},
					"internal": {
						"_checkLargeArrayDuplicates(address[] memory)": "infinite"
					}
				},
				"methodIdentifiers": {
					"batchAddWhitelist(address[])": "f797eee3",
					"batchCheckWhitelist(address[])": "8165e932",
					"getWhitelistArray()": "ec10172d",
					"getWhitelistLength()": "a13202e9",
					"hasDuplicate(address[])": "64c20abc",
					"isWhitelisted(address)": "3af32abf",
					"revertArray(uint256[])": "60be465a",
					"sumEvenAddresses(address[])": "d587d5ed",
					"sumEvenNumbers(uint256[])": "9bb86350"
				}
			},
			"storageLayout": {
				"storage": [
					{
						"astId": 5,
						"contract": "base1/whileAddress.sol:whileAddressContract",
						"label": "whiteList",
						"offset": 0,
						"slot": "0",
						"type": "t_mapping(t_address,t_bool)"
					},
					{
						"astId": 8,
						"contract": "base1/whileAddress.sol:whileAddressContract",
						"label": "whiteAddressList",
						"offset": 0,
						"slot": "1",
						"type": "t_array(t_address)dyn_storage"
					}
				],
				"types": {
					"t_address": {
						"encoding": "inplace",
						"label": "address",
						"numberOfBytes": "20"
					},
					"t_array(t_address)dyn_storage": {
						"base": "t_address",
						"encoding": "dynamic_array",
						"label": "address[]",
						"numberOfBytes": "32"
					},
					"t_bool": {
						"encoding": "inplace",
						"label": "bool",
						"numberOfBytes": "1"
					},
					"t_mapping(t_address,t_bool)": {
						"encoding": "mapping",
						"key": "t_address",
						"label": "mapping(address => bool)",
						"numberOfBytes": "32",
						"value": "t_bool"
					}
				}
			},
			"userdoc": {
				"kind": "user",
				"methods": {},
				"version": 1
			}
		}
	}
}