{
	"data": {
		"bytecode": {
			"linkReferences": {},
			"object": "6080604052348015600e575f5ffd5b506112808061001c5f395ff3fe6080604052600436106100c5575f3560e01c80635897c0db1161007e5780638c6fd8ec116100585780638c6fd8ec1461027a5780639516a104146102a2578063e80b7ab6146102cc578063ff7e2be9146102e2576100cc565b80635897c0db146101d85780636f9fb98a146102145780637bf24b201461023e576100cc565b806306c3fd63146100d05780630849cc99146100fa5780632e96bb7414610124578063322433e31461014c5780633628731c1461018857806338eada1c146101b0576100cc565b366100cc57005b5f5ffd5b3480156100db575f5ffd5b506100e461031e565b6040516100f19190610b78565b60405180910390f35b348015610105575f5ffd5b5061010e6103af565b60405161011b9190610b78565b60405180910390f35b34801561012f575f5ffd5b5061014a60048036038101906101459190610bfc565b6103ba565b005b348015610157575f5ffd5b50610172600480360381019061016d9190610bfc565b610516565b60405161017f9190610c41565b60405180910390f35b348015610193575f5ffd5b506101ae60048036038101906101a99190610daa565b6105b6565b005b3480156101bb575f5ffd5b506101d660048036038101906101d19190610bfc565b6106d6565b005b3480156101e3575f5ffd5b506101fe60048036038101906101f99190610e1b565b6107a6565b60405161020b9190610e55565b60405180910390f35b34801561021f575f5ffd5b5061022861082f565b6040516102359190610b78565b60405180910390f35b348015610249575f5ffd5b50610264600480360381019061025f9190610daa565b610836565b6040516102719190610b78565b60405180910390f35b348015610285575f5ffd5b506102a0600480360381019061029b9190610e1b565b61089a565b005b3480156102ad575f5ffd5b506102b66109c9565b6040516102c39190610f25565b60405180910390f35b3480156102d7575f5ffd5b506102e0610a53565b005b3480156102ed575f5ffd5b5061030860048036038101906103039190610bfc565b610abd565b6040516103159190610b78565b60405180910390f35b5f6103aa5f8054806020026020016040519081016040528092919081815260200182805480156103a057602002820191905f5260205f20905b815f9054906101000a900473ffffffffffffffffffffffffffffffffffffffff1673ffffffffffffffffffffffffffffffffffffffff1681526020019060010190808311610357575b5050505050610836565b905090565b5f5f80549050905090565b5f73ffffffffffffffffffffffffffffffffffffffff168173ffffffffffffffffffffffffffffffffffffffff1603610428576040517f08c379a000000000000000000000000000000000000000000000000000000000815260040161041f90610f78565b60405180910390fd5b5f5f90505f5f90505f5f90505b5f805490508110156104c7578373ffffffffffffffffffffffffffffffffffffffff165f828154811061046b5761046a610f96565b5b905f5260205f20015f9054906101000a900473ffffffffffffffffffffffffffffffffffffffff1673ffffffffffffffffffffffffffffffffffffffff16036104ba57600192508091506104c7565b8080600101915050610435565b5081610508576040517f08c379a00000000000000000000000000000000000000000000000000000000081526004016104ff9061100d565b60405180910390fd5b6105118161089a565b505050565b5f5f5f90505b5f805490508110156105ac578273ffffffffffffffffffffffffffffffffffffffff165f828154811061055257610551610f96565b5b905f5260205f20015f9054906101000a900473ffffffffffffffffffffffffffffffffffffffff1673ffffffffffffffffffffffffffffffffffffffff160361059f5760019150506105b1565b808060010191505061051c565b505f90505b919050565b5f5f90505b81518110156106d2575f73ffffffffffffffffffffffffffffffffffffffff168282815181106105ee576105ed610f96565b5b602002602001015173ffffffffffffffffffffffffffffffffffffffff160361064c576040517f08c379a000000000000000000000000000000000000000000000000000000000815260040161064390611075565b60405180910390fd5b5f8282815181106106605761065f610f96565b5b6020026020010151908060018154018082558091505060019003905f5260205f20015f9091909190916101000a81548173ffffffffffffffffffffffffffffffffffffffff021916908373ffffffffffffffffffffffffffffffffffffffff16021790555080806001019150506105bb565b5050565b5f73ffffffffffffffffffffffffffffffffffffffff168173ffffffffffffffffffffffffffffffffffffffff1603610744576040517f08c379a000000000000000000000000000000000000000000000000000000000815260040161073b906110dd565b60405180910390fd5b5f81908060018154018082558091505060019003905f5260205f20015f9091909190916101000a81548173ffffffffffffffffffffffffffffffffffffffff021916908373ffffffffffffffffffffffffffffffffffffffff16021790555050565b5f5f8054905082106107ed576040517f08c379a00000000000000000000000000000000000000000000000000000000081526004016107e490611145565b60405180910390fd5b5f8281548110610800576107ff610f96565b5b905f5260205f20015f9054906101000a900473ffffffffffffffffffffffffffffffffffffffff169050919050565b5f47905090565b5f5f90505f5f90505b82518110156108945782818151811061085b5761085a610f96565b5b602002602001015173ffffffffffffffffffffffffffffffffffffffff1631826108859190611190565b9150808060010191505061083f565b50919050565b5f8054905081106108e0576040517f08c379a00000000000000000000000000000000000000000000000000000000081526004016108d790611145565b60405180910390fd5b5f60015f805490506108f291906111c3565b8154811061090357610902610f96565b5b905f5260205f20015f9054906101000a900473ffffffffffffffffffffffffffffffffffffffff165f828154811061093e5761093d610f96565b5b905f5260205f20015f6101000a81548173ffffffffffffffffffffffffffffffffffffffff021916908373ffffffffffffffffffffffffffffffffffffffff1602179055505f805480610994576109936111f6565b5b600190038181905f5260205f20015f6101000a81549073ffffffffffffffffffffffffffffffffffffffff0219169055905550565b60605f805480602002602001604051908101604052809291908181526020018280548015610a4957602002820191905f5260205f20905b815f9054906101000a900473ffffffffffffffffffffffffffffffffffffffff1673ffffffffffffffffffffffffffffffffffffffff1681526020019060010190808311610a00575b5050505050905090565b5f5f8054905090505b5f811115610aba575f805480610a7557610a746111f6565b5b600190038181905f5260205f20015f6101000a81549073ffffffffffffffffffffffffffffffffffffffff021916905590558080610ab290611223565b915050610a5c565b50565b5f5f5f90505b5f80549050811015610b52578273ffffffffffffffffffffffffffffffffffffffff165f8281548110610af957610af8610f96565b5b905f5260205f20015f9054906101000a900473ffffffffffffffffffffffffffffffffffffffff1673ffffffffffffffffffffffffffffffffffffffff1603610b455780915050610b5b565b8080600101915050610ac3565b505f8054905090505b919050565b5f819050919050565b610b7281610b60565b82525050565b5f602082019050610b8b5f830184610b69565b92915050565b5f604051905090565b5f5ffd5b5f5ffd5b5f73ffffffffffffffffffffffffffffffffffffffff82169050919050565b5f610bcb82610ba2565b9050919050565b610bdb81610bc1565b8114610be5575f5ffd5b50565b5f81359050610bf681610bd2565b92915050565b5f60208284031215610c1157610c10610b9a565b5b5f610c1e84828501610be8565b91505092915050565b5f8115159050919050565b610c3b81610c27565b82525050565b5f602082019050610c545f830184610c32565b92915050565b5f5ffd5b5f601f19601f8301169050919050565b7f4e487b71000000000000000000000000000000000000000000000000000000005f52604160045260245ffd5b610ca482610c5e565b810181811067ffffffffffffffff82111715610cc357610cc2610c6e565b5b80604052505050565b5f610cd5610b91565b9050610ce18282610c9b565b919050565b5f67ffffffffffffffff821115610d0057610cff610c6e565b5b602082029050602081019050919050565b5f5ffd5b5f610d27610d2284610ce6565b610ccc565b90508083825260208201905060208402830185811115610d4a57610d49610d11565b5b835b81811015610d735780610d5f8882610be8565b845260208401935050602081019050610d4c565b5050509392505050565b5f82601f830112610d9157610d90610c5a565b5b8135610da1848260208601610d15565b91505092915050565b5f60208284031215610dbf57610dbe610b9a565b5b5f82013567ffffffffffffffff811115610ddc57610ddb610b9e565b5b610de884828501610d7d565b91505092915050565b610dfa81610b60565b8114610e04575f5ffd5b50565b5f81359050610e1581610df1565b92915050565b5f60208284031215610e3057610e2f610b9a565b5b5f610e3d84828501610e07565b91505092915050565b610e4f81610bc1565b82525050565b5f602082019050610e685f830184610e46565b92915050565b5f81519050919050565b5f82825260208201905092915050565b5f819050602082019050919050565b610ea081610bc1565b82525050565b5f610eb18383610e97565b60208301905092915050565b5f602082019050919050565b5f610ed382610e6e565b610edd8185610e78565b9350610ee883610e88565b805f5b83811015610f18578151610eff8882610ea6565b9750610f0a83610ebd565b925050600181019050610eeb565b5085935050505092915050565b5f6020820190508181035f830152610f3d8184610ec9565b905092915050565b5f82825260208201905092915050565b50565b5f610f635f83610f45565b9150610f6e82610f55565b5f82019050919050565b5f6020820190508181035f830152610f8f81610f58565b9050919050565b7f4e487b71000000000000000000000000000000000000000000000000000000005f52603260045260245ffd5b7f41646472657373206e6f7420666f756e6420696e2061727261790000000000005f82015250565b5f610ff7601a83610f45565b915061100282610fc3565b602082019050919050565b5f6020820190508181035f83015261102481610feb565b9050919050565b7f496e76616c6964206164647265737320696e20617272617900000000000000005f82015250565b5f61105f601883610f45565b915061106a8261102b565b602082019050919050565b5f6020820190508181035f83015261108c81611053565b9050919050565b7f496e76616c6964206164647265737300000000000000000000000000000000005f82015250565b5f6110c7600f83610f45565b91506110d282611093565b602082019050919050565b5f6020820190508181035f8301526110f4816110bb565b9050919050565b7f496e646578206f7574206f6620626f756e6473000000000000000000000000005f82015250565b5f61112f601383610f45565b915061113a826110fb565b602082019050919050565b5f6020820190508181035f83015261115c81611123565b9050919050565b7f4e487b71000000000000000000000000000000000000000000000000000000005f52601160045260245ffd5b5f61119a82610b60565b91506111a583610b60565b92508282019050808211156111bd576111bc611163565b5b92915050565b5f6111cd82610b60565b91506111d883610b60565b92508282039050818111156111f0576111ef611163565b5b92915050565b7f4e487b71000000000000000000000000000000000000000000000000000000005f52603160045260245ffd5b5f61122d82610b60565b91505f820361123f5761123e611163565b5b60018203905091905056fea264697066735822122054b5387e6fb9c9c16cd7496c1fbdd71c07161f0933573ea1d0ebc6f8335f27b164736f6c634300081e0033",
			"opcodes": "PUSH1 0x80 PUSH1 0x40 MSTORE CALLVALUE DUP1 ISZERO PUSH1 0xE JUMPI PUSH0 PUSH0 REVERT JUMPDEST POP PUSH2 0x1280 DUP1 PUSH2 0x1C PUSH0 CODECOPY PUSH0 RETURN INVALID PUSH1 0x80 PUSH1 0x40 MSTORE PUSH1 0x4 CALLDATASIZE LT PUSH2 0xC5 JUMPI PUSH0 CALLDATALOAD PUSH1 0xE0 SHR DUP1 PUSH4 0x5897C0DB GT PUSH2 0x7E JUMPI DUP1 PUSH4 0x8C6FD8EC GT PUSH2 0x58 JUMPI DUP1 PUSH4 0x8C6FD8EC EQ PUSH2 0x27A JUMPI DUP1 PUSH4 0x9516A104 EQ PUSH2 0x2A2 JUMPI DUP1 PUSH4 0xE80B7AB6 EQ PUSH2 0x2CC JUMPI DUP1 PUSH4 0xFF7E2BE9 EQ PUSH2 0x2E2 JUMPI PUSH2 0xCC JUMP JUMPDEST DUP1 PUSH4 0x5897C0DB EQ PUSH2 0x1D8 JUMPI DUP1 PUSH4 0x6F9FB98A EQ PUSH2 0x214 JUMPI DUP1 PUSH4 0x7BF24B20 EQ PUSH2 0x23E JUMPI PUSH2 0xCC JUMP JUMPDEST DUP1 PUSH4 0x6C3FD63 EQ PUSH2 0xD0 JUMPI DUP1 PUSH4 0x849CC99 EQ PUSH2 0xFA JUMPI DUP1 PUSH4 0x2E96BB74 EQ PUSH2 0x124 JUMPI DUP1 PUSH4 0x322433E3 EQ PUSH2 0x14C JUMPI DUP1 PUSH4 0x3628731C EQ PUSH2 0x188 JUMPI DUP1 PUSH4 0x38EADA1C EQ PUSH2 0x1B0 JUMPI PUSH2 0xCC JUMP JUMPDEST CALLDATASIZE PUSH2 0xCC JUMPI STOP JUMPDEST PUSH0 PUSH0 REVERT JUMPDEST CALLVALUE DUP1 ISZERO PUSH2 0xDB JUMPI PUSH0 PUSH0 REVERT JUMPDEST POP PUSH2 0xE4 PUSH2 0x31E JUMP JUMPDEST PUSH1 0x40 MLOAD PUSH2 0xF1 SWAP2 SWAP1 PUSH2 0xB78 JUMP JUMPDEST PUSH1 0x40 MLOAD DUP1 SWAP2 SUB SWAP1 RETURN JUMPDEST CALLVALUE DUP1 ISZERO PUSH2 0x105 JUMPI PUSH0 PUSH0 REVERT JUMPDEST POP PUSH2 0x10E PUSH2 0x3AF JUMP JUMPDEST PUSH1 0x40 MLOAD PUSH2 0x11B SWAP2 SWAP1 PUSH2 0xB78 JUMP JUMPDEST PUSH1 0x40 MLOAD DUP1 SWAP2 SUB SWAP1 RETURN JUMPDEST CALLVALUE DUP1 ISZERO PUSH2 0x12F JUMPI PUSH0 PUSH0 REVERT JUMPDEST POP PUSH2 0x14A PUSH1 0x4 DUP1 CALLDATASIZE SUB DUP2 ADD SWAP1 PUSH2 0x145 SWAP2 SWAP1 PUSH2 0xBFC JUMP JUMPDEST PUSH2 0x3BA JUMP JUMPDEST STOP JUMPDEST CALLVALUE DUP1 ISZERO PUSH2 0x157 JUMPI PUSH0 PUSH0 REVERT JUMPDEST POP PUSH2 0x172 PUSH1 0x4 DUP1 CALLDATASIZE SUB DUP2 ADD SWAP1 PUSH2 0x16D SWAP2 SWAP1 PUSH2 0xBFC JUMP JUMPDEST PUSH2 0x516 JUMP JUMPDEST PUSH1 0x40 MLOAD PUSH2 0x17F SWAP2 SWAP1 PUSH2 0xC41 JUMP JUMPDEST PUSH1 0x40 MLOAD DUP1 SWAP2 SUB SWAP1 RETURN JUMPDEST CALLVALUE DUP1 ISZERO PUSH2 0x193 JUMPI PUSH0 PUSH0 REVERT JUMPDEST POP PUSH2 0x1AE PUSH1 0x4 DUP1 CALLDATASIZE SUB DUP2 ADD SWAP1 PUSH2 0x1A9 SWAP2 SWAP1 PUSH2 0xDAA JUMP JUMPDEST PUSH2 0x5B6 JUMP JUMPDEST STOP JUMPDEST CALLVALUE DUP1 ISZERO PUSH2 0x1BB JUMPI PUSH0 PUSH0 REVERT JUMPDEST POP PUSH2 0x1D6 PUSH1 0x4 DUP1 CALLDATASIZE SUB DUP2 ADD SWAP1 PUSH2 0x1D1 SWAP2 SWAP1 PUSH2 0xBFC JUMP JUMPDEST PUSH2 0x6D6 JUMP JUMPDEST STOP JUMPDEST CALLVALUE DUP1 ISZERO PUSH2 0x1E3 JUMPI PUSH0 PUSH0 REVERT JUMPDEST POP PUSH2 0x1FE PUSH1 0x4 DUP1 CALLDATASIZE SUB DUP2 ADD SWAP1 PUSH2 0x1F9 SWAP2 SWAP1 PUSH2 0xE1B JUMP JUMPDEST PUSH2 0x7A6 JUMP JUMPDEST PUSH1 0x40 MLOAD PUSH2 0x20B SWAP2 SWAP1 PUSH2 0xE55 JUMP JUMPDEST PUSH1 0x40 MLOAD DUP1 SWAP2 SUB SWAP1 RETURN JUMPDEST CALLVALUE DUP1 ISZERO PUSH2 0x21F JUMPI PUSH0 PUSH0 REVERT JUMPDEST POP PUSH2 0x228 PUSH2 0x82F JUMP JUMPDEST PUSH1 0x40 MLOAD PUSH2 0x235 SWAP2 SWAP1 PUSH2 0xB78 JUMP JUMPDEST PUSH1 0x40 MLOAD DUP1 SWAP2 SUB SWAP1 RETURN JUMPDEST CALLVALUE DUP1 ISZERO PUSH2 0x249 JUMPI PUSH0 PUSH0 REVERT JUMPDEST POP PUSH2 0x264 PUSH1 0x4 DUP1 CALLDATASIZE SUB DUP2 ADD SWAP1 PUSH2 0x25F SWAP2 SWAP1 PUSH2 0xDAA JUMP JUMPDEST PUSH2 0x836 JUMP JUMPDEST PUSH1 0x40 MLOAD PUSH2 0x271 SWAP2 SWAP1 PUSH2 0xB78 JUMP JUMPDEST PUSH1 0x40 MLOAD DUP1 SWAP2 SUB SWAP1 RETURN JUMPDEST CALLVALUE DUP1 ISZERO PUSH2 0x285 JUMPI PUSH0 PUSH0 REVERT JUMPDEST POP PUSH2 0x2A0 PUSH1 0x4 DUP1 CALLDATASIZE SUB DUP2 ADD SWAP1 PUSH2 0x29B SWAP2 SWAP1 PUSH2 0xE1B JUMP JUMPDEST PUSH2 0x89A JUMP JUMPDEST STOP JUMPDEST CALLVALUE DUP1 ISZERO PUSH2 0x2AD JUMPI PUSH0 PUSH0 REVERT JUMPDEST POP PUSH2 0x2B6 PUSH2 0x9C9 JUMP JUMPDEST PUSH1 0x40 MLOAD PUSH2 0x2C3 SWAP2 SWAP1 PUSH2 0xF25 JUMP JUMPDEST PUSH1 0x40 MLOAD DUP1 SWAP2 SUB SWAP1 RETURN JUMPDEST CALLVALUE DUP1 ISZERO PUSH2 0x2D7 JUMPI PUSH0 PUSH0 REVERT JUMPDEST POP PUSH2 0x2E0 PUSH2 0xA53 JUMP JUMPDEST STOP JUMPDEST CALLVALUE DUP1 ISZERO PUSH2 0x2ED JUMPI PUSH0 PUSH0 REVERT JUMPDEST POP PUSH2 0x308 PUSH1 0x4 DUP1 CALLDATASIZE SUB DUP2 ADD SWAP1 PUSH2 0x303 SWAP2 SWAP1 PUSH2 0xBFC JUMP JUMPDEST PUSH2 0xABD JUMP JUMPDEST PUSH1 0x40 MLOAD PUSH2 0x315 SWAP2 SWAP1 PUSH2 0xB78 JUMP JUMPDEST PUSH1 0x40 MLOAD DUP1 SWAP2 SUB SWAP1 RETURN JUMPDEST PUSH0 PUSH2 0x3AA PUSH0 DUP1 SLOAD DUP1 PUSH1 0x20 MUL PUSH1 0x20 ADD PUSH1 0x40 MLOAD SWAP1 DUP2 ADD PUSH1 0x40 MSTORE DUP1 SWAP3 SWAP2 SWAP1 DUP2 DUP2 MSTORE PUSH1 0x20 ADD DUP3 DUP1 SLOAD DUP1 ISZERO PUSH2 0x3A0 JUMPI PUSH1 0x20 MUL DUP3 ADD SWAP2 SWAP1 PUSH0 MSTORE PUSH1 0x20 PUSH0 KECCAK256 SWAP1 JUMPDEST DUP2 PUSH0 SWAP1 SLOAD SWAP1 PUSH2 0x100 EXP SWAP1 DIV PUSH20 0xFFFFFFFFFFFFFFFFFFFFFFFFFFFFFFFFFFFFFFFF AND PUSH20 0xFFFFFFFFFFFFFFFFFFFFFFFFFFFFFFFFFFFFFFFF AND DUP2 MSTORE PUSH1 0x20 ADD SWAP1 PUSH1 0x1 ADD SWAP1 DUP1 DUP4 GT PUSH2 0x357 JUMPI JUMPDEST POP POP POP POP POP PUSH2 0x836 JUMP JUMPDEST SWAP1 POP SWAP1 JUMP JUMPDEST PUSH0 PUSH0 DUP1 SLOAD SWAP1 POP SWAP1 POP SWAP1 JUMP JUMPDEST PUSH0 PUSH20 0xFFFFFFFFFFFFFFFFFFFFFFFFFFFFFFFFFFFFFFFF AND DUP2 PUSH20 0xFFFFFFFFFFFFFFFFFFFFFFFFFFFFFFFFFFFFFFFF AND SUB PUSH2 0x428 JUMPI PUSH1 0x40 MLOAD PUSH32 0x8C379A000000000000000000000000000000000000000000000000000000000 DUP2 MSTORE PUSH1 0x4 ADD PUSH2 0x41F SWAP1 PUSH2 0xF78 JUMP JUMPDEST PUSH1 0x40 MLOAD DUP1 SWAP2 SUB SWAP1 REVERT JUMPDEST PUSH0 PUSH0 SWAP1 POP PUSH0 PUSH0 SWAP1 POP PUSH0 PUSH0 SWAP1 POP JUMPDEST PUSH0 DUP1 SLOAD SWAP1 POP DUP2 LT ISZERO PUSH2 0x4C7 JUMPI DUP4 PUSH20 0xFFFFFFFFFFFFFFFFFFFFFFFFFFFFFFFFFFFFFFFF AND PUSH0 DUP3 DUP2 SLOAD DUP2 LT PUSH2 0x46B JUMPI PUSH2 0x46A PUSH2 0xF96 JUMP JUMPDEST JUMPDEST SWAP1 PUSH0 MSTORE PUSH1 0x20 PUSH0 KECCAK256 ADD PUSH0 SWAP1 SLOAD SWAP1 PUSH2 0x100 EXP SWAP1 DIV PUSH20 0xFFFFFFFFFFFFFFFFFFFFFFFFFFFFFFFFFFFFFFFF AND PUSH20 0xFFFFFFFFFFFFFFFFFFFFFFFFFFFFFFFFFFFFFFFF AND SUB PUSH2 0x4BA JUMPI PUSH1 0x1 SWAP3 POP DUP1 SWAP2 POP PUSH2 0x4C7 JUMP JUMPDEST DUP1 DUP1 PUSH1 0x1 ADD SWAP2 POP POP PUSH2 0x435 JUMP JUMPDEST POP DUP2 PUSH2 0x508 JUMPI PUSH1 0x40 MLOAD PUSH32 0x8C379A000000000000000000000000000000000000000000000000000000000 DUP2 MSTORE PUSH1 0x4 ADD PUSH2 0x4FF SWAP1 PUSH2 0x100D JUMP JUMPDEST PUSH1 0x40 MLOAD DUP1 SWAP2 SUB SWAP1 REVERT JUMPDEST PUSH2 0x511 DUP2 PUSH2 0x89A JUMP JUMPDEST POP POP POP JUMP JUMPDEST PUSH0 PUSH0 PUSH0 SWAP1 POP JUMPDEST PUSH0 DUP1 SLOAD SWAP1 POP DUP2 LT ISZERO PUSH2 0x5AC JUMPI DUP3 PUSH20 0xFFFFFFFFFFFFFFFFFFFFFFFFFFFFFFFFFFFFFFFF AND PUSH0 DUP3 DUP2 SLOAD DUP2 LT PUSH2 0x552 JUMPI PUSH2 0x551 PUSH2 0xF96 JUMP JUMPDEST JUMPDEST SWAP1 PUSH0 MSTORE PUSH1 0x20 PUSH0 KECCAK256 ADD PUSH0 SWAP1 SLOAD SWAP1 PUSH2 0x100 EXP SWAP1 DIV PUSH20 0xFFFFFFFFFFFFFFFFFFFFFFFFFFFFFFFFFFFFFFFF AND PUSH20 0xFFFFFFFFFFFFFFFFFFFFFFFFFFFFFFFFFFFFFFFF AND SUB PUSH2 0x59F JUMPI PUSH1 0x1 SWAP2 POP POP PUSH2 0x5B1 JUMP JUMPDEST DUP1 DUP1 PUSH1 0x1 ADD SWAP2 POP POP PUSH2 0x51C JUMP JUMPDEST POP PUSH0 SWAP1 POP JUMPDEST SWAP2 SWAP1 POP JUMP JUMPDEST PUSH0 PUSH0 SWAP1 POP JUMPDEST DUP2 MLOAD DUP2 LT ISZERO PUSH2 0x6D2 JUMPI PUSH0 PUSH20 0xFFFFFFFFFFFFFFFFFFFFFFFFFFFFFFFFFFFFFFFF AND DUP3 DUP3 DUP2 MLOAD DUP2 LT PUSH2 0x5EE JUMPI PUSH2 0x5ED PUSH2 0xF96 JUMP JUMPDEST JUMPDEST PUSH1 0x20 MUL PUSH1 0x20 ADD ADD MLOAD PUSH20 0xFFFFFFFFFFFFFFFFFFFFFFFFFFFFFFFFFFFFFFFF AND SUB PUSH2 0x64C JUMPI PUSH1 0x40 MLOAD PUSH32 0x8C379A000000000000000000000000000000000000000000000000000000000 DUP2 MSTORE PUSH1 0x4 ADD PUSH2 0x643 SWAP1 PUSH2 0x1075 JUMP JUMPDEST PUSH1 0x40 MLOAD DUP1 SWAP2 SUB SWAP1 REVERT JUMPDEST PUSH0 DUP3 DUP3 DUP2 MLOAD DUP2 LT PUSH2 0x660 JUMPI PUSH2 0x65F PUSH2 0xF96 JUMP JUMPDEST JUMPDEST PUSH1 0x20 MUL PUSH1 0x20 ADD ADD MLOAD SWAP1 DUP1 PUSH1 0x1 DUP2 SLOAD ADD DUP1 DUP3 SSTORE DUP1 SWAP2 POP POP PUSH1 0x1 SWAP1 SUB SWAP1 PUSH0 MSTORE PUSH1 0x20 PUSH0 KECCAK256 ADD PUSH0 SWAP1 SWAP2 SWAP1 SWAP2 SWAP1 SWAP2 PUSH2 0x100 EXP DUP2 SLOAD DUP2 PUSH20 0xFFFFFFFFFFFFFFFFFFFFFFFFFFFFFFFFFFFFFFFF MUL NOT AND SWAP1 DUP4 PUSH20 0xFFFFFFFFFFFFFFFFFFFFFFFFFFFFFFFFFFFFFFFF AND MUL OR SWAP1 SSTORE POP DUP1 DUP1 PUSH1 0x1 ADD SWAP2 POP POP PUSH2 0x5BB JUMP JUMPDEST POP POP JUMP JUMPDEST PUSH0 PUSH20 0xFFFFFFFFFFFFFFFFFFFFFFFFFFFFFFFFFFFFFFFF AND DUP2 PUSH20 0xFFFFFFFFFFFFFFFFFFFFFFFFFFFFFFFFFFFFFFFF AND SUB PUSH2 0x744 JUMPI PUSH1 0x40 MLOAD PUSH32 0x8C379A000000000000000000000000000000000000000000000000000000000 DUP2 MSTORE PUSH1 0x4 ADD PUSH2 0x73B SWAP1 PUSH2 0x10DD JUMP JUMPDEST PUSH1 0x40 MLOAD DUP1 SWAP2 SUB SWAP1 REVERT JUMPDEST PUSH0 DUP2 SWAP1 DUP1 PUSH1 0x1 DUP2 SLOAD ADD DUP1 DUP3 SSTORE DUP1 SWAP2 POP POP PUSH1 0x1 SWAP1 SUB SWAP1 PUSH0 MSTORE PUSH1 0x20 PUSH0 KECCAK256 ADD PUSH0 SWAP1 SWAP2 SWAP1 SWAP2 SWAP1 SWAP2 PUSH2 0x100 EXP DUP2 SLOAD DUP2 PUSH20 0xFFFFFFFFFFFFFFFFFFFFFFFFFFFFFFFFFFFFFFFF MUL NOT AND SWAP1 DUP4 PUSH20 0xFFFFFFFFFFFFFFFFFFFFFFFFFFFFFFFFFFFFFFFF AND MUL OR SWAP1 SSTORE POP POP JUMP JUMPDEST PUSH0 PUSH0 DUP1 SLOAD SWAP1 POP DUP3 LT PUSH2 0x7ED JUMPI PUSH1 0x40 MLOAD PUSH32 0x8C379A000000000000000000000000000000000000000000000000000000000 DUP2 MSTORE PUSH1 0x4 ADD PUSH2 0x7E4 SWAP1 PUSH2 0x1145 JUMP JUMPDEST PUSH1 0x40 MLOAD DUP1 SWAP2 SUB SWAP1 REVERT JUMPDEST PUSH0 DUP3 DUP2 SLOAD DUP2 LT PUSH2 0x800 JUMPI PUSH2 0x7FF PUSH2 0xF96 JUMP JUMPDEST JUMPDEST SWAP1 PUSH0 MSTORE PUSH1 0x20 PUSH0 KECCAK256 ADD PUSH0 SWAP1 SLOAD SWAP1 PUSH2 0x100 EXP SWAP1 DIV PUSH20 0xFFFFFFFFFFFFFFFFFFFFFFFFFFFFFFFFFFFFFFFF AND SWAP1 POP SWAP2 SWAP1 POP JUMP JUMPDEST PUSH0 SELFBALANCE SWAP1 POP SWAP1 JUMP JUMPDEST PUSH0 PUSH0 SWAP1 POP PUSH0 PUSH0 SWAP1 POP JUMPDEST DUP3 MLOAD DUP2 LT ISZERO PUSH2 0x894 JUMPI DUP3 DUP2 DUP2 MLOAD DUP2 LT PUSH2 0x85B JUMPI PUSH2 0x85A PUSH2 0xF96 JUMP JUMPDEST JUMPDEST PUSH1 0x20 MUL PUSH1 0x20 ADD ADD MLOAD PUSH20 0xFFFFFFFFFFFFFFFFFFFFFFFFFFFFFFFFFFFFFFFF AND BALANCE DUP3 PUSH2 0x885 SWAP2 SWAP1 PUSH2 0x1190 JUMP JUMPDEST SWAP2 POP DUP1 DUP1 PUSH1 0x1 ADD SWAP2 POP POP PUSH2 0x83F JUMP JUMPDEST POP SWAP2 SWAP1 POP JUMP JUMPDEST PUSH0 DUP1 SLOAD SWAP1 POP DUP2 LT PUSH2 0x8E0 JUMPI PUSH1 0x40 MLOAD PUSH32 0x8C379A000000000000000000000000000000000000000000000000000000000 DUP2 MSTORE PUSH1 0x4 ADD PUSH2 0x8D7 SWAP1 PUSH2 0x1145 JUMP JUMPDEST PUSH1 0x40 MLOAD DUP1 SWAP2 SUB SWAP1 REVERT JUMPDEST PUSH0 PUSH1 0x1 PUSH0 DUP1 SLOAD SWAP1 POP PUSH2 0x8F2 SWAP2 SWAP1 PUSH2 0x11C3 JUMP JUMPDEST DUP2 SLOAD DUP2 LT PUSH2 0x903 JUMPI PUSH2 0x902 PUSH2 0xF96 JUMP JUMPDEST JUMPDEST SWAP1 PUSH0 MSTORE PUSH1 0x20 PUSH0 KECCAK256 ADD PUSH0 SWAP1 SLOAD SWAP1 PUSH2 0x100 EXP SWAP1 DIV PUSH20 0xFFFFFFFFFFFFFFFFFFFFFFFFFFFFFFFFFFFFFFFF AND PUSH0 DUP3 DUP2 SLOAD DUP2 LT PUSH2 0x93E JUMPI PUSH2 0x93D PUSH2 0xF96 JUMP JUMPDEST JUMPDEST SWAP1 PUSH0 MSTORE PUSH1 0x20 PUSH0 KECCAK256 ADD PUSH0 PUSH2 0x100 EXP DUP2 SLOAD DUP2 PUSH20 0xFFFFFFFFFFFFFFFFFFFFFFFFFFFFFFFFFFFFFFFF MUL NOT AND SWAP1 DUP4 PUSH20 0xFFFFFFFFFFFFFFFFFFFFFFFFFFFFFFFFFFFFFFFF AND MUL OR SWAP1 SSTORE POP PUSH0 DUP1 SLOAD DUP1 PUSH2 0x994 JUMPI PUSH2 0x993 PUSH2 0x11F6 JUMP JUMPDEST JUMPDEST PUSH1 0x1 SWAP1 SUB DUP2 DUP2 SWAP1 PUSH0 MSTORE PUSH1 0x20 PUSH0 KECCAK256 ADD PUSH0 PUSH2 0x100 EXP DUP2 SLOAD SWAP1 PUSH20 0xFFFFFFFFFFFFFFFFFFFFFFFFFFFFFFFFFFFFFFFF MUL NOT AND SWAP1 SSTORE SWAP1 SSTORE POP JUMP JUMPDEST PUSH1 0x60 PUSH0 DUP1 SLOAD DUP1 PUSH1 0x20 MUL PUSH1 0x20 ADD PUSH1 0x40 MLOAD SWAP1 DUP2 ADD PUSH1 0x40 MSTORE DUP1 SWAP3 SWAP2 SWAP1 DUP2 DUP2 MSTORE PUSH1 0x20 ADD DUP3 DUP1 SLOAD DUP1 ISZERO PUSH2 0xA49 JUMPI PUSH1 0x20 MUL DUP3 ADD SWAP2 SWAP1 PUSH0 MSTORE PUSH1 0x20 PUSH0 KECCAK256 SWAP1 JUMPDEST DUP2 PUSH0 SWAP1 SLOAD SWAP1 PUSH2 0x100 EXP SWAP1 DIV PUSH20 0xFFFFFFFFFFFFFFFFFFFFFFFFFFFFFFFFFFFFFFFF AND PUSH20 0xFFFFFFFFFFFFFFFFFFFFFFFFFFFFFFFFFFFFFFFF AND DUP2 MSTORE PUSH1 0x20 ADD SWAP1 PUSH1 0x1 ADD SWAP1 DUP1 DUP4 GT PUSH2 0xA00 JUMPI JUMPDEST POP POP POP POP POP SWAP1 POP SWAP1 JUMP JUMPDEST PUSH0 PUSH0 DUP1 SLOAD SWAP1 POP SWAP1 POP JUMPDEST PUSH0 DUP2 GT ISZERO PUSH2 0xABA JUMPI PUSH0 DUP1 SLOAD DUP1 PUSH2 0xA75 JUMPI PUSH2 0xA74 PUSH2 0x11F6 JUMP JUMPDEST JUMPDEST PUSH1 0x1 SWAP1 SUB DUP2 DUP2 SWAP1 PUSH0 MSTORE PUSH1 0x20 PUSH0 KECCAK256 ADD PUSH0 PUSH2 0x100 EXP DUP2 SLOAD SWAP1 PUSH20 0xFFFFFFFFFFFFFFFFFFFFFFFFFFFFFFFFFFFFFFFF MUL NOT AND SWAP1 SSTORE SWAP1 SSTORE DUP1 DUP1 PUSH2 0xAB2 SWAP1 PUSH2 0x1223 JUMP JUMPDEST SWAP2 POP POP PUSH2 0xA5C JUMP JUMPDEST POP JUMP JUMPDEST PUSH0 PUSH0 PUSH0 SWAP1 POP JUMPDEST PUSH0 DUP1 SLOAD SWAP1 POP DUP2 LT ISZERO PUSH2 0xB52 JUMPI DUP3 PUSH20 0xFFFFFFFFFFFFFFFFFFFFFFFFFFFFFFFFFFFFFFFF AND PUSH0 DUP3 DUP2 SLOAD DUP2 LT PUSH2 0xAF9 JUMPI PUSH2 0xAF8 PUSH2 0xF96 JUMP JUMPDEST JUMPDEST SWAP1 PUSH0 MSTORE PUSH1 0x20 PUSH0 KECCAK256 ADD PUSH0 SWAP1 SLOAD SWAP1 PUSH2 0x100 EXP SWAP1 DIV PUSH20 0xFFFFFFFFFFFFFFFFFFFFFFFFFFFFFFFFFFFFFFFF AND PUSH20 0xFFFFFFFFFFFFFFFFFFFFFFFFFFFFFFFFFFFFFFFF AND SUB PUSH2 0xB45 JUMPI DUP1 SWAP2 POP POP PUSH2 0xB5B JUMP JUMPDEST DUP1 DUP1 PUSH1 0x1 ADD SWAP2 POP POP PUSH2 0xAC3 JUMP JUMPDEST POP PUSH0 DUP1 SLOAD SWAP1 POP SWAP1 POP JUMPDEST SWAP2 SWAP1 POP JUMP JUMPDEST PUSH0 DUP2 SWAP1 POP SWAP2 SWAP1 POP JUMP JUMPDEST PUSH2 0xB72 DUP2 PUSH2 0xB60 JUMP JUMPDEST DUP3 MSTORE POP POP JUMP JUMPDEST PUSH0 PUSH1 0x20 DUP3 ADD SWAP1 POP PUSH2 0xB8B PUSH0 DUP4 ADD DUP5 PUSH2 0xB69 JUMP JUMPDEST SWAP3 SWAP2 POP POP JUMP JUMPDEST PUSH0 PUSH1 0x40 MLOAD SWAP1 POP SWAP1 JUMP JUMPDEST PUSH0 PUSH0 REVERT JUMPDEST PUSH0 PUSH0 REVERT JUMPDEST PUSH0 PUSH20 0xFFFFFFFFFFFFFFFFFFFFFFFFFFFFFFFFFFFFFFFF DUP3 AND SWAP1 POP SWAP2 SWAP1 POP JUMP JUMPDEST PUSH0 PUSH2 0xBCB DUP3 PUSH2 0xBA2 JUMP JUMPDEST SWAP1 POP SWAP2 SWAP1 POP JUMP JUMPDEST PUSH2 0xBDB DUP2 PUSH2 0xBC1 JUMP JUMPDEST DUP2 EQ PUSH2 0xBE5 JUMPI PUSH0 PUSH0 REVERT JUMPDEST POP JUMP JUMPDEST PUSH0 DUP2 CALLDATALOAD SWAP1 POP PUSH2 0xBF6 DUP2 PUSH2 0xBD2 JUMP JUMPDEST SWAP3 SWAP2 POP POP JUMP JUMPDEST PUSH0 PUSH1 0x20 DUP3 DUP5 SUB SLT ISZERO PUSH2 0xC11 JUMPI PUSH2 0xC10 PUSH2 0xB9A JUMP JUMPDEST JUMPDEST PUSH0 PUSH2 0xC1E DUP5 DUP3 DUP6 ADD PUSH2 0xBE8 JUMP JUMPDEST SWAP2 POP POP SWAP3 SWAP2 POP POP JUMP JUMPDEST PUSH0 DUP2 ISZERO ISZERO SWAP1 POP SWAP2 SWAP1 POP JUMP JUMPDEST PUSH2 0xC3B DUP2 PUSH2 0xC27 JUMP JUMPDEST DUP3 MSTORE POP POP JUMP JUMPDEST PUSH0 PUSH1 0x20 DUP3 ADD SWAP1 POP PUSH2 0xC54 PUSH0 DUP4 ADD DUP5 PUSH2 0xC32 JUMP JUMPDEST SWAP3 SWAP2 POP POP JUMP JUMPDEST PUSH0 PUSH0 REVERT JUMPDEST PUSH0 PUSH1 0x1F NOT PUSH1 0x1F DUP4 ADD AND SWAP1 POP SWAP2 SWAP1 POP JUMP JUMPDEST PUSH32 0x4E487B7100000000000000000000000000000000000000000000000000000000 PUSH0 MSTORE PUSH1 0x41 PUSH1 0x4 MSTORE PUSH1 0x24 PUSH0 REVERT JUMPDEST PUSH2 0xCA4 DUP3 PUSH2 0xC5E JUMP JUMPDEST DUP2 ADD DUP2 DUP2 LT PUSH8 0xFFFFFFFFFFFFFFFF DUP3 GT OR ISZERO PUSH2 0xCC3 JUMPI PUSH2 0xCC2 PUSH2 0xC6E JUMP JUMPDEST JUMPDEST DUP1 PUSH1 0x40 MSTORE POP POP POP JUMP JUMPDEST PUSH0 PUSH2 0xCD5 PUSH2 0xB91 JUMP JUMPDEST SWAP1 POP PUSH2 0xCE1 DUP3 DUP3 PUSH2 0xC9B JUMP JUMPDEST SWAP2 SWAP1 POP JUMP JUMPDEST PUSH0 PUSH8 0xFFFFFFFFFFFFFFFF DUP3 GT ISZERO PUSH2 0xD00 JUMPI PUSH2 0xCFF PUSH2 0xC6E JUMP JUMPDEST JUMPDEST PUSH1 0x20 DUP3 MUL SWAP1 POP PUSH1 0x20 DUP2 ADD SWAP1 POP SWAP2 SWAP1 POP JUMP JUMPDEST PUSH0 PUSH0 REVERT JUMPDEST PUSH0 PUSH2 0xD27 PUSH2 0xD22 DUP5 PUSH2 0xCE6 JUMP JUMPDEST PUSH2 0xCCC JUMP JUMPDEST SWAP1 POP DUP1 DUP4 DUP3 MSTORE PUSH1 0x20 DUP3 ADD SWAP1 POP PUSH1 0x20 DUP5 MUL DUP4 ADD DUP6 DUP2 GT ISZERO PUSH2 0xD4A JUMPI PUSH2 0xD49 PUSH2 0xD11 JUMP JUMPDEST JUMPDEST DUP4 JUMPDEST DUP2 DUP2 LT ISZERO PUSH2 0xD73 JUMPI DUP1 PUSH2 0xD5F DUP9 DUP3 PUSH2 0xBE8 JUMP JUMPDEST DUP5 MSTORE PUSH1 0x20 DUP5 ADD SWAP4 POP POP PUSH1 0x20 DUP2 ADD SWAP1 POP PUSH2 0xD4C JUMP JUMPDEST POP POP POP SWAP4 SWAP3 POP POP POP JUMP JUMPDEST PUSH0 DUP3 PUSH1 0x1F DUP4 ADD SLT PUSH2 0xD91 JUMPI PUSH2 0xD90 PUSH2 0xC5A JUMP JUMPDEST JUMPDEST DUP2 CALLDATALOAD PUSH2 0xDA1 DUP5 DUP3 PUSH1 0x20 DUP7 ADD PUSH2 0xD15 JUMP JUMPDEST SWAP2 POP POP SWAP3 SWAP2 POP POP JUMP JUMPDEST PUSH0 PUSH1 0x20 DUP3 DUP5 SUB SLT ISZERO PUSH2 0xDBF JUMPI PUSH2 0xDBE PUSH2 0xB9A JUMP JUMPDEST JUMPDEST PUSH0 DUP3 ADD CALLDATALOAD PUSH8 0xFFFFFFFFFFFFFFFF DUP2 GT ISZERO PUSH2 0xDDC JUMPI PUSH2 0xDDB PUSH2 0xB9E JUMP JUMPDEST JUMPDEST PUSH2 0xDE8 DUP5 DUP3 DUP6 ADD PUSH2 0xD7D JUMP JUMPDEST SWAP2 POP POP SWAP3 SWAP2 POP POP JUMP JUMPDEST PUSH2 0xDFA DUP2 PUSH2 0xB60 JUMP JUMPDEST DUP2 EQ PUSH2 0xE04 JUMPI PUSH0 PUSH0 REVERT JUMPDEST POP JUMP JUMPDEST PUSH0 DUP2 CALLDATALOAD SWAP1 POP PUSH2 0xE15 DUP2 PUSH2 0xDF1 JUMP JUMPDEST SWAP3 SWAP2 POP POP JUMP JUMPDEST PUSH0 PUSH1 0x20 DUP3 DUP5 SUB SLT ISZERO PUSH2 0xE30 JUMPI PUSH2 0xE2F PUSH2 0xB9A JUMP JUMPDEST JUMPDEST PUSH0 PUSH2 0xE3D DUP5 DUP3 DUP6 ADD PUSH2 0xE07 JUMP JUMPDEST SWAP2 POP POP SWAP3 SWAP2 POP POP JUMP JUMPDEST PUSH2 0xE4F DUP2 PUSH2 0xBC1 JUMP JUMPDEST DUP3 MSTORE POP POP JUMP JUMPDEST PUSH0 PUSH1 0x20 DUP3 ADD SWAP1 POP PUSH2 0xE68 PUSH0 DUP4 ADD DUP5 PUSH2 0xE46 JUMP JUMPDEST SWAP3 SWAP2 POP POP JUMP JUMPDEST PUSH0 DUP2 MLOAD SWAP1 POP SWAP2 SWAP1 POP JUMP JUMPDEST PUSH0 DUP3 DUP3 MSTORE PUSH1 0x20 DUP3 ADD SWAP1 POP SWAP3 SWAP2 POP POP JUMP JUMPDEST PUSH0 DUP2 SWAP1 POP PUSH1 0x20 DUP3 ADD SWAP1 POP SWAP2 SWAP1 POP JUMP JUMPDEST PUSH2 0xEA0 DUP2 PUSH2 0xBC1 JUMP JUMPDEST DUP3 MSTORE POP POP JUMP JUMPDEST PUSH0 PUSH2 0xEB1 DUP4 DUP4 PUSH2 0xE97 JUMP JUMPDEST PUSH1 0x20 DUP4 ADD SWAP1 POP SWAP3 SWAP2 POP POP JUMP JUMPDEST PUSH0 PUSH1 0x20 DUP3 ADD SWAP1 POP SWAP2 SWAP1 POP JUMP JUMPDEST PUSH0 PUSH2 0xED3 DUP3 PUSH2 0xE6E JUMP JUMPDEST PUSH2 0xEDD DUP2 DUP6 PUSH2 0xE78 JUMP JUMPDEST SWAP4 POP PUSH2 0xEE8 DUP4 PUSH2 0xE88 JUMP JUMPDEST DUP1 PUSH0 JUMPDEST DUP4 DUP2 LT ISZERO PUSH2 0xF18 JUMPI DUP2 MLOAD PUSH2 0xEFF DUP9 DUP3 PUSH2 0xEA6 JUMP JUMPDEST SWAP8 POP PUSH2 0xF0A DUP4 PUSH2 0xEBD JUMP JUMPDEST SWAP3 POP POP PUSH1 0x1 DUP2 ADD SWAP1 POP PUSH2 0xEEB JUMP JUMPDEST POP DUP6 SWAP4 POP POP POP POP SWAP3 SWAP2 POP POP JUMP JUMPDEST PUSH0 PUSH1 0x20 DUP3 ADD SWAP1 POP DUP2 DUP2 SUB PUSH0 DUP4 ADD MSTORE PUSH2 0xF3D DUP2 DUP5 PUSH2 0xEC9 JUMP JUMPDEST SWAP1 POP SWAP3 SWAP2 POP POP JUMP JUMPDEST PUSH0 DUP3 DUP3 MSTORE PUSH1 0x20 DUP3 ADD SWAP1 POP SWAP3 SWAP2 POP POP JUMP JUMPDEST POP JUMP JUMPDEST PUSH0 PUSH2 0xF63 PUSH0 DUP4 PUSH2 0xF45 JUMP JUMPDEST SWAP2 POP PUSH2 0xF6E DUP3 PUSH2 0xF55 JUMP JUMPDEST PUSH0 DUP3 ADD SWAP1 POP SWAP2 SWAP1 POP JUMP JUMPDEST PUSH0 PUSH1 0x20 DUP3 ADD SWAP1 POP DUP2 DUP2 SUB PUSH0 DUP4 ADD MSTORE PUSH2 0xF8F DUP2 PUSH2 0xF58 JUMP JUMPDEST SWAP1 POP SWAP2 SWAP1 POP JUMP JUMPDEST PUSH32 0x4E487B7100000000000000000000000000000000000000000000000000000000 PUSH0 MSTORE PUSH1 0x32 PUSH1 0x4 MSTORE PUSH1 0x24 PUSH0 REVERT JUMPDEST PUSH32 0x41646472657373206E6F7420666F756E6420696E206172726179000000000000 PUSH0 DUP3 ADD MSTORE POP JUMP JUMPDEST PUSH0 PUSH2 0xFF7 PUSH1 0x1A DUP4 PUSH2 0xF45 JUMP JUMPDEST SWAP2 POP PUSH2 0x1002 DUP3 PUSH2 0xFC3 JUMP JUMPDEST PUSH1 0x20 DUP3 ADD SWAP1 POP SWAP2 SWAP1 POP JUMP JUMPDEST PUSH0 PUSH1 0x20 DUP3 ADD SWAP1 POP DUP2 DUP2 SUB PUSH0 DUP4 ADD MSTORE PUSH2 0x1024 DUP2 PUSH2 0xFEB JUMP JUMPDEST SWAP1 POP SWAP2 SWAP1 POP JUMP JUMPDEST PUSH32 0x496E76616C6964206164647265737320696E2061727261790000000000000000 PUSH0 DUP3 ADD MSTORE POP JUMP JUMPDEST PUSH0 PUSH2 0x105F PUSH1 0x18 DUP4 PUSH2 0xF45 JUMP JUMPDEST SWAP2 POP PUSH2 0x106A DUP3 PUSH2 0x102B JUMP JUMPDEST PUSH1 0x20 DUP3 ADD SWAP1 POP SWAP2 SWAP1 POP JUMP JUMPDEST PUSH0 PUSH1 0x20 DUP3 ADD SWAP1 POP DUP2 DUP2 SUB PUSH0 DUP4 ADD MSTORE PUSH2 0x108C DUP2 PUSH2 0x1053 JUMP JUMPDEST SWAP1 POP SWAP2 SWAP1 POP JUMP JUMPDEST PUSH32 0x496E76616C696420616464726573730000000000000000000000000000000000 PUSH0 DUP3 ADD MSTORE POP JUMP JUMPDEST PUSH0 PUSH2 0x10C7 PUSH1 0xF DUP4 PUSH2 0xF45 JUMP JUMPDEST SWAP2 POP PUSH2 0x10D2 DUP3 PUSH2 0x1093 JUMP JUMPDEST PUSH1 0x20 DUP3 ADD SWAP1 POP SWAP2 SWAP1 POP JUMP JUMPDEST PUSH0 PUSH1 0x20 DUP3 ADD SWAP1 POP DUP2 DUP2 SUB PUSH0 DUP4 ADD MSTORE PUSH2 0x10F4 DUP2 PUSH2 0x10BB JUMP JUMPDEST SWAP1 POP SWAP2 SWAP1 POP JUMP JUMPDEST PUSH32 0x496E646578206F7574206F6620626F756E647300000000000000000000000000 PUSH0 DUP3 ADD MSTORE POP JUMP JUMPDEST PUSH0 PUSH2 0x112F PUSH1 0x13 DUP4 PUSH2 0xF45 JUMP JUMPDEST SWAP2 POP PUSH2 0x113A DUP3 PUSH2 0x10FB JUMP JUMPDEST PUSH1 0x20 DUP3 ADD SWAP1 POP SWAP2 SWAP1 POP JUMP JUMPDEST PUSH0 PUSH1 0x20 DUP3 ADD SWAP1 POP DUP2 DUP2 SUB PUSH0 DUP4 ADD MSTORE PUSH2 0x115C DUP2 PUSH2 0x1123 JUMP JUMPDEST SWAP1 POP SWAP2 SWAP1 POP JUMP JUMPDEST PUSH32 0x4E487B7100000000000000000000000000000000000000000000000000000000 PUSH0 MSTORE PUSH1 0x11 PUSH1 0x4 MSTORE PUSH1 0x24 PUSH0 REVERT JUMPDEST PUSH0 PUSH2 0x119A DUP3 PUSH2 0xB60 JUMP JUMPDEST SWAP2 POP PUSH2 0x11A5 DUP4 PUSH2 0xB60 JUMP JUMPDEST SWAP3 POP DUP3 DUP3 ADD SWAP1 POP DUP1 DUP3 GT ISZERO PUSH2 0x11BD JUMPI PUSH2 0x11BC PUSH2 0x1163 JUMP JUMPDEST JUMPDEST SWAP3 SWAP2 POP POP JUMP JUMPDEST PUSH0 PUSH2 0x11CD DUP3 PUSH2 0xB60 JUMP JUMPDEST SWAP2 POP PUSH2 0x11D8 DUP4 PUSH2 0xB60 JUMP JUMPDEST SWAP3 POP DUP3 DUP3 SUB SWAP1 POP DUP2 DUP2 GT ISZERO PUSH2 0x11F0 JUMPI PUSH2 0x11EF PUSH2 0x1163 JUMP JUMPDEST JUMPDEST SWAP3 SWAP2 POP POP JUMP JUMPDEST PUSH32 0x4E487B7100000000000000000000000000000000000000000000000000000000 PUSH0 MSTORE PUSH1 0x31 PUSH1 0x4 MSTORE PUSH1 0x24 PUSH0 REVERT JUMPDEST PUSH0 PUSH2 0x122D DUP3 PUSH2 0xB60 JUMP JUMPDEST SWAP2 POP PUSH0 DUP3 SUB PUSH2 0x123F JUMPI PUSH2 0x123E PUSH2 0x1163 JUMP JUMPDEST JUMPDEST PUSH1 0x1 DUP3 SUB SWAP1 POP SWAP2 SWAP1 POP JUMP INVALID LOG2 PUSH5 0x6970667358 0x22 SLT KECCAK256 SLOAD 0xB5 CODESIZE PUSH31 0x6FB9C9C16CD7496C1FBDD71C07161F0933573EA1D0EBC6F8335F27B164736F PUSH13 0x634300081E0033000000000000 "
		},
		"gasEstimates": {
			"creation": {
				"codeDepositCost": "947200",
				"executionCost": "979",
				"totalCost": "948179"
			},
			"external": {
				"addAddress(address)": "49169",
				"addAddresses(address[])": "infinite",
				"clearArray()": "infinite",
				"containsAddress(address)": "infinite",
				"getAddressAt(uint256)": "7106",
				"getAddressIndex(address)": "infinite",
				"getAddressOfBalanceSum(address[])": "infinite",
				"getAllAddresses()": "infinite",
				"getArrayLength()": "2462",
				"getContractBalance()": "379",
				"getInternalBalanceSum()": "infinite",
				"removeByAddress(address)": "infinite",
				"removeByIndex(uint256)": "infinite"
			}
		},
		"methodIdentifiers": {
			"addAddress(address)": "38eada1c",
			"addAddresses(address[])": "3628731c",
			"clearArray()": "e80b7ab6",
			"containsAddress(address)": "322433e3",
			"getAddressAt(uint256)": "5897c0db",
			"getAddressIndex(address)": "ff7e2be9",
			"getAddressOfBalanceSum(address[])": "7bf24b20",
			"getAllAddresses()": "9516a104",
			"getArrayLength()": "0849cc99",
			"getContractBalance()": "6f9fb98a",
			"getInternalBalanceSum()": "06c3fd63",
			"removeByAddress(address)": "2e96bb74",
			"removeByIndex(uint256)": "8c6fd8ec"
		}
	},
	"abi": [
		{
			"inputs": [
				{
					"internalType": "address",
					"name": "_address",
					"type": "address"
				}
			],
			"name": "addAddress",
			"outputs": [],
			"stateMutability": "nonpayable",
			"type": "function"
		},
		{
			"inputs": [
				{
					"internalType": "address[]",
					"name": "_addresses",
					"type": "address[]"
				}
			],
			"name": "addAddresses",
			"outputs": [],
			"stateMutability": "nonpayable",
			"type": "function"
		},
		{
			"inputs": [],
			"name": "clearArray",
			"outputs": [],
			"stateMutability": "nonpayable",
			"type": "function"
		},
		{
			"inputs": [
				{
					"internalType": "address",
					"name": "_address",
					"type": "address"
				}
			],
			"name": "containsAddress",
			"outputs": [
				{
					"internalType": "bool",
					"name": "",
					"type": "bool"
				}
			],
			"stateMutability": "view",
			"type": "function"
		},
		{
			"inputs": [
				{
					"internalType": "uint256",
					"name": "_index",
					"type": "uint256"
				}
			],
			"name": "getAddressAt",
			"outputs": [
				{
					"internalType": "address",
					"name": "",
					"type": "address"
				}
			],
			"stateMutability": "view",
			"type": "function"
		},
		{
			"inputs": [
				{
					"internalType": "address",
					"name": "_address",
					"type": "address"
				}
			],
			"name": "getAddressIndex",
			"outputs": [
				{
					"internalType": "uint256",
					"name": "",
					"type": "uint256"
				}
			],
			"stateMutability": "view",
			"type": "function"
		},
		{
			"inputs": [
				{
					"internalType": "address[]",
					"name": "_addresses",
					"type": "address[]"
				}
			],
			"name": "getAddressOfBalanceSum",
			"outputs": [
				{
					"internalType": "uint256",
					"name": "totalBalance",
					"type": "uint256"
				}
			],
			"stateMutability": "view",
			"type": "function"
		},
		{
			"inputs": [],
			"name": "getAllAddresses",
			"outputs": [
				{
					"internalType": "address[]",
					"name": "",
					"type": "address[]"
				}
			],
			"stateMutability": "view",
			"type": "function"
		},
		{
			"inputs": [],
			"name": "getArrayLength",
			"outputs": [
				{
					"internalType": "uint256",
					"name": "",
					"type": "uint256"
				}
			],
			"stateMutability": "view",
			"type": "function"
		},
		{
			"inputs": [],
			"name": "getContractBalance",
			"outputs": [
				{
					"internalType": "uint256",
					"name": "",
					"type": "uint256"
				}
			],
			"stateMutability": "view",
			"type": "function"
		},
		{
			"inputs": [],
			"name": "getInternalBalanceSum",
			"outputs": [
				{
					"internalType": "uint256",
					"name": "totalBalance",
					"type": "uint256"
				}
			],
			"stateMutability": "view",
			"type": "function"
		},
		{
			"inputs": [
				{
					"internalType": "address",
					"name": "_address",
					"type": "address"
				}
			],
			"name": "removeByAddress",
			"outputs": [],
			"stateMutability": "nonpayable",
			"type": "function"
		},
		{
			"inputs": [
				{
					"internalType": "uint256",
					"name": "_index",
					"type": "uint256"
				}
			],
			"name": "removeByIndex",
			"outputs": [],
			"stateMutability": "nonpayable",
			"type": "function"
		},
		{
			"stateMutability": "payable",
			"type": "receive"
		}
	]
}