{
	"data": {
		"bytecode": {
			"linkReferences": {},
			"object": "6080604052348015600e575f5ffd5b506104098061001c5f395ff3fe608060405234801561000f575f5ffd5b5060043610610034575f3560e01c8063165c4a1614610038578063f88e9fbf14610068575b5f5ffd5b610052600480360381019061004d9190610129565b610098565b60405161005f9190610176565b60405180910390f35b610082600480360381019061007d9190610129565b6100c5565b60405161008f9190610176565b60405180910390f35b5f6003600a6100a791906102eb565b82846100b39190610335565b6100bd91906103a3565b905092915050565b5f816003600a6100d591906102eb565b846100e09190610335565b6100ea91906103a3565b905092915050565b5f5ffd5b5f819050919050565b610108816100f6565b8114610112575f5ffd5b50565b5f81359050610123816100ff565b92915050565b5f5f6040838503121561013f5761013e6100f2565b5b5f61014c85828601610115565b925050602061015d85828601610115565b9150509250929050565b610170816100f6565b82525050565b5f6020820190506101895f830184610167565b92915050565b7f4e487b71000000000000000000000000000000000000000000000000000000005f52601160045260245ffd5b5f8160011c9050919050565b5f5f8291508390505b6001851115610211578086048111156101ed576101ec61018f565b5b60018516156101fc5780820291505b808102905061020a856101bc565b94506101d1565b94509492505050565b5f8261022957600190506102e4565b81610236575f90506102e4565b816001811461024c576002811461025657610285565b60019150506102e4565b60ff8411156102685761026761018f565b5b8360020a91508482111561027f5761027e61018f565b5b506102e4565b5060208310610133831016604e8410600b84101617156102ba5782820a9050838111156102b5576102b461018f565b5b6102e4565b6102c784848460016101c8565b925090508184048111156102de576102dd61018f565b5b81810290505b9392505050565b5f6102f5826100f6565b9150610300836100f6565b925061032d7fffffffffffffffffffffffffffffffffffffffffffffffffffffffffffffffff848461021a565b905092915050565b5f61033f826100f6565b915061034a836100f6565b9250828202610358816100f6565b9150828204841483151761036f5761036e61018f565b5b5092915050565b7f4e487b71000000000000000000000000000000000000000000000000000000005f52601260045260245ffd5b5f6103ad826100f6565b91506103b8836100f6565b9250826103c8576103c7610376565b5b82820490509291505056fea2646970667358221220c0a049079638f71a3ffd91df966d30c9d20fe61ca73077617a692b7b12309f1864736f6c634300081e0033",
			"opcodes": "PUSH1 0x80 PUSH1 0x40 MSTORE CALLVALUE DUP1 ISZERO PUSH1 0xE JUMPI PUSH0 PUSH0 REVERT JUMPDEST POP PUSH2 0x409 DUP1 PUSH2 0x1C PUSH0 CODECOPY PUSH0 RETURN INVALID PUSH1 0x80 PUSH1 0x40 MSTORE CALLVALUE DUP1 ISZERO PUSH2 0xF JUMPI PUSH0 PUSH0 REVERT JUMPDEST POP PUSH1 0x4 CALLDATASIZE LT PUSH2 0x34 JUMPI PUSH0 CALLDATALOAD PUSH1 0xE0 SHR DUP1 PUSH4 0x165C4A16 EQ PUSH2 0x38 JUMPI DUP1 PUSH4 0xF88E9FBF EQ PUSH2 0x68 JUMPI JUMPDEST PUSH0 PUSH0 REVERT JUMPDEST PUSH2 0x52 PUSH1 0x4 DUP1 CALLDATASIZE SUB DUP2 ADD SWAP1 PUSH2 0x4D SWAP2 SWAP1 PUSH2 0x129 JUMP JUMPDEST PUSH2 0x98 JUMP JUMPDEST PUSH1 0x40 MLOAD PUSH2 0x5F SWAP2 SWAP1 PUSH2 0x176 JUMP JUMPDEST PUSH1 0x40 MLOAD DUP1 SWAP2 SUB SWAP1 RETURN JUMPDEST PUSH2 0x82 PUSH1 0x4 DUP1 CALLDATASIZE SUB DUP2 ADD SWAP1 PUSH2 0x7D SWAP2 SWAP1 PUSH2 0x129 JUMP JUMPDEST PUSH2 0xC5 JUMP JUMPDEST PUSH1 0x40 MLOAD PUSH2 0x8F SWAP2 SWAP1 PUSH2 0x176 JUMP JUMPDEST PUSH1 0x40 MLOAD DUP1 SWAP2 SUB SWAP1 RETURN JUMPDEST PUSH0 PUSH1 0x3 PUSH1 0xA PUSH2 0xA7 SWAP2 SWAP1 PUSH2 0x2EB JUMP JUMPDEST DUP3 DUP5 PUSH2 0xB3 SWAP2 SWAP1 PUSH2 0x335 JUMP JUMPDEST PUSH2 0xBD SWAP2 SWAP1 PUSH2 0x3A3 JUMP JUMPDEST SWAP1 POP SWAP3 SWAP2 POP POP JUMP JUMPDEST PUSH0 DUP2 PUSH1 0x3 PUSH1 0xA PUSH2 0xD5 SWAP2 SWAP1 PUSH2 0x2EB JUMP JUMPDEST DUP5 PUSH2 0xE0 SWAP2 SWAP1 PUSH2 0x335 JUMP JUMPDEST PUSH2 0xEA SWAP2 SWAP1 PUSH2 0x3A3 JUMP JUMPDEST SWAP1 POP SWAP3 SWAP2 POP POP JUMP JUMPDEST PUSH0 PUSH0 REVERT JUMPDEST PUSH0 DUP2 SWAP1 POP SWAP2 SWAP1 POP JUMP JUMPDEST PUSH2 0x108 DUP2 PUSH2 0xF6 JUMP JUMPDEST DUP2 EQ PUSH2 0x112 JUMPI PUSH0 PUSH0 REVERT JUMPDEST POP JUMP JUMPDEST PUSH0 DUP2 CALLDATALOAD SWAP1 POP PUSH2 0x123 DUP2 PUSH2 0xFF JUMP JUMPDEST SWAP3 SWAP2 POP POP JUMP JUMPDEST PUSH0 PUSH0 PUSH1 0x40 DUP4 DUP6 SUB SLT ISZERO PUSH2 0x13F JUMPI PUSH2 0x13E PUSH2 0xF2 JUMP JUMPDEST JUMPDEST PUSH0 PUSH2 0x14C DUP6 DUP3 DUP7 ADD PUSH2 0x115 JUMP JUMPDEST SWAP3 POP POP PUSH1 0x20 PUSH2 0x15D DUP6 DUP3 DUP7 ADD PUSH2 0x115 JUMP JUMPDEST SWAP2 POP POP SWAP3 POP SWAP3 SWAP1 POP JUMP JUMPDEST PUSH2 0x170 DUP2 PUSH2 0xF6 JUMP JUMPDEST DUP3 MSTORE POP POP JUMP JUMPDEST PUSH0 PUSH1 0x20 DUP3 ADD SWAP1 POP PUSH2 0x189 PUSH0 DUP4 ADD DUP5 PUSH2 0x167 JUMP JUMPDEST SWAP3 SWAP2 POP POP JUMP JUMPDEST PUSH32 0x4E487B7100000000000000000000000000000000000000000000000000000000 PUSH0 MSTORE PUSH1 0x11 PUSH1 0x4 MSTORE PUSH1 0x24 PUSH0 REVERT JUMPDEST PUSH0 DUP2 PUSH1 0x1 SHR SWAP1 POP SWAP2 SWAP1 POP JUMP JUMPDEST PUSH0 PUSH0 DUP3 SWAP2 POP DUP4 SWAP1 POP JUMPDEST PUSH1 0x1 DUP6 GT ISZERO PUSH2 0x211 JUMPI DUP1 DUP7 DIV DUP2 GT ISZERO PUSH2 0x1ED JUMPI PUSH2 0x1EC PUSH2 0x18F JUMP JUMPDEST JUMPDEST PUSH1 0x1 DUP6 AND ISZERO PUSH2 0x1FC JUMPI DUP1 DUP3 MUL SWAP2 POP JUMPDEST DUP1 DUP2 MUL SWAP1 POP PUSH2 0x20A DUP6 PUSH2 0x1BC JUMP JUMPDEST SWAP5 POP PUSH2 0x1D1 JUMP JUMPDEST SWAP5 POP SWAP5 SWAP3 POP POP POP JUMP JUMPDEST PUSH0 DUP3 PUSH2 0x229 JUMPI PUSH1 0x1 SWAP1 POP PUSH2 0x2E4 JUMP JUMPDEST DUP2 PUSH2 0x236 JUMPI PUSH0 SWAP1 POP PUSH2 0x2E4 JUMP JUMPDEST DUP2 PUSH1 0x1 DUP2 EQ PUSH2 0x24C JUMPI PUSH1 0x2 DUP2 EQ PUSH2 0x256 JUMPI PUSH2 0x285 JUMP JUMPDEST PUSH1 0x1 SWAP2 POP POP PUSH2 0x2E4 JUMP JUMPDEST PUSH1 0xFF DUP5 GT ISZERO PUSH2 0x268 JUMPI PUSH2 0x267 PUSH2 0x18F JUMP JUMPDEST JUMPDEST DUP4 PUSH1 0x2 EXP SWAP2 POP DUP5 DUP3 GT ISZERO PUSH2 0x27F JUMPI PUSH2 0x27E PUSH2 0x18F JUMP JUMPDEST JUMPDEST POP PUSH2 0x2E4 JUMP JUMPDEST POP PUSH1 0x20 DUP4 LT PUSH2 0x133 DUP4 LT AND PUSH1 0x4E DUP5 LT PUSH1 0xB DUP5 LT AND OR ISZERO PUSH2 0x2BA JUMPI DUP3 DUP3 EXP SWAP1 POP DUP4 DUP2 GT ISZERO PUSH2 0x2B5 JUMPI PUSH2 0x2B4 PUSH2 0x18F JUMP JUMPDEST JUMPDEST PUSH2 0x2E4 JUMP JUMPDEST PUSH2 0x2C7 DUP5 DUP5 DUP5 PUSH1 0x1 PUSH2 0x1C8 JUMP JUMPDEST SWAP3 POP SWAP1 POP DUP2 DUP5 DIV DUP2 GT ISZERO PUSH2 0x2DE JUMPI PUSH2 0x2DD PUSH2 0x18F JUMP JUMPDEST JUMPDEST DUP2 DUP2 MUL SWAP1 POP JUMPDEST SWAP4 SWAP3 POP POP POP JUMP JUMPDEST PUSH0 PUSH2 0x2F5 DUP3 PUSH2 0xF6 JUMP JUMPDEST SWAP2 POP PUSH2 0x300 DUP4 PUSH2 0xF6 JUMP JUMPDEST SWAP3 POP PUSH2 0x32D PUSH32 0xFFFFFFFFFFFFFFFFFFFFFFFFFFFFFFFFFFFFFFFFFFFFFFFFFFFFFFFFFFFFFFFF DUP5 DUP5 PUSH2 0x21A JUMP JUMPDEST SWAP1 POP SWAP3 SWAP2 POP POP JUMP JUMPDEST PUSH0 PUSH2 0x33F DUP3 PUSH2 0xF6 JUMP JUMPDEST SWAP2 POP PUSH2 0x34A DUP4 PUSH2 0xF6 JUMP JUMPDEST SWAP3 POP DUP3 DUP3 MUL PUSH2 0x358 DUP2 PUSH2 0xF6 JUMP JUMPDEST SWAP2 POP DUP3 DUP3 DIV DUP5 EQ DUP4 ISZERO OR PUSH2 0x36F JUMPI PUSH2 0x36E PUSH2 0x18F JUMP JUMPDEST JUMPDEST POP SWAP3 SWAP2 POP POP JUMP JUMPDEST PUSH32 0x4E487B7100000000000000000000000000000000000000000000000000000000 PUSH0 MSTORE PUSH1 0x12 PUSH1 0x4 MSTORE PUSH1 0x24 PUSH0 REVERT JUMPDEST PUSH0 PUSH2 0x3AD DUP3 PUSH2 0xF6 JUMP JUMPDEST SWAP2 POP PUSH2 0x3B8 DUP4 PUSH2 0xF6 JUMP JUMPDEST SWAP3 POP DUP3 PUSH2 0x3C8 JUMPI PUSH2 0x3C7 PUSH2 0x376 JUMP JUMPDEST JUMPDEST DUP3 DUP3 DIV SWAP1 POP SWAP3 SWAP2 POP POP JUMP INVALID LOG2 PUSH5 0x6970667358 0x22 SLT KECCAK256 0xC0 LOG0 BLOBHASH SMOD SWAP7 CODESIZE 0xF7 BYTE EXTCODEHASH REVERT SWAP2 0xDF SWAP7 PUSH14 0x30C9D20FE61CA73077617A692B7B SLT ADDRESS SWAP16 XOR PUSH5 0x736F6C6343 STOP ADDMOD 0x1E STOP CALLER "
		},
		"gasEstimates": {
			"creation": {
				"codeDepositCost": "206600",
				"executionCost": "249",
				"totalCost": "206849"
			},
			"external": {
				"divide(uint256,uint256)": "infinite",
				"multiply(uint256,uint256)": "infinite"
			}
		},
		"methodIdentifiers": {
			"divide(uint256,uint256)": "f88e9fbf",
			"multiply(uint256,uint256)": "165c4a16"
		}
	},
	"abi": [
		{
			"inputs": [
				{
					"internalType": "uint256",
					"name": "a",
					"type": "uint256"
				},
				{
					"internalType": "uint256",
					"name": "b",
					"type": "uint256"
				}
			],
			"name": "divide",
			"outputs": [
				{
					"internalType": "uint256",
					"name": "",
					"type": "uint256"
				}
			],
			"stateMutability": "pure",
			"type": "function"
		},
		{
			"inputs": [
				{
					"internalType": "uint256",
					"name": "a",
					"type": "uint256"
				},
				{
					"internalType": "uint256",
					"name": "b",
					"type": "uint256"
				}
			],
			"name": "multiply",
			"outputs": [
				{
					"internalType": "uint256",
					"name": "",
					"type": "uint256"
				}
			],
			"stateMutability": "pure",
			"type": "function"
		}
	]
}