{
	"data": {
		"bytecode": {
			"linkReferences": {},
			"object": "608060405234801561000f575f5ffd5b5060405180610140016040528060405180602001604052805f81525081526020016040518060400160405280600181526020017f490000000000000000000000000000000000000000000000000000000000000081525081526020016040518060400160405280600281526020017f494900000000000000000000000000000000000000000000000000000000000081525081526020016040518060400160405280600381526020017f494949000000000000000000000000000000000000000000000000000000000081525081526020016040518060400160405280600281526020017f495600000000000000000000000000000000000000000000000000000000000081525081526020016040518060400160405280600181526020017f560000000000000000000000000000000000000000000000000000000000000081525081526020016040518060400160405280600281526020017f564900000000000000000000000000000000000000000000000000000000000081525081526020016040518060400160405280600381526020017f564949000000000000000000000000000000000000000000000000000000000081525081526020016040518060400160405280600481526020017f564949490000000000000000000000000000000000000000000000000000000081525081526020016040518060400160405280600281526020017f49580000000000000000000000000000000000000000000000000000000000008152508152505f90600a6102509291906107b9565b5060405180610140016040528060405180602001604052805f81525081526020016040518060400160405280600181526020017f580000000000000000000000000000000000000000000000000000000000000081525081526020016040518060400160405280600281526020017f585800000000000000000000000000000000000000000000000000000000000081525081526020016040518060400160405280600381526020017f585858000000000000000000000000000000000000000000000000000000000081525081526020016040518060400160405280600281526020017f584c00000000000000000000000000000000000000000000000000000000000081525081526020016040518060400160405280600181526020017f4c0000000000000000000000000000000000000000000000000000000000000081525081526020016040518060400160405280600281526020017f4c5800000000000000000000000000000000000000000000000000000000000081525081526020016040518060400160405280600381526020017f4c5858000000000000000000000000000000000000000000000000000000000081525081526020016040518060400160405280600481526020017f4c5858580000000000000000000000000000000000000000000000000000000081525081526020016040518060400160405280600281526020017f5843000000000000000000000000000000000000000000000000000000000000815250815250600a90600a6104929291906107b9565b5060405180610140016040528060405180602001604052805f81525081526020016040518060400160405280600181526020017f430000000000000000000000000000000000000000000000000000000000000081525081526020016040518060400160405280600281526020017f434300000000000000000000000000000000000000000000000000000000000081525081526020016040518060400160405280600381526020017f434343000000000000000000000000000000000000000000000000000000000081525081526020016040518060400160405280600281526020017f434400000000000000000000000000000000000000000000000000000000000081525081526020016040518060400160405280600181526020017f440000000000000000000000000000000000000000000000000000000000000081525081526020016040518060400160405280600281526020017f444300000000000000000000000000000000000000000000000000000000000081525081526020016040518060400160405280600381526020017f444343000000000000000000000000000000000000000000000000000000000081525081526020016040518060400160405280600481526020017f444343430000000000000000000000000000000000000000000000000000000081525081526020016040518060400160405280600281526020017f434d000000000000000000000000000000000000000000000000000000000000815250815250601490600a6106d49291906107b9565b50604051806080016040528060405180602001604052805f81525081526020016040518060400160405280600181526020017f4d0000000000000000000000000000000000000000000000000000000000000081525081526020016040518060400160405280600281526020017f4d4d00000000000000000000000000000000000000000000000000000000000081525081526020016040518060400160405280600381526020017f4d4d4d0000000000000000000000000000000000000000000000000000000000815250815250601e9060046107b3929190610805565b50610bd8565b82600a81019282156107f4579160200282015b828111156107f35782518290816107e39190610b09565b50916020019190600101906107cc565b5b5090506108019190610851565b5090565b8260048101928215610840579160200282015b8281111561083f57825182908161082f9190610b09565b5091602001919060010190610818565b5b50905061084d9190610851565b5090565b5b80821115610870575f81816108679190610874565b50600101610852565b5090565b50805461088090610930565b5f825580601f1061089157506108ae565b601f0160209004905f5260205f20908101906108ad91906108b1565b5b50565b5b808211156108c8575f815f9055506001016108b2565b5090565b5f81519050919050565b7f4e487b71000000000000000000000000000000000000000000000000000000005f52604160045260245ffd5b7f4e487b71000000000000000000000000000000000000000000000000000000005f52602260045260245ffd5b5f600282049050600182168061094757607f821691505b60208210810361095a57610959610903565b5b50919050565b5f819050815f5260205f209050919050565b5f6020601f8301049050919050565b5f82821b905092915050565b5f600883026109bc7fffffffffffffffffffffffffffffffffffffffffffffffffffffffffffffffff82610981565b6109c68683610981565b95508019841693508086168417925050509392505050565b5f819050919050565b5f819050919050565b5f610a0a610a05610a00846109de565b6109e7565b6109de565b9050919050565b5f819050919050565b610a23836109f0565b610a37610a2f82610a11565b84845461098d565b825550505050565b5f5f905090565b610a4e610a3f565b610a59818484610a1a565b505050565b5b81811015610a7c57610a715f82610a46565b600181019050610a5f565b5050565b601f821115610ac157610a9281610960565b610a9b84610972565b81016020851015610aaa578190505b610abe610ab685610972565b830182610a5e565b50505b505050565b5f82821c905092915050565b5f610ae15f1984600802610ac6565b1980831691505092915050565b5f610af98383610ad2565b9150826002028217905092915050565b610b12826108cc565b67ffffffffffffffff811115610b2b57610b2a6108d6565b5b610b358254610930565b610b40828285610a80565b5f60209050601f831160018114610b71575f8415610b5f578287015190505b610b698582610aee565b865550610bd0565b601f198416610b7f86610960565b5f5b82811015610ba657848901518255600182019150602085019450602081019050610b81565b86831015610bc35784890151610bbf601f891682610ad2565b8355505b6001600288020188555050505b505050505050565b61050b80610be55f395ff3fe608060405234801561000f575f5ffd5b5060043610610029575f3560e01c8063d589df841461002d575b5f5ffd5b610047600480360381019061004291906101a8565b61005d565b604051610054919061025d565b60405180910390f35b60605f8211801561006f5750610fa082105b6100ae576040517f08c379a00000000000000000000000000000000000000000000000000000000081526004016100a5906102c7565b60405180910390fd5b601e6103e8836100be9190610312565b600481106100cf576100ce610342565b5b016014600a6064856100e19190610312565b6100eb919061036f565b600a81106100fc576100fb610342565b5b01600a80808661010c9190610312565b610116919061036f565b600a811061012757610126610342565b5b015f600a86610136919061036f565b600a811061014757610146610342565b5b0160405160200161015b9493929190610498565b6040516020818303038152906040529050919050565b5f5ffd5b5f819050919050565b61018781610175565b8114610191575f5ffd5b50565b5f813590506101a28161017e565b92915050565b5f602082840312156101bd576101bc610171565b5b5f6101ca84828501610194565b91505092915050565b5f81519050919050565b5f82825260208201905092915050565b5f5b8381101561020a5780820151818401526020810190506101ef565b5f8484015250505050565b5f601f19601f8301169050919050565b5f61022f826101d3565b61023981856101dd565b93506102498185602086016101ed565b61025281610215565b840191505092915050565b5f6020820190508181035f8301526102758184610225565b905092915050565b7f6f7574206f662072616e676500000000000000000000000000000000000000005f82015250565b5f6102b1600c836101dd565b91506102bc8261027d565b602082019050919050565b5f6020820190508181035f8301526102de816102a5565b9050919050565b7f4e487b71000000000000000000000000000000000000000000000000000000005f52601260045260245ffd5b5f61031c82610175565b915061032783610175565b925082610337576103366102e5565b5b828204905092915050565b7f4e487b71000000000000000000000000000000000000000000000000000000005f52603260045260245ffd5b5f61037982610175565b915061038483610175565b925082610394576103936102e5565b5b828206905092915050565b7f4e487b71000000000000000000000000000000000000000000000000000000005f52602260045260245ffd5b5f60028204905060018216806103e357607f821691505b6020821081036103f6576103f561039f565b5b50919050565b5f81905092915050565b5f819050815f5260205f209050919050565b5f8154610424816103cc565b61042e81866103fc565b9450600182165f8114610448576001811461045d5761048f565b60ff198316865281151582028601935061048f565b61046685610406565b5f5b8381101561048757815481890152600182019150602081019050610468565b838801955050505b50505092915050565b5f6104a38287610418565b91506104af8286610418565b91506104bb8285610418565b91506104c78284610418565b91508190509594505050505056fea2646970667358221220605e3e6004e8ca54f241b60263357ad3fecf06514b0803dc1f9137332e3e444464736f6c634300081e0033",
			"opcodes": "PUSH1 0x80 PUSH1 0x40 MSTORE CALLVALUE DUP1 ISZERO PUSH2 0xF JUMPI PUSH0 PUSH0 REVERT JUMPDEST POP PUSH1 0x40 MLOAD DUP1 PUSH2 0x140 ADD PUSH1 0x40 MSTORE DUP1 PUSH1 0x40 MLOAD DUP1 PUSH1 0x20 ADD PUSH1 0x40 MSTORE DUP1 PUSH0 DUP2 MSTORE POP DUP2 MSTORE PUSH1 0x20 ADD PUSH1 0x40 MLOAD DUP1 PUSH1 0x40 ADD PUSH1 0x40 MSTORE DUP1 PUSH1 0x1 DUP2 MSTORE PUSH1 0x20 ADD PUSH32 0x4900000000000000000000000000000000000000000000000000000000000000 DUP2 MSTORE POP DUP2 MSTORE PUSH1 0x20 ADD PUSH1 0x40 MLOAD DUP1 PUSH1 0x40 ADD PUSH1 0x40 MSTORE DUP1 PUSH1 0x2 DUP2 MSTORE PUSH1 0x20 ADD PUSH32 0x4949000000000000000000000000000000000000000000000000000000000000 DUP2 MSTORE POP DUP2 MSTORE PUSH1 0x20 ADD PUSH1 0x40 MLOAD DUP1 PUSH1 0x40 ADD PUSH1 0x40 MSTORE DUP1 PUSH1 0x3 DUP2 MSTORE PUSH1 0x20 ADD PUSH32 0x4949490000000000000000000000000000000000000000000000000000000000 DUP2 MSTORE POP DUP2 MSTORE PUSH1 0x20 ADD PUSH1 0x40 MLOAD DUP1 PUSH1 0x40 ADD PUSH1 0x40 MSTORE DUP1 PUSH1 0x2 DUP2 MSTORE PUSH1 0x20 ADD PUSH32 0x4956000000000000000000000000000000000000000000000000000000000000 DUP2 MSTORE POP DUP2 MSTORE PUSH1 0x20 ADD PUSH1 0x40 MLOAD DUP1 PUSH1 0x40 ADD PUSH1 0x40 MSTORE DUP1 PUSH1 0x1 DUP2 MSTORE PUSH1 0x20 ADD PUSH32 0x5600000000000000000000000000000000000000000000000000000000000000 DUP2 MSTORE POP DUP2 MSTORE PUSH1 0x20 ADD PUSH1 0x40 MLOAD DUP1 PUSH1 0x40 ADD PUSH1 0x40 MSTORE DUP1 PUSH1 0x2 DUP2 MSTORE PUSH1 0x20 ADD PUSH32 0x5649000000000000000000000000000000000000000000000000000000000000 DUP2 MSTORE POP DUP2 MSTORE PUSH1 0x20 ADD PUSH1 0x40 MLOAD DUP1 PUSH1 0x40 ADD PUSH1 0x40 MSTORE DUP1 PUSH1 0x3 DUP2 MSTORE PUSH1 0x20 ADD PUSH32 0x5649490000000000000000000000000000000000000000000000000000000000 DUP2 MSTORE POP DUP2 MSTORE PUSH1 0x20 ADD PUSH1 0x40 MLOAD DUP1 PUSH1 0x40 ADD PUSH1 0x40 MSTORE DUP1 PUSH1 0x4 DUP2 MSTORE PUSH1 0x20 ADD PUSH32 0x5649494900000000000000000000000000000000000000000000000000000000 DUP2 MSTORE POP DUP2 MSTORE PUSH1 0x20 ADD PUSH1 0x40 MLOAD DUP1 PUSH1 0x40 ADD PUSH1 0x40 MSTORE DUP1 PUSH1 0x2 DUP2 MSTORE PUSH1 0x20 ADD PUSH32 0x4958000000000000000000000000000000000000000000000000000000000000 DUP2 MSTORE POP DUP2 MSTORE POP PUSH0 SWAP1 PUSH1 0xA PUSH2 0x250 SWAP3 SWAP2 SWAP1 PUSH2 0x7B9 JUMP JUMPDEST POP PUSH1 0x40 MLOAD DUP1 PUSH2 0x140 ADD PUSH1 0x40 MSTORE DUP1 PUSH1 0x40 MLOAD DUP1 PUSH1 0x20 ADD PUSH1 0x40 MSTORE DUP1 PUSH0 DUP2 MSTORE POP DUP2 MSTORE PUSH1 0x20 ADD PUSH1 0x40 MLOAD DUP1 PUSH1 0x40 ADD PUSH1 0x40 MSTORE DUP1 PUSH1 0x1 DUP2 MSTORE PUSH1 0x20 ADD PUSH32 0x5800000000000000000000000000000000000000000000000000000000000000 DUP2 MSTORE POP DUP2 MSTORE PUSH1 0x20 ADD PUSH1 0x40 MLOAD DUP1 PUSH1 0x40 ADD PUSH1 0x40 MSTORE DUP1 PUSH1 0x2 DUP2 MSTORE PUSH1 0x20 ADD PUSH32 0x5858000000000000000000000000000000000000000000000000000000000000 DUP2 MSTORE POP DUP2 MSTORE PUSH1 0x20 ADD PUSH1 0x40 MLOAD DUP1 PUSH1 0x40 ADD PUSH1 0x40 MSTORE DUP1 PUSH1 0x3 DUP2 MSTORE PUSH1 0x20 ADD PUSH32 0x5858580000000000000000000000000000000000000000000000000000000000 DUP2 MSTORE POP DUP2 MSTORE PUSH1 0x20 ADD PUSH1 0x40 MLOAD DUP1 PUSH1 0x40 ADD PUSH1 0x40 MSTORE DUP1 PUSH1 0x2 DUP2 MSTORE PUSH1 0x20 ADD PUSH32 0x584C000000000000000000000000000000000000000000000000000000000000 DUP2 MSTORE POP DUP2 MSTORE PUSH1 0x20 ADD PUSH1 0x40 MLOAD DUP1 PUSH1 0x40 ADD PUSH1 0x40 MSTORE DUP1 PUSH1 0x1 DUP2 MSTORE PUSH1 0x20 ADD PUSH32 0x4C00000000000000000000000000000000000000000000000000000000000000 DUP2 MSTORE POP DUP2 MSTORE PUSH1 0x20 ADD PUSH1 0x40 MLOAD DUP1 PUSH1 0x40 ADD PUSH1 0x40 MSTORE DUP1 PUSH1 0x2 DUP2 MSTORE PUSH1 0x20 ADD PUSH32 0x4C58000000000000000000000000000000000000000000000000000000000000 DUP2 MSTORE POP DUP2 MSTORE PUSH1 0x20 ADD PUSH1 0x40 MLOAD DUP1 PUSH1 0x40 ADD PUSH1 0x40 MSTORE DUP1 PUSH1 0x3 DUP2 MSTORE PUSH1 0x20 ADD PUSH32 0x4C58580000000000000000000000000000000000000000000000000000000000 DUP2 MSTORE POP DUP2 MSTORE PUSH1 0x20 ADD PUSH1 0x40 MLOAD DUP1 PUSH1 0x40 ADD PUSH1 0x40 MSTORE DUP1 PUSH1 0x4 DUP2 MSTORE PUSH1 0x20 ADD PUSH32 0x4C58585800000000000000000000000000000000000000000000000000000000 DUP2 MSTORE POP DUP2 MSTORE PUSH1 0x20 ADD PUSH1 0x40 MLOAD DUP1 PUSH1 0x40 ADD PUSH1 0x40 MSTORE DUP1 PUSH1 0x2 DUP2 MSTORE PUSH1 0x20 ADD PUSH32 0x5843000000000000000000000000000000000000000000000000000000000000 DUP2 MSTORE POP DUP2 MSTORE POP PUSH1 0xA SWAP1 PUSH1 0xA PUSH2 0x492 SWAP3 SWAP2 SWAP1 PUSH2 0x7B9 JUMP JUMPDEST POP PUSH1 0x40 MLOAD DUP1 PUSH2 0x140 ADD PUSH1 0x40 MSTORE DUP1 PUSH1 0x40 MLOAD DUP1 PUSH1 0x20 ADD PUSH1 0x40 MSTORE DUP1 PUSH0 DUP2 MSTORE POP DUP2 MSTORE PUSH1 0x20 ADD PUSH1 0x40 MLOAD DUP1 PUSH1 0x40 ADD PUSH1 0x40 MSTORE DUP1 PUSH1 0x1 DUP2 MSTORE PUSH1 0x20 ADD PUSH32 0x4300000000000000000000000000000000000000000000000000000000000000 DUP2 MSTORE POP DUP2 MSTORE PUSH1 0x20 ADD PUSH1 0x40 MLOAD DUP1 PUSH1 0x40 ADD PUSH1 0x40 MSTORE DUP1 PUSH1 0x2 DUP2 MSTORE PUSH1 0x20 ADD PUSH32 0x4343000000000000000000000000000000000000000000000000000000000000 DUP2 MSTORE POP DUP2 MSTORE PUSH1 0x20 ADD PUSH1 0x40 MLOAD DUP1 PUSH1 0x40 ADD PUSH1 0x40 MSTORE DUP1 PUSH1 0x3 DUP2 MSTORE PUSH1 0x20 ADD PUSH32 0x4343430000000000000000000000000000000000000000000000000000000000 DUP2 MSTORE POP DUP2 MSTORE PUSH1 0x20 ADD PUSH1 0x40 MLOAD DUP1 PUSH1 0x40 ADD PUSH1 0x40 MSTORE DUP1 PUSH1 0x2 DUP2 MSTORE PUSH1 0x20 ADD PUSH32 0x4344000000000000000000000000000000000000000000000000000000000000 DUP2 MSTORE POP DUP2 MSTORE PUSH1 0x20 ADD PUSH1 0x40 MLOAD DUP1 PUSH1 0x40 ADD PUSH1 0x40 MSTORE DUP1 PUSH1 0x1 DUP2 MSTORE PUSH1 0x20 ADD PUSH32 0x4400000000000000000000000000000000000000000000000000000000000000 DUP2 MSTORE POP DUP2 MSTORE PUSH1 0x20 ADD PUSH1 0x40 MLOAD DUP1 PUSH1 0x40 ADD PUSH1 0x40 MSTORE DUP1 PUSH1 0x2 DUP2 MSTORE PUSH1 0x20 ADD PUSH32 0x4443000000000000000000000000000000000000000000000000000000000000 DUP2 MSTORE POP DUP2 MSTORE PUSH1 0x20 ADD PUSH1 0x40 MLOAD DUP1 PUSH1 0x40 ADD PUSH1 0x40 MSTORE DUP1 PUSH1 0x3 DUP2 MSTORE PUSH1 0x20 ADD PUSH32 0x4443430000000000000000000000000000000000000000000000000000000000 DUP2 MSTORE POP DUP2 MSTORE PUSH1 0x20 ADD PUSH1 0x40 MLOAD DUP1 PUSH1 0x40 ADD PUSH1 0x40 MSTORE DUP1 PUSH1 0x4 DUP2 MSTORE PUSH1 0x20 ADD PUSH32 0x4443434300000000000000000000000000000000000000000000000000000000 DUP2 MSTORE POP DUP2 MSTORE PUSH1 0x20 ADD PUSH1 0x40 MLOAD DUP1 PUSH1 0x40 ADD PUSH1 0x40 MSTORE DUP1 PUSH1 0x2 DUP2 MSTORE PUSH1 0x20 ADD PUSH32 0x434D000000000000000000000000000000000000000000000000000000000000 DUP2 MSTORE POP DUP2 MSTORE POP PUSH1 0x14 SWAP1 PUSH1 0xA PUSH2 0x6D4 SWAP3 SWAP2 SWAP1 PUSH2 0x7B9 JUMP JUMPDEST POP PUSH1 0x40 MLOAD DUP1 PUSH1 0x80 ADD PUSH1 0x40 MSTORE DUP1 PUSH1 0x40 MLOAD DUP1 PUSH1 0x20 ADD PUSH1 0x40 MSTORE DUP1 PUSH0 DUP2 MSTORE POP DUP2 MSTORE PUSH1 0x20 ADD PUSH1 0x40 MLOAD DUP1 PUSH1 0x40 ADD PUSH1 0x40 MSTORE DUP1 PUSH1 0x1 DUP2 MSTORE PUSH1 0x20 ADD PUSH32 0x4D00000000000000000000000000000000000000000000000000000000000000 DUP2 MSTORE POP DUP2 MSTORE PUSH1 0x20 ADD PUSH1 0x40 MLOAD DUP1 PUSH1 0x40 ADD PUSH1 0x40 MSTORE DUP1 PUSH1 0x2 DUP2 MSTORE PUSH1 0x20 ADD PUSH32 0x4D4D000000000000000000000000000000000000000000000000000000000000 DUP2 MSTORE POP DUP2 MSTORE PUSH1 0x20 ADD PUSH1 0x40 MLOAD DUP1 PUSH1 0x40 ADD PUSH1 0x40 MSTORE DUP1 PUSH1 0x3 DUP2 MSTORE PUSH1 0x20 ADD PUSH32 0x4D4D4D0000000000000000000000000000000000000000000000000000000000 DUP2 MSTORE POP DUP2 MSTORE POP PUSH1 0x1E SWAP1 PUSH1 0x4 PUSH2 0x7B3 SWAP3 SWAP2 SWAP1 PUSH2 0x805 JUMP JUMPDEST POP PUSH2 0xBD8 JUMP JUMPDEST DUP3 PUSH1 0xA DUP2 ADD SWAP3 DUP3 ISZERO PUSH2 0x7F4 JUMPI SWAP2 PUSH1 0x20 MUL DUP3 ADD JUMPDEST DUP3 DUP2 GT ISZERO PUSH2 0x7F3 JUMPI DUP3 MLOAD DUP3 SWAP1 DUP2 PUSH2 0x7E3 SWAP2 SWAP1 PUSH2 0xB09 JUMP JUMPDEST POP SWAP2 PUSH1 0x20 ADD SWAP2 SWAP1 PUSH1 0x1 ADD SWAP1 PUSH2 0x7CC JUMP JUMPDEST JUMPDEST POP SWAP1 POP PUSH2 0x801 SWAP2 SWAP1 PUSH2 0x851 JUMP JUMPDEST POP SWAP1 JUMP JUMPDEST DUP3 PUSH1 0x4 DUP2 ADD SWAP3 DUP3 ISZERO PUSH2 0x840 JUMPI SWAP2 PUSH1 0x20 MUL DUP3 ADD JUMPDEST DUP3 DUP2 GT ISZERO PUSH2 0x83F JUMPI DUP3 MLOAD DUP3 SWAP1 DUP2 PUSH2 0x82F SWAP2 SWAP1 PUSH2 0xB09 JUMP JUMPDEST POP SWAP2 PUSH1 0x20 ADD SWAP2 SWAP1 PUSH1 0x1 ADD SWAP1 PUSH2 0x818 JUMP JUMPDEST JUMPDEST POP SWAP1 POP PUSH2 0x84D SWAP2 SWAP1 PUSH2 0x851 JUMP JUMPDEST POP SWAP1 JUMP JUMPDEST JUMPDEST DUP1 DUP3 GT ISZERO PUSH2 0x870 JUMPI PUSH0 DUP2 DUP2 PUSH2 0x867 SWAP2 SWAP1 PUSH2 0x874 JUMP JUMPDEST POP PUSH1 0x1 ADD PUSH2 0x852 JUMP JUMPDEST POP SWAP1 JUMP JUMPDEST POP DUP1 SLOAD PUSH2 0x880 SWAP1 PUSH2 0x930 JUMP JUMPDEST PUSH0 DUP3 SSTORE DUP1 PUSH1 0x1F LT PUSH2 0x891 JUMPI POP PUSH2 0x8AE JUMP JUMPDEST PUSH1 0x1F ADD PUSH1 0x20 SWAP1 DIV SWAP1 PUSH0 MSTORE PUSH1 0x20 PUSH0 KECCAK256 SWAP1 DUP2 ADD SWAP1 PUSH2 0x8AD SWAP2 SWAP1 PUSH2 0x8B1 JUMP JUMPDEST JUMPDEST POP JUMP JUMPDEST JUMPDEST DUP1 DUP3 GT ISZERO PUSH2 0x8C8 JUMPI PUSH0 DUP2 PUSH0 SWAP1 SSTORE POP PUSH1 0x1 ADD PUSH2 0x8B2 JUMP JUMPDEST POP SWAP1 JUMP JUMPDEST PUSH0 DUP2 MLOAD SWAP1 POP SWAP2 SWAP1 POP JUMP JUMPDEST PUSH32 0x4E487B7100000000000000000000000000000000000000000000000000000000 PUSH0 MSTORE PUSH1 0x41 PUSH1 0x4 MSTORE PUSH1 0x24 PUSH0 REVERT JUMPDEST PUSH32 0x4E487B7100000000000000000000000000000000000000000000000000000000 PUSH0 MSTORE PUSH1 0x22 PUSH1 0x4 MSTORE PUSH1 0x24 PUSH0 REVERT JUMPDEST PUSH0 PUSH1 0x2 DUP3 DIV SWAP1 POP PUSH1 0x1 DUP3 AND DUP1 PUSH2 0x947 JUMPI PUSH1 0x7F DUP3 AND SWAP2 POP JUMPDEST PUSH1 0x20 DUP3 LT DUP2 SUB PUSH2 0x95A JUMPI PUSH2 0x959 PUSH2 0x903 JUMP JUMPDEST JUMPDEST POP SWAP2 SWAP1 POP JUMP JUMPDEST PUSH0 DUP2 SWAP1 POP DUP2 PUSH0 MSTORE PUSH1 0x20 PUSH0 KECCAK256 SWAP1 POP SWAP2 SWAP1 POP JUMP JUMPDEST PUSH0 PUSH1 0x20 PUSH1 0x1F DUP4 ADD DIV SWAP1 POP SWAP2 SWAP1 POP JUMP JUMPDEST PUSH0 DUP3 DUP3 SHL SWAP1 POP SWAP3 SWAP2 POP POP JUMP JUMPDEST PUSH0 PUSH1 0x8 DUP4 MUL PUSH2 0x9BC PUSH32 0xFFFFFFFFFFFFFFFFFFFFFFFFFFFFFFFFFFFFFFFFFFFFFFFFFFFFFFFFFFFFFFFF DUP3 PUSH2 0x981 JUMP JUMPDEST PUSH2 0x9C6 DUP7 DUP4 PUSH2 0x981 JUMP JUMPDEST SWAP6 POP DUP1 NOT DUP5 AND SWAP4 POP DUP1 DUP7 AND DUP5 OR SWAP3 POP POP POP SWAP4 SWAP3 POP POP POP JUMP JUMPDEST PUSH0 DUP2 SWAP1 POP SWAP2 SWAP1 POP JUMP JUMPDEST PUSH0 DUP2 SWAP1 POP SWAP2 SWAP1 POP JUMP JUMPDEST PUSH0 PUSH2 0xA0A PUSH2 0xA05 PUSH2 0xA00 DUP5 PUSH2 0x9DE JUMP JUMPDEST PUSH2 0x9E7 JUMP JUMPDEST PUSH2 0x9DE JUMP JUMPDEST SWAP1 POP SWAP2 SWAP1 POP JUMP JUMPDEST PUSH0 DUP2 SWAP1 POP SWAP2 SWAP1 POP JUMP JUMPDEST PUSH2 0xA23 DUP4 PUSH2 0x9F0 JUMP JUMPDEST PUSH2 0xA37 PUSH2 0xA2F DUP3 PUSH2 0xA11 JUMP JUMPDEST DUP5 DUP5 SLOAD PUSH2 0x98D JUMP JUMPDEST DUP3 SSTORE POP POP POP POP JUMP JUMPDEST PUSH0 PUSH0 SWAP1 POP SWAP1 JUMP JUMPDEST PUSH2 0xA4E PUSH2 0xA3F JUMP JUMPDEST PUSH2 0xA59 DUP2 DUP5 DUP5 PUSH2 0xA1A JUMP JUMPDEST POP POP POP JUMP JUMPDEST JUMPDEST DUP2 DUP2 LT ISZERO PUSH2 0xA7C JUMPI PUSH2 0xA71 PUSH0 DUP3 PUSH2 0xA46 JUMP JUMPDEST PUSH1 0x1 DUP2 ADD SWAP1 POP PUSH2 0xA5F JUMP JUMPDEST POP POP JUMP JUMPDEST PUSH1 0x1F DUP3 GT ISZERO PUSH2 0xAC1 JUMPI PUSH2 0xA92 DUP2 PUSH2 0x960 JUMP JUMPDEST PUSH2 0xA9B DUP5 PUSH2 0x972 JUMP JUMPDEST DUP2 ADD PUSH1 0x20 DUP6 LT ISZERO PUSH2 0xAAA JUMPI DUP2 SWAP1 POP JUMPDEST PUSH2 0xABE PUSH2 0xAB6 DUP6 PUSH2 0x972 JUMP JUMPDEST DUP4 ADD DUP3 PUSH2 0xA5E JUMP JUMPDEST POP POP JUMPDEST POP POP POP JUMP JUMPDEST PUSH0 DUP3 DUP3 SHR SWAP1 POP SWAP3 SWAP2 POP POP JUMP JUMPDEST PUSH0 PUSH2 0xAE1 PUSH0 NOT DUP5 PUSH1 0x8 MUL PUSH2 0xAC6 JUMP JUMPDEST NOT DUP1 DUP4 AND SWAP2 POP POP SWAP3 SWAP2 POP POP JUMP JUMPDEST PUSH0 PUSH2 0xAF9 DUP4 DUP4 PUSH2 0xAD2 JUMP JUMPDEST SWAP2 POP DUP3 PUSH1 0x2 MUL DUP3 OR SWAP1 POP SWAP3 SWAP2 POP POP JUMP JUMPDEST PUSH2 0xB12 DUP3 PUSH2 0x8CC JUMP JUMPDEST PUSH8 0xFFFFFFFFFFFFFFFF DUP2 GT ISZERO PUSH2 0xB2B JUMPI PUSH2 0xB2A PUSH2 0x8D6 JUMP JUMPDEST JUMPDEST PUSH2 0xB35 DUP3 SLOAD PUSH2 0x930 JUMP JUMPDEST PUSH2 0xB40 DUP3 DUP3 DUP6 PUSH2 0xA80 JUMP JUMPDEST PUSH0 PUSH1 0x20 SWAP1 POP PUSH1 0x1F DUP4 GT PUSH1 0x1 DUP2 EQ PUSH2 0xB71 JUMPI PUSH0 DUP5 ISZERO PUSH2 0xB5F JUMPI DUP3 DUP8 ADD MLOAD SWAP1 POP JUMPDEST PUSH2 0xB69 DUP6 DUP3 PUSH2 0xAEE JUMP JUMPDEST DUP7 SSTORE POP PUSH2 0xBD0 JUMP JUMPDEST PUSH1 0x1F NOT DUP5 AND PUSH2 0xB7F DUP7 PUSH2 0x960 JUMP JUMPDEST PUSH0 JUMPDEST DUP3 DUP2 LT ISZERO PUSH2 0xBA6 JUMPI DUP5 DUP10 ADD MLOAD DUP3 SSTORE PUSH1 0x1 DUP3 ADD SWAP2 POP PUSH1 0x20 DUP6 ADD SWAP5 POP PUSH1 0x20 DUP2 ADD SWAP1 POP PUSH2 0xB81 JUMP JUMPDEST DUP7 DUP4 LT ISZERO PUSH2 0xBC3 JUMPI DUP5 DUP10 ADD MLOAD PUSH2 0xBBF PUSH1 0x1F DUP10 AND DUP3 PUSH2 0xAD2 JUMP JUMPDEST DUP4 SSTORE POP JUMPDEST PUSH1 0x1 PUSH1 0x2 DUP9 MUL ADD DUP9 SSTORE POP POP POP JUMPDEST POP POP POP POP POP POP JUMP JUMPDEST PUSH2 0x50B DUP1 PUSH2 0xBE5 PUSH0 CODECOPY PUSH0 RETURN INVALID PUSH1 0x80 PUSH1 0x40 MSTORE CALLVALUE DUP1 ISZERO PUSH2 0xF JUMPI PUSH0 PUSH0 REVERT JUMPDEST POP PUSH1 0x4 CALLDATASIZE LT PUSH2 0x29 JUMPI PUSH0 CALLDATALOAD PUSH1 0xE0 SHR DUP1 PUSH4 0xD589DF84 EQ PUSH2 0x2D JUMPI JUMPDEST PUSH0 PUSH0 REVERT JUMPDEST PUSH2 0x47 PUSH1 0x4 DUP1 CALLDATASIZE SUB DUP2 ADD SWAP1 PUSH2 0x42 SWAP2 SWAP1 PUSH2 0x1A8 JUMP JUMPDEST PUSH2 0x5D JUMP JUMPDEST PUSH1 0x40 MLOAD PUSH2 0x54 SWAP2 SWAP1 PUSH2 0x25D JUMP JUMPDEST PUSH1 0x40 MLOAD DUP1 SWAP2 SUB SWAP1 RETURN JUMPDEST PUSH1 0x60 PUSH0 DUP3 GT DUP1 ISZERO PUSH2 0x6F JUMPI POP PUSH2 0xFA0 DUP3 LT JUMPDEST PUSH2 0xAE JUMPI PUSH1 0x40 MLOAD PUSH32 0x8C379A000000000000000000000000000000000000000000000000000000000 DUP2 MSTORE PUSH1 0x4 ADD PUSH2 0xA5 SWAP1 PUSH2 0x2C7 JUMP JUMPDEST PUSH1 0x40 MLOAD DUP1 SWAP2 SUB SWAP1 REVERT JUMPDEST PUSH1 0x1E PUSH2 0x3E8 DUP4 PUSH2 0xBE SWAP2 SWAP1 PUSH2 0x312 JUMP JUMPDEST PUSH1 0x4 DUP2 LT PUSH2 0xCF JUMPI PUSH2 0xCE PUSH2 0x342 JUMP JUMPDEST JUMPDEST ADD PUSH1 0x14 PUSH1 0xA PUSH1 0x64 DUP6 PUSH2 0xE1 SWAP2 SWAP1 PUSH2 0x312 JUMP JUMPDEST PUSH2 0xEB SWAP2 SWAP1 PUSH2 0x36F JUMP JUMPDEST PUSH1 0xA DUP2 LT PUSH2 0xFC JUMPI PUSH2 0xFB PUSH2 0x342 JUMP JUMPDEST JUMPDEST ADD PUSH1 0xA DUP1 DUP1 DUP7 PUSH2 0x10C SWAP2 SWAP1 PUSH2 0x312 JUMP JUMPDEST PUSH2 0x116 SWAP2 SWAP1 PUSH2 0x36F JUMP JUMPDEST PUSH1 0xA DUP2 LT PUSH2 0x127 JUMPI PUSH2 0x126 PUSH2 0x342 JUMP JUMPDEST JUMPDEST ADD PUSH0 PUSH1 0xA DUP7 PUSH2 0x136 SWAP2 SWAP1 PUSH2 0x36F JUMP JUMPDEST PUSH1 0xA DUP2 LT PUSH2 0x147 JUMPI PUSH2 0x146 PUSH2 0x342 JUMP JUMPDEST JUMPDEST ADD PUSH1 0x40 MLOAD PUSH1 0x20 ADD PUSH2 0x15B SWAP5 SWAP4 SWAP3 SWAP2 SWAP1 PUSH2 0x498 JUMP JUMPDEST PUSH1 0x40 MLOAD PUSH1 0x20 DUP2 DUP4 SUB SUB DUP2 MSTORE SWAP1 PUSH1 0x40 MSTORE SWAP1 POP SWAP2 SWAP1 POP JUMP JUMPDEST PUSH0 PUSH0 REVERT JUMPDEST PUSH0 DUP2 SWAP1 POP SWAP2 SWAP1 POP JUMP JUMPDEST PUSH2 0x187 DUP2 PUSH2 0x175 JUMP JUMPDEST DUP2 EQ PUSH2 0x191 JUMPI PUSH0 PUSH0 REVERT JUMPDEST POP JUMP JUMPDEST PUSH0 DUP2 CALLDATALOAD SWAP1 POP PUSH2 0x1A2 DUP2 PUSH2 0x17E JUMP JUMPDEST SWAP3 SWAP2 POP POP JUMP JUMPDEST PUSH0 PUSH1 0x20 DUP3 DUP5 SUB SLT ISZERO PUSH2 0x1BD JUMPI PUSH2 0x1BC PUSH2 0x171 JUMP JUMPDEST JUMPDEST PUSH0 PUSH2 0x1CA DUP5 DUP3 DUP6 ADD PUSH2 0x194 JUMP JUMPDEST SWAP2 POP POP SWAP3 SWAP2 POP POP JUMP JUMPDEST PUSH0 DUP2 MLOAD SWAP1 POP SWAP2 SWAP1 POP JUMP JUMPDEST PUSH0 DUP3 DUP3 MSTORE PUSH1 0x20 DUP3 ADD SWAP1 POP SWAP3 SWAP2 POP POP JUMP JUMPDEST PUSH0 JUMPDEST DUP4 DUP2 LT ISZERO PUSH2 0x20A JUMPI DUP1 DUP3 ADD MLOAD DUP2 DUP5 ADD MSTORE PUSH1 0x20 DUP2 ADD SWAP1 POP PUSH2 0x1EF JUMP JUMPDEST PUSH0 DUP5 DUP5 ADD MSTORE POP POP POP POP JUMP JUMPDEST PUSH0 PUSH1 0x1F NOT PUSH1 0x1F DUP4 ADD AND SWAP1 POP SWAP2 SWAP1 POP JUMP JUMPDEST PUSH0 PUSH2 0x22F DUP3 PUSH2 0x1D3 JUMP JUMPDEST PUSH2 0x239 DUP2 DUP6 PUSH2 0x1DD JUMP JUMPDEST SWAP4 POP PUSH2 0x249 DUP2 DUP6 PUSH1 0x20 DUP7 ADD PUSH2 0x1ED JUMP JUMPDEST PUSH2 0x252 DUP2 PUSH2 0x215 JUMP JUMPDEST DUP5 ADD SWAP2 POP POP SWAP3 SWAP2 POP POP JUMP JUMPDEST PUSH0 PUSH1 0x20 DUP3 ADD SWAP1 POP DUP2 DUP2 SUB PUSH0 DUP4 ADD MSTORE PUSH2 0x275 DUP2 DUP5 PUSH2 0x225 JUMP JUMPDEST SWAP1 POP SWAP3 SWAP2 POP POP JUMP JUMPDEST PUSH32 0x6F7574206F662072616E67650000000000000000000000000000000000000000 PUSH0 DUP3 ADD MSTORE POP JUMP JUMPDEST PUSH0 PUSH2 0x2B1 PUSH1 0xC DUP4 PUSH2 0x1DD JUMP JUMPDEST SWAP2 POP PUSH2 0x2BC DUP3 PUSH2 0x27D JUMP JUMPDEST PUSH1 0x20 DUP3 ADD SWAP1 POP SWAP2 SWAP1 POP JUMP JUMPDEST PUSH0 PUSH1 0x20 DUP3 ADD SWAP1 POP DUP2 DUP2 SUB PUSH0 DUP4 ADD MSTORE PUSH2 0x2DE DUP2 PUSH2 0x2A5 JUMP JUMPDEST SWAP1 POP SWAP2 SWAP1 POP JUMP JUMPDEST PUSH32 0x4E487B7100000000000000000000000000000000000000000000000000000000 PUSH0 MSTORE PUSH1 0x12 PUSH1 0x4 MSTORE PUSH1 0x24 PUSH0 REVERT JUMPDEST PUSH0 PUSH2 0x31C DUP3 PUSH2 0x175 JUMP JUMPDEST SWAP2 POP PUSH2 0x327 DUP4 PUSH2 0x175 JUMP JUMPDEST SWAP3 POP DUP3 PUSH2 0x337 JUMPI PUSH2 0x336 PUSH2 0x2E5 JUMP JUMPDEST JUMPDEST DUP3 DUP3 DIV SWAP1 POP SWAP3 SWAP2 POP POP JUMP JUMPDEST PUSH32 0x4E487B7100000000000000000000000000000000000000000000000000000000 PUSH0 MSTORE PUSH1 0x32 PUSH1 0x4 MSTORE PUSH1 0x24 PUSH0 REVERT JUMPDEST PUSH0 PUSH2 0x379 DUP3 PUSH2 0x175 JUMP JUMPDEST SWAP2 POP PUSH2 0x384 DUP4 PUSH2 0x175 JUMP JUMPDEST SWAP3 POP DUP3 PUSH2 0x394 JUMPI PUSH2 0x393 PUSH2 0x2E5 JUMP JUMPDEST JUMPDEST DUP3 DUP3 MOD SWAP1 POP SWAP3 SWAP2 POP POP JUMP JUMPDEST PUSH32 0x4E487B7100000000000000000000000000000000000000000000000000000000 PUSH0 MSTORE PUSH1 0x22 PUSH1 0x4 MSTORE PUSH1 0x24 PUSH0 REVERT JUMPDEST PUSH0 PUSH1 0x2 DUP3 DIV SWAP1 POP PUSH1 0x1 DUP3 AND DUP1 PUSH2 0x3E3 JUMPI PUSH1 0x7F DUP3 AND SWAP2 POP JUMPDEST PUSH1 0x20 DUP3 LT DUP2 SUB PUSH2 0x3F6 JUMPI PUSH2 0x3F5 PUSH2 0x39F JUMP JUMPDEST JUMPDEST POP SWAP2 SWAP1 POP JUMP JUMPDEST PUSH0 DUP2 SWAP1 POP SWAP3 SWAP2 POP POP JUMP JUMPDEST PUSH0 DUP2 SWAP1 POP DUP2 PUSH0 MSTORE PUSH1 0x20 PUSH0 KECCAK256 SWAP1 POP SWAP2 SWAP1 POP JUMP JUMPDEST PUSH0 DUP2 SLOAD PUSH2 0x424 DUP2 PUSH2 0x3CC JUMP JUMPDEST PUSH2 0x42E DUP2 DUP7 PUSH2 0x3FC JUMP JUMPDEST SWAP5 POP PUSH1 0x1 DUP3 AND PUSH0 DUP2 EQ PUSH2 0x448 JUMPI PUSH1 0x1 DUP2 EQ PUSH2 0x45D JUMPI PUSH2 0x48F JUMP JUMPDEST PUSH1 0xFF NOT DUP4 AND DUP7 MSTORE DUP2 ISZERO ISZERO DUP3 MUL DUP7 ADD SWAP4 POP PUSH2 0x48F JUMP JUMPDEST PUSH2 0x466 DUP6 PUSH2 0x406 JUMP JUMPDEST PUSH0 JUMPDEST DUP4 DUP2 LT ISZERO PUSH2 0x487 JUMPI DUP2 SLOAD DUP2 DUP10 ADD MSTORE PUSH1 0x1 DUP3 ADD SWAP2 POP PUSH1 0x20 DUP2 ADD SWAP1 POP PUSH2 0x468 JUMP JUMPDEST DUP4 DUP9 ADD SWAP6 POP POP POP JUMPDEST POP POP POP SWAP3 SWAP2 POP POP JUMP JUMPDEST PUSH0 PUSH2 0x4A3 DUP3 DUP8 PUSH2 0x418 JUMP JUMPDEST SWAP2 POP PUSH2 0x4AF DUP3 DUP7 PUSH2 0x418 JUMP JUMPDEST SWAP2 POP PUSH2 0x4BB DUP3 DUP6 PUSH2 0x418 JUMP JUMPDEST SWAP2 POP PUSH2 0x4C7 DUP3 DUP5 PUSH2 0x418 JUMP JUMPDEST SWAP2 POP DUP2 SWAP1 POP SWAP6 SWAP5 POP POP POP POP POP JUMP INVALID LOG2 PUSH5 0x6970667358 0x22 SLT KECCAK256 PUSH1 0x5E RETURNDATACOPY PUSH1 0x4 0xE8 0xCA SLOAD CALLCODE COINBASE 0xB6 MUL PUSH4 0x357AD3FE 0xCF MOD MLOAD 0x4B ADDMOD SUB 0xDC 0x1F SWAP2 CALLDATACOPY CALLER 0x2E RETURNDATACOPY PREVRANDAO PREVRANDAO PUSH5 0x736F6C6343 STOP ADDMOD 0x1E STOP CALLER "
		},
		"gasEstimates": {
			"creation": {
				"codeDepositCost": "258200",
				"executionCost": "infinite",
				"totalCost": "infinite"
			},
			"external": {
				"int2Rom(uint256)": "infinite"
			}
		},
		"methodIdentifiers": {
			"int2Rom(uint256)": "d589df84"
		}
	},
	"abi": [
		{
			"inputs": [],
			"stateMutability": "nonpayable",
			"type": "constructor"
		},
		{
			"inputs": [
				{
					"internalType": "uint256",
					"name": "num",
					"type": "uint256"
				}
			],
			"name": "int2Rom",
			"outputs": [
				{
					"internalType": "string",
					"name": "",
					"type": "string"
				}
			],
			"stateMutability": "view",
			"type": "function"
		}
	]
}