{
	"data": {
		"bytecode": {
			"linkReferences": {},
			"object": "608060405234801561001057600080fd5b50610126806100206000396000f3fe6080604052348015600f57600080fd5b5060043610603b5760003560e01c806235921a1460405780636c1f222f14606257806372a099b7146084575b600080fd5b604660a6565b604051808260ff1660ff16815260200191505060405180910390f35b606860bd565b604051808260ff1660ff16815260200191505060405180910390f35b608a60da565b604051808260ff1660ff16815260200191505060405180910390f35b600080608090506000600282029050809250505090565b60008060f090506000601090506000818301905080935050505090565b60008060019050600060028203905080925050509056fea265627a7a72315820f8ed04a955e4ddbc5f5e9a0a8cfec42bf43a1af37e05fbe140ce7eca1b425e9564736f6c63430005110032",
			"opcodes": "PUSH1 0x80 PUSH1 0x40 MSTORE CALLVALUE DUP1 ISZERO PUSH2 0x10 JUMPI PUSH1 0x0 DUP1 REVERT JUMPDEST POP PUSH2 0x126 DUP1 PUSH2 0x20 PUSH1 0x0 CODECOPY PUSH1 0x0 RETURN INVALID PUSH1 0x80 PUSH1 0x40 MSTORE CALLVALUE DUP1 ISZERO PUSH1 0xF JUMPI PUSH1 0x0 DUP1 REVERT JUMPDEST POP PUSH1 0x4 CALLDATASIZE LT PUSH1 0x3B JUMPI PUSH1 0x0 CALLDATALOAD PUSH1 0xE0 SHR DUP1 PUSH3 0x35921A EQ PUSH1 0x40 JUMPI DUP1 PUSH4 0x6C1F222F EQ PUSH1 0x62 JUMPI DUP1 PUSH4 0x72A099B7 EQ PUSH1 0x84 JUMPI JUMPDEST PUSH1 0x0 DUP1 REVERT JUMPDEST PUSH1 0x46 PUSH1 0xA6 JUMP JUMPDEST PUSH1 0x40 MLOAD DUP1 DUP3 PUSH1 0xFF AND PUSH1 0xFF AND DUP2 MSTORE PUSH1 0x20 ADD SWAP2 POP POP PUSH1 0x40 MLOAD DUP1 SWAP2 SUB SWAP1 RETURN JUMPDEST PUSH1 0x68 PUSH1 0xBD JUMP JUMPDEST PUSH1 0x40 MLOAD DUP1 DUP3 PUSH1 0xFF AND PUSH1 0xFF AND DUP2 MSTORE PUSH1 0x20 ADD SWAP2 POP POP PUSH1 0x40 MLOAD DUP1 SWAP2 SUB SWAP1 RETURN JUMPDEST PUSH1 0x8A PUSH1 0xDA JUMP JUMPDEST PUSH1 0x40 MLOAD DUP1 DUP3 PUSH1 0xFF AND PUSH1 0xFF AND DUP2 MSTORE PUSH1 0x20 ADD SWAP2 POP POP PUSH1 0x40 MLOAD DUP1 SWAP2 SUB SWAP1 RETURN JUMPDEST PUSH1 0x0 DUP1 PUSH1 0x80 SWAP1 POP PUSH1 0x0 PUSH1 0x2 DUP3 MUL SWAP1 POP DUP1 SWAP3 POP POP POP SWAP1 JUMP JUMPDEST PUSH1 0x0 DUP1 PUSH1 0xF0 SWAP1 POP PUSH1 0x0 PUSH1 0x10 SWAP1 POP PUSH1 0x0 DUP2 DUP4 ADD SWAP1 POP DUP1 SWAP4 POP POP POP POP SWAP1 JUMP JUMPDEST PUSH1 0x0 DUP1 PUSH1 0x1 SWAP1 POP PUSH1 0x0 PUSH1 0x2 DUP3 SUB SWAP1 POP DUP1 SWAP3 POP POP POP SWAP1 JUMP INVALID LOG2 PUSH6 0x627A7A723158 KECCAK256 0xF8 0xED DIV 0xA9 SSTORE 0xE4 0xDD 0xBC 0x5F 0x5E SWAP11 EXP DUP13 INVALID 0xC4 0x2B DELEGATECALL GASPRICE BYTE RETURN PUSH31 0x5FBE140CE7ECA1B425E9564736F6C63430005110032000000000000000000 "
		},
		"gasEstimates": {
			"creation": {
				"codeDepositCost": "58800",
				"executionCost": "111",
				"totalCost": "58911"
			},
			"external": {
				"add1()": "237",
				"add2()": "270",
				"sub1()": "279"
			}
		},
		"methodIdentifiers": {
			"add1()": "0035921a",
			"add2()": "6c1f222f",
			"sub1()": "72a099b7"
		}
	},
	"abi": [
		{
			"constant": true,
			"inputs": [],
			"name": "add1",
			"outputs": [
				{
					"internalType": "uint8",
					"name": "",
					"type": "uint8"
				}
			],
			"payable": false,
			"stateMutability": "view",
			"type": "function"
		},
		{
			"constant": true,
			"inputs": [],
			"name": "add2",
			"outputs": [
				{
					"internalType": "uint8",
					"name": "",
					"type": "uint8"
				}
			],
			"payable": false,
			"stateMutability": "view",
			"type": "function"
		},
		{
			"constant": true,
			"inputs": [],
			"name": "sub1",
			"outputs": [
				{
					"internalType": "uint8",
					"name": "",
					"type": "uint8"
				}
			],
			"payable": false,
			"stateMutability": "view",
			"type": "function"
		}
	]
}